{
  "address": "0x5175cF53DDd3D0b5cb23a799886235b5F7FeCD42",
  "abi": [
    {
      "anonymous": false,
      "inputs": [
        {
          "indexed": false,
          "internalType": "uint64",
          "name": "frequency",
          "type": "uint64"
        }
      ],
      "name": "FrequencyUpdated",
      "type": "event"
    },
    {
      "anonymous": false,
      "inputs": [
        {
          "indexed": false,
          "internalType": "uint8",
          "name": "version",
          "type": "uint8"
        }
      ],
      "name": "Initialized",
      "type": "event"
    },
    {
      "anonymous": false,
      "inputs": [
        {
          "indexed": false,
          "internalType": "uint256",
          "name": "maxBet",
          "type": "uint256"
        }
      ],
      "name": "MaxBetUpdated",
      "type": "event"
    },
    {
      "anonymous": false,
      "inputs": [
        {
          "indexed": true,
          "internalType": "address",
          "name": "previousOwner",
          "type": "address"
        },
        {
          "indexed": true,
          "internalType": "address",
          "name": "newOwner",
          "type": "address"
        }
      ],
      "name": "OwnershipTransferred",
      "type": "event"
    },
    {
      "anonymous": false,
      "inputs": [
        {
          "indexed": true,
          "internalType": "address",
          "name": "polAddress",
          "type": "address"
        }
      ],
      "name": "POLAddressUpdated",
      "type": "event"
    },
    {
      "anonymous": false,
      "inputs": [
        {
          "indexed": false,
          "internalType": "uint256",
          "name": "polFee",
          "type": "uint256"
        }
      ],
      "name": "POLFeeUpdated",
      "type": "event"
    },
    {
      "anonymous": false,
      "inputs": [
        {
          "indexed": true,
          "internalType": "uint64",
          "name": "rollId",
          "type": "uint64"
        },
        {
          "indexed": true,
          "internalType": "address",
          "name": "to",
          "type": "address"
        },
        {
          "indexed": false,
          "internalType": "uint256",
          "name": "amount",
          "type": "uint256"
        },
        {
          "indexed": false,
          "internalType": "uint8",
          "name": "prediction",
          "type": "uint8"
        },
        {
          "indexed": false,
          "internalType": "uint256",
          "name": "payout",
          "type": "uint256"
        }
      ],
      "name": "Payout",
      "type": "event"
    },
    {
      "anonymous": false,
      "inputs": [
        {
          "indexed": true,
          "internalType": "address",
          "name": "revenueAddress",
          "type": "address"
        }
      ],
      "name": "RevenueAddressUpdated",
      "type": "event"
    },
    {
      "anonymous": false,
      "inputs": [
        {
          "indexed": false,
          "internalType": "uint256",
          "name": "revenueFee",
          "type": "uint256"
        }
      ],
      "name": "RevenueFeeUpdated",
      "type": "event"
    },
    {
      "anonymous": false,
      "inputs": [
        {
          "indexed": true,
          "internalType": "address",
          "name": "rewarder",
          "type": "address"
        }
      ],
      "name": "RewarderUpdated",
      "type": "event"
    },
    {
      "anonymous": false,
      "inputs": [
        {
          "indexed": true,
          "internalType": "uint64",
          "name": "rollId",
          "type": "uint64"
        },
        {
          "indexed": false,
          "internalType": "uint256",
          "name": "totalValue",
          "type": "uint256"
        },
        {
          "indexed": false,
          "internalType": "uint256",
          "name": "result",
          "type": "uint256"
        }
      ],
      "name": "RollEnd",
      "type": "event"
    },
    {
      "anonymous": false,
      "inputs": [
        {
          "indexed": true,
          "internalType": "uint64",
          "name": "rollId",
          "type": "uint64"
        },
        {
          "indexed": false,
          "internalType": "uint256",
          "name": "totalValue",
          "type": "uint256"
        }
      ],
      "name": "RollStart",
      "type": "event"
    },
    {
      "anonymous": false,
      "inputs": [
        {
          "indexed": true,
          "internalType": "uint64",
          "name": "rollId",
          "type": "uint64"
        },
        {
          "indexed": true,
          "internalType": "address",
          "name": "from",
          "type": "address"
        },
        {
          "indexed": false,
          "internalType": "uint256",
          "name": "amount",
          "type": "uint256"
        },
        {
          "indexed": false,
          "internalType": "uint8",
          "name": "prediction",
          "type": "uint8"
        },
        {
          "indexed": false,
          "internalType": "uint256",
          "name": "poolTotal",
          "type": "uint256"
        }
      ],
      "name": "Wagered",
      "type": "event"
    },
    {
      "inputs": [
        {
          "internalType": "address",
          "name": "",
          "type": "address"
        },
        {
          "internalType": "uint256",
          "name": "",
          "type": "uint256"
        }
      ],
      "name": "bet",
      "outputs": [
        {
          "internalType": "uint256",
          "name": "amount",
          "type": "uint256"
        },
        {
          "internalType": "address",
          "name": "account",
          "type": "address"
        },
        {
          "internalType": "uint64",
          "name": "rollId",
          "type": "uint64"
        },
        {
          "internalType": "uint8",
          "name": "prediction",
          "type": "uint8"
        },
        {
          "internalType": "bool",
          "name": "paid",
          "type": "bool"
        }
      ],
      "stateMutability": "view",
      "type": "function"
    },
    {
      "inputs": [
        {
          "internalType": "address",
          "name": "user",
          "type": "address"
        },
        {
          "internalType": "uint64",
          "name": "rollId",
          "type": "uint64"
        }
      ],
      "name": "betsOnRoll",
      "outputs": [
        {
          "components": [
            {
              "internalType": "uint256",
              "name": "amount",
              "type": "uint256"
            },
            {
              "internalType": "address",
              "name": "account",
              "type": "address"
            },
            {
              "internalType": "uint64",
              "name": "rollId",
              "type": "uint64"
            },
            {
              "internalType": "uint8",
              "name": "prediction",
              "type": "uint8"
            },
            {
              "internalType": "bool",
              "name": "paid",
              "type": "bool"
            }
          ],
          "internalType": "struct Exotic.Bet[]",
          "name": "",
          "type": "tuple[]"
        }
      ],
      "stateMutability": "view",
      "type": "function"
    },
    {
      "inputs": [
        {
          "internalType": "uint256",
          "name": "",
          "type": "uint256"
        },
        {
          "internalType": "address",
          "name": "",
          "type": "address"
        },
        {
          "internalType": "uint256",
          "name": "",
          "type": "uint256"
        }
      ],
      "name": "betsPerRoll",
      "outputs": [
        {
          "internalType": "uint256",
          "name": "",
          "type": "uint256"
        }
      ],
      "stateMutability": "view",
      "type": "function"
    },
    {
      "inputs": [],
      "name": "currentRollId",
      "outputs": [
        {
          "internalType": "uint256",
          "name": "",
          "type": "uint256"
        }
      ],
      "stateMutability": "view",
      "type": "function"
    },
    {
      "inputs": [
        {
          "internalType": "uint64",
          "name": "rollId",
          "type": "uint64"
        }
      ],
      "name": "currentWeight",
      "outputs": [
        {
          "internalType": "uint256[6]",
          "name": "",
          "type": "uint256[6]"
        }
      ],
      "stateMutability": "view",
      "type": "function"
    },
    {
      "inputs": [
        {
          "internalType": "uint256",
          "name": "requestId",
          "type": "uint256"
        },
        {
          "internalType": "uint256[]",
          "name": "randomWords",
          "type": "uint256[]"
        }
      ],
      "name": "endRoll",
      "outputs": [],
      "stateMutability": "nonpayable",
      "type": "function"
    },
    {
      "inputs": [],
      "name": "frequency",
      "outputs": [
        {
          "internalType": "uint64",
          "name": "",
          "type": "uint64"
        }
      ],
      "stateMutability": "view",
      "type": "function"
    },
    {
      "inputs": [
        {
          "internalType": "address",
          "name": "_randomProviderAddress",
          "type": "address"
        },
        {
          "internalType": "uint256",
          "name": "_revenueFee",
          "type": "uint256"
        },
        {
          "internalType": "uint256",
          "name": "_polFee",
          "type": "uint256"
        },
        {
          "internalType": "address",
          "name": "_revenueAddress",
          "type": "address"
        },
        {
          "internalType": "address",
          "name": "_polAddress",
          "type": "address"
        },
        {
          "internalType": "uint256",
          "name": "_maxBet",
          "type": "uint256"
        },
        {
          "internalType": "uint64",
          "name": "_frequency",
          "type": "uint64"
        }
      ],
      "name": "initialize",
      "outputs": [],
      "stateMutability": "nonpayable",
      "type": "function"
    },
    {
      "inputs": [],
      "name": "maxBet",
      "outputs": [
        {
          "internalType": "uint256",
          "name": "",
          "type": "uint256"
        }
      ],
      "stateMutability": "view",
      "type": "function"
    },
    {
      "inputs": [],
      "name": "nextRollId",
      "outputs": [
        {
          "internalType": "uint256",
          "name": "",
          "type": "uint256"
        }
      ],
      "stateMutability": "view",
      "type": "function"
    },
    {
      "inputs": [
        {
          "internalType": "uint64",
          "name": "rollId",
          "type": "uint64"
        },
        {
          "internalType": "uint8",
          "name": "result",
          "type": "uint8"
        }
      ],
      "name": "odds",
      "outputs": [
        {
          "internalType": "uint256",
          "name": "",
          "type": "uint256"
        }
      ],
      "stateMutability": "view",
      "type": "function"
    },
    {
      "inputs": [],
      "name": "owner",
      "outputs": [
        {
          "internalType": "address",
          "name": "",
          "type": "address"
        }
      ],
      "stateMutability": "view",
      "type": "function"
    },
    {
      "inputs": [
        {
          "internalType": "uint256",
          "name": "betId",
          "type": "uint256"
        }
      ],
      "name": "payout",
      "outputs": [],
      "stateMutability": "nonpayable",
      "type": "function"
    },
    {
      "inputs": [
        {
          "internalType": "uint64",
          "name": "rollId",
          "type": "uint64"
        },
        {
          "internalType": "uint8",
          "name": "prediction",
          "type": "uint8"
        }
      ],
      "name": "placeBet",
      "outputs": [
        {
          "internalType": "uint256",
          "name": "betId",
          "type": "uint256"
        }
      ],
      "stateMutability": "payable",
      "type": "function"
    },
    {
      "inputs": [],
      "name": "polAddress",
      "outputs": [
        {
          "internalType": "address",
          "name": "",
          "type": "address"
        }
      ],
      "stateMutability": "view",
      "type": "function"
    },
    {
      "inputs": [],
      "name": "polFee",
      "outputs": [
        {
          "internalType": "uint256",
          "name": "",
          "type": "uint256"
        }
      ],
      "stateMutability": "view",
      "type": "function"
    },
    {
      "inputs": [],
      "name": "randomProvider",
      "outputs": [
        {
          "internalType": "contract IRandomProvider",
          "name": "",
          "type": "address"
        }
      ],
      "stateMutability": "view",
      "type": "function"
    },
    {
      "inputs": [],
      "name": "renounceOwnership",
      "outputs": [],
      "stateMutability": "nonpayable",
      "type": "function"
    },
    {
      "inputs": [],
      "name": "revenueAddress",
      "outputs": [
        {
          "internalType": "address",
          "name": "",
          "type": "address"
        }
      ],
      "stateMutability": "view",
      "type": "function"
    },
    {
      "inputs": [],
      "name": "revenueFee",
      "outputs": [
        {
          "internalType": "uint256",
          "name": "",
          "type": "uint256"
        }
      ],
      "stateMutability": "view",
      "type": "function"
    },
    {
      "inputs": [],
      "name": "rewarder",
      "outputs": [
        {
          "internalType": "contract IRewarder",
          "name": "",
          "type": "address"
        }
      ],
      "stateMutability": "view",
      "type": "function"
    },
    {
      "inputs": [
        {
          "internalType": "uint64",
          "name": "",
          "type": "uint64"
        }
      ],
      "name": "roll",
      "outputs": [
        {
          "internalType": "uint256",
          "name": "result",
          "type": "uint256"
        },
        {
          "internalType": "uint256",
          "name": "requestId",
          "type": "uint256"
        }
      ],
      "stateMutability": "view",
      "type": "function"
    },
    {
      "inputs": [
        {
          "internalType": "uint64",
          "name": "rollId",
          "type": "uint64"
        }
      ],
      "name": "rollResult",
      "outputs": [
        {
          "internalType": "uint256",
          "name": "",
          "type": "uint256"
        }
      ],
      "stateMutability": "view",
      "type": "function"
    },
    {
      "inputs": [],
      "name": "start",
      "outputs": [
        {
          "internalType": "uint256",
          "name": "",
          "type": "uint256"
        }
      ],
      "stateMutability": "view",
      "type": "function"
    },
    {
      "inputs": [
        {
          "internalType": "uint64",
          "name": "rollId",
          "type": "uint64"
        }
      ],
      "name": "startRoll",
      "outputs": [],
      "stateMutability": "nonpayable",
      "type": "function"
    },
    {
      "inputs": [
        {
          "internalType": "uint64",
          "name": "rollId",
          "type": "uint64"
        }
      ],
      "name": "totalWagered",
      "outputs": [
        {
          "internalType": "uint256",
          "name": "",
          "type": "uint256"
        }
      ],
      "stateMutability": "view",
      "type": "function"
    },
    {
      "inputs": [
        {
          "internalType": "address",
          "name": "newOwner",
          "type": "address"
        }
      ],
      "name": "transferOwnership",
      "outputs": [],
      "stateMutability": "nonpayable",
      "type": "function"
    },
    {
      "inputs": [
        {
          "internalType": "uint64",
          "name": "_frequency",
          "type": "uint64"
        }
      ],
      "name": "updateFrequency",
      "outputs": [],
      "stateMutability": "nonpayable",
      "type": "function"
    },
    {
      "inputs": [
        {
          "internalType": "uint256",
          "name": "_maxBet",
          "type": "uint256"
        }
      ],
      "name": "updateMaxBet",
      "outputs": [],
      "stateMutability": "nonpayable",
      "type": "function"
    },
    {
      "inputs": [
        {
          "internalType": "address",
          "name": "_polAddress",
          "type": "address"
        }
      ],
      "name": "updatePOLAddress",
      "outputs": [],
      "stateMutability": "nonpayable",
      "type": "function"
    },
    {
      "inputs": [
        {
          "internalType": "uint256",
          "name": "_polFee",
          "type": "uint256"
        }
      ],
      "name": "updatePOLFee",
      "outputs": [],
      "stateMutability": "nonpayable",
      "type": "function"
    },
    {
      "inputs": [
        {
          "internalType": "address",
          "name": "_revenueAddress",
          "type": "address"
        }
      ],
      "name": "updateRevenueAddress",
      "outputs": [],
      "stateMutability": "nonpayable",
      "type": "function"
    },
    {
      "inputs": [
        {
          "internalType": "uint256",
          "name": "_revenueFee",
          "type": "uint256"
        }
      ],
      "name": "updateRevenueFee",
      "outputs": [],
      "stateMutability": "nonpayable",
      "type": "function"
    },
    {
      "inputs": [
        {
          "internalType": "contract IRewarder",
          "name": "_rewarder",
          "type": "address"
        }
      ],
      "name": "updateRewarder",
      "outputs": [],
      "stateMutability": "nonpayable",
      "type": "function"
    },
    {
      "inputs": [
        {
          "internalType": "address",
          "name": "user",
          "type": "address"
        },
        {
          "internalType": "uint256",
          "name": "betId",
          "type": "uint256"
        }
      ],
      "name": "userBet",
      "outputs": [
        {
          "components": [
            {
              "internalType": "uint256",
              "name": "amount",
              "type": "uint256"
            },
            {
              "internalType": "address",
              "name": "account",
              "type": "address"
            },
            {
              "internalType": "uint64",
              "name": "rollId",
              "type": "uint64"
            },
            {
              "internalType": "uint8",
              "name": "prediction",
              "type": "uint8"
            },
            {
              "internalType": "bool",
              "name": "paid",
              "type": "bool"
            }
          ],
          "internalType": "struct Exotic.Bet",
          "name": "",
          "type": "tuple"
        }
      ],
      "stateMutability": "view",
      "type": "function"
    },
    {
      "inputs": [
        {
          "internalType": "address",
          "name": "user",
          "type": "address"
        }
      ],
      "name": "userBetCount",
      "outputs": [
        {
          "internalType": "uint256",
          "name": "",
          "type": "uint256"
        }
      ],
      "stateMutability": "view",
      "type": "function"
    },
    {
      "inputs": [
        {
          "internalType": "uint64",
          "name": "rollId",
          "type": "uint64"
        },
        {
          "internalType": "address",
          "name": "user",
          "type": "address"
        },
        {
          "internalType": "uint256",
          "name": "betId",
          "type": "uint256"
        }
      ],
      "name": "userRollBet",
      "outputs": [
        {
          "components": [
            {
              "internalType": "uint256",
              "name": "amount",
              "type": "uint256"
            },
            {
              "internalType": "address",
              "name": "account",
              "type": "address"
            },
            {
              "internalType": "uint64",
              "name": "rollId",
              "type": "uint64"
            },
            {
              "internalType": "uint8",
              "name": "prediction",
              "type": "uint8"
            },
            {
              "internalType": "bool",
              "name": "paid",
              "type": "bool"
            }
          ],
          "internalType": "struct Exotic.Bet",
          "name": "",
          "type": "tuple"
        }
      ],
      "stateMutability": "view",
      "type": "function"
    },
    {
      "inputs": [
        {
          "internalType": "uint256",
          "name": "rollId",
          "type": "uint256"
        },
        {
          "internalType": "address",
          "name": "user",
          "type": "address"
        }
      ],
      "name": "userRollBetCount",
      "outputs": [
        {
          "internalType": "uint256",
          "name": "",
          "type": "uint256"
        }
      ],
      "stateMutability": "view",
      "type": "function"
    },
    {
      "inputs": [
        {
          "internalType": "address",
          "name": "user",
          "type": "address"
        },
        {
          "internalType": "uint64",
          "name": "rollId",
          "type": "uint64"
        },
        {
          "internalType": "uint256",
          "name": "rollBetId",
          "type": "uint256"
        }
      ],
      "name": "userRollBetId",
      "outputs": [
        {
          "internalType": "uint256",
          "name": "",
          "type": "uint256"
        }
      ],
      "stateMutability": "view",
      "type": "function"
    }
  ],
  "transactionHash": "0x3b6101d11b91f40fb40a803e5f81e1e5a614fd45427e22e18998ec0ba67b40f7",
  "args": [],
  "numDeployments": 2,
  "solcInputHash": "0521f099f8a61c5b40d59c4e57ce3a70",
  "bytecode": "0x608060405234801561001057600080fd5b50612e4f806100206000396000f3fe6080604052600436106102a05760003560e01c806397d147141161016e578063dcc3e06e116100cb578063f2fde38b1161007f578063f502925411610064578063f5029254146107a0578063f846cabc146107c0578063fdd288591461082357600080fd5b8063f2fde38b1461074a578063f408a23a1461076a57600080fd5b8063ea1e302d116100b0578063ea1e302d146106d6578063ead50da3146106e9578063ecc024381461072a57600080fd5b8063dcc3e06e14610696578063e1152343146106b657600080fd5b8063b410908d11610122578063be9a655511610107578063be9a655514610640578063cfb125cd14610656578063d613b60d1461067657600080fd5b8063b410908d14610600578063be8a83cb1461062057600080fd5b8063a55cd51c11610153578063a55cd51c146105a0578063a655f29e146105c0578063af3645c4146105e057600080fd5b806397d1471414610560578063a1aa2b5b1461058057600080fd5b806346b697fe1161021c5780636589a9e2116101d057806372b51dfa116101b557806372b51dfa146104e15780638da5cb5b1461050e5780638f46500e1461054057600080fd5b80636589a9e2146104ac578063715018a6146104cc57600080fd5b8063591378c411610201578063591378c41461042d57806361684d01146104765780636390e63b1461048c57600080fd5b806346b697fe146103ca578063561276341461040d57600080fd5b80632e5b21681161027357806338b5be4b1161025857806338b5be4b1461035d5780633969f8031461037d5780634195ab8e1461039d57600080fd5b80632e5b21681461033157806336e4ec641461034757600080fd5b8063164b4f62146102a5578063165f1125146102cd5780631b9632ac146102ef5780631d1472111461031c575b600080fd5b3480156102b157600080fd5b506102ba610843565b6040519081526020015b60405180910390f35b3480156102d957600080fd5b506102ed6102e8366004612a95565b610891565b005b3480156102fb57600080fd5b5061030f61030a366004612988565b6109fb565b6040516102c49190612be1565b34801561032857600080fd5b506102ba610be8565b34801561033d57600080fd5b506102ba606b5481565b34801561035357600080fd5b506102ba60675481565b34801561036957600080fd5b506102ed610378366004612b66565b610c13565b34801561038957600080fd5b506102ba610398366004612b66565b610e3c565b3480156103a957600080fd5b506103bd6103b83660046128e5565b610f08565b6040516102c49190612ca3565b3480156103d657600080fd5b506102ba6103e5366004612a2d565b60009182526070602090815260408084206001600160a01b0393909316845291905290205490565b34801561041957600080fd5b506102ba610428366004612a5d565b610fce565b34801561043957600080fd5b50610461610448366004612b66565b606d602052600090815260409020805460019091015482565b604080519283526020830191909152016102c4565b34801561048257600080fd5b506102ba60685481565b34801561049857600080fd5b506102ba6104a73660046129bd565b61100c565b3480156104b857600080fd5b506102ba6104c7366004612baf565b61105f565b3480156104d857600080fd5b506102ed611174565b3480156104ed57600080fd5b506105016104fc366004612b66565b6111da565b6040516102c49190612c72565b34801561051a57600080fd5b506033546001600160a01b03165b6040516001600160a01b0390911681526020016102c4565b34801561054c57600080fd5b50606554610528906001600160a01b031681565b34801561056c57600080fd5b506102ed61057b3660046128c8565b611234565b34801561058c57600080fd5b506102ba61059b366004612b66565b6112d8565b3480156105ac57600080fd5b506102ed6105bb3660046129fb565b61146b565b3480156105cc57600080fd5b506102ed6105db3660046129fb565b611501565b3480156105ec57600080fd5b506102ed6105fb3660046128c8565b611590565b34801561060c57600080fd5b50606954610528906001600160a01b031681565b34801561062c57600080fd5b506102ed61063b366004612b66565b61168a565b34801561064c57600080fd5b506102ba60665481565b34801561066257600080fd5b50606a54610528906001600160a01b031681565b34801561068257600080fd5b506102ed6106913660046129fb565b611754565b3480156106a257600080fd5b50606c54610528906001600160a01b031681565b3480156106c257600080fd5b506102ed6106d13660046129fb565b6117e3565b6102ba6106e4366004612baf565b611a27565b3480156106f557600080fd5b5060655461071190600160a01b900467ffffffffffffffff1681565b60405167ffffffffffffffff90911681526020016102c4565b34801561073657600080fd5b506102ed610745366004612911565b61204e565b34801561075657600080fd5b506102ed6107653660046128c8565b61214b565b34801561077657600080fd5b506102ba6107853660046128c8565b6001600160a01b03166000908152606e602052604090205490565b3480156107ac57600080fd5b506103bd6107bb366004612b81565b61222d565b3480156107cc57600080fd5b506107e06107db3660046128e5565b61232e565b604080519586526001600160a01b03909416602086015267ffffffffffffffff9092169284019290925260ff90911660608301521515608082015260a0016102c4565b34801561082f57600080fd5b506102ed61083e3660046128c8565b61239a565b60655460009061086490600160a01b900467ffffffffffffffff1642612d71565b6065546108829190600160a01b900467ffffffffffffffff16612d3f565b61088c9042612cf4565b905090565b6065546001600160a01b031633146108f05760405162461bcd60e51b815260206004820152601a60248201527f4e6f7420416c6c6f7765642072616e646f6d50726f766964657200000000000060448201526064015b60405180910390fd5b6000828152606f602090815260408083205467ffffffffffffffff16808452606d9092529091208054156109665760405162461bcd60e51b815260206004820152601c60248201527f52616e646f6d6e65737320616c72656164792066756c66696c6c65640000000060448201526064016108e7565b8260008151811061097957610979612dd8565b6020908102919091010151815567ffffffffffffffff82167f3f1673b2a61754bec64f37e8beeb0597773dcf48b3fa582f30c64878fdf1f6066109bb84610e3c565b856000815181106109ce576109ce612dd8565b60200260200101516040516109ed929190918252602082015260400190565b60405180910390a250505050565b67ffffffffffffffff811660009081526070602090815260408083206001600160a01b03861684528252808320805482518185028101850190935280835260609493830182828015610a6c57602002820191906000526020600020905b815481526020019060010190808311610a58575b50505050509050600080825167ffffffffffffffff811115610a9057610a90612dee565b604051908082528060200260200182016040528015610ae957816020015b6040805160a081018252600080825260208083018290529282018190526060820181905260808201528252600019909201910181610aae5790505b509050600091505b8251821015610bdd576001600160a01b0386166000908152606e602052604090208351849084908110610b2657610b26612dd8565b602002602001015181548110610b3e57610b3e612dd8565b60009182526020918290206040805160a081018252600290930290910180548352600101546001600160a01b0381169383019390935267ffffffffffffffff600160a01b8404169082015260ff600160e01b830481166060830152600160e81b909204909116151560808201528151829084908110610bbf57610bbf612dd8565b60200260200101819052508180610bd590612d56565b925050610af1565b925050505b92915050565b606554600090610c0990600160a01b900467ffffffffffffffff1642612d71565b61088c9042612d3f565b610c1c81612494565b8067ffffffffffffffff164211610c755760405162461bcd60e51b815260206004820152601160248201527f526f6c6c206e6f742066696e697368656400000000000000000000000000000060448201526064016108e7565b67ffffffffffffffff81166000908152606d60205260409020600181015415610ce05760405162461bcd60e51b815260206004820152601860248201527f526573756c7420616c726561647920726571756573746564000000000000000060448201526064016108e7565b805415610d2f5760405162461bcd60e51b815260206004820152601d60248201527f526f6c6c20726573756c7420616c72656164792066756c66696c6c656400000060448201526064016108e7565b606554604080517fe0c8628900000000000000000000000000000000000000000000000000000000815290516000926001600160a01b03169163e0c8628991600480830192602092919082900301818787803b158015610d8e57600080fd5b505af1158015610da2573d6000803e3d6000fd5b505050506040513d601f19601f82011682018060405250810190610dc69190612a14565b600183018190556000818152606f60205260409020805467ffffffffffffffff191667ffffffffffffffff86169081179091559091507f6abbcac270a7e73b86c89e6e279a18fd9b2946513a3feecb3e960b07de1a20ec610e2685610e3c565b60405190815260200160405180910390a2505050565b67ffffffffffffffff81166000908152606d60209081526040808320815160608101835281548152600182015493810193909352815160c0810180845285949384019190600284019060069082845b815481526020019060010190808311610e8b575050509190925250505060408181015160a08101516080820151606083015193830151602084015193519596509194909392610ed991612cf4565b610ee39190612cf4565b610eed9190612cf4565b610ef79190612cf4565b610f019190612cf4565b9392505050565b6040805160a0810182526000808252602080830182905282840182905260608301829052608083018290526001600160a01b0386168252606e905291909120805483908110610f5957610f59612dd8565b60009182526020918290206040805160a081018252600290930290910180548352600101546001600160a01b0381169383019390935267ffffffffffffffff600160a01b8404169082015260ff600160e01b830481166060830152600160e81b90920490911615156080820152905092915050565b60706020528260005260406000206020528160005260406000208181548110610ff657600080fd5b9060005260206000200160009250925050505481565b67ffffffffffffffff821660009081526070602090815260408083206001600160a01b0387168452909152812080548390811061104b5761104b612dd8565b906000526020600020015490509392505050565b67ffffffffffffffff82166000908152606d60209081526040808320815160608101835281548152600182015493810193909352815160c0810180845285949384019190600284019060069082845b8154815260200190600101908083116110ae57505050505081525050905060068360ff161061111f5760405162461bcd60e51b815260206004820181905260248201527f4f6e6c792077696e206265742063757272656e746c7920737570706f7274656460448201526064016108e7565b600061112a85610e3c565b90508061113c57600092505050610be2565b8082604001518560ff166006811061115657611156612dd8565b602002015161116a906402540be400612d20565b610bdd9190612d0c565b6033546001600160a01b031633146111ce5760405162461bcd60e51b815260206004820181905260248201527f4f776e61626c653a2063616c6c6572206973206e6f7420746865206f776e657260448201526064016108e7565b6111d86000612625565b565b6111e2612892565b67ffffffffffffffff82166000908152606d602052604090819020815160c0810190925260020160068282826020028201915b8154815260200190600101908083116112155750505050509050919050565b6033546001600160a01b0316331461128e5760405162461bcd60e51b815260206004820181905260248201527f4f776e61626c653a2063616c6c6572206973206e6f7420746865206f776e657260448201526064016108e7565b606c80546001600160a01b0319166001600160a01b0383169081179091556040517f47c9042c3be42a955f60f9b75006522826af1a3bed83e26646997d3bcccda77c90600090a250565b67ffffffffffffffff81166000908152606d60209081526040808320815160608101835281548152600182015493810193909352815160c0810180845285949384019190600284019060069082845b815481526020019060010190808311611327575050509190925250508151919250506113955760405162461bcd60e51b815260206004820152601460248201527f526f6c6c206973206e6f742066696e697368656400000000000000000000000060448201526064016108e7565b6000805b60068210156113db57826040015182600681106113b8576113b8612dd8565b60200201516113c79082612cf4565b9050816113d381612d56565b925050611399565b6000808285600001516113ee9190612d71565b9050600093505b600684101561146157808560400151856006811061141557611415612dd8565b6020020151111561142857839150611461565b8460400151846006811061143e5761143e612dd8565b602002015161144d9082612d3f565b90508361145981612d56565b9450506113f5565b5095945050505050565b6033546001600160a01b031633146114c55760405162461bcd60e51b815260206004820181905260248201527f4f776e61626c653a2063616c6c6572206973206e6f7420746865206f776e657260448201526064016108e7565b606b8190556040518181527f2b47c83dfa951a422411b397c029d005c87d9fa8fe9f6d2bc2620c23e5e00312906020015b60405180910390a150565b6033546001600160a01b0316331461155b5760405162461bcd60e51b815260206004820181905260248201527f4f776e61626c653a2063616c6c6572206973206e6f7420746865206f776e657260448201526064016108e7565b60678190556040518181527f14a368a696aca40efd280b31b2896f421c8a75eb772f8de1731eb220735395c6906020016114f6565b6033546001600160a01b031633146115ea5760405162461bcd60e51b815260206004820181905260248201527f4f776e61626c653a2063616c6c6572206973206e6f7420746865206f776e657260448201526064016108e7565b6001600160a01b0381166116405760405162461bcd60e51b815260206004820152601660248201527f46656520616464726573732063616e277420626520300000000000000000000060448201526064016108e7565b606a80546001600160a01b0319166001600160a01b0383169081179091556040517f5dc8a57b462a8fae72fded55639269f100cfd12e046986a8ef490d56d5edcbf790600090a250565b6033546001600160a01b031633146116e45760405162461bcd60e51b815260206004820181905260248201527f4f776e61626c653a2063616c6c6572206973206e6f7420746865206f776e657260448201526064016108e7565b606580547fffffffff0000000000000000ffffffffffffffffffffffffffffffffffffffff16600160a01b67ffffffffffffffff8416908102919091179091556040519081527f9d881bc8bb4b3652ec48088bd8e605869a941e61786bf02750449ce34881bf56906020016114f6565b6033546001600160a01b031633146117ae5760405162461bcd60e51b815260206004820181905260248201527f4f776e61626c653a2063616c6c6572206973206e6f7420746865206f776e657260448201526064016108e7565b60688190556040518181527f9afc1b03107862b2aabd5adaf9bf3a6c054623803995901416d64d2ac86ed01d906020016114f6565b336000908152606e6020526040812080548390811061180457611804612dd8565b6000918252602080832060016002909302019182015467ffffffffffffffff600160a01b909104168352606d905260409091208054919250906118895760405162461bcd60e51b815260206004820152601160248201527f526f6c6c206e6f742066696e697368656400000000000000000000000000000060448201526064016108e7565b6001820154600160e81b900460ff16156118e55760405162461bcd60e51b815260206004820152601060248201527f42657420616c726561647920706169640000000000000000000000000000000060448201526064016108e7565b600182015460009061190790600160a01b900467ffffffffffffffff166112d8565b6001840154909150600160e01b900460ff1681146119255750505050565b600183015460009061195290600160a01b810467ffffffffffffffff1690600160e01b900460ff1661105f565b905060008185600001546402540be40061196c9190612d20565b6119769190612d0c565b600186018054600160e81b60ff60e81b19909116179081905586546040805191825260ff600160e01b840416602083015281018390529192503391600160a01b90910467ffffffffffffffff16907ff4580f306b5592ada5d2370389f5afc4e6abbd1783abb1d65443df7d28be8c819060600160405180910390a3604051339082156108fc029083906000818181858888f19350505050158015611a1e573d6000803e3d6000fd5b50505050505050565b606554600090611a4890600160a01b900467ffffffffffffffff1684612d85565b67ffffffffffffffff1615611a9f5760405162461bcd60e51b815260206004820152600f60248201527f496e76616c696420726f6c6c204944000000000000000000000000000000000060448201526064016108e7565b67ffffffffffffffff83166000908152606d60205260409020600181015415611afa5760405162461bcd60e51b815260206004820152600d60248201526c526f6c6c2066696e6973696e6760981b60448201526064016108e7565b60068360ff1610611b4d5760405162461bcd60e51b815260206004820152601460248201527f4f6e6c792036206661636573206f66206469636500000000000000000000000060448201526064016108e7565b8367ffffffffffffffff16421115611bda57611b6884610e3c565b611bda5760405162461bcd60e51b815260206004820152602160248201527f43616e6e6f742066696e697368206120726163652077697468206e6f2062657460448201527f730000000000000000000000000000000000000000000000000000000000000060648201526084016108e7565b600061271060675434611bed9190612d20565b611bf79190612d0c565b9050600061271060685434611c0c9190612d20565b611c169190612d0c565b90506000611c248284612cf4565b611c2e9034612d3f565b9050606b54811115611c825760405162461bcd60e51b815260206004820152601660248201527f4265742061626f7665206d6178426574206c696d69740000000000000000000060448201526064016108e7565b6040805160a08101825282815233602080830182815267ffffffffffffffff808d1685870190815260ff808e1660608801908152600060808901818152888252606e88529981208054600181810183558284529883208b5160029092020190815596519688018054955193519b511515600160e81b0260ff60e81b199c909516600160e01b029b909b167fffff0000ffffffffffffffffffffffffffffffffffffffffffffffffffffffff93909616600160a01b027fffffffff000000000000000000000000000000000000000000000000000000009095166001600160a01b0397909716969096179390931716929092179190911790955591909352549091611d8b91612d3f565b955081856002018860ff1660068110611da657611da6612dd8565b016000828254611db69190612cf4565b909155505067ffffffffffffffff881660008181526070602090815260408083203380855290835290832080546001810182559084529190922001889055907f4ca8370402b96db401bce3c1e5c223107a1184f0e382b37d73b5f3f3766b6a48848a611e218d610e3c565b6040805193845260ff90921660208401529082015260600160405180910390a3428867ffffffffffffffff161015611e5c57611e5c88610c13565b606c546001600160a01b031615611efa57606c546040517f51f39e0600000000000000000000000000000000000000000000000000000000815233600482015234602482015267ffffffffffffffff8a1660448201526001600160a01b03909116906351f39e0690606401600060405180830381600087803b158015611ee157600080fd5b505af1158015611ef5573d6000803e3d6000fd5b505050505b606a546040516000916001600160a01b03169085908381818185875af1925050503d8060008114611f47576040519150601f19603f3d011682016040523d82523d6000602084013e611f4c565b606091505b5050905080611f9d5760405162461bcd60e51b815260206004820152601060248201527f504f4c20466565206e6f742073656e740000000000000000000000000000000060448201526064016108e7565b6069546040516001600160a01b03909116908690600081818185875af1925050503d8060008114611fea576040519150601f19603f3d011682016040523d82523d6000602084013e611fef565b606091505b505080915050806120425760405162461bcd60e51b815260206004820152601460248201527f526576656e756520466565206e6f742073656e7400000000000000000000000060448201526064016108e7565b50505050505092915050565b600061205a6001612677565b90508015612072576000805461ff0019166101001790555b426066556065805460678990556068889055606980546001600160a01b038981166001600160a01b031992831617909255606a80548984169216919091179055606b86905567ffffffffffffffff8516600160a01b027fffffffff00000000000000000000000000000000000000000000000000000000909216908b16171790556120fb6127b0565b8015612141576000805461ff0019169055604051600181527f7f26b83ff96e1f2b6a682f133852f6798a09c465da95921460cefb38474024989060200160405180910390a15b5050505050505050565b6033546001600160a01b031633146121a55760405162461bcd60e51b815260206004820181905260248201527f4f776e61626c653a2063616c6c6572206973206e6f7420746865206f776e657260448201526064016108e7565b6001600160a01b0381166122215760405162461bcd60e51b815260206004820152602660248201527f4f776e61626c653a206e6577206f776e657220697320746865207a65726f206160448201527f646472657373000000000000000000000000000000000000000000000000000060648201526084016108e7565b61222a81612625565b50565b6040805160a0810182526000808252602080830182905282840182905260608301829052608083018290526001600160a01b038616808352606e825284832067ffffffffffffffff8916845260708352858420918452915292902080549192918490811061229d5761229d612dd8565b9060005260206000200154815481106122b8576122b8612dd8565b60009182526020918290206040805160a081018252600290930290910180548352600101546001600160a01b0381169383019390935267ffffffffffffffff600160a01b8404169082015260ff600160e01b830481166060830152600160e81b9092049091161515608082015290509392505050565b606e602052816000526040600020818154811061234a57600080fd5b6000918252602090912060029091020180546001909101549092506001600160a01b038116915067ffffffffffffffff600160a01b8204169060ff600160e01b8204811691600160e81b90041685565b6033546001600160a01b031633146123f45760405162461bcd60e51b815260206004820181905260248201527f4f776e61626c653a2063616c6c6572206973206e6f7420746865206f776e657260448201526064016108e7565b6001600160a01b03811661244a5760405162461bcd60e51b815260206004820152601660248201527f46656520616464726573732063616e277420626520300000000000000000000060448201526064016108e7565b606980546001600160a01b0319166001600160a01b0383169081179091556040517f12c87c4c1bec313f335ef0060b241de51ec549e8c57a25aae98da2ad10837cde90600090a250565b6065546124b290600160a01b900467ffffffffffffffff1682612d85565b67ffffffffffffffff16156125095760405162461bcd60e51b815260206004820152600f60248201527f496e76616c696420726f6c6c204944000000000000000000000000000000000060448201526064016108e7565b6066548167ffffffffffffffff1610156125655760405162461bcd60e51b815260206004820152601660248201527f4c6976696e6720696e2074686520706173742062726f0000000000000000000060448201526064016108e7565b67ffffffffffffffff81166000908152606d6020526040902054156125cc5760405162461bcd60e51b815260206004820152600d60248201527f526f6c6c2066696e69736865640000000000000000000000000000000000000060448201526064016108e7565b67ffffffffffffffff8082166000908152606f6020526040902054161561222a5760405162461bcd60e51b815260206004820152600d60248201526c526f6c6c2066696e6973696e6760981b60448201526064016108e7565b603380546001600160a01b038381166001600160a01b0319831681179093556040519116919082907f8be0079c531659141344cd1fd0a4f28419497f9722a3daafe3b4186f6b6457e090600090a35050565b60008054610100900460ff1615612714578160ff16600114801561269a5750303b155b61270c5760405162461bcd60e51b815260206004820152602e60248201527f496e697469616c697a61626c653a20636f6e747261637420697320616c72656160448201527f647920696e697469616c697a656400000000000000000000000000000000000060648201526084016108e7565b506000919050565b60005460ff8084169116106127915760405162461bcd60e51b815260206004820152602e60248201527f496e697469616c697a61626c653a20636f6e747261637420697320616c72656160448201527f647920696e697469616c697a656400000000000000000000000000000000000060648201526084016108e7565b506000805460ff191660ff92909216919091179055600190565b919050565b600054610100900460ff1661281b5760405162461bcd60e51b815260206004820152602b60248201527f496e697469616c697a61626c653a20636f6e7472616374206973206e6f74206960448201526a6e697469616c697a696e6760a81b60648201526084016108e7565b6111d8600054610100900460ff166128895760405162461bcd60e51b815260206004820152602b60248201527f496e697469616c697a61626c653a20636f6e7472616374206973206e6f74206960448201526a6e697469616c697a696e6760a81b60648201526084016108e7565b6111d833612625565b6040518060c001604052806006906020820280368337509192915050565b803567ffffffffffffffff811681146127ab57600080fd5b6000602082840312156128da57600080fd5b8135610f0181612e04565b600080604083850312156128f857600080fd5b823561290381612e04565b946020939093013593505050565b600080600080600080600060e0888a03121561292c57600080fd5b873561293781612e04565b96506020880135955060408801359450606088013561295581612e04565b9350608088013561296581612e04565b925060a0880135915061297a60c089016128b0565b905092959891949750929550565b6000806040838503121561299b57600080fd5b82356129a681612e04565b91506129b4602084016128b0565b90509250929050565b6000806000606084860312156129d257600080fd5b83356129dd81612e04565b92506129eb602085016128b0565b9150604084013590509250925092565b600060208284031215612a0d57600080fd5b5035919050565b600060208284031215612a2657600080fd5b5051919050565b60008060408385031215612a4057600080fd5b823591506020830135612a5281612e04565b809150509250929050565b600080600060608486031215612a7257600080fd5b833592506020840135612a8481612e04565b929592945050506040919091013590565b60008060408385031215612aa857600080fd5b8235915060208084013567ffffffffffffffff80821115612ac857600080fd5b818601915086601f830112612adc57600080fd5b813581811115612aee57612aee612dee565b8060051b604051601f19603f83011681018181108582111715612b1357612b13612dee565b604052828152858101935084860182860187018b1015612b3257600080fd5b600095505b83861015612b55578035855260019590950194938601938601612b37565b508096505050505050509250929050565b600060208284031215612b7857600080fd5b610f01826128b0565b600080600060608486031215612b9657600080fd5b612b9f846128b0565b92506020840135612a8481612e04565b60008060408385031215612bc257600080fd5b612bcb836128b0565b9150602083013560ff81168114612a5257600080fd5b6020808252825182820181905260009190848201906040850190845b81811015612c6657612c53838551805182526001600160a01b03602082015116602083015267ffffffffffffffff604082015116604083015260ff60608201511660608301526080810151151560808301525050565b9284019260a09290920191600101612bfd565b50909695505050505050565b60c08101818360005b6006811015612c9a578151835260209283019290910190600101612c7b565b50505092915050565b60a08101610be28284805182526001600160a01b03602082015116602083015267ffffffffffffffff604082015116604083015260ff60608201511660608301526080810151151560808301525050565b60008219821115612d0757612d07612dac565b500190565b600082612d1b57612d1b612dc2565b500490565b6000816000190483118215151615612d3a57612d3a612dac565b500290565b600082821015612d5157612d51612dac565b500390565b6000600019821415612d6a57612d6a612dac565b5060010190565b600082612d8057612d80612dc2565b500690565b600067ffffffffffffffff80841680612da057612da0612dc2565b92169190910692915050565b634e487b7160e01b600052601160045260246000fd5b634e487b7160e01b600052601260045260246000fd5b634e487b7160e01b600052603260045260246000fd5b634e487b7160e01b600052604160045260246000fd5b6001600160a01b038116811461222a57600080fdfea2646970667358221220cd47836ef9874a3b1ab050b66ea82ba4641c7245f1d7bbd248c2261177c4cf6464736f6c63430008070033",
  "devdoc": {
    "kind": "dev",
    "methods": {
      "owner()": {
        "details": "Returns the address of the current owner."
      },
      "renounceOwnership()": {
        "details": "Leaves the contract without owner. It will not be possible to call `onlyOwner` functions anymore. Can only be called by the current owner. NOTE: Renouncing ownership will leave the contract without an owner, thereby removing any functionality that is only available to the owner."
      },
      "transferOwnership(address)": {
        "details": "Transfers ownership of the contract to a new account (`newOwner`). Can only be called by the current owner."
      }
    },
    "title": "An betting game with exotic bet types",
    "version": 1
  },
  "userdoc": {
    "events": {
      "Payout(uint64,address,uint256,uint8,uint256)": {
        "notice": "emitted when a bet is cashed out."
      },
      "RollEnd(uint64,uint256,uint256)": {
        "notice": "emitted when a roll ends."
      },
      "RollStart(uint64,uint256)": {
        "notice": "emitted when a roll starts."
      },
      "Wagered(uint64,address,uint256,uint8,uint256)": {
        "notice": "emitted when a new bet is placed on a role."
      }
    },
    "kind": "user",
    "methods": {
      "bet(address,uint256)": {
        "notice": "mapping of address to list of bets."
      },
      "endRoll(uint256,uint256[])": {
        "notice": "End the roll and set the result."
      },
      "frequency()": {
        "notice": "How often rolls take place."
      },
      "nextRollId()": {
        "notice": "The time of the next roll to take place."
      },
      "odds(uint64,uint8)": {
        "notice": "Get the current odds for a prediction."
      },
      "payout(uint256)": {
        "notice": "Cash out a winning bet."
      },
      "placeBet(uint64,uint8)": {
        "notice": "Place a bet."
      },
      "revenueFee()": {
        "notice": "Fee paramaters."
      },
      "roll(uint64)": {
        "notice": "The state for each roll."
      },
      "rollResult(uint64)": {
        "notice": "Return the results for a roll."
      },
      "start()": {
        "notice": "The datetime of the first roll."
      },
      "startRoll(uint64)": {
        "notice": "Start the roll and request result from VRF."
      },
      "userBet(address,uint256)": {
        "notice": "returns a users bet with given id."
      },
      "userBetCount(address)": {
        "notice": "Return the amount of bets a user has made."
      }
    },
    "version": 1
  },
  "storageLayout": {
    "storage": [
      {
        "astId": 277,
        "contract": "contracts/Exotic.sol:Exotic",
        "label": "_initialized",
        "offset": 0,
        "slot": "0",
        "type": "t_uint8"
      },
      {
        "astId": 280,
        "contract": "contracts/Exotic.sol:Exotic",
        "label": "_initializing",
        "offset": 1,
        "slot": "0",
        "type": "t_bool"
      },
      {
        "astId": 774,
        "contract": "contracts/Exotic.sol:Exotic",
        "label": "__gap",
        "offset": 0,
        "slot": "1",
        "type": "t_array(t_uint256)50_storage"
      },
      {
        "astId": 157,
        "contract": "contracts/Exotic.sol:Exotic",
        "label": "_owner",
        "offset": 0,
        "slot": "51",
        "type": "t_address"
      },
      {
        "astId": 269,
        "contract": "contracts/Exotic.sol:Exotic",
        "label": "__gap",
        "offset": 0,
        "slot": "52",
        "type": "t_array(t_uint256)49_storage"
      },
      {
        "astId": 3530,
        "contract": "contracts/Exotic.sol:Exotic",
        "label": "randomProvider",
        "offset": 0,
        "slot": "101",
        "type": "t_contract(IRandomProvider)6387"
      },
      {
        "astId": 3533,
        "contract": "contracts/Exotic.sol:Exotic",
        "label": "frequency",
        "offset": 20,
        "slot": "101",
        "type": "t_uint64"
      },
      {
        "astId": 3536,
        "contract": "contracts/Exotic.sol:Exotic",
        "label": "start",
        "offset": 0,
        "slot": "102",
        "type": "t_uint256"
      },
      {
        "astId": 3539,
        "contract": "contracts/Exotic.sol:Exotic",
        "label": "revenueFee",
        "offset": 0,
        "slot": "103",
        "type": "t_uint256"
      },
      {
        "astId": 3541,
        "contract": "contracts/Exotic.sol:Exotic",
        "label": "polFee",
        "offset": 0,
        "slot": "104",
        "type": "t_uint256"
      },
      {
        "astId": 3543,
        "contract": "contracts/Exotic.sol:Exotic",
        "label": "revenueAddress",
        "offset": 0,
        "slot": "105",
        "type": "t_address"
      },
      {
        "astId": 3545,
        "contract": "contracts/Exotic.sol:Exotic",
        "label": "polAddress",
        "offset": 0,
        "slot": "106",
        "type": "t_address"
      },
      {
        "astId": 3547,
        "contract": "contracts/Exotic.sol:Exotic",
        "label": "maxBet",
        "offset": 0,
        "slot": "107",
        "type": "t_uint256"
      },
      {
        "astId": 3550,
        "contract": "contracts/Exotic.sol:Exotic",
        "label": "rewarder",
        "offset": 0,
        "slot": "108",
        "type": "t_contract(IRewarder)6416"
      },
      {
        "astId": 3576,
        "contract": "contracts/Exotic.sol:Exotic",
        "label": "roll",
        "offset": 0,
        "slot": "109",
        "type": "t_mapping(t_uint64,t_struct(Roll)3570_storage)"
      },
      {
        "astId": 3583,
        "contract": "contracts/Exotic.sol:Exotic",
        "label": "bet",
        "offset": 0,
        "slot": "110",
        "type": "t_mapping(t_address,t_array(t_struct(Bet)3561_storage)dyn_storage)"
      },
      {
        "astId": 3588,
        "contract": "contracts/Exotic.sol:Exotic",
        "label": "requestIdRoll",
        "offset": 0,
        "slot": "111",
        "type": "t_mapping(t_uint256,t_uint64)"
      },
      {
        "astId": 3595,
        "contract": "contracts/Exotic.sol:Exotic",
        "label": "betsPerRoll",
        "offset": 0,
        "slot": "112",
        "type": "t_mapping(t_uint256,t_mapping(t_address,t_array(t_uint256)dyn_storage))"
      }
    ],
    "types": {
      "t_address": {
        "encoding": "inplace",
        "label": "address",
        "numberOfBytes": "20"
      },
      "t_array(t_struct(Bet)3561_storage)dyn_storage": {
        "base": "t_struct(Bet)3561_storage",
        "encoding": "dynamic_array",
        "label": "struct Exotic.Bet[]",
        "numberOfBytes": "32"
      },
      "t_array(t_uint256)49_storage": {
        "base": "t_uint256",
        "encoding": "inplace",
        "label": "uint256[49]",
        "numberOfBytes": "1568"
      },
      "t_array(t_uint256)50_storage": {
        "base": "t_uint256",
        "encoding": "inplace",
        "label": "uint256[50]",
        "numberOfBytes": "1600"
      },
      "t_array(t_uint256)6_storage": {
        "base": "t_uint256",
        "encoding": "inplace",
        "label": "uint256[6]",
        "numberOfBytes": "192"
      },
      "t_array(t_uint256)dyn_storage": {
        "base": "t_uint256",
        "encoding": "dynamic_array",
        "label": "uint256[]",
        "numberOfBytes": "32"
      },
      "t_bool": {
        "encoding": "inplace",
        "label": "bool",
        "numberOfBytes": "1"
      },
      "t_contract(IRandomProvider)6387": {
        "encoding": "inplace",
        "label": "contract IRandomProvider",
        "numberOfBytes": "20"
      },
      "t_contract(IRewarder)6416": {
        "encoding": "inplace",
        "label": "contract IRewarder",
        "numberOfBytes": "20"
      },
      "t_mapping(t_address,t_array(t_struct(Bet)3561_storage)dyn_storage)": {
        "encoding": "mapping",
        "key": "t_address",
        "label": "mapping(address => struct Exotic.Bet[])",
        "numberOfBytes": "32",
        "value": "t_array(t_struct(Bet)3561_storage)dyn_storage"
      },
      "t_mapping(t_address,t_array(t_uint256)dyn_storage)": {
        "encoding": "mapping",
        "key": "t_address",
        "label": "mapping(address => uint256[])",
        "numberOfBytes": "32",
        "value": "t_array(t_uint256)dyn_storage"
      },
      "t_mapping(t_uint256,t_mapping(t_address,t_array(t_uint256)dyn_storage))": {
        "encoding": "mapping",
        "key": "t_uint256",
        "label": "mapping(uint256 => mapping(address => uint256[]))",
        "numberOfBytes": "32",
        "value": "t_mapping(t_address,t_array(t_uint256)dyn_storage)"
      },
      "t_mapping(t_uint256,t_uint64)": {
        "encoding": "mapping",
        "key": "t_uint256",
        "label": "mapping(uint256 => uint64)",
        "numberOfBytes": "32",
        "value": "t_uint64"
      },
      "t_mapping(t_uint64,t_struct(Roll)3570_storage)": {
        "encoding": "mapping",
        "key": "t_uint64",
        "label": "mapping(uint64 => struct Exotic.Roll)",
        "numberOfBytes": "32",
        "value": "t_struct(Roll)3570_storage"
      },
      "t_struct(Bet)3561_storage": {
        "encoding": "inplace",
        "label": "struct Exotic.Bet",
        "members": [
          {
            "astId": 3552,
            "contract": "contracts/Exotic.sol:Exotic",
            "label": "amount",
            "offset": 0,
            "slot": "0",
            "type": "t_uint256"
          },
          {
            "astId": 3554,
            "contract": "contracts/Exotic.sol:Exotic",
            "label": "account",
            "offset": 0,
            "slot": "1",
            "type": "t_address"
          },
          {
            "astId": 3556,
            "contract": "contracts/Exotic.sol:Exotic",
            "label": "rollId",
            "offset": 20,
            "slot": "1",
            "type": "t_uint64"
          },
          {
            "astId": 3558,
            "contract": "contracts/Exotic.sol:Exotic",
            "label": "prediction",
            "offset": 28,
            "slot": "1",
            "type": "t_uint8"
          },
          {
            "astId": 3560,
            "contract": "contracts/Exotic.sol:Exotic",
            "label": "paid",
            "offset": 29,
            "slot": "1",
            "type": "t_bool"
          }
        ],
        "numberOfBytes": "64"
      },
      "t_struct(Roll)3570_storage": {
        "encoding": "inplace",
        "label": "struct Exotic.Roll",
        "members": [
          {
            "astId": 3563,
            "contract": "contracts/Exotic.sol:Exotic",
            "label": "result",
            "offset": 0,
            "slot": "0",
            "type": "t_uint256"
          },
          {
            "astId": 3565,
            "contract": "contracts/Exotic.sol:Exotic",
            "label": "requestId",
            "offset": 0,
            "slot": "1",
            "type": "t_uint256"
          },
          {
            "astId": 3569,
            "contract": "contracts/Exotic.sol:Exotic",
            "label": "winWeights",
            "offset": 0,
            "slot": "2",
            "type": "t_array(t_uint256)6_storage"
          }
        ],
        "numberOfBytes": "256"
      },
      "t_uint256": {
        "encoding": "inplace",
        "label": "uint256",
        "numberOfBytes": "32"
      },
      "t_uint64": {
        "encoding": "inplace",
        "label": "uint64",
        "numberOfBytes": "8"
      },
      "t_uint8": {
        "encoding": "inplace",
        "label": "uint8",
        "numberOfBytes": "1"
      }
    }
  }
}