{
  "address": "0xe9c873A2168C94c7659c0b22Ec82FF4e38B27D9C",
  "abi": [
    {
      "anonymous": false,
      "inputs": [
        {
          "indexed": true,
          "internalType": "address",
          "name": "game",
          "type": "address"
        }
      ],
      "name": "GameUpdated",
      "type": "event"
    },
    {
      "anonymous": false,
      "inputs": [
        {
          "indexed": false,
          "internalType": "uint8",
          "name": "version",
          "type": "uint8"
        }
      ],
      "name": "Initialized",
      "type": "event"
    },
    {
      "anonymous": false,
      "inputs": [
        {
          "indexed": true,
          "internalType": "address",
          "name": "previousOwner",
          "type": "address"
        },
        {
          "indexed": true,
          "internalType": "address",
          "name": "newOwner",
          "type": "address"
        }
      ],
      "name": "OwnershipTransferred",
      "type": "event"
    },
    {
      "anonymous": false,
      "inputs": [
        {
          "indexed": false,
          "internalType": "uint256",
          "name": "rate",
          "type": "uint256"
        }
      ],
      "name": "RateUpdated",
      "type": "event"
    },
    {
      "anonymous": false,
      "inputs": [
        {
          "indexed": true,
          "internalType": "address",
          "name": "token",
          "type": "address"
        }
      ],
      "name": "RewardTokenSet",
      "type": "event"
    },
    {
      "inputs": [
        {
          "internalType": "address",
          "name": "user",
          "type": "address"
        },
        {
          "internalType": "uint256",
          "name": "betAmount",
          "type": "uint256"
        }
      ],
      "name": "addReward",
      "outputs": [],
      "stateMutability": "nonpayable",
      "type": "function"
    },
    {
      "inputs": [
        {
          "internalType": "address",
          "name": "user",
          "type": "address"
        },
        {
          "internalType": "uint256",
          "name": "betAmount",
          "type": "uint256"
        },
        {
          "internalType": "uint64",
          "name": "rollId",
          "type": "uint64"
        }
      ],
      "name": "addRewardAdjusted",
      "outputs": [],
      "stateMutability": "nonpayable",
      "type": "function"
    },
    {
      "inputs": [
        {
          "internalType": "address",
          "name": "",
          "type": "address"
        }
      ],
      "name": "available",
      "outputs": [
        {
          "internalType": "uint256",
          "name": "",
          "type": "uint256"
        }
      ],
      "stateMutability": "view",
      "type": "function"
    },
    {
      "inputs": [],
      "name": "claim",
      "outputs": [],
      "stateMutability": "nonpayable",
      "type": "function"
    },
    {
      "inputs": [
        {
          "internalType": "address",
          "name": "user",
          "type": "address"
        }
      ],
      "name": "claimable",
      "outputs": [
        {
          "internalType": "uint256",
          "name": "",
          "type": "uint256"
        }
      ],
      "stateMutability": "view",
      "type": "function"
    },
    {
      "inputs": [
        {
          "internalType": "address",
          "name": "",
          "type": "address"
        }
      ],
      "name": "claimed",
      "outputs": [
        {
          "internalType": "uint256",
          "name": "",
          "type": "uint256"
        }
      ],
      "stateMutability": "view",
      "type": "function"
    },
    {
      "inputs": [],
      "name": "game",
      "outputs": [
        {
          "internalType": "address",
          "name": "",
          "type": "address"
        }
      ],
      "stateMutability": "view",
      "type": "function"
    },
    {
      "inputs": [
        {
          "internalType": "uint256",
          "name": "_rate",
          "type": "uint256"
        },
        {
          "internalType": "address",
          "name": "_game",
          "type": "address"
        }
      ],
      "name": "initialize",
      "outputs": [],
      "stateMutability": "nonpayable",
      "type": "function"
    },
    {
      "inputs": [],
      "name": "owner",
      "outputs": [
        {
          "internalType": "address",
          "name": "",
          "type": "address"
        }
      ],
      "stateMutability": "view",
      "type": "function"
    },
    {
      "inputs": [],
      "name": "rate",
      "outputs": [
        {
          "internalType": "uint256",
          "name": "",
          "type": "uint256"
        }
      ],
      "stateMutability": "view",
      "type": "function"
    },
    {
      "inputs": [],
      "name": "renounceOwnership",
      "outputs": [],
      "stateMutability": "nonpayable",
      "type": "function"
    },
    {
      "inputs": [
        {
          "internalType": "uint256",
          "name": "betAmount",
          "type": "uint256"
        },
        {
          "internalType": "uint64",
          "name": "rollId",
          "type": "uint64"
        }
      ],
      "name": "rewardableAmount",
      "outputs": [
        {
          "internalType": "uint256",
          "name": "",
          "type": "uint256"
        }
      ],
      "stateMutability": "view",
      "type": "function"
    },
    {
      "inputs": [
        {
          "internalType": "contract IERC20Upgradeable",
          "name": "_token",
          "type": "address"
        }
      ],
      "name": "setToken",
      "outputs": [],
      "stateMutability": "nonpayable",
      "type": "function"
    },
    {
      "inputs": [],
      "name": "sweep",
      "outputs": [],
      "stateMutability": "nonpayable",
      "type": "function"
    },
    {
      "inputs": [
        {
          "internalType": "address",
          "name": "newOwner",
          "type": "address"
        }
      ],
      "name": "transferOwnership",
      "outputs": [],
      "stateMutability": "nonpayable",
      "type": "function"
    },
    {
      "inputs": [
        {
          "internalType": "address",
          "name": "_game",
          "type": "address"
        }
      ],
      "name": "updateGame",
      "outputs": [],
      "stateMutability": "nonpayable",
      "type": "function"
    },
    {
      "inputs": [
        {
          "internalType": "uint256",
          "name": "_newRate",
          "type": "uint256"
        }
      ],
      "name": "updateRate",
      "outputs": [],
      "stateMutability": "nonpayable",
      "type": "function"
    },
    {
      "inputs": [],
      "name": "xtc",
      "outputs": [
        {
          "internalType": "contract IERC20Upgradeable",
          "name": "",
          "type": "address"
        }
      ],
      "stateMutability": "view",
      "type": "function"
    }
  ],
  "transactionHash": "0x147a53549f7025d8931428af1fdcb92676c867a8ab4f93c95376122f8b2154cf",
  "args": [],
  "numDeployments": 1,
  "solcInputHash": "0715b3e8b2bda165904a1aa4ae7ca1e9",
  "bytecode": "0x608060405234801561001057600080fd5b5061111a806100206000396000f3fe608060405234801561001057600080fd5b50600436106101365760003560e01c806369ea1771116100b2578063c3fe3e2811610081578063da35a26f11610066578063da35a26f14610272578063eae4914414610285578063f2fde38b1461029857600080fd5b8063c3fe3e281461023f578063c884ef831461025257600080fd5b806369ea177114610200578063715018a6146102135780638da5cb5b1461021b5780639feb8f501461022c57600080fd5b806335faa4161161010957806347f6f34a116100ee57806347f6f34a146101ba5780634e71d92d146101e557806351f39e06146101ed57600080fd5b806335faa4161461019f578063402914f5146101a757600080fd5b80630b79736e1461013b57806310098ad514610150578063144fa6d7146101835780632c4e722e14610196575b600080fd5b61014e610149366004610f0b565b6102ab565b005b61017061015e366004610f0b565b60656020526000908152604090205481565b6040519081526020015b60405180910390f35b61014e610191366004610f0b565b610361565b61017060685481565b61014e610468565b6101706101b5366004610f0b565b610644565b6067546101cd906001600160a01b031681565b6040516001600160a01b03909116815260200161017a565b61014e610678565b61014e6101fb366004610f5b565b6107b2565b61014e61020e366004610fbb565b6108c9565b61014e61095e565b6033546001600160a01b03166101cd565b61014e61023a366004610f2f565b6109c2565b6069546101cd906001600160a01b031681565b610170610260366004610f0b565b60666020526000908152604090205481565b61014e610280366004610fed565b610a68565b61017061029336600461101d565b610b0c565b61014e6102a6366004610f0b565b610b9e565b6033546001600160a01b0316331461030a5760405162461bcd60e51b815260206004820181905260248201527f4f776e61626c653a2063616c6c6572206973206e6f7420746865206f776e657260448201526064015b60405180910390fd5b6069805473ffffffffffffffffffffffffffffffffffffffff19166001600160a01b0383169081179091556040517f95faa39e28b11c7b6efeb8f394d6c96d0f08ad733b7ff855af52f44942310f5190600090a250565b6033546001600160a01b031633146103bb5760405162461bcd60e51b815260206004820181905260248201527f4f776e61626c653a2063616c6c6572206973206e6f7420746865206f776e65726044820152606401610301565b6001600160a01b0381166104115760405162461bcd60e51b815260206004820152601f60248201527f52657761726420746f6b656e2063616e277420626520302061646472657373006044820152606401610301565b6067805473ffffffffffffffffffffffffffffffffffffffff19166001600160a01b0383169081179091556040517f2d6b04df9b7d358407d1a014f1114b064add34c19d63d395db155a7e533e967a90600090a250565b6033546001600160a01b031633146104c25760405162461bcd60e51b815260206004820181905260248201527f4f776e61626c653a2063616c6c6572206973206e6f7420746865206f776e65726044820152606401610301565b6067546040517f70a082310000000000000000000000000000000000000000000000000000000081523060048201526001600160a01b039091169063a9059cbb90339083906370a082319060240160206040518083038186803b15801561052857600080fd5b505afa15801561053c573d6000803e3d6000fd5b505050506040513d601f19601f820116820180604052508101906105609190610fd4565b6040517fffffffff0000000000000000000000000000000000000000000000000000000060e085901b1681526001600160a01b0390921660048301526024820152604401602060405180830381600087803b1580156105be57600080fd5b505af11580156105d2573d6000803e3d6000fd5b505050506040513d601f19601f820116820180604052508101906105f69190610f99565b6106425760405162461bcd60e51b815260206004820152600f60248201527f6661696c656420746f20737765657000000000000000000000000000000000006044820152606401610301565b565b6001600160a01b038116600090815260666020908152604080832054606590925282205461067291906110a2565b92915050565b33600090815260666020908152604080832054606590925282205461069d91906110a2565b336000908152606660205260408120805492935083929091906106c1908490611049565b90915550506067546040517fa9059cbb000000000000000000000000000000000000000000000000000000008152336004820152602481018390526001600160a01b039091169063a9059cbb90604401602060405180830381600087803b15801561072b57600080fd5b505af115801561073f573d6000803e3d6000fd5b505050506040513d601f19601f820116820180604052508101906107639190610f99565b6107af5760405162461bcd60e51b815260206004820152600e60248201527f6661696c656420746f2073656e640000000000000000000000000000000000006044820152606401610301565b50565b6069546001600160a01b0316331461080c5760405162461bcd60e51b815260206004820152600f60248201527f43616c6c6572206e6f742067616d6500000000000000000000000000000000006044820152606401610301565b6000428267ffffffffffffffff161015610829575060685461087f565b6000603c6108414267ffffffffffffffff86166110a2565b61084b9190611061565b9050600a81111561086057606854915061087d565b600a816068546108709190611083565b61087a9190611061565b91505b505b61271061088c8285611083565b6108969190611061565b6001600160a01b038516600090815260656020526040812080549091906108be908490611049565b909155505050505050565b6033546001600160a01b031633146109235760405162461bcd60e51b815260206004820181905260248201527f4f776e61626c653a2063616c6c6572206973206e6f7420746865206f776e65726044820152606401610301565b60688190556040518181527fe65c987b2e4668e09ba867026921588005b2b2063607a1e7e7d91683c8f91b7b9060200160405180910390a150565b6033546001600160a01b031633146109b85760405162461bcd60e51b815260206004820181905260248201527f4f776e61626c653a2063616c6c6572206973206e6f7420746865206f776e65726044820152606401610301565b6106426000610c79565b6069546001600160a01b03163314610a1c5760405162461bcd60e51b815260206004820152600f60248201527f43616c6c6572206e6f742067616d6500000000000000000000000000000000006044820152606401610301565b61271060685482610a2d9190611083565b610a379190611061565b6001600160a01b03831660009081526065602052604081208054909190610a5f908490611049565b90915550505050565b6000610a746001610cd8565b90508015610a8c576000805461ff0019166101001790555b60688390556069805473ffffffffffffffffffffffffffffffffffffffff19166001600160a01b038416179055610ac1610e11565b8015610b07576000805461ff0019169055604051600181527f7f26b83ff96e1f2b6a682f133852f6798a09c465da95921460cefb38474024989060200160405180910390a15b505050565b600080428367ffffffffffffffff161015610b2a5750606854610b7f565b6000603c610b424267ffffffffffffffff87166110a2565b610b4c9190611061565b9050600a8110610b60576068549150610b7d565b600a81606854610b709190611083565b610b7a9190611061565b91505b505b612710610b8c8286611083565b610b969190611061565b949350505050565b6033546001600160a01b03163314610bf85760405162461bcd60e51b815260206004820181905260248201527f4f776e61626c653a2063616c6c6572206973206e6f7420746865206f776e65726044820152606401610301565b6001600160a01b038116610c745760405162461bcd60e51b815260206004820152602660248201527f4f776e61626c653a206e6577206f776e657220697320746865207a65726f206160448201527f64647265737300000000000000000000000000000000000000000000000000006064820152608401610301565b6107af815b603380546001600160a01b0383811673ffffffffffffffffffffffffffffffffffffffff19831681179093556040519116919082907f8be0079c531659141344cd1fd0a4f28419497f9722a3daafe3b4186f6b6457e090600090a35050565b60008054610100900460ff1615610d75578160ff166001148015610cfb5750303b155b610d6d5760405162461bcd60e51b815260206004820152602e60248201527f496e697469616c697a61626c653a20636f6e747261637420697320616c72656160448201527f647920696e697469616c697a65640000000000000000000000000000000000006064820152608401610301565b506000919050565b60005460ff808416911610610df25760405162461bcd60e51b815260206004820152602e60248201527f496e697469616c697a61626c653a20636f6e747261637420697320616c72656160448201527f647920696e697469616c697a65640000000000000000000000000000000000006064820152608401610301565b506000805460ff191660ff92909216919091179055600190565b919050565b600054610100900460ff16610e7c5760405162461bcd60e51b815260206004820152602b60248201527f496e697469616c697a61626c653a20636f6e7472616374206973206e6f74206960448201526a6e697469616c697a696e6760a81b6064820152608401610301565b610642600054610100900460ff16610eea5760405162461bcd60e51b815260206004820152602b60248201527f496e697469616c697a61626c653a20636f6e7472616374206973206e6f74206960448201526a6e697469616c697a696e6760a81b6064820152608401610301565b61064233610c79565b803567ffffffffffffffff81168114610e0c57600080fd5b600060208284031215610f1d57600080fd5b8135610f28816110cf565b9392505050565b60008060408385031215610f4257600080fd5b8235610f4d816110cf565b946020939093013593505050565b600080600060608486031215610f7057600080fd5b8335610f7b816110cf565b925060208401359150610f9060408501610ef3565b90509250925092565b600060208284031215610fab57600080fd5b81518015158114610f2857600080fd5b600060208284031215610fcd57600080fd5b5035919050565b600060208284031215610fe657600080fd5b5051919050565b6000806040838503121561100057600080fd5b823591506020830135611012816110cf565b809150509250929050565b6000806040838503121561103057600080fd5b8235915061104060208401610ef3565b90509250929050565b6000821982111561105c5761105c6110b9565b500190565b60008261107e57634e487b7160e01b600052601260045260246000fd5b500490565b600081600019048311821515161561109d5761109d6110b9565b500290565b6000828210156110b4576110b46110b9565b500390565b634e487b7160e01b600052601160045260246000fd5b6001600160a01b03811681146107af57600080fdfea26469706673582212204acd259e2015a8ef14336b403df08281ba8965e4b490081763f2f27390d748f064736f6c63430008070033",
  "devdoc": {
    "kind": "dev",
    "methods": {
      "owner()": {
        "details": "Returns the address of the current owner."
      },
      "renounceOwnership()": {
        "details": "Leaves the contract without owner. It will not be possible to call `onlyOwner` functions anymore. Can only be called by the current owner. NOTE: Renouncing ownership will leave the contract without an owner, thereby removing any functionality that is only available to the owner."
      },
      "transferOwnership(address)": {
        "details": "Transfers ownership of the contract to a new account (`newOwner`). Can only be called by the current owner."
      }
    },
    "version": 1
  },
  "userdoc": {
    "kind": "user",
    "methods": {
      "sweep()": {
        "notice": "Remove all incentive tokens from this contract."
      }
    },
    "version": 1
  },
  "storageLayout": {
    "storage": [
      {
        "astId": 277,
        "contract": "contracts/Rewarder.sol:Rewarder",
        "label": "_initialized",
        "offset": 0,
        "slot": "0",
        "type": "t_uint8"
      },
      {
        "astId": 280,
        "contract": "contracts/Rewarder.sol:Rewarder",
        "label": "_initializing",
        "offset": 1,
        "slot": "0",
        "type": "t_bool"
      },
      {
        "astId": 774,
        "contract": "contracts/Rewarder.sol:Rewarder",
        "label": "__gap",
        "offset": 0,
        "slot": "1",
        "type": "t_array(t_uint256)50_storage"
      },
      {
        "astId": 157,
        "contract": "contracts/Rewarder.sol:Rewarder",
        "label": "_owner",
        "offset": 0,
        "slot": "51",
        "type": "t_address"
      },
      {
        "astId": 269,
        "contract": "contracts/Rewarder.sol:Rewarder",
        "label": "__gap",
        "offset": 0,
        "slot": "52",
        "type": "t_array(t_uint256)49_storage"
      },
      {
        "astId": 5045,
        "contract": "contracts/Rewarder.sol:Rewarder",
        "label": "available",
        "offset": 0,
        "slot": "101",
        "type": "t_mapping(t_address,t_uint256)"
      },
      {
        "astId": 5049,
        "contract": "contracts/Rewarder.sol:Rewarder",
        "label": "claimed",
        "offset": 0,
        "slot": "102",
        "type": "t_mapping(t_address,t_uint256)"
      },
      {
        "astId": 5052,
        "contract": "contracts/Rewarder.sol:Rewarder",
        "label": "xtc",
        "offset": 0,
        "slot": "103",
        "type": "t_contract(IERC20Upgradeable)490"
      },
      {
        "astId": 5054,
        "contract": "contracts/Rewarder.sol:Rewarder",
        "label": "rate",
        "offset": 0,
        "slot": "104",
        "type": "t_uint256"
      },
      {
        "astId": 5056,
        "contract": "contracts/Rewarder.sol:Rewarder",
        "label": "game",
        "offset": 0,
        "slot": "105",
        "type": "t_address"
      }
    ],
    "types": {
      "t_address": {
        "encoding": "inplace",
        "label": "address",
        "numberOfBytes": "20"
      },
      "t_array(t_uint256)49_storage": {
        "base": "t_uint256",
        "encoding": "inplace",
        "label": "uint256[49]",
        "numberOfBytes": "1568"
      },
      "t_array(t_uint256)50_storage": {
        "base": "t_uint256",
        "encoding": "inplace",
        "label": "uint256[50]",
        "numberOfBytes": "1600"
      },
      "t_bool": {
        "encoding": "inplace",
        "label": "bool",
        "numberOfBytes": "1"
      },
      "t_contract(IERC20Upgradeable)490": {
        "encoding": "inplace",
        "label": "contract IERC20Upgradeable",
        "numberOfBytes": "20"
      },
      "t_mapping(t_address,t_uint256)": {
        "encoding": "mapping",
        "key": "t_address",
        "label": "mapping(address => uint256)",
        "numberOfBytes": "32",
        "value": "t_uint256"
      },
      "t_uint256": {
        "encoding": "inplace",
        "label": "uint256",
        "numberOfBytes": "32"
      },
      "t_uint8": {
        "encoding": "inplace",
        "label": "uint8",
        "numberOfBytes": "1"
      }
    }
  }
}