{
  "address": "0x57bc13DE8F8c1252e44eF65039A1A36D42D57994",
  "abi": [
    {
      "anonymous": false,
      "inputs": [
        {
          "indexed": false,
          "internalType": "uint8",
          "name": "version",
          "type": "uint8"
        }
      ],
      "name": "Initialized",
      "type": "event"
    },
    {
      "anonymous": false,
      "inputs": [
        {
          "indexed": true,
          "internalType": "address",
          "name": "previousOwner",
          "type": "address"
        },
        {
          "indexed": true,
          "internalType": "address",
          "name": "newOwner",
          "type": "address"
        }
      ],
      "name": "OwnershipTransferred",
      "type": "event"
    },
    {
      "inputs": [
        {
          "internalType": "uint64",
          "name": "rollId",
          "type": "uint64"
        }
      ],
      "name": "decimalOdds",
      "outputs": [
        {
          "internalType": "uint256[6]",
          "name": "",
          "type": "uint256[6]"
        }
      ],
      "stateMutability": "view",
      "type": "function"
    },
    {
      "inputs": [
        {
          "internalType": "uint64",
          "name": "rollId",
          "type": "uint64"
        },
        {
          "internalType": "uint8",
          "name": "result",
          "type": "uint8"
        },
        {
          "internalType": "uint256",
          "name": "betAmount",
          "type": "uint256"
        }
      ],
      "name": "estimateOdds",
      "outputs": [
        {
          "internalType": "uint256",
          "name": "",
          "type": "uint256"
        }
      ],
      "stateMutability": "view",
      "type": "function"
    },
    {
      "inputs": [],
      "name": "exotic",
      "outputs": [
        {
          "internalType": "contract IExotic",
          "name": "",
          "type": "address"
        }
      ],
      "stateMutability": "view",
      "type": "function"
    },
    {
      "inputs": [
        {
          "internalType": "contract IExotic",
          "name": "_exotic",
          "type": "address"
        }
      ],
      "name": "initialize",
      "outputs": [],
      "stateMutability": "nonpayable",
      "type": "function"
    },
    {
      "inputs": [],
      "name": "owner",
      "outputs": [
        {
          "internalType": "address",
          "name": "",
          "type": "address"
        }
      ],
      "stateMutability": "view",
      "type": "function"
    },
    {
      "inputs": [
        {
          "internalType": "uint64",
          "name": "rollId",
          "type": "uint64"
        }
      ],
      "name": "probabilitySummary",
      "outputs": [
        {
          "internalType": "uint256[6]",
          "name": "",
          "type": "uint256[6]"
        }
      ],
      "stateMutability": "view",
      "type": "function"
    },
    {
      "inputs": [],
      "name": "renounceOwnership",
      "outputs": [],
      "stateMutability": "nonpayable",
      "type": "function"
    },
    {
      "inputs": [
        {
          "internalType": "uint64",
          "name": "rollId",
          "type": "uint64"
        }
      ],
      "name": "roll",
      "outputs": [
        {
          "components": [
            {
              "internalType": "uint64",
              "name": "rollId",
              "type": "uint64"
            },
            {
              "internalType": "uint256",
              "name": "totalWagered",
              "type": "uint256"
            },
            {
              "internalType": "uint256",
              "name": "result",
              "type": "uint256"
            },
            {
              "internalType": "uint256",
              "name": "rollResult",
              "type": "uint256"
            },
            {
              "internalType": "uint256",
              "name": "requestId",
              "type": "uint256"
            }
          ],
          "internalType": "struct RollLens.FullRoll",
          "name": "",
          "type": "tuple"
        }
      ],
      "stateMutability": "view",
      "type": "function"
    },
    {
      "inputs": [
        {
          "internalType": "contract IExotic",
          "name": "_exotic",
          "type": "address"
        }
      ],
      "name": "setExotic",
      "outputs": [],
      "stateMutability": "nonpayable",
      "type": "function"
    },
    {
      "inputs": [
        {
          "internalType": "address",
          "name": "newOwner",
          "type": "address"
        }
      ],
      "name": "transferOwnership",
      "outputs": [],
      "stateMutability": "nonpayable",
      "type": "function"
    },
    {
      "inputs": [
        {
          "internalType": "address",
          "name": "user",
          "type": "address"
        },
        {
          "internalType": "uint256",
          "name": "resultsPerPage",
          "type": "uint256"
        },
        {
          "internalType": "uint256",
          "name": "page",
          "type": "uint256"
        }
      ],
      "name": "userBets",
      "outputs": [
        {
          "components": [
            {
              "internalType": "uint64",
              "name": "rollId",
              "type": "uint64"
            },
            {
              "internalType": "uint256",
              "name": "amount",
              "type": "uint256"
            },
            {
              "internalType": "address",
              "name": "account",
              "type": "address"
            },
            {
              "internalType": "uint8",
              "name": "prediction",
              "type": "uint8"
            },
            {
              "internalType": "uint256",
              "name": "payout",
              "type": "uint256"
            },
            {
              "internalType": "bool",
              "name": "paid",
              "type": "bool"
            },
            {
              "internalType": "uint256",
              "name": "betId",
              "type": "uint256"
            },
            {
              "internalType": "uint256",
              "name": "rollResult",
              "type": "uint256"
            },
            {
              "internalType": "bool",
              "name": "rollFinished",
              "type": "bool"
            }
          ],
          "internalType": "struct RollLens.FullBet[]",
          "name": "",
          "type": "tuple[]"
        }
      ],
      "stateMutability": "view",
      "type": "function"
    },
    {
      "inputs": [
        {
          "internalType": "uint64",
          "name": "rollId",
          "type": "uint64"
        },
        {
          "internalType": "address",
          "name": "user",
          "type": "address"
        },
        {
          "internalType": "uint256",
          "name": "resultsPerPage",
          "type": "uint256"
        },
        {
          "internalType": "uint256",
          "name": "page",
          "type": "uint256"
        }
      ],
      "name": "userRollBets",
      "outputs": [
        {
          "components": [
            {
              "internalType": "uint64",
              "name": "rollId",
              "type": "uint64"
            },
            {
              "internalType": "uint256",
              "name": "amount",
              "type": "uint256"
            },
            {
              "internalType": "address",
              "name": "account",
              "type": "address"
            },
            {
              "internalType": "uint8",
              "name": "prediction",
              "type": "uint8"
            },
            {
              "internalType": "uint256",
              "name": "payout",
              "type": "uint256"
            },
            {
              "internalType": "bool",
              "name": "paid",
              "type": "bool"
            },
            {
              "internalType": "uint256",
              "name": "betId",
              "type": "uint256"
            },
            {
              "internalType": "uint256",
              "name": "rollResult",
              "type": "uint256"
            },
            {
              "internalType": "bool",
              "name": "rollFinished",
              "type": "bool"
            }
          ],
          "internalType": "struct RollLens.FullBet[]",
          "name": "",
          "type": "tuple[]"
        }
      ],
      "stateMutability": "view",
      "type": "function"
    }
  ],
  "transactionHash": "0x9225c4314f0d1b6c1799388b67b33ad70f2eed05e3f26dab6a8052f7585e063a",
  "args": [],
  "numDeployments": 2,
  "solcInputHash": "a17855460c37f71be9241744e5ae18f4",
  "bytecode": "0x608060405234801561001057600080fd5b50611bfd806100206000396000f3fe608060405234801561001057600080fd5b50600436106100d45760003560e01c8063c4d66de811610081578063f2fde38b1161005b578063f2fde38b1461020a578063f754fd961461021d578063fa09b3411461023057600080fd5b8063c4d66de8146101b6578063d195a054146101c9578063e40eeebb146101e957600080fd5b806373c28dc6116100b257806373c28dc61461015e578063835f3eb41461017e5780638da5cb5b1461019157600080fd5b80634740945c146100d9578063591378c4146100ee578063715018a614610156575b600080fd5b6100ec6100e7366004611749565b610243565b005b6101016100fc36600461191d565b6102d1565b60405161014d9190600060a08201905067ffffffffffffffff83511682526020830151602083015260408301516040830152606083015160608301526080830151608083015292915050565b60405180910390f35b6100ec61053c565b61017161016c36600461191d565b6105a2565b60405161014d9190611a73565b61017161018c36600461191d565b6106bd565b6033546001600160a01b03165b6040516001600160a01b03909116815260200161014d565b6100ec6101c4366004611749565b610796565b6101dc6101d7366004611766565b610834565b60405161014d91906119c1565b6101fc6101f7366004611980565b610c83565b60405190815260200161014d565b6100ec610218366004611749565b610e13565b60655461019e906001600160a01b031681565b6101dc61023e36600461193a565b610ef5565b6033546001600160a01b031633146102a25760405162461bcd60e51b815260206004820181905260248201527f4f776e61626c653a2063616c6c6572206973206e6f7420746865206f776e657260448201526064015b60405180910390fd5b6065805473ffffffffffffffffffffffffffffffffffffffff19166001600160a01b0392909216919091179055565b61030d6040518060a00160405280600067ffffffffffffffff168152602001600081526020016000815260200160008152602001600081525090565b6065546040517f591378c400000000000000000000000000000000000000000000000000000000815267ffffffffffffffff841660048201526000916001600160a01b03169063591378c490602401604080518083038186803b15801561037357600080fd5b505afa158015610387573d6000803e3d6000fd5b505050506040513d601f19601f820116820180604052508101906103ab91906118b5565b90506103e96040518060a00160405280600067ffffffffffffffff168152602001600081526020016000815260200160008152602001600081525090565b67ffffffffffffffff8416808252606554604051633969f80360e01b815260048101929092526001600160a01b031690633969f8039060240160206040518083038186803b15801561043a57600080fd5b505afa15801561044e573d6000803e3d6000fd5b505050506040513d601f19601f820116820180604052508101906104729190611904565b602080830191909152825160408301528201516080820152815115610535576065546040517fa1aa2b5b00000000000000000000000000000000000000000000000000000000815267ffffffffffffffff861660048201526001600160a01b039091169063a1aa2b5b9060240160206040518083038186803b1580156104f757600080fd5b505afa15801561050b573d6000803e3d6000fd5b505050506040513d601f19601f8201168201806040525081019061052f9190611904565b60608201525b9392505050565b6033546001600160a01b031633146105965760405162461bcd60e51b815260206004820181905260248201527f4f776e61626c653a2063616c6c6572206973206e6f7420746865206f776e65726044820152606401610299565b6105a060006114b6565b565b6105aa61172b565b6105b261172b565b60005b60068160ff1610156106b6576065546040516332c4d4f160e11b815267ffffffffffffffff8616600482015260ff831660248201526000916001600160a01b031690636589a9e29060440160206040518083038186803b15801561061857600080fd5b505afa15801561062c573d6000803e3d6000fd5b505050506040513d601f19601f820116820180604052508101906106509190611904565b905080610678576000838360ff166006811061066e5761066e611b61565b60200201526106a3565b61068881655af3107a4000611abc565b838360ff166006811061069d5761069d611b61565b60200201525b50806106ae81611b2b565b9150506105b5565b5092915050565b6106c561172b565b6106cd61172b565b60005b60068160ff1610156106b6576065546040516332c4d4f160e11b815267ffffffffffffffff8616600482015260ff831660248201526001600160a01b0390911690636589a9e29060440160206040518083038186803b15801561073257600080fd5b505afa158015610746573d6000803e3d6000fd5b505050506040513d601f19601f8201168201806040525081019061076a9190611904565b828260ff166006811061077f5761077f611b61565b60200201528061078e81611b2b565b9150506106d0565b60006107a26001611515565b905080156107ba576000805461ff0019166101001790555b6065805473ffffffffffffffffffffffffffffffffffffffff19166001600160a01b0384161790556107ea611649565b8015610830576000805461ff0019169055604051600181527f7f26b83ff96e1f2b6a682f133852f6798a09c465da95921460cefb38474024989060200160405180910390a15b5050565b6065546040517ff408a23a0000000000000000000000000000000000000000000000000000000081526001600160a01b03858116600483015260609260009291169063f408a23a9060240160206040518083038186803b15801561089757600080fd5b505afa1580156108ab573d6000803e3d6000fd5b505050506040513d601f19601f820116820180604052508101906108cf9190611904565b9050600080826108df8688611ade565b11156108f05750600090508061094a565b6108fa8587611ade565b6109049084611afd565b91508582111561091f576109188683611afd565b9050610923565b5060005b8282111561094a578583106109415761093c8684611afd565b610944565b60005b90508291505b60006109568284611afd565b67ffffffffffffffff81111561096e5761096e611b77565b6040519080825280602002602001820160405280156109e557816020015b604080516101208101825260008082526020808301829052928201819052606082018190526080820181905260a0820181905260c0820181905260e08201819052610100820152825260001990920191018161098c5790505b5090508260005b83821115610c75576065546000906001600160a01b0316634195ab8e8c610a14600187611afd565b6040517fffffffff0000000000000000000000000000000000000000000000000000000060e085901b1681526001600160a01b039092166004830152602482015260440160a06040518083038186803b158015610a7057600080fd5b505afa158015610a84573d6000803e3d6000fd5b505050506040513d601f19601f82011682018060405250810190610aa89190611821565b6040805161012081018252600080825260208083018281528385018381526060808601858152608080880187905260a0880187815260c0890188905260e0890188905261010089018890528a8a01805167ffffffffffffffff9081168b528c51909752968b01516001600160a01b03908116909552928a01805160ff908116909352908a015115159092526065549451915197516332c4d4f160e11b815291909316600482015295909116602486015294955091939092911690636589a9e29060440160206040518083038186803b158015610b8357600080fd5b505afa158015610b97573d6000803e3d6000fd5b505050506040513d601f19601f82011682018060405250810190610bbb9190611904565b90508015610be65782518190610bd6906402540be400611ade565b610be09190611abc565b60808301525b610bf1600186611afd565b60c08301526040830151600090610c07906102d1565b606081015160e0850152604081015190915015610c25576001610c28565b60005b151561010084015286518390889087908110610c4657610c46611b61565b6020908102919091010152610c5c600186611aa4565b9450505050508180610c6d90611b14565b9250506109ec565b509098975050505050505050565b606554604051633969f80360e01b815267ffffffffffffffff8516600482015260009182916001600160a01b0390911690633969f8039060240160206040518083038186803b158015610cd557600080fd5b505afa158015610ce9573d6000803e3d6000fd5b505050506040513d601f19601f82011682018060405250810190610d0d9190611904565b6065546040517f72b51dfa00000000000000000000000000000000000000000000000000000000815267ffffffffffffffff881660048201529192506000916001600160a01b03909116906372b51dfa9060240160c06040518083038186803b158015610d7957600080fd5b505afa158015610d8d573d6000803e3d6000fd5b505050506040513d601f19601f82011682018060405250810190610db1919061179b565b8560ff1660068110610dc557610dc5611b61565b60200201519050610dd68483611aa4565b610de08583611aa4565b610def906402540be400611ade565b610df99190611abc565b610e0990655af3107a4000611abc565b9695505050505050565b6033546001600160a01b03163314610e6d5760405162461bcd60e51b815260206004820181905260248201527f4f776e61626c653a2063616c6c6572206973206e6f7420746865206f776e65726044820152606401610299565b6001600160a01b038116610ee95760405162461bcd60e51b815260206004820152602660248201527f4f776e61626c653a206e6577206f776e657220697320746865207a65726f206160448201527f64647265737300000000000000000000000000000000000000000000000000006064820152608401610299565b610ef2816114b6565b50565b6065546040517f46b697fe00000000000000000000000000000000000000000000000000000000815267ffffffffffffffff861660048201526001600160a01b0385811660248301526060926000929116906346b697fe9060440160206040518083038186803b158015610f6857600080fd5b505afa158015610f7c573d6000803e3d6000fd5b505050506040513d601f19601f82011682018060405250810190610fa09190611904565b905060008082610fb08688611ade565b1115610fc15750600090508061101b565b610fcb8587611ade565b610fd59084611afd565b915085821115610ff057610fe98683611afd565b9050610ff4565b5060005b8282111561101b578583106110125761100d8684611afd565b611015565b60005b90508291505b60006110278284611afd565b67ffffffffffffffff81111561103f5761103f611b77565b6040519080825280602002602001820160405280156110b657816020015b604080516101208101825260008082526020808301829052928201819052606082018190526080820181905260a0820181905260c0820181905260e08201819052610100820152825260001990920191018161105d5790505b5090508260005b838211156114a7576065546000906001600160a01b031663f50292548d8d6110e6600188611afd565b6040517fffffffff0000000000000000000000000000000000000000000000000000000060e086901b16815267ffffffffffffffff90931660048401526001600160a01b039091166024830152604482015260640160a06040518083038186803b15801561115357600080fd5b505afa158015611167573d6000803e3d6000fd5b505050506040513d601f19601f8201168201806040525081019061118b9190611821565b6040805161012081018252600080825260208083018281528385018381526060808601858152608080880187905260a0880187815260c0890188905260e08901889052610100890197909752898901805167ffffffffffffffff9081168a528b51909652958a01516001600160a01b03908116909452918901805160ff9081169092529189015115159095526065549351905196516332c4d4f160e11b815292166004830152949092166024830152939450909290911690636589a9e29060440160206040518083038186803b15801561126457600080fd5b505afa158015611278573d6000803e3d6000fd5b505050506040513d601f19601f8201168201806040525081019061129c9190611904565b6112a757600061135c565b606554604083810151606085015191516332c4d4f160e11b815267ffffffffffffffff909116600482015260ff90911660248201526001600160a01b0390911690636589a9e29060440160206040518083038186803b15801561130957600080fd5b505afa15801561131d573d6000803e3d6000fd5b505050506040513d601f19601f820116820180604052508101906113419190611904565b8251611352906402540be400611ade565b61135c9190611abc565b60808201526065546001600160a01b0316636390e63b8d8f61137f600189611afd565b6040517fffffffff0000000000000000000000000000000000000000000000000000000060e086901b1681526001600160a01b03909316600484015267ffffffffffffffff9091166024830152604482015260640160206040518083038186803b1580156113ec57600080fd5b505afa158015611400573d6000803e3d6000fd5b505050506040513d601f19601f820116820180604052508101906114249190611904565b60c0820152604082015160009061143a906102d1565b606081015160e084015260408101519091501561145857600161145b565b60005b15156101008301528551829087908690811061147957611479611b61565b602090810291909101015261148f600185611aa4565b9350505050818061149f90611b14565b9250506110bd565b50909998505050505050505050565b603380546001600160a01b0383811673ffffffffffffffffffffffffffffffffffffffff19831681179093556040519116919082907f8be0079c531659141344cd1fd0a4f28419497f9722a3daafe3b4186f6b6457e090600090a35050565b60008054610100900460ff16156115b2578160ff1660011480156115385750303b155b6115aa5760405162461bcd60e51b815260206004820152602e60248201527f496e697469616c697a61626c653a20636f6e747261637420697320616c72656160448201527f647920696e697469616c697a65640000000000000000000000000000000000006064820152608401610299565b506000919050565b60005460ff80841691161061162f5760405162461bcd60e51b815260206004820152602e60248201527f496e697469616c697a61626c653a20636f6e747261637420697320616c72656160448201527f647920696e697469616c697a65640000000000000000000000000000000000006064820152608401610299565b506000805460ff191660ff92909216919091179055600190565b600054610100900460ff166116b45760405162461bcd60e51b815260206004820152602b60248201527f496e697469616c697a61626c653a20636f6e7472616374206973206e6f74206960448201526a6e697469616c697a696e6760a81b6064820152608401610299565b6105a0600054610100900460ff166117225760405162461bcd60e51b815260206004820152602b60248201527f496e697469616c697a61626c653a20636f6e7472616374206973206e6f74206960448201526a6e697469616c697a696e6760a81b6064820152608401610299565b6105a0336114b6565b6040518060c001604052806006906020820280368337509192915050565b60006020828403121561175b57600080fd5b813561053581611b8d565b60008060006060848603121561177b57600080fd5b833561178681611b8d565b95602085013595506040909401359392505050565b600060c082840312156117ad57600080fd5b82601f8301126117bc57600080fd5b60405160c0810181811067ffffffffffffffff821117156117df576117df611b77565b604052808360c081018610156117f457600080fd5b60005b60068110156118165781518352602092830192909101906001016117f7565b509195945050505050565b600060a0828403121561183357600080fd5b60405160a0810181811067ffffffffffffffff8211171561185657611856611b77565b60405282518152602083015161186b81611b8d565b6020820152604083015161187e81611ba2565b6040820152606083015161189181611bb8565b6060820152608083015180151581146118a957600080fd5b60808201529392505050565b6000604082840312156118c757600080fd5b6040516040810181811067ffffffffffffffff821117156118ea576118ea611b77565b604052825181526020928301519281019290925250919050565b60006020828403121561191657600080fd5b5051919050565b60006020828403121561192f57600080fd5b813561053581611ba2565b6000806000806080858703121561195057600080fd5b843561195b81611ba2565b9350602085013561196b81611b8d565b93969395505050506040820135916060013590565b60008060006060848603121561199557600080fd5b83356119a081611ba2565b925060208401356119b081611bb8565b929592945050506040919091013590565b602080825282518282018190526000919060409081850190868401855b82811015611a66578151805167ffffffffffffffff1685528681015187860152858101516001600160a01b03168686015260608082015160ff16908601526080808201519086015260a08082015115159086015260c0808201519086015260e080820151908601526101009081015115159085015261012090930192908501906001016119de565b5091979650505050505050565b60c08101818360005b6006811015611a9b578151835260209283019290910190600101611a7c565b50505092915050565b60008219821115611ab757611ab7611b4b565b500190565b600082611ad957634e487b7160e01b600052601260045260246000fd5b500490565b6000816000190483118215151615611af857611af8611b4b565b500290565b600082821015611b0f57611b0f611b4b565b500390565b600081611b2357611b23611b4b565b506000190190565b600060ff821660ff811415611b4257611b42611b4b565b60010192915050565b634e487b7160e01b600052601160045260246000fd5b634e487b7160e01b600052603260045260246000fd5b634e487b7160e01b600052604160045260246000fd5b6001600160a01b0381168114610ef257600080fd5b67ffffffffffffffff81168114610ef257600080fd5b60ff81168114610ef257600080fdfea2646970667358221220c552d2a1867b15a4c628f79ff86adacddea4d85dbdbf1635b600ee182bb187be64736f6c63430008070033",
  "devdoc": {
    "kind": "dev",
    "methods": {
      "owner()": {
        "details": "Returns the address of the current owner."
      },
      "renounceOwnership()": {
        "details": "Leaves the contract without owner. It will not be possible to call `onlyOwner` functions anymore. Can only be called by the current owner. NOTE: Renouncing ownership will leave the contract without an owner, thereby removing any functionality that is only available to the owner."
      },
      "transferOwnership(address)": {
        "details": "Transfers ownership of the contract to a new account (`newOwner`). Can only be called by the current owner."
      }
    },
    "title": "Helper contract for fetching data from the roll.",
    "version": 1
  },
  "userdoc": {
    "kind": "user",
    "methods": {},
    "version": 1
  },
  "storageLayout": {
    "storage": [
      {
        "astId": 277,
        "contract": "contracts/RollLens.sol:RollLens",
        "label": "_initialized",
        "offset": 0,
        "slot": "0",
        "type": "t_uint8"
      },
      {
        "astId": 280,
        "contract": "contracts/RollLens.sol:RollLens",
        "label": "_initializing",
        "offset": 1,
        "slot": "0",
        "type": "t_bool"
      },
      {
        "astId": 774,
        "contract": "contracts/RollLens.sol:RollLens",
        "label": "__gap",
        "offset": 0,
        "slot": "1",
        "type": "t_array(t_uint256)50_storage"
      },
      {
        "astId": 157,
        "contract": "contracts/RollLens.sol:RollLens",
        "label": "_owner",
        "offset": 0,
        "slot": "51",
        "type": "t_address"
      },
      {
        "astId": 269,
        "contract": "contracts/RollLens.sol:RollLens",
        "label": "__gap",
        "offset": 0,
        "slot": "52",
        "type": "t_array(t_uint256)49_storage"
      },
      {
        "astId": 5444,
        "contract": "contracts/RollLens.sol:RollLens",
        "label": "exotic",
        "offset": 0,
        "slot": "101",
        "type": "t_contract(IExotic)6368"
      }
    ],
    "types": {
      "t_address": {
        "encoding": "inplace",
        "label": "address",
        "numberOfBytes": "20"
      },
      "t_array(t_uint256)49_storage": {
        "base": "t_uint256",
        "encoding": "inplace",
        "label": "uint256[49]",
        "numberOfBytes": "1568"
      },
      "t_array(t_uint256)50_storage": {
        "base": "t_uint256",
        "encoding": "inplace",
        "label": "uint256[50]",
        "numberOfBytes": "1600"
      },
      "t_bool": {
        "encoding": "inplace",
        "label": "bool",
        "numberOfBytes": "1"
      },
      "t_contract(IExotic)6368": {
        "encoding": "inplace",
        "label": "contract IExotic",
        "numberOfBytes": "20"
      },
      "t_uint256": {
        "encoding": "inplace",
        "label": "uint256",
        "numberOfBytes": "32"
      },
      "t_uint8": {
        "encoding": "inplace",
        "label": "uint8",
        "numberOfBytes": "1"
      }
    }
  }
}