{
  "address": "0xa03965444D77c5F0221fcf7B51850247638A0fbe",
  "abi": [
    {
      "anonymous": false,
      "inputs": [
        {
          "indexed": false,
          "internalType": "uint8",
          "name": "version",
          "type": "uint8"
        }
      ],
      "name": "Initialized",
      "type": "event"
    },
    {
      "anonymous": false,
      "inputs": [
        {
          "indexed": true,
          "internalType": "address",
          "name": "previousOwner",
          "type": "address"
        },
        {
          "indexed": true,
          "internalType": "address",
          "name": "newOwner",
          "type": "address"
        }
      ],
      "name": "OwnershipTransferred",
      "type": "event"
    },
    {
      "anonymous": false,
      "inputs": [
        {
          "indexed": true,
          "internalType": "address",
          "name": "token",
          "type": "address"
        }
      ],
      "name": "RewardTokenSet",
      "type": "event"
    },
    {
      "stateMutability": "payable",
      "type": "fallback"
    },
    {
      "inputs": [],
      "name": "accRewardPerShare",
      "outputs": [
        {
          "internalType": "uint256",
          "name": "",
          "type": "uint256"
        }
      ],
      "stateMutability": "view",
      "type": "function"
    },
    {
      "inputs": [],
      "name": "claim",
      "outputs": [],
      "stateMutability": "nonpayable",
      "type": "function"
    },
    {
      "inputs": [
        {
          "internalType": "uint256",
          "name": "amount",
          "type": "uint256"
        }
      ],
      "name": "deposit",
      "outputs": [],
      "stateMutability": "nonpayable",
      "type": "function"
    },
    {
      "inputs": [],
      "name": "initialize",
      "outputs": [],
      "stateMutability": "nonpayable",
      "type": "function"
    },
    {
      "inputs": [],
      "name": "lastRewardBalance",
      "outputs": [
        {
          "internalType": "uint256",
          "name": "",
          "type": "uint256"
        }
      ],
      "stateMutability": "view",
      "type": "function"
    },
    {
      "inputs": [],
      "name": "owner",
      "outputs": [
        {
          "internalType": "address",
          "name": "",
          "type": "address"
        }
      ],
      "stateMutability": "view",
      "type": "function"
    },
    {
      "inputs": [
        {
          "internalType": "address",
          "name": "account",
          "type": "address"
        }
      ],
      "name": "pendingReward",
      "outputs": [
        {
          "internalType": "uint256",
          "name": "",
          "type": "uint256"
        }
      ],
      "stateMutability": "view",
      "type": "function"
    },
    {
      "inputs": [],
      "name": "renounceOwnership",
      "outputs": [],
      "stateMutability": "nonpayable",
      "type": "function"
    },
    {
      "inputs": [
        {
          "internalType": "contract IERC20Upgradeable",
          "name": "_token",
          "type": "address"
        }
      ],
      "name": "setToken",
      "outputs": [],
      "stateMutability": "nonpayable",
      "type": "function"
    },
    {
      "inputs": [
        {
          "internalType": "address",
          "name": "newOwner",
          "type": "address"
        }
      ],
      "name": "transferOwnership",
      "outputs": [],
      "stateMutability": "nonpayable",
      "type": "function"
    },
    {
      "inputs": [],
      "name": "updateReward",
      "outputs": [],
      "stateMutability": "nonpayable",
      "type": "function"
    },
    {
      "inputs": [
        {
          "internalType": "address",
          "name": "",
          "type": "address"
        }
      ],
      "name": "users",
      "outputs": [
        {
          "internalType": "uint256",
          "name": "amount",
          "type": "uint256"
        },
        {
          "internalType": "uint256",
          "name": "rewardDebt",
          "type": "uint256"
        },
        {
          "internalType": "uint256",
          "name": "claimable",
          "type": "uint256"
        }
      ],
      "stateMutability": "view",
      "type": "function"
    },
    {
      "inputs": [
        {
          "internalType": "uint256",
          "name": "amount",
          "type": "uint256"
        }
      ],
      "name": "withdraw",
      "outputs": [],
      "stateMutability": "nonpayable",
      "type": "function"
    },
    {
      "inputs": [],
      "name": "xtc",
      "outputs": [
        {
          "internalType": "contract IERC20Upgradeable",
          "name": "",
          "type": "address"
        }
      ],
      "stateMutability": "view",
      "type": "function"
    },
    {
      "stateMutability": "payable",
      "type": "receive"
    }
  ],
  "transactionHash": "0x9e1fa322cdb9c3f6b709c0530b4ebf56a10f579055a769f22aa8f465ead5cb58",
  "args": [],
  "numDeployments": 1,
  "solcInputHash": "06dee127b922187235cbb281ec22fde7",
  "bytecode": "0x608060405234801561001057600080fd5b50610f59806100206000396000f3fe6080604052600436106100d55760003560e01c8063939d623711610079578063f2fde38b11610056578063f2fde38b14610253578063f36c0a7214610273578063f40f0f5214610288578063fa4caa74146102a857005b8063939d6237146101b8578063a87430ba146101dc578063b6b55f251461023357005b80634e71d92d116100b25780634e71d92d1461015b578063715018a6146101705780638129fc1c146101855780638da5cb5b1461019a57005b8063144fa6d7146100de5780632e1a7d4d146100fe57806347f6f34a1461011e57005b366100dc57005b005b3480156100ea57600080fd5b506100dc6100f9366004610e10565b6102be565b34801561010a57600080fd5b506100dc610119366004610e56565b6103ca565b34801561012a57600080fd5b5060665461013e906001600160a01b031681565b6040516001600160a01b0390911681526020015b60405180910390f35b34801561016757600080fd5b506100dc610596565b34801561017c57600080fd5b506100dc61068c565b34801561019157600080fd5b506100dc6106f2565b3480156101a657600080fd5b506033546001600160a01b031661013e565b3480156101c457600080fd5b506101ce60685481565b604051908152602001610152565b3480156101e857600080fd5b506102186101f7366004610e10565b60656020526000908152604090208054600182015460029092015490919083565b60408051938452602084019290925290820152606001610152565b34801561023f57600080fd5b506100dc61024e366004610e56565b610767565b34801561025f57600080fd5b506100dc61026e366004610e10565b610892565b34801561027f57600080fd5b506100dc610971565b34801561029457600080fd5b506101ce6102a3366004610e10565b610a54565b3480156102b457600080fd5b506101ce60675481565b6033546001600160a01b0316331461031d5760405162461bcd60e51b815260206004820181905260248201527f4f776e61626c653a2063616c6c6572206973206e6f7420746865206f776e657260448201526064015b60405180910390fd5b6001600160a01b0381166103735760405162461bcd60e51b815260206004820152601f60248201527f52657761726420746f6b656e2063616e277420626520302061646472657373006044820152606401610314565b6066805473ffffffffffffffffffffffffffffffffffffffff19166001600160a01b0383169081179091556040517f2d6b04df9b7d358407d1a014f1114b064add34c19d63d395db155a7e533e967a90600090a250565b336000908152606560205260409020805482111561042a5760405162461bcd60e51b815260206004820152601760248201527f496e76616c696420776974686472617720616d6f756e740000000000000000006044820152606401610314565b610432610971565b8054828260006104428385610ee1565b909155505060018201546068548354670de0b6b3a76400009161046491610ec2565b61046e9190610ea0565b60018401556068546000908290670de0b6b3a76400009061048f9086610ec2565b6104999190610ea0565b6104a39190610ee1565b9050808460020160008282546104b99190610e88565b9250508190555080606960008282546104d29190610e88565b9250508190555080606760008282546104eb9190610ee1565b90915550506066546040517fa9059cbb000000000000000000000000000000000000000000000000000000008152336004820152602481018790526001600160a01b039091169063a9059cbb906044015b602060405180830381600087803b15801561055657600080fd5b505af115801561056a573d6000803e3d6000fd5b505050506040513d601f19601f8201168201806040525081019061058e9190610e34565b505050505050565b3360009081526065602052604090206105ad610971565b60008160010154670de0b6b3a764000060685484600001546105cf9190610ec2565b6105d99190610ea0565b6105e39190610ee1565b600283015490915060006105f78284610e88565b9050816069600082825461060b9190610ee1565b9091555050600060028501556068548454670de0b6b3a76400009161062f91610ec2565b6106399190610ea0565b846001018190555082606760008282546106539190610ee1565b9091555050604051339082156108fc029083906000818181858888f19350505050158015610685573d6000803e3d6000fd5b5050505050565b6033546001600160a01b031633146106e65760405162461bcd60e51b815260206004820181905260248201527f4f776e61626c653a2063616c6c6572206973206e6f7420746865206f776e65726044820152606401610314565b6106f06000610b9b565b565b60006106fe6001610bfa565b90508015610716576000805461ff0019166101001790555b61071e610d2e565b8015610764576000805461ff0019169055604051600181527f7f26b83ff96e1f2b6a682f133852f6798a09c465da95921460cefb38474024989060200160405180910390a15b50565b33600090815260656020526040902061077e610971565b80548282600061078e8385610e88565b909155505060018201546068548354670de0b6b3a7640000916107b091610ec2565b6107ba9190610ea0565b60018401556068546000908290670de0b6b3a7640000906107db9086610ec2565b6107e59190610ea0565b6107ef9190610ee1565b9050808460020160008282546108059190610e88565b92505081905550806069600082825461081e9190610e88565b9250508190555080606760008282546108379190610ee1565b90915550506066546040517f23b872dd000000000000000000000000000000000000000000000000000000008152336004820152306024820152604481018790526001600160a01b03909116906323b872dd9060640161053c565b6033546001600160a01b031633146108ec5760405162461bcd60e51b815260206004820181905260248201527f4f776e61626c653a2063616c6c6572206973206e6f7420746865206f776e65726044820152606401610314565b6001600160a01b0381166109685760405162461bcd60e51b815260206004820152602660248201527f4f776e61626c653a206e6577206f776e657220697320746865207a65726f206160448201527f64647265737300000000000000000000000000000000000000000000000000006064820152608401610314565b61076481610b9b565b6000606954476109819190610ee1565b90506067548114156109905750565b6000606754826109a09190610ee1565b6066546040516370a0823160e01b81523060048201529192506001600160a01b0316906370a082319060240160206040518083038186803b1580156109e457600080fd5b505afa1580156109f8573d6000803e3d6000fd5b505050506040513d601f19601f82011682018060405250810190610a1c9190610e6f565b610a2e670de0b6b3a764000083610ec2565b610a389190610ea0565b60686000828254610a499190610e88565b909155505050606755565b6001600160a01b0381811660009081526065602052604080822060665491516370a0823160e01b8152306004820152929390928492909116906370a082319060240160206040518083038186803b158015610aae57600080fd5b505afa158015610ac2573d6000803e3d6000fd5b505050506040513d601f19601f82011682018060405250810190610ae69190610e6f565b60685460695491925090600090610afd9047610ee1565b90506067548114158015610b1057508215155b15610b5257600060675482610b259190610ee1565b905083610b3a670de0b6b3a764000083610ec2565b610b449190610ea0565b610b4e9084610e88565b9250505b600284015460018501548554670de0b6b3a764000090610b73908690610ec2565b610b7d9190610ea0565b610b879190610ee1565b610b919190610e88565b9695505050505050565b603380546001600160a01b0383811673ffffffffffffffffffffffffffffffffffffffff19831681179093556040519116919082907f8be0079c531659141344cd1fd0a4f28419497f9722a3daafe3b4186f6b6457e090600090a35050565b60008054610100900460ff1615610c97578160ff166001148015610c1d5750303b155b610c8f5760405162461bcd60e51b815260206004820152602e60248201527f496e697469616c697a61626c653a20636f6e747261637420697320616c72656160448201527f647920696e697469616c697a65640000000000000000000000000000000000006064820152608401610314565b506000919050565b60005460ff808416911610610d145760405162461bcd60e51b815260206004820152602e60248201527f496e697469616c697a61626c653a20636f6e747261637420697320616c72656160448201527f647920696e697469616c697a65640000000000000000000000000000000000006064820152608401610314565b506000805460ff191660ff92909216919091179055600190565b600054610100900460ff16610d995760405162461bcd60e51b815260206004820152602b60248201527f496e697469616c697a61626c653a20636f6e7472616374206973206e6f74206960448201526a6e697469616c697a696e6760a81b6064820152608401610314565b6106f0600054610100900460ff16610e075760405162461bcd60e51b815260206004820152602b60248201527f496e697469616c697a61626c653a20636f6e7472616374206973206e6f74206960448201526a6e697469616c697a696e6760a81b6064820152608401610314565b6106f033610b9b565b600060208284031215610e2257600080fd5b8135610e2d81610f0e565b9392505050565b600060208284031215610e4657600080fd5b81518015158114610e2d57600080fd5b600060208284031215610e6857600080fd5b5035919050565b600060208284031215610e8157600080fd5b5051919050565b60008219821115610e9b57610e9b610ef8565b500190565b600082610ebd57634e487b7160e01b600052601260045260246000fd5b500490565b6000816000190483118215151615610edc57610edc610ef8565b500290565b600082821015610ef357610ef3610ef8565b500390565b634e487b7160e01b600052601160045260246000fd5b6001600160a01b038116811461076457600080fdfea2646970667358221220a3a2ce45ac812fd7965f2c3d78efcc995fc14c378c08eab2234a3037439a651d64736f6c63430008070033",
  "devdoc": {
    "kind": "dev",
    "methods": {
      "owner()": {
        "details": "Returns the address of the current owner."
      },
      "renounceOwnership()": {
        "details": "Leaves the contract without owner. It will not be possible to call `onlyOwner` functions anymore. Can only be called by the current owner. NOTE: Renouncing ownership will leave the contract without an owner, thereby removing any functionality that is only available to the owner."
      },
      "transferOwnership(address)": {
        "details": "Transfers ownership of the contract to a new account (`newOwner`). Can only be called by the current owner."
      }
    },
    "version": 1
  },
  "userdoc": {
    "kind": "user",
    "methods": {},
    "version": 1
  },
  "storageLayout": {
    "storage": [
      {
        "astId": 277,
        "contract": "contracts/EquityFarm.sol:EquityFarm",
        "label": "_initialized",
        "offset": 0,
        "slot": "0",
        "type": "t_uint8"
      },
      {
        "astId": 280,
        "contract": "contracts/EquityFarm.sol:EquityFarm",
        "label": "_initializing",
        "offset": 1,
        "slot": "0",
        "type": "t_bool"
      },
      {
        "astId": 774,
        "contract": "contracts/EquityFarm.sol:EquityFarm",
        "label": "__gap",
        "offset": 0,
        "slot": "1",
        "type": "t_array(t_uint256)50_storage"
      },
      {
        "astId": 157,
        "contract": "contracts/EquityFarm.sol:EquityFarm",
        "label": "_owner",
        "offset": 0,
        "slot": "51",
        "type": "t_address"
      },
      {
        "astId": 269,
        "contract": "contracts/EquityFarm.sol:EquityFarm",
        "label": "__gap",
        "offset": 0,
        "slot": "52",
        "type": "t_array(t_uint256)49_storage"
      },
      {
        "astId": 3072,
        "contract": "contracts/EquityFarm.sol:EquityFarm",
        "label": "users",
        "offset": 0,
        "slot": "101",
        "type": "t_mapping(t_address,t_struct(UserInfo)3067_storage)"
      },
      {
        "astId": 3075,
        "contract": "contracts/EquityFarm.sol:EquityFarm",
        "label": "xtc",
        "offset": 0,
        "slot": "102",
        "type": "t_contract(IERC20Upgradeable)490"
      },
      {
        "astId": 3077,
        "contract": "contracts/EquityFarm.sol:EquityFarm",
        "label": "lastRewardBalance",
        "offset": 0,
        "slot": "103",
        "type": "t_uint256"
      },
      {
        "astId": 3079,
        "contract": "contracts/EquityFarm.sol:EquityFarm",
        "label": "accRewardPerShare",
        "offset": 0,
        "slot": "104",
        "type": "t_uint256"
      },
      {
        "astId": 3081,
        "contract": "contracts/EquityFarm.sol:EquityFarm",
        "label": "claimable",
        "offset": 0,
        "slot": "105",
        "type": "t_uint256"
      }
    ],
    "types": {
      "t_address": {
        "encoding": "inplace",
        "label": "address",
        "numberOfBytes": "20"
      },
      "t_array(t_uint256)49_storage": {
        "base": "t_uint256",
        "encoding": "inplace",
        "label": "uint256[49]",
        "numberOfBytes": "1568"
      },
      "t_array(t_uint256)50_storage": {
        "base": "t_uint256",
        "encoding": "inplace",
        "label": "uint256[50]",
        "numberOfBytes": "1600"
      },
      "t_bool": {
        "encoding": "inplace",
        "label": "bool",
        "numberOfBytes": "1"
      },
      "t_contract(IERC20Upgradeable)490": {
        "encoding": "inplace",
        "label": "contract IERC20Upgradeable",
        "numberOfBytes": "20"
      },
      "t_mapping(t_address,t_struct(UserInfo)3067_storage)": {
        "encoding": "mapping",
        "key": "t_address",
        "label": "mapping(address => struct EquityFarm.UserInfo)",
        "numberOfBytes": "32",
        "value": "t_struct(UserInfo)3067_storage"
      },
      "t_struct(UserInfo)3067_storage": {
        "encoding": "inplace",
        "label": "struct EquityFarm.UserInfo",
        "members": [
          {
            "astId": 3062,
            "contract": "contracts/EquityFarm.sol:EquityFarm",
            "label": "amount",
            "offset": 0,
            "slot": "0",
            "type": "t_uint256"
          },
          {
            "astId": 3064,
            "contract": "contracts/EquityFarm.sol:EquityFarm",
            "label": "rewardDebt",
            "offset": 0,
            "slot": "1",
            "type": "t_uint256"
          },
          {
            "astId": 3066,
            "contract": "contracts/EquityFarm.sol:EquityFarm",
            "label": "claimable",
            "offset": 0,
            "slot": "2",
            "type": "t_uint256"
          }
        ],
        "numberOfBytes": "96"
      },
      "t_uint256": {
        "encoding": "inplace",
        "label": "uint256",
        "numberOfBytes": "32"
      },
      "t_uint8": {
        "encoding": "inplace",
        "label": "uint8",
        "numberOfBytes": "1"
      }
    }
  }
}