{
  "address": "0x4A7aeeE2cDd4a07285c11805996B608348BD9f69",
  "abi": [
    {
      "anonymous": false,
      "inputs": [
        {
          "indexed": false,
          "internalType": "uint8",
          "name": "version",
          "type": "uint8"
        }
      ],
      "name": "Initialized",
      "type": "event"
    },
    {
      "anonymous": false,
      "inputs": [
        {
          "indexed": false,
          "internalType": "uint256",
          "name": "maxBet",
          "type": "uint256"
        }
      ],
      "name": "MaxBetUpdated",
      "type": "event"
    },
    {
      "anonymous": false,
      "inputs": [
        {
          "indexed": true,
          "internalType": "address",
          "name": "previousOwner",
          "type": "address"
        },
        {
          "indexed": true,
          "internalType": "address",
          "name": "newOwner",
          "type": "address"
        }
      ],
      "name": "OwnershipTransferred",
      "type": "event"
    },
    {
      "anonymous": false,
      "inputs": [
        {
          "indexed": true,
          "internalType": "address",
          "name": "feeAddress",
          "type": "address"
        }
      ],
      "name": "POLAddressUpdated",
      "type": "event"
    },
    {
      "anonymous": false,
      "inputs": [
        {
          "indexed": false,
          "internalType": "uint256",
          "name": "fee",
          "type": "uint256"
        }
      ],
      "name": "POLFeeUpdated",
      "type": "event"
    },
    {
      "anonymous": false,
      "inputs": [
        {
          "indexed": true,
          "internalType": "uint256",
          "name": "raceId",
          "type": "uint256"
        },
        {
          "indexed": true,
          "internalType": "address",
          "name": "to",
          "type": "address"
        },
        {
          "indexed": false,
          "internalType": "uint256",
          "name": "amount",
          "type": "uint256"
        },
        {
          "indexed": false,
          "internalType": "uint256[]",
          "name": "prediction",
          "type": "uint256[]"
        },
        {
          "indexed": false,
          "internalType": "uint256",
          "name": "payout",
          "type": "uint256"
        }
      ],
      "name": "Payout",
      "type": "event"
    },
    {
      "anonymous": false,
      "inputs": [
        {
          "indexed": true,
          "internalType": "uint256",
          "name": "raceId",
          "type": "uint256"
        },
        {
          "indexed": false,
          "internalType": "uint256",
          "name": "totalValue",
          "type": "uint256"
        },
        {
          "indexed": false,
          "internalType": "uint256",
          "name": "result",
          "type": "uint256"
        }
      ],
      "name": "RaceEnd",
      "type": "event"
    },
    {
      "anonymous": false,
      "inputs": [
        {
          "indexed": true,
          "internalType": "uint256",
          "name": "raceId",
          "type": "uint256"
        },
        {
          "indexed": false,
          "internalType": "uint256",
          "name": "totalValue",
          "type": "uint256"
        }
      ],
      "name": "RaceStart",
      "type": "event"
    },
    {
      "anonymous": false,
      "inputs": [
        {
          "indexed": true,
          "internalType": "address",
          "name": "feeAddress",
          "type": "address"
        }
      ],
      "name": "RevenueAddressUpdated",
      "type": "event"
    },
    {
      "anonymous": false,
      "inputs": [
        {
          "indexed": false,
          "internalType": "uint256",
          "name": "fee",
          "type": "uint256"
        }
      ],
      "name": "RevenueFeeUpdated",
      "type": "event"
    },
    {
      "anonymous": false,
      "inputs": [
        {
          "indexed": true,
          "internalType": "uint256",
          "name": "raceId",
          "type": "uint256"
        },
        {
          "indexed": true,
          "internalType": "address",
          "name": "from",
          "type": "address"
        },
        {
          "indexed": false,
          "internalType": "uint256",
          "name": "amount",
          "type": "uint256"
        },
        {
          "indexed": false,
          "internalType": "uint256[]",
          "name": "prediction",
          "type": "uint256[]"
        },
        {
          "indexed": false,
          "internalType": "uint256",
          "name": "poolTotal",
          "type": "uint256"
        }
      ],
      "name": "Wagered",
      "type": "event"
    },
    {
      "inputs": [
        {
          "internalType": "address",
          "name": "",
          "type": "address"
        },
        {
          "internalType": "uint256",
          "name": "",
          "type": "uint256"
        }
      ],
      "name": "bet",
      "outputs": [
        {
          "internalType": "uint256",
          "name": "raceId",
          "type": "uint256"
        },
        {
          "internalType": "uint256",
          "name": "amount",
          "type": "uint256"
        },
        {
          "internalType": "address",
          "name": "account",
          "type": "address"
        },
        {
          "internalType": "bool",
          "name": "paid",
          "type": "bool"
        }
      ],
      "stateMutability": "view",
      "type": "function"
    },
    {
      "inputs": [
        {
          "internalType": "uint256",
          "name": "requestId",
          "type": "uint256"
        },
        {
          "internalType": "uint256[]",
          "name": "randomWords",
          "type": "uint256[]"
        }
      ],
      "name": "endRace",
      "outputs": [],
      "stateMutability": "nonpayable",
      "type": "function"
    },
    {
      "inputs": [],
      "name": "fee",
      "outputs": [
        {
          "internalType": "uint256",
          "name": "",
          "type": "uint256"
        }
      ],
      "stateMutability": "view",
      "type": "function"
    },
    {
      "inputs": [],
      "name": "feeAddress",
      "outputs": [
        {
          "internalType": "address",
          "name": "",
          "type": "address"
        }
      ],
      "stateMutability": "view",
      "type": "function"
    },
    {
      "inputs": [],
      "name": "frequency",
      "outputs": [
        {
          "internalType": "uint256",
          "name": "",
          "type": "uint256"
        }
      ],
      "stateMutability": "view",
      "type": "function"
    },
    {
      "inputs": [
        {
          "internalType": "address",
          "name": "_randomProviderAddress",
          "type": "address"
        },
        {
          "internalType": "uint256",
          "name": "_fee",
          "type": "uint256"
        },
        {
          "internalType": "uint256",
          "name": "_jackpotContribution",
          "type": "uint256"
        },
        {
          "internalType": "address",
          "name": "_feeAddress",
          "type": "address"
        },
        {
          "internalType": "address",
          "name": "_jackpotAddress",
          "type": "address"
        },
        {
          "internalType": "uint256",
          "name": "_maxBet",
          "type": "uint256"
        }
      ],
      "name": "initialize",
      "outputs": [],
      "stateMutability": "nonpayable",
      "type": "function"
    },
    {
      "inputs": [],
      "name": "jackpotAddress",
      "outputs": [
        {
          "internalType": "address",
          "name": "",
          "type": "address"
        }
      ],
      "stateMutability": "view",
      "type": "function"
    },
    {
      "inputs": [],
      "name": "jackpotContribution",
      "outputs": [
        {
          "internalType": "uint256",
          "name": "",
          "type": "uint256"
        }
      ],
      "stateMutability": "view",
      "type": "function"
    },
    {
      "inputs": [],
      "name": "maxBet",
      "outputs": [
        {
          "internalType": "uint256",
          "name": "",
          "type": "uint256"
        }
      ],
      "stateMutability": "view",
      "type": "function"
    },
    {
      "inputs": [],
      "name": "nextRaceId",
      "outputs": [
        {
          "internalType": "uint256",
          "name": "",
          "type": "uint256"
        }
      ],
      "stateMutability": "view",
      "type": "function"
    },
    {
      "inputs": [
        {
          "internalType": "uint256",
          "name": "raceId",
          "type": "uint256"
        },
        {
          "internalType": "uint256[]",
          "name": "result",
          "type": "uint256[]"
        }
      ],
      "name": "odds",
      "outputs": [
        {
          "internalType": "uint256",
          "name": "",
          "type": "uint256"
        }
      ],
      "stateMutability": "view",
      "type": "function"
    },
    {
      "inputs": [],
      "name": "owner",
      "outputs": [
        {
          "internalType": "address",
          "name": "",
          "type": "address"
        }
      ],
      "stateMutability": "view",
      "type": "function"
    },
    {
      "inputs": [
        {
          "internalType": "uint256",
          "name": "betId",
          "type": "uint256"
        }
      ],
      "name": "payout",
      "outputs": [],
      "stateMutability": "nonpayable",
      "type": "function"
    },
    {
      "inputs": [
        {
          "internalType": "uint256",
          "name": "raceId",
          "type": "uint256"
        },
        {
          "internalType": "uint256[]",
          "name": "prediction",
          "type": "uint256[]"
        }
      ],
      "name": "placeBet",
      "outputs": [
        {
          "internalType": "uint256",
          "name": "betId",
          "type": "uint256"
        }
      ],
      "stateMutability": "payable",
      "type": "function"
    },
    {
      "inputs": [
        {
          "internalType": "uint256",
          "name": "",
          "type": "uint256"
        }
      ],
      "name": "race",
      "outputs": [
        {
          "internalType": "uint256",
          "name": "totalWagered",
          "type": "uint256"
        },
        {
          "internalType": "uint256",
          "name": "paid",
          "type": "uint256"
        },
        {
          "internalType": "uint256",
          "name": "result",
          "type": "uint256"
        },
        {
          "internalType": "uint256",
          "name": "requestId",
          "type": "uint256"
        }
      ],
      "stateMutability": "view",
      "type": "function"
    },
    {
      "inputs": [
        {
          "internalType": "uint256",
          "name": "raceId",
          "type": "uint256"
        }
      ],
      "name": "raceResult",
      "outputs": [
        {
          "internalType": "uint256[6]",
          "name": "",
          "type": "uint256[6]"
        }
      ],
      "stateMutability": "view",
      "type": "function"
    },
    {
      "inputs": [],
      "name": "randomProvider",
      "outputs": [
        {
          "internalType": "contract IRandomProvider",
          "name": "",
          "type": "address"
        }
      ],
      "stateMutability": "view",
      "type": "function"
    },
    {
      "inputs": [],
      "name": "renounceOwnership",
      "outputs": [],
      "stateMutability": "nonpayable",
      "type": "function"
    },
    {
      "inputs": [],
      "name": "start",
      "outputs": [
        {
          "internalType": "uint256",
          "name": "",
          "type": "uint256"
        }
      ],
      "stateMutability": "view",
      "type": "function"
    },
    {
      "inputs": [
        {
          "internalType": "uint256",
          "name": "raceId",
          "type": "uint256"
        }
      ],
      "name": "startRace",
      "outputs": [],
      "stateMutability": "nonpayable",
      "type": "function"
    },
    {
      "inputs": [
        {
          "internalType": "address",
          "name": "newOwner",
          "type": "address"
        }
      ],
      "name": "transferOwnership",
      "outputs": [],
      "stateMutability": "nonpayable",
      "type": "function"
    },
    {
      "inputs": [
        {
          "internalType": "uint256",
          "name": "_maxBet",
          "type": "uint256"
        }
      ],
      "name": "updateMaxBet",
      "outputs": [],
      "stateMutability": "nonpayable",
      "type": "function"
    },
    {
      "inputs": [
        {
          "internalType": "address",
          "name": "_feeAddress",
          "type": "address"
        }
      ],
      "name": "updatePOLAddress",
      "outputs": [],
      "stateMutability": "nonpayable",
      "type": "function"
    },
    {
      "inputs": [
        {
          "internalType": "uint256",
          "name": "_fee",
          "type": "uint256"
        }
      ],
      "name": "updatePOLFee",
      "outputs": [],
      "stateMutability": "nonpayable",
      "type": "function"
    },
    {
      "inputs": [
        {
          "internalType": "address",
          "name": "_feeAddress",
          "type": "address"
        }
      ],
      "name": "updateRevenueAddress",
      "outputs": [],
      "stateMutability": "nonpayable",
      "type": "function"
    },
    {
      "inputs": [
        {
          "internalType": "uint256",
          "name": "_fee",
          "type": "uint256"
        }
      ],
      "name": "updateRevenueFee",
      "outputs": [],
      "stateMutability": "nonpayable",
      "type": "function"
    },
    {
      "inputs": [
        {
          "internalType": "address",
          "name": "user",
          "type": "address"
        },
        {
          "internalType": "uint256",
          "name": "betId",
          "type": "uint256"
        }
      ],
      "name": "userBet",
      "outputs": [
        {
          "components": [
            {
              "internalType": "uint256",
              "name": "raceId",
              "type": "uint256"
            },
            {
              "internalType": "uint256",
              "name": "amount",
              "type": "uint256"
            },
            {
              "internalType": "address",
              "name": "account",
              "type": "address"
            },
            {
              "internalType": "uint256[]",
              "name": "place",
              "type": "uint256[]"
            },
            {
              "internalType": "bool",
              "name": "paid",
              "type": "bool"
            }
          ],
          "internalType": "struct Exotic.Bet",
          "name": "",
          "type": "tuple"
        }
      ],
      "stateMutability": "view",
      "type": "function"
    },
    {
      "inputs": [
        {
          "internalType": "address",
          "name": "user",
          "type": "address"
        }
      ],
      "name": "userBetCount",
      "outputs": [
        {
          "internalType": "uint256",
          "name": "",
          "type": "uint256"
        }
      ],
      "stateMutability": "view",
      "type": "function"
    }
  ],
  "transactionHash": "0x26c5dbf11f29300ea0ef95eec6690ea84f63889b4fd50a268a6fe18d68a2b2f2",
  "args": [],
  "numDeployments": 4,
  "solcInputHash": "81cee00a52b2570f35091cb870adba98",
  "bytecode": "0x608060405234801561001057600080fd5b50613bb7806100206000396000f3fe6080604052600436106101b75760003560e01c8063b71455ee116100ec578063ddca3f431161008a578063f2fde38b11610064578063f2fde38b146105f0578063f408a23a14610619578063f846cabc14610656578063fdd2885914610696576101b7565b8063ddca3f4314610571578063e11523431461059c578063ead50da3146105c5576101b7565b8063d149221b116100c6578063d149221b146104b5578063d613b60d146104f2578063d8595d861461051b578063d9b8fd8f14610546576101b7565b8063b71455ee1461040d578063b7dda85e1461044a578063be9a65551461048a576101b7565b80636bc0b3ba116101595780638f46500e116101335780638f46500e14610367578063a55cd51c14610392578063a655f29e146103bb578063af3645c4146103e4576101b7565b80636bc0b3ba146102fa578063715018a6146103255780638da5cb5b1461033c576101b7565b806330d146551161019557806330d1465514610239578063315aa38c1461026957806341275358146102925780634195ab8e146102bd576101b7565b8063122d2d96146101bc57806324d822bf146101e55780632e5b21681461020e575b600080fd5b3480156101c857600080fd5b506101e360048036038101906101de91906128af565b6106bf565b005b3480156101f157600080fd5b5061020c6004803603810190610207919061293c565b610838565b005b34801561021a57600080fd5b50610223610a3a565b6040516102309190613212565b60405180910390f35b610253600480360381019061024e9190612996565b610a40565b6040516102609190613212565b60405180910390f35b34801561027557600080fd5b50610290600480360381019061028b91906129f6565b610fae565b005b34801561029e57600080fd5b506102a7611135565b6040516102b49190612f44565b60405180910390f35b3480156102c957600080fd5b506102e460048036038101906102df919061286f565b61115b565b6040516102f191906131f0565b60405180910390f35b34801561030657600080fd5b5061030f6112b2565b60405161031c9190612f44565b60405180910390f35b34801561033157600080fd5b5061033a6112d8565b005b34801561034857600080fd5b50610351611360565b60405161035e9190612f44565b60405180910390f35b34801561037357600080fd5b5061037c61138a565b6040516103899190612f7a565b60405180910390f35b34801561039e57600080fd5b506103b960048036038101906103b4919061293c565b6113b0565b005b3480156103c757600080fd5b506103e260048036038101906103dd919061293c565b61146f565b005b3480156103f057600080fd5b5061040b60048036038101906104069190612842565b61152c565b005b34801561041957600080fd5b50610434600480360381019061042f919061293c565b61169f565b6040516104419190612f5f565b60405180910390f35b34801561045657600080fd5b50610471600480360381019061046c919061293c565b61194b565b6040516104819493929190613319565b60405180910390f35b34801561049657600080fd5b5061049f61197b565b6040516104ac9190613212565b60405180910390f35b3480156104c157600080fd5b506104dc60048036038101906104d791906129f6565b611981565b6040516104e99190613212565b60405180910390f35b3480156104fe57600080fd5b506105196004803603810190610514919061293c565b611b14565b005b34801561052757600080fd5b50610530611bd1565b60405161053d9190613212565b60405180910390f35b34801561055257600080fd5b5061055b611bd7565b6040516105689190613212565b60405180910390f35b34801561057d57600080fd5b50610586611c02565b6040516105939190613212565b60405180910390f35b3480156105a857600080fd5b506105c360048036038101906105be919061293c565b611c08565b005b3480156105d157600080fd5b506105da611f25565b6040516105e79190613212565b60405180910390f35b3480156105fc57600080fd5b5061061760048036038101906106129190612842565b611f2a565b005b34801561062557600080fd5b50610640600480360381019061063b9190612842565b612022565b60405161064d9190613212565b60405180910390f35b34801561066257600080fd5b5061067d6004803603810190610678919061286f565b61206e565b60405161068d94939291906132d4565b60405180910390f35b3480156106a257600080fd5b506106bd60048036038101906106b89190612842565b6120e8565b005b60006106cb600161225b565b905080156106ef576001600060016101000a81548160ff0219169083151502179055505b4260678190555086606560006101000a81548173ffffffffffffffffffffffffffffffffffffffff021916908373ffffffffffffffffffffffffffffffffffffffff160217905550856068819055508460698190555083606a60006101000a81548173ffffffffffffffffffffffffffffffffffffffff021916908373ffffffffffffffffffffffffffffffffffffffff16021790555082606b60006101000a81548173ffffffffffffffffffffffffffffffffffffffff021916908373ffffffffffffffffffffffffffffffffffffffff16021790555081606c819055506107d661234b565b801561082f5760008060016101000a81548160ff0219169083151502179055507f7f26b83ff96e1f2b6a682f133852f6798a09c465da95921460cefb384740249860016040516108269190612f95565b60405180910390a15b50505050505050565b610841816123a4565b60b48161084e9190613464565b421161088f576040517f08c379a0000000000000000000000000000000000000000000000000000000008152600401610886906130d0565b60405180910390fd5b6000606d6000838152602001908152602001600020905060008160030154146108ed576040517f08c379a00000000000000000000000000000000000000000000000000000000081526004016108e490613110565b60405180910390fd5b6000816002015414610934576040517f08c379a000000000000000000000000000000000000000000000000000000000815260040161092b90613170565b60405180910390fd5b6000606560009054906101000a900473ffffffffffffffffffffffffffffffffffffffff1673ffffffffffffffffffffffffffffffffffffffff1663e0c862896040518163ffffffff1660e01b8152600401602060405180830381600087803b1580156109a057600080fd5b505af11580156109b4573d6000803e3d6000fd5b505050506040513d601f19601f820116820180604052508101906109d89190612969565b905080826003018190555082606f600083815260200190815260200160002081905550827f727aed3ef5e1b948e78407c8b942fb3193ebc5901b4bc951faa6568c90b78495606654604051610a2d9190613212565b60405180910390a2505050565b606c5481565b6000610a4b846123a4565b60018383905014610a91576040517f08c379a0000000000000000000000000000000000000000000000000000000008152600401610a8890613070565b60405180910390fd5b600061271060685434610aa491906134eb565b610aae91906134ba565b9050600061271060695434610ac391906134eb565b610acd91906134ba565b905060008183610add9190613464565b34610ae89190613545565b9050606c54811115610b2f576040517f08c379a0000000000000000000000000000000000000000000000000000000008152600401610b2690612fd0565b60405180910390fd5b610b3761263c565b878160000181815250508181602001818152505033816040019073ffffffffffffffffffffffffffffffffffffffff16908173ffffffffffffffffffffffffffffffffffffffff1681525050606e60003373ffffffffffffffffffffffffffffffffffffffff1673ffffffffffffffffffffffffffffffffffffffff168152602001908152602001600020819080600181540180825580915050600190039060005260206000209060050201600090919091909150600082015181600001556020820151816001015560408201518160020160006101000a81548173ffffffffffffffffffffffffffffffffffffffff021916908373ffffffffffffffffffffffffffffffffffffffff1602179055506060820151816003019080519060200190610c63929190612683565b5060808201518160040160006101000a81548160ff0219169083151502179055505050606e60003373ffffffffffffffffffffffffffffffffffffffff1673ffffffffffffffffffffffffffffffffffffffff1681526020019081526020016000206001606e60003373ffffffffffffffffffffffffffffffffffffffff1673ffffffffffffffffffffffffffffffffffffffff16815260200190815260200160002080549050610d149190613545565b81548110610d2557610d24613752565b5b906000526020600020906005020160030187876000818110610d4a57610d49613752565b5b9050602002013590806001815401808255809150506001900390600052602060002001600090919091909150556000606d60008a81526020019081526020016000209050828160040189896000818110610da757610da6613752565b5b9050602002013560068110610dbf57610dbe613752565b5b016000828254610dcf9190613464565b9250508190555082816000016000828254610dea9190613464565b925050819055508260666000828254610e039190613464565b925050819055503373ffffffffffffffffffffffffffffffffffffffff16897fed7146643be17948fcb4400f9980c37ef3404baf91823ef51782e2c6673266f6858b8b606654604051610e59949392919061322d565b60405180910390a34260b48a610e6f9190613464565b1015610e7f57610e7e89610838565b5b606a60009054906101000a900473ffffffffffffffffffffffffffffffffffffffff1673ffffffffffffffffffffffffffffffffffffffff166108fc869081150290604051600060405180830381858888f19350505050158015610ee7573d6000803e3d6000fd5b50606b60009054906101000a900473ffffffffffffffffffffffffffffffffffffffff1673ffffffffffffffffffffffffffffffffffffffff166108fc859081150290604051600060405180830381858888f19350505050158015610f50573d6000803e3d6000fd5b506001606e60003373ffffffffffffffffffffffffffffffffffffffff1673ffffffffffffffffffffffffffffffffffffffff16815260200190815260200160002080549050610fa09190613545565b955050505050509392505050565b606560009054906101000a900473ffffffffffffffffffffffffffffffffffffffff1673ffffffffffffffffffffffffffffffffffffffff163373ffffffffffffffffffffffffffffffffffffffff161461103e576040517f08c379a000000000000000000000000000000000000000000000000000000000815260040161103590613010565b60405180910390fd5b6000606f60008481526020019081526020016000205490506000606d6000838152602001908152602001600020905060008160020154146110b4576040517f08c379a00000000000000000000000000000000000000000000000000000000081526004016110ab90612fb0565b60405180910390fd5b826000815181106110c8576110c7613752565b5b60200260200101518160020181905550817f7554ff21c11af92d9ed24a3625daa96a85ebe3a0a3c44c44cb080cb400c42d986066548560008151811061111157611110613752565b5b60200260200101516040516111279291906132ab565b60405180910390a250505050565b606a60009054906101000a900473ffffffffffffffffffffffffffffffffffffffff1681565b61116361263c565b606e60008473ffffffffffffffffffffffffffffffffffffffff1673ffffffffffffffffffffffffffffffffffffffff16815260200190815260200160002082815481106111b4576111b3613752565b5b90600052602060002090600502016040518060a001604052908160008201548152602001600182015481526020016002820160009054906101000a900473ffffffffffffffffffffffffffffffffffffffff1673ffffffffffffffffffffffffffffffffffffffff1673ffffffffffffffffffffffffffffffffffffffff1681526020016003820180548060200260200160405190810160405280929190818152602001828054801561128657602002820191906000526020600020905b815481526020019060010190808311611272575b505050505081526020016004820160009054906101000a900460ff161515151581525050905092915050565b606b60009054906101000a900473ffffffffffffffffffffffffffffffffffffffff1681565b6112e06124ea565b73ffffffffffffffffffffffffffffffffffffffff166112fe611360565b73ffffffffffffffffffffffffffffffffffffffff1614611354576040517f08c379a000000000000000000000000000000000000000000000000000000000815260040161134b906130f0565b60405180910390fd5b61135e60006124f2565b565b6000603360009054906101000a900473ffffffffffffffffffffffffffffffffffffffff16905090565b606560009054906101000a900473ffffffffffffffffffffffffffffffffffffffff1681565b6113b86124ea565b73ffffffffffffffffffffffffffffffffffffffff166113d6611360565b73ffffffffffffffffffffffffffffffffffffffff161461142c576040517f08c379a0000000000000000000000000000000000000000000000000000000008152600401611423906130f0565b60405180910390fd5b80606c819055507f2b47c83dfa951a422411b397c029d005c87d9fa8fe9f6d2bc2620c23e5e00312606c546040516114649190613212565b60405180910390a150565b6114776124ea565b73ffffffffffffffffffffffffffffffffffffffff16611495611360565b73ffffffffffffffffffffffffffffffffffffffff16146114eb576040517f08c379a00000000000000000000000000000000000000000000000000000000081526004016114e2906130f0565b60405180910390fd5b806068819055507f14a368a696aca40efd280b31b2896f421c8a75eb772f8de1731eb220735395c6816040516115219190613212565b60405180910390a150565b6115346124ea565b73ffffffffffffffffffffffffffffffffffffffff16611552611360565b73ffffffffffffffffffffffffffffffffffffffff16146115a8576040517f08c379a000000000000000000000000000000000000000000000000000000000815260040161159f906130f0565b60405180910390fd5b600073ffffffffffffffffffffffffffffffffffffffff168173ffffffffffffffffffffffffffffffffffffffff161415611618576040517f08c379a000000000000000000000000000000000000000000000000000000000815260040161160f90613050565b60405180910390fd5b80606b60006101000a81548173ffffffffffffffffffffffffffffffffffffffff021916908373ffffffffffffffffffffffffffffffffffffffff1602179055508073ffffffffffffffffffffffffffffffffffffffff167f5dc8a57b462a8fae72fded55639269f100cfd12e046986a8ef490d56d5edcbf760405160405180910390a250565b6116a76126d0565b6000606d60008481526020019081526020016000206040518060a0016040529081600082015481526020016001820154815260200160028201548152602001600382015481526020016004820160068060200260405190810160405280929190826006801561172b576020028201915b815481526020019060010190808311611717575b505050505081525050905060008160400151141561177e576040517f08c379a0000000000000000000000000000000000000000000000000000000008152600401611775906131b0565b60405180910390fd5b60008082608001519050600091505b60068210156117d65760018183600681106117ab576117aa613752565b5b602002018181516117bc9190613464565b9150818152505081806117ce9061367a565b92505061178d565b60008092505b600683101561182157836080015183600681106117fc576117fb613752565b5b60200201518161180c9190613464565b905082806118199061367a565b9350506117dc565b6118296126d0565b600080600095505b600686101561193c57600084141561184c576000905061185f565b83876040015161185c91906136c3565b90505b600091505b6006821015611929578085836006811061188157611880613752565b5b602002015111156118f15784826006811061189f5761189e613752565b5b6020020151846118af9190613545565b935060008583600681106118c6576118c5613752565b5b602002018181525050818387600681106118e3576118e2613752565b5b602002018181525050611929565b84826006811061190457611903613752565b5b6020020151816119149190613545565b905081806119219061367a565b925050611864565b85806119349061367a565b965050611831565b82975050505050505050919050565b606d6020528060005260406000206000915090508060000154908060010154908060020154908060030154905084565b60675481565b600080606d60008581526020019081526020016000206040518060a00160405290816000820154815260200160018201548152602001600282015481526020016003820154815260200160048201600680602002604051908101604052809291908260068015611a06576020028201915b8154815260200190600101908083116119f2575b50505050508152505090506001835114611a55576040517f08c379a0000000000000000000000000000000000000000000000000000000008152600401611a4c90613070565b60405180910390fd5b600080600090505b6006811015611aa25782608001518160068110611a7d57611a7c613752565b5b602002015182611a8d9190613464565b91508080611a9a9061367a565b915050611a5d565b6000821415611ab657819350505050611b0e565b816402540be400846080015187600081518110611ad657611ad5613752565b5b602002602001015160068110611aef57611aee613752565b5b6020020151611afe91906134eb565b611b0891906134ba565b93505050505b92915050565b611b1c6124ea565b73ffffffffffffffffffffffffffffffffffffffff16611b3a611360565b73ffffffffffffffffffffffffffffffffffffffff1614611b90576040517f08c379a0000000000000000000000000000000000000000000000000000000008152600401611b87906130f0565b60405180910390fd5b806069819055507f9afc1b03107862b2aabd5adaf9bf3a6c054623803995901416d64d2ac86ed01d81604051611bc69190613212565b60405180910390a150565b60695481565b600060b442611be691906136c3565b60b4611bf29190613545565b42611bfd9190613464565b905090565b60685481565b6000606e60003373ffffffffffffffffffffffffffffffffffffffff1673ffffffffffffffffffffffffffffffffffffffff1681526020019081526020016000208281548110611c5b57611c5a613752565b5b906000526020600020906005020190506000606d6000836000015481526020019081526020016000209050600081600201541415611cce576040517f08c379a0000000000000000000000000000000000000000000000000000000008152600401611cc5906130d0565b60405180910390fd5b8160040160009054906101000a900460ff1615611d20576040517f08c379a0000000000000000000000000000000000000000000000000000000008152600401611d17906131d0565b60405180910390fd5b6000611d2f836000015461169f565b905060005b8360030180549050811015611d9d57818160068110611d5657611d55613752565b5b6020020151846003018281548110611d7157611d70613752565b5b906000526020600020015414611d8a5750505050611f22565b8080611d959061367a565b915050611d34565b6000611dff856000015486600301805480602002602001604051908101604052809291908181526020018280548015611df557602002820191906000526020600020905b815481526020019060010190808311611de1575b5050505050611981565b90506000816402540be4008760010154611e1991906134eb565b611e2391906134ba565b905060018660040160006101000a81548160ff02191690831515021790555080856001016000828254611e569190613464565b925050819055508060666000828254611e6f9190613545565b925050819055503373ffffffffffffffffffffffffffffffffffffffff1686600001547fef0068ac9e6ad3b19d182459af297eb4d144e7721b87c619278bed0fcd0bd5dc88600101548960030185604051611ecc9392919061326d565b60405180910390a33373ffffffffffffffffffffffffffffffffffffffff166108fc829081150290604051600060405180830381858888f19350505050158015611f1a573d6000803e3d6000fd5b505050505050505b50565b60b481565b611f326124ea565b73ffffffffffffffffffffffffffffffffffffffff16611f50611360565b73ffffffffffffffffffffffffffffffffffffffff1614611fa6576040517f08c379a0000000000000000000000000000000000000000000000000000000008152600401611f9d906130f0565b60405180910390fd5b600073ffffffffffffffffffffffffffffffffffffffff168173ffffffffffffffffffffffffffffffffffffffff161415612016576040517f08c379a000000000000000000000000000000000000000000000000000000000815260040161200d90612ff0565b60405180910390fd5b61201f816124f2565b50565b6000606e60008373ffffffffffffffffffffffffffffffffffffffff1673ffffffffffffffffffffffffffffffffffffffff168152602001908152602001600020805490509050919050565b606e602052816000526040600020818154811061208a57600080fd5b9060005260206000209060050201600091509150508060000154908060010154908060020160009054906101000a900473ffffffffffffffffffffffffffffffffffffffff16908060040160009054906101000a900460ff16905084565b6120f06124ea565b73ffffffffffffffffffffffffffffffffffffffff1661210e611360565b73ffffffffffffffffffffffffffffffffffffffff1614612164576040517f08c379a000000000000000000000000000000000000000000000000000000000815260040161215b906130f0565b60405180910390fd5b600073ffffffffffffffffffffffffffffffffffffffff168173ffffffffffffffffffffffffffffffffffffffff1614156121d4576040517f08c379a00000000000000000000000000000000000000000000000000000000081526004016121cb90613050565b60405180910390fd5b80606a60006101000a81548173ffffffffffffffffffffffffffffffffffffffff021916908373ffffffffffffffffffffffffffffffffffffffff1602179055508073ffffffffffffffffffffffffffffffffffffffff167f12c87c4c1bec313f335ef0060b241de51ec549e8c57a25aae98da2ad10837cde60405160405180910390a250565b60008060019054906101000a900460ff16156122d25760018260ff1614801561228a5750612288306125b8565b155b6122c9576040517f08c379a00000000000000000000000000000000000000000000000000000000081526004016122c0906130b0565b60405180910390fd5b60009050612346565b8160ff1660008054906101000a900460ff1660ff1610612327576040517f08c379a000000000000000000000000000000000000000000000000000000000815260040161231e906130b0565b60405180910390fd5b816000806101000a81548160ff021916908360ff160217905550600190505b919050565b600060019054906101000a900460ff1661239a576040517f08c379a000000000000000000000000000000000000000000000000000000000815260040161239190613190565b60405180910390fd5b6123a26125db565b565b600060b4826123b391906136c3565b146123f3576040517f08c379a00000000000000000000000000000000000000000000000000000000081526004016123ea90613150565b60405180910390fd5b606754811015612438576040517f08c379a000000000000000000000000000000000000000000000000000000000815260040161242f90613030565b60405180910390fd5b6000606d60008381526020019081526020016000206002015414612491576040517f08c379a000000000000000000000000000000000000000000000000000000000815260040161248890613130565b60405180910390fd5b6000606f600083815260200190815260200160002054146124e7576040517f08c379a00000000000000000000000000000000000000000000000000000000081526004016124de90613090565b60405180910390fd5b50565b600033905090565b6000603360009054906101000a900473ffffffffffffffffffffffffffffffffffffffff16905081603360006101000a81548173ffffffffffffffffffffffffffffffffffffffff021916908373ffffffffffffffffffffffffffffffffffffffff1602179055508173ffffffffffffffffffffffffffffffffffffffff168173ffffffffffffffffffffffffffffffffffffffff167f8be0079c531659141344cd1fd0a4f28419497f9722a3daafe3b4186f6b6457e060405160405180910390a35050565b6000808273ffffffffffffffffffffffffffffffffffffffff163b119050919050565b600060019054906101000a900460ff1661262a576040517f08c379a000000000000000000000000000000000000000000000000000000000815260040161262190613190565b60405180910390fd5b61263a6126356124ea565b6124f2565b565b6040518060a001604052806000815260200160008152602001600073ffffffffffffffffffffffffffffffffffffffff168152602001606081526020016000151581525090565b8280548282559060005260206000209081019282156126bf579160200282015b828111156126be5782518255916020019190600101906126a3565b5b5090506126cc91906126f2565b5090565b6040518060c00160405280600690602082028036833780820191505090505090565b5b8082111561270b5760008160009055506001016126f3565b5090565b600061272261271d84613383565b61335e565b90508083825260208201905082856020860282011115612745576127446137cd565b5b60005b85811015612775578161275b8882612818565b845260208401935060208301925050600181019050612748565b5050509392505050565b60008135905061278e81613b53565b92915050565b60008083601f8401126127aa576127a96137c8565b5b8235905067ffffffffffffffff8111156127c7576127c66137c3565b5b6020830191508360208202830111156127e3576127e26137cd565b5b9250929050565b600082601f8301126127ff576127fe6137c8565b5b813561280f84826020860161270f565b91505092915050565b60008135905061282781613b6a565b92915050565b60008151905061283c81613b6a565b92915050565b600060208284031215612858576128576137dc565b5b60006128668482850161277f565b91505092915050565b60008060408385031215612886576128856137dc565b5b60006128948582860161277f565b92505060206128a585828601612818565b9150509250929050565b60008060008060008060c087890312156128cc576128cb6137dc565b5b60006128da89828a0161277f565b96505060206128eb89828a01612818565b95505060406128fc89828a01612818565b945050606061290d89828a0161277f565b935050608061291e89828a0161277f565b92505060a061292f89828a01612818565b9150509295509295509295565b600060208284031215612952576129516137dc565b5b600061296084828501612818565b91505092915050565b60006020828403121561297f5761297e6137dc565b5b600061298d8482850161282d565b91505092915050565b6000806000604084860312156129af576129ae6137dc565b5b60006129bd86828701612818565b935050602084013567ffffffffffffffff8111156129de576129dd6137d2565b5b6129ea86828701612794565b92509250509250925092565b60008060408385031215612a0d57612a0c6137dc565b5b6000612a1b85828601612818565b925050602083013567ffffffffffffffff811115612a3c57612a3b6137d2565b5b612a48858286016127ea565b9150509250929050565b6000612a5e8383612f26565b60208301905092915050565b612a7381613583565b82525050565b612a8281613583565b82525050565b612a91816133de565b612a9b8184613426565b9250612aa6826133af565b8060005b83811015612ad7578151612abe8782612a52565b9650612ac9836133ff565b925050600181019050612aaa565b505050505050565b6000612aeb8385613442565b93507f07ffffffffffffffffffffffffffffffffffffffffffffffffffffffffffffff831115612b1e57612b1d6137d7565b5b602083029250612b2f838584613620565b82840190509392505050565b6000612b46826133e9565b612b508185613431565b9350612b5b836133b9565b8060005b83811015612b8c578151612b738882612a52565b9750612b7e8361340c565b925050600181019050612b5f565b5085935050505092915050565b6000612ba4826133f4565b612bae8185613442565b9350612bb9836133c9565b8060005b83811015612bf157612bce826137b0565b612bd88882612a52565b9750612be383613419565b925050600181019050612bbd565b5085935050505092915050565b612c0781613595565b82525050565b612c1681613595565b82525050565b612c25816135d8565b82525050565b612c34816135ea565b82525050565b6000612c47601c83613453565b9150612c52826137ff565b602082019050919050565b6000612c6a601683613453565b9150612c7582613828565b602082019050919050565b6000612c8d602683613453565b9150612c9882613851565b604082019050919050565b6000612cb0601a83613453565b9150612cbb826138a0565b602082019050919050565b6000612cd3601683613453565b9150612cde826138c9565b602082019050919050565b6000612cf6601683613453565b9150612d01826138f2565b602082019050919050565b6000612d19602083613453565b9150612d248261391b565b602082019050919050565b6000612d3c600d83613453565b9150612d4782613944565b602082019050919050565b6000612d5f602e83613453565b9150612d6a8261396d565b604082019050919050565b6000612d82601183613453565b9150612d8d826139bc565b602082019050919050565b6000612da5602083613453565b9150612db0826139e5565b602082019050919050565b6000612dc8601883613453565b9150612dd382613a0e565b602082019050919050565b6000612deb600d83613453565b9150612df682613a37565b602082019050919050565b6000612e0e600f83613453565b9150612e1982613a60565b602082019050919050565b6000612e31601d83613453565b9150612e3c82613a89565b602082019050919050565b6000612e54602b83613453565b9150612e5f82613ab2565b604082019050919050565b6000612e77601483613453565b9150612e8282613b01565b602082019050919050565b6000612e9a601083613453565b9150612ea582613b2a565b602082019050919050565b600060a083016000830151612ec86000860182612f26565b506020830151612edb6020860182612f26565b506040830151612eee6040860182612a6a565b5060608301518482036060860152612f068282612b3b565b9150506080830151612f1b6080860182612bfe565b508091505092915050565b612f2f816135c1565b82525050565b612f3e816135c1565b82525050565b6000602082019050612f596000830184612a79565b92915050565b600060c082019050612f746000830184612a88565b92915050565b6000602082019050612f8f6000830184612c1c565b92915050565b6000602082019050612faa6000830184612c2b565b92915050565b60006020820190508181036000830152612fc981612c3a565b9050919050565b60006020820190508181036000830152612fe981612c5d565b9050919050565b6000602082019050818103600083015261300981612c80565b9050919050565b6000602082019050818103600083015261302981612ca3565b9050919050565b6000602082019050818103600083015261304981612cc6565b9050919050565b6000602082019050818103600083015261306981612ce9565b9050919050565b6000602082019050818103600083015261308981612d0c565b9050919050565b600060208201905081810360008301526130a981612d2f565b9050919050565b600060208201905081810360008301526130c981612d52565b9050919050565b600060208201905081810360008301526130e981612d75565b9050919050565b6000602082019050818103600083015261310981612d98565b9050919050565b6000602082019050818103600083015261312981612dbb565b9050919050565b6000602082019050818103600083015261314981612dde565b9050919050565b6000602082019050818103600083015261316981612e01565b9050919050565b6000602082019050818103600083015261318981612e24565b9050919050565b600060208201905081810360008301526131a981612e47565b9050919050565b600060208201905081810360008301526131c981612e6a565b9050919050565b600060208201905081810360008301526131e981612e8d565b9050919050565b6000602082019050818103600083015261320a8184612eb0565b905092915050565b60006020820190506132276000830184612f35565b92915050565b60006060820190506132426000830187612f35565b8181036020830152613255818587612adf565b90506132646040830184612f35565b95945050505050565b60006060820190506132826000830186612f35565b81810360208301526132948185612b99565b90506132a36040830184612f35565b949350505050565b60006040820190506132c06000830185612f35565b6132cd6020830184612f35565b9392505050565b60006080820190506132e96000830187612f35565b6132f66020830186612f35565b6133036040830185612a79565b6133106060830184612c0d565b95945050505050565b600060808201905061332e6000830187612f35565b61333b6020830186612f35565b6133486040830185612f35565b6133556060830184612f35565b95945050505050565b6000613368613379565b90506133748282613649565b919050565b6000604051905090565b600067ffffffffffffffff82111561339e5761339d613781565b5b602082029050602081019050919050565b6000819050919050565b6000819050602082019050919050565b60008190508160005260206000209050919050565b600060069050919050565b600081519050919050565b600081549050919050565b6000602082019050919050565b6000602082019050919050565b6000600182019050919050565b600081905092915050565b600082825260208201905092915050565b600082825260208201905092915050565b600082825260208201905092915050565b600061346f826135c1565b915061347a836135c1565b9250827fffffffffffffffffffffffffffffffffffffffffffffffffffffffffffffffff038211156134af576134ae6136f4565b5b828201905092915050565b60006134c5826135c1565b91506134d0836135c1565b9250826134e0576134df613723565b5b828204905092915050565b60006134f6826135c1565b9150613501836135c1565b9250817fffffffffffffffffffffffffffffffffffffffffffffffffffffffffffffffff048311821515161561353a576135396136f4565b5b828202905092915050565b6000613550826135c1565b915061355b836135c1565b92508282101561356e5761356d6136f4565b5b828203905092915050565b6000819050919050565b600061358e826135a1565b9050919050565b60008115159050919050565b600073ffffffffffffffffffffffffffffffffffffffff82169050919050565b6000819050919050565b600060ff82169050919050565b60006135e3826135fc565b9050919050565b60006135f5826135cb565b9050919050565b60006136078261360e565b9050919050565b6000613619826135a1565b9050919050565b82818337600083830152505050565b600061364261363d836137f2565b613579565b9050919050565b613652826137e1565b810181811067ffffffffffffffff8211171561367157613670613781565b5b80604052505050565b6000613685826135c1565b91507fffffffffffffffffffffffffffffffffffffffffffffffffffffffffffffffff8214156136b8576136b76136f4565b5b600182019050919050565b60006136ce826135c1565b91506136d9836135c1565b9250826136e9576136e8613723565b5b828206905092915050565b7f4e487b7100000000000000000000000000000000000000000000000000000000600052601160045260246000fd5b7f4e487b7100000000000000000000000000000000000000000000000000000000600052601260045260246000fd5b7f4e487b7100000000000000000000000000000000000000000000000000000000600052603260045260246000fd5b7f4e487b7100000000000000000000000000000000000000000000000000000000600052604160045260246000fd5b60006137bc825461362f565b9050919050565b600080fd5b600080fd5b600080fd5b600080fd5b600080fd5b600080fd5b6000601f19601f8301169050919050565b60008160001c9050919050565b7f52616e646f6d6e65737320616c72656164792066756c66696c6c656400000000600082015250565b7f4265742061626f7665206d6178426574206c696d697400000000000000000000600082015250565b7f4f776e61626c653a206e6577206f776e657220697320746865207a65726f206160008201527f6464726573730000000000000000000000000000000000000000000000000000602082015250565b7f4e6f7420416c6c6f7765642072616e646f6d50726f7669646572000000000000600082015250565b7f4c6976696e6720696e2074686520706173742062726f00000000000000000000600082015250565b7f46656520616464726573732063616e2774206265203000000000000000000000600082015250565b7f4f6e6c792077696e206265742063757272656e746c7920737570706f72746564600082015250565b7f526163652066696e6973696e6700000000000000000000000000000000000000600082015250565b7f496e697469616c697a61626c653a20636f6e747261637420697320616c72656160008201527f647920696e697469616c697a6564000000000000000000000000000000000000602082015250565b7f52616365206e6f742066696e6973686564000000000000000000000000000000600082015250565b7f4f776e61626c653a2063616c6c6572206973206e6f7420746865206f776e6572600082015250565b7f526573756c7420616c7265616479207265717565737465640000000000000000600082015250565b7f526163652066696e697368656400000000000000000000000000000000000000600082015250565b7f496e76616c696420726163652049440000000000000000000000000000000000600082015250565b7f5261636520726573756c7420616c72656164792066756c66696c6c6564000000600082015250565b7f496e697469616c697a61626c653a20636f6e7472616374206973206e6f74206960008201527f6e697469616c697a696e67000000000000000000000000000000000000000000602082015250565b7f52616365206973206e6f742066696e6973686564000000000000000000000000600082015250565b7f42657420616c7265616479207061696400000000000000000000000000000000600082015250565b613b5c81613583565b8114613b6757600080fd5b50565b613b73816135c1565b8114613b7e57600080fd5b5056fea26469706673582212203ea544a59b15a8473a6b5d9980b01aff407f185951fe7905fdf8ccab70daad3a64736f6c63430008070033",
  "devdoc": {
    "kind": "dev",
    "methods": {
      "owner()": {
        "details": "Returns the address of the current owner."
      },
      "renounceOwnership()": {
        "details": "Leaves the contract without owner. It will not be possible to call `onlyOwner` functions anymore. Can only be called by the current owner. NOTE: Renouncing ownership will leave the contract without an owner, thereby removing any functionality that is only available to the owner."
      },
      "transferOwnership(address)": {
        "details": "Transfers ownership of the contract to a new account (`newOwner`). Can only be called by the current owner."
      }
    },
    "title": "An betting game with exotic bet types",
    "version": 1
  },
  "userdoc": {
    "events": {
      "Payout(uint256,address,uint256,uint256[],uint256)": {
        "notice": "emitted when a bet is cashed out."
      },
      "RaceEnd(uint256,uint256,uint256)": {
        "notice": "emitted when a race ends."
      },
      "RaceStart(uint256,uint256)": {
        "notice": "emitted when a race starts."
      },
      "Wagered(uint256,address,uint256,uint256[],uint256)": {
        "notice": "emitted when a new bet is placed on a race."
      }
    },
    "kind": "user",
    "methods": {
      "bet(address,uint256)": {
        "notice": "mapping of address to list of bets."
      },
      "endRace(uint256,uint256[])": {
        "notice": "End the race and set the result."
      },
      "fee()": {
        "notice": "Fee paramaters."
      },
      "frequency()": {
        "notice": "How often races take place."
      },
      "nextRaceId()": {
        "notice": "The time of the next race to take place."
      },
      "odds(uint256,uint256[])": {
        "notice": "Get the current odds for a prediction."
      },
      "payout(uint256)": {
        "notice": "Cash out a winning bet."
      },
      "placeBet(uint256,uint256[])": {
        "notice": "Place a bet."
      },
      "race(uint256)": {
        "notice": "The state for each race."
      },
      "raceResult(uint256)": {
        "notice": "Return the results for a race."
      },
      "start()": {
        "notice": "The datetime of the first race."
      },
      "startRace(uint256)": {
        "notice": "Start the race and request result from VRF."
      },
      "userBet(address,uint256)": {
        "notice": "Returns a users bet with given id."
      },
      "userBetCount(address)": {
        "notice": "Return the amount of bets a user has made."
      }
    },
    "version": 1
  },
  "storageLayout": {
    "storage": [
      {
        "astId": 130,
        "contract": "contracts/Exotic.sol:Exotic",
        "label": "_initialized",
        "offset": 0,
        "slot": "0",
        "type": "t_uint8"
      },
      {
        "astId": 133,
        "contract": "contracts/Exotic.sol:Exotic",
        "label": "_initializing",
        "offset": 1,
        "slot": "0",
        "type": "t_bool"
      },
      {
        "astId": 549,
        "contract": "contracts/Exotic.sol:Exotic",
        "label": "__gap",
        "offset": 0,
        "slot": "1",
        "type": "t_array(t_uint256)50_storage"
      },
      {
        "astId": 10,
        "contract": "contracts/Exotic.sol:Exotic",
        "label": "_owner",
        "offset": 0,
        "slot": "51",
        "type": "t_address"
      },
      {
        "astId": 122,
        "contract": "contracts/Exotic.sol:Exotic",
        "label": "__gap",
        "offset": 0,
        "slot": "52",
        "type": "t_array(t_uint256)49_storage"
      },
      {
        "astId": 564,
        "contract": "contracts/Exotic.sol:Exotic",
        "label": "randomProvider",
        "offset": 0,
        "slot": "101",
        "type": "t_contract(IRandomProvider)1623"
      },
      {
        "astId": 566,
        "contract": "contracts/Exotic.sol:Exotic",
        "label": "balance",
        "offset": 0,
        "slot": "102",
        "type": "t_uint256"
      },
      {
        "astId": 573,
        "contract": "contracts/Exotic.sol:Exotic",
        "label": "start",
        "offset": 0,
        "slot": "103",
        "type": "t_uint256"
      },
      {
        "astId": 576,
        "contract": "contracts/Exotic.sol:Exotic",
        "label": "fee",
        "offset": 0,
        "slot": "104",
        "type": "t_uint256"
      },
      {
        "astId": 578,
        "contract": "contracts/Exotic.sol:Exotic",
        "label": "jackpotContribution",
        "offset": 0,
        "slot": "105",
        "type": "t_uint256"
      },
      {
        "astId": 580,
        "contract": "contracts/Exotic.sol:Exotic",
        "label": "feeAddress",
        "offset": 0,
        "slot": "106",
        "type": "t_address"
      },
      {
        "astId": 582,
        "contract": "contracts/Exotic.sol:Exotic",
        "label": "jackpotAddress",
        "offset": 0,
        "slot": "107",
        "type": "t_address"
      },
      {
        "astId": 584,
        "contract": "contracts/Exotic.sol:Exotic",
        "label": "maxBet",
        "offset": 0,
        "slot": "108",
        "type": "t_uint256"
      },
      {
        "astId": 615,
        "contract": "contracts/Exotic.sol:Exotic",
        "label": "race",
        "offset": 0,
        "slot": "109",
        "type": "t_mapping(t_uint256,t_struct(Race)609_storage)"
      },
      {
        "astId": 622,
        "contract": "contracts/Exotic.sol:Exotic",
        "label": "bet",
        "offset": 0,
        "slot": "110",
        "type": "t_mapping(t_address,t_array(t_struct(Bet)596_storage)dyn_storage)"
      },
      {
        "astId": 627,
        "contract": "contracts/Exotic.sol:Exotic",
        "label": "requestIdRace",
        "offset": 0,
        "slot": "111",
        "type": "t_mapping(t_uint256,t_uint256)"
      }
    ],
    "types": {
      "t_address": {
        "encoding": "inplace",
        "label": "address",
        "numberOfBytes": "20"
      },
      "t_array(t_struct(Bet)596_storage)dyn_storage": {
        "base": "t_struct(Bet)596_storage",
        "encoding": "dynamic_array",
        "label": "struct Exotic.Bet[]",
        "numberOfBytes": "32"
      },
      "t_array(t_uint256)49_storage": {
        "base": "t_uint256",
        "encoding": "inplace",
        "label": "uint256[49]",
        "numberOfBytes": "1568"
      },
      "t_array(t_uint256)50_storage": {
        "base": "t_uint256",
        "encoding": "inplace",
        "label": "uint256[50]",
        "numberOfBytes": "1600"
      },
      "t_array(t_uint256)6_storage": {
        "base": "t_uint256",
        "encoding": "inplace",
        "label": "uint256[6]",
        "numberOfBytes": "192"
      },
      "t_array(t_uint256)dyn_storage": {
        "base": "t_uint256",
        "encoding": "dynamic_array",
        "label": "uint256[]",
        "numberOfBytes": "32"
      },
      "t_bool": {
        "encoding": "inplace",
        "label": "bool",
        "numberOfBytes": "1"
      },
      "t_contract(IRandomProvider)1623": {
        "encoding": "inplace",
        "label": "contract IRandomProvider",
        "numberOfBytes": "20"
      },
      "t_mapping(t_address,t_array(t_struct(Bet)596_storage)dyn_storage)": {
        "encoding": "mapping",
        "key": "t_address",
        "label": "mapping(address => struct Exotic.Bet[])",
        "numberOfBytes": "32",
        "value": "t_array(t_struct(Bet)596_storage)dyn_storage"
      },
      "t_mapping(t_uint256,t_struct(Race)609_storage)": {
        "encoding": "mapping",
        "key": "t_uint256",
        "label": "mapping(uint256 => struct Exotic.Race)",
        "numberOfBytes": "32",
        "value": "t_struct(Race)609_storage"
      },
      "t_mapping(t_uint256,t_uint256)": {
        "encoding": "mapping",
        "key": "t_uint256",
        "label": "mapping(uint256 => uint256)",
        "numberOfBytes": "32",
        "value": "t_uint256"
      },
      "t_struct(Bet)596_storage": {
        "encoding": "inplace",
        "label": "struct Exotic.Bet",
        "members": [
          {
            "astId": 586,
            "contract": "contracts/Exotic.sol:Exotic",
            "label": "raceId",
            "offset": 0,
            "slot": "0",
            "type": "t_uint256"
          },
          {
            "astId": 588,
            "contract": "contracts/Exotic.sol:Exotic",
            "label": "amount",
            "offset": 0,
            "slot": "1",
            "type": "t_uint256"
          },
          {
            "astId": 590,
            "contract": "contracts/Exotic.sol:Exotic",
            "label": "account",
            "offset": 0,
            "slot": "2",
            "type": "t_address"
          },
          {
            "astId": 593,
            "contract": "contracts/Exotic.sol:Exotic",
            "label": "place",
            "offset": 0,
            "slot": "3",
            "type": "t_array(t_uint256)dyn_storage"
          },
          {
            "astId": 595,
            "contract": "contracts/Exotic.sol:Exotic",
            "label": "paid",
            "offset": 0,
            "slot": "4",
            "type": "t_bool"
          }
        ],
        "numberOfBytes": "160"
      },
      "t_struct(Race)609_storage": {
        "encoding": "inplace",
        "label": "struct Exotic.Race",
        "members": [
          {
            "astId": 598,
            "contract": "contracts/Exotic.sol:Exotic",
            "label": "totalWagered",
            "offset": 0,
            "slot": "0",
            "type": "t_uint256"
          },
          {
            "astId": 600,
            "contract": "contracts/Exotic.sol:Exotic",
            "label": "paid",
            "offset": 0,
            "slot": "1",
            "type": "t_uint256"
          },
          {
            "astId": 602,
            "contract": "contracts/Exotic.sol:Exotic",
            "label": "result",
            "offset": 0,
            "slot": "2",
            "type": "t_uint256"
          },
          {
            "astId": 604,
            "contract": "contracts/Exotic.sol:Exotic",
            "label": "requestId",
            "offset": 0,
            "slot": "3",
            "type": "t_uint256"
          },
          {
            "astId": 608,
            "contract": "contracts/Exotic.sol:Exotic",
            "label": "winWeights",
            "offset": 0,
            "slot": "4",
            "type": "t_array(t_uint256)6_storage"
          }
        ],
        "numberOfBytes": "320"
      },
      "t_uint256": {
        "encoding": "inplace",
        "label": "uint256",
        "numberOfBytes": "32"
      },
      "t_uint8": {
        "encoding": "inplace",
        "label": "uint8",
        "numberOfBytes": "1"
      }
    }
  }
}