{
  "address": "0x43C8C0355C1E6Be9eE4BB0d19ac69e6532Fa44aB",
  "abi": [
    {
      "anonymous": false,
      "inputs": [
        {
          "indexed": false,
          "internalType": "uint8",
          "name": "version",
          "type": "uint8"
        }
      ],
      "name": "Initialized",
      "type": "event"
    },
    {
      "anonymous": false,
      "inputs": [
        {
          "indexed": true,
          "internalType": "uint256",
          "name": "raceId",
          "type": "uint256"
        },
        {
          "indexed": true,
          "internalType": "address",
          "name": "to",
          "type": "address"
        },
        {
          "indexed": false,
          "internalType": "uint256",
          "name": "amount",
          "type": "uint256"
        },
        {
          "indexed": false,
          "internalType": "uint256[]",
          "name": "prediction",
          "type": "uint256[]"
        },
        {
          "indexed": false,
          "internalType": "uint256",
          "name": "payout",
          "type": "uint256"
        }
      ],
      "name": "Payout",
      "type": "event"
    },
    {
      "anonymous": false,
      "inputs": [
        {
          "indexed": true,
          "internalType": "uint256",
          "name": "raceId",
          "type": "uint256"
        },
        {
          "indexed": false,
          "internalType": "uint256",
          "name": "totalValue",
          "type": "uint256"
        },
        {
          "indexed": false,
          "internalType": "uint256",
          "name": "result",
          "type": "uint256"
        }
      ],
      "name": "RaceEnd",
      "type": "event"
    },
    {
      "anonymous": false,
      "inputs": [
        {
          "indexed": true,
          "internalType": "uint256",
          "name": "raceId",
          "type": "uint256"
        },
        {
          "indexed": false,
          "internalType": "uint256",
          "name": "totalValue",
          "type": "uint256"
        }
      ],
      "name": "RaceStart",
      "type": "event"
    },
    {
      "anonymous": false,
      "inputs": [
        {
          "indexed": true,
          "internalType": "uint256",
          "name": "raceId",
          "type": "uint256"
        },
        {
          "indexed": true,
          "internalType": "address",
          "name": "from",
          "type": "address"
        },
        {
          "indexed": false,
          "internalType": "uint256",
          "name": "amount",
          "type": "uint256"
        },
        {
          "indexed": false,
          "internalType": "uint256[]",
          "name": "prediction",
          "type": "uint256[]"
        },
        {
          "indexed": false,
          "internalType": "uint256",
          "name": "poolTotal",
          "type": "uint256"
        }
      ],
      "name": "Wagered",
      "type": "event"
    },
    {
      "inputs": [
        {
          "internalType": "address",
          "name": "",
          "type": "address"
        },
        {
          "internalType": "uint256",
          "name": "",
          "type": "uint256"
        }
      ],
      "name": "bet",
      "outputs": [
        {
          "internalType": "uint256",
          "name": "raceId",
          "type": "uint256"
        },
        {
          "internalType": "uint256",
          "name": "amount",
          "type": "uint256"
        },
        {
          "internalType": "address",
          "name": "account",
          "type": "address"
        },
        {
          "internalType": "bool",
          "name": "paid",
          "type": "bool"
        }
      ],
      "stateMutability": "view",
      "type": "function"
    },
    {
      "inputs": [
        {
          "internalType": "uint256",
          "name": "requestId",
          "type": "uint256"
        },
        {
          "internalType": "uint256[]",
          "name": "randomWords",
          "type": "uint256[]"
        }
      ],
      "name": "endRace",
      "outputs": [],
      "stateMutability": "nonpayable",
      "type": "function"
    },
    {
      "inputs": [],
      "name": "fee",
      "outputs": [
        {
          "internalType": "uint256",
          "name": "",
          "type": "uint256"
        }
      ],
      "stateMutability": "view",
      "type": "function"
    },
    {
      "inputs": [],
      "name": "feeAddress",
      "outputs": [
        {
          "internalType": "address",
          "name": "",
          "type": "address"
        }
      ],
      "stateMutability": "view",
      "type": "function"
    },
    {
      "inputs": [],
      "name": "frequency",
      "outputs": [
        {
          "internalType": "uint256",
          "name": "",
          "type": "uint256"
        }
      ],
      "stateMutability": "view",
      "type": "function"
    },
    {
      "inputs": [
        {
          "internalType": "address",
          "name": "_randomProviderAddress",
          "type": "address"
        },
        {
          "internalType": "uint256",
          "name": "_fee",
          "type": "uint256"
        },
        {
          "internalType": "uint256",
          "name": "_jackpotContribution",
          "type": "uint256"
        },
        {
          "internalType": "address",
          "name": "_feeAddress",
          "type": "address"
        },
        {
          "internalType": "address",
          "name": "_jackpotAddress",
          "type": "address"
        }
      ],
      "name": "initialize",
      "outputs": [],
      "stateMutability": "nonpayable",
      "type": "function"
    },
    {
      "inputs": [],
      "name": "jackpotAddress",
      "outputs": [
        {
          "internalType": "address",
          "name": "",
          "type": "address"
        }
      ],
      "stateMutability": "view",
      "type": "function"
    },
    {
      "inputs": [],
      "name": "jackpotContribution",
      "outputs": [
        {
          "internalType": "uint256",
          "name": "",
          "type": "uint256"
        }
      ],
      "stateMutability": "view",
      "type": "function"
    },
    {
      "inputs": [],
      "name": "nextRaceId",
      "outputs": [
        {
          "internalType": "uint256",
          "name": "",
          "type": "uint256"
        }
      ],
      "stateMutability": "view",
      "type": "function"
    },
    {
      "inputs": [
        {
          "internalType": "uint256",
          "name": "raceId",
          "type": "uint256"
        },
        {
          "internalType": "uint256[]",
          "name": "result",
          "type": "uint256[]"
        }
      ],
      "name": "odds",
      "outputs": [
        {
          "internalType": "uint256",
          "name": "",
          "type": "uint256"
        }
      ],
      "stateMutability": "view",
      "type": "function"
    },
    {
      "inputs": [
        {
          "internalType": "uint256",
          "name": "betId",
          "type": "uint256"
        }
      ],
      "name": "payout",
      "outputs": [],
      "stateMutability": "nonpayable",
      "type": "function"
    },
    {
      "inputs": [
        {
          "internalType": "uint256",
          "name": "raceId",
          "type": "uint256"
        },
        {
          "internalType": "uint256[]",
          "name": "prediction",
          "type": "uint256[]"
        }
      ],
      "name": "placeBet",
      "outputs": [
        {
          "internalType": "uint256",
          "name": "betId",
          "type": "uint256"
        }
      ],
      "stateMutability": "payable",
      "type": "function"
    },
    {
      "inputs": [
        {
          "internalType": "uint256",
          "name": "",
          "type": "uint256"
        }
      ],
      "name": "race",
      "outputs": [
        {
          "internalType": "uint256",
          "name": "totalWagered",
          "type": "uint256"
        },
        {
          "internalType": "uint256",
          "name": "paid",
          "type": "uint256"
        },
        {
          "internalType": "uint256",
          "name": "result",
          "type": "uint256"
        },
        {
          "internalType": "uint256",
          "name": "requestId",
          "type": "uint256"
        }
      ],
      "stateMutability": "view",
      "type": "function"
    },
    {
      "inputs": [
        {
          "internalType": "uint256",
          "name": "raceId",
          "type": "uint256"
        }
      ],
      "name": "raceResult",
      "outputs": [
        {
          "internalType": "uint256[6]",
          "name": "",
          "type": "uint256[6]"
        }
      ],
      "stateMutability": "view",
      "type": "function"
    },
    {
      "inputs": [],
      "name": "randomProvider",
      "outputs": [
        {
          "internalType": "contract IRandomProvider",
          "name": "",
          "type": "address"
        }
      ],
      "stateMutability": "view",
      "type": "function"
    },
    {
      "inputs": [],
      "name": "start",
      "outputs": [
        {
          "internalType": "uint256",
          "name": "",
          "type": "uint256"
        }
      ],
      "stateMutability": "view",
      "type": "function"
    },
    {
      "inputs": [
        {
          "internalType": "uint256",
          "name": "raceId",
          "type": "uint256"
        }
      ],
      "name": "startRace",
      "outputs": [],
      "stateMutability": "nonpayable",
      "type": "function"
    },
    {
      "inputs": [
        {
          "internalType": "address",
          "name": "user",
          "type": "address"
        },
        {
          "internalType": "uint256",
          "name": "betId",
          "type": "uint256"
        }
      ],
      "name": "userBet",
      "outputs": [
        {
          "internalType": "uint256",
          "name": "",
          "type": "uint256"
        },
        {
          "internalType": "uint256",
          "name": "",
          "type": "uint256"
        },
        {
          "internalType": "uint256[]",
          "name": "",
          "type": "uint256[]"
        },
        {
          "internalType": "bool",
          "name": "",
          "type": "bool"
        }
      ],
      "stateMutability": "view",
      "type": "function"
    },
    {
      "inputs": [
        {
          "internalType": "address",
          "name": "user",
          "type": "address"
        }
      ],
      "name": "userBetCount",
      "outputs": [
        {
          "internalType": "uint256",
          "name": "",
          "type": "uint256"
        }
      ],
      "stateMutability": "view",
      "type": "function"
    },
    {
      "inputs": [
        {
          "internalType": "address",
          "name": "user",
          "type": "address"
        },
        {
          "internalType": "uint256",
          "name": "resultsPerPage",
          "type": "uint256"
        },
        {
          "internalType": "uint256",
          "name": "page",
          "type": "uint256"
        }
      ],
      "name": "userBets",
      "outputs": [
        {
          "components": [
            {
              "internalType": "uint256",
              "name": "raceId",
              "type": "uint256"
            },
            {
              "internalType": "uint256",
              "name": "amount",
              "type": "uint256"
            },
            {
              "internalType": "address",
              "name": "account",
              "type": "address"
            },
            {
              "internalType": "uint256[]",
              "name": "place",
              "type": "uint256[]"
            },
            {
              "internalType": "bool",
              "name": "paid",
              "type": "bool"
            }
          ],
          "internalType": "struct Exotic.Bet[]",
          "name": "",
          "type": "tuple[]"
        }
      ],
      "stateMutability": "view",
      "type": "function"
    }
  ],
  "transactionHash": "0x36f76136a28c83f8d3de14a2e9ab7ebba13f0a881f29f3a2a10f835985d5e23e",
  "args": [],
  "numDeployments": 1,
  "solcInputHash": "641d438ec5a73892a4c03451db4b0d09",
  "bytecode": "0x608060405234801561001057600080fd5b506132db806100206000396000f3fe60806040526004361061011f5760003560e01c8063be9a6555116100a0578063ddca3f4311610064578063ddca3f4314610408578063e115234314610433578063ead50da31461045c578063f408a23a14610487578063f846cabc146104c45761011f565b8063be9a65551461030d578063d149221b14610338578063d195a05414610375578063d8595d86146103b2578063d9b8fd8f146103dd5761011f565b80634195ab8e116100e75780634195ab8e146101fa5780636bc0b3ba1461023a5780638f46500e14610265578063b71455ee14610290578063b7dda85e146102cd5761011f565b806303b54d521461012457806324d822bf1461014d57806330d1465514610176578063315aa38c146101a657806341275358146101cf575b600080fd5b34801561013057600080fd5b5061014b600480360381019061014691906120e1565b610504565b005b34801561015957600080fd5b50610174600480360381019061016f919061215c565b61066d565b005b610190600480360381019061018b91906121b6565b61086e565b60405161019d91906129ca565b60405180910390f35b3480156101b257600080fd5b506101cd60048036038101906101c89190612216565b610d90565b005b3480156101db57600080fd5b506101e4610f17565b6040516101f1919061279c565b60405180910390f35b34801561020657600080fd5b50610221600480360381019061021c919061204e565b610f3d565b6040516102319493929190612ad1565b60405180910390f35b34801561024657600080fd5b5061024f6110b4565b60405161025c919061279c565b60405180910390f35b34801561027157600080fd5b5061027a6110da565b60405161028791906127f4565b60405180910390f35b34801561029c57600080fd5b506102b760048036038101906102b2919061215c565b611100565b6040516102c491906127d9565b60405180910390f35b3480156102d957600080fd5b506102f460048036038101906102ef919061215c565b611365565b6040516103049493929190612b1d565b60405180910390f35b34801561031957600080fd5b50610322611395565b60405161032f91906129ca565b60405180910390f35b34801561034457600080fd5b5061035f600480360381019061035a9190612216565b61139b565b60405161036c91906129ca565b60405180910390f35b34801561038157600080fd5b5061039c6004803603810190610397919061208e565b611596565b6040516103a991906127b7565b60405180910390f35b3480156103be57600080fd5b506103c76117a3565b6040516103d491906129ca565b60405180910390f35b3480156103e957600080fd5b506103f26117a9565b6040516103ff91906129ca565b60405180910390f35b34801561041457600080fd5b5061041d6117d4565b60405161042a91906129ca565b60405180910390f35b34801561043f57600080fd5b5061045a6004803603810190610455919061215c565b6117da565b005b34801561046857600080fd5b50610471611af7565b60405161047e91906129ca565b60405180910390f35b34801561049357600080fd5b506104ae60048036038101906104a99190612021565b611afc565b6040516104bb91906129ca565b60405180910390f35b3480156104d057600080fd5b506104eb60048036038101906104e6919061204e565b611b48565b6040516104fb9493929190612a8c565b60405180910390f35b60006105106001611bc2565b90508015610534576001600060016101000a81548160ff0219169083151502179055505b4260028190555085600060026101000a81548173ffffffffffffffffffffffffffffffffffffffff021916908373ffffffffffffffffffffffffffffffffffffffff160217905550846003819055508360048190555082600560006101000a81548173ffffffffffffffffffffffffffffffffffffffff021916908373ffffffffffffffffffffffffffffffffffffffff16021790555081600660006101000a81548173ffffffffffffffffffffffffffffffffffffffff021916908373ffffffffffffffffffffffffffffffffffffffff16021790555080156106655760008060016101000a81548160ff0219169083151502179055507f7f26b83ff96e1f2b6a682f133852f6798a09c465da95921460cefb3847402498600160405161065c919061280f565b60405180910390a15b505050505050565b61067681611cb2565b60b4816106839190612ca1565b42116106c4576040517f08c379a00000000000000000000000000000000000000000000000000000000081526004016106bb906128ea565b60405180910390fd5b60006007600083815260200190815260200160002090506000816003015414610722576040517f08c379a00000000000000000000000000000000000000000000000000000000081526004016107199061290a565b60405180910390fd5b6000816002015414610769576040517f08c379a00000000000000000000000000000000000000000000000000000000081526004016107609061296a565b60405180910390fd5b60008060029054906101000a900473ffffffffffffffffffffffffffffffffffffffff1673ffffffffffffffffffffffffffffffffffffffff1663e0c862896040518163ffffffff1660e01b8152600401602060405180830381600087803b1580156107d457600080fd5b505af11580156107e8573d6000803e3d6000fd5b505050506040513d601f19601f8201168201806040525081019061080c9190612189565b9050808260030181905550826009600083815260200190815260200160002081905550827f727aed3ef5e1b948e78407c8b942fb3193ebc5901b4bc951faa6568c90b7849560015460405161086191906129ca565b60405180910390a2505050565b600061087984611cb2565b600183839050146108bf576040517f08c379a00000000000000000000000000000000000000000000000000000000081526004016108b69061288a565b60405180910390fd5b6000612710600354346108d29190612d28565b6108dc9190612cf7565b90506000612710600454346108f19190612d28565b6108fb9190612cf7565b90506000818361090b9190612ca1565b346109169190612d82565b9050610920611e1b565b878160000181815250508181602001818152505033816040019073ffffffffffffffffffffffffffffffffffffffff16908173ffffffffffffffffffffffffffffffffffffffff1681525050600860003373ffffffffffffffffffffffffffffffffffffffff1673ffffffffffffffffffffffffffffffffffffffff168152602001908152602001600020819080600181540180825580915050600190039060005260206000209060050201600090919091909150600082015181600001556020820151816001015560408201518160020160006101000a81548173ffffffffffffffffffffffffffffffffffffffff021916908373ffffffffffffffffffffffffffffffffffffffff1602179055506060820151816003019080519060200190610a4c929190611e62565b5060808201518160040160006101000a81548160ff0219169083151502179055505050600860003373ffffffffffffffffffffffffffffffffffffffff1673ffffffffffffffffffffffffffffffffffffffff1681526020019081526020016000206001600860003373ffffffffffffffffffffffffffffffffffffffff1673ffffffffffffffffffffffffffffffffffffffff16815260200190815260200160002080549050610afd9190612d82565b81548110610b0e57610b0d612f8f565b5b906000526020600020906005020160030187876000818110610b3357610b32612f8f565b5b9050602002013590806001815401808255809150506001900390600052602060002001600090919091909150556000600760008a815260200190815260200160002090508281600401600060038110610b8f57610b8e612f8f565b5b6006020189896000818110610ba757610ba6612f8f565b5b9050602002013560068110610bbf57610bbe612f8f565b5b016000828254610bcf9190612ca1565b9250508190555082816000016000828254610bea9190612ca1565b925050819055508260016000828254610c039190612ca1565b925050819055503373ffffffffffffffffffffffffffffffffffffffff16897fed7146643be17948fcb4400f9980c37ef3404baf91823ef51782e2c6673266f6858b8b600154604051610c5994939291906129e5565b60405180910390a3600560009054906101000a900473ffffffffffffffffffffffffffffffffffffffff1673ffffffffffffffffffffffffffffffffffffffff166108fc869081150290604051600060405180830381858888f19350505050158015610cc9573d6000803e3d6000fd5b50600660009054906101000a900473ffffffffffffffffffffffffffffffffffffffff1673ffffffffffffffffffffffffffffffffffffffff166108fc859081150290604051600060405180830381858888f19350505050158015610d32573d6000803e3d6000fd5b506001600860003373ffffffffffffffffffffffffffffffffffffffff1673ffffffffffffffffffffffffffffffffffffffff16815260200190815260200160002080549050610d829190612d82565b955050505050509392505050565b600060029054906101000a900473ffffffffffffffffffffffffffffffffffffffff1673ffffffffffffffffffffffffffffffffffffffff163373ffffffffffffffffffffffffffffffffffffffff1614610e20576040517f08c379a0000000000000000000000000000000000000000000000000000000008152600401610e179061284a565b60405180910390fd5b60006009600084815260200190815260200160002054905060006007600083815260200190815260200160002090506000816002015414610e96576040517f08c379a0000000000000000000000000000000000000000000000000000000008152600401610e8d9061282a565b60405180910390fd5b82600081518110610eaa57610ea9612f8f565b5b60200260200101518160020181905550817f7554ff21c11af92d9ed24a3625daa96a85ebe3a0a3c44c44cb080cb400c42d9860015485600081518110610ef357610ef2612f8f565b5b6020026020010151604051610f09929190612a63565b60405180910390a250505050565b600560009054906101000a900473ffffffffffffffffffffffffffffffffffffffff1681565b6000806060600080600860008873ffffffffffffffffffffffffffffffffffffffff1673ffffffffffffffffffffffffffffffffffffffff1681526020019081526020016000208681548110610f9657610f95612f8f565b5b90600052602060002090600502016040518060a001604052908160008201548152602001600182015481526020016002820160009054906101000a900473ffffffffffffffffffffffffffffffffffffffff1673ffffffffffffffffffffffffffffffffffffffff1673ffffffffffffffffffffffffffffffffffffffff1681526020016003820180548060200260200160405190810160405280929190818152602001828054801561106857602002820191906000526020600020905b815481526020019060010190808311611054575b505050505081526020016004820160009054906101000a900460ff1615151515815250509050806000015181602001518260600151836080015194509450945094505092959194509250565b600660009054906101000a900473ffffffffffffffffffffffffffffffffffffffff1681565b600060029054906101000a900473ffffffffffffffffffffffffffffffffffffffff1681565b611108611eaf565b6000600760008481526020019081526020016000206040518060a00160405290816000820154815260200160018201548152602001600282015481526020016003820154815260200160048201600380602002604051908101604052809291906000905b828210156111c5578382600602016006806020026040519081016040528092919082600680156111b1576020028201915b81548152602001906001019080831161119d575b50505050508152602001906001019061116c565b50505050815250509050600081604001511415611217576040517f08c379a000000000000000000000000000000000000000000000000000000000815260040161120e9061298a565b60405180910390fd5b61121f611eaf565b600080600090505b600681101561128457836080015160006003811061124857611247612f8f565b5b6020020151816006811061125f5761125e612f8f565b5b60200201518261126f9190612ca1565b9150808061127c90612eb7565b915050611227565b60008285604001516112969190612f00565b905060005b6006811015611357578186608001516000600381106112bd576112bc612f8f565b5b602002015182600681106112d4576112d3612f8f565b5b602002015111156113025780856000600681106112f4576112f3612f8f565b5b602002018181525050611344565b856080015160006003811061131a57611319612f8f565b5b6020020151816006811061133157611330612f8f565b5b6020020151826113419190612d82565b91505b808061134f90612eb7565b91505061129b565b849650505050505050919050565b60076020528060005260406000206000915090508060000154908060010154908060020154908060030154905084565b60025481565b600080600760008581526020019081526020016000206040518060a00160405290816000820154815260200160018201548152602001600282015481526020016003820154815260200160048201600380602002604051908101604052809291906000905b8282101561145957838260060201600680602002604051908101604052809291908260068015611445576020028201915b815481526020019060010190808311611431575b505050505081526020019060010190611400565b5050505081525050905060018351146114a7576040517f08c379a000000000000000000000000000000000000000000000000000000000815260040161149e9061288a565b60405180910390fd5b600080600090505b600681101561150c5782608001516000600381106114d0576114cf612f8f565b5b602002015181600681106114e7576114e6612f8f565b5b6020020151826114f79190612ca1565b9150808061150490612eb7565b9150506114af565b600082141561152057819350505050611590565b816402540be400846080015160006003811061153f5761153e612f8f565b5b60200201518760008151811061155857611557612f8f565b5b60200260200101516006811061157157611570612f8f565b5b60200201516115809190612d28565b61158a9190612cf7565b93505050505b92915050565b606060008367ffffffffffffffff8111156115b4576115b3612fbe565b5b6040519080825280602002602001820160405280156115ed57816020015b6115da611e1b565b8152602001906001900390816115d25790505b50905060008484866115ff9190612d28565b6116099190612d82565b90505b83856116189190612d28565b81101561179757600860008773ffffffffffffffffffffffffffffffffffffffff1673ffffffffffffffffffffffffffffffffffffffff16815260200190815260200160002081815481106116705761166f612f8f565b5b90600052602060002090600502016040518060a001604052908160008201548152602001600182015481526020016002820160009054906101000a900473ffffffffffffffffffffffffffffffffffffffff1673ffffffffffffffffffffffffffffffffffffffff1673ffffffffffffffffffffffffffffffffffffffff1681526020016003820180548060200260200160405190810160405280929190818152602001828054801561174257602002820191906000526020600020905b81548152602001906001019080831161172e575b505050505081526020016004820160009054906101000a900460ff16151515158152505082828151811061177957611778612f8f565b5b6020026020010181905250808061178f90612eb7565b91505061160c565b81925050509392505050565b60045481565b600060b4426117b89190612f00565b60b46117c49190612d82565b426117cf9190612ca1565b905090565b60035481565b6000600860003373ffffffffffffffffffffffffffffffffffffffff1673ffffffffffffffffffffffffffffffffffffffff168152602001908152602001600020828154811061182d5761182c612f8f565b5b906000526020600020906005020190506000600760008360000154815260200190815260200160002090506000816002015414156118a0576040517f08c379a0000000000000000000000000000000000000000000000000000000008152600401611897906128ea565b60405180910390fd5b8160040160009054906101000a900460ff16156118f2576040517f08c379a00000000000000000000000000000000000000000000000000000000081526004016118e9906129aa565b60405180910390fd5b60006119018360000154611100565b905060005b836003018054905081101561196f5781816006811061192857611927612f8f565b5b602002015184600301828154811061194357611942612f8f565b5b90600052602060002001541461195c5750505050611af4565b808061196790612eb7565b915050611906565b60006119d18560000154866003018054806020026020016040519081016040528092919081815260200182805480156119c757602002820191906000526020600020905b8154815260200190600101908083116119b3575b505050505061139b565b90506000816402540be40087600101546119eb9190612d28565b6119f59190612cf7565b905060018660040160006101000a81548160ff02191690831515021790555080856001016000828254611a289190612ca1565b925050819055508060016000828254611a419190612d82565b925050819055503373ffffffffffffffffffffffffffffffffffffffff1686600001547fef0068ac9e6ad3b19d182459af297eb4d144e7721b87c619278bed0fcd0bd5dc88600101548960030185604051611a9e93929190612a25565b60405180910390a33373ffffffffffffffffffffffffffffffffffffffff166108fc829081150290604051600060405180830381858888f19350505050158015611aec573d6000803e3d6000fd5b505050505050505b50565b60b481565b6000600860008373ffffffffffffffffffffffffffffffffffffffff1673ffffffffffffffffffffffffffffffffffffffff168152602001908152602001600020805490509050919050565b60086020528160005260406000208181548110611b6457600080fd5b9060005260206000209060050201600091509150508060000154908060010154908060020160009054906101000a900473ffffffffffffffffffffffffffffffffffffffff16908060040160009054906101000a900460ff16905084565b60008060019054906101000a900460ff1615611c395760018260ff16148015611bf15750611bef30611df8565b155b611c30576040517f08c379a0000000000000000000000000000000000000000000000000000000008152600401611c27906128ca565b60405180910390fd5b60009050611cad565b8160ff1660008054906101000a900460ff1660ff1610611c8e576040517f08c379a0000000000000000000000000000000000000000000000000000000008152600401611c85906128ca565b60405180910390fd5b816000806101000a81548160ff021916908360ff160217905550600190505b919050565b600060b482611cc19190612f00565b14611d01576040517f08c379a0000000000000000000000000000000000000000000000000000000008152600401611cf89061294a565b60405180910390fd5b600254811015611d46576040517f08c379a0000000000000000000000000000000000000000000000000000000008152600401611d3d9061286a565b60405180910390fd5b6000600760008381526020019081526020016000206002015414611d9f576040517f08c379a0000000000000000000000000000000000000000000000000000000008152600401611d969061292a565b60405180910390fd5b6000600960008381526020019081526020016000205414611df5576040517f08c379a0000000000000000000000000000000000000000000000000000000008152600401611dec906128aa565b60405180910390fd5b50565b6000808273ffffffffffffffffffffffffffffffffffffffff163b119050919050565b6040518060a001604052806000815260200160008152602001600073ffffffffffffffffffffffffffffffffffffffff168152602001606081526020016000151581525090565b828054828255906000526020600020908101928215611e9e579160200282015b82811115611e9d578251825591602001919060010190611e82565b5b509050611eab9190611ed1565b5090565b6040518060c00160405280600690602082028036833780820191505090505090565b5b80821115611eea576000816000905550600101611ed2565b5090565b6000611f01611efc84612b87565b612b62565b90508083825260208201905082856020860282011115611f2457611f2361300a565b5b60005b85811015611f545781611f3a8882611ff7565b845260208401935060208301925050600181019050611f27565b5050509392505050565b600081359050611f6d81613277565b92915050565b60008083601f840112611f8957611f88613005565b5b8235905067ffffffffffffffff811115611fa657611fa5613000565b5b602083019150836020820283011115611fc257611fc161300a565b5b9250929050565b600082601f830112611fde57611fdd613005565b5b8135611fee848260208601611eee565b91505092915050565b6000813590506120068161328e565b92915050565b60008151905061201b8161328e565b92915050565b60006020828403121561203757612036613019565b5b600061204584828501611f5e565b91505092915050565b6000806040838503121561206557612064613019565b5b600061207385828601611f5e565b925050602061208485828601611ff7565b9150509250929050565b6000806000606084860312156120a7576120a6613019565b5b60006120b586828701611f5e565b93505060206120c686828701611ff7565b92505060406120d786828701611ff7565b9150509250925092565b600080600080600060a086880312156120fd576120fc613019565b5b600061210b88828901611f5e565b955050602061211c88828901611ff7565b945050604061212d88828901611ff7565b935050606061213e88828901611f5e565b925050608061214f88828901611f5e565b9150509295509295909350565b60006020828403121561217257612171613019565b5b600061218084828501611ff7565b91505092915050565b60006020828403121561219f5761219e613019565b5b60006121ad8482850161200c565b91505092915050565b6000806000604084860312156121cf576121ce613019565b5b60006121dd86828701611ff7565b935050602084013567ffffffffffffffff8111156121fe576121fd61300f565b5b61220a86828701611f73565b92509250509250925092565b6000806040838503121561222d5761222c613019565b5b600061223b85828601611ff7565b925050602083013567ffffffffffffffff81111561225c5761225b61300f565b5b61226885828601611fc9565b9150509250929050565b600061227e8383612708565b905092915050565b6000612292838361277e565b60208301905092915050565b6122a781612dc0565b82525050565b6122b681612dc0565b82525050565b60006122c782612bf2565b6122d18185612c52565b9350836020820285016122e385612bb3565b8060005b8581101561231f57848403895281516123008582612272565b945061230b83612c1e565b925060208a019950506001810190506122e7565b50829750879550505050505092915050565b61233a81612bfd565b6123448184612c63565b925061234f82612bc3565b8060005b838110156123805781516123678782612286565b965061237283612c2b565b925050600181019050612353565b505050505050565b60006123948385612c7f565b93507f07ffffffffffffffffffffffffffffffffffffffffffffffffffffffffffffff8311156123c7576123c6613014565b5b6020830292506123d8838584612e5d565b82840190509392505050565b60006123ef82612c08565b6123f98185612c6e565b935061240483612bcd565b8060005b8381101561243557815161241c8882612286565b975061242783612c38565b925050600181019050612408565b5085935050505092915050565b600061244d82612c08565b6124578185612c7f565b935061246283612bcd565b8060005b8381101561249357815161247a8882612286565b975061248583612c38565b925050600181019050612466565b5085935050505092915050565b60006124ab82612c13565b6124b58185612c7f565b93506124c083612bdd565b8060005b838110156124f8576124d582612fed565b6124df8882612286565b97506124ea83612c45565b9250506001810190506124c4565b5085935050505092915050565b61250e81612dd2565b82525050565b61251d81612dd2565b82525050565b61252c81612e15565b82525050565b61253b81612e27565b82525050565b600061254e601c83612c90565b91506125598261303c565b602082019050919050565b6000612571601a83612c90565b915061257c82613065565b602082019050919050565b6000612594601683612c90565b915061259f8261308e565b602082019050919050565b60006125b7602083612c90565b91506125c2826130b7565b602082019050919050565b60006125da600d83612c90565b91506125e5826130e0565b602082019050919050565b60006125fd602e83612c90565b915061260882613109565b604082019050919050565b6000612620601183612c90565b915061262b82613158565b602082019050919050565b6000612643601883612c90565b915061264e82613181565b602082019050919050565b6000612666600d83612c90565b9150612671826131aa565b602082019050919050565b6000612689600f83612c90565b9150612694826131d3565b602082019050919050565b60006126ac601d83612c90565b91506126b7826131fc565b602082019050919050565b60006126cf601483612c90565b91506126da82613225565b602082019050919050565b60006126f2601083612c90565b91506126fd8261324e565b602082019050919050565b600060a083016000830151612720600086018261277e565b506020830151612733602086018261277e565b506040830151612746604086018261229e565b506060830151848203606086015261275e82826123e4565b91505060808301516127736080860182612505565b508091505092915050565b61278781612dfe565b82525050565b61279681612dfe565b82525050565b60006020820190506127b160008301846122ad565b92915050565b600060208201905081810360008301526127d181846122bc565b905092915050565b600060c0820190506127ee6000830184612331565b92915050565b60006020820190506128096000830184612523565b92915050565b60006020820190506128246000830184612532565b92915050565b6000602082019050818103600083015261284381612541565b9050919050565b6000602082019050818103600083015261286381612564565b9050919050565b6000602082019050818103600083015261288381612587565b9050919050565b600060208201905081810360008301526128a3816125aa565b9050919050565b600060208201905081810360008301526128c3816125cd565b9050919050565b600060208201905081810360008301526128e3816125f0565b9050919050565b6000602082019050818103600083015261290381612613565b9050919050565b6000602082019050818103600083015261292381612636565b9050919050565b6000602082019050818103600083015261294381612659565b9050919050565b600060208201905081810360008301526129638161267c565b9050919050565b600060208201905081810360008301526129838161269f565b9050919050565b600060208201905081810360008301526129a3816126c2565b9050919050565b600060208201905081810360008301526129c3816126e5565b9050919050565b60006020820190506129df600083018461278d565b92915050565b60006060820190506129fa600083018761278d565b8181036020830152612a0d818587612388565b9050612a1c604083018461278d565b95945050505050565b6000606082019050612a3a600083018661278d565b8181036020830152612a4c81856124a0565b9050612a5b604083018461278d565b949350505050565b6000604082019050612a78600083018561278d565b612a85602083018461278d565b9392505050565b6000608082019050612aa1600083018761278d565b612aae602083018661278d565b612abb60408301856122ad565b612ac86060830184612514565b95945050505050565b6000608082019050612ae6600083018761278d565b612af3602083018661278d565b8181036040830152612b058185612442565b9050612b146060830184612514565b95945050505050565b6000608082019050612b32600083018761278d565b612b3f602083018661278d565b612b4c604083018561278d565b612b59606083018461278d565b95945050505050565b6000612b6c612b7d565b9050612b788282612e86565b919050565b6000604051905090565b600067ffffffffffffffff821115612ba257612ba1612fbe565b5b602082029050602081019050919050565b6000819050602082019050919050565b6000819050919050565b6000819050602082019050919050565b60008190508160005260206000209050919050565b600081519050919050565b600060069050919050565b600081519050919050565b600081549050919050565b6000602082019050919050565b6000602082019050919050565b6000602082019050919050565b6000600182019050919050565b600082825260208201905092915050565b600081905092915050565b600082825260208201905092915050565b600082825260208201905092915050565b600082825260208201905092915050565b6000612cac82612dfe565b9150612cb783612dfe565b9250827fffffffffffffffffffffffffffffffffffffffffffffffffffffffffffffffff03821115612cec57612ceb612f31565b5b828201905092915050565b6000612d0282612dfe565b9150612d0d83612dfe565b925082612d1d57612d1c612f60565b5b828204905092915050565b6000612d3382612dfe565b9150612d3e83612dfe565b9250817fffffffffffffffffffffffffffffffffffffffffffffffffffffffffffffffff0483118215151615612d7757612d76612f31565b5b828202905092915050565b6000612d8d82612dfe565b9150612d9883612dfe565b925082821015612dab57612daa612f31565b5b828203905092915050565b6000819050919050565b6000612dcb82612dde565b9050919050565b60008115159050919050565b600073ffffffffffffffffffffffffffffffffffffffff82169050919050565b6000819050919050565b600060ff82169050919050565b6000612e2082612e39565b9050919050565b6000612e3282612e08565b9050919050565b6000612e4482612e4b565b9050919050565b6000612e5682612dde565b9050919050565b82818337600083830152505050565b6000612e7f612e7a8361302f565b612db6565b9050919050565b612e8f8261301e565b810181811067ffffffffffffffff82111715612eae57612ead612fbe565b5b80604052505050565b6000612ec282612dfe565b91507fffffffffffffffffffffffffffffffffffffffffffffffffffffffffffffffff821415612ef557612ef4612f31565b5b600182019050919050565b6000612f0b82612dfe565b9150612f1683612dfe565b925082612f2657612f25612f60565b5b828206905092915050565b7f4e487b7100000000000000000000000000000000000000000000000000000000600052601160045260246000fd5b7f4e487b7100000000000000000000000000000000000000000000000000000000600052601260045260246000fd5b7f4e487b7100000000000000000000000000000000000000000000000000000000600052603260045260246000fd5b7f4e487b7100000000000000000000000000000000000000000000000000000000600052604160045260246000fd5b6000612ff98254612e6c565b9050919050565b600080fd5b600080fd5b600080fd5b600080fd5b600080fd5b600080fd5b6000601f19601f8301169050919050565b60008160001c9050919050565b7f52616e646f6d6e65737320616c72656164792066756c66696c6c656400000000600082015250565b7f4e6f7420416c6c6f7765642072616e646f6d50726f7669646572000000000000600082015250565b7f4c6976696e6720696e2074686520706173742062726f00000000000000000000600082015250565b7f4f6e6c792077696e206265742063757272656e746c7920737570706f72746564600082015250565b7f526163652066696e6973696e6700000000000000000000000000000000000000600082015250565b7f496e697469616c697a61626c653a20636f6e747261637420697320616c72656160008201527f647920696e697469616c697a6564000000000000000000000000000000000000602082015250565b7f52616365206e6f742066696e6973686564000000000000000000000000000000600082015250565b7f526573756c7420616c7265616479207265717565737465640000000000000000600082015250565b7f526163652066696e697368656400000000000000000000000000000000000000600082015250565b7f496e76616c696420726163652049440000000000000000000000000000000000600082015250565b7f5261636520726573756c7420616c72656164792066756c66696c6c6564000000600082015250565b7f52616365206973206e6f742066696e6973686564000000000000000000000000600082015250565b7f42657420616c7265616479207061696400000000000000000000000000000000600082015250565b61328081612dc0565b811461328b57600080fd5b50565b61329781612dfe565b81146132a257600080fd5b5056fea26469706673582212204d00ae86374368f6dfae5e769e0df2bf8e1edc8bb44b7d45680d8d4916aa9f2264736f6c63430008070033",
  "devdoc": {
    "kind": "dev",
    "methods": {},
    "title": "An betting game with exotic bet types",
    "version": 1
  },
  "userdoc": {
    "events": {
      "Payout(uint256,address,uint256,uint256[],uint256)": {
        "notice": "emitted when a bet is cashed out."
      },
      "RaceEnd(uint256,uint256,uint256)": {
        "notice": "emitted when a race ends."
      },
      "RaceStart(uint256,uint256)": {
        "notice": "emitted when a race starts."
      },
      "Wagered(uint256,address,uint256,uint256[],uint256)": {
        "notice": "emitted when a new bet is placed on a race."
      }
    },
    "kind": "user",
    "methods": {
      "bet(address,uint256)": {
        "notice": "mapping of address to list of bets."
      },
      "endRace(uint256,uint256[])": {
        "notice": "End the race and set the result."
      },
      "fee()": {
        "notice": "Fee paramaters."
      },
      "frequency()": {
        "notice": "How often races take place."
      },
      "nextRaceId()": {
        "notice": "The time of the next race to take place."
      },
      "odds(uint256,uint256[])": {
        "notice": "Get the current odds for a prediction."
      },
      "payout(uint256)": {
        "notice": "Cash out a winning bet."
      },
      "placeBet(uint256,uint256[])": {
        "notice": "Place a bet."
      },
      "race(uint256)": {
        "notice": "The state for each race."
      },
      "raceResult(uint256)": {
        "notice": "Return the results for a race."
      },
      "start()": {
        "notice": "The datetime of the first race."
      },
      "startRace(uint256)": {
        "notice": "Start the race and request result from VRF."
      },
      "userBet(address,uint256)": {
        "notice": "Returns a users bet with given id."
      },
      "userBetCount(address)": {
        "notice": "Return the amount of bets a user has made."
      }
    },
    "version": 1
  },
  "storageLayout": {
    "storage": [
      {
        "astId": 153,
        "contract": "contracts/Exotic.sol:Exotic",
        "label": "_initialized",
        "offset": 0,
        "slot": "0",
        "type": "t_uint8"
      },
      {
        "astId": 156,
        "contract": "contracts/Exotic.sol:Exotic",
        "label": "_initializing",
        "offset": 1,
        "slot": "0",
        "type": "t_bool"
      },
      {
        "astId": 677,
        "contract": "contracts/Exotic.sol:Exotic",
        "label": "randomProvider",
        "offset": 2,
        "slot": "0",
        "type": "t_contract(IRandomProvider)1829"
      },
      {
        "astId": 679,
        "contract": "contracts/Exotic.sol:Exotic",
        "label": "balance",
        "offset": 0,
        "slot": "1",
        "type": "t_uint256"
      },
      {
        "astId": 686,
        "contract": "contracts/Exotic.sol:Exotic",
        "label": "start",
        "offset": 0,
        "slot": "2",
        "type": "t_uint256"
      },
      {
        "astId": 689,
        "contract": "contracts/Exotic.sol:Exotic",
        "label": "fee",
        "offset": 0,
        "slot": "3",
        "type": "t_uint256"
      },
      {
        "astId": 691,
        "contract": "contracts/Exotic.sol:Exotic",
        "label": "jackpotContribution",
        "offset": 0,
        "slot": "4",
        "type": "t_uint256"
      },
      {
        "astId": 693,
        "contract": "contracts/Exotic.sol:Exotic",
        "label": "feeAddress",
        "offset": 0,
        "slot": "5",
        "type": "t_address"
      },
      {
        "astId": 695,
        "contract": "contracts/Exotic.sol:Exotic",
        "label": "jackpotAddress",
        "offset": 0,
        "slot": "6",
        "type": "t_address"
      },
      {
        "astId": 728,
        "contract": "contracts/Exotic.sol:Exotic",
        "label": "race",
        "offset": 0,
        "slot": "7",
        "type": "t_mapping(t_uint256,t_struct(Race)722_storage)"
      },
      {
        "astId": 735,
        "contract": "contracts/Exotic.sol:Exotic",
        "label": "bet",
        "offset": 0,
        "slot": "8",
        "type": "t_mapping(t_address,t_array(t_struct(Bet)707_storage)dyn_storage)"
      },
      {
        "astId": 740,
        "contract": "contracts/Exotic.sol:Exotic",
        "label": "requestIdRace",
        "offset": 0,
        "slot": "9",
        "type": "t_mapping(t_uint256,t_uint256)"
      }
    ],
    "types": {
      "t_address": {
        "encoding": "inplace",
        "label": "address",
        "numberOfBytes": "20"
      },
      "t_array(t_array(t_uint256)6_storage)3_storage": {
        "base": "t_array(t_uint256)6_storage",
        "encoding": "inplace",
        "label": "uint256[6][3]",
        "numberOfBytes": "576"
      },
      "t_array(t_struct(Bet)707_storage)dyn_storage": {
        "base": "t_struct(Bet)707_storage",
        "encoding": "dynamic_array",
        "label": "struct Exotic.Bet[]",
        "numberOfBytes": "32"
      },
      "t_array(t_uint256)6_storage": {
        "base": "t_uint256",
        "encoding": "inplace",
        "label": "uint256[6]",
        "numberOfBytes": "192"
      },
      "t_array(t_uint256)dyn_storage": {
        "base": "t_uint256",
        "encoding": "dynamic_array",
        "label": "uint256[]",
        "numberOfBytes": "32"
      },
      "t_bool": {
        "encoding": "inplace",
        "label": "bool",
        "numberOfBytes": "1"
      },
      "t_contract(IRandomProvider)1829": {
        "encoding": "inplace",
        "label": "contract IRandomProvider",
        "numberOfBytes": "20"
      },
      "t_mapping(t_address,t_array(t_struct(Bet)707_storage)dyn_storage)": {
        "encoding": "mapping",
        "key": "t_address",
        "label": "mapping(address => struct Exotic.Bet[])",
        "numberOfBytes": "32",
        "value": "t_array(t_struct(Bet)707_storage)dyn_storage"
      },
      "t_mapping(t_uint256,t_struct(Race)722_storage)": {
        "encoding": "mapping",
        "key": "t_uint256",
        "label": "mapping(uint256 => struct Exotic.Race)",
        "numberOfBytes": "32",
        "value": "t_struct(Race)722_storage"
      },
      "t_mapping(t_uint256,t_uint256)": {
        "encoding": "mapping",
        "key": "t_uint256",
        "label": "mapping(uint256 => uint256)",
        "numberOfBytes": "32",
        "value": "t_uint256"
      },
      "t_struct(Bet)707_storage": {
        "encoding": "inplace",
        "label": "struct Exotic.Bet",
        "members": [
          {
            "astId": 697,
            "contract": "contracts/Exotic.sol:Exotic",
            "label": "raceId",
            "offset": 0,
            "slot": "0",
            "type": "t_uint256"
          },
          {
            "astId": 699,
            "contract": "contracts/Exotic.sol:Exotic",
            "label": "amount",
            "offset": 0,
            "slot": "1",
            "type": "t_uint256"
          },
          {
            "astId": 701,
            "contract": "contracts/Exotic.sol:Exotic",
            "label": "account",
            "offset": 0,
            "slot": "2",
            "type": "t_address"
          },
          {
            "astId": 704,
            "contract": "contracts/Exotic.sol:Exotic",
            "label": "place",
            "offset": 0,
            "slot": "3",
            "type": "t_array(t_uint256)dyn_storage"
          },
          {
            "astId": 706,
            "contract": "contracts/Exotic.sol:Exotic",
            "label": "paid",
            "offset": 0,
            "slot": "4",
            "type": "t_bool"
          }
        ],
        "numberOfBytes": "160"
      },
      "t_struct(Race)722_storage": {
        "encoding": "inplace",
        "label": "struct Exotic.Race",
        "members": [
          {
            "astId": 709,
            "contract": "contracts/Exotic.sol:Exotic",
            "label": "totalWagered",
            "offset": 0,
            "slot": "0",
            "type": "t_uint256"
          },
          {
            "astId": 711,
            "contract": "contracts/Exotic.sol:Exotic",
            "label": "paid",
            "offset": 0,
            "slot": "1",
            "type": "t_uint256"
          },
          {
            "astId": 713,
            "contract": "contracts/Exotic.sol:Exotic",
            "label": "result",
            "offset": 0,
            "slot": "2",
            "type": "t_uint256"
          },
          {
            "astId": 715,
            "contract": "contracts/Exotic.sol:Exotic",
            "label": "requestId",
            "offset": 0,
            "slot": "3",
            "type": "t_uint256"
          },
          {
            "astId": 721,
            "contract": "contracts/Exotic.sol:Exotic",
            "label": "weights",
            "offset": 0,
            "slot": "4",
            "type": "t_array(t_array(t_uint256)6_storage)3_storage"
          }
        ],
        "numberOfBytes": "704"
      },
      "t_uint256": {
        "encoding": "inplace",
        "label": "uint256",
        "numberOfBytes": "32"
      },
      "t_uint8": {
        "encoding": "inplace",
        "label": "uint8",
        "numberOfBytes": "1"
      }
    }
  }
}