{
  "address": "0xDAEC50f3c30072B1F0A9295F5aedf3d0b6d81c89",
  "abi": [
    {
      "anonymous": false,
      "inputs": [
        {
          "indexed": false,
          "internalType": "uint8",
          "name": "version",
          "type": "uint8"
        }
      ],
      "name": "Initialized",
      "type": "event"
    },
    {
      "anonymous": false,
      "inputs": [
        {
          "indexed": false,
          "internalType": "uint256",
          "name": "maxBet",
          "type": "uint256"
        }
      ],
      "name": "MaxBetUpdated",
      "type": "event"
    },
    {
      "anonymous": false,
      "inputs": [
        {
          "indexed": true,
          "internalType": "address",
          "name": "previousOwner",
          "type": "address"
        },
        {
          "indexed": true,
          "internalType": "address",
          "name": "newOwner",
          "type": "address"
        }
      ],
      "name": "OwnershipTransferred",
      "type": "event"
    },
    {
      "anonymous": false,
      "inputs": [
        {
          "indexed": true,
          "internalType": "address",
          "name": "polAddress",
          "type": "address"
        }
      ],
      "name": "POLAddressUpdated",
      "type": "event"
    },
    {
      "anonymous": false,
      "inputs": [
        {
          "indexed": false,
          "internalType": "uint256",
          "name": "polFee",
          "type": "uint256"
        }
      ],
      "name": "POLFeeUpdated",
      "type": "event"
    },
    {
      "anonymous": false,
      "inputs": [
        {
          "indexed": true,
          "internalType": "uint64",
          "name": "rollId",
          "type": "uint64"
        },
        {
          "indexed": true,
          "internalType": "address",
          "name": "to",
          "type": "address"
        },
        {
          "indexed": false,
          "internalType": "uint256",
          "name": "amount",
          "type": "uint256"
        },
        {
          "indexed": false,
          "internalType": "uint8",
          "name": "prediction",
          "type": "uint8"
        },
        {
          "indexed": false,
          "internalType": "uint256",
          "name": "payout",
          "type": "uint256"
        }
      ],
      "name": "Payout",
      "type": "event"
    },
    {
      "anonymous": false,
      "inputs": [
        {
          "indexed": true,
          "internalType": "address",
          "name": "revenueAddress",
          "type": "address"
        }
      ],
      "name": "RevenueAddressUpdated",
      "type": "event"
    },
    {
      "anonymous": false,
      "inputs": [
        {
          "indexed": false,
          "internalType": "uint256",
          "name": "revenueFee",
          "type": "uint256"
        }
      ],
      "name": "RevenueFeeUpdated",
      "type": "event"
    },
    {
      "anonymous": false,
      "inputs": [
        {
          "indexed": true,
          "internalType": "address",
          "name": "rewarder",
          "type": "address"
        }
      ],
      "name": "RewarderUpdated",
      "type": "event"
    },
    {
      "anonymous": false,
      "inputs": [
        {
          "indexed": true,
          "internalType": "uint64",
          "name": "rollId",
          "type": "uint64"
        },
        {
          "indexed": false,
          "internalType": "uint256",
          "name": "totalValue",
          "type": "uint256"
        },
        {
          "indexed": false,
          "internalType": "uint256",
          "name": "result",
          "type": "uint256"
        }
      ],
      "name": "RollEnd",
      "type": "event"
    },
    {
      "anonymous": false,
      "inputs": [
        {
          "indexed": true,
          "internalType": "uint64",
          "name": "rollId",
          "type": "uint64"
        },
        {
          "indexed": false,
          "internalType": "uint256",
          "name": "totalValue",
          "type": "uint256"
        }
      ],
      "name": "RollStart",
      "type": "event"
    },
    {
      "anonymous": false,
      "inputs": [
        {
          "indexed": true,
          "internalType": "uint64",
          "name": "rollId",
          "type": "uint64"
        },
        {
          "indexed": true,
          "internalType": "address",
          "name": "from",
          "type": "address"
        },
        {
          "indexed": false,
          "internalType": "uint256",
          "name": "amount",
          "type": "uint256"
        },
        {
          "indexed": false,
          "internalType": "uint8",
          "name": "prediction",
          "type": "uint8"
        },
        {
          "indexed": false,
          "internalType": "uint256",
          "name": "poolTotal",
          "type": "uint256"
        }
      ],
      "name": "Wagered",
      "type": "event"
    },
    {
      "inputs": [
        {
          "internalType": "address",
          "name": "",
          "type": "address"
        },
        {
          "internalType": "uint256",
          "name": "",
          "type": "uint256"
        }
      ],
      "name": "bet",
      "outputs": [
        {
          "internalType": "uint256",
          "name": "amount",
          "type": "uint256"
        },
        {
          "internalType": "address",
          "name": "account",
          "type": "address"
        },
        {
          "internalType": "uint64",
          "name": "rollId",
          "type": "uint64"
        },
        {
          "internalType": "uint8",
          "name": "prediction",
          "type": "uint8"
        },
        {
          "internalType": "bool",
          "name": "paid",
          "type": "bool"
        }
      ],
      "stateMutability": "view",
      "type": "function"
    },
    {
      "inputs": [
        {
          "internalType": "address",
          "name": "user",
          "type": "address"
        },
        {
          "internalType": "uint64",
          "name": "rollId",
          "type": "uint64"
        }
      ],
      "name": "betsOnRoll",
      "outputs": [
        {
          "components": [
            {
              "internalType": "uint256",
              "name": "amount",
              "type": "uint256"
            },
            {
              "internalType": "address",
              "name": "account",
              "type": "address"
            },
            {
              "internalType": "uint64",
              "name": "rollId",
              "type": "uint64"
            },
            {
              "internalType": "uint8",
              "name": "prediction",
              "type": "uint8"
            },
            {
              "internalType": "bool",
              "name": "paid",
              "type": "bool"
            }
          ],
          "internalType": "struct Exotic.Bet[]",
          "name": "",
          "type": "tuple[]"
        }
      ],
      "stateMutability": "view",
      "type": "function"
    },
    {
      "inputs": [
        {
          "internalType": "uint256",
          "name": "",
          "type": "uint256"
        },
        {
          "internalType": "address",
          "name": "",
          "type": "address"
        },
        {
          "internalType": "uint256",
          "name": "",
          "type": "uint256"
        }
      ],
      "name": "betsPerRoll",
      "outputs": [
        {
          "internalType": "uint256",
          "name": "",
          "type": "uint256"
        }
      ],
      "stateMutability": "view",
      "type": "function"
    },
    {
      "inputs": [],
      "name": "currentRollId",
      "outputs": [
        {
          "internalType": "uint256",
          "name": "",
          "type": "uint256"
        }
      ],
      "stateMutability": "view",
      "type": "function"
    },
    {
      "inputs": [
        {
          "internalType": "uint64",
          "name": "rollId",
          "type": "uint64"
        }
      ],
      "name": "currentWeight",
      "outputs": [
        {
          "internalType": "uint256[6]",
          "name": "",
          "type": "uint256[6]"
        }
      ],
      "stateMutability": "view",
      "type": "function"
    },
    {
      "inputs": [
        {
          "internalType": "uint256",
          "name": "requestId",
          "type": "uint256"
        },
        {
          "internalType": "uint256[]",
          "name": "randomWords",
          "type": "uint256[]"
        }
      ],
      "name": "endRoll",
      "outputs": [],
      "stateMutability": "nonpayable",
      "type": "function"
    },
    {
      "inputs": [],
      "name": "frequency",
      "outputs": [
        {
          "internalType": "uint64",
          "name": "",
          "type": "uint64"
        }
      ],
      "stateMutability": "view",
      "type": "function"
    },
    {
      "inputs": [
        {
          "internalType": "address",
          "name": "_randomProviderAddress",
          "type": "address"
        },
        {
          "internalType": "uint256",
          "name": "_revenueFee",
          "type": "uint256"
        },
        {
          "internalType": "uint256",
          "name": "_polFee",
          "type": "uint256"
        },
        {
          "internalType": "address",
          "name": "_revenueAddress",
          "type": "address"
        },
        {
          "internalType": "address",
          "name": "_polAddress",
          "type": "address"
        },
        {
          "internalType": "uint256",
          "name": "_maxBet",
          "type": "uint256"
        },
        {
          "internalType": "uint64",
          "name": "_frequency",
          "type": "uint64"
        }
      ],
      "name": "initialize",
      "outputs": [],
      "stateMutability": "nonpayable",
      "type": "function"
    },
    {
      "inputs": [],
      "name": "maxBet",
      "outputs": [
        {
          "internalType": "uint256",
          "name": "",
          "type": "uint256"
        }
      ],
      "stateMutability": "view",
      "type": "function"
    },
    {
      "inputs": [],
      "name": "nextRollId",
      "outputs": [
        {
          "internalType": "uint256",
          "name": "",
          "type": "uint256"
        }
      ],
      "stateMutability": "view",
      "type": "function"
    },
    {
      "inputs": [
        {
          "internalType": "uint64",
          "name": "rollId",
          "type": "uint64"
        },
        {
          "internalType": "uint8",
          "name": "result",
          "type": "uint8"
        }
      ],
      "name": "odds",
      "outputs": [
        {
          "internalType": "uint256",
          "name": "",
          "type": "uint256"
        }
      ],
      "stateMutability": "view",
      "type": "function"
    },
    {
      "inputs": [],
      "name": "owner",
      "outputs": [
        {
          "internalType": "address",
          "name": "",
          "type": "address"
        }
      ],
      "stateMutability": "view",
      "type": "function"
    },
    {
      "inputs": [
        {
          "internalType": "uint256",
          "name": "betId",
          "type": "uint256"
        }
      ],
      "name": "payout",
      "outputs": [],
      "stateMutability": "nonpayable",
      "type": "function"
    },
    {
      "inputs": [
        {
          "internalType": "uint64",
          "name": "rollId",
          "type": "uint64"
        },
        {
          "internalType": "uint8",
          "name": "prediction",
          "type": "uint8"
        }
      ],
      "name": "placeBet",
      "outputs": [
        {
          "internalType": "uint256",
          "name": "betId",
          "type": "uint256"
        }
      ],
      "stateMutability": "payable",
      "type": "function"
    },
    {
      "inputs": [],
      "name": "polAddress",
      "outputs": [
        {
          "internalType": "address",
          "name": "",
          "type": "address"
        }
      ],
      "stateMutability": "view",
      "type": "function"
    },
    {
      "inputs": [],
      "name": "polFee",
      "outputs": [
        {
          "internalType": "uint256",
          "name": "",
          "type": "uint256"
        }
      ],
      "stateMutability": "view",
      "type": "function"
    },
    {
      "inputs": [],
      "name": "randomProvider",
      "outputs": [
        {
          "internalType": "contract IRandomProvider",
          "name": "",
          "type": "address"
        }
      ],
      "stateMutability": "view",
      "type": "function"
    },
    {
      "inputs": [],
      "name": "renounceOwnership",
      "outputs": [],
      "stateMutability": "nonpayable",
      "type": "function"
    },
    {
      "inputs": [],
      "name": "revenueAddress",
      "outputs": [
        {
          "internalType": "address",
          "name": "",
          "type": "address"
        }
      ],
      "stateMutability": "view",
      "type": "function"
    },
    {
      "inputs": [],
      "name": "revenueFee",
      "outputs": [
        {
          "internalType": "uint256",
          "name": "",
          "type": "uint256"
        }
      ],
      "stateMutability": "view",
      "type": "function"
    },
    {
      "inputs": [],
      "name": "rewarder",
      "outputs": [
        {
          "internalType": "contract IRewarder",
          "name": "",
          "type": "address"
        }
      ],
      "stateMutability": "view",
      "type": "function"
    },
    {
      "inputs": [
        {
          "internalType": "uint64",
          "name": "",
          "type": "uint64"
        }
      ],
      "name": "roll",
      "outputs": [
        {
          "internalType": "uint256",
          "name": "result",
          "type": "uint256"
        },
        {
          "internalType": "uint256",
          "name": "requestId",
          "type": "uint256"
        }
      ],
      "stateMutability": "view",
      "type": "function"
    },
    {
      "inputs": [
        {
          "internalType": "uint64",
          "name": "rollId",
          "type": "uint64"
        }
      ],
      "name": "rollResult",
      "outputs": [
        {
          "internalType": "uint256",
          "name": "",
          "type": "uint256"
        }
      ],
      "stateMutability": "view",
      "type": "function"
    },
    {
      "inputs": [],
      "name": "start",
      "outputs": [
        {
          "internalType": "uint256",
          "name": "",
          "type": "uint256"
        }
      ],
      "stateMutability": "view",
      "type": "function"
    },
    {
      "inputs": [
        {
          "internalType": "uint64",
          "name": "rollId",
          "type": "uint64"
        }
      ],
      "name": "startRoll",
      "outputs": [],
      "stateMutability": "nonpayable",
      "type": "function"
    },
    {
      "inputs": [
        {
          "internalType": "uint64",
          "name": "rollId",
          "type": "uint64"
        }
      ],
      "name": "totalWagered",
      "outputs": [
        {
          "internalType": "uint256",
          "name": "",
          "type": "uint256"
        }
      ],
      "stateMutability": "view",
      "type": "function"
    },
    {
      "inputs": [
        {
          "internalType": "address",
          "name": "newOwner",
          "type": "address"
        }
      ],
      "name": "transferOwnership",
      "outputs": [],
      "stateMutability": "nonpayable",
      "type": "function"
    },
    {
      "inputs": [
        {
          "internalType": "uint256",
          "name": "_maxBet",
          "type": "uint256"
        }
      ],
      "name": "updateMaxBet",
      "outputs": [],
      "stateMutability": "nonpayable",
      "type": "function"
    },
    {
      "inputs": [
        {
          "internalType": "address",
          "name": "_polAddress",
          "type": "address"
        }
      ],
      "name": "updatePOLAddress",
      "outputs": [],
      "stateMutability": "nonpayable",
      "type": "function"
    },
    {
      "inputs": [
        {
          "internalType": "uint256",
          "name": "_polFee",
          "type": "uint256"
        }
      ],
      "name": "updatePOLFee",
      "outputs": [],
      "stateMutability": "nonpayable",
      "type": "function"
    },
    {
      "inputs": [
        {
          "internalType": "address",
          "name": "_revenueAddress",
          "type": "address"
        }
      ],
      "name": "updateRevenueAddress",
      "outputs": [],
      "stateMutability": "nonpayable",
      "type": "function"
    },
    {
      "inputs": [
        {
          "internalType": "uint256",
          "name": "_revenueFee",
          "type": "uint256"
        }
      ],
      "name": "updateRevenueFee",
      "outputs": [],
      "stateMutability": "nonpayable",
      "type": "function"
    },
    {
      "inputs": [
        {
          "internalType": "contract IRewarder",
          "name": "_rewarder",
          "type": "address"
        }
      ],
      "name": "updateRewarder",
      "outputs": [],
      "stateMutability": "nonpayable",
      "type": "function"
    },
    {
      "inputs": [
        {
          "internalType": "address",
          "name": "user",
          "type": "address"
        },
        {
          "internalType": "uint256",
          "name": "betId",
          "type": "uint256"
        }
      ],
      "name": "userBet",
      "outputs": [
        {
          "components": [
            {
              "internalType": "uint256",
              "name": "amount",
              "type": "uint256"
            },
            {
              "internalType": "address",
              "name": "account",
              "type": "address"
            },
            {
              "internalType": "uint64",
              "name": "rollId",
              "type": "uint64"
            },
            {
              "internalType": "uint8",
              "name": "prediction",
              "type": "uint8"
            },
            {
              "internalType": "bool",
              "name": "paid",
              "type": "bool"
            }
          ],
          "internalType": "struct Exotic.Bet",
          "name": "",
          "type": "tuple"
        }
      ],
      "stateMutability": "view",
      "type": "function"
    },
    {
      "inputs": [
        {
          "internalType": "address",
          "name": "user",
          "type": "address"
        }
      ],
      "name": "userBetCount",
      "outputs": [
        {
          "internalType": "uint256",
          "name": "",
          "type": "uint256"
        }
      ],
      "stateMutability": "view",
      "type": "function"
    },
    {
      "inputs": [
        {
          "internalType": "uint64",
          "name": "rollId",
          "type": "uint64"
        },
        {
          "internalType": "address",
          "name": "user",
          "type": "address"
        },
        {
          "internalType": "uint256",
          "name": "betId",
          "type": "uint256"
        }
      ],
      "name": "userRollBet",
      "outputs": [
        {
          "components": [
            {
              "internalType": "uint256",
              "name": "amount",
              "type": "uint256"
            },
            {
              "internalType": "address",
              "name": "account",
              "type": "address"
            },
            {
              "internalType": "uint64",
              "name": "rollId",
              "type": "uint64"
            },
            {
              "internalType": "uint8",
              "name": "prediction",
              "type": "uint8"
            },
            {
              "internalType": "bool",
              "name": "paid",
              "type": "bool"
            }
          ],
          "internalType": "struct Exotic.Bet",
          "name": "",
          "type": "tuple"
        }
      ],
      "stateMutability": "view",
      "type": "function"
    },
    {
      "inputs": [
        {
          "internalType": "uint256",
          "name": "rollId",
          "type": "uint256"
        },
        {
          "internalType": "address",
          "name": "user",
          "type": "address"
        }
      ],
      "name": "userRollBetCount",
      "outputs": [
        {
          "internalType": "uint256",
          "name": "",
          "type": "uint256"
        }
      ],
      "stateMutability": "view",
      "type": "function"
    }
  ],
  "transactionHash": "0xdf5d97feccdb27b14faae3fd47188246083eb017dd9061e6abe2a017ff99c802",
  "args": [],
  "numDeployments": 2,
  "solcInputHash": "c53f447f6b80d100a7292ae349855711",
  "bytecode": "0x608060405234801561001057600080fd5b50612be1806100206000396000f3fe60806040526004361061026a5760003560e01c806397d1471411610153578063dcc3e06e116100cb578063f2fde38b1161007f578063f502925411610064578063f50292541461072a578063f846cabc1461074a578063fdd28859146107ad57600080fd5b8063f2fde38b146106d4578063f408a23a146106f457600080fd5b8063ea1e302d116100b0578063ea1e302d14610660578063ead50da314610673578063ecc02438146106b457600080fd5b8063dcc3e06e14610620578063e11523431461064057600080fd5b8063af3645c411610122578063be9a655511610107578063be9a6555146105ca578063cfb125cd146105e0578063d613b60d1461060057600080fd5b8063af3645c41461058a578063b410908d146105aa57600080fd5b806397d147141461050a578063a1aa2b5b1461052a578063a55cd51c1461054a578063a655f29e1461056a57600080fd5b806346b697fe116101e65780636589a9e2116101b557806372b51dfa1161019a57806372b51dfa1461048b5780638da5cb5b146104b85780638f46500e146104ea57600080fd5b80636589a9e214610456578063715018a61461047657600080fd5b806346b697fe1461039457806356127634146103d7578063591378c4146103f757806361684d011461044057600080fd5b80632e5b21681161023d57806338b5be4b1161022257806338b5be4b146103275780633969f803146103475780634195ab8e1461036757600080fd5b80632e5b2168146102fb57806336e4ec641461031157600080fd5b8063164b4f621461026f578063165f1125146102975780631b9632ac146102b95780631d147211146102e6575b600080fd5b34801561027b57600080fd5b506102846107cd565b6040519081526020015b60405180910390f35b3480156102a357600080fd5b506102b76102b2366004612827565b61081b565b005b3480156102c557600080fd5b506102d96102d4366004612758565b610985565b60405161028e9190612973565b3480156102f257600080fd5b50610284610b72565b34801561030757600080fd5b50610284606b5481565b34801561031d57600080fd5b5061028460675481565b34801561033357600080fd5b506102b76103423660046128f8565b610b9d565b34801561035357600080fd5b506102846103623660046128f8565b610dc6565b34801561037357600080fd5b506103876103823660046126b5565b610e92565b60405161028e9190612a35565b3480156103a057600080fd5b506102846103af3660046127bf565b60009182526070602090815260408084206001600160a01b0393909316845291905290205490565b3480156103e357600080fd5b506102846103f23660046127ef565b610f58565b34801561040357600080fd5b5061042b6104123660046128f8565b606d602052600090815260409020805460019091015482565b6040805192835260208301919091520161028e565b34801561044c57600080fd5b5061028460685481565b34801561046257600080fd5b50610284610471366004612941565b610f96565b34801561048257600080fd5b506102b76110ab565b34801561049757600080fd5b506104ab6104a63660046128f8565b611111565b60405161028e9190612a04565b3480156104c457600080fd5b506033546001600160a01b03165b6040516001600160a01b03909116815260200161028e565b3480156104f657600080fd5b506065546104d2906001600160a01b031681565b34801561051657600080fd5b506102b7610525366004612698565b61116b565b34801561053657600080fd5b506102846105453660046128f8565b61120f565b34801561055657600080fd5b506102b761056536600461278d565b6113a2565b34801561057657600080fd5b506102b761058536600461278d565b611438565b34801561059657600080fd5b506102b76105a5366004612698565b6114c7565b3480156105b657600080fd5b506069546104d2906001600160a01b031681565b3480156105d657600080fd5b5061028460665481565b3480156105ec57600080fd5b50606a546104d2906001600160a01b031681565b34801561060c57600080fd5b506102b761061b36600461278d565b6115c1565b34801561062c57600080fd5b50606c546104d2906001600160a01b031681565b34801561064c57600080fd5b506102b761065b36600461278d565b611650565b61028461066e366004612941565b611894565b34801561067f57600080fd5b5060655461069b90600160a01b900467ffffffffffffffff1681565b60405167ffffffffffffffff909116815260200161028e565b3480156106c057600080fd5b506102b76106cf3660046126e1565b611e1e565b3480156106e057600080fd5b506102b76106ef366004612698565b611f1b565b34801561070057600080fd5b5061028461070f366004612698565b6001600160a01b03166000908152606e602052604090205490565b34801561073657600080fd5b50610387610745366004612913565b611ffd565b34801561075657600080fd5b5061076a6107653660046126b5565b6120fe565b604080519586526001600160a01b03909416602086015267ffffffffffffffff9092169284019290925260ff90911660608301521515608082015260a00161028e565b3480156107b957600080fd5b506102b76107c8366004612698565b61216a565b6065546000906107ee90600160a01b900467ffffffffffffffff1642612b03565b60655461080c9190600160a01b900467ffffffffffffffff16612ad1565b6108169042612a86565b905090565b6065546001600160a01b0316331461087a5760405162461bcd60e51b815260206004820152601a60248201527f4e6f7420416c6c6f7765642072616e646f6d50726f766964657200000000000060448201526064015b60405180910390fd5b6000828152606f602090815260408083205467ffffffffffffffff16808452606d9092529091208054156108f05760405162461bcd60e51b815260206004820152601c60248201527f52616e646f6d6e65737320616c72656164792066756c66696c6c6564000000006044820152606401610871565b8260008151811061090357610903612b6a565b6020908102919091010151815567ffffffffffffffff82167f3f1673b2a61754bec64f37e8beeb0597773dcf48b3fa582f30c64878fdf1f60661094584610dc6565b8560008151811061095857610958612b6a565b6020026020010151604051610977929190918252602082015260400190565b60405180910390a250505050565b67ffffffffffffffff811660009081526070602090815260408083206001600160a01b038616845282528083208054825181850281018501909352808352606094938301828280156109f657602002820191906000526020600020905b8154815260200190600101908083116109e2575b50505050509050600080825167ffffffffffffffff811115610a1a57610a1a612b80565b604051908082528060200260200182016040528015610a7357816020015b6040805160a081018252600080825260208083018290529282018190526060820181905260808201528252600019909201910181610a385790505b509050600091505b8251821015610b67576001600160a01b0386166000908152606e602052604090208351849084908110610ab057610ab0612b6a565b602002602001015181548110610ac857610ac8612b6a565b60009182526020918290206040805160a081018252600290930290910180548352600101546001600160a01b0381169383019390935267ffffffffffffffff600160a01b8404169082015260ff600160e01b830481166060830152600160e81b909204909116151560808201528151829084908110610b4957610b49612b6a565b60200260200101819052508180610b5f90612ae8565b925050610a7b565b925050505b92915050565b606554600090610b9390600160a01b900467ffffffffffffffff1642612b03565b6108169042612ad1565b610ba681612264565b8067ffffffffffffffff164211610bff5760405162461bcd60e51b815260206004820152601160248201527f526f6c6c206e6f742066696e69736865640000000000000000000000000000006044820152606401610871565b67ffffffffffffffff81166000908152606d60205260409020600181015415610c6a5760405162461bcd60e51b815260206004820152601860248201527f526573756c7420616c72656164792072657175657374656400000000000000006044820152606401610871565b805415610cb95760405162461bcd60e51b815260206004820152601d60248201527f526f6c6c20726573756c7420616c72656164792066756c66696c6c65640000006044820152606401610871565b606554604080517fe0c8628900000000000000000000000000000000000000000000000000000000815290516000926001600160a01b03169163e0c8628991600480830192602092919082900301818787803b158015610d1857600080fd5b505af1158015610d2c573d6000803e3d6000fd5b505050506040513d601f19601f82011682018060405250810190610d5091906127a6565b600183018190556000818152606f60205260409020805467ffffffffffffffff191667ffffffffffffffff86169081179091559091507f6abbcac270a7e73b86c89e6e279a18fd9b2946513a3feecb3e960b07de1a20ec610db085610dc6565b60405190815260200160405180910390a2505050565b67ffffffffffffffff81166000908152606d60209081526040808320815160608101835281548152600182015493810193909352815160c0810180845285949384019190600284019060069082845b815481526020019060010190808311610e15575050509190925250505060408181015160a08101516080820151606083015193830151602084015193519596509194909392610e6391612a86565b610e6d9190612a86565b610e779190612a86565b610e819190612a86565b610e8b9190612a86565b9392505050565b6040805160a0810182526000808252602080830182905282840182905260608301829052608083018290526001600160a01b0386168252606e905291909120805483908110610ee357610ee3612b6a565b60009182526020918290206040805160a081018252600290930290910180548352600101546001600160a01b0381169383019390935267ffffffffffffffff600160a01b8404169082015260ff600160e01b830481166060830152600160e81b90920490911615156080820152905092915050565b60706020528260005260406000206020528160005260406000208181548110610f8057600080fd5b9060005260206000200160009250925050505481565b67ffffffffffffffff82166000908152606d60209081526040808320815160608101835281548152600182015493810193909352815160c0810180845285949384019190600284019060069082845b815481526020019060010190808311610fe557505050505081525050905060068360ff16106110565760405162461bcd60e51b815260206004820181905260248201527f4f6e6c792077696e206265742063757272656e746c7920737570706f727465646044820152606401610871565b600061106185610dc6565b90508061107357600092505050610b6c565b8082604001518560ff166006811061108d5761108d612b6a565b60200201516110a1906402540be400612ab2565b610b679190612a9e565b6033546001600160a01b031633146111055760405162461bcd60e51b815260206004820181905260248201527f4f776e61626c653a2063616c6c6572206973206e6f7420746865206f776e65726044820152606401610871565b61110f60006123f5565b565b611119612662565b67ffffffffffffffff82166000908152606d602052604090819020815160c0810190925260020160068282826020028201915b81548152602001906001019080831161114c5750505050509050919050565b6033546001600160a01b031633146111c55760405162461bcd60e51b815260206004820181905260248201527f4f776e61626c653a2063616c6c6572206973206e6f7420746865206f776e65726044820152606401610871565b606c80546001600160a01b0319166001600160a01b0383169081179091556040517f47c9042c3be42a955f60f9b75006522826af1a3bed83e26646997d3bcccda77c90600090a250565b67ffffffffffffffff81166000908152606d60209081526040808320815160608101835281548152600182015493810193909352815160c0810180845285949384019190600284019060069082845b81548152602001906001019080831161125e575050509190925250508151919250506112cc5760405162461bcd60e51b815260206004820152601460248201527f526f6c6c206973206e6f742066696e69736865640000000000000000000000006044820152606401610871565b6000805b600682101561131257826040015182600681106112ef576112ef612b6a565b60200201516112fe9082612a86565b90508161130a81612ae8565b9250506112d0565b6000808285600001516113259190612b03565b9050600093505b600684101561139857808560400151856006811061134c5761134c612b6a565b6020020151111561135f57839150611398565b8460400151846006811061137557611375612b6a565b60200201516113849082612ad1565b90508361139081612ae8565b94505061132c565b5095945050505050565b6033546001600160a01b031633146113fc5760405162461bcd60e51b815260206004820181905260248201527f4f776e61626c653a2063616c6c6572206973206e6f7420746865206f776e65726044820152606401610871565b606b8190556040518181527f2b47c83dfa951a422411b397c029d005c87d9fa8fe9f6d2bc2620c23e5e00312906020015b60405180910390a150565b6033546001600160a01b031633146114925760405162461bcd60e51b815260206004820181905260248201527f4f776e61626c653a2063616c6c6572206973206e6f7420746865206f776e65726044820152606401610871565b60678190556040518181527f14a368a696aca40efd280b31b2896f421c8a75eb772f8de1731eb220735395c69060200161142d565b6033546001600160a01b031633146115215760405162461bcd60e51b815260206004820181905260248201527f4f776e61626c653a2063616c6c6572206973206e6f7420746865206f776e65726044820152606401610871565b6001600160a01b0381166115775760405162461bcd60e51b815260206004820152601660248201527f46656520616464726573732063616e27742062652030000000000000000000006044820152606401610871565b606a80546001600160a01b0319166001600160a01b0383169081179091556040517f5dc8a57b462a8fae72fded55639269f100cfd12e046986a8ef490d56d5edcbf790600090a250565b6033546001600160a01b0316331461161b5760405162461bcd60e51b815260206004820181905260248201527f4f776e61626c653a2063616c6c6572206973206e6f7420746865206f776e65726044820152606401610871565b60688190556040518181527f9afc1b03107862b2aabd5adaf9bf3a6c054623803995901416d64d2ac86ed01d9060200161142d565b336000908152606e6020526040812080548390811061167157611671612b6a565b6000918252602080832060016002909302019182015467ffffffffffffffff600160a01b909104168352606d905260409091208054919250906116f65760405162461bcd60e51b815260206004820152601160248201527f526f6c6c206e6f742066696e69736865640000000000000000000000000000006044820152606401610871565b6001820154600160e81b900460ff16156117525760405162461bcd60e51b815260206004820152601060248201527f42657420616c72656164792070616964000000000000000000000000000000006044820152606401610871565b600182015460009061177490600160a01b900467ffffffffffffffff1661120f565b6001840154909150600160e01b900460ff1681146117925750505050565b60018301546000906117bf90600160a01b810467ffffffffffffffff1690600160e01b900460ff16610f96565b905060008185600001546402540be4006117d99190612ab2565b6117e39190612a9e565b600186018054600160e81b60ff60e81b19909116179081905586546040805191825260ff600160e01b840416602083015281018390529192503391600160a01b90910467ffffffffffffffff16907ff4580f306b5592ada5d2370389f5afc4e6abbd1783abb1d65443df7d28be8c819060600160405180910390a3604051339082156108fc029083906000818181858888f1935050505015801561188b573d6000803e3d6000fd5b50505050505050565b6065546000906118b590600160a01b900467ffffffffffffffff1684612b17565b67ffffffffffffffff161561190c5760405162461bcd60e51b815260206004820152600f60248201527f496e76616c696420726f6c6c20494400000000000000000000000000000000006044820152606401610871565b67ffffffffffffffff83166000908152606d602052604090206001810154156119675760405162461bcd60e51b815260206004820152600d60248201526c526f6c6c2066696e6973696e6760981b6044820152606401610871565b60068360ff16106119ba5760405162461bcd60e51b815260206004820152601460248201527f4f6e6c792036206661636573206f6620646963650000000000000000000000006044820152606401610871565b6000612710606754346119cd9190612ab2565b6119d79190612a9e565b90506000612710606854346119ec9190612ab2565b6119f69190612a9e565b90506000611a048284612a86565b611a0e9034612ad1565b9050606b54811115611a625760405162461bcd60e51b815260206004820152601660248201527f4265742061626f7665206d6178426574206c696d6974000000000000000000006044820152606401610871565b6040805160a08101825282815233602080830182815267ffffffffffffffff808d1685870190815260ff808e1660608801908152600060808901818152888252606e88529981208054600181810183558284529883208b5160029092020190815596519688018054955193519b511515600160e81b0260ff60e81b199c909516600160e01b029b909b167fffff0000ffffffffffffffffffffffffffffffffffffffffffffffffffffffff93909616600160a01b027fffffffff000000000000000000000000000000000000000000000000000000009095166001600160a01b0397909716969096179390931716929092179190911790955591909352549091611b6b91612ad1565b955081856002018860ff1660068110611b8657611b86612b6a565b016000828254611b969190612a86565b909155505067ffffffffffffffff881660008181526070602090815260408083203380855290835290832080546001810182559084529190922001889055907f4ca8370402b96db401bce3c1e5c223107a1184f0e382b37d73b5f3f3766b6a48848a611c018d610dc6565b6040805193845260ff90921660208401529082015260600160405180910390a3428867ffffffffffffffff161015611c3c57611c3c88610b9d565b606c546001600160a01b031615611cca57606c546040517f9feb8f500000000000000000000000000000000000000000000000000000000081523360048201523460248201526001600160a01b0390911690639feb8f5090604401600060405180830381600087803b158015611cb157600080fd5b505af1158015611cc5573d6000803e3d6000fd5b505050505b606a546040516000916001600160a01b03169085908381818185875af1925050503d8060008114611d17576040519150601f19603f3d011682016040523d82523d6000602084013e611d1c565b606091505b5050905080611d6d5760405162461bcd60e51b815260206004820152601060248201527f504f4c20466565206e6f742073656e74000000000000000000000000000000006044820152606401610871565b6069546040516001600160a01b03909116908690600081818185875af1925050503d8060008114611dba576040519150601f19603f3d011682016040523d82523d6000602084013e611dbf565b606091505b50508091505080611e125760405162461bcd60e51b815260206004820152601460248201527f526576656e756520466565206e6f742073656e740000000000000000000000006044820152606401610871565b50505050505092915050565b6000611e2a6001612447565b90508015611e42576000805461ff0019166101001790555b426066556065805460678990556068889055606980546001600160a01b038981166001600160a01b031992831617909255606a80548984169216919091179055606b86905567ffffffffffffffff8516600160a01b027fffffffff00000000000000000000000000000000000000000000000000000000909216908b1617179055611ecb612580565b8015611f11576000805461ff0019169055604051600181527f7f26b83ff96e1f2b6a682f133852f6798a09c465da95921460cefb38474024989060200160405180910390a15b5050505050505050565b6033546001600160a01b03163314611f755760405162461bcd60e51b815260206004820181905260248201527f4f776e61626c653a2063616c6c6572206973206e6f7420746865206f776e65726044820152606401610871565b6001600160a01b038116611ff15760405162461bcd60e51b815260206004820152602660248201527f4f776e61626c653a206e6577206f776e657220697320746865207a65726f206160448201527f64647265737300000000000000000000000000000000000000000000000000006064820152608401610871565b611ffa816123f5565b50565b6040805160a0810182526000808252602080830182905282840182905260608301829052608083018290526001600160a01b038616808352606e825284832067ffffffffffffffff8916845260708352858420918452915292902080549192918490811061206d5761206d612b6a565b90600052602060002001548154811061208857612088612b6a565b60009182526020918290206040805160a081018252600290930290910180548352600101546001600160a01b0381169383019390935267ffffffffffffffff600160a01b8404169082015260ff600160e01b830481166060830152600160e81b9092049091161515608082015290509392505050565b606e602052816000526040600020818154811061211a57600080fd5b6000918252602090912060029091020180546001909101549092506001600160a01b038116915067ffffffffffffffff600160a01b8204169060ff600160e01b8204811691600160e81b90041685565b6033546001600160a01b031633146121c45760405162461bcd60e51b815260206004820181905260248201527f4f776e61626c653a2063616c6c6572206973206e6f7420746865206f776e65726044820152606401610871565b6001600160a01b03811661221a5760405162461bcd60e51b815260206004820152601660248201527f46656520616464726573732063616e27742062652030000000000000000000006044820152606401610871565b606980546001600160a01b0319166001600160a01b0383169081179091556040517f12c87c4c1bec313f335ef0060b241de51ec549e8c57a25aae98da2ad10837cde90600090a250565b60655461228290600160a01b900467ffffffffffffffff1682612b17565b67ffffffffffffffff16156122d95760405162461bcd60e51b815260206004820152600f60248201527f496e76616c696420726f6c6c20494400000000000000000000000000000000006044820152606401610871565b6066548167ffffffffffffffff1610156123355760405162461bcd60e51b815260206004820152601660248201527f4c6976696e6720696e2074686520706173742062726f000000000000000000006044820152606401610871565b67ffffffffffffffff81166000908152606d60205260409020541561239c5760405162461bcd60e51b815260206004820152600d60248201527f526f6c6c2066696e6973686564000000000000000000000000000000000000006044820152606401610871565b67ffffffffffffffff8082166000908152606f60205260409020541615611ffa5760405162461bcd60e51b815260206004820152600d60248201526c526f6c6c2066696e6973696e6760981b6044820152606401610871565b603380546001600160a01b038381166001600160a01b0319831681179093556040519116919082907f8be0079c531659141344cd1fd0a4f28419497f9722a3daafe3b4186f6b6457e090600090a35050565b60008054610100900460ff16156124e4578160ff16600114801561246a5750303b155b6124dc5760405162461bcd60e51b815260206004820152602e60248201527f496e697469616c697a61626c653a20636f6e747261637420697320616c72656160448201527f647920696e697469616c697a65640000000000000000000000000000000000006064820152608401610871565b506000919050565b60005460ff8084169116106125615760405162461bcd60e51b815260206004820152602e60248201527f496e697469616c697a61626c653a20636f6e747261637420697320616c72656160448201527f647920696e697469616c697a65640000000000000000000000000000000000006064820152608401610871565b506000805460ff191660ff92909216919091179055600190565b919050565b600054610100900460ff166125eb5760405162461bcd60e51b815260206004820152602b60248201527f496e697469616c697a61626c653a20636f6e7472616374206973206e6f74206960448201526a6e697469616c697a696e6760a81b6064820152608401610871565b61110f600054610100900460ff166126595760405162461bcd60e51b815260206004820152602b60248201527f496e697469616c697a61626c653a20636f6e7472616374206973206e6f74206960448201526a6e697469616c697a696e6760a81b6064820152608401610871565b61110f336123f5565b6040518060c001604052806006906020820280368337509192915050565b803567ffffffffffffffff8116811461257b57600080fd5b6000602082840312156126aa57600080fd5b8135610e8b81612b96565b600080604083850312156126c857600080fd5b82356126d381612b96565b946020939093013593505050565b600080600080600080600060e0888a0312156126fc57600080fd5b873561270781612b96565b96506020880135955060408801359450606088013561272581612b96565b9350608088013561273581612b96565b925060a0880135915061274a60c08901612680565b905092959891949750929550565b6000806040838503121561276b57600080fd5b823561277681612b96565b915061278460208401612680565b90509250929050565b60006020828403121561279f57600080fd5b5035919050565b6000602082840312156127b857600080fd5b5051919050565b600080604083850312156127d257600080fd5b8235915060208301356127e481612b96565b809150509250929050565b60008060006060848603121561280457600080fd5b83359250602084013561281681612b96565b929592945050506040919091013590565b6000806040838503121561283a57600080fd5b8235915060208084013567ffffffffffffffff8082111561285a57600080fd5b818601915086601f83011261286e57600080fd5b81358181111561288057612880612b80565b8060051b604051601f19603f830116810181811085821117156128a5576128a5612b80565b604052828152858101935084860182860187018b10156128c457600080fd5b600095505b838610156128e75780358552600195909501949386019386016128c9565b508096505050505050509250929050565b60006020828403121561290a57600080fd5b610e8b82612680565b60008060006060848603121561292857600080fd5b61293184612680565b9250602084013561281681612b96565b6000806040838503121561295457600080fd5b61295d83612680565b9150602083013560ff811681146127e457600080fd5b6020808252825182820181905260009190848201906040850190845b818110156129f8576129e5838551805182526001600160a01b03602082015116602083015267ffffffffffffffff604082015116604083015260ff60608201511660608301526080810151151560808301525050565b9284019260a0929092019160010161298f565b50909695505050505050565b60c08101818360005b6006811015612a2c578151835260209283019290910190600101612a0d565b50505092915050565b60a08101610b6c8284805182526001600160a01b03602082015116602083015267ffffffffffffffff604082015116604083015260ff60608201511660608301526080810151151560808301525050565b60008219821115612a9957612a99612b3e565b500190565b600082612aad57612aad612b54565b500490565b6000816000190483118215151615612acc57612acc612b3e565b500290565b600082821015612ae357612ae3612b3e565b500390565b6000600019821415612afc57612afc612b3e565b5060010190565b600082612b1257612b12612b54565b500690565b600067ffffffffffffffff80841680612b3257612b32612b54565b92169190910692915050565b634e487b7160e01b600052601160045260246000fd5b634e487b7160e01b600052601260045260246000fd5b634e487b7160e01b600052603260045260246000fd5b634e487b7160e01b600052604160045260246000fd5b6001600160a01b0381168114611ffa57600080fdfea2646970667358221220625c2d54e879355918d2c4ed2c6bf77fbd874d179a8bc7d292901862d1e3144164736f6c63430008070033",
  "devdoc": {
    "kind": "dev",
    "methods": {
      "owner()": {
        "details": "Returns the address of the current owner."
      },
      "renounceOwnership()": {
        "details": "Leaves the contract without owner. It will not be possible to call `onlyOwner` functions anymore. Can only be called by the current owner. NOTE: Renouncing ownership will leave the contract without an owner, thereby removing any functionality that is only available to the owner."
      },
      "transferOwnership(address)": {
        "details": "Transfers ownership of the contract to a new account (`newOwner`). Can only be called by the current owner."
      }
    },
    "title": "An betting game with exotic bet types",
    "version": 1
  },
  "userdoc": {
    "events": {
      "Payout(uint64,address,uint256,uint8,uint256)": {
        "notice": "emitted when a bet is cashed out."
      },
      "RollEnd(uint64,uint256,uint256)": {
        "notice": "emitted when a roll ends."
      },
      "RollStart(uint64,uint256)": {
        "notice": "emitted when a roll starts."
      },
      "Wagered(uint64,address,uint256,uint8,uint256)": {
        "notice": "emitted when a new bet is placed on a role."
      }
    },
    "kind": "user",
    "methods": {
      "bet(address,uint256)": {
        "notice": "mapping of address to list of bets."
      },
      "endRoll(uint256,uint256[])": {
        "notice": "End the roll and set the result."
      },
      "frequency()": {
        "notice": "How often rolls take place."
      },
      "nextRollId()": {
        "notice": "The time of the next roll to take place."
      },
      "odds(uint64,uint8)": {
        "notice": "Get the current odds for a prediction."
      },
      "payout(uint256)": {
        "notice": "Cash out a winning bet."
      },
      "placeBet(uint64,uint8)": {
        "notice": "Place a bet."
      },
      "revenueFee()": {
        "notice": "Fee paramaters."
      },
      "roll(uint64)": {
        "notice": "The state for each roll."
      },
      "rollResult(uint64)": {
        "notice": "Return the results for a roll."
      },
      "start()": {
        "notice": "The datetime of the first roll."
      },
      "startRoll(uint64)": {
        "notice": "Start the roll and request result from VRF."
      },
      "userBet(address,uint256)": {
        "notice": "returns a users bet with given id."
      },
      "userBetCount(address)": {
        "notice": "Return the amount of bets a user has made."
      }
    },
    "version": 1
  },
  "storageLayout": {
    "storage": [
      {
        "astId": 277,
        "contract": "contracts/Exotic.sol:Exotic",
        "label": "_initialized",
        "offset": 0,
        "slot": "0",
        "type": "t_uint8"
      },
      {
        "astId": 280,
        "contract": "contracts/Exotic.sol:Exotic",
        "label": "_initializing",
        "offset": 1,
        "slot": "0",
        "type": "t_bool"
      },
      {
        "astId": 696,
        "contract": "contracts/Exotic.sol:Exotic",
        "label": "__gap",
        "offset": 0,
        "slot": "1",
        "type": "t_array(t_uint256)50_storage"
      },
      {
        "astId": 157,
        "contract": "contracts/Exotic.sol:Exotic",
        "label": "_owner",
        "offset": 0,
        "slot": "51",
        "type": "t_address"
      },
      {
        "astId": 269,
        "contract": "contracts/Exotic.sol:Exotic",
        "label": "__gap",
        "offset": 0,
        "slot": "52",
        "type": "t_array(t_uint256)49_storage"
      },
      {
        "astId": 3660,
        "contract": "contracts/Exotic.sol:Exotic",
        "label": "randomProvider",
        "offset": 0,
        "slot": "101",
        "type": "t_contract(IRandomProvider)6296"
      },
      {
        "astId": 3663,
        "contract": "contracts/Exotic.sol:Exotic",
        "label": "frequency",
        "offset": 20,
        "slot": "101",
        "type": "t_uint64"
      },
      {
        "astId": 3666,
        "contract": "contracts/Exotic.sol:Exotic",
        "label": "start",
        "offset": 0,
        "slot": "102",
        "type": "t_uint256"
      },
      {
        "astId": 3669,
        "contract": "contracts/Exotic.sol:Exotic",
        "label": "revenueFee",
        "offset": 0,
        "slot": "103",
        "type": "t_uint256"
      },
      {
        "astId": 3671,
        "contract": "contracts/Exotic.sol:Exotic",
        "label": "polFee",
        "offset": 0,
        "slot": "104",
        "type": "t_uint256"
      },
      {
        "astId": 3673,
        "contract": "contracts/Exotic.sol:Exotic",
        "label": "revenueAddress",
        "offset": 0,
        "slot": "105",
        "type": "t_address"
      },
      {
        "astId": 3675,
        "contract": "contracts/Exotic.sol:Exotic",
        "label": "polAddress",
        "offset": 0,
        "slot": "106",
        "type": "t_address"
      },
      {
        "astId": 3677,
        "contract": "contracts/Exotic.sol:Exotic",
        "label": "maxBet",
        "offset": 0,
        "slot": "107",
        "type": "t_uint256"
      },
      {
        "astId": 3680,
        "contract": "contracts/Exotic.sol:Exotic",
        "label": "rewarder",
        "offset": 0,
        "slot": "108",
        "type": "t_contract(IRewarder)6316"
      },
      {
        "astId": 3706,
        "contract": "contracts/Exotic.sol:Exotic",
        "label": "roll",
        "offset": 0,
        "slot": "109",
        "type": "t_mapping(t_uint64,t_struct(Roll)3700_storage)"
      },
      {
        "astId": 3713,
        "contract": "contracts/Exotic.sol:Exotic",
        "label": "bet",
        "offset": 0,
        "slot": "110",
        "type": "t_mapping(t_address,t_array(t_struct(Bet)3691_storage)dyn_storage)"
      },
      {
        "astId": 3718,
        "contract": "contracts/Exotic.sol:Exotic",
        "label": "requestIdRoll",
        "offset": 0,
        "slot": "111",
        "type": "t_mapping(t_uint256,t_uint64)"
      },
      {
        "astId": 3725,
        "contract": "contracts/Exotic.sol:Exotic",
        "label": "betsPerRoll",
        "offset": 0,
        "slot": "112",
        "type": "t_mapping(t_uint256,t_mapping(t_address,t_array(t_uint256)dyn_storage))"
      }
    ],
    "types": {
      "t_address": {
        "encoding": "inplace",
        "label": "address",
        "numberOfBytes": "20"
      },
      "t_array(t_struct(Bet)3691_storage)dyn_storage": {
        "base": "t_struct(Bet)3691_storage",
        "encoding": "dynamic_array",
        "label": "struct Exotic.Bet[]",
        "numberOfBytes": "32"
      },
      "t_array(t_uint256)49_storage": {
        "base": "t_uint256",
        "encoding": "inplace",
        "label": "uint256[49]",
        "numberOfBytes": "1568"
      },
      "t_array(t_uint256)50_storage": {
        "base": "t_uint256",
        "encoding": "inplace",
        "label": "uint256[50]",
        "numberOfBytes": "1600"
      },
      "t_array(t_uint256)6_storage": {
        "base": "t_uint256",
        "encoding": "inplace",
        "label": "uint256[6]",
        "numberOfBytes": "192"
      },
      "t_array(t_uint256)dyn_storage": {
        "base": "t_uint256",
        "encoding": "dynamic_array",
        "label": "uint256[]",
        "numberOfBytes": "32"
      },
      "t_bool": {
        "encoding": "inplace",
        "label": "bool",
        "numberOfBytes": "1"
      },
      "t_contract(IRandomProvider)6296": {
        "encoding": "inplace",
        "label": "contract IRandomProvider",
        "numberOfBytes": "20"
      },
      "t_contract(IRewarder)6316": {
        "encoding": "inplace",
        "label": "contract IRewarder",
        "numberOfBytes": "20"
      },
      "t_mapping(t_address,t_array(t_struct(Bet)3691_storage)dyn_storage)": {
        "encoding": "mapping",
        "key": "t_address",
        "label": "mapping(address => struct Exotic.Bet[])",
        "numberOfBytes": "32",
        "value": "t_array(t_struct(Bet)3691_storage)dyn_storage"
      },
      "t_mapping(t_address,t_array(t_uint256)dyn_storage)": {
        "encoding": "mapping",
        "key": "t_address",
        "label": "mapping(address => uint256[])",
        "numberOfBytes": "32",
        "value": "t_array(t_uint256)dyn_storage"
      },
      "t_mapping(t_uint256,t_mapping(t_address,t_array(t_uint256)dyn_storage))": {
        "encoding": "mapping",
        "key": "t_uint256",
        "label": "mapping(uint256 => mapping(address => uint256[]))",
        "numberOfBytes": "32",
        "value": "t_mapping(t_address,t_array(t_uint256)dyn_storage)"
      },
      "t_mapping(t_uint256,t_uint64)": {
        "encoding": "mapping",
        "key": "t_uint256",
        "label": "mapping(uint256 => uint64)",
        "numberOfBytes": "32",
        "value": "t_uint64"
      },
      "t_mapping(t_uint64,t_struct(Roll)3700_storage)": {
        "encoding": "mapping",
        "key": "t_uint64",
        "label": "mapping(uint64 => struct Exotic.Roll)",
        "numberOfBytes": "32",
        "value": "t_struct(Roll)3700_storage"
      },
      "t_struct(Bet)3691_storage": {
        "encoding": "inplace",
        "label": "struct Exotic.Bet",
        "members": [
          {
            "astId": 3682,
            "contract": "contracts/Exotic.sol:Exotic",
            "label": "amount",
            "offset": 0,
            "slot": "0",
            "type": "t_uint256"
          },
          {
            "astId": 3684,
            "contract": "contracts/Exotic.sol:Exotic",
            "label": "account",
            "offset": 0,
            "slot": "1",
            "type": "t_address"
          },
          {
            "astId": 3686,
            "contract": "contracts/Exotic.sol:Exotic",
            "label": "rollId",
            "offset": 20,
            "slot": "1",
            "type": "t_uint64"
          },
          {
            "astId": 3688,
            "contract": "contracts/Exotic.sol:Exotic",
            "label": "prediction",
            "offset": 28,
            "slot": "1",
            "type": "t_uint8"
          },
          {
            "astId": 3690,
            "contract": "contracts/Exotic.sol:Exotic",
            "label": "paid",
            "offset": 29,
            "slot": "1",
            "type": "t_bool"
          }
        ],
        "numberOfBytes": "64"
      },
      "t_struct(Roll)3700_storage": {
        "encoding": "inplace",
        "label": "struct Exotic.Roll",
        "members": [
          {
            "astId": 3693,
            "contract": "contracts/Exotic.sol:Exotic",
            "label": "result",
            "offset": 0,
            "slot": "0",
            "type": "t_uint256"
          },
          {
            "astId": 3695,
            "contract": "contracts/Exotic.sol:Exotic",
            "label": "requestId",
            "offset": 0,
            "slot": "1",
            "type": "t_uint256"
          },
          {
            "astId": 3699,
            "contract": "contracts/Exotic.sol:Exotic",
            "label": "winWeights",
            "offset": 0,
            "slot": "2",
            "type": "t_array(t_uint256)6_storage"
          }
        ],
        "numberOfBytes": "256"
      },
      "t_uint256": {
        "encoding": "inplace",
        "label": "uint256",
        "numberOfBytes": "32"
      },
      "t_uint64": {
        "encoding": "inplace",
        "label": "uint64",
        "numberOfBytes": "8"
      },
      "t_uint8": {
        "encoding": "inplace",
        "label": "uint8",
        "numberOfBytes": "1"
      }
    }
  }
}