{
  "address": "0x0B9fE743EE3DEC246F7dF2332131D4D51837c631",
  "abi": [
    {
      "anonymous": false,
      "inputs": [
        {
          "indexed": false,
          "internalType": "uint8",
          "name": "version",
          "type": "uint8"
        }
      ],
      "name": "Initialized",
      "type": "event"
    },
    {
      "anonymous": false,
      "inputs": [
        {
          "indexed": false,
          "internalType": "uint256",
          "name": "maxBet",
          "type": "uint256"
        }
      ],
      "name": "MaxBetUpdated",
      "type": "event"
    },
    {
      "anonymous": false,
      "inputs": [
        {
          "indexed": true,
          "internalType": "address",
          "name": "previousOwner",
          "type": "address"
        },
        {
          "indexed": true,
          "internalType": "address",
          "name": "newOwner",
          "type": "address"
        }
      ],
      "name": "OwnershipTransferred",
      "type": "event"
    },
    {
      "anonymous": false,
      "inputs": [
        {
          "indexed": true,
          "internalType": "address",
          "name": "feeAddress",
          "type": "address"
        }
      ],
      "name": "POLAddressUpdated",
      "type": "event"
    },
    {
      "anonymous": false,
      "inputs": [
        {
          "indexed": false,
          "internalType": "uint256",
          "name": "fee",
          "type": "uint256"
        }
      ],
      "name": "POLFeeUpdated",
      "type": "event"
    },
    {
      "anonymous": false,
      "inputs": [
        {
          "indexed": true,
          "internalType": "uint256",
          "name": "raceId",
          "type": "uint256"
        },
        {
          "indexed": true,
          "internalType": "address",
          "name": "to",
          "type": "address"
        },
        {
          "indexed": false,
          "internalType": "uint256",
          "name": "amount",
          "type": "uint256"
        },
        {
          "indexed": false,
          "internalType": "uint256[]",
          "name": "prediction",
          "type": "uint256[]"
        },
        {
          "indexed": false,
          "internalType": "uint256",
          "name": "payout",
          "type": "uint256"
        }
      ],
      "name": "Payout",
      "type": "event"
    },
    {
      "anonymous": false,
      "inputs": [
        {
          "indexed": true,
          "internalType": "uint256",
          "name": "raceId",
          "type": "uint256"
        },
        {
          "indexed": false,
          "internalType": "uint256",
          "name": "totalValue",
          "type": "uint256"
        },
        {
          "indexed": false,
          "internalType": "uint256",
          "name": "result",
          "type": "uint256"
        }
      ],
      "name": "RaceEnd",
      "type": "event"
    },
    {
      "anonymous": false,
      "inputs": [
        {
          "indexed": true,
          "internalType": "uint256",
          "name": "raceId",
          "type": "uint256"
        },
        {
          "indexed": false,
          "internalType": "uint256",
          "name": "totalValue",
          "type": "uint256"
        }
      ],
      "name": "RaceStart",
      "type": "event"
    },
    {
      "anonymous": false,
      "inputs": [
        {
          "indexed": true,
          "internalType": "address",
          "name": "feeAddress",
          "type": "address"
        }
      ],
      "name": "RevenueAddressUpdated",
      "type": "event"
    },
    {
      "anonymous": false,
      "inputs": [
        {
          "indexed": false,
          "internalType": "uint256",
          "name": "fee",
          "type": "uint256"
        }
      ],
      "name": "RevenueFeeUpdated",
      "type": "event"
    },
    {
      "anonymous": false,
      "inputs": [
        {
          "indexed": true,
          "internalType": "uint256",
          "name": "raceId",
          "type": "uint256"
        },
        {
          "indexed": true,
          "internalType": "address",
          "name": "from",
          "type": "address"
        },
        {
          "indexed": false,
          "internalType": "uint256",
          "name": "amount",
          "type": "uint256"
        },
        {
          "indexed": false,
          "internalType": "uint256[]",
          "name": "prediction",
          "type": "uint256[]"
        },
        {
          "indexed": false,
          "internalType": "uint256",
          "name": "poolTotal",
          "type": "uint256"
        }
      ],
      "name": "Wagered",
      "type": "event"
    },
    {
      "inputs": [
        {
          "internalType": "address",
          "name": "",
          "type": "address"
        },
        {
          "internalType": "uint256",
          "name": "",
          "type": "uint256"
        }
      ],
      "name": "bet",
      "outputs": [
        {
          "internalType": "uint256",
          "name": "raceId",
          "type": "uint256"
        },
        {
          "internalType": "uint256",
          "name": "amount",
          "type": "uint256"
        },
        {
          "internalType": "address",
          "name": "account",
          "type": "address"
        },
        {
          "internalType": "bool",
          "name": "paid",
          "type": "bool"
        }
      ],
      "stateMutability": "view",
      "type": "function"
    },
    {
      "inputs": [
        {
          "internalType": "uint256",
          "name": "requestId",
          "type": "uint256"
        },
        {
          "internalType": "uint256[]",
          "name": "randomWords",
          "type": "uint256[]"
        }
      ],
      "name": "endRace",
      "outputs": [],
      "stateMutability": "nonpayable",
      "type": "function"
    },
    {
      "inputs": [],
      "name": "fee",
      "outputs": [
        {
          "internalType": "uint256",
          "name": "",
          "type": "uint256"
        }
      ],
      "stateMutability": "view",
      "type": "function"
    },
    {
      "inputs": [],
      "name": "feeAddress",
      "outputs": [
        {
          "internalType": "address",
          "name": "",
          "type": "address"
        }
      ],
      "stateMutability": "view",
      "type": "function"
    },
    {
      "inputs": [],
      "name": "frequency",
      "outputs": [
        {
          "internalType": "uint256",
          "name": "",
          "type": "uint256"
        }
      ],
      "stateMutability": "view",
      "type": "function"
    },
    {
      "inputs": [
        {
          "internalType": "address",
          "name": "_randomProviderAddress",
          "type": "address"
        },
        {
          "internalType": "uint256",
          "name": "_fee",
          "type": "uint256"
        },
        {
          "internalType": "uint256",
          "name": "_jackpotContribution",
          "type": "uint256"
        },
        {
          "internalType": "address",
          "name": "_feeAddress",
          "type": "address"
        },
        {
          "internalType": "address",
          "name": "_jackpotAddress",
          "type": "address"
        },
        {
          "internalType": "uint256",
          "name": "_maxBet",
          "type": "uint256"
        }
      ],
      "name": "initialize",
      "outputs": [],
      "stateMutability": "nonpayable",
      "type": "function"
    },
    {
      "inputs": [],
      "name": "jackpotAddress",
      "outputs": [
        {
          "internalType": "address",
          "name": "",
          "type": "address"
        }
      ],
      "stateMutability": "view",
      "type": "function"
    },
    {
      "inputs": [],
      "name": "jackpotContribution",
      "outputs": [
        {
          "internalType": "uint256",
          "name": "",
          "type": "uint256"
        }
      ],
      "stateMutability": "view",
      "type": "function"
    },
    {
      "inputs": [],
      "name": "maxBet",
      "outputs": [
        {
          "internalType": "uint256",
          "name": "",
          "type": "uint256"
        }
      ],
      "stateMutability": "view",
      "type": "function"
    },
    {
      "inputs": [],
      "name": "nextRaceId",
      "outputs": [
        {
          "internalType": "uint256",
          "name": "",
          "type": "uint256"
        }
      ],
      "stateMutability": "view",
      "type": "function"
    },
    {
      "inputs": [
        {
          "internalType": "uint256",
          "name": "raceId",
          "type": "uint256"
        },
        {
          "internalType": "uint256[]",
          "name": "result",
          "type": "uint256[]"
        }
      ],
      "name": "odds",
      "outputs": [
        {
          "internalType": "uint256",
          "name": "",
          "type": "uint256"
        }
      ],
      "stateMutability": "view",
      "type": "function"
    },
    {
      "inputs": [],
      "name": "owner",
      "outputs": [
        {
          "internalType": "address",
          "name": "",
          "type": "address"
        }
      ],
      "stateMutability": "view",
      "type": "function"
    },
    {
      "inputs": [
        {
          "internalType": "uint256",
          "name": "betId",
          "type": "uint256"
        }
      ],
      "name": "payout",
      "outputs": [],
      "stateMutability": "nonpayable",
      "type": "function"
    },
    {
      "inputs": [
        {
          "internalType": "uint256",
          "name": "raceId",
          "type": "uint256"
        },
        {
          "internalType": "uint256[]",
          "name": "prediction",
          "type": "uint256[]"
        }
      ],
      "name": "placeBet",
      "outputs": [
        {
          "internalType": "uint256",
          "name": "betId",
          "type": "uint256"
        }
      ],
      "stateMutability": "payable",
      "type": "function"
    },
    {
      "inputs": [
        {
          "internalType": "uint256",
          "name": "",
          "type": "uint256"
        }
      ],
      "name": "race",
      "outputs": [
        {
          "internalType": "uint256",
          "name": "totalWagered",
          "type": "uint256"
        },
        {
          "internalType": "uint256",
          "name": "paid",
          "type": "uint256"
        },
        {
          "internalType": "uint256",
          "name": "result",
          "type": "uint256"
        },
        {
          "internalType": "uint256",
          "name": "requestId",
          "type": "uint256"
        }
      ],
      "stateMutability": "view",
      "type": "function"
    },
    {
      "inputs": [
        {
          "internalType": "uint256",
          "name": "raceId",
          "type": "uint256"
        }
      ],
      "name": "raceResult",
      "outputs": [
        {
          "internalType": "uint256[6]",
          "name": "",
          "type": "uint256[6]"
        }
      ],
      "stateMutability": "view",
      "type": "function"
    },
    {
      "inputs": [],
      "name": "randomProvider",
      "outputs": [
        {
          "internalType": "contract IRandomProvider",
          "name": "",
          "type": "address"
        }
      ],
      "stateMutability": "view",
      "type": "function"
    },
    {
      "inputs": [],
      "name": "renounceOwnership",
      "outputs": [],
      "stateMutability": "nonpayable",
      "type": "function"
    },
    {
      "inputs": [],
      "name": "start",
      "outputs": [
        {
          "internalType": "uint256",
          "name": "",
          "type": "uint256"
        }
      ],
      "stateMutability": "view",
      "type": "function"
    },
    {
      "inputs": [
        {
          "internalType": "uint256",
          "name": "raceId",
          "type": "uint256"
        }
      ],
      "name": "startRace",
      "outputs": [],
      "stateMutability": "nonpayable",
      "type": "function"
    },
    {
      "inputs": [
        {
          "internalType": "address",
          "name": "newOwner",
          "type": "address"
        }
      ],
      "name": "transferOwnership",
      "outputs": [],
      "stateMutability": "nonpayable",
      "type": "function"
    },
    {
      "inputs": [
        {
          "internalType": "uint256",
          "name": "_maxBet",
          "type": "uint256"
        }
      ],
      "name": "updateMaxBet",
      "outputs": [],
      "stateMutability": "nonpayable",
      "type": "function"
    },
    {
      "inputs": [
        {
          "internalType": "address",
          "name": "_feeAddress",
          "type": "address"
        }
      ],
      "name": "updatePOLAddress",
      "outputs": [],
      "stateMutability": "nonpayable",
      "type": "function"
    },
    {
      "inputs": [
        {
          "internalType": "uint256",
          "name": "_fee",
          "type": "uint256"
        }
      ],
      "name": "updatePOLFee",
      "outputs": [],
      "stateMutability": "nonpayable",
      "type": "function"
    },
    {
      "inputs": [
        {
          "internalType": "address",
          "name": "_feeAddress",
          "type": "address"
        }
      ],
      "name": "updateRevenueAddress",
      "outputs": [],
      "stateMutability": "nonpayable",
      "type": "function"
    },
    {
      "inputs": [
        {
          "internalType": "uint256",
          "name": "_fee",
          "type": "uint256"
        }
      ],
      "name": "updateRevenueFee",
      "outputs": [],
      "stateMutability": "nonpayable",
      "type": "function"
    },
    {
      "inputs": [
        {
          "internalType": "address",
          "name": "user",
          "type": "address"
        },
        {
          "internalType": "uint256",
          "name": "betId",
          "type": "uint256"
        }
      ],
      "name": "userBet",
      "outputs": [
        {
          "components": [
            {
              "internalType": "uint256",
              "name": "raceId",
              "type": "uint256"
            },
            {
              "internalType": "uint256",
              "name": "amount",
              "type": "uint256"
            },
            {
              "internalType": "address",
              "name": "account",
              "type": "address"
            },
            {
              "internalType": "uint256[]",
              "name": "place",
              "type": "uint256[]"
            },
            {
              "internalType": "bool",
              "name": "paid",
              "type": "bool"
            }
          ],
          "internalType": "struct Exotic.Bet",
          "name": "",
          "type": "tuple"
        }
      ],
      "stateMutability": "view",
      "type": "function"
    },
    {
      "inputs": [
        {
          "internalType": "address",
          "name": "user",
          "type": "address"
        }
      ],
      "name": "userBetCount",
      "outputs": [
        {
          "internalType": "uint256",
          "name": "",
          "type": "uint256"
        }
      ],
      "stateMutability": "view",
      "type": "function"
    }
  ],
  "transactionHash": "0xa8ace01e07f97c2b202ffbac8473d33e6109fa8082671537816708f97f914fa9",
  "args": [],
  "numDeployments": 3,
  "solcInputHash": "068fc57f28087f220a3525f030aa019a",
  "bytecode": "0x608060405234801561001057600080fd5b50613af0806100206000396000f3fe6080604052600436106101b75760003560e01c8063b71455ee116100ec578063ddca3f431161008a578063f2fde38b11610064578063f2fde38b146105f0578063f408a23a14610619578063f846cabc14610656578063fdd2885914610696576101b7565b8063ddca3f4314610571578063e11523431461059c578063ead50da3146105c5576101b7565b8063d149221b116100c6578063d149221b146104b5578063d613b60d146104f2578063d8595d861461051b578063d9b8fd8f14610546576101b7565b8063b71455ee1461040d578063b7dda85e1461044a578063be9a65551461048a576101b7565b80636bc0b3ba116101595780638f46500e116101335780638f46500e14610367578063a55cd51c14610392578063a655f29e146103bb578063af3645c4146103e4576101b7565b80636bc0b3ba146102fa578063715018a6146103255780638da5cb5b1461033c576101b7565b806330d146551161019557806330d1465514610239578063315aa38c1461026957806341275358146102925780634195ab8e146102bd576101b7565b8063122d2d96146101bc57806324d822bf146101e55780632e5b21681461020e575b600080fd5b3480156101c857600080fd5b506101e360048036038101906101de91906127e8565b6106bf565b005b3480156101f157600080fd5b5061020c60048036038101906102079190612875565b610838565b005b34801561021a57600080fd5b50610223610a3a565b604051610230919061314b565b60405180910390f35b610253600480360381019061024e91906128cf565b610a40565b604051610260919061314b565b60405180910390f35b34801561027557600080fd5b50610290600480360381019061028b919061292f565b610fae565b005b34801561029e57600080fd5b506102a7611135565b6040516102b49190612e7d565b60405180910390f35b3480156102c957600080fd5b506102e460048036038101906102df91906127a8565b61115b565b6040516102f19190613129565b60405180910390f35b34801561030657600080fd5b5061030f6112b2565b60405161031c9190612e7d565b60405180910390f35b34801561033157600080fd5b5061033a6112d8565b005b34801561034857600080fd5b50610351611360565b60405161035e9190612e7d565b60405180910390f35b34801561037357600080fd5b5061037c61138a565b6040516103899190612eb3565b60405180910390f35b34801561039e57600080fd5b506103b960048036038101906103b49190612875565b6113b0565b005b3480156103c757600080fd5b506103e260048036038101906103dd9190612875565b61146f565b005b3480156103f057600080fd5b5061040b6004803603810190610406919061277b565b61152c565b005b34801561041957600080fd5b50610434600480360381019061042f9190612875565b61169f565b6040516104419190612e98565b60405180910390f35b34801561045657600080fd5b50610471600480360381019061046c9190612875565b611884565b6040516104819493929190613252565b60405180910390f35b34801561049657600080fd5b5061049f6118b4565b6040516104ac919061314b565b60405180910390f35b3480156104c157600080fd5b506104dc60048036038101906104d7919061292f565b6118ba565b6040516104e9919061314b565b60405180910390f35b3480156104fe57600080fd5b5061051960048036038101906105149190612875565b611a4d565b005b34801561052757600080fd5b50610530611b0a565b60405161053d919061314b565b60405180910390f35b34801561055257600080fd5b5061055b611b10565b604051610568919061314b565b60405180910390f35b34801561057d57600080fd5b50610586611b3b565b604051610593919061314b565b60405180910390f35b3480156105a857600080fd5b506105c360048036038101906105be9190612875565b611b41565b005b3480156105d157600080fd5b506105da611e5e565b6040516105e7919061314b565b60405180910390f35b3480156105fc57600080fd5b506106176004803603810190610612919061277b565b611e63565b005b34801561062557600080fd5b50610640600480360381019061063b919061277b565b611f5b565b60405161064d919061314b565b60405180910390f35b34801561066257600080fd5b5061067d600480360381019061067891906127a8565b611fa7565b60405161068d949392919061320d565b60405180910390f35b3480156106a257600080fd5b506106bd60048036038101906106b8919061277b565b612021565b005b60006106cb6001612194565b905080156106ef576001600060016101000a81548160ff0219169083151502179055505b4260678190555086606560006101000a81548173ffffffffffffffffffffffffffffffffffffffff021916908373ffffffffffffffffffffffffffffffffffffffff160217905550856068819055508460698190555083606a60006101000a81548173ffffffffffffffffffffffffffffffffffffffff021916908373ffffffffffffffffffffffffffffffffffffffff16021790555082606b60006101000a81548173ffffffffffffffffffffffffffffffffffffffff021916908373ffffffffffffffffffffffffffffffffffffffff16021790555081606c819055506107d6612284565b801561082f5760008060016101000a81548160ff0219169083151502179055507f7f26b83ff96e1f2b6a682f133852f6798a09c465da95921460cefb384740249860016040516108269190612ece565b60405180910390a15b50505050505050565b610841816122dd565b60b48161084e919061339d565b421161088f576040517f08c379a000000000000000000000000000000000000000000000000000000000815260040161088690613009565b60405180910390fd5b6000606d6000838152602001908152602001600020905060008160030154146108ed576040517f08c379a00000000000000000000000000000000000000000000000000000000081526004016108e490613049565b60405180910390fd5b6000816002015414610934576040517f08c379a000000000000000000000000000000000000000000000000000000000815260040161092b906130a9565b60405180910390fd5b6000606560009054906101000a900473ffffffffffffffffffffffffffffffffffffffff1673ffffffffffffffffffffffffffffffffffffffff1663e0c862896040518163ffffffff1660e01b8152600401602060405180830381600087803b1580156109a057600080fd5b505af11580156109b4573d6000803e3d6000fd5b505050506040513d601f19601f820116820180604052508101906109d891906128a2565b905080826003018190555082606f600083815260200190815260200160002081905550827f727aed3ef5e1b948e78407c8b942fb3193ebc5901b4bc951faa6568c90b78495606654604051610a2d919061314b565b60405180910390a2505050565b606c5481565b6000610a4b846122dd565b60018383905014610a91576040517f08c379a0000000000000000000000000000000000000000000000000000000008152600401610a8890612fa9565b60405180910390fd5b600061271060685434610aa49190613424565b610aae91906133f3565b9050600061271060695434610ac39190613424565b610acd91906133f3565b905060008183610add919061339d565b34610ae8919061347e565b9050606c54811115610b2f576040517f08c379a0000000000000000000000000000000000000000000000000000000008152600401610b2690612f09565b60405180910390fd5b610b37612575565b878160000181815250508181602001818152505033816040019073ffffffffffffffffffffffffffffffffffffffff16908173ffffffffffffffffffffffffffffffffffffffff1681525050606e60003373ffffffffffffffffffffffffffffffffffffffff1673ffffffffffffffffffffffffffffffffffffffff168152602001908152602001600020819080600181540180825580915050600190039060005260206000209060050201600090919091909150600082015181600001556020820151816001015560408201518160020160006101000a81548173ffffffffffffffffffffffffffffffffffffffff021916908373ffffffffffffffffffffffffffffffffffffffff1602179055506060820151816003019080519060200190610c639291906125bc565b5060808201518160040160006101000a81548160ff0219169083151502179055505050606e60003373ffffffffffffffffffffffffffffffffffffffff1673ffffffffffffffffffffffffffffffffffffffff1681526020019081526020016000206001606e60003373ffffffffffffffffffffffffffffffffffffffff1673ffffffffffffffffffffffffffffffffffffffff16815260200190815260200160002080549050610d14919061347e565b81548110610d2557610d2461368b565b5b906000526020600020906005020160030187876000818110610d4a57610d4961368b565b5b9050602002013590806001815401808255809150506001900390600052602060002001600090919091909150556000606d60008a81526020019081526020016000209050828160040189896000818110610da757610da661368b565b5b9050602002013560068110610dbf57610dbe61368b565b5b016000828254610dcf919061339d565b9250508190555082816000016000828254610dea919061339d565b925050819055508260666000828254610e03919061339d565b925050819055503373ffffffffffffffffffffffffffffffffffffffff16897fed7146643be17948fcb4400f9980c37ef3404baf91823ef51782e2c6673266f6858b8b606654604051610e599493929190613166565b60405180910390a34260b48a610e6f919061339d565b1015610e7f57610e7e89610838565b5b606a60009054906101000a900473ffffffffffffffffffffffffffffffffffffffff1673ffffffffffffffffffffffffffffffffffffffff166108fc869081150290604051600060405180830381858888f19350505050158015610ee7573d6000803e3d6000fd5b50606b60009054906101000a900473ffffffffffffffffffffffffffffffffffffffff1673ffffffffffffffffffffffffffffffffffffffff166108fc859081150290604051600060405180830381858888f19350505050158015610f50573d6000803e3d6000fd5b506001606e60003373ffffffffffffffffffffffffffffffffffffffff1673ffffffffffffffffffffffffffffffffffffffff16815260200190815260200160002080549050610fa0919061347e565b955050505050509392505050565b606560009054906101000a900473ffffffffffffffffffffffffffffffffffffffff1673ffffffffffffffffffffffffffffffffffffffff163373ffffffffffffffffffffffffffffffffffffffff161461103e576040517f08c379a000000000000000000000000000000000000000000000000000000000815260040161103590612f49565b60405180910390fd5b6000606f60008481526020019081526020016000205490506000606d6000838152602001908152602001600020905060008160020154146110b4576040517f08c379a00000000000000000000000000000000000000000000000000000000081526004016110ab90612ee9565b60405180910390fd5b826000815181106110c8576110c761368b565b5b60200260200101518160020181905550817f7554ff21c11af92d9ed24a3625daa96a85ebe3a0a3c44c44cb080cb400c42d98606654856000815181106111115761111061368b565b5b60200260200101516040516111279291906131e4565b60405180910390a250505050565b606a60009054906101000a900473ffffffffffffffffffffffffffffffffffffffff1681565b611163612575565b606e60008473ffffffffffffffffffffffffffffffffffffffff1673ffffffffffffffffffffffffffffffffffffffff16815260200190815260200160002082815481106111b4576111b361368b565b5b90600052602060002090600502016040518060a001604052908160008201548152602001600182015481526020016002820160009054906101000a900473ffffffffffffffffffffffffffffffffffffffff1673ffffffffffffffffffffffffffffffffffffffff1673ffffffffffffffffffffffffffffffffffffffff1681526020016003820180548060200260200160405190810160405280929190818152602001828054801561128657602002820191906000526020600020905b815481526020019060010190808311611272575b505050505081526020016004820160009054906101000a900460ff161515151581525050905092915050565b606b60009054906101000a900473ffffffffffffffffffffffffffffffffffffffff1681565b6112e0612423565b73ffffffffffffffffffffffffffffffffffffffff166112fe611360565b73ffffffffffffffffffffffffffffffffffffffff1614611354576040517f08c379a000000000000000000000000000000000000000000000000000000000815260040161134b90613029565b60405180910390fd5b61135e600061242b565b565b6000603360009054906101000a900473ffffffffffffffffffffffffffffffffffffffff16905090565b606560009054906101000a900473ffffffffffffffffffffffffffffffffffffffff1681565b6113b8612423565b73ffffffffffffffffffffffffffffffffffffffff166113d6611360565b73ffffffffffffffffffffffffffffffffffffffff161461142c576040517f08c379a000000000000000000000000000000000000000000000000000000000815260040161142390613029565b60405180910390fd5b80606c819055507f2b47c83dfa951a422411b397c029d005c87d9fa8fe9f6d2bc2620c23e5e00312606c54604051611464919061314b565b60405180910390a150565b611477612423565b73ffffffffffffffffffffffffffffffffffffffff16611495611360565b73ffffffffffffffffffffffffffffffffffffffff16146114eb576040517f08c379a00000000000000000000000000000000000000000000000000000000081526004016114e290613029565b60405180910390fd5b806068819055507f14a368a696aca40efd280b31b2896f421c8a75eb772f8de1731eb220735395c681604051611521919061314b565b60405180910390a150565b611534612423565b73ffffffffffffffffffffffffffffffffffffffff16611552611360565b73ffffffffffffffffffffffffffffffffffffffff16146115a8576040517f08c379a000000000000000000000000000000000000000000000000000000000815260040161159f90613029565b60405180910390fd5b600073ffffffffffffffffffffffffffffffffffffffff168173ffffffffffffffffffffffffffffffffffffffff161415611618576040517f08c379a000000000000000000000000000000000000000000000000000000000815260040161160f90612f89565b60405180910390fd5b80606b60006101000a81548173ffffffffffffffffffffffffffffffffffffffff021916908373ffffffffffffffffffffffffffffffffffffffff1602179055508073ffffffffffffffffffffffffffffffffffffffff167f5dc8a57b462a8fae72fded55639269f100cfd12e046986a8ef490d56d5edcbf760405160405180910390a250565b6116a7612609565b6000606d60008481526020019081526020016000206040518060a0016040529081600082015481526020016001820154815260200160028201548152602001600382015481526020016004820160068060200260405190810160405280929190826006801561172b576020028201915b815481526020019060010190808311611717575b505050505081525050905060008160400151141561177e576040517f08c379a0000000000000000000000000000000000000000000000000000000008152600401611775906130e9565b60405180910390fd5b611786612609565b600080600090505b60068110156117d357836080015181600681106117ae576117ad61368b565b5b6020020151826117be919061339d565b915080806117cb906135b3565b91505061178e565b60008285604001516117e591906135fc565b905060005b600681101561187657818660800151826006811061180b5761180a61368b565b5b6020020151111561183957808560006006811061182b5761182a61368b565b5b602002018181525050611863565b856080015181600681106118505761184f61368b565b5b602002015182611860919061347e565b91505b808061186e906135b3565b9150506117ea565b849650505050505050919050565b606d6020528060005260406000206000915090508060000154908060010154908060020154908060030154905084565b60675481565b600080606d60008581526020019081526020016000206040518060a0016040529081600082015481526020016001820154815260200160028201548152602001600382015481526020016004820160068060200260405190810160405280929190826006801561193f576020028201915b81548152602001906001019080831161192b575b5050505050815250509050600183511461198e576040517f08c379a000000000000000000000000000000000000000000000000000000000815260040161198590612fa9565b60405180910390fd5b600080600090505b60068110156119db57826080015181600681106119b6576119b561368b565b5b6020020151826119c6919061339d565b915080806119d3906135b3565b915050611996565b60008214156119ef57819350505050611a47565b816402540be400846080015187600081518110611a0f57611a0e61368b565b5b602002602001015160068110611a2857611a2761368b565b5b6020020151611a379190613424565b611a4191906133f3565b93505050505b92915050565b611a55612423565b73ffffffffffffffffffffffffffffffffffffffff16611a73611360565b73ffffffffffffffffffffffffffffffffffffffff1614611ac9576040517f08c379a0000000000000000000000000000000000000000000000000000000008152600401611ac090613029565b60405180910390fd5b806069819055507f9afc1b03107862b2aabd5adaf9bf3a6c054623803995901416d64d2ac86ed01d81604051611aff919061314b565b60405180910390a150565b60695481565b600060b442611b1f91906135fc565b60b4611b2b919061347e565b42611b36919061339d565b905090565b60685481565b6000606e60003373ffffffffffffffffffffffffffffffffffffffff1673ffffffffffffffffffffffffffffffffffffffff1681526020019081526020016000208281548110611b9457611b9361368b565b5b906000526020600020906005020190506000606d6000836000015481526020019081526020016000209050600081600201541415611c07576040517f08c379a0000000000000000000000000000000000000000000000000000000008152600401611bfe90613009565b60405180910390fd5b8160040160009054906101000a900460ff1615611c59576040517f08c379a0000000000000000000000000000000000000000000000000000000008152600401611c5090613109565b60405180910390fd5b6000611c68836000015461169f565b905060005b8360030180549050811015611cd657818160068110611c8f57611c8e61368b565b5b6020020151846003018281548110611caa57611ca961368b565b5b906000526020600020015414611cc35750505050611e5b565b8080611cce906135b3565b915050611c6d565b6000611d38856000015486600301805480602002602001604051908101604052809291908181526020018280548015611d2e57602002820191906000526020600020905b815481526020019060010190808311611d1a575b50505050506118ba565b90506000816402540be4008760010154611d529190613424565b611d5c91906133f3565b905060018660040160006101000a81548160ff02191690831515021790555080856001016000828254611d8f919061339d565b925050819055508060666000828254611da8919061347e565b925050819055503373ffffffffffffffffffffffffffffffffffffffff1686600001547fef0068ac9e6ad3b19d182459af297eb4d144e7721b87c619278bed0fcd0bd5dc88600101548960030185604051611e05939291906131a6565b60405180910390a33373ffffffffffffffffffffffffffffffffffffffff166108fc829081150290604051600060405180830381858888f19350505050158015611e53573d6000803e3d6000fd5b505050505050505b50565b60b481565b611e6b612423565b73ffffffffffffffffffffffffffffffffffffffff16611e89611360565b73ffffffffffffffffffffffffffffffffffffffff1614611edf576040517f08c379a0000000000000000000000000000000000000000000000000000000008152600401611ed690613029565b60405180910390fd5b600073ffffffffffffffffffffffffffffffffffffffff168173ffffffffffffffffffffffffffffffffffffffff161415611f4f576040517f08c379a0000000000000000000000000000000000000000000000000000000008152600401611f4690612f29565b60405180910390fd5b611f588161242b565b50565b6000606e60008373ffffffffffffffffffffffffffffffffffffffff1673ffffffffffffffffffffffffffffffffffffffff168152602001908152602001600020805490509050919050565b606e6020528160005260406000208181548110611fc357600080fd5b9060005260206000209060050201600091509150508060000154908060010154908060020160009054906101000a900473ffffffffffffffffffffffffffffffffffffffff16908060040160009054906101000a900460ff16905084565b612029612423565b73ffffffffffffffffffffffffffffffffffffffff16612047611360565b73ffffffffffffffffffffffffffffffffffffffff161461209d576040517f08c379a000000000000000000000000000000000000000000000000000000000815260040161209490613029565b60405180910390fd5b600073ffffffffffffffffffffffffffffffffffffffff168173ffffffffffffffffffffffffffffffffffffffff16141561210d576040517f08c379a000000000000000000000000000000000000000000000000000000000815260040161210490612f89565b60405180910390fd5b80606a60006101000a81548173ffffffffffffffffffffffffffffffffffffffff021916908373ffffffffffffffffffffffffffffffffffffffff1602179055508073ffffffffffffffffffffffffffffffffffffffff167f12c87c4c1bec313f335ef0060b241de51ec549e8c57a25aae98da2ad10837cde60405160405180910390a250565b60008060019054906101000a900460ff161561220b5760018260ff161480156121c357506121c1306124f1565b155b612202576040517f08c379a00000000000000000000000000000000000000000000000000000000081526004016121f990612fe9565b60405180910390fd5b6000905061227f565b8160ff1660008054906101000a900460ff1660ff1610612260576040517f08c379a000000000000000000000000000000000000000000000000000000000815260040161225790612fe9565b60405180910390fd5b816000806101000a81548160ff021916908360ff160217905550600190505b919050565b600060019054906101000a900460ff166122d3576040517f08c379a00000000000000000000000000000000000000000000000000000000081526004016122ca906130c9565b60405180910390fd5b6122db612514565b565b600060b4826122ec91906135fc565b1461232c576040517f08c379a000000000000000000000000000000000000000000000000000000000815260040161232390613089565b60405180910390fd5b606754811015612371576040517f08c379a000000000000000000000000000000000000000000000000000000000815260040161236890612f69565b60405180910390fd5b6000606d600083815260200190815260200160002060020154146123ca576040517f08c379a00000000000000000000000000000000000000000000000000000000081526004016123c190613069565b60405180910390fd5b6000606f60008381526020019081526020016000205414612420576040517f08c379a000000000000000000000000000000000000000000000000000000000815260040161241790612fc9565b60405180910390fd5b50565b600033905090565b6000603360009054906101000a900473ffffffffffffffffffffffffffffffffffffffff16905081603360006101000a81548173ffffffffffffffffffffffffffffffffffffffff021916908373ffffffffffffffffffffffffffffffffffffffff1602179055508173ffffffffffffffffffffffffffffffffffffffff168173ffffffffffffffffffffffffffffffffffffffff167f8be0079c531659141344cd1fd0a4f28419497f9722a3daafe3b4186f6b6457e060405160405180910390a35050565b6000808273ffffffffffffffffffffffffffffffffffffffff163b119050919050565b600060019054906101000a900460ff16612563576040517f08c379a000000000000000000000000000000000000000000000000000000000815260040161255a906130c9565b60405180910390fd5b61257361256e612423565b61242b565b565b6040518060a001604052806000815260200160008152602001600073ffffffffffffffffffffffffffffffffffffffff168152602001606081526020016000151581525090565b8280548282559060005260206000209081019282156125f8579160200282015b828111156125f75782518255916020019190600101906125dc565b5b509050612605919061262b565b5090565b6040518060c00160405280600690602082028036833780820191505090505090565b5b8082111561264457600081600090555060010161262c565b5090565b600061265b612656846132bc565b613297565b9050808382526020820190508285602086028201111561267e5761267d613706565b5b60005b858110156126ae57816126948882612751565b845260208401935060208301925050600181019050612681565b5050509392505050565b6000813590506126c781613a8c565b92915050565b60008083601f8401126126e3576126e2613701565b5b8235905067ffffffffffffffff811115612700576126ff6136fc565b5b60208301915083602082028301111561271c5761271b613706565b5b9250929050565b600082601f83011261273857612737613701565b5b8135612748848260208601612648565b91505092915050565b60008135905061276081613aa3565b92915050565b60008151905061277581613aa3565b92915050565b60006020828403121561279157612790613715565b5b600061279f848285016126b8565b91505092915050565b600080604083850312156127bf576127be613715565b5b60006127cd858286016126b8565b92505060206127de85828601612751565b9150509250929050565b60008060008060008060c0878903121561280557612804613715565b5b600061281389828a016126b8565b965050602061282489828a01612751565b955050604061283589828a01612751565b945050606061284689828a016126b8565b935050608061285789828a016126b8565b92505060a061286889828a01612751565b9150509295509295509295565b60006020828403121561288b5761288a613715565b5b600061289984828501612751565b91505092915050565b6000602082840312156128b8576128b7613715565b5b60006128c684828501612766565b91505092915050565b6000806000604084860312156128e8576128e7613715565b5b60006128f686828701612751565b935050602084013567ffffffffffffffff8111156129175761291661370b565b5b612923868287016126cd565b92509250509250925092565b6000806040838503121561294657612945613715565b5b600061295485828601612751565b925050602083013567ffffffffffffffff8111156129755761297461370b565b5b61298185828601612723565b9150509250929050565b60006129978383612e5f565b60208301905092915050565b6129ac816134bc565b82525050565b6129bb816134bc565b82525050565b6129ca81613317565b6129d4818461335f565b92506129df826132e8565b8060005b83811015612a105781516129f7878261298b565b9650612a0283613338565b9250506001810190506129e3565b505050505050565b6000612a24838561337b565b93507f07ffffffffffffffffffffffffffffffffffffffffffffffffffffffffffffff831115612a5757612a56613710565b5b602083029250612a68838584613559565b82840190509392505050565b6000612a7f82613322565b612a89818561336a565b9350612a94836132f2565b8060005b83811015612ac5578151612aac888261298b565b9750612ab783613345565b925050600181019050612a98565b5085935050505092915050565b6000612add8261332d565b612ae7818561337b565b9350612af283613302565b8060005b83811015612b2a57612b07826136e9565b612b11888261298b565b9750612b1c83613352565b925050600181019050612af6565b5085935050505092915050565b612b40816134ce565b82525050565b612b4f816134ce565b82525050565b612b5e81613511565b82525050565b612b6d81613523565b82525050565b6000612b80601c8361338c565b9150612b8b82613738565b602082019050919050565b6000612ba360168361338c565b9150612bae82613761565b602082019050919050565b6000612bc660268361338c565b9150612bd18261378a565b604082019050919050565b6000612be9601a8361338c565b9150612bf4826137d9565b602082019050919050565b6000612c0c60168361338c565b9150612c1782613802565b602082019050919050565b6000612c2f60168361338c565b9150612c3a8261382b565b602082019050919050565b6000612c5260208361338c565b9150612c5d82613854565b602082019050919050565b6000612c75600d8361338c565b9150612c808261387d565b602082019050919050565b6000612c98602e8361338c565b9150612ca3826138a6565b604082019050919050565b6000612cbb60118361338c565b9150612cc6826138f5565b602082019050919050565b6000612cde60208361338c565b9150612ce98261391e565b602082019050919050565b6000612d0160188361338c565b9150612d0c82613947565b602082019050919050565b6000612d24600d8361338c565b9150612d2f82613970565b602082019050919050565b6000612d47600f8361338c565b9150612d5282613999565b602082019050919050565b6000612d6a601d8361338c565b9150612d75826139c2565b602082019050919050565b6000612d8d602b8361338c565b9150612d98826139eb565b604082019050919050565b6000612db060148361338c565b9150612dbb82613a3a565b602082019050919050565b6000612dd360108361338c565b9150612dde82613a63565b602082019050919050565b600060a083016000830151612e016000860182612e5f565b506020830151612e146020860182612e5f565b506040830151612e2760408601826129a3565b5060608301518482036060860152612e3f8282612a74565b9150506080830151612e546080860182612b37565b508091505092915050565b612e68816134fa565b82525050565b612e77816134fa565b82525050565b6000602082019050612e9260008301846129b2565b92915050565b600060c082019050612ead60008301846129c1565b92915050565b6000602082019050612ec86000830184612b55565b92915050565b6000602082019050612ee36000830184612b64565b92915050565b60006020820190508181036000830152612f0281612b73565b9050919050565b60006020820190508181036000830152612f2281612b96565b9050919050565b60006020820190508181036000830152612f4281612bb9565b9050919050565b60006020820190508181036000830152612f6281612bdc565b9050919050565b60006020820190508181036000830152612f8281612bff565b9050919050565b60006020820190508181036000830152612fa281612c22565b9050919050565b60006020820190508181036000830152612fc281612c45565b9050919050565b60006020820190508181036000830152612fe281612c68565b9050919050565b6000602082019050818103600083015261300281612c8b565b9050919050565b6000602082019050818103600083015261302281612cae565b9050919050565b6000602082019050818103600083015261304281612cd1565b9050919050565b6000602082019050818103600083015261306281612cf4565b9050919050565b6000602082019050818103600083015261308281612d17565b9050919050565b600060208201905081810360008301526130a281612d3a565b9050919050565b600060208201905081810360008301526130c281612d5d565b9050919050565b600060208201905081810360008301526130e281612d80565b9050919050565b6000602082019050818103600083015261310281612da3565b9050919050565b6000602082019050818103600083015261312281612dc6565b9050919050565b600060208201905081810360008301526131438184612de9565b905092915050565b60006020820190506131606000830184612e6e565b92915050565b600060608201905061317b6000830187612e6e565b818103602083015261318e818587612a18565b905061319d6040830184612e6e565b95945050505050565b60006060820190506131bb6000830186612e6e565b81810360208301526131cd8185612ad2565b90506131dc6040830184612e6e565b949350505050565b60006040820190506131f96000830185612e6e565b6132066020830184612e6e565b9392505050565b60006080820190506132226000830187612e6e565b61322f6020830186612e6e565b61323c60408301856129b2565b6132496060830184612b46565b95945050505050565b60006080820190506132676000830187612e6e565b6132746020830186612e6e565b6132816040830185612e6e565b61328e6060830184612e6e565b95945050505050565b60006132a16132b2565b90506132ad8282613582565b919050565b6000604051905090565b600067ffffffffffffffff8211156132d7576132d66136ba565b5b602082029050602081019050919050565b6000819050919050565b6000819050602082019050919050565b60008190508160005260206000209050919050565b600060069050919050565b600081519050919050565b600081549050919050565b6000602082019050919050565b6000602082019050919050565b6000600182019050919050565b600081905092915050565b600082825260208201905092915050565b600082825260208201905092915050565b600082825260208201905092915050565b60006133a8826134fa565b91506133b3836134fa565b9250827fffffffffffffffffffffffffffffffffffffffffffffffffffffffffffffffff038211156133e8576133e761362d565b5b828201905092915050565b60006133fe826134fa565b9150613409836134fa565b9250826134195761341861365c565b5b828204905092915050565b600061342f826134fa565b915061343a836134fa565b9250817fffffffffffffffffffffffffffffffffffffffffffffffffffffffffffffffff04831182151516156134735761347261362d565b5b828202905092915050565b6000613489826134fa565b9150613494836134fa565b9250828210156134a7576134a661362d565b5b828203905092915050565b6000819050919050565b60006134c7826134da565b9050919050565b60008115159050919050565b600073ffffffffffffffffffffffffffffffffffffffff82169050919050565b6000819050919050565b600060ff82169050919050565b600061351c82613535565b9050919050565b600061352e82613504565b9050919050565b600061354082613547565b9050919050565b6000613552826134da565b9050919050565b82818337600083830152505050565b600061357b6135768361372b565b6134b2565b9050919050565b61358b8261371a565b810181811067ffffffffffffffff821117156135aa576135a96136ba565b5b80604052505050565b60006135be826134fa565b91507fffffffffffffffffffffffffffffffffffffffffffffffffffffffffffffffff8214156135f1576135f061362d565b5b600182019050919050565b6000613607826134fa565b9150613612836134fa565b9250826136225761362161365c565b5b828206905092915050565b7f4e487b7100000000000000000000000000000000000000000000000000000000600052601160045260246000fd5b7f4e487b7100000000000000000000000000000000000000000000000000000000600052601260045260246000fd5b7f4e487b7100000000000000000000000000000000000000000000000000000000600052603260045260246000fd5b7f4e487b7100000000000000000000000000000000000000000000000000000000600052604160045260246000fd5b60006136f58254613568565b9050919050565b600080fd5b600080fd5b600080fd5b600080fd5b600080fd5b600080fd5b6000601f19601f8301169050919050565b60008160001c9050919050565b7f52616e646f6d6e65737320616c72656164792066756c66696c6c656400000000600082015250565b7f4265742061626f7665206d6178426574206c696d697400000000000000000000600082015250565b7f4f776e61626c653a206e6577206f776e657220697320746865207a65726f206160008201527f6464726573730000000000000000000000000000000000000000000000000000602082015250565b7f4e6f7420416c6c6f7765642072616e646f6d50726f7669646572000000000000600082015250565b7f4c6976696e6720696e2074686520706173742062726f00000000000000000000600082015250565b7f46656520616464726573732063616e2774206265203000000000000000000000600082015250565b7f4f6e6c792077696e206265742063757272656e746c7920737570706f72746564600082015250565b7f526163652066696e6973696e6700000000000000000000000000000000000000600082015250565b7f496e697469616c697a61626c653a20636f6e747261637420697320616c72656160008201527f647920696e697469616c697a6564000000000000000000000000000000000000602082015250565b7f52616365206e6f742066696e6973686564000000000000000000000000000000600082015250565b7f4f776e61626c653a2063616c6c6572206973206e6f7420746865206f776e6572600082015250565b7f526573756c7420616c7265616479207265717565737465640000000000000000600082015250565b7f526163652066696e697368656400000000000000000000000000000000000000600082015250565b7f496e76616c696420726163652049440000000000000000000000000000000000600082015250565b7f5261636520726573756c7420616c72656164792066756c66696c6c6564000000600082015250565b7f496e697469616c697a61626c653a20636f6e7472616374206973206e6f74206960008201527f6e697469616c697a696e67000000000000000000000000000000000000000000602082015250565b7f52616365206973206e6f742066696e6973686564000000000000000000000000600082015250565b7f42657420616c7265616479207061696400000000000000000000000000000000600082015250565b613a95816134bc565b8114613aa057600080fd5b50565b613aac816134fa565b8114613ab757600080fd5b5056fea2646970667358221220b524d341f851cb0d31f77d15ddfc19fe74649ba1106279265d366b4cf930857864736f6c63430008070033",
  "devdoc": {
    "kind": "dev",
    "methods": {
      "owner()": {
        "details": "Returns the address of the current owner."
      },
      "renounceOwnership()": {
        "details": "Leaves the contract without owner. It will not be possible to call `onlyOwner` functions anymore. Can only be called by the current owner. NOTE: Renouncing ownership will leave the contract without an owner, thereby removing any functionality that is only available to the owner."
      },
      "transferOwnership(address)": {
        "details": "Transfers ownership of the contract to a new account (`newOwner`). Can only be called by the current owner."
      }
    },
    "title": "An betting game with exotic bet types",
    "version": 1
  },
  "userdoc": {
    "events": {
      "Payout(uint256,address,uint256,uint256[],uint256)": {
        "notice": "emitted when a bet is cashed out."
      },
      "RaceEnd(uint256,uint256,uint256)": {
        "notice": "emitted when a race ends."
      },
      "RaceStart(uint256,uint256)": {
        "notice": "emitted when a race starts."
      },
      "Wagered(uint256,address,uint256,uint256[],uint256)": {
        "notice": "emitted when a new bet is placed on a race."
      }
    },
    "kind": "user",
    "methods": {
      "bet(address,uint256)": {
        "notice": "mapping of address to list of bets."
      },
      "endRace(uint256,uint256[])": {
        "notice": "End the race and set the result."
      },
      "fee()": {
        "notice": "Fee paramaters."
      },
      "frequency()": {
        "notice": "How often races take place."
      },
      "nextRaceId()": {
        "notice": "The time of the next race to take place."
      },
      "odds(uint256,uint256[])": {
        "notice": "Get the current odds for a prediction."
      },
      "payout(uint256)": {
        "notice": "Cash out a winning bet."
      },
      "placeBet(uint256,uint256[])": {
        "notice": "Place a bet."
      },
      "race(uint256)": {
        "notice": "The state for each race."
      },
      "raceResult(uint256)": {
        "notice": "Return the results for a race."
      },
      "start()": {
        "notice": "The datetime of the first race."
      },
      "startRace(uint256)": {
        "notice": "Start the race and request result from VRF."
      },
      "userBet(address,uint256)": {
        "notice": "Returns a users bet with given id."
      },
      "userBetCount(address)": {
        "notice": "Return the amount of bets a user has made."
      }
    },
    "version": 1
  },
  "storageLayout": {
    "storage": [
      {
        "astId": 130,
        "contract": "contracts/Exotic.sol:Exotic",
        "label": "_initialized",
        "offset": 0,
        "slot": "0",
        "type": "t_uint8"
      },
      {
        "astId": 133,
        "contract": "contracts/Exotic.sol:Exotic",
        "label": "_initializing",
        "offset": 1,
        "slot": "0",
        "type": "t_bool"
      },
      {
        "astId": 549,
        "contract": "contracts/Exotic.sol:Exotic",
        "label": "__gap",
        "offset": 0,
        "slot": "1",
        "type": "t_array(t_uint256)50_storage"
      },
      {
        "astId": 10,
        "contract": "contracts/Exotic.sol:Exotic",
        "label": "_owner",
        "offset": 0,
        "slot": "51",
        "type": "t_address"
      },
      {
        "astId": 122,
        "contract": "contracts/Exotic.sol:Exotic",
        "label": "__gap",
        "offset": 0,
        "slot": "52",
        "type": "t_array(t_uint256)49_storage"
      },
      {
        "astId": 564,
        "contract": "contracts/Exotic.sol:Exotic",
        "label": "randomProvider",
        "offset": 0,
        "slot": "101",
        "type": "t_contract(IRandomProvider)1560"
      },
      {
        "astId": 566,
        "contract": "contracts/Exotic.sol:Exotic",
        "label": "balance",
        "offset": 0,
        "slot": "102",
        "type": "t_uint256"
      },
      {
        "astId": 573,
        "contract": "contracts/Exotic.sol:Exotic",
        "label": "start",
        "offset": 0,
        "slot": "103",
        "type": "t_uint256"
      },
      {
        "astId": 576,
        "contract": "contracts/Exotic.sol:Exotic",
        "label": "fee",
        "offset": 0,
        "slot": "104",
        "type": "t_uint256"
      },
      {
        "astId": 578,
        "contract": "contracts/Exotic.sol:Exotic",
        "label": "jackpotContribution",
        "offset": 0,
        "slot": "105",
        "type": "t_uint256"
      },
      {
        "astId": 580,
        "contract": "contracts/Exotic.sol:Exotic",
        "label": "feeAddress",
        "offset": 0,
        "slot": "106",
        "type": "t_address"
      },
      {
        "astId": 582,
        "contract": "contracts/Exotic.sol:Exotic",
        "label": "jackpotAddress",
        "offset": 0,
        "slot": "107",
        "type": "t_address"
      },
      {
        "astId": 584,
        "contract": "contracts/Exotic.sol:Exotic",
        "label": "maxBet",
        "offset": 0,
        "slot": "108",
        "type": "t_uint256"
      },
      {
        "astId": 615,
        "contract": "contracts/Exotic.sol:Exotic",
        "label": "race",
        "offset": 0,
        "slot": "109",
        "type": "t_mapping(t_uint256,t_struct(Race)609_storage)"
      },
      {
        "astId": 622,
        "contract": "contracts/Exotic.sol:Exotic",
        "label": "bet",
        "offset": 0,
        "slot": "110",
        "type": "t_mapping(t_address,t_array(t_struct(Bet)596_storage)dyn_storage)"
      },
      {
        "astId": 627,
        "contract": "contracts/Exotic.sol:Exotic",
        "label": "requestIdRace",
        "offset": 0,
        "slot": "111",
        "type": "t_mapping(t_uint256,t_uint256)"
      }
    ],
    "types": {
      "t_address": {
        "encoding": "inplace",
        "label": "address",
        "numberOfBytes": "20"
      },
      "t_array(t_struct(Bet)596_storage)dyn_storage": {
        "base": "t_struct(Bet)596_storage",
        "encoding": "dynamic_array",
        "label": "struct Exotic.Bet[]",
        "numberOfBytes": "32"
      },
      "t_array(t_uint256)49_storage": {
        "base": "t_uint256",
        "encoding": "inplace",
        "label": "uint256[49]",
        "numberOfBytes": "1568"
      },
      "t_array(t_uint256)50_storage": {
        "base": "t_uint256",
        "encoding": "inplace",
        "label": "uint256[50]",
        "numberOfBytes": "1600"
      },
      "t_array(t_uint256)6_storage": {
        "base": "t_uint256",
        "encoding": "inplace",
        "label": "uint256[6]",
        "numberOfBytes": "192"
      },
      "t_array(t_uint256)dyn_storage": {
        "base": "t_uint256",
        "encoding": "dynamic_array",
        "label": "uint256[]",
        "numberOfBytes": "32"
      },
      "t_bool": {
        "encoding": "inplace",
        "label": "bool",
        "numberOfBytes": "1"
      },
      "t_contract(IRandomProvider)1560": {
        "encoding": "inplace",
        "label": "contract IRandomProvider",
        "numberOfBytes": "20"
      },
      "t_mapping(t_address,t_array(t_struct(Bet)596_storage)dyn_storage)": {
        "encoding": "mapping",
        "key": "t_address",
        "label": "mapping(address => struct Exotic.Bet[])",
        "numberOfBytes": "32",
        "value": "t_array(t_struct(Bet)596_storage)dyn_storage"
      },
      "t_mapping(t_uint256,t_struct(Race)609_storage)": {
        "encoding": "mapping",
        "key": "t_uint256",
        "label": "mapping(uint256 => struct Exotic.Race)",
        "numberOfBytes": "32",
        "value": "t_struct(Race)609_storage"
      },
      "t_mapping(t_uint256,t_uint256)": {
        "encoding": "mapping",
        "key": "t_uint256",
        "label": "mapping(uint256 => uint256)",
        "numberOfBytes": "32",
        "value": "t_uint256"
      },
      "t_struct(Bet)596_storage": {
        "encoding": "inplace",
        "label": "struct Exotic.Bet",
        "members": [
          {
            "astId": 586,
            "contract": "contracts/Exotic.sol:Exotic",
            "label": "raceId",
            "offset": 0,
            "slot": "0",
            "type": "t_uint256"
          },
          {
            "astId": 588,
            "contract": "contracts/Exotic.sol:Exotic",
            "label": "amount",
            "offset": 0,
            "slot": "1",
            "type": "t_uint256"
          },
          {
            "astId": 590,
            "contract": "contracts/Exotic.sol:Exotic",
            "label": "account",
            "offset": 0,
            "slot": "2",
            "type": "t_address"
          },
          {
            "astId": 593,
            "contract": "contracts/Exotic.sol:Exotic",
            "label": "place",
            "offset": 0,
            "slot": "3",
            "type": "t_array(t_uint256)dyn_storage"
          },
          {
            "astId": 595,
            "contract": "contracts/Exotic.sol:Exotic",
            "label": "paid",
            "offset": 0,
            "slot": "4",
            "type": "t_bool"
          }
        ],
        "numberOfBytes": "160"
      },
      "t_struct(Race)609_storage": {
        "encoding": "inplace",
        "label": "struct Exotic.Race",
        "members": [
          {
            "astId": 598,
            "contract": "contracts/Exotic.sol:Exotic",
            "label": "totalWagered",
            "offset": 0,
            "slot": "0",
            "type": "t_uint256"
          },
          {
            "astId": 600,
            "contract": "contracts/Exotic.sol:Exotic",
            "label": "paid",
            "offset": 0,
            "slot": "1",
            "type": "t_uint256"
          },
          {
            "astId": 602,
            "contract": "contracts/Exotic.sol:Exotic",
            "label": "result",
            "offset": 0,
            "slot": "2",
            "type": "t_uint256"
          },
          {
            "astId": 604,
            "contract": "contracts/Exotic.sol:Exotic",
            "label": "requestId",
            "offset": 0,
            "slot": "3",
            "type": "t_uint256"
          },
          {
            "astId": 608,
            "contract": "contracts/Exotic.sol:Exotic",
            "label": "winWeights",
            "offset": 0,
            "slot": "4",
            "type": "t_array(t_uint256)6_storage"
          }
        ],
        "numberOfBytes": "320"
      },
      "t_uint256": {
        "encoding": "inplace",
        "label": "uint256",
        "numberOfBytes": "32"
      },
      "t_uint8": {
        "encoding": "inplace",
        "label": "uint8",
        "numberOfBytes": "1"
      }
    }
  }
}