{
  "address": "0xE99F8413a98788B1c95a99a1AE6f155f8D7929e3",
  "abi": [
    {
      "inputs": [
        {
          "internalType": "uint64",
          "name": "subscriptionId",
          "type": "uint64"
        },
        {
          "internalType": "address",
          "name": "_vrfCoordinator",
          "type": "address"
        },
        {
          "internalType": "uint256",
          "name": "_fee",
          "type": "uint256"
        },
        {
          "internalType": "uint256",
          "name": "_jackpotContribution",
          "type": "uint256"
        },
        {
          "internalType": "address",
          "name": "_feeAddress",
          "type": "address"
        },
        {
          "internalType": "address",
          "name": "_jackpotAddress",
          "type": "address"
        }
      ],
      "stateMutability": "nonpayable",
      "type": "constructor"
    },
    {
      "inputs": [
        {
          "internalType": "address",
          "name": "have",
          "type": "address"
        },
        {
          "internalType": "address",
          "name": "want",
          "type": "address"
        }
      ],
      "name": "OnlyCoordinatorCanFulfill",
      "type": "error"
    },
    {
      "anonymous": false,
      "inputs": [
        {
          "indexed": true,
          "internalType": "uint256",
          "name": "raceId",
          "type": "uint256"
        },
        {
          "indexed": true,
          "internalType": "address",
          "name": "to",
          "type": "address"
        },
        {
          "indexed": false,
          "internalType": "uint256",
          "name": "amount",
          "type": "uint256"
        },
        {
          "indexed": false,
          "internalType": "uint256[]",
          "name": "prediction",
          "type": "uint256[]"
        },
        {
          "indexed": false,
          "internalType": "uint256",
          "name": "payout",
          "type": "uint256"
        }
      ],
      "name": "Payout",
      "type": "event"
    },
    {
      "anonymous": false,
      "inputs": [
        {
          "indexed": true,
          "internalType": "uint256",
          "name": "raceId",
          "type": "uint256"
        },
        {
          "indexed": false,
          "internalType": "uint256",
          "name": "totalValue",
          "type": "uint256"
        },
        {
          "indexed": false,
          "internalType": "uint256",
          "name": "result",
          "type": "uint256"
        }
      ],
      "name": "RaceEnd",
      "type": "event"
    },
    {
      "anonymous": false,
      "inputs": [
        {
          "indexed": true,
          "internalType": "uint256",
          "name": "raceId",
          "type": "uint256"
        },
        {
          "indexed": false,
          "internalType": "uint256",
          "name": "totalValue",
          "type": "uint256"
        }
      ],
      "name": "RaceStart",
      "type": "event"
    },
    {
      "anonymous": false,
      "inputs": [
        {
          "indexed": true,
          "internalType": "uint256",
          "name": "raceId",
          "type": "uint256"
        },
        {
          "indexed": true,
          "internalType": "address",
          "name": "from",
          "type": "address"
        },
        {
          "indexed": false,
          "internalType": "uint256",
          "name": "amount",
          "type": "uint256"
        },
        {
          "indexed": false,
          "internalType": "uint256[]",
          "name": "prediction",
          "type": "uint256[]"
        },
        {
          "indexed": false,
          "internalType": "uint256",
          "name": "poolTotal",
          "type": "uint256"
        }
      ],
      "name": "Wagered",
      "type": "event"
    },
    {
      "inputs": [
        {
          "internalType": "address",
          "name": "",
          "type": "address"
        },
        {
          "internalType": "uint256",
          "name": "",
          "type": "uint256"
        }
      ],
      "name": "bet",
      "outputs": [
        {
          "internalType": "uint256",
          "name": "raceId",
          "type": "uint256"
        },
        {
          "internalType": "uint256",
          "name": "amount",
          "type": "uint256"
        },
        {
          "internalType": "address",
          "name": "account",
          "type": "address"
        },
        {
          "internalType": "bool",
          "name": "paid",
          "type": "bool"
        }
      ],
      "stateMutability": "view",
      "type": "function"
    },
    {
      "inputs": [
        {
          "internalType": "uint256",
          "name": "raceId",
          "type": "uint256"
        }
      ],
      "name": "endRace",
      "outputs": [],
      "stateMutability": "nonpayable",
      "type": "function"
    },
    {
      "inputs": [],
      "name": "fee",
      "outputs": [
        {
          "internalType": "uint256",
          "name": "",
          "type": "uint256"
        }
      ],
      "stateMutability": "view",
      "type": "function"
    },
    {
      "inputs": [],
      "name": "feeAddress",
      "outputs": [
        {
          "internalType": "address",
          "name": "",
          "type": "address"
        }
      ],
      "stateMutability": "view",
      "type": "function"
    },
    {
      "inputs": [],
      "name": "frequency",
      "outputs": [
        {
          "internalType": "uint256",
          "name": "",
          "type": "uint256"
        }
      ],
      "stateMutability": "view",
      "type": "function"
    },
    {
      "inputs": [],
      "name": "jackpotAddress",
      "outputs": [
        {
          "internalType": "address",
          "name": "",
          "type": "address"
        }
      ],
      "stateMutability": "view",
      "type": "function"
    },
    {
      "inputs": [],
      "name": "jackpotContribution",
      "outputs": [
        {
          "internalType": "uint256",
          "name": "",
          "type": "uint256"
        }
      ],
      "stateMutability": "view",
      "type": "function"
    },
    {
      "inputs": [],
      "name": "nextRaceId",
      "outputs": [
        {
          "internalType": "uint256",
          "name": "",
          "type": "uint256"
        }
      ],
      "stateMutability": "view",
      "type": "function"
    },
    {
      "inputs": [
        {
          "internalType": "uint256",
          "name": "raceId",
          "type": "uint256"
        },
        {
          "internalType": "uint256[]",
          "name": "result",
          "type": "uint256[]"
        }
      ],
      "name": "odds",
      "outputs": [
        {
          "internalType": "uint256",
          "name": "",
          "type": "uint256"
        }
      ],
      "stateMutability": "view",
      "type": "function"
    },
    {
      "inputs": [
        {
          "internalType": "uint256",
          "name": "betId",
          "type": "uint256"
        }
      ],
      "name": "payout",
      "outputs": [],
      "stateMutability": "nonpayable",
      "type": "function"
    },
    {
      "inputs": [
        {
          "internalType": "uint256",
          "name": "raceId",
          "type": "uint256"
        },
        {
          "internalType": "uint256[]",
          "name": "prediction",
          "type": "uint256[]"
        }
      ],
      "name": "placeBet",
      "outputs": [
        {
          "internalType": "uint256",
          "name": "betId",
          "type": "uint256"
        }
      ],
      "stateMutability": "payable",
      "type": "function"
    },
    {
      "inputs": [
        {
          "internalType": "uint256",
          "name": "",
          "type": "uint256"
        }
      ],
      "name": "race",
      "outputs": [
        {
          "internalType": "uint256",
          "name": "totalWagered",
          "type": "uint256"
        },
        {
          "internalType": "uint256",
          "name": "paid",
          "type": "uint256"
        },
        {
          "internalType": "uint256",
          "name": "result",
          "type": "uint256"
        },
        {
          "internalType": "uint256",
          "name": "requestId",
          "type": "uint256"
        }
      ],
      "stateMutability": "view",
      "type": "function"
    },
    {
      "inputs": [
        {
          "internalType": "uint256",
          "name": "raceId",
          "type": "uint256"
        }
      ],
      "name": "raceResult",
      "outputs": [
        {
          "internalType": "uint256[6]",
          "name": "",
          "type": "uint256[6]"
        }
      ],
      "stateMutability": "view",
      "type": "function"
    },
    {
      "inputs": [
        {
          "internalType": "uint256",
          "name": "requestId",
          "type": "uint256"
        },
        {
          "internalType": "uint256[]",
          "name": "randomWords",
          "type": "uint256[]"
        }
      ],
      "name": "rawFulfillRandomWords",
      "outputs": [],
      "stateMutability": "nonpayable",
      "type": "function"
    },
    {
      "inputs": [],
      "name": "start",
      "outputs": [
        {
          "internalType": "uint256",
          "name": "",
          "type": "uint256"
        }
      ],
      "stateMutability": "view",
      "type": "function"
    },
    {
      "inputs": [
        {
          "internalType": "address",
          "name": "user",
          "type": "address"
        },
        {
          "internalType": "uint256",
          "name": "betId",
          "type": "uint256"
        }
      ],
      "name": "userBet",
      "outputs": [
        {
          "internalType": "uint256",
          "name": "",
          "type": "uint256"
        },
        {
          "internalType": "uint256",
          "name": "",
          "type": "uint256"
        },
        {
          "internalType": "uint256[]",
          "name": "",
          "type": "uint256[]"
        },
        {
          "internalType": "bool",
          "name": "",
          "type": "bool"
        }
      ],
      "stateMutability": "view",
      "type": "function"
    },
    {
      "inputs": [
        {
          "internalType": "address",
          "name": "user",
          "type": "address"
        }
      ],
      "name": "userBetCount",
      "outputs": [
        {
          "internalType": "uint256",
          "name": "",
          "type": "uint256"
        }
      ],
      "stateMutability": "view",
      "type": "function"
    }
  ],
  "transactionHash": "0x6bee37bbc379de258054bfd319e9bbb41492dc73e2165f42a14711e8c6e065f8",
  "args": [
    167,
    "0x2eD832Ba664535e5886b75D64C46EB9a228C2610",
    50,
    50,
    "0x1604F1c0aF9765D940519cd2593292b3cE3Ba3CE",
    "0x1604F1c0aF9765D940519cd2593292b3cE3Ba3CE"
  ],
  "numDeployments": 5,
  "solcInputHash": "22951b5ed5701b926c44f10e93e9ee4f",
  "bytecode": "0x60c06040527f354d2f95da55398f44b7cff77da56283d9c6c829a4bdf1bbcaf2ad6a4d081f6160001b60025562030d40600360006101000a81548163ffffffff021916908363ffffffff16021790555060038060046101000a81548161ffff021916908361ffff1602179055506001600360066101000a81548163ffffffff021916908363ffffffff1602179055503480156200009b57600080fd5b5060405162002ea138038062002ea18339818101604052810190620000c191906200024c565b848073ffffffffffffffffffffffffffffffffffffffff1660808173ffffffffffffffffffffffffffffffffffffffff1660601b8152505050846000806101000a81548173ffffffffffffffffffffffffffffffffffffffff021916908373ffffffffffffffffffffffffffffffffffffffff1602179055504260a0818152505085600060146101000a81548167ffffffffffffffff021916908367ffffffffffffffff160217905550836005819055508260068190555081600760006101000a81548173ffffffffffffffffffffffffffffffffffffffff021916908373ffffffffffffffffffffffffffffffffffffffff16021790555080600860006101000a81548173ffffffffffffffffffffffffffffffffffffffff021916908373ffffffffffffffffffffffffffffffffffffffff1602179055505050505050506200038d565b60008151905062000218816200033f565b92915050565b6000815190506200022f8162000359565b92915050565b600081519050620002468162000373565b92915050565b60008060008060008060c087890312156200026c576200026b6200033a565b5b60006200027c89828a0162000235565b96505060206200028f89828a0162000207565b9550506040620002a289828a016200021e565b9450506060620002b589828a016200021e565b9350506080620002c889828a0162000207565b92505060a0620002db89828a0162000207565b9150509295509295509295565b6000620002f582620002fc565b9050919050565b600073ffffffffffffffffffffffffffffffffffffffff82169050919050565b6000819050919050565b600067ffffffffffffffff82169050919050565b600080fd5b6200034a81620002e8565b81146200035657600080fd5b50565b62000364816200031c565b81146200037057600080fd5b50565b6200037e8162000326565b81146200038a57600080fd5b50565b60805160601c60a051612add620003c4600039600081816110ee015261177b0152600081816106b401526107080152612add6000f3fe6080604052600436106100fe5760003560e01c8063be9a655511610095578063ddca3f4311610064578063ddca3f4314610356578063e115234314610381578063ead50da3146103aa578063f408a23a146103d5578063f846cabc14610412576100fe565b8063be9a655514610298578063d149221b146102c3578063d8595d8614610300578063d9b8fd8f1461032b576100fe565b80634195ab8e116100d15780634195ab8e146101b05780636bc0b3ba146101f0578063b71455ee1461021b578063b7dda85e14610258576100fe565b8063052608c9146101035780631fe543e31461012c57806330d14655146101555780634127535814610185575b600080fd5b34801561010f57600080fd5b5061012a60048036038101906101259190611bf8565b610452565b005b34801561013857600080fd5b50610153600480360381019061014e9190611cb2565b6106b2565b005b61016f600480360381019061016a9190611c52565b610772565b60405161017c91906122a7565b60405180910390f35b34801561019157600080fd5b5061019a610c94565b6040516101a79190612095565b60405180910390f35b3480156101bc57600080fd5b506101d760048036038101906101d29190611bb8565b610cba565b6040516101e794939291906123ae565b60405180910390f35b3480156101fc57600080fd5b50610205610e31565b6040516102129190612095565b60405180910390f35b34801561022757600080fd5b50610242600480360381019061023d9190611bf8565b610e57565b60405161024f91906120d9565b60405180910390f35b34801561026457600080fd5b5061027f600480360381019061027a9190611bf8565b6110bc565b60405161028f94939291906123fa565b60405180910390f35b3480156102a457600080fd5b506102ad6110ec565b6040516102ba91906122a7565b60405180910390f35b3480156102cf57600080fd5b506102ea60048036038101906102e59190611cb2565b611110565b6040516102f791906122a7565b60405180910390f35b34801561030c57600080fd5b5061031561130b565b60405161032291906122a7565b60405180910390f35b34801561033757600080fd5b50610340611311565b60405161034d91906122a7565b60405180910390f35b34801561036257600080fd5b5061036b61133c565b60405161037891906122a7565b60405180910390f35b34801561038d57600080fd5b506103a860048036038101906103a39190611bf8565b611342565b005b3480156103b657600080fd5b506103bf61165f565b6040516103cc91906122a7565b60405180910390f35b3480156103e157600080fd5b506103fc60048036038101906103f79190611b8b565b611664565b60405161040991906122a7565b60405180910390f35b34801561041e57600080fd5b5061043960048036038101906104349190611bb8565b6116b0565b6040516104499493929190612369565b60405180910390f35b61045b8161172a565b60b4816104689190612534565b42116104a9576040517f08c379a00000000000000000000000000000000000000000000000000000000081526004016104a0906121c7565b60405180910390fd5b60006009600083815260200190815260200160002090506000816003015414610507576040517f08c379a00000000000000000000000000000000000000000000000000000000081526004016104fe906121e7565b60405180910390fd5b600081600201541461054e576040517f08c379a000000000000000000000000000000000000000000000000000000000815260040161054590612247565b60405180910390fd5b60008060009054906101000a900473ffffffffffffffffffffffffffffffffffffffff1673ffffffffffffffffffffffffffffffffffffffff16635d3b1d30600254600060149054906101000a900467ffffffffffffffff16600360049054906101000a900461ffff16600360009054906101000a900463ffffffff16600360069054906101000a900463ffffffff166040518663ffffffff1660e01b81526004016105fe9594939291906120f4565b602060405180830381600087803b15801561061857600080fd5b505af115801561062c573d6000803e3d6000fd5b505050506040513d601f19601f820116820180604052508101906106509190611c25565b905080826003018190555082600b600083815260200190815260200160002081905550827f727aed3ef5e1b948e78407c8b942fb3193ebc5901b4bc951faa6568c90b784956004546040516106a591906122a7565b60405180910390a2505050565b7f000000000000000000000000000000000000000000000000000000000000000073ffffffffffffffffffffffffffffffffffffffff163373ffffffffffffffffffffffffffffffffffffffff161461076457337f00000000000000000000000000000000000000000000000000000000000000006040517f1cf993f400000000000000000000000000000000000000000000000000000000815260040161075b9291906120b0565b60405180910390fd5b61076e828261188e565b5050565b600061077d8461172a565b600183839050146107c3576040517f08c379a00000000000000000000000000000000000000000000000000000000081526004016107ba90612187565b60405180910390fd5b6000612710600554346107d691906125bb565b6107e0919061258a565b90506000612710600654346107f591906125bb565b6107ff919061258a565b90506000818361080f9190612534565b3461081a9190612615565b9050610824611985565b878160000181815250508181602001818152505033816040019073ffffffffffffffffffffffffffffffffffffffff16908173ffffffffffffffffffffffffffffffffffffffff1681525050600a60003373ffffffffffffffffffffffffffffffffffffffff1673ffffffffffffffffffffffffffffffffffffffff168152602001908152602001600020819080600181540180825580915050600190039060005260206000209060050201600090919091909150600082015181600001556020820151816001015560408201518160020160006101000a81548173ffffffffffffffffffffffffffffffffffffffff021916908373ffffffffffffffffffffffffffffffffffffffff16021790555060608201518160030190805190602001906109509291906119cc565b5060808201518160040160006101000a81548160ff0219169083151502179055505050600a60003373ffffffffffffffffffffffffffffffffffffffff1673ffffffffffffffffffffffffffffffffffffffff1681526020019081526020016000206001600a60003373ffffffffffffffffffffffffffffffffffffffff1673ffffffffffffffffffffffffffffffffffffffff16815260200190815260200160002080549050610a019190612615565b81548110610a1257610a11612809565b5b906000526020600020906005020160030187876000818110610a3757610a36612809565b5b9050602002013590806001815401808255809150506001900390600052602060002001600090919091909150556000600960008a815260200190815260200160002090508281600401600060038110610a9357610a92612809565b5b6006020189896000818110610aab57610aaa612809565b5b9050602002013560068110610ac357610ac2612809565b5b016000828254610ad39190612534565b9250508190555082816000016000828254610aee9190612534565b925050819055508260046000828254610b079190612534565b925050819055503373ffffffffffffffffffffffffffffffffffffffff16897fed7146643be17948fcb4400f9980c37ef3404baf91823ef51782e2c6673266f6858b8b600454604051610b5d94939291906122c2565b60405180910390a3600760009054906101000a900473ffffffffffffffffffffffffffffffffffffffff1673ffffffffffffffffffffffffffffffffffffffff166108fc869081150290604051600060405180830381858888f19350505050158015610bcd573d6000803e3d6000fd5b50600860009054906101000a900473ffffffffffffffffffffffffffffffffffffffff1673ffffffffffffffffffffffffffffffffffffffff166108fc859081150290604051600060405180830381858888f19350505050158015610c36573d6000803e3d6000fd5b506001600a60003373ffffffffffffffffffffffffffffffffffffffff1673ffffffffffffffffffffffffffffffffffffffff16815260200190815260200160002080549050610c869190612615565b955050505050509392505050565b600760009054906101000a900473ffffffffffffffffffffffffffffffffffffffff1681565b6000806060600080600a60008873ffffffffffffffffffffffffffffffffffffffff1673ffffffffffffffffffffffffffffffffffffffff1681526020019081526020016000208681548110610d1357610d12612809565b5b90600052602060002090600502016040518060a001604052908160008201548152602001600182015481526020016002820160009054906101000a900473ffffffffffffffffffffffffffffffffffffffff1673ffffffffffffffffffffffffffffffffffffffff1673ffffffffffffffffffffffffffffffffffffffff16815260200160038201805480602002602001604051908101604052809291908181526020018280548015610de557602002820191906000526020600020905b815481526020019060010190808311610dd1575b505050505081526020016004820160009054906101000a900460ff1615151515815250509050806000015181602001518260600151836080015194509450945094505092959194509250565b600860009054906101000a900473ffffffffffffffffffffffffffffffffffffffff1681565b610e5f611a19565b6000600960008481526020019081526020016000206040518060a00160405290816000820154815260200160018201548152602001600282015481526020016003820154815260200160048201600380602002604051908101604052809291906000905b82821015610f1c57838260060201600680602002604051908101604052809291908260068015610f08576020028201915b815481526020019060010190808311610ef4575b505050505081526020019060010190610ec3565b50505050815250509050600081604001511415610f6e576040517f08c379a0000000000000000000000000000000000000000000000000000000008152600401610f6590612267565b60405180910390fd5b610f76611a19565b600080600090505b6006811015610fdb578360800151600060038110610f9f57610f9e612809565b5b60200201518160068110610fb657610fb5612809565b5b602002015182610fc69190612534565b91508080610fd390612731565b915050610f7e565b6000828560400151610fed919061277a565b905060005b60068110156110ae5781866080015160006003811061101457611013612809565b5b6020020151826006811061102b5761102a612809565b5b6020020151111561105957808560006006811061104b5761104a612809565b5b60200201818152505061109b565b856080015160006003811061107157611070612809565b5b6020020151816006811061108857611087612809565b5b6020020151826110989190612615565b91505b80806110a690612731565b915050610ff2565b849650505050505050919050565b60096020528060005260406000206000915090508060000154908060010154908060020154908060030154905084565b7f000000000000000000000000000000000000000000000000000000000000000081565b600080600960008581526020019081526020016000206040518060a00160405290816000820154815260200160018201548152602001600282015481526020016003820154815260200160048201600380602002604051908101604052809291906000905b828210156111ce578382600602016006806020026040519081016040528092919082600680156111ba576020028201915b8154815260200190600101908083116111a6575b505050505081526020019060010190611175565b50505050815250509050600183511461121c576040517f08c379a000000000000000000000000000000000000000000000000000000000815260040161121390612187565b60405180910390fd5b600080600090505b600681101561128157826080015160006003811061124557611244612809565b5b6020020151816006811061125c5761125b612809565b5b60200201518261126c9190612534565b9150808061127990612731565b915050611224565b600082141561129557819350505050611305565b816402540be40084608001516000600381106112b4576112b3612809565b5b6020020151876000815181106112cd576112cc612809565b5b6020026020010151600681106112e6576112e5612809565b5b60200201516112f591906125bb565b6112ff919061258a565b93505050505b92915050565b60065481565b600060b442611320919061277a565b60b461132c9190612615565b426113379190612534565b905090565b60055481565b6000600a60003373ffffffffffffffffffffffffffffffffffffffff1673ffffffffffffffffffffffffffffffffffffffff168152602001908152602001600020828154811061139557611394612809565b5b90600052602060002090600502019050600060096000836000015481526020019081526020016000209050600081600201541415611408576040517f08c379a00000000000000000000000000000000000000000000000000000000081526004016113ff906121c7565b60405180910390fd5b8160040160009054906101000a900460ff161561145a576040517f08c379a000000000000000000000000000000000000000000000000000000000815260040161145190612287565b60405180910390fd5b60006114698360000154610e57565b905060005b83600301805490508110156114d7578181600681106114905761148f612809565b5b60200201518460030182815481106114ab576114aa612809565b5b9060005260206000200154146114c4575050505061165c565b80806114cf90612731565b91505061146e565b600061153985600001548660030180548060200260200160405190810160405280929190818152602001828054801561152f57602002820191906000526020600020905b81548152602001906001019080831161151b575b5050505050611110565b90506000816402540be400876001015461155391906125bb565b61155d919061258a565b905060018660040160006101000a81548160ff021916908315150217905550808560010160008282546115909190612534565b9250508190555080600460008282546115a99190612615565b925050819055503373ffffffffffffffffffffffffffffffffffffffff1686600001547fef0068ac9e6ad3b19d182459af297eb4d144e7721b87c619278bed0fcd0bd5dc8860010154896003018560405161160693929190612302565b60405180910390a33373ffffffffffffffffffffffffffffffffffffffff166108fc829081150290604051600060405180830381858888f19350505050158015611654573d6000803e3d6000fd5b505050505050505b50565b60b481565b6000600a60008373ffffffffffffffffffffffffffffffffffffffff1673ffffffffffffffffffffffffffffffffffffffff168152602001908152602001600020805490509050919050565b600a60205281600052604060002081815481106116cc57600080fd5b9060005260206000209060050201600091509150508060000154908060010154908060020160009054906101000a900473ffffffffffffffffffffffffffffffffffffffff16908060040160009054906101000a900460ff16905084565b600060b482611739919061277a565b14611779576040517f08c379a000000000000000000000000000000000000000000000000000000000815260040161177090612227565b60405180910390fd5b7f00000000000000000000000000000000000000000000000000000000000000008110156117dc576040517f08c379a00000000000000000000000000000000000000000000000000000000081526004016117d390612167565b60405180910390fd5b6000600960008381526020019081526020016000206002015414611835576040517f08c379a000000000000000000000000000000000000000000000000000000000815260040161182c90612207565b60405180910390fd5b6000600b6000838152602001908152602001600020541461188b576040517f08c379a0000000000000000000000000000000000000000000000000000000008152600401611882906121a7565b60405180910390fd5b50565b6000600b600084815260200190815260200160002054905060006009600083815260200190815260200160002090506000816002015414611904576040517f08c379a00000000000000000000000000000000000000000000000000000000081526004016118fb90612147565b60405180910390fd5b8260008151811061191857611917612809565b5b60200260200101518160020181905550817f7554ff21c11af92d9ed24a3625daa96a85ebe3a0a3c44c44cb080cb400c42d986004548560008151811061196157611960612809565b5b6020026020010151604051611977929190612340565b60405180910390a250505050565b6040518060a001604052806000815260200160008152602001600073ffffffffffffffffffffffffffffffffffffffff168152602001606081526020016000151581525090565b828054828255906000526020600020908101928215611a08579160200282015b82811115611a075782518255916020019190600101906119ec565b5b509050611a159190611a3b565b5090565b6040518060c00160405280600690602082028036833780820191505090505090565b5b80821115611a54576000816000905550600101611a3c565b5090565b6000611a6b611a6684612464565b61243f565b90508083825260208201905082856020860282011115611a8e57611a8d612884565b5b60005b85811015611abe5781611aa48882611b61565b845260208401935060208301925050600181019050611a91565b5050509392505050565b600081359050611ad781612a79565b92915050565b60008083601f840112611af357611af261287f565b5b8235905067ffffffffffffffff811115611b1057611b0f61287a565b5b602083019150836020820283011115611b2c57611b2b612884565b5b9250929050565b600082601f830112611b4857611b4761287f565b5b8135611b58848260208601611a58565b91505092915050565b600081359050611b7081612a90565b92915050565b600081519050611b8581612a90565b92915050565b600060208284031215611ba157611ba0612893565b5b6000611baf84828501611ac8565b91505092915050565b60008060408385031215611bcf57611bce612893565b5b6000611bdd85828601611ac8565b9250506020611bee85828601611b61565b9150509250929050565b600060208284031215611c0e57611c0d612893565b5b6000611c1c84828501611b61565b91505092915050565b600060208284031215611c3b57611c3a612893565b5b6000611c4984828501611b76565b91505092915050565b600080600060408486031215611c6b57611c6a612893565b5b6000611c7986828701611b61565b935050602084013567ffffffffffffffff811115611c9a57611c99612889565b5b611ca686828701611add565b92509250509250925092565b60008060408385031215611cc957611cc8612893565b5b6000611cd785828601611b61565b925050602083013567ffffffffffffffff811115611cf857611cf7612889565b5b611d0485828601611b33565b9150509250929050565b6000611d1a8383612059565b60208301905092915050565b611d2f81612653565b82525050565b611d3e816124bf565b611d488184612507565b9250611d5382612490565b8060005b83811015611d84578151611d6b8782611d0e565b9650611d76836124e0565b925050600181019050611d57565b505050505050565b6000611d988385612512565b93507f07ffffffffffffffffffffffffffffffffffffffffffffffffffffffffffffff831115611dcb57611dca61288e565b5b602083029250611ddc8385846126d7565b82840190509392505050565b6000611df3826124ca565b611dfd8185612512565b9350611e088361249a565b8060005b83811015611e39578151611e208882611d0e565b9750611e2b836124ed565b925050600181019050611e0c565b5085935050505092915050565b6000611e51826124d5565b611e5b8185612512565b9350611e66836124aa565b8060005b83811015611e9e57611e7b82612867565b611e858882611d0e565b9750611e90836124fa565b925050600181019050611e6a565b5085935050505092915050565b611eb481612665565b82525050565b611ec381612671565b82525050565b6000611ed6601c83612523565b9150611ee1826128b6565b602082019050919050565b6000611ef9601683612523565b9150611f04826128df565b602082019050919050565b6000611f1c602083612523565b9150611f2782612908565b602082019050919050565b6000611f3f600d83612523565b9150611f4a82612931565b602082019050919050565b6000611f62601183612523565b9150611f6d8261295a565b602082019050919050565b6000611f85601883612523565b9150611f9082612983565b602082019050919050565b6000611fa8600d83612523565b9150611fb3826129ac565b602082019050919050565b6000611fcb600f83612523565b9150611fd6826129d5565b602082019050919050565b6000611fee601d83612523565b9150611ff9826129fe565b602082019050919050565b6000612011601483612523565b915061201c82612a27565b602082019050919050565b6000612034601083612523565b915061203f82612a50565b602082019050919050565b6120538161267b565b82525050565b612062816126a9565b82525050565b612071816126a9565b82525050565b612080816126b3565b82525050565b61208f816126c3565b82525050565b60006020820190506120aa6000830184611d26565b92915050565b60006040820190506120c56000830185611d26565b6120d26020830184611d26565b9392505050565b600060c0820190506120ee6000830184611d35565b92915050565b600060a0820190506121096000830188611eba565b6121166020830187612086565b612123604083018661204a565b6121306060830185612077565b61213d6080830184612077565b9695505050505050565b6000602082019050818103600083015261216081611ec9565b9050919050565b6000602082019050818103600083015261218081611eec565b9050919050565b600060208201905081810360008301526121a081611f0f565b9050919050565b600060208201905081810360008301526121c081611f32565b9050919050565b600060208201905081810360008301526121e081611f55565b9050919050565b6000602082019050818103600083015261220081611f78565b9050919050565b6000602082019050818103600083015261222081611f9b565b9050919050565b6000602082019050818103600083015261224081611fbe565b9050919050565b6000602082019050818103600083015261226081611fe1565b9050919050565b6000602082019050818103600083015261228081612004565b9050919050565b600060208201905081810360008301526122a081612027565b9050919050565b60006020820190506122bc6000830184612068565b92915050565b60006060820190506122d76000830187612068565b81810360208301526122ea818587611d8c565b90506122f96040830184612068565b95945050505050565b60006060820190506123176000830186612068565b81810360208301526123298185611e46565b90506123386040830184612068565b949350505050565b60006040820190506123556000830185612068565b6123626020830184612068565b9392505050565b600060808201905061237e6000830187612068565b61238b6020830186612068565b6123986040830185611d26565b6123a56060830184611eab565b95945050505050565b60006080820190506123c36000830187612068565b6123d06020830186612068565b81810360408301526123e28185611de8565b90506123f16060830184611eab565b95945050505050565b600060808201905061240f6000830187612068565b61241c6020830186612068565b6124296040830185612068565b6124366060830184612068565b95945050505050565b600061244961245a565b90506124558282612700565b919050565b6000604051905090565b600067ffffffffffffffff82111561247f5761247e612838565b5b602082029050602081019050919050565b6000819050919050565b6000819050602082019050919050565b60008190508160005260206000209050919050565b600060069050919050565b600081519050919050565b600081549050919050565b6000602082019050919050565b6000602082019050919050565b6000600182019050919050565b600081905092915050565b600082825260208201905092915050565b600082825260208201905092915050565b600061253f826126a9565b915061254a836126a9565b9250827fffffffffffffffffffffffffffffffffffffffffffffffffffffffffffffffff0382111561257f5761257e6127ab565b5b828201905092915050565b6000612595826126a9565b91506125a0836126a9565b9250826125b0576125af6127da565b5b828204905092915050565b60006125c6826126a9565b91506125d1836126a9565b9250817fffffffffffffffffffffffffffffffffffffffffffffffffffffffffffffffff048311821515161561260a576126096127ab565b5b828202905092915050565b6000612620826126a9565b915061262b836126a9565b92508282101561263e5761263d6127ab565b5b828203905092915050565b6000819050919050565b600061265e82612689565b9050919050565b60008115159050919050565b6000819050919050565b600061ffff82169050919050565b600073ffffffffffffffffffffffffffffffffffffffff82169050919050565b6000819050919050565b600063ffffffff82169050919050565b600067ffffffffffffffff82169050919050565b82818337600083830152505050565b60006126f96126f4836128a9565b612649565b9050919050565b61270982612898565b810181811067ffffffffffffffff8211171561272857612727612838565b5b80604052505050565b600061273c826126a9565b91507fffffffffffffffffffffffffffffffffffffffffffffffffffffffffffffffff82141561276f5761276e6127ab565b5b600182019050919050565b6000612785826126a9565b9150612790836126a9565b9250826127a05761279f6127da565b5b828206905092915050565b7f4e487b7100000000000000000000000000000000000000000000000000000000600052601160045260246000fd5b7f4e487b7100000000000000000000000000000000000000000000000000000000600052601260045260246000fd5b7f4e487b7100000000000000000000000000000000000000000000000000000000600052603260045260246000fd5b7f4e487b7100000000000000000000000000000000000000000000000000000000600052604160045260246000fd5b600061287382546126e6565b9050919050565b600080fd5b600080fd5b600080fd5b600080fd5b600080fd5b600080fd5b6000601f19601f8301169050919050565b60008160001c9050919050565b7f52616e646f6d6e65737320616c72656164792066756c66696c6c656400000000600082015250565b7f4c6976696e6720696e2074686520706173742062726f00000000000000000000600082015250565b7f4f6e6c792077696e206265742063757272656e746c7920737570706f72746564600082015250565b7f526163652066696e6973696e6700000000000000000000000000000000000000600082015250565b7f52616365206e6f742066696e6973686564000000000000000000000000000000600082015250565b7f526573756c7420616c7265616479207265717565737465640000000000000000600082015250565b7f526163652066696e697368656400000000000000000000000000000000000000600082015250565b7f496e76616c696420726163652049440000000000000000000000000000000000600082015250565b7f5261636520726573756c7420616c72656164792066756c66696c6c6564000000600082015250565b7f52616365206973206e6f742066696e6973686564000000000000000000000000600082015250565b7f42657420616c7265616479207061696400000000000000000000000000000000600082015250565b612a8281612653565b8114612a8d57600080fd5b50565b612a99816126a9565b8114612aa457600080fd5b5056fea26469706673582212200ded8db2373c4e8ee8970b302871f5deef124d863d1a5cf77ae3062f3bc61dc364736f6c63430008070033",
  "devdoc": {
    "kind": "dev",
    "methods": {},
    "title": "An betting game with exotic bet types",
    "version": 1
  },
  "userdoc": {
    "events": {
      "Payout(uint256,address,uint256,uint256[],uint256)": {
        "notice": "emitted when a bet is cashed out."
      },
      "RaceEnd(uint256,uint256,uint256)": {
        "notice": "emitted when a race ends."
      },
      "RaceStart(uint256,uint256)": {
        "notice": "emitted when a race starts."
      },
      "Wagered(uint256,address,uint256,uint256[],uint256)": {
        "notice": "emitted when a new bet is placed on a race."
      }
    },
    "kind": "user",
    "methods": {
      "bet(address,uint256)": {
        "notice": "mapping of address to list of bets."
      },
      "endRace(uint256)": {
        "notice": "End the race and request result from VRF."
      },
      "fee()": {
        "notice": "Fee paramaters."
      },
      "frequency()": {
        "notice": "How often races take place."
      },
      "nextRaceId()": {
        "notice": "The time of the next race to take place."
      },
      "odds(uint256,uint256[])": {
        "notice": "Get the current odds for a prediction."
      },
      "payout(uint256)": {
        "notice": "Cash out a winning bet."
      },
      "placeBet(uint256,uint256[])": {
        "notice": "Place a bet."
      },
      "race(uint256)": {
        "notice": "The state for each race."
      },
      "raceResult(uint256)": {
        "notice": "Return the results for a race."
      },
      "start()": {
        "notice": "The datetime of the first race."
      },
      "userBet(address,uint256)": {
        "notice": "Returns a users bet with given id."
      },
      "userBetCount(address)": {
        "notice": "Return the amount of bets a user has made."
      }
    },
    "version": 1
  },
  "storageLayout": {
    "storage": [
      {
        "astId": 157,
        "contract": "contracts/Exotic.sol:Exotic",
        "label": "COORDINATOR",
        "offset": 0,
        "slot": "0",
        "type": "t_contract(VRFCoordinatorV2Interface)146"
      },
      {
        "astId": 159,
        "contract": "contracts/Exotic.sol:Exotic",
        "label": "s_subscriptionId",
        "offset": 20,
        "slot": "0",
        "type": "t_uint64"
      },
      {
        "astId": 161,
        "contract": "contracts/Exotic.sol:Exotic",
        "label": "vrfCoordinator",
        "offset": 0,
        "slot": "1",
        "type": "t_address"
      },
      {
        "astId": 164,
        "contract": "contracts/Exotic.sol:Exotic",
        "label": "keyHash",
        "offset": 0,
        "slot": "2",
        "type": "t_bytes32"
      },
      {
        "astId": 167,
        "contract": "contracts/Exotic.sol:Exotic",
        "label": "callbackGasLimit",
        "offset": 0,
        "slot": "3",
        "type": "t_uint32"
      },
      {
        "astId": 170,
        "contract": "contracts/Exotic.sol:Exotic",
        "label": "requestConfirmations",
        "offset": 4,
        "slot": "3",
        "type": "t_uint16"
      },
      {
        "astId": 173,
        "contract": "contracts/Exotic.sol:Exotic",
        "label": "numWords",
        "offset": 6,
        "slot": "3",
        "type": "t_uint32"
      },
      {
        "astId": 175,
        "contract": "contracts/Exotic.sol:Exotic",
        "label": "balance",
        "offset": 0,
        "slot": "4",
        "type": "t_uint256"
      },
      {
        "astId": 185,
        "contract": "contracts/Exotic.sol:Exotic",
        "label": "fee",
        "offset": 0,
        "slot": "5",
        "type": "t_uint256"
      },
      {
        "astId": 187,
        "contract": "contracts/Exotic.sol:Exotic",
        "label": "jackpotContribution",
        "offset": 0,
        "slot": "6",
        "type": "t_uint256"
      },
      {
        "astId": 189,
        "contract": "contracts/Exotic.sol:Exotic",
        "label": "feeAddress",
        "offset": 0,
        "slot": "7",
        "type": "t_address"
      },
      {
        "astId": 191,
        "contract": "contracts/Exotic.sol:Exotic",
        "label": "jackpotAddress",
        "offset": 0,
        "slot": "8",
        "type": "t_address"
      },
      {
        "astId": 224,
        "contract": "contracts/Exotic.sol:Exotic",
        "label": "race",
        "offset": 0,
        "slot": "9",
        "type": "t_mapping(t_uint256,t_struct(Race)218_storage)"
      },
      {
        "astId": 231,
        "contract": "contracts/Exotic.sol:Exotic",
        "label": "bet",
        "offset": 0,
        "slot": "10",
        "type": "t_mapping(t_address,t_array(t_struct(Bet)203_storage)dyn_storage)"
      },
      {
        "astId": 236,
        "contract": "contracts/Exotic.sol:Exotic",
        "label": "requestIdRace",
        "offset": 0,
        "slot": "11",
        "type": "t_mapping(t_uint256,t_uint256)"
      }
    ],
    "types": {
      "t_address": {
        "encoding": "inplace",
        "label": "address",
        "numberOfBytes": "20"
      },
      "t_array(t_array(t_uint256)6_storage)3_storage": {
        "base": "t_array(t_uint256)6_storage",
        "encoding": "inplace",
        "label": "uint256[6][3]",
        "numberOfBytes": "576"
      },
      "t_array(t_struct(Bet)203_storage)dyn_storage": {
        "base": "t_struct(Bet)203_storage",
        "encoding": "dynamic_array",
        "label": "struct Exotic.Bet[]",
        "numberOfBytes": "32"
      },
      "t_array(t_uint256)6_storage": {
        "base": "t_uint256",
        "encoding": "inplace",
        "label": "uint256[6]",
        "numberOfBytes": "192"
      },
      "t_array(t_uint256)dyn_storage": {
        "base": "t_uint256",
        "encoding": "dynamic_array",
        "label": "uint256[]",
        "numberOfBytes": "32"
      },
      "t_bool": {
        "encoding": "inplace",
        "label": "bool",
        "numberOfBytes": "1"
      },
      "t_bytes32": {
        "encoding": "inplace",
        "label": "bytes32",
        "numberOfBytes": "32"
      },
      "t_contract(VRFCoordinatorV2Interface)146": {
        "encoding": "inplace",
        "label": "contract VRFCoordinatorV2Interface",
        "numberOfBytes": "20"
      },
      "t_mapping(t_address,t_array(t_struct(Bet)203_storage)dyn_storage)": {
        "encoding": "mapping",
        "key": "t_address",
        "label": "mapping(address => struct Exotic.Bet[])",
        "numberOfBytes": "32",
        "value": "t_array(t_struct(Bet)203_storage)dyn_storage"
      },
      "t_mapping(t_uint256,t_struct(Race)218_storage)": {
        "encoding": "mapping",
        "key": "t_uint256",
        "label": "mapping(uint256 => struct Exotic.Race)",
        "numberOfBytes": "32",
        "value": "t_struct(Race)218_storage"
      },
      "t_mapping(t_uint256,t_uint256)": {
        "encoding": "mapping",
        "key": "t_uint256",
        "label": "mapping(uint256 => uint256)",
        "numberOfBytes": "32",
        "value": "t_uint256"
      },
      "t_struct(Bet)203_storage": {
        "encoding": "inplace",
        "label": "struct Exotic.Bet",
        "members": [
          {
            "astId": 193,
            "contract": "contracts/Exotic.sol:Exotic",
            "label": "raceId",
            "offset": 0,
            "slot": "0",
            "type": "t_uint256"
          },
          {
            "astId": 195,
            "contract": "contracts/Exotic.sol:Exotic",
            "label": "amount",
            "offset": 0,
            "slot": "1",
            "type": "t_uint256"
          },
          {
            "astId": 197,
            "contract": "contracts/Exotic.sol:Exotic",
            "label": "account",
            "offset": 0,
            "slot": "2",
            "type": "t_address"
          },
          {
            "astId": 200,
            "contract": "contracts/Exotic.sol:Exotic",
            "label": "place",
            "offset": 0,
            "slot": "3",
            "type": "t_array(t_uint256)dyn_storage"
          },
          {
            "astId": 202,
            "contract": "contracts/Exotic.sol:Exotic",
            "label": "paid",
            "offset": 0,
            "slot": "4",
            "type": "t_bool"
          }
        ],
        "numberOfBytes": "160"
      },
      "t_struct(Race)218_storage": {
        "encoding": "inplace",
        "label": "struct Exotic.Race",
        "members": [
          {
            "astId": 205,
            "contract": "contracts/Exotic.sol:Exotic",
            "label": "totalWagered",
            "offset": 0,
            "slot": "0",
            "type": "t_uint256"
          },
          {
            "astId": 207,
            "contract": "contracts/Exotic.sol:Exotic",
            "label": "paid",
            "offset": 0,
            "slot": "1",
            "type": "t_uint256"
          },
          {
            "astId": 209,
            "contract": "contracts/Exotic.sol:Exotic",
            "label": "result",
            "offset": 0,
            "slot": "2",
            "type": "t_uint256"
          },
          {
            "astId": 211,
            "contract": "contracts/Exotic.sol:Exotic",
            "label": "requestId",
            "offset": 0,
            "slot": "3",
            "type": "t_uint256"
          },
          {
            "astId": 217,
            "contract": "contracts/Exotic.sol:Exotic",
            "label": "weights",
            "offset": 0,
            "slot": "4",
            "type": "t_array(t_array(t_uint256)6_storage)3_storage"
          }
        ],
        "numberOfBytes": "704"
      },
      "t_uint16": {
        "encoding": "inplace",
        "label": "uint16",
        "numberOfBytes": "2"
      },
      "t_uint256": {
        "encoding": "inplace",
        "label": "uint256",
        "numberOfBytes": "32"
      },
      "t_uint32": {
        "encoding": "inplace",
        "label": "uint32",
        "numberOfBytes": "4"
      },
      "t_uint64": {
        "encoding": "inplace",
        "label": "uint64",
        "numberOfBytes": "8"
      }
    }
  }
}