{
  "address": "0x47E2fc75c8E7c6236e799E6A3005286cbbfDCb23",
  "abi": [
    {
      "inputs": [
        {
          "internalType": "uint64",
          "name": "subscriptionId",
          "type": "uint64"
        },
        {
          "internalType": "address",
          "name": "_vrfCoordinator",
          "type": "address"
        }
      ],
      "stateMutability": "nonpayable",
      "type": "constructor"
    },
    {
      "inputs": [
        {
          "internalType": "address",
          "name": "have",
          "type": "address"
        },
        {
          "internalType": "address",
          "name": "want",
          "type": "address"
        }
      ],
      "name": "OnlyCoordinatorCanFulfill",
      "type": "error"
    },
    {
      "anonymous": false,
      "inputs": [
        {
          "indexed": true,
          "internalType": "uint256",
          "name": "raceId",
          "type": "uint256"
        },
        {
          "indexed": true,
          "internalType": "address",
          "name": "to",
          "type": "address"
        },
        {
          "indexed": false,
          "internalType": "uint256",
          "name": "amount",
          "type": "uint256"
        },
        {
          "indexed": false,
          "internalType": "uint256[]",
          "name": "prediction",
          "type": "uint256[]"
        },
        {
          "indexed": false,
          "internalType": "uint256",
          "name": "payout",
          "type": "uint256"
        }
      ],
      "name": "Payout",
      "type": "event"
    },
    {
      "anonymous": false,
      "inputs": [
        {
          "indexed": true,
          "internalType": "uint256",
          "name": "raceId",
          "type": "uint256"
        },
        {
          "indexed": false,
          "internalType": "uint256",
          "name": "totalValue",
          "type": "uint256"
        },
        {
          "indexed": false,
          "internalType": "uint256",
          "name": "result",
          "type": "uint256"
        }
      ],
      "name": "RaceEnd",
      "type": "event"
    },
    {
      "anonymous": false,
      "inputs": [
        {
          "indexed": true,
          "internalType": "uint256",
          "name": "raceId",
          "type": "uint256"
        },
        {
          "indexed": false,
          "internalType": "uint256",
          "name": "totalValue",
          "type": "uint256"
        }
      ],
      "name": "RaceStart",
      "type": "event"
    },
    {
      "anonymous": false,
      "inputs": [
        {
          "indexed": true,
          "internalType": "uint256",
          "name": "raceId",
          "type": "uint256"
        },
        {
          "indexed": true,
          "internalType": "address",
          "name": "from",
          "type": "address"
        },
        {
          "indexed": false,
          "internalType": "uint256",
          "name": "amount",
          "type": "uint256"
        },
        {
          "indexed": false,
          "internalType": "uint256[]",
          "name": "prediction",
          "type": "uint256[]"
        },
        {
          "indexed": false,
          "internalType": "uint256",
          "name": "poolTotal",
          "type": "uint256"
        }
      ],
      "name": "Wagered",
      "type": "event"
    },
    {
      "inputs": [
        {
          "internalType": "address",
          "name": "",
          "type": "address"
        },
        {
          "internalType": "uint256",
          "name": "",
          "type": "uint256"
        }
      ],
      "name": "bet",
      "outputs": [
        {
          "internalType": "uint256",
          "name": "raceId",
          "type": "uint256"
        },
        {
          "internalType": "uint256",
          "name": "amount",
          "type": "uint256"
        },
        {
          "internalType": "address",
          "name": "account",
          "type": "address"
        },
        {
          "internalType": "bool",
          "name": "paid",
          "type": "bool"
        }
      ],
      "stateMutability": "view",
      "type": "function"
    },
    {
      "inputs": [
        {
          "internalType": "uint256",
          "name": "raceId",
          "type": "uint256"
        }
      ],
      "name": "endRace",
      "outputs": [],
      "stateMutability": "nonpayable",
      "type": "function"
    },
    {
      "inputs": [],
      "name": "frequency",
      "outputs": [
        {
          "internalType": "uint256",
          "name": "",
          "type": "uint256"
        }
      ],
      "stateMutability": "view",
      "type": "function"
    },
    {
      "inputs": [],
      "name": "nextRaceId",
      "outputs": [
        {
          "internalType": "uint256",
          "name": "",
          "type": "uint256"
        }
      ],
      "stateMutability": "view",
      "type": "function"
    },
    {
      "inputs": [
        {
          "internalType": "uint256",
          "name": "raceId",
          "type": "uint256"
        },
        {
          "internalType": "uint256[]",
          "name": "result",
          "type": "uint256[]"
        }
      ],
      "name": "odds",
      "outputs": [
        {
          "internalType": "uint256",
          "name": "",
          "type": "uint256"
        }
      ],
      "stateMutability": "view",
      "type": "function"
    },
    {
      "inputs": [
        {
          "internalType": "uint256",
          "name": "betId",
          "type": "uint256"
        }
      ],
      "name": "payout",
      "outputs": [],
      "stateMutability": "nonpayable",
      "type": "function"
    },
    {
      "inputs": [
        {
          "internalType": "uint256",
          "name": "raceId",
          "type": "uint256"
        },
        {
          "internalType": "uint256[]",
          "name": "prediction",
          "type": "uint256[]"
        }
      ],
      "name": "placeBet",
      "outputs": [
        {
          "internalType": "uint256",
          "name": "betId",
          "type": "uint256"
        }
      ],
      "stateMutability": "payable",
      "type": "function"
    },
    {
      "inputs": [
        {
          "internalType": "uint256",
          "name": "",
          "type": "uint256"
        }
      ],
      "name": "race",
      "outputs": [
        {
          "internalType": "uint256",
          "name": "fee",
          "type": "uint256"
        },
        {
          "internalType": "uint256",
          "name": "totalWagered",
          "type": "uint256"
        },
        {
          "internalType": "uint256",
          "name": "paid",
          "type": "uint256"
        },
        {
          "internalType": "uint256",
          "name": "result",
          "type": "uint256"
        },
        {
          "internalType": "uint256",
          "name": "requestId",
          "type": "uint256"
        }
      ],
      "stateMutability": "view",
      "type": "function"
    },
    {
      "inputs": [
        {
          "internalType": "uint256",
          "name": "raceId",
          "type": "uint256"
        }
      ],
      "name": "raceResult",
      "outputs": [
        {
          "internalType": "uint256[6]",
          "name": "",
          "type": "uint256[6]"
        }
      ],
      "stateMutability": "view",
      "type": "function"
    },
    {
      "inputs": [
        {
          "internalType": "uint256",
          "name": "requestId",
          "type": "uint256"
        },
        {
          "internalType": "uint256[]",
          "name": "randomWords",
          "type": "uint256[]"
        }
      ],
      "name": "rawFulfillRandomWords",
      "outputs": [],
      "stateMutability": "nonpayable",
      "type": "function"
    },
    {
      "inputs": [],
      "name": "start",
      "outputs": [
        {
          "internalType": "uint256",
          "name": "",
          "type": "uint256"
        }
      ],
      "stateMutability": "view",
      "type": "function"
    }
  ],
  "transactionHash": "0x3edfec2f3b478a85280482a61062bf2e58e684c9bb47379ccfc5685ad90bb72a",
  "args": [
    167,
    "0x2eD832Ba664535e5886b75D64C46EB9a228C2610"
  ],
  "numDeployments": 4,
  "solcInputHash": "526a09ca514c4f2f118a83c4e36ac88f",
  "bytecode": "0x60c06040527f354d2f95da55398f44b7cff77da56283d9c6c829a4bdf1bbcaf2ad6a4d081f6160001b60025562030d40600360006101000a81548163ffffffff021916908363ffffffff16021790555060038060046101000a81548161ffff021916908361ffff1602179055506001600360066101000a81548163ffffffff021916908363ffffffff1602179055503480156200009b57600080fd5b50604051620027b8380380620027b88339818101604052810190620000c19190620001a1565b808073ffffffffffffffffffffffffffffffffffffffff1660808173ffffffffffffffffffffffffffffffffffffffff1660601b8152505050806000806101000a81548173ffffffffffffffffffffffffffffffffffffffff021916908373ffffffffffffffffffffffffffffffffffffffff1602179055504260a0818152505081600060146101000a81548167ffffffffffffffff021916908367ffffffffffffffff160217905550505062000269565b600081519050620001848162000235565b92915050565b6000815190506200019b816200024f565b92915050565b60008060408385031215620001bb57620001ba62000230565b5b6000620001cb858286016200018a565b9250506020620001de8582860162000173565b9150509250929050565b6000620001f582620001fc565b9050919050565b600073ffffffffffffffffffffffffffffffffffffffff82169050919050565b600067ffffffffffffffff82169050919050565b600080fd5b6200024081620001e8565b81146200024c57600080fd5b50565b6200025a816200021c565b81146200026657600080fd5b50565b60805160601c60a051612518620002a060003960008181610c8301526112c201526000818161052a015261057e01526125186000f3fe60806040526004361061009c5760003560e01c8063be9a655511610064578063be9a6555146101a1578063d149221b146101cc578063d9b8fd8f14610209578063e115234314610234578063ead50da31461025d578063f846cabc146102885761009c565b8063052608c9146100a15780631fe543e3146100ca57806330d14655146100f3578063b71455ee14610123578063b7dda85e14610160575b600080fd5b3480156100ad57600080fd5b506100c860048036038101906100c39190611712565b6102c8565b005b3480156100d657600080fd5b506100f160048036038101906100ec91906117cc565b610528565b005b61010d6004803603810190610108919061176c565b6105e8565b60405161011a9190611d48565b60405180910390f35b34801561012f57600080fd5b5061014a60048036038101906101459190611712565b6109dc565b6040516101579190611b7a565b60405180910390f35b34801561016c57600080fd5b5061018760048036038101906101829190611712565b610c4b565b604051610198959493929190611e4f565b60405180910390f35b3480156101ad57600080fd5b506101b6610c81565b6040516101c39190611d48565b60405180910390f35b3480156101d857600080fd5b506101f360048036038101906101ee91906117cc565b610ca5565b6040516102009190611d48565b60405180910390f35b34801561021557600080fd5b5061021e610eaa565b60405161022b9190611d48565b60405180910390f35b34801561024057600080fd5b5061025b60048036038101906102569190611712565b610ed5565b005b34801561026957600080fd5b506102726111f2565b60405161027f9190611d48565b60405180910390f35b34801561029457600080fd5b506102af60048036038101906102aa91906116d2565b6111f7565b6040516102bf9493929190611e0a565b60405180910390f35b6102d181611271565b60b4816102de9190611f6f565b421161031f576040517f08c379a000000000000000000000000000000000000000000000000000000000815260040161031690611c68565b60405180910390fd5b6000600560008381526020019081526020016000209050600081600401541461037d576040517f08c379a000000000000000000000000000000000000000000000000000000000815260040161037490611c88565b60405180910390fd5b60008160030154146103c4576040517f08c379a00000000000000000000000000000000000000000000000000000000081526004016103bb90611ce8565b60405180910390fd5b60008060009054906101000a900473ffffffffffffffffffffffffffffffffffffffff1673ffffffffffffffffffffffffffffffffffffffff16635d3b1d30600254600060149054906101000a900467ffffffffffffffff16600360049054906101000a900461ffff16600360009054906101000a900463ffffffff16600360069054906101000a900463ffffffff166040518663ffffffff1660e01b8152600401610474959493929190611b95565b602060405180830381600087803b15801561048e57600080fd5b505af11580156104a2573d6000803e3d6000fd5b505050506040513d601f19601f820116820180604052508101906104c6919061173f565b9050808260040181905550826007600083815260200190815260200160002081905550827f727aed3ef5e1b948e78407c8b942fb3193ebc5901b4bc951faa6568c90b7849560045460405161051b9190611d48565b60405180910390a2505050565b7f000000000000000000000000000000000000000000000000000000000000000073ffffffffffffffffffffffffffffffffffffffff163373ffffffffffffffffffffffffffffffffffffffff16146105da57337f00000000000000000000000000000000000000000000000000000000000000006040517f1cf993f40000000000000000000000000000000000000000000000000000000081526004016105d1929190611b51565b60405180910390fd5b6105e482826113d5565b5050565b60006105f384611271565b60018383905014610639576040517f08c379a000000000000000000000000000000000000000000000000000000000815260040161063090611c28565b60405180910390fd5b6106416114cc565b848160000181815250503481602001818152505033816040019073ffffffffffffffffffffffffffffffffffffffff16908173ffffffffffffffffffffffffffffffffffffffff1681525050600660003373ffffffffffffffffffffffffffffffffffffffff1673ffffffffffffffffffffffffffffffffffffffff168152602001908152602001600020819080600181540180825580915050600190039060005260206000209060050201600090919091909150600082015181600001556020820151816001015560408201518160020160006101000a81548173ffffffffffffffffffffffffffffffffffffffff021916908373ffffffffffffffffffffffffffffffffffffffff160217905550606082015181600301908051906020019061076d929190611513565b5060808201518160040160006101000a81548160ff0219169083151502179055505050600660003373ffffffffffffffffffffffffffffffffffffffff1673ffffffffffffffffffffffffffffffffffffffff1681526020019081526020016000206001600660003373ffffffffffffffffffffffffffffffffffffffff1673ffffffffffffffffffffffffffffffffffffffff1681526020019081526020016000208054905061081e9190612050565b8154811061082f5761082e612244565b5b90600052602060002090600502016003018484600081811061085457610853612244565b5b905060200201359080600181540180825580915050600190039060005260206000200160009091909190915055600060056000878152602001908152602001600020905034816005016000600381106108b0576108af612244565b5b60060201868660008181106108c8576108c7612244565b5b90506020020135600681106108e0576108df612244565b5b0160008282546108f09190611f6f565b925050819055503481600101600082825461090b9190611f6f565b9250508190555034600460008282546109249190611f6f565b925050819055503373ffffffffffffffffffffffffffffffffffffffff16867fed7146643be17948fcb4400f9980c37ef3404baf91823ef51782e2c6673266f634888860045460405161097a9493929190611d63565b60405180910390a36001600660003373ffffffffffffffffffffffffffffffffffffffff1673ffffffffffffffffffffffffffffffffffffffff168152602001908152602001600020805490506109d19190612050565b925050509392505050565b6109e4611560565b6000600560008481526020019081526020016000206040518060c0016040529081600082015481526020016001820154815260200160028201548152602001600382015481526020016004820154815260200160058201600380602002604051908101604052809291906000905b82821015610aab57838260060201600680602002604051908101604052809291908260068015610a97576020028201915b815481526020019060010190808311610a83575b505050505081526020019060010190610a52565b50505050815250509050600081606001511415610afd576040517f08c379a0000000000000000000000000000000000000000000000000000000008152600401610af490611d08565b60405180910390fd5b610b05611560565b600080600090505b6006811015610b6a578360a00151600060038110610b2e57610b2d612244565b5b60200201518160068110610b4557610b44612244565b5b602002015182610b559190611f6f565b91508080610b629061216c565b915050610b0d565b6000828560600151610b7c91906121b5565b905060005b6006811015610c3d57818660a00151600060038110610ba357610ba2612244565b5b60200201518260068110610bba57610bb9612244565b5b60200201511115610be8578085600060068110610bda57610bd9612244565b5b602002018181525050610c2a565b8560a00151600060038110610c0057610bff612244565b5b60200201518160068110610c1757610c16612244565b5b602002015182610c279190612050565b91505b8080610c359061216c565b915050610b81565b849650505050505050919050565b60056020528060005260406000206000915090508060000154908060010154908060020154908060030154908060040154905085565b7f000000000000000000000000000000000000000000000000000000000000000081565b600080600560008581526020019081526020016000206040518060c0016040529081600082015481526020016001820154815260200160028201548152602001600382015481526020016004820154815260200160058201600380602002604051908101604052809291906000905b82821015610d6d57838260060201600680602002604051908101604052809291908260068015610d59576020028201915b815481526020019060010190808311610d45575b505050505081526020019060010190610d14565b505050508152505090506001835114610dbb576040517f08c379a0000000000000000000000000000000000000000000000000000000008152600401610db290611c28565b60405180910390fd5b600080600090505b6006811015610e20578260a00151600060038110610de457610de3612244565b5b60200201518160068110610dfb57610dfa612244565b5b602002015182610e0b9190611f6f565b91508080610e189061216c565b915050610dc3565b6000821415610e3457819350505050610ea4565b816402540be4008460a00151600060038110610e5357610e52612244565b5b602002015187600081518110610e6c57610e6b612244565b5b602002602001015160068110610e8557610e84612244565b5b6020020151610e949190611ff6565b610e9e9190611fc5565b93505050505b92915050565b600060b442610eb991906121b5565b60b4610ec59190612050565b42610ed09190611f6f565b905090565b6000600660003373ffffffffffffffffffffffffffffffffffffffff1673ffffffffffffffffffffffffffffffffffffffff1681526020019081526020016000208281548110610f2857610f27612244565b5b90600052602060002090600502019050600060056000836000015481526020019081526020016000209050600081600301541415610f9b576040517f08c379a0000000000000000000000000000000000000000000000000000000008152600401610f9290611c68565b60405180910390fd5b8160040160009054906101000a900460ff1615610fed576040517f08c379a0000000000000000000000000000000000000000000000000000000008152600401610fe490611d28565b60405180910390fd5b6000610ffc83600001546109dc565b905060005b836003018054905081101561106a5781816006811061102357611022612244565b5b602002015184600301828154811061103e5761103d612244565b5b90600052602060002001541461105757505050506111ef565b80806110629061216c565b915050611001565b60006110cc8560000154866003018054806020026020016040519081016040528092919081815260200182805480156110c257602002820191906000526020600020905b8154815260200190600101908083116110ae575b5050505050610ca5565b90506000816402540be40087600101546110e69190611ff6565b6110f09190611fc5565b905060018660040160006101000a81548160ff021916908315150217905550808560020160008282546111239190611f6f565b92505081905550806004600082825461113c9190612050565b925050819055503373ffffffffffffffffffffffffffffffffffffffff1686600001547fef0068ac9e6ad3b19d182459af297eb4d144e7721b87c619278bed0fcd0bd5dc8860010154896003018560405161119993929190611da3565b60405180910390a33373ffffffffffffffffffffffffffffffffffffffff166108fc829081150290604051600060405180830381858888f193505050501580156111e7573d6000803e3d6000fd5b505050505050505b50565b60b481565b6006602052816000526040600020818154811061121357600080fd5b9060005260206000209060050201600091509150508060000154908060010154908060020160009054906101000a900473ffffffffffffffffffffffffffffffffffffffff16908060040160009054906101000a900460ff16905084565b600060b48261128091906121b5565b146112c0576040517f08c379a00000000000000000000000000000000000000000000000000000000081526004016112b790611cc8565b60405180910390fd5b7f0000000000000000000000000000000000000000000000000000000000000000811015611323576040517f08c379a000000000000000000000000000000000000000000000000000000000815260040161131a90611c08565b60405180910390fd5b600060056000838152602001908152602001600020600301541461137c576040517f08c379a000000000000000000000000000000000000000000000000000000000815260040161137390611ca8565b60405180910390fd5b60006007600083815260200190815260200160002054146113d2576040517f08c379a00000000000000000000000000000000000000000000000000000000081526004016113c990611c48565b60405180910390fd5b50565b6000600760008481526020019081526020016000205490506000600560008381526020019081526020016000209050600081600301541461144b576040517f08c379a000000000000000000000000000000000000000000000000000000000815260040161144290611be8565b60405180910390fd5b8260008151811061145f5761145e612244565b5b60200260200101518160030181905550817f7554ff21c11af92d9ed24a3625daa96a85ebe3a0a3c44c44cb080cb400c42d98600454856000815181106114a8576114a7612244565b5b60200260200101516040516114be929190611de1565b60405180910390a250505050565b6040518060a001604052806000815260200160008152602001600073ffffffffffffffffffffffffffffffffffffffff168152602001606081526020016000151581525090565b82805482825590600052602060002090810192821561154f579160200282015b8281111561154e578251825591602001919060010190611533565b5b50905061155c9190611582565b5090565b6040518060c00160405280600690602082028036833780820191505090505090565b5b8082111561159b576000816000905550600101611583565b5090565b60006115b26115ad84611ec7565b611ea2565b905080838252602082019050828560208602820111156115d5576115d46122bf565b5b60005b8581101561160557816115eb88826116a8565b8452602084019350602083019250506001810190506115d8565b5050509392505050565b60008135905061161e816124b4565b92915050565b60008083601f84011261163a576116396122ba565b5b8235905067ffffffffffffffff811115611657576116566122b5565b5b602083019150836020820283011115611673576116726122bf565b5b9250929050565b600082601f83011261168f5761168e6122ba565b5b813561169f84826020860161159f565b91505092915050565b6000813590506116b7816124cb565b92915050565b6000815190506116cc816124cb565b92915050565b600080604083850312156116e9576116e86122ce565b5b60006116f78582860161160f565b9250506020611708858286016116a8565b9150509250929050565b600060208284031215611728576117276122ce565b5b6000611736848285016116a8565b91505092915050565b600060208284031215611755576117546122ce565b5b6000611763848285016116bd565b91505092915050565b600080600060408486031215611785576117846122ce565b5b6000611793868287016116a8565b935050602084013567ffffffffffffffff8111156117b4576117b36122c4565b5b6117c086828701611624565b92509250509250925092565b600080604083850312156117e3576117e26122ce565b5b60006117f1858286016116a8565b925050602083013567ffffffffffffffff811115611812576118116122c4565b5b61181e8582860161167a565b9150509250929050565b60006118348383611b15565b60208301905092915050565b6118498161208e565b82525050565b61185881611f12565b6118628184611f42565b925061186d82611ef3565b8060005b8381101561189e5781516118858782611828565b965061189083611f28565b925050600181019050611871565b505050505050565b60006118b28385611f4d565b93507f07ffffffffffffffffffffffffffffffffffffffffffffffffffffffffffffff8311156118e5576118e46122c9565b5b6020830292506118f6838584612112565b82840190509392505050565b600061190d82611f1d565b6119178185611f4d565b935061192283611efd565b8060005b8381101561195a57611937826122a2565b6119418882611828565b975061194c83611f35565b925050600181019050611926565b5085935050505092915050565b611970816120a0565b82525050565b61197f816120ac565b82525050565b6000611992601c83611f5e565b915061199d826122f1565b602082019050919050565b60006119b5601683611f5e565b91506119c08261231a565b602082019050919050565b60006119d8602083611f5e565b91506119e382612343565b602082019050919050565b60006119fb600d83611f5e565b9150611a068261236c565b602082019050919050565b6000611a1e601183611f5e565b9150611a2982612395565b602082019050919050565b6000611a41601883611f5e565b9150611a4c826123be565b602082019050919050565b6000611a64600d83611f5e565b9150611a6f826123e7565b602082019050919050565b6000611a87600f83611f5e565b9150611a9282612410565b602082019050919050565b6000611aaa601d83611f5e565b9150611ab582612439565b602082019050919050565b6000611acd601483611f5e565b9150611ad882612462565b602082019050919050565b6000611af0601083611f5e565b9150611afb8261248b565b602082019050919050565b611b0f816120b6565b82525050565b611b1e816120e4565b82525050565b611b2d816120e4565b82525050565b611b3c816120ee565b82525050565b611b4b816120fe565b82525050565b6000604082019050611b666000830185611840565b611b736020830184611840565b9392505050565b600060c082019050611b8f600083018461184f565b92915050565b600060a082019050611baa6000830188611976565b611bb76020830187611b42565b611bc46040830186611b06565b611bd16060830185611b33565b611bde6080830184611b33565b9695505050505050565b60006020820190508181036000830152611c0181611985565b9050919050565b60006020820190508181036000830152611c21816119a8565b9050919050565b60006020820190508181036000830152611c41816119cb565b9050919050565b60006020820190508181036000830152611c61816119ee565b9050919050565b60006020820190508181036000830152611c8181611a11565b9050919050565b60006020820190508181036000830152611ca181611a34565b9050919050565b60006020820190508181036000830152611cc181611a57565b9050919050565b60006020820190508181036000830152611ce181611a7a565b9050919050565b60006020820190508181036000830152611d0181611a9d565b9050919050565b60006020820190508181036000830152611d2181611ac0565b9050919050565b60006020820190508181036000830152611d4181611ae3565b9050919050565b6000602082019050611d5d6000830184611b24565b92915050565b6000606082019050611d786000830187611b24565b8181036020830152611d8b8185876118a6565b9050611d9a6040830184611b24565b95945050505050565b6000606082019050611db86000830186611b24565b8181036020830152611dca8185611902565b9050611dd96040830184611b24565b949350505050565b6000604082019050611df66000830185611b24565b611e036020830184611b24565b9392505050565b6000608082019050611e1f6000830187611b24565b611e2c6020830186611b24565b611e396040830185611840565b611e466060830184611967565b95945050505050565b600060a082019050611e646000830188611b24565b611e716020830187611b24565b611e7e6040830186611b24565b611e8b6060830185611b24565b611e986080830184611b24565b9695505050505050565b6000611eac611ebd565b9050611eb8828261213b565b919050565b6000604051905090565b600067ffffffffffffffff821115611ee257611ee1612273565b5b602082029050602081019050919050565b6000819050919050565b60008190508160005260206000209050919050565b600060069050919050565b600081549050919050565b6000602082019050919050565b6000600182019050919050565b600081905092915050565b600082825260208201905092915050565b600082825260208201905092915050565b6000611f7a826120e4565b9150611f85836120e4565b9250827fffffffffffffffffffffffffffffffffffffffffffffffffffffffffffffffff03821115611fba57611fb96121e6565b5b828201905092915050565b6000611fd0826120e4565b9150611fdb836120e4565b925082611feb57611fea612215565b5b828204905092915050565b6000612001826120e4565b915061200c836120e4565b9250817fffffffffffffffffffffffffffffffffffffffffffffffffffffffffffffffff0483118215151615612045576120446121e6565b5b828202905092915050565b600061205b826120e4565b9150612066836120e4565b925082821015612079576120786121e6565b5b828203905092915050565b6000819050919050565b6000612099826120c4565b9050919050565b60008115159050919050565b6000819050919050565b600061ffff82169050919050565b600073ffffffffffffffffffffffffffffffffffffffff82169050919050565b6000819050919050565b600063ffffffff82169050919050565b600067ffffffffffffffff82169050919050565b82818337600083830152505050565b600061213461212f836122e4565b612084565b9050919050565b612144826122d3565b810181811067ffffffffffffffff8211171561216357612162612273565b5b80604052505050565b6000612177826120e4565b91507fffffffffffffffffffffffffffffffffffffffffffffffffffffffffffffffff8214156121aa576121a96121e6565b5b600182019050919050565b60006121c0826120e4565b91506121cb836120e4565b9250826121db576121da612215565b5b828206905092915050565b7f4e487b7100000000000000000000000000000000000000000000000000000000600052601160045260246000fd5b7f4e487b7100000000000000000000000000000000000000000000000000000000600052601260045260246000fd5b7f4e487b7100000000000000000000000000000000000000000000000000000000600052603260045260246000fd5b7f4e487b7100000000000000000000000000000000000000000000000000000000600052604160045260246000fd5b60006122ae8254612121565b9050919050565b600080fd5b600080fd5b600080fd5b600080fd5b600080fd5b600080fd5b6000601f19601f8301169050919050565b60008160001c9050919050565b7f52616e646f6d6e65737320616c72656164792066756c66696c6c656400000000600082015250565b7f4c6976696e6720696e2074686520706173742062726f00000000000000000000600082015250565b7f4f6e6c792077696e206265742063757272656e746c7920737570706f72746564600082015250565b7f526163652066696e6973696e6700000000000000000000000000000000000000600082015250565b7f52616365206e6f742066696e6973686564000000000000000000000000000000600082015250565b7f526573756c7420616c7265616479207265717565737465640000000000000000600082015250565b7f526163652066696e697368656400000000000000000000000000000000000000600082015250565b7f496e76616c696420726163652049440000000000000000000000000000000000600082015250565b7f5261636520726573756c7420616c72656164792066756c66696c6c6564000000600082015250565b7f52616365206973206e6f742066696e6973686564000000000000000000000000600082015250565b7f42657420616c7265616479207061696400000000000000000000000000000000600082015250565b6124bd8161208e565b81146124c857600080fd5b50565b6124d4816120e4565b81146124df57600080fd5b5056fea2646970667358221220425ed81c288f55d84d3c3eb98c12240f4b490c70e5e7ec8a181014866fb7d6e764736f6c63430008070033",
  "devdoc": {
    "kind": "dev",
    "methods": {},
    "title": "An betting game with exotic bet types",
    "version": 1
  },
  "userdoc": {
    "events": {
      "Payout(uint256,address,uint256,uint256[],uint256)": {
        "notice": "emitted when a bet is cashed out."
      },
      "RaceEnd(uint256,uint256,uint256)": {
        "notice": "emitted when a race ends."
      },
      "RaceStart(uint256,uint256)": {
        "notice": "emitted when a race starts."
      },
      "Wagered(uint256,address,uint256,uint256[],uint256)": {
        "notice": "emitted when a new bet is placed on a race."
      }
    },
    "kind": "user",
    "methods": {
      "bet(address,uint256)": {
        "notice": "mapping of address to list of bets."
      },
      "endRace(uint256)": {
        "notice": "End the race and request result from VRF."
      },
      "frequency()": {
        "notice": "How often races take place."
      },
      "nextRaceId()": {
        "notice": "The time of the next race to take place."
      },
      "odds(uint256,uint256[])": {
        "notice": "Get the current odds for a prediction."
      },
      "payout(uint256)": {
        "notice": "Cash out a winning bet."
      },
      "placeBet(uint256,uint256[])": {
        "notice": "Place a bet."
      },
      "race(uint256)": {
        "notice": "The state for each race."
      },
      "raceResult(uint256)": {
        "notice": "Return the results for a race."
      },
      "start()": {
        "notice": "The datetime of the first race."
      }
    },
    "version": 1
  },
  "storageLayout": {
    "storage": [
      {
        "astId": 157,
        "contract": "contracts/Exotic.sol:Exotic",
        "label": "COORDINATOR",
        "offset": 0,
        "slot": "0",
        "type": "t_contract(VRFCoordinatorV2Interface)146"
      },
      {
        "astId": 159,
        "contract": "contracts/Exotic.sol:Exotic",
        "label": "s_subscriptionId",
        "offset": 20,
        "slot": "0",
        "type": "t_uint64"
      },
      {
        "astId": 161,
        "contract": "contracts/Exotic.sol:Exotic",
        "label": "vrfCoordinator",
        "offset": 0,
        "slot": "1",
        "type": "t_address"
      },
      {
        "astId": 164,
        "contract": "contracts/Exotic.sol:Exotic",
        "label": "keyHash",
        "offset": 0,
        "slot": "2",
        "type": "t_bytes32"
      },
      {
        "astId": 167,
        "contract": "contracts/Exotic.sol:Exotic",
        "label": "callbackGasLimit",
        "offset": 0,
        "slot": "3",
        "type": "t_uint32"
      },
      {
        "astId": 170,
        "contract": "contracts/Exotic.sol:Exotic",
        "label": "requestConfirmations",
        "offset": 4,
        "slot": "3",
        "type": "t_uint16"
      },
      {
        "astId": 173,
        "contract": "contracts/Exotic.sol:Exotic",
        "label": "numWords",
        "offset": 6,
        "slot": "3",
        "type": "t_uint32"
      },
      {
        "astId": 175,
        "contract": "contracts/Exotic.sol:Exotic",
        "label": "balance",
        "offset": 0,
        "slot": "4",
        "type": "t_uint256"
      },
      {
        "astId": 217,
        "contract": "contracts/Exotic.sol:Exotic",
        "label": "race",
        "offset": 0,
        "slot": "5",
        "type": "t_mapping(t_uint256,t_struct(Race)211_storage)"
      },
      {
        "astId": 224,
        "contract": "contracts/Exotic.sol:Exotic",
        "label": "bet",
        "offset": 0,
        "slot": "6",
        "type": "t_mapping(t_address,t_array(t_struct(Bet)194_storage)dyn_storage)"
      },
      {
        "astId": 229,
        "contract": "contracts/Exotic.sol:Exotic",
        "label": "requestIdRace",
        "offset": 0,
        "slot": "7",
        "type": "t_mapping(t_uint256,t_uint256)"
      }
    ],
    "types": {
      "t_address": {
        "encoding": "inplace",
        "label": "address",
        "numberOfBytes": "20"
      },
      "t_array(t_array(t_uint256)6_storage)3_storage": {
        "base": "t_array(t_uint256)6_storage",
        "encoding": "inplace",
        "label": "uint256[6][3]",
        "numberOfBytes": "576"
      },
      "t_array(t_struct(Bet)194_storage)dyn_storage": {
        "base": "t_struct(Bet)194_storage",
        "encoding": "dynamic_array",
        "label": "struct Exotic.Bet[]",
        "numberOfBytes": "32"
      },
      "t_array(t_uint256)6_storage": {
        "base": "t_uint256",
        "encoding": "inplace",
        "label": "uint256[6]",
        "numberOfBytes": "192"
      },
      "t_array(t_uint256)dyn_storage": {
        "base": "t_uint256",
        "encoding": "dynamic_array",
        "label": "uint256[]",
        "numberOfBytes": "32"
      },
      "t_bool": {
        "encoding": "inplace",
        "label": "bool",
        "numberOfBytes": "1"
      },
      "t_bytes32": {
        "encoding": "inplace",
        "label": "bytes32",
        "numberOfBytes": "32"
      },
      "t_contract(VRFCoordinatorV2Interface)146": {
        "encoding": "inplace",
        "label": "contract VRFCoordinatorV2Interface",
        "numberOfBytes": "20"
      },
      "t_mapping(t_address,t_array(t_struct(Bet)194_storage)dyn_storage)": {
        "encoding": "mapping",
        "key": "t_address",
        "label": "mapping(address => struct Exotic.Bet[])",
        "numberOfBytes": "32",
        "value": "t_array(t_struct(Bet)194_storage)dyn_storage"
      },
      "t_mapping(t_uint256,t_struct(Race)211_storage)": {
        "encoding": "mapping",
        "key": "t_uint256",
        "label": "mapping(uint256 => struct Exotic.Race)",
        "numberOfBytes": "32",
        "value": "t_struct(Race)211_storage"
      },
      "t_mapping(t_uint256,t_uint256)": {
        "encoding": "mapping",
        "key": "t_uint256",
        "label": "mapping(uint256 => uint256)",
        "numberOfBytes": "32",
        "value": "t_uint256"
      },
      "t_struct(Bet)194_storage": {
        "encoding": "inplace",
        "label": "struct Exotic.Bet",
        "members": [
          {
            "astId": 184,
            "contract": "contracts/Exotic.sol:Exotic",
            "label": "raceId",
            "offset": 0,
            "slot": "0",
            "type": "t_uint256"
          },
          {
            "astId": 186,
            "contract": "contracts/Exotic.sol:Exotic",
            "label": "amount",
            "offset": 0,
            "slot": "1",
            "type": "t_uint256"
          },
          {
            "astId": 188,
            "contract": "contracts/Exotic.sol:Exotic",
            "label": "account",
            "offset": 0,
            "slot": "2",
            "type": "t_address"
          },
          {
            "astId": 191,
            "contract": "contracts/Exotic.sol:Exotic",
            "label": "place",
            "offset": 0,
            "slot": "3",
            "type": "t_array(t_uint256)dyn_storage"
          },
          {
            "astId": 193,
            "contract": "contracts/Exotic.sol:Exotic",
            "label": "paid",
            "offset": 0,
            "slot": "4",
            "type": "t_bool"
          }
        ],
        "numberOfBytes": "160"
      },
      "t_struct(Race)211_storage": {
        "encoding": "inplace",
        "label": "struct Exotic.Race",
        "members": [
          {
            "astId": 196,
            "contract": "contracts/Exotic.sol:Exotic",
            "label": "fee",
            "offset": 0,
            "slot": "0",
            "type": "t_uint256"
          },
          {
            "astId": 198,
            "contract": "contracts/Exotic.sol:Exotic",
            "label": "totalWagered",
            "offset": 0,
            "slot": "1",
            "type": "t_uint256"
          },
          {
            "astId": 200,
            "contract": "contracts/Exotic.sol:Exotic",
            "label": "paid",
            "offset": 0,
            "slot": "2",
            "type": "t_uint256"
          },
          {
            "astId": 202,
            "contract": "contracts/Exotic.sol:Exotic",
            "label": "result",
            "offset": 0,
            "slot": "3",
            "type": "t_uint256"
          },
          {
            "astId": 204,
            "contract": "contracts/Exotic.sol:Exotic",
            "label": "requestId",
            "offset": 0,
            "slot": "4",
            "type": "t_uint256"
          },
          {
            "astId": 210,
            "contract": "contracts/Exotic.sol:Exotic",
            "label": "weights",
            "offset": 0,
            "slot": "5",
            "type": "t_array(t_array(t_uint256)6_storage)3_storage"
          }
        ],
        "numberOfBytes": "736"
      },
      "t_uint16": {
        "encoding": "inplace",
        "label": "uint16",
        "numberOfBytes": "2"
      },
      "t_uint256": {
        "encoding": "inplace",
        "label": "uint256",
        "numberOfBytes": "32"
      },
      "t_uint32": {
        "encoding": "inplace",
        "label": "uint32",
        "numberOfBytes": "4"
      },
      "t_uint64": {
        "encoding": "inplace",
        "label": "uint64",
        "numberOfBytes": "8"
      }
    }
  }
}