{
  "address": "0x52a2893009501b522d0E527fa6cFCaF1F611Df33",
  "abi": [
    {
      "anonymous": false,
      "inputs": [
        {
          "indexed": false,
          "internalType": "uint8",
          "name": "version",
          "type": "uint8"
        }
      ],
      "name": "Initialized",
      "type": "event"
    },
    {
      "anonymous": false,
      "inputs": [
        {
          "indexed": false,
          "internalType": "uint256",
          "name": "maxBet",
          "type": "uint256"
        }
      ],
      "name": "MaxBetUpdated",
      "type": "event"
    },
    {
      "anonymous": false,
      "inputs": [
        {
          "indexed": true,
          "internalType": "address",
          "name": "previousOwner",
          "type": "address"
        },
        {
          "indexed": true,
          "internalType": "address",
          "name": "newOwner",
          "type": "address"
        }
      ],
      "name": "OwnershipTransferred",
      "type": "event"
    },
    {
      "anonymous": false,
      "inputs": [
        {
          "indexed": true,
          "internalType": "address",
          "name": "feeAddress",
          "type": "address"
        }
      ],
      "name": "POLAddressUpdated",
      "type": "event"
    },
    {
      "anonymous": false,
      "inputs": [
        {
          "indexed": false,
          "internalType": "uint256",
          "name": "fee",
          "type": "uint256"
        }
      ],
      "name": "POLFeeUpdated",
      "type": "event"
    },
    {
      "anonymous": false,
      "inputs": [
        {
          "indexed": true,
          "internalType": "uint256",
          "name": "raceId",
          "type": "uint256"
        },
        {
          "indexed": true,
          "internalType": "address",
          "name": "to",
          "type": "address"
        },
        {
          "indexed": false,
          "internalType": "uint256",
          "name": "amount",
          "type": "uint256"
        },
        {
          "indexed": false,
          "internalType": "uint256[]",
          "name": "prediction",
          "type": "uint256[]"
        },
        {
          "indexed": false,
          "internalType": "uint256",
          "name": "payout",
          "type": "uint256"
        }
      ],
      "name": "Payout",
      "type": "event"
    },
    {
      "anonymous": false,
      "inputs": [
        {
          "indexed": true,
          "internalType": "uint256",
          "name": "raceId",
          "type": "uint256"
        },
        {
          "indexed": false,
          "internalType": "uint256",
          "name": "totalValue",
          "type": "uint256"
        },
        {
          "indexed": false,
          "internalType": "uint256",
          "name": "result",
          "type": "uint256"
        }
      ],
      "name": "RaceEnd",
      "type": "event"
    },
    {
      "anonymous": false,
      "inputs": [
        {
          "indexed": true,
          "internalType": "uint256",
          "name": "raceId",
          "type": "uint256"
        },
        {
          "indexed": false,
          "internalType": "uint256",
          "name": "totalValue",
          "type": "uint256"
        }
      ],
      "name": "RaceStart",
      "type": "event"
    },
    {
      "anonymous": false,
      "inputs": [
        {
          "indexed": true,
          "internalType": "address",
          "name": "feeAddress",
          "type": "address"
        }
      ],
      "name": "RevenueAddressUpdated",
      "type": "event"
    },
    {
      "anonymous": false,
      "inputs": [
        {
          "indexed": false,
          "internalType": "uint256",
          "name": "fee",
          "type": "uint256"
        }
      ],
      "name": "RevenueFeeUpdated",
      "type": "event"
    },
    {
      "anonymous": false,
      "inputs": [
        {
          "indexed": true,
          "internalType": "uint256",
          "name": "raceId",
          "type": "uint256"
        },
        {
          "indexed": true,
          "internalType": "address",
          "name": "from",
          "type": "address"
        },
        {
          "indexed": false,
          "internalType": "uint256",
          "name": "amount",
          "type": "uint256"
        },
        {
          "indexed": false,
          "internalType": "uint256[]",
          "name": "prediction",
          "type": "uint256[]"
        },
        {
          "indexed": false,
          "internalType": "uint256",
          "name": "poolTotal",
          "type": "uint256"
        }
      ],
      "name": "Wagered",
      "type": "event"
    },
    {
      "inputs": [
        {
          "internalType": "address",
          "name": "",
          "type": "address"
        },
        {
          "internalType": "uint256",
          "name": "",
          "type": "uint256"
        }
      ],
      "name": "bet",
      "outputs": [
        {
          "internalType": "uint256",
          "name": "raceId",
          "type": "uint256"
        },
        {
          "internalType": "uint256",
          "name": "amount",
          "type": "uint256"
        },
        {
          "internalType": "address",
          "name": "account",
          "type": "address"
        },
        {
          "internalType": "bool",
          "name": "paid",
          "type": "bool"
        }
      ],
      "stateMutability": "view",
      "type": "function"
    },
    {
      "inputs": [
        {
          "internalType": "address",
          "name": "user",
          "type": "address"
        },
        {
          "internalType": "uint256",
          "name": "raceId",
          "type": "uint256"
        }
      ],
      "name": "betsOnRace",
      "outputs": [
        {
          "components": [
            {
              "internalType": "uint256",
              "name": "raceId",
              "type": "uint256"
            },
            {
              "internalType": "uint256",
              "name": "amount",
              "type": "uint256"
            },
            {
              "internalType": "address",
              "name": "account",
              "type": "address"
            },
            {
              "internalType": "uint256[]",
              "name": "place",
              "type": "uint256[]"
            },
            {
              "internalType": "bool",
              "name": "paid",
              "type": "bool"
            }
          ],
          "internalType": "struct Exotic.Bet[]",
          "name": "",
          "type": "tuple[]"
        }
      ],
      "stateMutability": "view",
      "type": "function"
    },
    {
      "inputs": [
        {
          "internalType": "uint256",
          "name": "",
          "type": "uint256"
        },
        {
          "internalType": "address",
          "name": "",
          "type": "address"
        },
        {
          "internalType": "uint256",
          "name": "",
          "type": "uint256"
        }
      ],
      "name": "betsPerRace",
      "outputs": [
        {
          "internalType": "uint256",
          "name": "",
          "type": "uint256"
        }
      ],
      "stateMutability": "view",
      "type": "function"
    },
    {
      "inputs": [
        {
          "internalType": "uint256",
          "name": "requestId",
          "type": "uint256"
        },
        {
          "internalType": "uint256[]",
          "name": "randomWords",
          "type": "uint256[]"
        }
      ],
      "name": "endRace",
      "outputs": [],
      "stateMutability": "nonpayable",
      "type": "function"
    },
    {
      "inputs": [],
      "name": "fee",
      "outputs": [
        {
          "internalType": "uint256",
          "name": "",
          "type": "uint256"
        }
      ],
      "stateMutability": "view",
      "type": "function"
    },
    {
      "inputs": [],
      "name": "feeAddress",
      "outputs": [
        {
          "internalType": "address",
          "name": "",
          "type": "address"
        }
      ],
      "stateMutability": "view",
      "type": "function"
    },
    {
      "inputs": [],
      "name": "frequency",
      "outputs": [
        {
          "internalType": "uint256",
          "name": "",
          "type": "uint256"
        }
      ],
      "stateMutability": "view",
      "type": "function"
    },
    {
      "inputs": [
        {
          "internalType": "address",
          "name": "_randomProviderAddress",
          "type": "address"
        },
        {
          "internalType": "uint256",
          "name": "_fee",
          "type": "uint256"
        },
        {
          "internalType": "uint256",
          "name": "_jackpotContribution",
          "type": "uint256"
        },
        {
          "internalType": "address",
          "name": "_feeAddress",
          "type": "address"
        },
        {
          "internalType": "address",
          "name": "_jackpotAddress",
          "type": "address"
        },
        {
          "internalType": "uint256",
          "name": "_maxBet",
          "type": "uint256"
        }
      ],
      "name": "initialize",
      "outputs": [],
      "stateMutability": "nonpayable",
      "type": "function"
    },
    {
      "inputs": [],
      "name": "jackpotAddress",
      "outputs": [
        {
          "internalType": "address",
          "name": "",
          "type": "address"
        }
      ],
      "stateMutability": "view",
      "type": "function"
    },
    {
      "inputs": [],
      "name": "jackpotContribution",
      "outputs": [
        {
          "internalType": "uint256",
          "name": "",
          "type": "uint256"
        }
      ],
      "stateMutability": "view",
      "type": "function"
    },
    {
      "inputs": [],
      "name": "maxBet",
      "outputs": [
        {
          "internalType": "uint256",
          "name": "",
          "type": "uint256"
        }
      ],
      "stateMutability": "view",
      "type": "function"
    },
    {
      "inputs": [],
      "name": "nextRaceId",
      "outputs": [
        {
          "internalType": "uint256",
          "name": "",
          "type": "uint256"
        }
      ],
      "stateMutability": "view",
      "type": "function"
    },
    {
      "inputs": [
        {
          "internalType": "uint256",
          "name": "raceId",
          "type": "uint256"
        },
        {
          "internalType": "uint256[]",
          "name": "result",
          "type": "uint256[]"
        }
      ],
      "name": "odds",
      "outputs": [
        {
          "internalType": "uint256",
          "name": "",
          "type": "uint256"
        }
      ],
      "stateMutability": "view",
      "type": "function"
    },
    {
      "inputs": [],
      "name": "owner",
      "outputs": [
        {
          "internalType": "address",
          "name": "",
          "type": "address"
        }
      ],
      "stateMutability": "view",
      "type": "function"
    },
    {
      "inputs": [
        {
          "internalType": "uint256",
          "name": "betId",
          "type": "uint256"
        }
      ],
      "name": "payout",
      "outputs": [],
      "stateMutability": "nonpayable",
      "type": "function"
    },
    {
      "inputs": [
        {
          "internalType": "uint256",
          "name": "raceId",
          "type": "uint256"
        },
        {
          "internalType": "uint256[]",
          "name": "prediction",
          "type": "uint256[]"
        }
      ],
      "name": "placeBet",
      "outputs": [
        {
          "internalType": "uint256",
          "name": "betId",
          "type": "uint256"
        }
      ],
      "stateMutability": "payable",
      "type": "function"
    },
    {
      "inputs": [
        {
          "internalType": "uint256",
          "name": "",
          "type": "uint256"
        }
      ],
      "name": "race",
      "outputs": [
        {
          "internalType": "uint256",
          "name": "totalWagered",
          "type": "uint256"
        },
        {
          "internalType": "uint256",
          "name": "paid",
          "type": "uint256"
        },
        {
          "internalType": "uint256",
          "name": "result",
          "type": "uint256"
        },
        {
          "internalType": "uint256",
          "name": "requestId",
          "type": "uint256"
        }
      ],
      "stateMutability": "view",
      "type": "function"
    },
    {
      "inputs": [
        {
          "internalType": "uint256",
          "name": "raceId",
          "type": "uint256"
        }
      ],
      "name": "raceResult",
      "outputs": [
        {
          "internalType": "uint256[6]",
          "name": "",
          "type": "uint256[6]"
        }
      ],
      "stateMutability": "view",
      "type": "function"
    },
    {
      "inputs": [],
      "name": "randomProvider",
      "outputs": [
        {
          "internalType": "contract IRandomProvider",
          "name": "",
          "type": "address"
        }
      ],
      "stateMutability": "view",
      "type": "function"
    },
    {
      "inputs": [],
      "name": "renounceOwnership",
      "outputs": [],
      "stateMutability": "nonpayable",
      "type": "function"
    },
    {
      "inputs": [],
      "name": "start",
      "outputs": [
        {
          "internalType": "uint256",
          "name": "",
          "type": "uint256"
        }
      ],
      "stateMutability": "view",
      "type": "function"
    },
    {
      "inputs": [
        {
          "internalType": "uint256",
          "name": "raceId",
          "type": "uint256"
        }
      ],
      "name": "startRace",
      "outputs": [],
      "stateMutability": "nonpayable",
      "type": "function"
    },
    {
      "inputs": [
        {
          "internalType": "address",
          "name": "newOwner",
          "type": "address"
        }
      ],
      "name": "transferOwnership",
      "outputs": [],
      "stateMutability": "nonpayable",
      "type": "function"
    },
    {
      "inputs": [
        {
          "internalType": "uint256",
          "name": "_maxBet",
          "type": "uint256"
        }
      ],
      "name": "updateMaxBet",
      "outputs": [],
      "stateMutability": "nonpayable",
      "type": "function"
    },
    {
      "inputs": [
        {
          "internalType": "address",
          "name": "_feeAddress",
          "type": "address"
        }
      ],
      "name": "updatePOLAddress",
      "outputs": [],
      "stateMutability": "nonpayable",
      "type": "function"
    },
    {
      "inputs": [
        {
          "internalType": "uint256",
          "name": "_fee",
          "type": "uint256"
        }
      ],
      "name": "updatePOLFee",
      "outputs": [],
      "stateMutability": "nonpayable",
      "type": "function"
    },
    {
      "inputs": [
        {
          "internalType": "address",
          "name": "_feeAddress",
          "type": "address"
        }
      ],
      "name": "updateRevenueAddress",
      "outputs": [],
      "stateMutability": "nonpayable",
      "type": "function"
    },
    {
      "inputs": [
        {
          "internalType": "uint256",
          "name": "_fee",
          "type": "uint256"
        }
      ],
      "name": "updateRevenueFee",
      "outputs": [],
      "stateMutability": "nonpayable",
      "type": "function"
    },
    {
      "inputs": [
        {
          "internalType": "address",
          "name": "user",
          "type": "address"
        },
        {
          "internalType": "uint256",
          "name": "betId",
          "type": "uint256"
        }
      ],
      "name": "userBet",
      "outputs": [
        {
          "components": [
            {
              "internalType": "uint256",
              "name": "raceId",
              "type": "uint256"
            },
            {
              "internalType": "uint256",
              "name": "amount",
              "type": "uint256"
            },
            {
              "internalType": "address",
              "name": "account",
              "type": "address"
            },
            {
              "internalType": "uint256[]",
              "name": "place",
              "type": "uint256[]"
            },
            {
              "internalType": "bool",
              "name": "paid",
              "type": "bool"
            }
          ],
          "internalType": "struct Exotic.Bet",
          "name": "",
          "type": "tuple"
        }
      ],
      "stateMutability": "view",
      "type": "function"
    },
    {
      "inputs": [
        {
          "internalType": "address",
          "name": "user",
          "type": "address"
        }
      ],
      "name": "userBetCount",
      "outputs": [
        {
          "internalType": "uint256",
          "name": "",
          "type": "uint256"
        }
      ],
      "stateMutability": "view",
      "type": "function"
    }
  ],
  "transactionHash": "0xb24dfb1878c90111966ab0fbef65c43d917a04e5490c1c52cd99edb10dce55dd",
  "args": [],
  "numDeployments": 5,
  "solcInputHash": "d019569380b0493e2706931014232744",
  "bytecode": "0x608060405234801561001057600080fd5b506141a2806100206000396000f3fe6080604052600436106101cd5760003560e01c8063b71455ee116100f7578063d9b8fd8f11610095578063f2fde38b11610064578063f2fde38b14610680578063f408a23a146106a9578063f846cabc146106e6578063fdd2885914610726576101cd565b8063d9b8fd8f146105d6578063ddca3f4314610601578063e11523431461062c578063ead50da314610655576101cd565b8063d149221b116100d1578063d149221b14610508578063d3c4771b14610545578063d613b60d14610582578063d8595d86146105ab576101cd565b8063b71455ee14610460578063b7dda85e1461049d578063be9a6555146104dd576101cd565b80634195ab8e1161016f5780638f46500e1161013e5780638f46500e146103ba578063a55cd51c146103e5578063a655f29e1461040e578063af3645c414610437576101cd565b80634195ab8e146103105780636bc0b3ba1461034d578063715018a6146103785780638da5cb5b1461038f576101cd565b80632e5b2168116101ab5780632e5b21681461026157806330d146551461028c578063315aa38c146102bc57806341275358146102e5576101cd565b8063122d2d96146101d257806324d822bf146101fb5780632c48e8cd14610224575b600080fd5b3480156101de57600080fd5b506101f960048036038101906101f49190612ced565b61074f565b005b34801561020757600080fd5b50610222600480360381019061021d9190612d7a565b6108c8565b005b34801561023057600080fd5b5061024b60048036038101906102469190612dd4565b610aca565b60405161025891906137c4565b60405180910390f35b34801561026d57600080fd5b50610276610b08565b60405161028391906137c4565b60405180910390f35b6102a660048036038101906102a19190612e27565b610b0e565b6040516102b391906137c4565b60405180910390f35b3480156102c857600080fd5b506102e360048036038101906102de9190612e87565b611141565b005b3480156102f157600080fd5b506102fa6112c8565b60405161030791906134d4565b60405180910390f35b34801561031c57600080fd5b5061033760048036038101906103329190612cad565b6112ee565b60405161034491906137a2565b60405180910390f35b34801561035957600080fd5b50610362611445565b60405161036f91906134d4565b60405180910390f35b34801561038457600080fd5b5061038d61146b565b005b34801561039b57600080fd5b506103a46114f3565b6040516103b191906134d4565b60405180910390f35b3480156103c657600080fd5b506103cf61151d565b6040516103dc919061352c565b60405180910390f35b3480156103f157600080fd5b5061040c60048036038101906104079190612d7a565b611543565b005b34801561041a57600080fd5b5061043560048036038101906104309190612d7a565b611602565b005b34801561044357600080fd5b5061045e60048036038101906104599190612c80565b6116bf565b005b34801561046c57600080fd5b5061048760048036038101906104829190612d7a565b611832565b6040516104949190613511565b60405180910390f35b3480156104a957600080fd5b506104c460048036038101906104bf9190612d7a565b611ade565b6040516104d494939291906138cb565b60405180910390f35b3480156104e957600080fd5b506104f2611b0e565b6040516104ff91906137c4565b60405180910390f35b34801561051457600080fd5b5061052f600480360381019061052a9190612e87565b611b14565b60405161053c91906137c4565b60405180910390f35b34801561055157600080fd5b5061056c60048036038101906105679190612cad565b611ca7565b60405161057991906134ef565b60405180910390f35b34801561058e57600080fd5b506105a960048036038101906105a49190612d7a565b611f52565b005b3480156105b757600080fd5b506105c061200f565b6040516105cd91906137c4565b60405180910390f35b3480156105e257600080fd5b506105eb612015565b6040516105f891906137c4565b60405180910390f35b34801561060d57600080fd5b50610616612040565b60405161062391906137c4565b60405180910390f35b34801561063857600080fd5b50610653600480360381019061064e9190612d7a565b612046565b005b34801561066157600080fd5b5061066a612363565b60405161067791906137c4565b60405180910390f35b34801561068c57600080fd5b506106a760048036038101906106a29190612c80565b612368565b005b3480156106b557600080fd5b506106d060048036038101906106cb9190612c80565b612460565b6040516106dd91906137c4565b60405180910390f35b3480156106f257600080fd5b5061070d60048036038101906107089190612cad565b6124ac565b60405161071d9493929190613886565b60405180910390f35b34801561073257600080fd5b5061074d60048036038101906107489190612c80565b612526565b005b600061075b6001612699565b9050801561077f576001600060016101000a81548160ff0219169083151502179055505b4260678190555086606560006101000a81548173ffffffffffffffffffffffffffffffffffffffff021916908373ffffffffffffffffffffffffffffffffffffffff160217905550856068819055508460698190555083606a60006101000a81548173ffffffffffffffffffffffffffffffffffffffff021916908373ffffffffffffffffffffffffffffffffffffffff16021790555082606b60006101000a81548173ffffffffffffffffffffffffffffffffffffffff021916908373ffffffffffffffffffffffffffffffffffffffff16021790555081606c81905550610866612789565b80156108bf5760008060016101000a81548160ff0219169083151502179055507f7f26b83ff96e1f2b6a682f133852f6798a09c465da95921460cefb384740249860016040516108b69190613547565b60405180910390a15b50505050505050565b6108d1816127e2565b60b4816108de9190613a4f565b421161091f576040517f08c379a000000000000000000000000000000000000000000000000000000000815260040161091690613682565b60405180910390fd5b6000606d60008381526020019081526020016000209050600081600301541461097d576040517f08c379a0000000000000000000000000000000000000000000000000000000008152600401610974906136c2565b60405180910390fd5b60008160020154146109c4576040517f08c379a00000000000000000000000000000000000000000000000000000000081526004016109bb90613722565b60405180910390fd5b6000606560009054906101000a900473ffffffffffffffffffffffffffffffffffffffff1673ffffffffffffffffffffffffffffffffffffffff1663e0c862896040518163ffffffff1660e01b8152600401602060405180830381600087803b158015610a3057600080fd5b505af1158015610a44573d6000803e3d6000fd5b505050506040513d601f19601f82011682018060405250810190610a689190612da7565b905080826003018190555082606f600083815260200190815260200160002081905550827f727aed3ef5e1b948e78407c8b942fb3193ebc5901b4bc951faa6568c90b78495606654604051610abd91906137c4565b60405180910390a2505050565b60706020528260005260406000206020528160005260406000208181548110610af257600080fd5b9060005260206000200160009250925050505481565b606c5481565b6000610b19846127e2565b60018383905014610b5f576040517f08c379a0000000000000000000000000000000000000000000000000000000008152600401610b5690613622565b60405180910390fd5b600061271060685434610b729190613ad6565b610b7c9190613aa5565b9050600061271060695434610b919190613ad6565b610b9b9190613aa5565b905060008183610bab9190613a4f565b34610bb69190613b30565b9050606c54811115610bfd576040517f08c379a0000000000000000000000000000000000000000000000000000000008152600401610bf490613582565b60405180910390fd5b610c05612a7a565b878160000181815250508181602001818152505033816040019073ffffffffffffffffffffffffffffffffffffffff16908173ffffffffffffffffffffffffffffffffffffffff1681525050606e60003373ffffffffffffffffffffffffffffffffffffffff1673ffffffffffffffffffffffffffffffffffffffff168152602001908152602001600020819080600181540180825580915050600190039060005260206000209060050201600090919091909150600082015181600001556020820151816001015560408201518160020160006101000a81548173ffffffffffffffffffffffffffffffffffffffff021916908373ffffffffffffffffffffffffffffffffffffffff1602179055506060820151816003019080519060200190610d31929190612ac1565b5060808201518160040160006101000a81548160ff0219169083151502179055505050606e60003373ffffffffffffffffffffffffffffffffffffffff1673ffffffffffffffffffffffffffffffffffffffff1681526020019081526020016000206001606e60003373ffffffffffffffffffffffffffffffffffffffff1673ffffffffffffffffffffffffffffffffffffffff16815260200190815260200160002080549050610de29190613b30565b81548110610df357610df2613d3d565b5b906000526020600020906005020160030187876000818110610e1857610e17613d3d565b5b9050602002013590806001815401808255809150506001900390600052602060002001600090919091909150556000606d60008a81526020019081526020016000209050828160040189896000818110610e7557610e74613d3d565b5b9050602002013560068110610e8d57610e8c613d3d565b5b016000828254610e9d9190613a4f565b9250508190555082816000016000828254610eb89190613a4f565b925050819055508260666000828254610ed19190613a4f565b925050819055503373ffffffffffffffffffffffffffffffffffffffff16897fed7146643be17948fcb4400f9980c37ef3404baf91823ef51782e2c6673266f6858b8b606654604051610f2794939291906137df565b60405180910390a34260b48a610f3d9190613a4f565b1015610f4d57610f4c896108c8565b5b606a60009054906101000a900473ffffffffffffffffffffffffffffffffffffffff1673ffffffffffffffffffffffffffffffffffffffff166108fc869081150290604051600060405180830381858888f19350505050158015610fb5573d6000803e3d6000fd5b50606b60009054906101000a900473ffffffffffffffffffffffffffffffffffffffff1673ffffffffffffffffffffffffffffffffffffffff166108fc859081150290604051600060405180830381858888f1935050505015801561101e573d6000803e3d6000fd5b50607060008a815260200190815260200160002060003373ffffffffffffffffffffffffffffffffffffffff1673ffffffffffffffffffffffffffffffffffffffff1681526020019081526020016000206001606e60003373ffffffffffffffffffffffffffffffffffffffff1673ffffffffffffffffffffffffffffffffffffffff168152602001908152602001600020805490506110be9190613b30565b90806001815401808255809150506001900390600052602060002001600090919091909150556001606e60003373ffffffffffffffffffffffffffffffffffffffff1673ffffffffffffffffffffffffffffffffffffffff168152602001908152602001600020805490506111339190613b30565b955050505050509392505050565b606560009054906101000a900473ffffffffffffffffffffffffffffffffffffffff1673ffffffffffffffffffffffffffffffffffffffff163373ffffffffffffffffffffffffffffffffffffffff16146111d1576040517f08c379a00000000000000000000000000000000000000000000000000000000081526004016111c8906135c2565b60405180910390fd5b6000606f60008481526020019081526020016000205490506000606d600083815260200190815260200160002090506000816002015414611247576040517f08c379a000000000000000000000000000000000000000000000000000000000815260040161123e90613562565b60405180910390fd5b8260008151811061125b5761125a613d3d565b5b60200260200101518160020181905550817f7554ff21c11af92d9ed24a3625daa96a85ebe3a0a3c44c44cb080cb400c42d98606654856000815181106112a4576112a3613d3d565b5b60200260200101516040516112ba92919061385d565b60405180910390a250505050565b606a60009054906101000a900473ffffffffffffffffffffffffffffffffffffffff1681565b6112f6612a7a565b606e60008473ffffffffffffffffffffffffffffffffffffffff1673ffffffffffffffffffffffffffffffffffffffff168152602001908152602001600020828154811061134757611346613d3d565b5b90600052602060002090600502016040518060a001604052908160008201548152602001600182015481526020016002820160009054906101000a900473ffffffffffffffffffffffffffffffffffffffff1673ffffffffffffffffffffffffffffffffffffffff1673ffffffffffffffffffffffffffffffffffffffff1681526020016003820180548060200260200160405190810160405280929190818152602001828054801561141957602002820191906000526020600020905b815481526020019060010190808311611405575b505050505081526020016004820160009054906101000a900460ff161515151581525050905092915050565b606b60009054906101000a900473ffffffffffffffffffffffffffffffffffffffff1681565b611473612928565b73ffffffffffffffffffffffffffffffffffffffff166114916114f3565b73ffffffffffffffffffffffffffffffffffffffff16146114e7576040517f08c379a00000000000000000000000000000000000000000000000000000000081526004016114de906136a2565b60405180910390fd5b6114f16000612930565b565b6000603360009054906101000a900473ffffffffffffffffffffffffffffffffffffffff16905090565b606560009054906101000a900473ffffffffffffffffffffffffffffffffffffffff1681565b61154b612928565b73ffffffffffffffffffffffffffffffffffffffff166115696114f3565b73ffffffffffffffffffffffffffffffffffffffff16146115bf576040517f08c379a00000000000000000000000000000000000000000000000000000000081526004016115b6906136a2565b60405180910390fd5b80606c819055507f2b47c83dfa951a422411b397c029d005c87d9fa8fe9f6d2bc2620c23e5e00312606c546040516115f791906137c4565b60405180910390a150565b61160a612928565b73ffffffffffffffffffffffffffffffffffffffff166116286114f3565b73ffffffffffffffffffffffffffffffffffffffff161461167e576040517f08c379a0000000000000000000000000000000000000000000000000000000008152600401611675906136a2565b60405180910390fd5b806068819055507f14a368a696aca40efd280b31b2896f421c8a75eb772f8de1731eb220735395c6816040516116b491906137c4565b60405180910390a150565b6116c7612928565b73ffffffffffffffffffffffffffffffffffffffff166116e56114f3565b73ffffffffffffffffffffffffffffffffffffffff161461173b576040517f08c379a0000000000000000000000000000000000000000000000000000000008152600401611732906136a2565b60405180910390fd5b600073ffffffffffffffffffffffffffffffffffffffff168173ffffffffffffffffffffffffffffffffffffffff1614156117ab576040517f08c379a00000000000000000000000000000000000000000000000000000000081526004016117a290613602565b60405180910390fd5b80606b60006101000a81548173ffffffffffffffffffffffffffffffffffffffff021916908373ffffffffffffffffffffffffffffffffffffffff1602179055508073ffffffffffffffffffffffffffffffffffffffff167f5dc8a57b462a8fae72fded55639269f100cfd12e046986a8ef490d56d5edcbf760405160405180910390a250565b61183a612b0e565b6000606d60008481526020019081526020016000206040518060a001604052908160008201548152602001600182015481526020016002820154815260200160038201548152602001600482016006806020026040519081016040528092919082600680156118be576020028201915b8154815260200190600101908083116118aa575b5050505050815250509050600081604001511415611911576040517f08c379a000000000000000000000000000000000000000000000000000000000815260040161190890613762565b60405180910390fd5b60008082608001519050600091505b600682101561196957600181836006811061193e5761193d613d3d565b5b6020020181815161194f9190613a4f565b91508181525050818061196190613c65565b925050611920565b60008092505b60068310156119b4578360800151836006811061198f5761198e613d3d565b5b60200201518161199f9190613a4f565b905082806119ac90613c65565b93505061196f565b6119bc612b0e565b600080600095505b6006861015611acf5760008414156119df57600090506119f2565b8387604001516119ef9190613cae565b90505b600091505b6006821015611abc5780858360068110611a1457611a13613d3d565b5b60200201511115611a8457848260068110611a3257611a31613d3d565b5b602002015184611a429190613b30565b93506000858360068110611a5957611a58613d3d565b5b60200201818152505081838760068110611a7657611a75613d3d565b5b602002018181525050611abc565b848260068110611a9757611a96613d3d565b5b602002015181611aa79190613b30565b90508180611ab490613c65565b9250506119f7565b8580611ac790613c65565b9650506119c4565b82975050505050505050919050565b606d6020528060005260406000206000915090508060000154908060010154908060020154908060030154905084565b60675481565b600080606d60008581526020019081526020016000206040518060a00160405290816000820154815260200160018201548152602001600282015481526020016003820154815260200160048201600680602002604051908101604052809291908260068015611b99576020028201915b815481526020019060010190808311611b85575b50505050508152505090506001835114611be8576040517f08c379a0000000000000000000000000000000000000000000000000000000008152600401611bdf90613622565b60405180910390fd5b600080600090505b6006811015611c355782608001518160068110611c1057611c0f613d3d565b5b602002015182611c209190613a4f565b91508080611c2d90613c65565b915050611bf0565b6000821415611c4957819350505050611ca1565b816402540be400846080015187600081518110611c6957611c68613d3d565b5b602002602001015160068110611c8257611c81613d3d565b5b6020020151611c919190613ad6565b611c9b9190613aa5565b93505050505b92915050565b606060006070600084815260200190815260200160002060008573ffffffffffffffffffffffffffffffffffffffff1673ffffffffffffffffffffffffffffffffffffffff168152602001908152602001600020805480602002602001604051908101604052809291908181526020018280548015611d4557602002820191906000526020600020905b815481526020019060010190808311611d31575b50505050509050600080825167ffffffffffffffff811115611d6a57611d69613d6c565b5b604051908082528060200260200182016040528015611da357816020015b611d90612a7a565b815260200190600190039081611d885790505b509050600091505b8251821015611f4657606e60008773ffffffffffffffffffffffffffffffffffffffff1673ffffffffffffffffffffffffffffffffffffffff168152602001908152602001600020838381518110611e0657611e05613d3d565b5b602002602001015181548110611e1f57611e1e613d3d565b5b90600052602060002090600502016040518060a001604052908160008201548152602001600182015481526020016002820160009054906101000a900473ffffffffffffffffffffffffffffffffffffffff1673ffffffffffffffffffffffffffffffffffffffff1673ffffffffffffffffffffffffffffffffffffffff16815260200160038201805480602002602001604051908101604052809291908181526020018280548015611ef157602002820191906000526020600020905b815481526020019060010190808311611edd575b505050505081526020016004820160009054906101000a900460ff161515151581525050818381518110611f2857611f27613d3d565b5b60200260200101819052508180611f3e90613c65565b925050611dab565b80935050505092915050565b611f5a612928565b73ffffffffffffffffffffffffffffffffffffffff16611f786114f3565b73ffffffffffffffffffffffffffffffffffffffff1614611fce576040517f08c379a0000000000000000000000000000000000000000000000000000000008152600401611fc5906136a2565b60405180910390fd5b806069819055507f9afc1b03107862b2aabd5adaf9bf3a6c054623803995901416d64d2ac86ed01d8160405161200491906137c4565b60405180910390a150565b60695481565b600060b4426120249190613cae565b60b46120309190613b30565b4261203b9190613a4f565b905090565b60685481565b6000606e60003373ffffffffffffffffffffffffffffffffffffffff1673ffffffffffffffffffffffffffffffffffffffff168152602001908152602001600020828154811061209957612098613d3d565b5b906000526020600020906005020190506000606d600083600001548152602001908152602001600020905060008160020154141561210c576040517f08c379a000000000000000000000000000000000000000000000000000000000815260040161210390613682565b60405180910390fd5b8160040160009054906101000a900460ff161561215e576040517f08c379a000000000000000000000000000000000000000000000000000000000815260040161215590613782565b60405180910390fd5b600061216d8360000154611832565b905060005b83600301805490508110156121db5781816006811061219457612193613d3d565b5b60200201518460030182815481106121af576121ae613d3d565b5b9060005260206000200154146121c85750505050612360565b80806121d390613c65565b915050612172565b600061223d85600001548660030180548060200260200160405190810160405280929190818152602001828054801561223357602002820191906000526020600020905b81548152602001906001019080831161221f575b5050505050611b14565b90506000816402540be40087600101546122579190613ad6565b6122619190613aa5565b905060018660040160006101000a81548160ff021916908315150217905550808560010160008282546122949190613a4f565b9250508190555080606660008282546122ad9190613b30565b925050819055503373ffffffffffffffffffffffffffffffffffffffff1686600001547fef0068ac9e6ad3b19d182459af297eb4d144e7721b87c619278bed0fcd0bd5dc8860010154896003018560405161230a9392919061381f565b60405180910390a33373ffffffffffffffffffffffffffffffffffffffff166108fc829081150290604051600060405180830381858888f19350505050158015612358573d6000803e3d6000fd5b505050505050505b50565b60b481565b612370612928565b73ffffffffffffffffffffffffffffffffffffffff1661238e6114f3565b73ffffffffffffffffffffffffffffffffffffffff16146123e4576040517f08c379a00000000000000000000000000000000000000000000000000000000081526004016123db906136a2565b60405180910390fd5b600073ffffffffffffffffffffffffffffffffffffffff168173ffffffffffffffffffffffffffffffffffffffff161415612454576040517f08c379a000000000000000000000000000000000000000000000000000000000815260040161244b906135a2565b60405180910390fd5b61245d81612930565b50565b6000606e60008373ffffffffffffffffffffffffffffffffffffffff1673ffffffffffffffffffffffffffffffffffffffff168152602001908152602001600020805490509050919050565b606e60205281600052604060002081815481106124c857600080fd5b9060005260206000209060050201600091509150508060000154908060010154908060020160009054906101000a900473ffffffffffffffffffffffffffffffffffffffff16908060040160009054906101000a900460ff16905084565b61252e612928565b73ffffffffffffffffffffffffffffffffffffffff1661254c6114f3565b73ffffffffffffffffffffffffffffffffffffffff16146125a2576040517f08c379a0000000000000000000000000000000000000000000000000000000008152600401612599906136a2565b60405180910390fd5b600073ffffffffffffffffffffffffffffffffffffffff168173ffffffffffffffffffffffffffffffffffffffff161415612612576040517f08c379a000000000000000000000000000000000000000000000000000000000815260040161260990613602565b60405180910390fd5b80606a60006101000a81548173ffffffffffffffffffffffffffffffffffffffff021916908373ffffffffffffffffffffffffffffffffffffffff1602179055508073ffffffffffffffffffffffffffffffffffffffff167f12c87c4c1bec313f335ef0060b241de51ec549e8c57a25aae98da2ad10837cde60405160405180910390a250565b60008060019054906101000a900460ff16156127105760018260ff161480156126c857506126c6306129f6565b155b612707576040517f08c379a00000000000000000000000000000000000000000000000000000000081526004016126fe90613662565b60405180910390fd5b60009050612784565b8160ff1660008054906101000a900460ff1660ff1610612765576040517f08c379a000000000000000000000000000000000000000000000000000000000815260040161275c90613662565b60405180910390fd5b816000806101000a81548160ff021916908360ff160217905550600190505b919050565b600060019054906101000a900460ff166127d8576040517f08c379a00000000000000000000000000000000000000000000000000000000081526004016127cf90613742565b60405180910390fd5b6127e0612a19565b565b600060b4826127f19190613cae565b14612831576040517f08c379a000000000000000000000000000000000000000000000000000000000815260040161282890613702565b60405180910390fd5b606754811015612876576040517f08c379a000000000000000000000000000000000000000000000000000000000815260040161286d906135e2565b60405180910390fd5b6000606d600083815260200190815260200160002060020154146128cf576040517f08c379a00000000000000000000000000000000000000000000000000000000081526004016128c6906136e2565b60405180910390fd5b6000606f60008381526020019081526020016000205414612925576040517f08c379a000000000000000000000000000000000000000000000000000000000815260040161291c90613642565b60405180910390fd5b50565b600033905090565b6000603360009054906101000a900473ffffffffffffffffffffffffffffffffffffffff16905081603360006101000a81548173ffffffffffffffffffffffffffffffffffffffff021916908373ffffffffffffffffffffffffffffffffffffffff1602179055508173ffffffffffffffffffffffffffffffffffffffff168173ffffffffffffffffffffffffffffffffffffffff167f8be0079c531659141344cd1fd0a4f28419497f9722a3daafe3b4186f6b6457e060405160405180910390a35050565b6000808273ffffffffffffffffffffffffffffffffffffffff163b119050919050565b600060019054906101000a900460ff16612a68576040517f08c379a0000000000000000000000000000000000000000000000000000000008152600401612a5f90613742565b60405180910390fd5b612a78612a73612928565b612930565b565b6040518060a001604052806000815260200160008152602001600073ffffffffffffffffffffffffffffffffffffffff168152602001606081526020016000151581525090565b828054828255906000526020600020908101928215612afd579160200282015b82811115612afc578251825591602001919060010190612ae1565b5b509050612b0a9190612b30565b5090565b6040518060c00160405280600690602082028036833780820191505090505090565b5b80821115612b49576000816000905550600101612b31565b5090565b6000612b60612b5b84613935565b613910565b90508083825260208201905082856020860282011115612b8357612b82613db8565b5b60005b85811015612bb35781612b998882612c56565b845260208401935060208301925050600181019050612b86565b5050509392505050565b600081359050612bcc8161413e565b92915050565b60008083601f840112612be857612be7613db3565b5b8235905067ffffffffffffffff811115612c0557612c04613dae565b5b602083019150836020820283011115612c2157612c20613db8565b5b9250929050565b600082601f830112612c3d57612c3c613db3565b5b8135612c4d848260208601612b4d565b91505092915050565b600081359050612c6581614155565b92915050565b600081519050612c7a81614155565b92915050565b600060208284031215612c9657612c95613dc7565b5b6000612ca484828501612bbd565b91505092915050565b60008060408385031215612cc457612cc3613dc7565b5b6000612cd285828601612bbd565b9250506020612ce385828601612c56565b9150509250929050565b60008060008060008060c08789031215612d0a57612d09613dc7565b5b6000612d1889828a01612bbd565b9650506020612d2989828a01612c56565b9550506040612d3a89828a01612c56565b9450506060612d4b89828a01612bbd565b9350506080612d5c89828a01612bbd565b92505060a0612d6d89828a01612c56565b9150509295509295509295565b600060208284031215612d9057612d8f613dc7565b5b6000612d9e84828501612c56565b91505092915050565b600060208284031215612dbd57612dbc613dc7565b5b6000612dcb84828501612c6b565b91505092915050565b600080600060608486031215612ded57612dec613dc7565b5b6000612dfb86828701612c56565b9350506020612e0c86828701612bbd565b9250506040612e1d86828701612c56565b9150509250925092565b600080600060408486031215612e4057612e3f613dc7565b5b6000612e4e86828701612c56565b935050602084013567ffffffffffffffff811115612e6f57612e6e613dbd565b5b612e7b86828701612bd2565b92509250509250925092565b60008060408385031215612e9e57612e9d613dc7565b5b6000612eac85828601612c56565b925050602083013567ffffffffffffffff811115612ecd57612ecc613dbd565b5b612ed985828601612c28565b9150509250929050565b6000612eef83836133ca565b905092915050565b6000612f0383836134b6565b60208301905092915050565b612f1881613b6e565b82525050565b612f2781613b6e565b82525050565b6000612f38826139a0565b612f428185613a00565b935083602082028501612f5485613961565b8060005b85811015612f905784840389528151612f718582612ee3565b9450612f7c836139cc565b925060208a01995050600181019050612f58565b50829750879550505050505092915050565b612fab816139ab565b612fb58184613a11565b9250612fc082613971565b8060005b83811015612ff1578151612fd88782612ef7565b9650612fe3836139d9565b925050600181019050612fc4565b505050505050565b60006130058385613a2d565b93507f07ffffffffffffffffffffffffffffffffffffffffffffffffffffffffffffff83111561303857613037613dc2565b5b602083029250613049838584613c0b565b82840190509392505050565b6000613060826139b6565b61306a8185613a1c565b93506130758361397b565b8060005b838110156130a657815161308d8882612ef7565b9750613098836139e6565b925050600181019050613079565b5085935050505092915050565b60006130be826139c1565b6130c88185613a2d565b93506130d38361398b565b8060005b8381101561310b576130e882613d9b565b6130f28882612ef7565b97506130fd836139f3565b9250506001810190506130d7565b5085935050505092915050565b61312181613b80565b82525050565b61313081613b80565b82525050565b61313f81613bc3565b82525050565b61314e81613bd5565b82525050565b6000613161601c83613a3e565b915061316c82613dea565b602082019050919050565b6000613184601683613a3e565b915061318f82613e13565b602082019050919050565b60006131a7602683613a3e565b91506131b282613e3c565b604082019050919050565b60006131ca601a83613a3e565b91506131d582613e8b565b602082019050919050565b60006131ed601683613a3e565b91506131f882613eb4565b602082019050919050565b6000613210601683613a3e565b915061321b82613edd565b602082019050919050565b6000613233602083613a3e565b915061323e82613f06565b602082019050919050565b6000613256600d83613a3e565b915061326182613f2f565b602082019050919050565b6000613279602e83613a3e565b915061328482613f58565b604082019050919050565b600061329c601183613a3e565b91506132a782613fa7565b602082019050919050565b60006132bf602083613a3e565b91506132ca82613fd0565b602082019050919050565b60006132e2601883613a3e565b91506132ed82613ff9565b602082019050919050565b6000613305600d83613a3e565b915061331082614022565b602082019050919050565b6000613328600f83613a3e565b91506133338261404b565b602082019050919050565b600061334b601d83613a3e565b915061335682614074565b602082019050919050565b600061336e602b83613a3e565b91506133798261409d565b604082019050919050565b6000613391601483613a3e565b915061339c826140ec565b602082019050919050565b60006133b4601083613a3e565b91506133bf82614115565b602082019050919050565b600060a0830160008301516133e260008601826134b6565b5060208301516133f560208601826134b6565b5060408301516134086040860182612f0f565b50606083015184820360608601526134208282613055565b91505060808301516134356080860182613118565b508091505092915050565b600060a08301600083015161345860008601826134b6565b50602083015161346b60208601826134b6565b50604083015161347e6040860182612f0f565b50606083015184820360608601526134968282613055565b91505060808301516134ab6080860182613118565b508091505092915050565b6134bf81613bac565b82525050565b6134ce81613bac565b82525050565b60006020820190506134e96000830184612f1e565b92915050565b600060208201905081810360008301526135098184612f2d565b905092915050565b600060c0820190506135266000830184612fa2565b92915050565b60006020820190506135416000830184613136565b92915050565b600060208201905061355c6000830184613145565b92915050565b6000602082019050818103600083015261357b81613154565b9050919050565b6000602082019050818103600083015261359b81613177565b9050919050565b600060208201905081810360008301526135bb8161319a565b9050919050565b600060208201905081810360008301526135db816131bd565b9050919050565b600060208201905081810360008301526135fb816131e0565b9050919050565b6000602082019050818103600083015261361b81613203565b9050919050565b6000602082019050818103600083015261363b81613226565b9050919050565b6000602082019050818103600083015261365b81613249565b9050919050565b6000602082019050818103600083015261367b8161326c565b9050919050565b6000602082019050818103600083015261369b8161328f565b9050919050565b600060208201905081810360008301526136bb816132b2565b9050919050565b600060208201905081810360008301526136db816132d5565b9050919050565b600060208201905081810360008301526136fb816132f8565b9050919050565b6000602082019050818103600083015261371b8161331b565b9050919050565b6000602082019050818103600083015261373b8161333e565b9050919050565b6000602082019050818103600083015261375b81613361565b9050919050565b6000602082019050818103600083015261377b81613384565b9050919050565b6000602082019050818103600083015261379b816133a7565b9050919050565b600060208201905081810360008301526137bc8184613440565b905092915050565b60006020820190506137d960008301846134c5565b92915050565b60006060820190506137f460008301876134c5565b8181036020830152613807818587612ff9565b905061381660408301846134c5565b95945050505050565b600060608201905061383460008301866134c5565b818103602083015261384681856130b3565b905061385560408301846134c5565b949350505050565b600060408201905061387260008301856134c5565b61387f60208301846134c5565b9392505050565b600060808201905061389b60008301876134c5565b6138a860208301866134c5565b6138b56040830185612f1e565b6138c26060830184613127565b95945050505050565b60006080820190506138e060008301876134c5565b6138ed60208301866134c5565b6138fa60408301856134c5565b61390760608301846134c5565b95945050505050565b600061391a61392b565b90506139268282613c34565b919050565b6000604051905090565b600067ffffffffffffffff8211156139505761394f613d6c565b5b602082029050602081019050919050565b6000819050602082019050919050565b6000819050919050565b6000819050602082019050919050565b60008190508160005260206000209050919050565b600081519050919050565b600060069050919050565b600081519050919050565b600081549050919050565b6000602082019050919050565b6000602082019050919050565b6000602082019050919050565b6000600182019050919050565b600082825260208201905092915050565b600081905092915050565b600082825260208201905092915050565b600082825260208201905092915050565b600082825260208201905092915050565b6000613a5a82613bac565b9150613a6583613bac565b9250827fffffffffffffffffffffffffffffffffffffffffffffffffffffffffffffffff03821115613a9a57613a99613cdf565b5b828201905092915050565b6000613ab082613bac565b9150613abb83613bac565b925082613acb57613aca613d0e565b5b828204905092915050565b6000613ae182613bac565b9150613aec83613bac565b9250817fffffffffffffffffffffffffffffffffffffffffffffffffffffffffffffffff0483118215151615613b2557613b24613cdf565b5b828202905092915050565b6000613b3b82613bac565b9150613b4683613bac565b925082821015613b5957613b58613cdf565b5b828203905092915050565b6000819050919050565b6000613b7982613b8c565b9050919050565b60008115159050919050565b600073ffffffffffffffffffffffffffffffffffffffff82169050919050565b6000819050919050565b600060ff82169050919050565b6000613bce82613be7565b9050919050565b6000613be082613bb6565b9050919050565b6000613bf282613bf9565b9050919050565b6000613c0482613b8c565b9050919050565b82818337600083830152505050565b6000613c2d613c2883613ddd565b613b64565b9050919050565b613c3d82613dcc565b810181811067ffffffffffffffff82111715613c5c57613c5b613d6c565b5b80604052505050565b6000613c7082613bac565b91507fffffffffffffffffffffffffffffffffffffffffffffffffffffffffffffffff821415613ca357613ca2613cdf565b5b600182019050919050565b6000613cb982613bac565b9150613cc483613bac565b925082613cd457613cd3613d0e565b5b828206905092915050565b7f4e487b7100000000000000000000000000000000000000000000000000000000600052601160045260246000fd5b7f4e487b7100000000000000000000000000000000000000000000000000000000600052601260045260246000fd5b7f4e487b7100000000000000000000000000000000000000000000000000000000600052603260045260246000fd5b7f4e487b7100000000000000000000000000000000000000000000000000000000600052604160045260246000fd5b6000613da78254613c1a565b9050919050565b600080fd5b600080fd5b600080fd5b600080fd5b600080fd5b600080fd5b6000601f19601f8301169050919050565b60008160001c9050919050565b7f52616e646f6d6e65737320616c72656164792066756c66696c6c656400000000600082015250565b7f4265742061626f7665206d6178426574206c696d697400000000000000000000600082015250565b7f4f776e61626c653a206e6577206f776e657220697320746865207a65726f206160008201527f6464726573730000000000000000000000000000000000000000000000000000602082015250565b7f4e6f7420416c6c6f7765642072616e646f6d50726f7669646572000000000000600082015250565b7f4c6976696e6720696e2074686520706173742062726f00000000000000000000600082015250565b7f46656520616464726573732063616e2774206265203000000000000000000000600082015250565b7f4f6e6c792077696e206265742063757272656e746c7920737570706f72746564600082015250565b7f526163652066696e6973696e6700000000000000000000000000000000000000600082015250565b7f496e697469616c697a61626c653a20636f6e747261637420697320616c72656160008201527f647920696e697469616c697a6564000000000000000000000000000000000000602082015250565b7f52616365206e6f742066696e6973686564000000000000000000000000000000600082015250565b7f4f776e61626c653a2063616c6c6572206973206e6f7420746865206f776e6572600082015250565b7f526573756c7420616c7265616479207265717565737465640000000000000000600082015250565b7f526163652066696e697368656400000000000000000000000000000000000000600082015250565b7f496e76616c696420726163652049440000000000000000000000000000000000600082015250565b7f5261636520726573756c7420616c72656164792066756c66696c6c6564000000600082015250565b7f496e697469616c697a61626c653a20636f6e7472616374206973206e6f74206960008201527f6e697469616c697a696e67000000000000000000000000000000000000000000602082015250565b7f52616365206973206e6f742066696e6973686564000000000000000000000000600082015250565b7f42657420616c7265616479207061696400000000000000000000000000000000600082015250565b61414781613b6e565b811461415257600080fd5b50565b61415e81613bac565b811461416957600080fd5b5056fea264697066735822122010abe4b27ce8f9f044a8057ad1f234f42a4fc8ccf42e24fdd7a3e8c83fd73a7a64736f6c63430008070033",
  "devdoc": {
    "kind": "dev",
    "methods": {
      "owner()": {
        "details": "Returns the address of the current owner."
      },
      "renounceOwnership()": {
        "details": "Leaves the contract without owner. It will not be possible to call `onlyOwner` functions anymore. Can only be called by the current owner. NOTE: Renouncing ownership will leave the contract without an owner, thereby removing any functionality that is only available to the owner."
      },
      "transferOwnership(address)": {
        "details": "Transfers ownership of the contract to a new account (`newOwner`). Can only be called by the current owner."
      }
    },
    "title": "An betting game with exotic bet types",
    "version": 1
  },
  "userdoc": {
    "events": {
      "Payout(uint256,address,uint256,uint256[],uint256)": {
        "notice": "emitted when a bet is cashed out."
      },
      "RaceEnd(uint256,uint256,uint256)": {
        "notice": "emitted when a race ends."
      },
      "RaceStart(uint256,uint256)": {
        "notice": "emitted when a race starts."
      },
      "Wagered(uint256,address,uint256,uint256[],uint256)": {
        "notice": "emitted when a new bet is placed on a race."
      }
    },
    "kind": "user",
    "methods": {
      "bet(address,uint256)": {
        "notice": "mapping of address to list of bets."
      },
      "endRace(uint256,uint256[])": {
        "notice": "End the race and set the result."
      },
      "fee()": {
        "notice": "Fee paramaters."
      },
      "frequency()": {
        "notice": "How often races take place."
      },
      "nextRaceId()": {
        "notice": "The time of the next race to take place."
      },
      "odds(uint256,uint256[])": {
        "notice": "Get the current odds for a prediction."
      },
      "payout(uint256)": {
        "notice": "Cash out a winning bet."
      },
      "placeBet(uint256,uint256[])": {
        "notice": "Place a bet."
      },
      "race(uint256)": {
        "notice": "The state for each race."
      },
      "raceResult(uint256)": {
        "notice": "Return the results for a race."
      },
      "start()": {
        "notice": "The datetime of the first race."
      },
      "startRace(uint256)": {
        "notice": "Start the race and request result from VRF."
      },
      "userBet(address,uint256)": {
        "notice": "Returns a users bet with given id."
      },
      "userBetCount(address)": {
        "notice": "Return the amount of bets a user has made."
      }
    },
    "version": 1
  },
  "storageLayout": {
    "storage": [
      {
        "astId": 130,
        "contract": "contracts/Exotic.sol:Exotic",
        "label": "_initialized",
        "offset": 0,
        "slot": "0",
        "type": "t_uint8"
      },
      {
        "astId": 133,
        "contract": "contracts/Exotic.sol:Exotic",
        "label": "_initializing",
        "offset": 1,
        "slot": "0",
        "type": "t_bool"
      },
      {
        "astId": 549,
        "contract": "contracts/Exotic.sol:Exotic",
        "label": "__gap",
        "offset": 0,
        "slot": "1",
        "type": "t_array(t_uint256)50_storage"
      },
      {
        "astId": 10,
        "contract": "contracts/Exotic.sol:Exotic",
        "label": "_owner",
        "offset": 0,
        "slot": "51",
        "type": "t_address"
      },
      {
        "astId": 122,
        "contract": "contracts/Exotic.sol:Exotic",
        "label": "__gap",
        "offset": 0,
        "slot": "52",
        "type": "t_array(t_uint256)49_storage"
      },
      {
        "astId": 564,
        "contract": "contracts/Exotic.sol:Exotic",
        "label": "randomProvider",
        "offset": 0,
        "slot": "101",
        "type": "t_contract(IRandomProvider)1712"
      },
      {
        "astId": 566,
        "contract": "contracts/Exotic.sol:Exotic",
        "label": "balance",
        "offset": 0,
        "slot": "102",
        "type": "t_uint256"
      },
      {
        "astId": 573,
        "contract": "contracts/Exotic.sol:Exotic",
        "label": "start",
        "offset": 0,
        "slot": "103",
        "type": "t_uint256"
      },
      {
        "astId": 576,
        "contract": "contracts/Exotic.sol:Exotic",
        "label": "fee",
        "offset": 0,
        "slot": "104",
        "type": "t_uint256"
      },
      {
        "astId": 578,
        "contract": "contracts/Exotic.sol:Exotic",
        "label": "jackpotContribution",
        "offset": 0,
        "slot": "105",
        "type": "t_uint256"
      },
      {
        "astId": 580,
        "contract": "contracts/Exotic.sol:Exotic",
        "label": "feeAddress",
        "offset": 0,
        "slot": "106",
        "type": "t_address"
      },
      {
        "astId": 582,
        "contract": "contracts/Exotic.sol:Exotic",
        "label": "jackpotAddress",
        "offset": 0,
        "slot": "107",
        "type": "t_address"
      },
      {
        "astId": 584,
        "contract": "contracts/Exotic.sol:Exotic",
        "label": "maxBet",
        "offset": 0,
        "slot": "108",
        "type": "t_uint256"
      },
      {
        "astId": 615,
        "contract": "contracts/Exotic.sol:Exotic",
        "label": "race",
        "offset": 0,
        "slot": "109",
        "type": "t_mapping(t_uint256,t_struct(Race)609_storage)"
      },
      {
        "astId": 622,
        "contract": "contracts/Exotic.sol:Exotic",
        "label": "bet",
        "offset": 0,
        "slot": "110",
        "type": "t_mapping(t_address,t_array(t_struct(Bet)596_storage)dyn_storage)"
      },
      {
        "astId": 627,
        "contract": "contracts/Exotic.sol:Exotic",
        "label": "requestIdRace",
        "offset": 0,
        "slot": "111",
        "type": "t_mapping(t_uint256,t_uint256)"
      },
      {
        "astId": 634,
        "contract": "contracts/Exotic.sol:Exotic",
        "label": "betsPerRace",
        "offset": 0,
        "slot": "112",
        "type": "t_mapping(t_uint256,t_mapping(t_address,t_array(t_uint256)dyn_storage))"
      }
    ],
    "types": {
      "t_address": {
        "encoding": "inplace",
        "label": "address",
        "numberOfBytes": "20"
      },
      "t_array(t_struct(Bet)596_storage)dyn_storage": {
        "base": "t_struct(Bet)596_storage",
        "encoding": "dynamic_array",
        "label": "struct Exotic.Bet[]",
        "numberOfBytes": "32"
      },
      "t_array(t_uint256)49_storage": {
        "base": "t_uint256",
        "encoding": "inplace",
        "label": "uint256[49]",
        "numberOfBytes": "1568"
      },
      "t_array(t_uint256)50_storage": {
        "base": "t_uint256",
        "encoding": "inplace",
        "label": "uint256[50]",
        "numberOfBytes": "1600"
      },
      "t_array(t_uint256)6_storage": {
        "base": "t_uint256",
        "encoding": "inplace",
        "label": "uint256[6]",
        "numberOfBytes": "192"
      },
      "t_array(t_uint256)dyn_storage": {
        "base": "t_uint256",
        "encoding": "dynamic_array",
        "label": "uint256[]",
        "numberOfBytes": "32"
      },
      "t_bool": {
        "encoding": "inplace",
        "label": "bool",
        "numberOfBytes": "1"
      },
      "t_contract(IRandomProvider)1712": {
        "encoding": "inplace",
        "label": "contract IRandomProvider",
        "numberOfBytes": "20"
      },
      "t_mapping(t_address,t_array(t_struct(Bet)596_storage)dyn_storage)": {
        "encoding": "mapping",
        "key": "t_address",
        "label": "mapping(address => struct Exotic.Bet[])",
        "numberOfBytes": "32",
        "value": "t_array(t_struct(Bet)596_storage)dyn_storage"
      },
      "t_mapping(t_address,t_array(t_uint256)dyn_storage)": {
        "encoding": "mapping",
        "key": "t_address",
        "label": "mapping(address => uint256[])",
        "numberOfBytes": "32",
        "value": "t_array(t_uint256)dyn_storage"
      },
      "t_mapping(t_uint256,t_mapping(t_address,t_array(t_uint256)dyn_storage))": {
        "encoding": "mapping",
        "key": "t_uint256",
        "label": "mapping(uint256 => mapping(address => uint256[]))",
        "numberOfBytes": "32",
        "value": "t_mapping(t_address,t_array(t_uint256)dyn_storage)"
      },
      "t_mapping(t_uint256,t_struct(Race)609_storage)": {
        "encoding": "mapping",
        "key": "t_uint256",
        "label": "mapping(uint256 => struct Exotic.Race)",
        "numberOfBytes": "32",
        "value": "t_struct(Race)609_storage"
      },
      "t_mapping(t_uint256,t_uint256)": {
        "encoding": "mapping",
        "key": "t_uint256",
        "label": "mapping(uint256 => uint256)",
        "numberOfBytes": "32",
        "value": "t_uint256"
      },
      "t_struct(Bet)596_storage": {
        "encoding": "inplace",
        "label": "struct Exotic.Bet",
        "members": [
          {
            "astId": 586,
            "contract": "contracts/Exotic.sol:Exotic",
            "label": "raceId",
            "offset": 0,
            "slot": "0",
            "type": "t_uint256"
          },
          {
            "astId": 588,
            "contract": "contracts/Exotic.sol:Exotic",
            "label": "amount",
            "offset": 0,
            "slot": "1",
            "type": "t_uint256"
          },
          {
            "astId": 590,
            "contract": "contracts/Exotic.sol:Exotic",
            "label": "account",
            "offset": 0,
            "slot": "2",
            "type": "t_address"
          },
          {
            "astId": 593,
            "contract": "contracts/Exotic.sol:Exotic",
            "label": "place",
            "offset": 0,
            "slot": "3",
            "type": "t_array(t_uint256)dyn_storage"
          },
          {
            "astId": 595,
            "contract": "contracts/Exotic.sol:Exotic",
            "label": "paid",
            "offset": 0,
            "slot": "4",
            "type": "t_bool"
          }
        ],
        "numberOfBytes": "160"
      },
      "t_struct(Race)609_storage": {
        "encoding": "inplace",
        "label": "struct Exotic.Race",
        "members": [
          {
            "astId": 598,
            "contract": "contracts/Exotic.sol:Exotic",
            "label": "totalWagered",
            "offset": 0,
            "slot": "0",
            "type": "t_uint256"
          },
          {
            "astId": 600,
            "contract": "contracts/Exotic.sol:Exotic",
            "label": "paid",
            "offset": 0,
            "slot": "1",
            "type": "t_uint256"
          },
          {
            "astId": 602,
            "contract": "contracts/Exotic.sol:Exotic",
            "label": "result",
            "offset": 0,
            "slot": "2",
            "type": "t_uint256"
          },
          {
            "astId": 604,
            "contract": "contracts/Exotic.sol:Exotic",
            "label": "requestId",
            "offset": 0,
            "slot": "3",
            "type": "t_uint256"
          },
          {
            "astId": 608,
            "contract": "contracts/Exotic.sol:Exotic",
            "label": "winWeights",
            "offset": 0,
            "slot": "4",
            "type": "t_array(t_uint256)6_storage"
          }
        ],
        "numberOfBytes": "320"
      },
      "t_uint256": {
        "encoding": "inplace",
        "label": "uint256",
        "numberOfBytes": "32"
      },
      "t_uint8": {
        "encoding": "inplace",
        "label": "uint8",
        "numberOfBytes": "1"
      }
    }
  }
}