{
  "address": "0xE3AB16102aCDf52DD5bA49aE98102844e0E1E7c0",
  "abi": [
    {
      "inputs": [
        {
          "internalType": "uint64",
          "name": "subscriptionId",
          "type": "uint64"
        },
        {
          "internalType": "address",
          "name": "_vrfCoordinator",
          "type": "address"
        }
      ],
      "stateMutability": "nonpayable",
      "type": "constructor"
    },
    {
      "inputs": [
        {
          "internalType": "address",
          "name": "have",
          "type": "address"
        },
        {
          "internalType": "address",
          "name": "want",
          "type": "address"
        }
      ],
      "name": "OnlyCoordinatorCanFulfill",
      "type": "error"
    },
    {
      "anonymous": false,
      "inputs": [
        {
          "indexed": true,
          "internalType": "uint256",
          "name": "raceId",
          "type": "uint256"
        },
        {
          "indexed": true,
          "internalType": "address",
          "name": "to",
          "type": "address"
        },
        {
          "indexed": false,
          "internalType": "uint256",
          "name": "amount",
          "type": "uint256"
        },
        {
          "indexed": false,
          "internalType": "uint256[]",
          "name": "prediction",
          "type": "uint256[]"
        },
        {
          "indexed": false,
          "internalType": "uint256",
          "name": "payout",
          "type": "uint256"
        }
      ],
      "name": "Payout",
      "type": "event"
    },
    {
      "anonymous": false,
      "inputs": [
        {
          "indexed": true,
          "internalType": "uint256",
          "name": "raceId",
          "type": "uint256"
        },
        {
          "indexed": false,
          "internalType": "uint256",
          "name": "totalValue",
          "type": "uint256"
        },
        {
          "indexed": false,
          "internalType": "uint256[6]",
          "name": "result",
          "type": "uint256[6]"
        }
      ],
      "name": "RaceEnd",
      "type": "event"
    },
    {
      "anonymous": false,
      "inputs": [
        {
          "indexed": true,
          "internalType": "uint256",
          "name": "raceId",
          "type": "uint256"
        },
        {
          "indexed": false,
          "internalType": "uint256",
          "name": "totalValue",
          "type": "uint256"
        }
      ],
      "name": "RaceStart",
      "type": "event"
    },
    {
      "anonymous": false,
      "inputs": [
        {
          "indexed": true,
          "internalType": "uint256",
          "name": "raceId",
          "type": "uint256"
        },
        {
          "indexed": true,
          "internalType": "address",
          "name": "from",
          "type": "address"
        },
        {
          "indexed": false,
          "internalType": "uint256",
          "name": "amount",
          "type": "uint256"
        },
        {
          "indexed": false,
          "internalType": "uint256[]",
          "name": "prediction",
          "type": "uint256[]"
        },
        {
          "indexed": false,
          "internalType": "uint256",
          "name": "poolTotal",
          "type": "uint256"
        }
      ],
      "name": "Wagered",
      "type": "event"
    },
    {
      "inputs": [
        {
          "internalType": "address",
          "name": "",
          "type": "address"
        },
        {
          "internalType": "uint256",
          "name": "",
          "type": "uint256"
        }
      ],
      "name": "bet",
      "outputs": [
        {
          "internalType": "uint256",
          "name": "raceId",
          "type": "uint256"
        },
        {
          "internalType": "uint256",
          "name": "amount",
          "type": "uint256"
        },
        {
          "internalType": "address",
          "name": "account",
          "type": "address"
        },
        {
          "internalType": "bool",
          "name": "paid",
          "type": "bool"
        }
      ],
      "stateMutability": "view",
      "type": "function"
    },
    {
      "inputs": [
        {
          "internalType": "uint256",
          "name": "raceId",
          "type": "uint256"
        }
      ],
      "name": "endRace",
      "outputs": [],
      "stateMutability": "nonpayable",
      "type": "function"
    },
    {
      "inputs": [],
      "name": "frequency",
      "outputs": [
        {
          "internalType": "uint256",
          "name": "",
          "type": "uint256"
        }
      ],
      "stateMutability": "view",
      "type": "function"
    },
    {
      "inputs": [],
      "name": "nextRaceId",
      "outputs": [
        {
          "internalType": "uint256",
          "name": "",
          "type": "uint256"
        }
      ],
      "stateMutability": "view",
      "type": "function"
    },
    {
      "inputs": [
        {
          "internalType": "uint256",
          "name": "raceId",
          "type": "uint256"
        },
        {
          "internalType": "uint256[]",
          "name": "result",
          "type": "uint256[]"
        }
      ],
      "name": "odds",
      "outputs": [
        {
          "internalType": "uint256",
          "name": "",
          "type": "uint256"
        }
      ],
      "stateMutability": "view",
      "type": "function"
    },
    {
      "inputs": [
        {
          "internalType": "uint256",
          "name": "betId",
          "type": "uint256"
        }
      ],
      "name": "payout",
      "outputs": [],
      "stateMutability": "nonpayable",
      "type": "function"
    },
    {
      "inputs": [
        {
          "internalType": "uint256",
          "name": "raceId",
          "type": "uint256"
        },
        {
          "internalType": "uint256[]",
          "name": "prediction",
          "type": "uint256[]"
        }
      ],
      "name": "placeBet",
      "outputs": [
        {
          "internalType": "uint256",
          "name": "betId",
          "type": "uint256"
        }
      ],
      "stateMutability": "payable",
      "type": "function"
    },
    {
      "inputs": [
        {
          "internalType": "uint256",
          "name": "",
          "type": "uint256"
        }
      ],
      "name": "race",
      "outputs": [
        {
          "internalType": "uint256",
          "name": "fee",
          "type": "uint256"
        },
        {
          "internalType": "uint256",
          "name": "totalWagered",
          "type": "uint256"
        },
        {
          "internalType": "uint256",
          "name": "paid",
          "type": "uint256"
        },
        {
          "internalType": "uint256",
          "name": "result",
          "type": "uint256"
        }
      ],
      "stateMutability": "view",
      "type": "function"
    },
    {
      "inputs": [
        {
          "internalType": "uint256",
          "name": "raceId",
          "type": "uint256"
        }
      ],
      "name": "raceResult",
      "outputs": [
        {
          "internalType": "uint256[6]",
          "name": "",
          "type": "uint256[6]"
        }
      ],
      "stateMutability": "view",
      "type": "function"
    },
    {
      "inputs": [
        {
          "internalType": "uint256",
          "name": "requestId",
          "type": "uint256"
        },
        {
          "internalType": "uint256[]",
          "name": "randomWords",
          "type": "uint256[]"
        }
      ],
      "name": "rawFulfillRandomWords",
      "outputs": [],
      "stateMutability": "nonpayable",
      "type": "function"
    },
    {
      "inputs": [],
      "name": "start",
      "outputs": [
        {
          "internalType": "uint256",
          "name": "",
          "type": "uint256"
        }
      ],
      "stateMutability": "view",
      "type": "function"
    }
  ],
  "transactionHash": "0x64a8a9e0444690de89cbb442e7f9a898f8c9d3045a939dfc90782469e9dc51f7",
  "args": [
    167,
    "0x2eD832Ba664535e5886b75D64C46EB9a228C2610"
  ],
  "numDeployments": 1,
  "solcInputHash": "578678bde4fe915264d058a896d966d8",
  "bytecode": "0x60c06040527fd89b2bf150e3b9e13446986e571fb9cab24b13cea0a43ea20a6049a85cc807cc60001b600255620186a0600360006101000a81548163ffffffff021916908363ffffffff16021790555060038060046101000a81548161ffff021916908361ffff1602179055506001600360066101000a81548163ffffffff021916908363ffffffff1602179055503480156200009b57600080fd5b5060405162002787380380620027878339818101604052810190620000c19190620001a1565b808073ffffffffffffffffffffffffffffffffffffffff1660808173ffffffffffffffffffffffffffffffffffffffff1660601b8152505050806000806101000a81548173ffffffffffffffffffffffffffffffffffffffff021916908373ffffffffffffffffffffffffffffffffffffffff1602179055504260a0818152505081600060146101000a81548167ffffffffffffffff021916908367ffffffffffffffff160217905550505062000269565b600081519050620001848162000235565b92915050565b6000815190506200019b816200024f565b92915050565b60008060408385031215620001bb57620001ba62000230565b5b6000620001cb858286016200018a565b9250506020620001de8582860162000173565b9150509250929050565b6000620001f582620001fc565b9050919050565b600073ffffffffffffffffffffffffffffffffffffffff82169050919050565b600067ffffffffffffffff82169050919050565b600080fd5b6200024081620001e8565b81146200024c57600080fd5b50565b6200025a816200021c565b81146200026657600080fd5b50565b60805160601c60a0516124e7620002a060003960008181610c7901526112b2015260008181610530015261058401526124e76000f3fe60806040526004361061009c5760003560e01c8063be9a655511610064578063be9a6555146101a0578063d149221b146101cb578063d9b8fd8f14610208578063e115234314610233578063ead50da31461025c578063f846cabc146102875761009c565b8063052608c9146100a15780631fe543e3146100ca57806330d14655146100f3578063b71455ee14610123578063b7dda85e14610160575b600080fd5b3480156100ad57600080fd5b506100c860048036038101906100c391906116ef565b6102c7565b005b3480156100d657600080fd5b506100f160048036038101906100ec91906117a9565b61052e565b005b61010d60048036038101906101089190611749565b6105ee565b60405161011a9190611d25565b60405180910390f35b34801561012f57600080fd5b5061014a600480360381019061014591906116ef565b6109e2565b6040516101579190611b57565b60405180910390f35b34801561016c57600080fd5b50610187600480360381019061018291906116ef565b610c47565b6040516101979493929190611e2c565b60405180910390f35b3480156101ac57600080fd5b506101b5610c77565b6040516101c29190611d25565b60405180910390f35b3480156101d757600080fd5b506101f260048036038101906101ed91906117a9565b610c9b565b6040516101ff9190611d25565b60405180910390f35b34801561021457600080fd5b5061021d610e96565b60405161022a9190611d25565b60405180910390f35b34801561023f57600080fd5b5061025a600480360381019061025591906116ef565b610ec3565b005b34801561026857600080fd5b506102716111e0565b60405161027e9190611d25565b60405180910390f35b34801561029357600080fd5b506102ae60048036038101906102a991906116af565b6111e6565b6040516102be9493929190611de7565b60405180910390f35b6102d081611260565b610258816102de9190611f3e565b421161031f576040517f08c379a000000000000000000000000000000000000000000000000000000000815260040161031690611c45565b60405180910390fd5b6000600760008381526020019081526020016000205414610375576040517f08c379a000000000000000000000000000000000000000000000000000000000815260040161036c90611c65565b60405180910390fd5b600060056000838152602001908152602001600020905060008160030154146103d3576040517f08c379a00000000000000000000000000000000000000000000000000000000081526004016103ca90611cc5565b60405180910390fd5b60008060009054906101000a900473ffffffffffffffffffffffffffffffffffffffff1673ffffffffffffffffffffffffffffffffffffffff16635d3b1d30600254600060149054906101000a900467ffffffffffffffff16600360049054906101000a900461ffff16600360009054906101000a900463ffffffff16600360069054906101000a900463ffffffff166040518663ffffffff1660e01b8152600401610483959493929190611b72565b602060405180830381600087803b15801561049d57600080fd5b505af11580156104b1573d6000803e3d6000fd5b505050506040513d601f19601f820116820180604052508101906104d5919061171c565b9050826007600083815260200190815260200160002081905550827f727aed3ef5e1b948e78407c8b942fb3193ebc5901b4bc951faa6568c90b784956004546040516105219190611d25565b60405180910390a2505050565b7f000000000000000000000000000000000000000000000000000000000000000073ffffffffffffffffffffffffffffffffffffffff163373ffffffffffffffffffffffffffffffffffffffff16146105e057337f00000000000000000000000000000000000000000000000000000000000000006040517f1cf993f40000000000000000000000000000000000000000000000000000000081526004016105d7929190611b2e565b60405180910390fd5b6105ea82826113c5565b5050565b60006105f984611260565b6001838390501461063f576040517f08c379a000000000000000000000000000000000000000000000000000000000815260040161063690611c05565b60405180910390fd5b6106476114a9565b848160000181815250503481602001818152505033816040019073ffffffffffffffffffffffffffffffffffffffff16908173ffffffffffffffffffffffffffffffffffffffff1681525050600660003373ffffffffffffffffffffffffffffffffffffffff1673ffffffffffffffffffffffffffffffffffffffff168152602001908152602001600020819080600181540180825580915050600190039060005260206000209060050201600090919091909150600082015181600001556020820151816001015560408201518160020160006101000a81548173ffffffffffffffffffffffffffffffffffffffff021916908373ffffffffffffffffffffffffffffffffffffffff16021790555060608201518160030190805190602001906107739291906114f0565b5060808201518160040160006101000a81548160ff0219169083151502179055505050600660003373ffffffffffffffffffffffffffffffffffffffff1673ffffffffffffffffffffffffffffffffffffffff1681526020019081526020016000206001600660003373ffffffffffffffffffffffffffffffffffffffff1673ffffffffffffffffffffffffffffffffffffffff16815260200190815260200160002080549050610824919061201f565b8154811061083557610834612213565b5b90600052602060002090600502016003018484600081811061085a57610859612213565b5b905060200201359080600181540180825580915050600190039060005260206000200160009091909190915055600060056000878152602001908152602001600020905034816004016000600381106108b6576108b5612213565b5b60060201868660008181106108ce576108cd612213565b5b90506020020135600681106108e6576108e5612213565b5b0160008282546108f69190611f3e565b92505081905550348160010160008282546109119190611f3e565b92505081905550346004600082825461092a9190611f3e565b925050819055503373ffffffffffffffffffffffffffffffffffffffff16867fed7146643be17948fcb4400f9980c37ef3404baf91823ef51782e2c6673266f63488886004546040516109809493929190611d69565b60405180910390a36001600660003373ffffffffffffffffffffffffffffffffffffffff1673ffffffffffffffffffffffffffffffffffffffff168152602001908152602001600020805490506109d7919061201f565b925050509392505050565b6109ea61153d565b6000600560008481526020019081526020016000206040518060a00160405290816000820154815260200160018201548152602001600282015481526020016003820154815260200160048201600380602002604051908101604052809291906000905b82821015610aa757838260060201600680602002604051908101604052809291908260068015610a93576020028201915b815481526020019060010190808311610a7f575b505050505081526020019060010190610a4e565b50505050815250509050600081606001511415610af9576040517f08c379a0000000000000000000000000000000000000000000000000000000008152600401610af090611ce5565b60405180910390fd5b610b0161153d565b600080600090505b6006811015610b66578360800151600060038110610b2a57610b29612213565b5b60200201518160068110610b4157610b40612213565b5b602002015182610b519190611f3e565b91508080610b5e9061213b565b915050610b09565b6000828560600151610b789190612184565b905060005b6006811015610c3957818660800151600060038110610b9f57610b9e612213565b5b60200201518260068110610bb657610bb5612213565b5b60200201511115610be4578085600060068110610bd657610bd5612213565b5b602002018181525050610c26565b8560800151600060038110610bfc57610bfb612213565b5b60200201518160068110610c1357610c12612213565b5b602002015182610c23919061201f565b91505b8080610c319061213b565b915050610b7d565b849650505050505050919050565b60056020528060005260406000206000915090508060000154908060010154908060020154908060030154905084565b7f000000000000000000000000000000000000000000000000000000000000000081565b600080600560008581526020019081526020016000206040518060a00160405290816000820154815260200160018201548152602001600282015481526020016003820154815260200160048201600380602002604051908101604052809291906000905b82821015610d5957838260060201600680602002604051908101604052809291908260068015610d45576020028201915b815481526020019060010190808311610d31575b505050505081526020019060010190610d00565b505050508152505090506001835114610da7576040517f08c379a0000000000000000000000000000000000000000000000000000000008152600401610d9e90611c05565b60405180910390fd5b600080600090505b6006811015610e0c578260800151600060038110610dd057610dcf612213565b5b60200201518160068110610de757610de6612213565b5b602002015182610df79190611f3e565b91508080610e049061213b565b915050610daf565b6000821415610e2057819350505050610e90565b816402540be4008460800151600060038110610e3f57610e3e612213565b5b602002015187600081518110610e5857610e57612213565b5b602002602001015160068110610e7157610e70612213565b5b6020020151610e809190611fc5565b610e8a9190611f94565b93505050505b92915050565b600061025842610ea69190612184565b610258610eb3919061201f565b42610ebe9190611f3e565b905090565b6000600660003373ffffffffffffffffffffffffffffffffffffffff1673ffffffffffffffffffffffffffffffffffffffff1681526020019081526020016000208281548110610f1657610f15612213565b5b90600052602060002090600502019050600060056000836000015481526020019081526020016000209050600081600301541415610f89576040517f08c379a0000000000000000000000000000000000000000000000000000000008152600401610f8090611c45565b60405180910390fd5b8160040160009054906101000a900460ff1615610fdb576040517f08c379a0000000000000000000000000000000000000000000000000000000008152600401610fd290611d05565b60405180910390fd5b6000610fea83600001546109e2565b905060005b83600301805490508110156110585781816006811061101157611010612213565b5b602002015184600301828154811061102c5761102b612213565b5b90600052602060002001541461104557505050506111dd565b80806110509061213b565b915050610fef565b60006110ba8560000154866003018054806020026020016040519081016040528092919081815260200182805480156110b057602002820191906000526020600020905b81548152602001906001019080831161109c575b5050505050610c9b565b90506000816402540be40087600101546110d49190611fc5565b6110de9190611f94565b905060018660040160006101000a81548160ff021916908315150217905550808560020160008282546111119190611f3e565b92505081905550806004600082825461112a919061201f565b925050819055503373ffffffffffffffffffffffffffffffffffffffff1686600001547fef0068ac9e6ad3b19d182459af297eb4d144e7721b87c619278bed0fcd0bd5dc8860010154896003018560405161118793929190611da9565b60405180910390a33373ffffffffffffffffffffffffffffffffffffffff166108fc829081150290604051600060405180830381858888f193505050501580156111d5573d6000803e3d6000fd5b505050505050505b50565b61025881565b6006602052816000526040600020818154811061120257600080fd5b9060005260206000209060050201600091509150508060000154908060010154908060020160009054906101000a900473ffffffffffffffffffffffffffffffffffffffff16908060040160009054906101000a900460ff16905084565b6000610258826112709190612184565b146112b0576040517f08c379a00000000000000000000000000000000000000000000000000000000081526004016112a790611ca5565b60405180910390fd5b7f0000000000000000000000000000000000000000000000000000000000000000811015611313576040517f08c379a000000000000000000000000000000000000000000000000000000000815260040161130a90611be5565b60405180910390fd5b600060056000838152602001908152602001600020600301541461136c576040517f08c379a000000000000000000000000000000000000000000000000000000000815260040161136390611c85565b60405180910390fd5b60006007600083815260200190815260200160002054146113c2576040517f08c379a00000000000000000000000000000000000000000000000000000000081526004016113b990611c25565b60405180910390fd5b50565b6000600760008481526020019081526020016000205490506000600560008381526020019081526020016000209050600081600301541461143b576040517f08c379a000000000000000000000000000000000000000000000000000000000815260040161143290611bc5565b60405180910390fd5b8260008151811061144f5761144e612213565b5b60200260200101518160030181905550817f738143ccc4ddbfd0daded0804300cc5e4c83e8c5911d6f288851a5e0628163a160045461148d856109e2565b60405161149b929190611d40565b60405180910390a250505050565b6040518060a001604052806000815260200160008152602001600073ffffffffffffffffffffffffffffffffffffffff168152602001606081526020016000151581525090565b82805482825590600052602060002090810192821561152c579160200282015b8281111561152b578251825591602001919060010190611510565b5b509050611539919061155f565b5090565b6040518060c00160405280600690602082028036833780820191505090505090565b5b80821115611578576000816000905550600101611560565b5090565b600061158f61158a84611e96565b611e71565b905080838252602082019050828560208602820111156115b2576115b161228e565b5b60005b858110156115e257816115c88882611685565b8452602084019350602083019250506001810190506115b5565b5050509392505050565b6000813590506115fb81612483565b92915050565b60008083601f84011261161757611616612289565b5b8235905067ffffffffffffffff81111561163457611633612284565b5b6020830191508360208202830111156116505761164f61228e565b5b9250929050565b600082601f83011261166c5761166b612289565b5b813561167c84826020860161157c565b91505092915050565b6000813590506116948161249a565b92915050565b6000815190506116a98161249a565b92915050565b600080604083850312156116c6576116c561229d565b5b60006116d4858286016115ec565b92505060206116e585828601611685565b9150509250929050565b6000602082840312156117055761170461229d565b5b600061171384828501611685565b91505092915050565b6000602082840312156117325761173161229d565b5b60006117408482850161169a565b91505092915050565b6000806000604084860312156117625761176161229d565b5b600061177086828701611685565b935050602084013567ffffffffffffffff81111561179157611790612293565b5b61179d86828701611601565b92509250509250925092565b600080604083850312156117c0576117bf61229d565b5b60006117ce85828601611685565b925050602083013567ffffffffffffffff8111156117ef576117ee612293565b5b6117fb85828601611657565b9150509250929050565b60006118118383611af2565b60208301905092915050565b6118268161205d565b82525050565b61183581611ee1565b61183f8184611f11565b925061184a82611ec2565b8060005b8381101561187b5781516118628782611805565b965061186d83611ef7565b92505060018101905061184e565b505050505050565b600061188f8385611f1c565b93507f07ffffffffffffffffffffffffffffffffffffffffffffffffffffffffffffff8311156118c2576118c1612298565b5b6020830292506118d38385846120e1565b82840190509392505050565b60006118ea82611eec565b6118f48185611f1c565b93506118ff83611ecc565b8060005b838110156119375761191482612271565b61191e8882611805565b975061192983611f04565b925050600181019050611903565b5085935050505092915050565b61194d8161206f565b82525050565b61195c8161207b565b82525050565b600061196f601c83611f2d565b915061197a826122c0565b602082019050919050565b6000611992601683611f2d565b915061199d826122e9565b602082019050919050565b60006119b5602083611f2d565b91506119c082612312565b602082019050919050565b60006119d8600d83611f2d565b91506119e38261233b565b602082019050919050565b60006119fb601183611f2d565b9150611a0682612364565b602082019050919050565b6000611a1e601883611f2d565b9150611a298261238d565b602082019050919050565b6000611a41600d83611f2d565b9150611a4c826123b6565b602082019050919050565b6000611a64600f83611f2d565b9150611a6f826123df565b602082019050919050565b6000611a87601d83611f2d565b9150611a9282612408565b602082019050919050565b6000611aaa601483611f2d565b9150611ab582612431565b602082019050919050565b6000611acd601083611f2d565b9150611ad88261245a565b602082019050919050565b611aec81612085565b82525050565b611afb816120b3565b82525050565b611b0a816120b3565b82525050565b611b19816120bd565b82525050565b611b28816120cd565b82525050565b6000604082019050611b43600083018561181d565b611b50602083018461181d565b9392505050565b600060c082019050611b6c600083018461182c565b92915050565b600060a082019050611b876000830188611953565b611b946020830187611b1f565b611ba16040830186611ae3565b611bae6060830185611b10565b611bbb6080830184611b10565b9695505050505050565b60006020820190508181036000830152611bde81611962565b9050919050565b60006020820190508181036000830152611bfe81611985565b9050919050565b60006020820190508181036000830152611c1e816119a8565b9050919050565b60006020820190508181036000830152611c3e816119cb565b9050919050565b60006020820190508181036000830152611c5e816119ee565b9050919050565b60006020820190508181036000830152611c7e81611a11565b9050919050565b60006020820190508181036000830152611c9e81611a34565b9050919050565b60006020820190508181036000830152611cbe81611a57565b9050919050565b60006020820190508181036000830152611cde81611a7a565b9050919050565b60006020820190508181036000830152611cfe81611a9d565b9050919050565b60006020820190508181036000830152611d1e81611ac0565b9050919050565b6000602082019050611d3a6000830184611b01565b92915050565b600060e082019050611d556000830185611b01565b611d62602083018461182c565b9392505050565b6000606082019050611d7e6000830187611b01565b8181036020830152611d91818587611883565b9050611da06040830184611b01565b95945050505050565b6000606082019050611dbe6000830186611b01565b8181036020830152611dd081856118df565b9050611ddf6040830184611b01565b949350505050565b6000608082019050611dfc6000830187611b01565b611e096020830186611b01565b611e16604083018561181d565b611e236060830184611944565b95945050505050565b6000608082019050611e416000830187611b01565b611e4e6020830186611b01565b611e5b6040830185611b01565b611e686060830184611b01565b95945050505050565b6000611e7b611e8c565b9050611e87828261210a565b919050565b6000604051905090565b600067ffffffffffffffff821115611eb157611eb0612242565b5b602082029050602081019050919050565b6000819050919050565b60008190508160005260206000209050919050565b600060069050919050565b600081549050919050565b6000602082019050919050565b6000600182019050919050565b600081905092915050565b600082825260208201905092915050565b600082825260208201905092915050565b6000611f49826120b3565b9150611f54836120b3565b9250827fffffffffffffffffffffffffffffffffffffffffffffffffffffffffffffffff03821115611f8957611f886121b5565b5b828201905092915050565b6000611f9f826120b3565b9150611faa836120b3565b925082611fba57611fb96121e4565b5b828204905092915050565b6000611fd0826120b3565b9150611fdb836120b3565b9250817fffffffffffffffffffffffffffffffffffffffffffffffffffffffffffffffff0483118215151615612014576120136121b5565b5b828202905092915050565b600061202a826120b3565b9150612035836120b3565b925082821015612048576120476121b5565b5b828203905092915050565b6000819050919050565b600061206882612093565b9050919050565b60008115159050919050565b6000819050919050565b600061ffff82169050919050565b600073ffffffffffffffffffffffffffffffffffffffff82169050919050565b6000819050919050565b600063ffffffff82169050919050565b600067ffffffffffffffff82169050919050565b82818337600083830152505050565b60006121036120fe836122b3565b612053565b9050919050565b612113826122a2565b810181811067ffffffffffffffff8211171561213257612131612242565b5b80604052505050565b6000612146826120b3565b91507fffffffffffffffffffffffffffffffffffffffffffffffffffffffffffffffff821415612179576121786121b5565b5b600182019050919050565b600061218f826120b3565b915061219a836120b3565b9250826121aa576121a96121e4565b5b828206905092915050565b7f4e487b7100000000000000000000000000000000000000000000000000000000600052601160045260246000fd5b7f4e487b7100000000000000000000000000000000000000000000000000000000600052601260045260246000fd5b7f4e487b7100000000000000000000000000000000000000000000000000000000600052603260045260246000fd5b7f4e487b7100000000000000000000000000000000000000000000000000000000600052604160045260246000fd5b600061227d82546120f0565b9050919050565b600080fd5b600080fd5b600080fd5b600080fd5b600080fd5b600080fd5b6000601f19601f8301169050919050565b60008160001c9050919050565b7f52616e646f6d6e65737320616c72656164792066756c66696c6c656400000000600082015250565b7f4c6976696e6720696e2074686520706173742062726f00000000000000000000600082015250565b7f4f6e6c792077696e206265742063757272656e746c7920737570706f72746564600082015250565b7f526163652066696e6973696e6700000000000000000000000000000000000000600082015250565b7f52616365206e6f742066696e6973686564000000000000000000000000000000600082015250565b7f526573756c7420616c7265616479207265717565737465640000000000000000600082015250565b7f526163652066696e697368656400000000000000000000000000000000000000600082015250565b7f496e76616c696420726163652049440000000000000000000000000000000000600082015250565b7f5261636520726573756c7420616c72656164792066756c66696c6c6564000000600082015250565b7f52616365206973206e6f742066696e6973686564000000000000000000000000600082015250565b7f42657420616c7265616479207061696400000000000000000000000000000000600082015250565b61248c8161205d565b811461249757600080fd5b50565b6124a3816120b3565b81146124ae57600080fd5b5056fea264697066735822122089c69d9cc913a66c467ce48be93d1f6dd2e6ebdb5c8783459011718ba2599a7764736f6c63430008070033",
  "devdoc": {
    "kind": "dev",
    "methods": {},
    "title": "An betting game with exotic bet types",
    "version": 1
  },
  "userdoc": {
    "events": {
      "Payout(uint256,address,uint256,uint256[],uint256)": {
        "notice": "emitted when a bet is cashed out."
      },
      "RaceEnd(uint256,uint256,uint256[6])": {
        "notice": "emitted when a race ends."
      },
      "RaceStart(uint256,uint256)": {
        "notice": "emitted when a race starts."
      },
      "Wagered(uint256,address,uint256,uint256[],uint256)": {
        "notice": "emitted when a new bet is placed on a race."
      }
    },
    "kind": "user",
    "methods": {
      "bet(address,uint256)": {
        "notice": "mapping of address to list of bets."
      },
      "endRace(uint256)": {
        "notice": "End the race and request result from VRF."
      },
      "frequency()": {
        "notice": "How often races take place."
      },
      "nextRaceId()": {
        "notice": "The time of the next race to take place."
      },
      "odds(uint256,uint256[])": {
        "notice": "Get the current odds for a prediction."
      },
      "payout(uint256)": {
        "notice": "Cash out a winning bet."
      },
      "placeBet(uint256,uint256[])": {
        "notice": "Place a bet."
      },
      "race(uint256)": {
        "notice": "The state for each race."
      },
      "raceResult(uint256)": {
        "notice": "Return the results for a race."
      },
      "start()": {
        "notice": "The datetime of the first race."
      }
    },
    "version": 1
  },
  "storageLayout": {
    "storage": [
      {
        "astId": 157,
        "contract": "contracts/Exotic.sol:Exotic",
        "label": "COORDINATOR",
        "offset": 0,
        "slot": "0",
        "type": "t_contract(VRFCoordinatorV2Interface)146"
      },
      {
        "astId": 159,
        "contract": "contracts/Exotic.sol:Exotic",
        "label": "s_subscriptionId",
        "offset": 20,
        "slot": "0",
        "type": "t_uint64"
      },
      {
        "astId": 161,
        "contract": "contracts/Exotic.sol:Exotic",
        "label": "vrfCoordinator",
        "offset": 0,
        "slot": "1",
        "type": "t_address"
      },
      {
        "astId": 164,
        "contract": "contracts/Exotic.sol:Exotic",
        "label": "keyHash",
        "offset": 0,
        "slot": "2",
        "type": "t_bytes32"
      },
      {
        "astId": 167,
        "contract": "contracts/Exotic.sol:Exotic",
        "label": "callbackGasLimit",
        "offset": 0,
        "slot": "3",
        "type": "t_uint32"
      },
      {
        "astId": 170,
        "contract": "contracts/Exotic.sol:Exotic",
        "label": "requestConfirmations",
        "offset": 4,
        "slot": "3",
        "type": "t_uint16"
      },
      {
        "astId": 173,
        "contract": "contracts/Exotic.sol:Exotic",
        "label": "numWords",
        "offset": 6,
        "slot": "3",
        "type": "t_uint32"
      },
      {
        "astId": 175,
        "contract": "contracts/Exotic.sol:Exotic",
        "label": "balance",
        "offset": 0,
        "slot": "4",
        "type": "t_uint256"
      },
      {
        "astId": 215,
        "contract": "contracts/Exotic.sol:Exotic",
        "label": "race",
        "offset": 0,
        "slot": "5",
        "type": "t_mapping(t_uint256,t_struct(Race)209_storage)"
      },
      {
        "astId": 222,
        "contract": "contracts/Exotic.sol:Exotic",
        "label": "bet",
        "offset": 0,
        "slot": "6",
        "type": "t_mapping(t_address,t_array(t_struct(Bet)194_storage)dyn_storage)"
      },
      {
        "astId": 227,
        "contract": "contracts/Exotic.sol:Exotic",
        "label": "requestIdRace",
        "offset": 0,
        "slot": "7",
        "type": "t_mapping(t_uint256,t_uint256)"
      }
    ],
    "types": {
      "t_address": {
        "encoding": "inplace",
        "label": "address",
        "numberOfBytes": "20"
      },
      "t_array(t_array(t_uint256)6_storage)3_storage": {
        "base": "t_array(t_uint256)6_storage",
        "encoding": "inplace",
        "label": "uint256[6][3]",
        "numberOfBytes": "576"
      },
      "t_array(t_struct(Bet)194_storage)dyn_storage": {
        "base": "t_struct(Bet)194_storage",
        "encoding": "dynamic_array",
        "label": "struct Exotic.Bet[]",
        "numberOfBytes": "32"
      },
      "t_array(t_uint256)6_storage": {
        "base": "t_uint256",
        "encoding": "inplace",
        "label": "uint256[6]",
        "numberOfBytes": "192"
      },
      "t_array(t_uint256)dyn_storage": {
        "base": "t_uint256",
        "encoding": "dynamic_array",
        "label": "uint256[]",
        "numberOfBytes": "32"
      },
      "t_bool": {
        "encoding": "inplace",
        "label": "bool",
        "numberOfBytes": "1"
      },
      "t_bytes32": {
        "encoding": "inplace",
        "label": "bytes32",
        "numberOfBytes": "32"
      },
      "t_contract(VRFCoordinatorV2Interface)146": {
        "encoding": "inplace",
        "label": "contract VRFCoordinatorV2Interface",
        "numberOfBytes": "20"
      },
      "t_mapping(t_address,t_array(t_struct(Bet)194_storage)dyn_storage)": {
        "encoding": "mapping",
        "key": "t_address",
        "label": "mapping(address => struct Exotic.Bet[])",
        "numberOfBytes": "32",
        "value": "t_array(t_struct(Bet)194_storage)dyn_storage"
      },
      "t_mapping(t_uint256,t_struct(Race)209_storage)": {
        "encoding": "mapping",
        "key": "t_uint256",
        "label": "mapping(uint256 => struct Exotic.Race)",
        "numberOfBytes": "32",
        "value": "t_struct(Race)209_storage"
      },
      "t_mapping(t_uint256,t_uint256)": {
        "encoding": "mapping",
        "key": "t_uint256",
        "label": "mapping(uint256 => uint256)",
        "numberOfBytes": "32",
        "value": "t_uint256"
      },
      "t_struct(Bet)194_storage": {
        "encoding": "inplace",
        "label": "struct Exotic.Bet",
        "members": [
          {
            "astId": 184,
            "contract": "contracts/Exotic.sol:Exotic",
            "label": "raceId",
            "offset": 0,
            "slot": "0",
            "type": "t_uint256"
          },
          {
            "astId": 186,
            "contract": "contracts/Exotic.sol:Exotic",
            "label": "amount",
            "offset": 0,
            "slot": "1",
            "type": "t_uint256"
          },
          {
            "astId": 188,
            "contract": "contracts/Exotic.sol:Exotic",
            "label": "account",
            "offset": 0,
            "slot": "2",
            "type": "t_address"
          },
          {
            "astId": 191,
            "contract": "contracts/Exotic.sol:Exotic",
            "label": "place",
            "offset": 0,
            "slot": "3",
            "type": "t_array(t_uint256)dyn_storage"
          },
          {
            "astId": 193,
            "contract": "contracts/Exotic.sol:Exotic",
            "label": "paid",
            "offset": 0,
            "slot": "4",
            "type": "t_bool"
          }
        ],
        "numberOfBytes": "160"
      },
      "t_struct(Race)209_storage": {
        "encoding": "inplace",
        "label": "struct Exotic.Race",
        "members": [
          {
            "astId": 196,
            "contract": "contracts/Exotic.sol:Exotic",
            "label": "fee",
            "offset": 0,
            "slot": "0",
            "type": "t_uint256"
          },
          {
            "astId": 198,
            "contract": "contracts/Exotic.sol:Exotic",
            "label": "totalWagered",
            "offset": 0,
            "slot": "1",
            "type": "t_uint256"
          },
          {
            "astId": 200,
            "contract": "contracts/Exotic.sol:Exotic",
            "label": "paid",
            "offset": 0,
            "slot": "2",
            "type": "t_uint256"
          },
          {
            "astId": 202,
            "contract": "contracts/Exotic.sol:Exotic",
            "label": "result",
            "offset": 0,
            "slot": "3",
            "type": "t_uint256"
          },
          {
            "astId": 208,
            "contract": "contracts/Exotic.sol:Exotic",
            "label": "weights",
            "offset": 0,
            "slot": "4",
            "type": "t_array(t_array(t_uint256)6_storage)3_storage"
          }
        ],
        "numberOfBytes": "704"
      },
      "t_uint16": {
        "encoding": "inplace",
        "label": "uint16",
        "numberOfBytes": "2"
      },
      "t_uint256": {
        "encoding": "inplace",
        "label": "uint256",
        "numberOfBytes": "32"
      },
      "t_uint32": {
        "encoding": "inplace",
        "label": "uint32",
        "numberOfBytes": "4"
      },
      "t_uint64": {
        "encoding": "inplace",
        "label": "uint64",
        "numberOfBytes": "8"
      }
    }
  }
}