{
  "address": "0xCA65F092B3d1f2c6ea8665dE111E84Da726A84B7",
  "abi": [
    {
      "anonymous": false,
      "inputs": [
        {
          "indexed": false,
          "internalType": "uint8",
          "name": "version",
          "type": "uint8"
        }
      ],
      "name": "Initialized",
      "type": "event"
    },
    {
      "anonymous": false,
      "inputs": [
        {
          "indexed": false,
          "internalType": "uint256",
          "name": "maxBet",
          "type": "uint256"
        }
      ],
      "name": "MaxBetUpdated",
      "type": "event"
    },
    {
      "anonymous": false,
      "inputs": [
        {
          "indexed": true,
          "internalType": "address",
          "name": "previousOwner",
          "type": "address"
        },
        {
          "indexed": true,
          "internalType": "address",
          "name": "newOwner",
          "type": "address"
        }
      ],
      "name": "OwnershipTransferred",
      "type": "event"
    },
    {
      "anonymous": false,
      "inputs": [
        {
          "indexed": true,
          "internalType": "uint256",
          "name": "raceId",
          "type": "uint256"
        },
        {
          "indexed": true,
          "internalType": "address",
          "name": "to",
          "type": "address"
        },
        {
          "indexed": false,
          "internalType": "uint256",
          "name": "amount",
          "type": "uint256"
        },
        {
          "indexed": false,
          "internalType": "uint256[]",
          "name": "prediction",
          "type": "uint256[]"
        },
        {
          "indexed": false,
          "internalType": "uint256",
          "name": "payout",
          "type": "uint256"
        }
      ],
      "name": "Payout",
      "type": "event"
    },
    {
      "anonymous": false,
      "inputs": [
        {
          "indexed": true,
          "internalType": "uint256",
          "name": "raceId",
          "type": "uint256"
        },
        {
          "indexed": false,
          "internalType": "uint256",
          "name": "totalValue",
          "type": "uint256"
        },
        {
          "indexed": false,
          "internalType": "uint256",
          "name": "result",
          "type": "uint256"
        }
      ],
      "name": "RaceEnd",
      "type": "event"
    },
    {
      "anonymous": false,
      "inputs": [
        {
          "indexed": true,
          "internalType": "uint256",
          "name": "raceId",
          "type": "uint256"
        },
        {
          "indexed": false,
          "internalType": "uint256",
          "name": "totalValue",
          "type": "uint256"
        }
      ],
      "name": "RaceStart",
      "type": "event"
    },
    {
      "anonymous": false,
      "inputs": [
        {
          "indexed": true,
          "internalType": "uint256",
          "name": "raceId",
          "type": "uint256"
        },
        {
          "indexed": true,
          "internalType": "address",
          "name": "from",
          "type": "address"
        },
        {
          "indexed": false,
          "internalType": "uint256",
          "name": "amount",
          "type": "uint256"
        },
        {
          "indexed": false,
          "internalType": "uint256[]",
          "name": "prediction",
          "type": "uint256[]"
        },
        {
          "indexed": false,
          "internalType": "uint256",
          "name": "poolTotal",
          "type": "uint256"
        }
      ],
      "name": "Wagered",
      "type": "event"
    },
    {
      "inputs": [
        {
          "internalType": "address",
          "name": "",
          "type": "address"
        },
        {
          "internalType": "uint256",
          "name": "",
          "type": "uint256"
        }
      ],
      "name": "bet",
      "outputs": [
        {
          "internalType": "uint256",
          "name": "raceId",
          "type": "uint256"
        },
        {
          "internalType": "uint256",
          "name": "amount",
          "type": "uint256"
        },
        {
          "internalType": "address",
          "name": "account",
          "type": "address"
        },
        {
          "internalType": "bool",
          "name": "paid",
          "type": "bool"
        }
      ],
      "stateMutability": "view",
      "type": "function"
    },
    {
      "inputs": [
        {
          "internalType": "uint256",
          "name": "requestId",
          "type": "uint256"
        },
        {
          "internalType": "uint256[]",
          "name": "randomWords",
          "type": "uint256[]"
        }
      ],
      "name": "endRace",
      "outputs": [],
      "stateMutability": "nonpayable",
      "type": "function"
    },
    {
      "inputs": [],
      "name": "fee",
      "outputs": [
        {
          "internalType": "uint256",
          "name": "",
          "type": "uint256"
        }
      ],
      "stateMutability": "view",
      "type": "function"
    },
    {
      "inputs": [],
      "name": "feeAddress",
      "outputs": [
        {
          "internalType": "address",
          "name": "",
          "type": "address"
        }
      ],
      "stateMutability": "view",
      "type": "function"
    },
    {
      "inputs": [],
      "name": "frequency",
      "outputs": [
        {
          "internalType": "uint256",
          "name": "",
          "type": "uint256"
        }
      ],
      "stateMutability": "view",
      "type": "function"
    },
    {
      "inputs": [
        {
          "internalType": "address",
          "name": "_randomProviderAddress",
          "type": "address"
        },
        {
          "internalType": "uint256",
          "name": "_fee",
          "type": "uint256"
        },
        {
          "internalType": "uint256",
          "name": "_jackpotContribution",
          "type": "uint256"
        },
        {
          "internalType": "address",
          "name": "_feeAddress",
          "type": "address"
        },
        {
          "internalType": "address",
          "name": "_jackpotAddress",
          "type": "address"
        },
        {
          "internalType": "uint256",
          "name": "_maxBet",
          "type": "uint256"
        }
      ],
      "name": "initialize",
      "outputs": [],
      "stateMutability": "nonpayable",
      "type": "function"
    },
    {
      "inputs": [],
      "name": "jackpotAddress",
      "outputs": [
        {
          "internalType": "address",
          "name": "",
          "type": "address"
        }
      ],
      "stateMutability": "view",
      "type": "function"
    },
    {
      "inputs": [],
      "name": "jackpotContribution",
      "outputs": [
        {
          "internalType": "uint256",
          "name": "",
          "type": "uint256"
        }
      ],
      "stateMutability": "view",
      "type": "function"
    },
    {
      "inputs": [],
      "name": "maxBet",
      "outputs": [
        {
          "internalType": "uint256",
          "name": "",
          "type": "uint256"
        }
      ],
      "stateMutability": "view",
      "type": "function"
    },
    {
      "inputs": [],
      "name": "nextRaceId",
      "outputs": [
        {
          "internalType": "uint256",
          "name": "",
          "type": "uint256"
        }
      ],
      "stateMutability": "view",
      "type": "function"
    },
    {
      "inputs": [
        {
          "internalType": "uint256",
          "name": "raceId",
          "type": "uint256"
        },
        {
          "internalType": "uint256[]",
          "name": "result",
          "type": "uint256[]"
        }
      ],
      "name": "odds",
      "outputs": [
        {
          "internalType": "uint256",
          "name": "",
          "type": "uint256"
        }
      ],
      "stateMutability": "view",
      "type": "function"
    },
    {
      "inputs": [],
      "name": "owner",
      "outputs": [
        {
          "internalType": "address",
          "name": "",
          "type": "address"
        }
      ],
      "stateMutability": "view",
      "type": "function"
    },
    {
      "inputs": [
        {
          "internalType": "uint256",
          "name": "betId",
          "type": "uint256"
        }
      ],
      "name": "payout",
      "outputs": [],
      "stateMutability": "nonpayable",
      "type": "function"
    },
    {
      "inputs": [
        {
          "internalType": "uint256",
          "name": "raceId",
          "type": "uint256"
        },
        {
          "internalType": "uint256[]",
          "name": "prediction",
          "type": "uint256[]"
        }
      ],
      "name": "placeBet",
      "outputs": [
        {
          "internalType": "uint256",
          "name": "betId",
          "type": "uint256"
        }
      ],
      "stateMutability": "payable",
      "type": "function"
    },
    {
      "inputs": [
        {
          "internalType": "uint256",
          "name": "",
          "type": "uint256"
        }
      ],
      "name": "race",
      "outputs": [
        {
          "internalType": "uint256",
          "name": "totalWagered",
          "type": "uint256"
        },
        {
          "internalType": "uint256",
          "name": "paid",
          "type": "uint256"
        },
        {
          "internalType": "uint256",
          "name": "result",
          "type": "uint256"
        },
        {
          "internalType": "uint256",
          "name": "requestId",
          "type": "uint256"
        }
      ],
      "stateMutability": "view",
      "type": "function"
    },
    {
      "inputs": [
        {
          "internalType": "uint256",
          "name": "raceId",
          "type": "uint256"
        }
      ],
      "name": "raceResult",
      "outputs": [
        {
          "internalType": "uint256[6]",
          "name": "",
          "type": "uint256[6]"
        }
      ],
      "stateMutability": "view",
      "type": "function"
    },
    {
      "inputs": [],
      "name": "randomProvider",
      "outputs": [
        {
          "internalType": "contract IRandomProvider",
          "name": "",
          "type": "address"
        }
      ],
      "stateMutability": "view",
      "type": "function"
    },
    {
      "inputs": [],
      "name": "renounceOwnership",
      "outputs": [],
      "stateMutability": "nonpayable",
      "type": "function"
    },
    {
      "inputs": [],
      "name": "start",
      "outputs": [
        {
          "internalType": "uint256",
          "name": "",
          "type": "uint256"
        }
      ],
      "stateMutability": "view",
      "type": "function"
    },
    {
      "inputs": [
        {
          "internalType": "uint256",
          "name": "raceId",
          "type": "uint256"
        }
      ],
      "name": "startRace",
      "outputs": [],
      "stateMutability": "nonpayable",
      "type": "function"
    },
    {
      "inputs": [
        {
          "internalType": "address",
          "name": "newOwner",
          "type": "address"
        }
      ],
      "name": "transferOwnership",
      "outputs": [],
      "stateMutability": "nonpayable",
      "type": "function"
    },
    {
      "inputs": [
        {
          "internalType": "uint256",
          "name": "_maxBet",
          "type": "uint256"
        }
      ],
      "name": "updateMaxBet",
      "outputs": [],
      "stateMutability": "nonpayable",
      "type": "function"
    },
    {
      "inputs": [
        {
          "internalType": "address",
          "name": "user",
          "type": "address"
        },
        {
          "internalType": "uint256",
          "name": "betId",
          "type": "uint256"
        }
      ],
      "name": "userBet",
      "outputs": [
        {
          "components": [
            {
              "internalType": "uint256",
              "name": "raceId",
              "type": "uint256"
            },
            {
              "internalType": "uint256",
              "name": "amount",
              "type": "uint256"
            },
            {
              "internalType": "address",
              "name": "account",
              "type": "address"
            },
            {
              "internalType": "uint256[]",
              "name": "place",
              "type": "uint256[]"
            },
            {
              "internalType": "bool",
              "name": "paid",
              "type": "bool"
            }
          ],
          "internalType": "struct Exotic.Bet",
          "name": "",
          "type": "tuple"
        }
      ],
      "stateMutability": "view",
      "type": "function"
    },
    {
      "inputs": [
        {
          "internalType": "address",
          "name": "user",
          "type": "address"
        }
      ],
      "name": "userBetCount",
      "outputs": [
        {
          "internalType": "uint256",
          "name": "",
          "type": "uint256"
        }
      ],
      "stateMutability": "view",
      "type": "function"
    }
  ],
  "transactionHash": "0xad146d4fc849e4228cce7b5bf46db7af82ff0f108817cbea4909da148ca99067",
  "args": [],
  "numDeployments": 2,
  "solcInputHash": "96e94cd3878c1e8d104cb2b8d64c53f1",
  "bytecode": "0x608060405234801561001057600080fd5b50613514806100206000396000f3fe60806040526004361061014b5760003560e01c8063b71455ee116100b6578063ddca3f431161006f578063ddca3f431461048a578063e1152343146104b5578063ead50da3146104de578063f2fde38b14610509578063f408a23a14610532578063f846cabc1461056f5761014b565b8063b71455ee1461034f578063b7dda85e1461038c578063be9a6555146103cc578063d149221b146103f7578063d8595d8614610434578063d9b8fd8f1461045f5761014b565b80634195ab8e116101085780634195ab8e146102515780636bc0b3ba1461028e578063715018a6146102b95780638da5cb5b146102d05780638f46500e146102fb578063a55cd51c146103265761014b565b8063122d2d961461015057806324d822bf146101795780632e5b2168146101a257806330d14655146101cd578063315aa38c146101fd5780634127535814610226575b600080fd5b34801561015c57600080fd5b5061017760048036038101906101729190612278565b6105af565b005b34801561018557600080fd5b506101a0600480360381019061019b9190612305565b610728565b005b3480156101ae57600080fd5b506101b761092a565b6040516101c49190612b98565b60405180910390f35b6101e760048036038101906101e2919061235f565b610930565b6040516101f49190612b98565b60405180910390f35b34801561020957600080fd5b50610224600480360381019061021f91906123bf565b610e9e565b005b34801561023257600080fd5b5061023b611025565b60405161024891906128ea565b60405180910390f35b34801561025d57600080fd5b5061027860048036038101906102739190612238565b61104b565b6040516102859190612b76565b60405180910390f35b34801561029a57600080fd5b506102a36111a2565b6040516102b091906128ea565b60405180910390f35b3480156102c557600080fd5b506102ce6111c8565b005b3480156102dc57600080fd5b506102e5611250565b6040516102f291906128ea565b60405180910390f35b34801561030757600080fd5b5061031061127a565b60405161031d9190612920565b60405180910390f35b34801561033257600080fd5b5061034d60048036038101906103489190612305565b6112a0565b005b34801561035b57600080fd5b5061037660048036038101906103719190612305565b61135f565b6040516103839190612905565b60405180910390f35b34801561039857600080fd5b506103b360048036038101906103ae9190612305565b611544565b6040516103c39493929190612c9f565b60405180910390f35b3480156103d857600080fd5b506103e1611574565b6040516103ee9190612b98565b60405180910390f35b34801561040357600080fd5b5061041e600480360381019061041991906123bf565b61157a565b60405161042b9190612b98565b60405180910390f35b34801561044057600080fd5b5061044961170d565b6040516104569190612b98565b60405180910390f35b34801561046b57600080fd5b50610474611713565b6040516104819190612b98565b60405180910390f35b34801561049657600080fd5b5061049f61173e565b6040516104ac9190612b98565b60405180910390f35b3480156104c157600080fd5b506104dc60048036038101906104d79190612305565b611744565b005b3480156104ea57600080fd5b506104f3611a61565b6040516105009190612b98565b60405180910390f35b34801561051557600080fd5b50610530600480360381019061052b919061220b565b611a66565b005b34801561053e57600080fd5b506105596004803603810190610554919061220b565b611b5e565b6040516105669190612b98565b60405180910390f35b34801561057b57600080fd5b5061059660048036038101906105919190612238565b611baa565b6040516105a69493929190612c5a565b60405180910390f35b60006105bb6001611c24565b905080156105df576001600060016101000a81548160ff0219169083151502179055505b4260678190555086606560006101000a81548173ffffffffffffffffffffffffffffffffffffffff021916908373ffffffffffffffffffffffffffffffffffffffff160217905550856068819055508460698190555083606a60006101000a81548173ffffffffffffffffffffffffffffffffffffffff021916908373ffffffffffffffffffffffffffffffffffffffff16021790555082606b60006101000a81548173ffffffffffffffffffffffffffffffffffffffff021916908373ffffffffffffffffffffffffffffffffffffffff16021790555081606c819055506106c6611d14565b801561071f5760008060016101000a81548160ff0219169083151502179055507f7f26b83ff96e1f2b6a682f133852f6798a09c465da95921460cefb38474024986001604051610716919061293b565b60405180910390a15b50505050505050565b61073181611d6d565b60b48161073e9190612dea565b421161077f576040517f08c379a000000000000000000000000000000000000000000000000000000000815260040161077690612a56565b60405180910390fd5b6000606d6000838152602001908152602001600020905060008160030154146107dd576040517f08c379a00000000000000000000000000000000000000000000000000000000081526004016107d490612a96565b60405180910390fd5b6000816002015414610824576040517f08c379a000000000000000000000000000000000000000000000000000000000815260040161081b90612af6565b60405180910390fd5b6000606560009054906101000a900473ffffffffffffffffffffffffffffffffffffffff1673ffffffffffffffffffffffffffffffffffffffff1663e0c862896040518163ffffffff1660e01b8152600401602060405180830381600087803b15801561089057600080fd5b505af11580156108a4573d6000803e3d6000fd5b505050506040513d601f19601f820116820180604052508101906108c89190612332565b905080826003018190555082606f600083815260200190815260200160002081905550827f727aed3ef5e1b948e78407c8b942fb3193ebc5901b4bc951faa6568c90b7849560665460405161091d9190612b98565b60405180910390a2505050565b606c5481565b600061093b84611d6d565b60018383905014610981576040517f08c379a0000000000000000000000000000000000000000000000000000000008152600401610978906129f6565b60405180910390fd5b6000612710606854346109949190612e71565b61099e9190612e40565b90506000612710606954346109b39190612e71565b6109bd9190612e40565b9050600081836109cd9190612dea565b346109d89190612ecb565b9050606c54811115610a1f576040517f08c379a0000000000000000000000000000000000000000000000000000000008152600401610a1690612976565b60405180910390fd5b610a27612005565b878160000181815250508181602001818152505033816040019073ffffffffffffffffffffffffffffffffffffffff16908173ffffffffffffffffffffffffffffffffffffffff1681525050606e60003373ffffffffffffffffffffffffffffffffffffffff1673ffffffffffffffffffffffffffffffffffffffff168152602001908152602001600020819080600181540180825580915050600190039060005260206000209060050201600090919091909150600082015181600001556020820151816001015560408201518160020160006101000a81548173ffffffffffffffffffffffffffffffffffffffff021916908373ffffffffffffffffffffffffffffffffffffffff1602179055506060820151816003019080519060200190610b5392919061204c565b5060808201518160040160006101000a81548160ff0219169083151502179055505050606e60003373ffffffffffffffffffffffffffffffffffffffff1673ffffffffffffffffffffffffffffffffffffffff1681526020019081526020016000206001606e60003373ffffffffffffffffffffffffffffffffffffffff1673ffffffffffffffffffffffffffffffffffffffff16815260200190815260200160002080549050610c049190612ecb565b81548110610c1557610c146130d8565b5b906000526020600020906005020160030187876000818110610c3a57610c396130d8565b5b9050602002013590806001815401808255809150506001900390600052602060002001600090919091909150556000606d60008a81526020019081526020016000209050828160040189896000818110610c9757610c966130d8565b5b9050602002013560068110610caf57610cae6130d8565b5b016000828254610cbf9190612dea565b9250508190555082816000016000828254610cda9190612dea565b925050819055508260666000828254610cf39190612dea565b925050819055503373ffffffffffffffffffffffffffffffffffffffff16897fed7146643be17948fcb4400f9980c37ef3404baf91823ef51782e2c6673266f6858b8b606654604051610d499493929190612bb3565b60405180910390a34260b48a610d5f9190612dea565b1015610d6f57610d6e89610728565b5b606a60009054906101000a900473ffffffffffffffffffffffffffffffffffffffff1673ffffffffffffffffffffffffffffffffffffffff166108fc869081150290604051600060405180830381858888f19350505050158015610dd7573d6000803e3d6000fd5b50606b60009054906101000a900473ffffffffffffffffffffffffffffffffffffffff1673ffffffffffffffffffffffffffffffffffffffff166108fc859081150290604051600060405180830381858888f19350505050158015610e40573d6000803e3d6000fd5b506001606e60003373ffffffffffffffffffffffffffffffffffffffff1673ffffffffffffffffffffffffffffffffffffffff16815260200190815260200160002080549050610e909190612ecb565b955050505050509392505050565b606560009054906101000a900473ffffffffffffffffffffffffffffffffffffffff1673ffffffffffffffffffffffffffffffffffffffff163373ffffffffffffffffffffffffffffffffffffffff1614610f2e576040517f08c379a0000000000000000000000000000000000000000000000000000000008152600401610f25906129b6565b60405180910390fd5b6000606f60008481526020019081526020016000205490506000606d600083815260200190815260200160002090506000816002015414610fa4576040517f08c379a0000000000000000000000000000000000000000000000000000000008152600401610f9b90612956565b60405180910390fd5b82600081518110610fb857610fb76130d8565b5b60200260200101518160020181905550817f7554ff21c11af92d9ed24a3625daa96a85ebe3a0a3c44c44cb080cb400c42d9860665485600081518110611001576110006130d8565b5b6020026020010151604051611017929190612c31565b60405180910390a250505050565b606a60009054906101000a900473ffffffffffffffffffffffffffffffffffffffff1681565b611053612005565b606e60008473ffffffffffffffffffffffffffffffffffffffff1673ffffffffffffffffffffffffffffffffffffffff16815260200190815260200160002082815481106110a4576110a36130d8565b5b90600052602060002090600502016040518060a001604052908160008201548152602001600182015481526020016002820160009054906101000a900473ffffffffffffffffffffffffffffffffffffffff1673ffffffffffffffffffffffffffffffffffffffff1673ffffffffffffffffffffffffffffffffffffffff1681526020016003820180548060200260200160405190810160405280929190818152602001828054801561117657602002820191906000526020600020905b815481526020019060010190808311611162575b505050505081526020016004820160009054906101000a900460ff161515151581525050905092915050565b606b60009054906101000a900473ffffffffffffffffffffffffffffffffffffffff1681565b6111d0611eb3565b73ffffffffffffffffffffffffffffffffffffffff166111ee611250565b73ffffffffffffffffffffffffffffffffffffffff1614611244576040517f08c379a000000000000000000000000000000000000000000000000000000000815260040161123b90612a76565b60405180910390fd5b61124e6000611ebb565b565b6000603360009054906101000a900473ffffffffffffffffffffffffffffffffffffffff16905090565b606560009054906101000a900473ffffffffffffffffffffffffffffffffffffffff1681565b6112a8611eb3565b73ffffffffffffffffffffffffffffffffffffffff166112c6611250565b73ffffffffffffffffffffffffffffffffffffffff161461131c576040517f08c379a000000000000000000000000000000000000000000000000000000000815260040161131390612a76565b60405180910390fd5b80606c819055507f2b47c83dfa951a422411b397c029d005c87d9fa8fe9f6d2bc2620c23e5e00312606c546040516113549190612b98565b60405180910390a150565b611367612099565b6000606d60008481526020019081526020016000206040518060a001604052908160008201548152602001600182015481526020016002820154815260200160038201548152602001600482016006806020026040519081016040528092919082600680156113eb576020028201915b8154815260200190600101908083116113d7575b505050505081525050905060008160400151141561143e576040517f08c379a000000000000000000000000000000000000000000000000000000000815260040161143590612b36565b60405180910390fd5b611446612099565b600080600090505b6006811015611493578360800151816006811061146e5761146d6130d8565b5b60200201518261147e9190612dea565b9150808061148b90613000565b91505061144e565b60008285604001516114a59190613049565b905060005b60068110156115365781866080015182600681106114cb576114ca6130d8565b5b602002015111156114f95780856000600681106114eb576114ea6130d8565b5b602002018181525050611523565b856080015181600681106115105761150f6130d8565b5b6020020151826115209190612ecb565b91505b808061152e90613000565b9150506114aa565b849650505050505050919050565b606d6020528060005260406000206000915090508060000154908060010154908060020154908060030154905084565b60675481565b600080606d60008581526020019081526020016000206040518060a001604052908160008201548152602001600182015481526020016002820154815260200160038201548152602001600482016006806020026040519081016040528092919082600680156115ff576020028201915b8154815260200190600101908083116115eb575b5050505050815250509050600183511461164e576040517f08c379a0000000000000000000000000000000000000000000000000000000008152600401611645906129f6565b60405180910390fd5b600080600090505b600681101561169b5782608001518160068110611676576116756130d8565b5b6020020151826116869190612dea565b9150808061169390613000565b915050611656565b60008214156116af57819350505050611707565b816402540be4008460800151876000815181106116cf576116ce6130d8565b5b6020026020010151600681106116e8576116e76130d8565b5b60200201516116f79190612e71565b6117019190612e40565b93505050505b92915050565b60695481565b600060b4426117229190613049565b60b461172e9190612ecb565b426117399190612dea565b905090565b60685481565b6000606e60003373ffffffffffffffffffffffffffffffffffffffff1673ffffffffffffffffffffffffffffffffffffffff1681526020019081526020016000208281548110611797576117966130d8565b5b906000526020600020906005020190506000606d600083600001548152602001908152602001600020905060008160020154141561180a576040517f08c379a000000000000000000000000000000000000000000000000000000000815260040161180190612a56565b60405180910390fd5b8160040160009054906101000a900460ff161561185c576040517f08c379a000000000000000000000000000000000000000000000000000000000815260040161185390612b56565b60405180910390fd5b600061186b836000015461135f565b905060005b83600301805490508110156118d957818160068110611892576118916130d8565b5b60200201518460030182815481106118ad576118ac6130d8565b5b9060005260206000200154146118c65750505050611a5e565b80806118d190613000565b915050611870565b600061193b85600001548660030180548060200260200160405190810160405280929190818152602001828054801561193157602002820191906000526020600020905b81548152602001906001019080831161191d575b505050505061157a565b90506000816402540be40087600101546119559190612e71565b61195f9190612e40565b905060018660040160006101000a81548160ff021916908315150217905550808560010160008282546119929190612dea565b9250508190555080606660008282546119ab9190612ecb565b925050819055503373ffffffffffffffffffffffffffffffffffffffff1686600001547fef0068ac9e6ad3b19d182459af297eb4d144e7721b87c619278bed0fcd0bd5dc88600101548960030185604051611a0893929190612bf3565b60405180910390a33373ffffffffffffffffffffffffffffffffffffffff166108fc829081150290604051600060405180830381858888f19350505050158015611a56573d6000803e3d6000fd5b505050505050505b50565b60b481565b611a6e611eb3565b73ffffffffffffffffffffffffffffffffffffffff16611a8c611250565b73ffffffffffffffffffffffffffffffffffffffff1614611ae2576040517f08c379a0000000000000000000000000000000000000000000000000000000008152600401611ad990612a76565b60405180910390fd5b600073ffffffffffffffffffffffffffffffffffffffff168173ffffffffffffffffffffffffffffffffffffffff161415611b52576040517f08c379a0000000000000000000000000000000000000000000000000000000008152600401611b4990612996565b60405180910390fd5b611b5b81611ebb565b50565b6000606e60008373ffffffffffffffffffffffffffffffffffffffff1673ffffffffffffffffffffffffffffffffffffffff168152602001908152602001600020805490509050919050565b606e6020528160005260406000208181548110611bc657600080fd5b9060005260206000209060050201600091509150508060000154908060010154908060020160009054906101000a900473ffffffffffffffffffffffffffffffffffffffff16908060040160009054906101000a900460ff16905084565b60008060019054906101000a900460ff1615611c9b5760018260ff16148015611c535750611c5130611f81565b155b611c92576040517f08c379a0000000000000000000000000000000000000000000000000000000008152600401611c8990612a36565b60405180910390fd5b60009050611d0f565b8160ff1660008054906101000a900460ff1660ff1610611cf0576040517f08c379a0000000000000000000000000000000000000000000000000000000008152600401611ce790612a36565b60405180910390fd5b816000806101000a81548160ff021916908360ff160217905550600190505b919050565b600060019054906101000a900460ff16611d63576040517f08c379a0000000000000000000000000000000000000000000000000000000008152600401611d5a90612b16565b60405180910390fd5b611d6b611fa4565b565b600060b482611d7c9190613049565b14611dbc576040517f08c379a0000000000000000000000000000000000000000000000000000000008152600401611db390612ad6565b60405180910390fd5b606754811015611e01576040517f08c379a0000000000000000000000000000000000000000000000000000000008152600401611df8906129d6565b60405180910390fd5b6000606d60008381526020019081526020016000206002015414611e5a576040517f08c379a0000000000000000000000000000000000000000000000000000000008152600401611e5190612ab6565b60405180910390fd5b6000606f60008381526020019081526020016000205414611eb0576040517f08c379a0000000000000000000000000000000000000000000000000000000008152600401611ea790612a16565b60405180910390fd5b50565b600033905090565b6000603360009054906101000a900473ffffffffffffffffffffffffffffffffffffffff16905081603360006101000a81548173ffffffffffffffffffffffffffffffffffffffff021916908373ffffffffffffffffffffffffffffffffffffffff1602179055508173ffffffffffffffffffffffffffffffffffffffff168173ffffffffffffffffffffffffffffffffffffffff167f8be0079c531659141344cd1fd0a4f28419497f9722a3daafe3b4186f6b6457e060405160405180910390a35050565b6000808273ffffffffffffffffffffffffffffffffffffffff163b119050919050565b600060019054906101000a900460ff16611ff3576040517f08c379a0000000000000000000000000000000000000000000000000000000008152600401611fea90612b16565b60405180910390fd5b612003611ffe611eb3565b611ebb565b565b6040518060a001604052806000815260200160008152602001600073ffffffffffffffffffffffffffffffffffffffff168152602001606081526020016000151581525090565b828054828255906000526020600020908101928215612088579160200282015b8281111561208757825182559160200191906001019061206c565b5b50905061209591906120bb565b5090565b6040518060c00160405280600690602082028036833780820191505090505090565b5b808211156120d45760008160009055506001016120bc565b5090565b60006120eb6120e684612d09565b612ce4565b9050808382526020820190508285602086028201111561210e5761210d613153565b5b60005b8581101561213e578161212488826121e1565b845260208401935060208301925050600181019050612111565b5050509392505050565b600081359050612157816134b0565b92915050565b60008083601f8401126121735761217261314e565b5b8235905067ffffffffffffffff8111156121905761218f613149565b5b6020830191508360208202830111156121ac576121ab613153565b5b9250929050565b600082601f8301126121c8576121c761314e565b5b81356121d88482602086016120d8565b91505092915050565b6000813590506121f0816134c7565b92915050565b600081519050612205816134c7565b92915050565b60006020828403121561222157612220613162565b5b600061222f84828501612148565b91505092915050565b6000806040838503121561224f5761224e613162565b5b600061225d85828601612148565b925050602061226e858286016121e1565b9150509250929050565b60008060008060008060c0878903121561229557612294613162565b5b60006122a389828a01612148565b96505060206122b489828a016121e1565b95505060406122c589828a016121e1565b94505060606122d689828a01612148565b93505060806122e789828a01612148565b92505060a06122f889828a016121e1565b9150509295509295509295565b60006020828403121561231b5761231a613162565b5b6000612329848285016121e1565b91505092915050565b60006020828403121561234857612347613162565b5b6000612356848285016121f6565b91505092915050565b60008060006040848603121561237857612377613162565b5b6000612386868287016121e1565b935050602084013567ffffffffffffffff8111156123a7576123a6613158565b5b6123b38682870161215d565b92509250509250925092565b600080604083850312156123d6576123d5613162565b5b60006123e4858286016121e1565b925050602083013567ffffffffffffffff81111561240557612404613158565b5b612411858286016121b3565b9150509250929050565b600061242783836128cc565b60208301905092915050565b61243c81612f09565b82525050565b61244b81612f09565b82525050565b61245a81612d64565b6124648184612dac565b925061246f82612d35565b8060005b838110156124a0578151612487878261241b565b965061249283612d85565b925050600181019050612473565b505050505050565b60006124b48385612dc8565b93507f07ffffffffffffffffffffffffffffffffffffffffffffffffffffffffffffff8311156124e7576124e661315d565b5b6020830292506124f8838584612fa6565b82840190509392505050565b600061250f82612d6f565b6125198185612db7565b935061252483612d3f565b8060005b8381101561255557815161253c888261241b565b975061254783612d92565b925050600181019050612528565b5085935050505092915050565b600061256d82612d7a565b6125778185612dc8565b935061258283612d4f565b8060005b838110156125ba5761259782613136565b6125a1888261241b565b97506125ac83612d9f565b925050600181019050612586565b5085935050505092915050565b6125d081612f1b565b82525050565b6125df81612f1b565b82525050565b6125ee81612f5e565b82525050565b6125fd81612f70565b82525050565b6000612610601c83612dd9565b915061261b82613185565b602082019050919050565b6000612633601683612dd9565b915061263e826131ae565b602082019050919050565b6000612656602683612dd9565b9150612661826131d7565b604082019050919050565b6000612679601a83612dd9565b915061268482613226565b602082019050919050565b600061269c601683612dd9565b91506126a78261324f565b602082019050919050565b60006126bf602083612dd9565b91506126ca82613278565b602082019050919050565b60006126e2600d83612dd9565b91506126ed826132a1565b602082019050919050565b6000612705602e83612dd9565b9150612710826132ca565b604082019050919050565b6000612728601183612dd9565b915061273382613319565b602082019050919050565b600061274b602083612dd9565b915061275682613342565b602082019050919050565b600061276e601883612dd9565b91506127798261336b565b602082019050919050565b6000612791600d83612dd9565b915061279c82613394565b602082019050919050565b60006127b4600f83612dd9565b91506127bf826133bd565b602082019050919050565b60006127d7601d83612dd9565b91506127e2826133e6565b602082019050919050565b60006127fa602b83612dd9565b91506128058261340f565b604082019050919050565b600061281d601483612dd9565b91506128288261345e565b602082019050919050565b6000612840601083612dd9565b915061284b82613487565b602082019050919050565b600060a08301600083015161286e60008601826128cc565b50602083015161288160208601826128cc565b5060408301516128946040860182612433565b50606083015184820360608601526128ac8282612504565b91505060808301516128c160808601826125c7565b508091505092915050565b6128d581612f47565b82525050565b6128e481612f47565b82525050565b60006020820190506128ff6000830184612442565b92915050565b600060c08201905061291a6000830184612451565b92915050565b600060208201905061293560008301846125e5565b92915050565b600060208201905061295060008301846125f4565b92915050565b6000602082019050818103600083015261296f81612603565b9050919050565b6000602082019050818103600083015261298f81612626565b9050919050565b600060208201905081810360008301526129af81612649565b9050919050565b600060208201905081810360008301526129cf8161266c565b9050919050565b600060208201905081810360008301526129ef8161268f565b9050919050565b60006020820190508181036000830152612a0f816126b2565b9050919050565b60006020820190508181036000830152612a2f816126d5565b9050919050565b60006020820190508181036000830152612a4f816126f8565b9050919050565b60006020820190508181036000830152612a6f8161271b565b9050919050565b60006020820190508181036000830152612a8f8161273e565b9050919050565b60006020820190508181036000830152612aaf81612761565b9050919050565b60006020820190508181036000830152612acf81612784565b9050919050565b60006020820190508181036000830152612aef816127a7565b9050919050565b60006020820190508181036000830152612b0f816127ca565b9050919050565b60006020820190508181036000830152612b2f816127ed565b9050919050565b60006020820190508181036000830152612b4f81612810565b9050919050565b60006020820190508181036000830152612b6f81612833565b9050919050565b60006020820190508181036000830152612b908184612856565b905092915050565b6000602082019050612bad60008301846128db565b92915050565b6000606082019050612bc860008301876128db565b8181036020830152612bdb8185876124a8565b9050612bea60408301846128db565b95945050505050565b6000606082019050612c0860008301866128db565b8181036020830152612c1a8185612562565b9050612c2960408301846128db565b949350505050565b6000604082019050612c4660008301856128db565b612c5360208301846128db565b9392505050565b6000608082019050612c6f60008301876128db565b612c7c60208301866128db565b612c896040830185612442565b612c9660608301846125d6565b95945050505050565b6000608082019050612cb460008301876128db565b612cc160208301866128db565b612cce60408301856128db565b612cdb60608301846128db565b95945050505050565b6000612cee612cff565b9050612cfa8282612fcf565b919050565b6000604051905090565b600067ffffffffffffffff821115612d2457612d23613107565b5b602082029050602081019050919050565b6000819050919050565b6000819050602082019050919050565b60008190508160005260206000209050919050565b600060069050919050565b600081519050919050565b600081549050919050565b6000602082019050919050565b6000602082019050919050565b6000600182019050919050565b600081905092915050565b600082825260208201905092915050565b600082825260208201905092915050565b600082825260208201905092915050565b6000612df582612f47565b9150612e0083612f47565b9250827fffffffffffffffffffffffffffffffffffffffffffffffffffffffffffffffff03821115612e3557612e3461307a565b5b828201905092915050565b6000612e4b82612f47565b9150612e5683612f47565b925082612e6657612e656130a9565b5b828204905092915050565b6000612e7c82612f47565b9150612e8783612f47565b9250817fffffffffffffffffffffffffffffffffffffffffffffffffffffffffffffffff0483118215151615612ec057612ebf61307a565b5b828202905092915050565b6000612ed682612f47565b9150612ee183612f47565b925082821015612ef457612ef361307a565b5b828203905092915050565b6000819050919050565b6000612f1482612f27565b9050919050565b60008115159050919050565b600073ffffffffffffffffffffffffffffffffffffffff82169050919050565b6000819050919050565b600060ff82169050919050565b6000612f6982612f82565b9050919050565b6000612f7b82612f51565b9050919050565b6000612f8d82612f94565b9050919050565b6000612f9f82612f27565b9050919050565b82818337600083830152505050565b6000612fc8612fc383613178565b612eff565b9050919050565b612fd882613167565b810181811067ffffffffffffffff82111715612ff757612ff6613107565b5b80604052505050565b600061300b82612f47565b91507fffffffffffffffffffffffffffffffffffffffffffffffffffffffffffffffff82141561303e5761303d61307a565b5b600182019050919050565b600061305482612f47565b915061305f83612f47565b92508261306f5761306e6130a9565b5b828206905092915050565b7f4e487b7100000000000000000000000000000000000000000000000000000000600052601160045260246000fd5b7f4e487b7100000000000000000000000000000000000000000000000000000000600052601260045260246000fd5b7f4e487b7100000000000000000000000000000000000000000000000000000000600052603260045260246000fd5b7f4e487b7100000000000000000000000000000000000000000000000000000000600052604160045260246000fd5b60006131428254612fb5565b9050919050565b600080fd5b600080fd5b600080fd5b600080fd5b600080fd5b600080fd5b6000601f19601f8301169050919050565b60008160001c9050919050565b7f52616e646f6d6e65737320616c72656164792066756c66696c6c656400000000600082015250565b7f4265742061626f7665206d6178426574206c696d697400000000000000000000600082015250565b7f4f776e61626c653a206e6577206f776e657220697320746865207a65726f206160008201527f6464726573730000000000000000000000000000000000000000000000000000602082015250565b7f4e6f7420416c6c6f7765642072616e646f6d50726f7669646572000000000000600082015250565b7f4c6976696e6720696e2074686520706173742062726f00000000000000000000600082015250565b7f4f6e6c792077696e206265742063757272656e746c7920737570706f72746564600082015250565b7f526163652066696e6973696e6700000000000000000000000000000000000000600082015250565b7f496e697469616c697a61626c653a20636f6e747261637420697320616c72656160008201527f647920696e697469616c697a6564000000000000000000000000000000000000602082015250565b7f52616365206e6f742066696e6973686564000000000000000000000000000000600082015250565b7f4f776e61626c653a2063616c6c6572206973206e6f7420746865206f776e6572600082015250565b7f526573756c7420616c7265616479207265717565737465640000000000000000600082015250565b7f526163652066696e697368656400000000000000000000000000000000000000600082015250565b7f496e76616c696420726163652049440000000000000000000000000000000000600082015250565b7f5261636520726573756c7420616c72656164792066756c66696c6c6564000000600082015250565b7f496e697469616c697a61626c653a20636f6e7472616374206973206e6f74206960008201527f6e697469616c697a696e67000000000000000000000000000000000000000000602082015250565b7f52616365206973206e6f742066696e6973686564000000000000000000000000600082015250565b7f42657420616c7265616479207061696400000000000000000000000000000000600082015250565b6134b981612f09565b81146134c457600080fd5b50565b6134d081612f47565b81146134db57600080fd5b5056fea2646970667358221220c75f9868041992b4e4646fa8a2501ea87ef5f9a252f86b5d1266f224e42654af64736f6c63430008070033",
  "devdoc": {
    "kind": "dev",
    "methods": {
      "owner()": {
        "details": "Returns the address of the current owner."
      },
      "renounceOwnership()": {
        "details": "Leaves the contract without owner. It will not be possible to call `onlyOwner` functions anymore. Can only be called by the current owner. NOTE: Renouncing ownership will leave the contract without an owner, thereby removing any functionality that is only available to the owner."
      },
      "transferOwnership(address)": {
        "details": "Transfers ownership of the contract to a new account (`newOwner`). Can only be called by the current owner."
      }
    },
    "title": "An betting game with exotic bet types",
    "version": 1
  },
  "userdoc": {
    "events": {
      "Payout(uint256,address,uint256,uint256[],uint256)": {
        "notice": "emitted when a bet is cashed out."
      },
      "RaceEnd(uint256,uint256,uint256)": {
        "notice": "emitted when a race ends."
      },
      "RaceStart(uint256,uint256)": {
        "notice": "emitted when a race starts."
      },
      "Wagered(uint256,address,uint256,uint256[],uint256)": {
        "notice": "emitted when a new bet is placed on a race."
      }
    },
    "kind": "user",
    "methods": {
      "bet(address,uint256)": {
        "notice": "mapping of address to list of bets."
      },
      "endRace(uint256,uint256[])": {
        "notice": "End the race and set the result."
      },
      "fee()": {
        "notice": "Fee paramaters."
      },
      "frequency()": {
        "notice": "How often races take place."
      },
      "nextRaceId()": {
        "notice": "The time of the next race to take place."
      },
      "odds(uint256,uint256[])": {
        "notice": "Get the current odds for a prediction."
      },
      "payout(uint256)": {
        "notice": "Cash out a winning bet."
      },
      "placeBet(uint256,uint256[])": {
        "notice": "Place a bet."
      },
      "race(uint256)": {
        "notice": "The state for each race."
      },
      "raceResult(uint256)": {
        "notice": "Return the results for a race."
      },
      "start()": {
        "notice": "The datetime of the first race."
      },
      "startRace(uint256)": {
        "notice": "Start the race and request result from VRF."
      },
      "userBet(address,uint256)": {
        "notice": "Returns a users bet with given id."
      },
      "userBetCount(address)": {
        "notice": "Return the amount of bets a user has made."
      }
    },
    "version": 1
  },
  "storageLayout": {
    "storage": [
      {
        "astId": 130,
        "contract": "contracts/Exotic.sol:Exotic",
        "label": "_initialized",
        "offset": 0,
        "slot": "0",
        "type": "t_uint8"
      },
      {
        "astId": 133,
        "contract": "contracts/Exotic.sol:Exotic",
        "label": "_initializing",
        "offset": 1,
        "slot": "0",
        "type": "t_bool"
      },
      {
        "astId": 549,
        "contract": "contracts/Exotic.sol:Exotic",
        "label": "__gap",
        "offset": 0,
        "slot": "1",
        "type": "t_array(t_uint256)50_storage"
      },
      {
        "astId": 10,
        "contract": "contracts/Exotic.sol:Exotic",
        "label": "_owner",
        "offset": 0,
        "slot": "51",
        "type": "t_address"
      },
      {
        "astId": 122,
        "contract": "contracts/Exotic.sol:Exotic",
        "label": "__gap",
        "offset": 0,
        "slot": "52",
        "type": "t_array(t_uint256)49_storage"
      },
      {
        "astId": 564,
        "contract": "contracts/Exotic.sol:Exotic",
        "label": "randomProvider",
        "offset": 0,
        "slot": "101",
        "type": "t_contract(IRandomProvider)1460"
      },
      {
        "astId": 566,
        "contract": "contracts/Exotic.sol:Exotic",
        "label": "balance",
        "offset": 0,
        "slot": "102",
        "type": "t_uint256"
      },
      {
        "astId": 573,
        "contract": "contracts/Exotic.sol:Exotic",
        "label": "start",
        "offset": 0,
        "slot": "103",
        "type": "t_uint256"
      },
      {
        "astId": 576,
        "contract": "contracts/Exotic.sol:Exotic",
        "label": "fee",
        "offset": 0,
        "slot": "104",
        "type": "t_uint256"
      },
      {
        "astId": 578,
        "contract": "contracts/Exotic.sol:Exotic",
        "label": "jackpotContribution",
        "offset": 0,
        "slot": "105",
        "type": "t_uint256"
      },
      {
        "astId": 580,
        "contract": "contracts/Exotic.sol:Exotic",
        "label": "feeAddress",
        "offset": 0,
        "slot": "106",
        "type": "t_address"
      },
      {
        "astId": 582,
        "contract": "contracts/Exotic.sol:Exotic",
        "label": "jackpotAddress",
        "offset": 0,
        "slot": "107",
        "type": "t_address"
      },
      {
        "astId": 584,
        "contract": "contracts/Exotic.sol:Exotic",
        "label": "maxBet",
        "offset": 0,
        "slot": "108",
        "type": "t_uint256"
      },
      {
        "astId": 615,
        "contract": "contracts/Exotic.sol:Exotic",
        "label": "race",
        "offset": 0,
        "slot": "109",
        "type": "t_mapping(t_uint256,t_struct(Race)609_storage)"
      },
      {
        "astId": 622,
        "contract": "contracts/Exotic.sol:Exotic",
        "label": "bet",
        "offset": 0,
        "slot": "110",
        "type": "t_mapping(t_address,t_array(t_struct(Bet)596_storage)dyn_storage)"
      },
      {
        "astId": 627,
        "contract": "contracts/Exotic.sol:Exotic",
        "label": "requestIdRace",
        "offset": 0,
        "slot": "111",
        "type": "t_mapping(t_uint256,t_uint256)"
      }
    ],
    "types": {
      "t_address": {
        "encoding": "inplace",
        "label": "address",
        "numberOfBytes": "20"
      },
      "t_array(t_struct(Bet)596_storage)dyn_storage": {
        "base": "t_struct(Bet)596_storage",
        "encoding": "dynamic_array",
        "label": "struct Exotic.Bet[]",
        "numberOfBytes": "32"
      },
      "t_array(t_uint256)49_storage": {
        "base": "t_uint256",
        "encoding": "inplace",
        "label": "uint256[49]",
        "numberOfBytes": "1568"
      },
      "t_array(t_uint256)50_storage": {
        "base": "t_uint256",
        "encoding": "inplace",
        "label": "uint256[50]",
        "numberOfBytes": "1600"
      },
      "t_array(t_uint256)6_storage": {
        "base": "t_uint256",
        "encoding": "inplace",
        "label": "uint256[6]",
        "numberOfBytes": "192"
      },
      "t_array(t_uint256)dyn_storage": {
        "base": "t_uint256",
        "encoding": "dynamic_array",
        "label": "uint256[]",
        "numberOfBytes": "32"
      },
      "t_bool": {
        "encoding": "inplace",
        "label": "bool",
        "numberOfBytes": "1"
      },
      "t_contract(IRandomProvider)1460": {
        "encoding": "inplace",
        "label": "contract IRandomProvider",
        "numberOfBytes": "20"
      },
      "t_mapping(t_address,t_array(t_struct(Bet)596_storage)dyn_storage)": {
        "encoding": "mapping",
        "key": "t_address",
        "label": "mapping(address => struct Exotic.Bet[])",
        "numberOfBytes": "32",
        "value": "t_array(t_struct(Bet)596_storage)dyn_storage"
      },
      "t_mapping(t_uint256,t_struct(Race)609_storage)": {
        "encoding": "mapping",
        "key": "t_uint256",
        "label": "mapping(uint256 => struct Exotic.Race)",
        "numberOfBytes": "32",
        "value": "t_struct(Race)609_storage"
      },
      "t_mapping(t_uint256,t_uint256)": {
        "encoding": "mapping",
        "key": "t_uint256",
        "label": "mapping(uint256 => uint256)",
        "numberOfBytes": "32",
        "value": "t_uint256"
      },
      "t_struct(Bet)596_storage": {
        "encoding": "inplace",
        "label": "struct Exotic.Bet",
        "members": [
          {
            "astId": 586,
            "contract": "contracts/Exotic.sol:Exotic",
            "label": "raceId",
            "offset": 0,
            "slot": "0",
            "type": "t_uint256"
          },
          {
            "astId": 588,
            "contract": "contracts/Exotic.sol:Exotic",
            "label": "amount",
            "offset": 0,
            "slot": "1",
            "type": "t_uint256"
          },
          {
            "astId": 590,
            "contract": "contracts/Exotic.sol:Exotic",
            "label": "account",
            "offset": 0,
            "slot": "2",
            "type": "t_address"
          },
          {
            "astId": 593,
            "contract": "contracts/Exotic.sol:Exotic",
            "label": "place",
            "offset": 0,
            "slot": "3",
            "type": "t_array(t_uint256)dyn_storage"
          },
          {
            "astId": 595,
            "contract": "contracts/Exotic.sol:Exotic",
            "label": "paid",
            "offset": 0,
            "slot": "4",
            "type": "t_bool"
          }
        ],
        "numberOfBytes": "160"
      },
      "t_struct(Race)609_storage": {
        "encoding": "inplace",
        "label": "struct Exotic.Race",
        "members": [
          {
            "astId": 598,
            "contract": "contracts/Exotic.sol:Exotic",
            "label": "totalWagered",
            "offset": 0,
            "slot": "0",
            "type": "t_uint256"
          },
          {
            "astId": 600,
            "contract": "contracts/Exotic.sol:Exotic",
            "label": "paid",
            "offset": 0,
            "slot": "1",
            "type": "t_uint256"
          },
          {
            "astId": 602,
            "contract": "contracts/Exotic.sol:Exotic",
            "label": "result",
            "offset": 0,
            "slot": "2",
            "type": "t_uint256"
          },
          {
            "astId": 604,
            "contract": "contracts/Exotic.sol:Exotic",
            "label": "requestId",
            "offset": 0,
            "slot": "3",
            "type": "t_uint256"
          },
          {
            "astId": 608,
            "contract": "contracts/Exotic.sol:Exotic",
            "label": "winWeights",
            "offset": 0,
            "slot": "4",
            "type": "t_array(t_uint256)6_storage"
          }
        ],
        "numberOfBytes": "320"
      },
      "t_uint256": {
        "encoding": "inplace",
        "label": "uint256",
        "numberOfBytes": "32"
      },
      "t_uint8": {
        "encoding": "inplace",
        "label": "uint8",
        "numberOfBytes": "1"
      }
    }
  }
}