{
  "address": "0x37f10060CC2cdDdA7d58c49b3B24Cc12F5CCEb19",
  "abi": [
    {
      "anonymous": false,
      "inputs": [
        {
          "indexed": false,
          "internalType": "uint8",
          "name": "version",
          "type": "uint8"
        }
      ],
      "name": "Initialized",
      "type": "event"
    },
    {
      "anonymous": false,
      "inputs": [
        {
          "indexed": false,
          "internalType": "uint256",
          "name": "maxBet",
          "type": "uint256"
        }
      ],
      "name": "MaxBetUpdated",
      "type": "event"
    },
    {
      "anonymous": false,
      "inputs": [
        {
          "indexed": true,
          "internalType": "address",
          "name": "previousOwner",
          "type": "address"
        },
        {
          "indexed": true,
          "internalType": "address",
          "name": "newOwner",
          "type": "address"
        }
      ],
      "name": "OwnershipTransferred",
      "type": "event"
    },
    {
      "anonymous": false,
      "inputs": [
        {
          "indexed": true,
          "internalType": "address",
          "name": "polAddress",
          "type": "address"
        }
      ],
      "name": "POLAddressUpdated",
      "type": "event"
    },
    {
      "anonymous": false,
      "inputs": [
        {
          "indexed": false,
          "internalType": "uint256",
          "name": "polFee",
          "type": "uint256"
        }
      ],
      "name": "POLFeeUpdated",
      "type": "event"
    },
    {
      "anonymous": false,
      "inputs": [
        {
          "indexed": true,
          "internalType": "uint64",
          "name": "rollId",
          "type": "uint64"
        },
        {
          "indexed": true,
          "internalType": "address",
          "name": "to",
          "type": "address"
        },
        {
          "indexed": false,
          "internalType": "uint256",
          "name": "amount",
          "type": "uint256"
        },
        {
          "indexed": false,
          "internalType": "uint8",
          "name": "prediction",
          "type": "uint8"
        },
        {
          "indexed": false,
          "internalType": "uint256",
          "name": "payout",
          "type": "uint256"
        }
      ],
      "name": "Payout",
      "type": "event"
    },
    {
      "anonymous": false,
      "inputs": [
        {
          "indexed": true,
          "internalType": "address",
          "name": "revenueAddress",
          "type": "address"
        }
      ],
      "name": "RevenueAddressUpdated",
      "type": "event"
    },
    {
      "anonymous": false,
      "inputs": [
        {
          "indexed": false,
          "internalType": "uint256",
          "name": "revenueFee",
          "type": "uint256"
        }
      ],
      "name": "RevenueFeeUpdated",
      "type": "event"
    },
    {
      "anonymous": false,
      "inputs": [
        {
          "indexed": true,
          "internalType": "address",
          "name": "rewarder",
          "type": "address"
        }
      ],
      "name": "RewarderUpdated",
      "type": "event"
    },
    {
      "anonymous": false,
      "inputs": [
        {
          "indexed": true,
          "internalType": "uint64",
          "name": "rollId",
          "type": "uint64"
        },
        {
          "indexed": false,
          "internalType": "uint256",
          "name": "totalValue",
          "type": "uint256"
        },
        {
          "indexed": false,
          "internalType": "uint256",
          "name": "result",
          "type": "uint256"
        }
      ],
      "name": "RollEnd",
      "type": "event"
    },
    {
      "anonymous": false,
      "inputs": [
        {
          "indexed": true,
          "internalType": "uint64",
          "name": "rollId",
          "type": "uint64"
        },
        {
          "indexed": false,
          "internalType": "uint256",
          "name": "totalValue",
          "type": "uint256"
        }
      ],
      "name": "RollStart",
      "type": "event"
    },
    {
      "anonymous": false,
      "inputs": [
        {
          "indexed": true,
          "internalType": "uint64",
          "name": "rollId",
          "type": "uint64"
        },
        {
          "indexed": true,
          "internalType": "address",
          "name": "from",
          "type": "address"
        },
        {
          "indexed": false,
          "internalType": "uint256",
          "name": "amount",
          "type": "uint256"
        },
        {
          "indexed": false,
          "internalType": "uint8",
          "name": "prediction",
          "type": "uint8"
        },
        {
          "indexed": false,
          "internalType": "uint256",
          "name": "poolTotal",
          "type": "uint256"
        }
      ],
      "name": "Wagered",
      "type": "event"
    },
    {
      "inputs": [
        {
          "internalType": "address",
          "name": "",
          "type": "address"
        },
        {
          "internalType": "uint256",
          "name": "",
          "type": "uint256"
        }
      ],
      "name": "bet",
      "outputs": [
        {
          "internalType": "uint256",
          "name": "amount",
          "type": "uint256"
        },
        {
          "internalType": "address",
          "name": "account",
          "type": "address"
        },
        {
          "internalType": "uint64",
          "name": "rollId",
          "type": "uint64"
        },
        {
          "internalType": "uint8",
          "name": "prediction",
          "type": "uint8"
        },
        {
          "internalType": "bool",
          "name": "paid",
          "type": "bool"
        }
      ],
      "stateMutability": "view",
      "type": "function"
    },
    {
      "inputs": [
        {
          "internalType": "address",
          "name": "user",
          "type": "address"
        },
        {
          "internalType": "uint64",
          "name": "rollId",
          "type": "uint64"
        }
      ],
      "name": "betsOnRoll",
      "outputs": [
        {
          "components": [
            {
              "internalType": "uint256",
              "name": "amount",
              "type": "uint256"
            },
            {
              "internalType": "address",
              "name": "account",
              "type": "address"
            },
            {
              "internalType": "uint64",
              "name": "rollId",
              "type": "uint64"
            },
            {
              "internalType": "uint8",
              "name": "prediction",
              "type": "uint8"
            },
            {
              "internalType": "bool",
              "name": "paid",
              "type": "bool"
            }
          ],
          "internalType": "struct Exotic.Bet[]",
          "name": "",
          "type": "tuple[]"
        }
      ],
      "stateMutability": "view",
      "type": "function"
    },
    {
      "inputs": [
        {
          "internalType": "uint256",
          "name": "",
          "type": "uint256"
        },
        {
          "internalType": "address",
          "name": "",
          "type": "address"
        },
        {
          "internalType": "uint256",
          "name": "",
          "type": "uint256"
        }
      ],
      "name": "betsPerRoll",
      "outputs": [
        {
          "internalType": "uint256",
          "name": "",
          "type": "uint256"
        }
      ],
      "stateMutability": "view",
      "type": "function"
    },
    {
      "inputs": [],
      "name": "currentRollId",
      "outputs": [
        {
          "internalType": "uint256",
          "name": "",
          "type": "uint256"
        }
      ],
      "stateMutability": "view",
      "type": "function"
    },
    {
      "inputs": [
        {
          "internalType": "uint256",
          "name": "requestId",
          "type": "uint256"
        },
        {
          "internalType": "uint256[]",
          "name": "randomWords",
          "type": "uint256[]"
        }
      ],
      "name": "endRoll",
      "outputs": [],
      "stateMutability": "nonpayable",
      "type": "function"
    },
    {
      "inputs": [],
      "name": "frequency",
      "outputs": [
        {
          "internalType": "uint64",
          "name": "",
          "type": "uint64"
        }
      ],
      "stateMutability": "view",
      "type": "function"
    },
    {
      "inputs": [
        {
          "internalType": "address",
          "name": "_randomProviderAddress",
          "type": "address"
        },
        {
          "internalType": "uint256",
          "name": "_revenueFee",
          "type": "uint256"
        },
        {
          "internalType": "uint256",
          "name": "_polFee",
          "type": "uint256"
        },
        {
          "internalType": "address",
          "name": "_revenueAddress",
          "type": "address"
        },
        {
          "internalType": "address",
          "name": "_polAddress",
          "type": "address"
        },
        {
          "internalType": "uint256",
          "name": "_maxBet",
          "type": "uint256"
        },
        {
          "internalType": "uint64",
          "name": "_frequency",
          "type": "uint64"
        }
      ],
      "name": "initialize",
      "outputs": [],
      "stateMutability": "nonpayable",
      "type": "function"
    },
    {
      "inputs": [],
      "name": "maxBet",
      "outputs": [
        {
          "internalType": "uint256",
          "name": "",
          "type": "uint256"
        }
      ],
      "stateMutability": "view",
      "type": "function"
    },
    {
      "inputs": [],
      "name": "nextRollId",
      "outputs": [
        {
          "internalType": "uint256",
          "name": "",
          "type": "uint256"
        }
      ],
      "stateMutability": "view",
      "type": "function"
    },
    {
      "inputs": [
        {
          "internalType": "uint64",
          "name": "rollId",
          "type": "uint64"
        },
        {
          "internalType": "uint8",
          "name": "result",
          "type": "uint8"
        }
      ],
      "name": "odds",
      "outputs": [
        {
          "internalType": "uint256",
          "name": "",
          "type": "uint256"
        }
      ],
      "stateMutability": "view",
      "type": "function"
    },
    {
      "inputs": [],
      "name": "owner",
      "outputs": [
        {
          "internalType": "address",
          "name": "",
          "type": "address"
        }
      ],
      "stateMutability": "view",
      "type": "function"
    },
    {
      "inputs": [
        {
          "internalType": "uint256",
          "name": "betId",
          "type": "uint256"
        }
      ],
      "name": "payout",
      "outputs": [],
      "stateMutability": "nonpayable",
      "type": "function"
    },
    {
      "inputs": [
        {
          "internalType": "uint64",
          "name": "rollId",
          "type": "uint64"
        },
        {
          "internalType": "uint8",
          "name": "prediction",
          "type": "uint8"
        }
      ],
      "name": "placeBet",
      "outputs": [
        {
          "internalType": "uint256",
          "name": "betId",
          "type": "uint256"
        }
      ],
      "stateMutability": "payable",
      "type": "function"
    },
    {
      "inputs": [],
      "name": "polAddress",
      "outputs": [
        {
          "internalType": "address",
          "name": "",
          "type": "address"
        }
      ],
      "stateMutability": "view",
      "type": "function"
    },
    {
      "inputs": [],
      "name": "polFee",
      "outputs": [
        {
          "internalType": "uint256",
          "name": "",
          "type": "uint256"
        }
      ],
      "stateMutability": "view",
      "type": "function"
    },
    {
      "inputs": [],
      "name": "randomProvider",
      "outputs": [
        {
          "internalType": "contract IRandomProvider",
          "name": "",
          "type": "address"
        }
      ],
      "stateMutability": "view",
      "type": "function"
    },
    {
      "inputs": [],
      "name": "renounceOwnership",
      "outputs": [],
      "stateMutability": "nonpayable",
      "type": "function"
    },
    {
      "inputs": [],
      "name": "revenueAddress",
      "outputs": [
        {
          "internalType": "address",
          "name": "",
          "type": "address"
        }
      ],
      "stateMutability": "view",
      "type": "function"
    },
    {
      "inputs": [],
      "name": "revenueFee",
      "outputs": [
        {
          "internalType": "uint256",
          "name": "",
          "type": "uint256"
        }
      ],
      "stateMutability": "view",
      "type": "function"
    },
    {
      "inputs": [],
      "name": "rewarder",
      "outputs": [
        {
          "internalType": "contract IRewarder",
          "name": "",
          "type": "address"
        }
      ],
      "stateMutability": "view",
      "type": "function"
    },
    {
      "inputs": [
        {
          "internalType": "uint64",
          "name": "",
          "type": "uint64"
        }
      ],
      "name": "roll",
      "outputs": [
        {
          "internalType": "uint256",
          "name": "result",
          "type": "uint256"
        },
        {
          "internalType": "uint256",
          "name": "requestId",
          "type": "uint256"
        }
      ],
      "stateMutability": "view",
      "type": "function"
    },
    {
      "inputs": [
        {
          "internalType": "uint64",
          "name": "rollId",
          "type": "uint64"
        }
      ],
      "name": "rollResult",
      "outputs": [
        {
          "internalType": "uint256",
          "name": "",
          "type": "uint256"
        }
      ],
      "stateMutability": "view",
      "type": "function"
    },
    {
      "inputs": [],
      "name": "start",
      "outputs": [
        {
          "internalType": "uint256",
          "name": "",
          "type": "uint256"
        }
      ],
      "stateMutability": "view",
      "type": "function"
    },
    {
      "inputs": [
        {
          "internalType": "uint64",
          "name": "rollId",
          "type": "uint64"
        }
      ],
      "name": "startRoll",
      "outputs": [],
      "stateMutability": "nonpayable",
      "type": "function"
    },
    {
      "inputs": [
        {
          "internalType": "uint64",
          "name": "rollId",
          "type": "uint64"
        }
      ],
      "name": "totalWagered",
      "outputs": [
        {
          "internalType": "uint256",
          "name": "",
          "type": "uint256"
        }
      ],
      "stateMutability": "view",
      "type": "function"
    },
    {
      "inputs": [
        {
          "internalType": "address",
          "name": "newOwner",
          "type": "address"
        }
      ],
      "name": "transferOwnership",
      "outputs": [],
      "stateMutability": "nonpayable",
      "type": "function"
    },
    {
      "inputs": [
        {
          "internalType": "uint256",
          "name": "_maxBet",
          "type": "uint256"
        }
      ],
      "name": "updateMaxBet",
      "outputs": [],
      "stateMutability": "nonpayable",
      "type": "function"
    },
    {
      "inputs": [
        {
          "internalType": "address",
          "name": "_polAddress",
          "type": "address"
        }
      ],
      "name": "updatePOLAddress",
      "outputs": [],
      "stateMutability": "nonpayable",
      "type": "function"
    },
    {
      "inputs": [
        {
          "internalType": "uint256",
          "name": "_polFee",
          "type": "uint256"
        }
      ],
      "name": "updatePOLFee",
      "outputs": [],
      "stateMutability": "nonpayable",
      "type": "function"
    },
    {
      "inputs": [
        {
          "internalType": "address",
          "name": "_revenueAddress",
          "type": "address"
        }
      ],
      "name": "updateRevenueAddress",
      "outputs": [],
      "stateMutability": "nonpayable",
      "type": "function"
    },
    {
      "inputs": [
        {
          "internalType": "uint256",
          "name": "_revenueFee",
          "type": "uint256"
        }
      ],
      "name": "updateRevenueFee",
      "outputs": [],
      "stateMutability": "nonpayable",
      "type": "function"
    },
    {
      "inputs": [
        {
          "internalType": "contract IRewarder",
          "name": "_rewarder",
          "type": "address"
        }
      ],
      "name": "updateRewarder",
      "outputs": [],
      "stateMutability": "nonpayable",
      "type": "function"
    },
    {
      "inputs": [
        {
          "internalType": "address",
          "name": "user",
          "type": "address"
        },
        {
          "internalType": "uint256",
          "name": "betId",
          "type": "uint256"
        }
      ],
      "name": "userBet",
      "outputs": [
        {
          "components": [
            {
              "internalType": "uint256",
              "name": "amount",
              "type": "uint256"
            },
            {
              "internalType": "address",
              "name": "account",
              "type": "address"
            },
            {
              "internalType": "uint64",
              "name": "rollId",
              "type": "uint64"
            },
            {
              "internalType": "uint8",
              "name": "prediction",
              "type": "uint8"
            },
            {
              "internalType": "bool",
              "name": "paid",
              "type": "bool"
            }
          ],
          "internalType": "struct Exotic.Bet",
          "name": "",
          "type": "tuple"
        }
      ],
      "stateMutability": "view",
      "type": "function"
    },
    {
      "inputs": [
        {
          "internalType": "address",
          "name": "user",
          "type": "address"
        }
      ],
      "name": "userBetCount",
      "outputs": [
        {
          "internalType": "uint256",
          "name": "",
          "type": "uint256"
        }
      ],
      "stateMutability": "view",
      "type": "function"
    },
    {
      "inputs": [
        {
          "internalType": "uint64",
          "name": "rollId",
          "type": "uint64"
        },
        {
          "internalType": "address",
          "name": "user",
          "type": "address"
        },
        {
          "internalType": "uint256",
          "name": "betId",
          "type": "uint256"
        }
      ],
      "name": "userRollBet",
      "outputs": [
        {
          "components": [
            {
              "internalType": "uint256",
              "name": "amount",
              "type": "uint256"
            },
            {
              "internalType": "address",
              "name": "account",
              "type": "address"
            },
            {
              "internalType": "uint64",
              "name": "rollId",
              "type": "uint64"
            },
            {
              "internalType": "uint8",
              "name": "prediction",
              "type": "uint8"
            },
            {
              "internalType": "bool",
              "name": "paid",
              "type": "bool"
            }
          ],
          "internalType": "struct Exotic.Bet",
          "name": "",
          "type": "tuple"
        }
      ],
      "stateMutability": "view",
      "type": "function"
    },
    {
      "inputs": [
        {
          "internalType": "uint256",
          "name": "rollId",
          "type": "uint256"
        },
        {
          "internalType": "address",
          "name": "user",
          "type": "address"
        }
      ],
      "name": "userRollBetCount",
      "outputs": [
        {
          "internalType": "uint256",
          "name": "",
          "type": "uint256"
        }
      ],
      "stateMutability": "view",
      "type": "function"
    }
  ],
  "transactionHash": "0x552b37df13dd4c8aadbc4de269951fe64605dbd2033c9739be0adda1a770a5bf",
  "args": [],
  "numDeployments": 1,
  "solcInputHash": "dcf28716aadc2645d6721c58d4432e66",
  "bytecode": "0x608060405234801561001057600080fd5b50612af0806100206000396000f3fe60806040526004361061024f5760003560e01c8063a1aa2b5b11610138578063e1152343116100b0578063f2fde38b1161007f578063f502925411610064578063f5029254146106e2578063f846cabc14610702578063fdd288591461076557600080fd5b8063f2fde38b1461068c578063f408a23a146106ac57600080fd5b8063e1152343146105f8578063ea1e302d14610618578063ead50da31461062b578063ecc024381461066c57600080fd5b8063b410908d11610107578063cfb125cd116100ec578063cfb125cd14610598578063d613b60d146105b8578063dcc3e06e146105d857600080fd5b8063b410908d14610562578063be9a65551461058257600080fd5b8063a1aa2b5b146104e2578063a55cd51c14610502578063a655f29e14610522578063af3645c41461054257600080fd5b806346b697fe116101cb5780636589a9e21161019a5780638da5cb5b1161017f5780638da5cb5b146104705780638f46500e146104a257806397d14714146104c257600080fd5b80636589a9e21461043b578063715018a61461045b57600080fd5b806346b697fe1461037957806356127634146103bc578063591378c4146103dc57806361684d011461042557600080fd5b80632e5b21681161022257806338b5be4b1161020757806338b5be4b1461030c5780633969f8031461032c5780634195ab8e1461034c57600080fd5b80632e5b2168146102e057806336e4ec64146102f657600080fd5b8063164b4f6214610254578063165f11251461027c5780631b9632ac1461029e5780631d147211146102cb575b600080fd5b34801561026057600080fd5b50610269610785565b6040519081526020015b60405180910390f35b34801561028857600080fd5b5061029c610297366004612767565b6107d3565b005b3480156102aa57600080fd5b506102be6102b9366004612698565b61093d565b60405161027391906128b3565b3480156102d757600080fd5b50610269610b2a565b3480156102ec57600080fd5b50610269606b5481565b34801561030257600080fd5b5061026960675481565b34801561031857600080fd5b5061029c610327366004612838565b610b55565b34801561033857600080fd5b50610269610347366004612838565b610d7e565b34801561035857600080fd5b5061036c6103673660046125f5565b610e4a565b6040516102739190612944565b34801561038557600080fd5b506102696103943660046126ff565b60009182526070602090815260408084206001600160a01b0393909316845291905290205490565b3480156103c857600080fd5b506102696103d736600461272f565b610f10565b3480156103e857600080fd5b506104106103f7366004612838565b606d602052600090815260409020805460019091015482565b60408051928352602083019190915201610273565b34801561043157600080fd5b5061026960685481565b34801561044757600080fd5b50610269610456366004612881565b610f4e565b34801561046757600080fd5b5061029c611063565b34801561047c57600080fd5b506033546001600160a01b03165b6040516001600160a01b039091168152602001610273565b3480156104ae57600080fd5b5060655461048a906001600160a01b031681565b3480156104ce57600080fd5b5061029c6104dd3660046125d8565b6110c9565b3480156104ee57600080fd5b506102696104fd366004612838565b61116d565b34801561050e57600080fd5b5061029c61051d3660046126cd565b611300565b34801561052e57600080fd5b5061029c61053d3660046126cd565b611396565b34801561054e57600080fd5b5061029c61055d3660046125d8565b611425565b34801561056e57600080fd5b5060695461048a906001600160a01b031681565b34801561058e57600080fd5b5061026960665481565b3480156105a457600080fd5b50606a5461048a906001600160a01b031681565b3480156105c457600080fd5b5061029c6105d33660046126cd565b61151f565b3480156105e457600080fd5b50606c5461048a906001600160a01b031681565b34801561060457600080fd5b5061029c6106133660046126cd565b6115ae565b610269610626366004612881565b6117f2565b34801561063757600080fd5b5060655461065390600160a01b900467ffffffffffffffff1681565b60405167ffffffffffffffff9091168152602001610273565b34801561067857600080fd5b5061029c610687366004612621565b611d7c565b34801561069857600080fd5b5061029c6106a73660046125d8565b611e79565b3480156106b857600080fd5b506102696106c73660046125d8565b6001600160a01b03166000908152606e602052604090205490565b3480156106ee57600080fd5b5061036c6106fd366004612853565b611f5b565b34801561070e57600080fd5b5061072261071d3660046125f5565b61205c565b604080519586526001600160a01b03909416602086015267ffffffffffffffff9092169284019290925260ff90911660608301521515608082015260a001610273565b34801561077157600080fd5b5061029c6107803660046125d8565b6120c8565b6065546000906107a690600160a01b900467ffffffffffffffff1642612a12565b6065546107c49190600160a01b900467ffffffffffffffff166129e0565b6107ce9042612995565b905090565b6065546001600160a01b031633146108325760405162461bcd60e51b815260206004820152601a60248201527f4e6f7420416c6c6f7765642072616e646f6d50726f766964657200000000000060448201526064015b60405180910390fd5b6000828152606f602090815260408083205467ffffffffffffffff16808452606d9092529091208054156108a85760405162461bcd60e51b815260206004820152601c60248201527f52616e646f6d6e65737320616c72656164792066756c66696c6c6564000000006044820152606401610829565b826000815181106108bb576108bb612a79565b6020908102919091010151815567ffffffffffffffff82167f3f1673b2a61754bec64f37e8beeb0597773dcf48b3fa582f30c64878fdf1f6066108fd84610d7e565b8560008151811061091057610910612a79565b602002602001015160405161092f929190918252602082015260400190565b60405180910390a250505050565b67ffffffffffffffff811660009081526070602090815260408083206001600160a01b038616845282528083208054825181850281018501909352808352606094938301828280156109ae57602002820191906000526020600020905b81548152602001906001019080831161099a575b50505050509050600080825167ffffffffffffffff8111156109d2576109d2612a8f565b604051908082528060200260200182016040528015610a2b57816020015b6040805160a0810182526000808252602080830182905292820181905260608201819052608082015282526000199092019101816109f05790505b509050600091505b8251821015610b1f576001600160a01b0386166000908152606e602052604090208351849084908110610a6857610a68612a79565b602002602001015181548110610a8057610a80612a79565b60009182526020918290206040805160a081018252600290930290910180548352600101546001600160a01b0381169383019390935267ffffffffffffffff600160a01b8404169082015260ff600160e01b830481166060830152600160e81b909204909116151560808201528151829084908110610b0157610b01612a79565b60200260200101819052508180610b17906129f7565b925050610a33565b925050505b92915050565b606554600090610b4b90600160a01b900467ffffffffffffffff1642612a12565b6107ce90426129e0565b610b5e816121c2565b8067ffffffffffffffff164211610bb75760405162461bcd60e51b815260206004820152601160248201527f526f6c6c206e6f742066696e69736865640000000000000000000000000000006044820152606401610829565b67ffffffffffffffff81166000908152606d60205260409020600181015415610c225760405162461bcd60e51b815260206004820152601860248201527f526573756c7420616c72656164792072657175657374656400000000000000006044820152606401610829565b805415610c715760405162461bcd60e51b815260206004820152601d60248201527f526f6c6c20726573756c7420616c72656164792066756c66696c6c65640000006044820152606401610829565b606554604080517fe0c8628900000000000000000000000000000000000000000000000000000000815290516000926001600160a01b03169163e0c8628991600480830192602092919082900301818787803b158015610cd057600080fd5b505af1158015610ce4573d6000803e3d6000fd5b505050506040513d601f19601f82011682018060405250810190610d0891906126e6565b600183018190556000818152606f60205260409020805467ffffffffffffffff191667ffffffffffffffff86169081179091559091507f6abbcac270a7e73b86c89e6e279a18fd9b2946513a3feecb3e960b07de1a20ec610d6885610d7e565b60405190815260200160405180910390a2505050565b67ffffffffffffffff81166000908152606d60209081526040808320815160608101835281548152600182015493810193909352815160c0810180845285949384019190600284019060069082845b815481526020019060010190808311610dcd575050509190925250505060408181015160a08101516080820151606083015193830151602084015193519596509194909392610e1b91612995565b610e259190612995565b610e2f9190612995565b610e399190612995565b610e439190612995565b9392505050565b6040805160a0810182526000808252602080830182905282840182905260608301829052608083018290526001600160a01b0386168252606e905291909120805483908110610e9b57610e9b612a79565b60009182526020918290206040805160a081018252600290930290910180548352600101546001600160a01b0381169383019390935267ffffffffffffffff600160a01b8404169082015260ff600160e01b830481166060830152600160e81b90920490911615156080820152905092915050565b60706020528260005260406000206020528160005260406000208181548110610f3857600080fd5b9060005260206000200160009250925050505481565b67ffffffffffffffff82166000908152606d60209081526040808320815160608101835281548152600182015493810193909352815160c0810180845285949384019190600284019060069082845b815481526020019060010190808311610f9d57505050505081525050905060068360ff161061100e5760405162461bcd60e51b815260206004820181905260248201527f4f6e6c792077696e206265742063757272656e746c7920737570706f727465646044820152606401610829565b600061101985610d7e565b90508061102b57600092505050610b24565b8082604001518560ff166006811061104557611045612a79565b6020020151611059906402540be4006129c1565b610b1f91906129ad565b6033546001600160a01b031633146110bd5760405162461bcd60e51b815260206004820181905260248201527f4f776e61626c653a2063616c6c6572206973206e6f7420746865206f776e65726044820152606401610829565b6110c76000612353565b565b6033546001600160a01b031633146111235760405162461bcd60e51b815260206004820181905260248201527f4f776e61626c653a2063616c6c6572206973206e6f7420746865206f776e65726044820152606401610829565b606c80546001600160a01b0319166001600160a01b0383169081179091556040517f47c9042c3be42a955f60f9b75006522826af1a3bed83e26646997d3bcccda77c90600090a250565b67ffffffffffffffff81166000908152606d60209081526040808320815160608101835281548152600182015493810193909352815160c0810180845285949384019190600284019060069082845b8154815260200190600101908083116111bc5750505091909252505081519192505061122a5760405162461bcd60e51b815260206004820152601460248201527f526f6c6c206973206e6f742066696e69736865640000000000000000000000006044820152606401610829565b6000805b6006821015611270578260400151826006811061124d5761124d612a79565b602002015161125c9082612995565b905081611268816129f7565b92505061122e565b6000808285600001516112839190612a12565b9050600093505b60068410156112f65780856040015185600681106112aa576112aa612a79565b602002015111156112bd578391506112f6565b846040015184600681106112d3576112d3612a79565b60200201516112e290826129e0565b9050836112ee816129f7565b94505061128a565b5095945050505050565b6033546001600160a01b0316331461135a5760405162461bcd60e51b815260206004820181905260248201527f4f776e61626c653a2063616c6c6572206973206e6f7420746865206f776e65726044820152606401610829565b606b8190556040518181527f2b47c83dfa951a422411b397c029d005c87d9fa8fe9f6d2bc2620c23e5e00312906020015b60405180910390a150565b6033546001600160a01b031633146113f05760405162461bcd60e51b815260206004820181905260248201527f4f776e61626c653a2063616c6c6572206973206e6f7420746865206f776e65726044820152606401610829565b60678190556040518181527f14a368a696aca40efd280b31b2896f421c8a75eb772f8de1731eb220735395c69060200161138b565b6033546001600160a01b0316331461147f5760405162461bcd60e51b815260206004820181905260248201527f4f776e61626c653a2063616c6c6572206973206e6f7420746865206f776e65726044820152606401610829565b6001600160a01b0381166114d55760405162461bcd60e51b815260206004820152601660248201527f46656520616464726573732063616e27742062652030000000000000000000006044820152606401610829565b606a80546001600160a01b0319166001600160a01b0383169081179091556040517f5dc8a57b462a8fae72fded55639269f100cfd12e046986a8ef490d56d5edcbf790600090a250565b6033546001600160a01b031633146115795760405162461bcd60e51b815260206004820181905260248201527f4f776e61626c653a2063616c6c6572206973206e6f7420746865206f776e65726044820152606401610829565b60688190556040518181527f9afc1b03107862b2aabd5adaf9bf3a6c054623803995901416d64d2ac86ed01d9060200161138b565b336000908152606e602052604081208054839081106115cf576115cf612a79565b6000918252602080832060016002909302019182015467ffffffffffffffff600160a01b909104168352606d905260409091208054919250906116545760405162461bcd60e51b815260206004820152601160248201527f526f6c6c206e6f742066696e69736865640000000000000000000000000000006044820152606401610829565b6001820154600160e81b900460ff16156116b05760405162461bcd60e51b815260206004820152601060248201527f42657420616c72656164792070616964000000000000000000000000000000006044820152606401610829565b60018201546000906116d290600160a01b900467ffffffffffffffff1661116d565b6001840154909150600160e01b900460ff1681146116f05750505050565b600183015460009061171d90600160a01b810467ffffffffffffffff1690600160e01b900460ff16610f4e565b905060008185600001546402540be40061173791906129c1565b61174191906129ad565b600186018054600160e81b60ff60e81b19909116179081905586546040805191825260ff600160e01b840416602083015281018390529192503391600160a01b90910467ffffffffffffffff16907ff4580f306b5592ada5d2370389f5afc4e6abbd1783abb1d65443df7d28be8c819060600160405180910390a3604051339082156108fc029083906000818181858888f193505050501580156117e9573d6000803e3d6000fd5b50505050505050565b60655460009061181390600160a01b900467ffffffffffffffff1684612a26565b67ffffffffffffffff161561186a5760405162461bcd60e51b815260206004820152600f60248201527f496e76616c696420726f6c6c20494400000000000000000000000000000000006044820152606401610829565b67ffffffffffffffff83166000908152606d602052604090206001810154156118c55760405162461bcd60e51b815260206004820152600d60248201526c526f6c6c2066696e6973696e6760981b6044820152606401610829565b60068360ff16106119185760405162461bcd60e51b815260206004820152601460248201527f4f6e6c792036206661636573206f6620646963650000000000000000000000006044820152606401610829565b60006127106067543461192b91906129c1565b61193591906129ad565b905060006127106068543461194a91906129c1565b61195491906129ad565b905060006119628284612995565b61196c90346129e0565b9050606b548111156119c05760405162461bcd60e51b815260206004820152601660248201527f4265742061626f7665206d6178426574206c696d6974000000000000000000006044820152606401610829565b6040805160a08101825282815233602080830182815267ffffffffffffffff808d1685870190815260ff808e1660608801908152600060808901818152888252606e88529981208054600181810183558284529883208b5160029092020190815596519688018054955193519b511515600160e81b0260ff60e81b199c909516600160e01b029b909b167fffff0000ffffffffffffffffffffffffffffffffffffffffffffffffffffffff93909616600160a01b027fffffffff000000000000000000000000000000000000000000000000000000009095166001600160a01b0397909716969096179390931716929092179190911790955591909352549091611ac9916129e0565b955081856002018860ff1660068110611ae457611ae4612a79565b016000828254611af49190612995565b909155505067ffffffffffffffff881660008181526070602090815260408083203380855290835290832080546001810182559084529190922001889055907f4ca8370402b96db401bce3c1e5c223107a1184f0e382b37d73b5f3f3766b6a48848a611b5f8d610d7e565b6040805193845260ff90921660208401529082015260600160405180910390a3428867ffffffffffffffff161015611b9a57611b9a88610b55565b606c546001600160a01b031615611c2857606c546040517f9feb8f500000000000000000000000000000000000000000000000000000000081523360048201523460248201526001600160a01b0390911690639feb8f5090604401600060405180830381600087803b158015611c0f57600080fd5b505af1158015611c23573d6000803e3d6000fd5b505050505b606a546040516000916001600160a01b03169085908381818185875af1925050503d8060008114611c75576040519150601f19603f3d011682016040523d82523d6000602084013e611c7a565b606091505b5050905080611ccb5760405162461bcd60e51b815260206004820152601060248201527f504f4c20466565206e6f742073656e74000000000000000000000000000000006044820152606401610829565b6069546040516001600160a01b03909116908690600081818185875af1925050503d8060008114611d18576040519150601f19603f3d011682016040523d82523d6000602084013e611d1d565b606091505b50508091505080611d705760405162461bcd60e51b815260206004820152601460248201527f526576656e756520466565206e6f742073656e740000000000000000000000006044820152606401610829565b50505050505092915050565b6000611d8860016123a5565b90508015611da0576000805461ff0019166101001790555b426066556065805460678990556068889055606980546001600160a01b038981166001600160a01b031992831617909255606a80548984169216919091179055606b86905567ffffffffffffffff8516600160a01b027fffffffff00000000000000000000000000000000000000000000000000000000909216908b1617179055611e296124de565b8015611e6f576000805461ff0019169055604051600181527f7f26b83ff96e1f2b6a682f133852f6798a09c465da95921460cefb38474024989060200160405180910390a15b5050505050505050565b6033546001600160a01b03163314611ed35760405162461bcd60e51b815260206004820181905260248201527f4f776e61626c653a2063616c6c6572206973206e6f7420746865206f776e65726044820152606401610829565b6001600160a01b038116611f4f5760405162461bcd60e51b815260206004820152602660248201527f4f776e61626c653a206e6577206f776e657220697320746865207a65726f206160448201527f64647265737300000000000000000000000000000000000000000000000000006064820152608401610829565b611f5881612353565b50565b6040805160a0810182526000808252602080830182905282840182905260608301829052608083018290526001600160a01b038616808352606e825284832067ffffffffffffffff89168452607083528584209184529152929020805491929184908110611fcb57611fcb612a79565b906000526020600020015481548110611fe657611fe6612a79565b60009182526020918290206040805160a081018252600290930290910180548352600101546001600160a01b0381169383019390935267ffffffffffffffff600160a01b8404169082015260ff600160e01b830481166060830152600160e81b9092049091161515608082015290509392505050565b606e602052816000526040600020818154811061207857600080fd5b6000918252602090912060029091020180546001909101549092506001600160a01b038116915067ffffffffffffffff600160a01b8204169060ff600160e01b8204811691600160e81b90041685565b6033546001600160a01b031633146121225760405162461bcd60e51b815260206004820181905260248201527f4f776e61626c653a2063616c6c6572206973206e6f7420746865206f776e65726044820152606401610829565b6001600160a01b0381166121785760405162461bcd60e51b815260206004820152601660248201527f46656520616464726573732063616e27742062652030000000000000000000006044820152606401610829565b606980546001600160a01b0319166001600160a01b0383169081179091556040517f12c87c4c1bec313f335ef0060b241de51ec549e8c57a25aae98da2ad10837cde90600090a250565b6065546121e090600160a01b900467ffffffffffffffff1682612a26565b67ffffffffffffffff16156122375760405162461bcd60e51b815260206004820152600f60248201527f496e76616c696420726f6c6c20494400000000000000000000000000000000006044820152606401610829565b6066548167ffffffffffffffff1610156122935760405162461bcd60e51b815260206004820152601660248201527f4c6976696e6720696e2074686520706173742062726f000000000000000000006044820152606401610829565b67ffffffffffffffff81166000908152606d6020526040902054156122fa5760405162461bcd60e51b815260206004820152600d60248201527f526f6c6c2066696e6973686564000000000000000000000000000000000000006044820152606401610829565b67ffffffffffffffff8082166000908152606f60205260409020541615611f585760405162461bcd60e51b815260206004820152600d60248201526c526f6c6c2066696e6973696e6760981b6044820152606401610829565b603380546001600160a01b038381166001600160a01b0319831681179093556040519116919082907f8be0079c531659141344cd1fd0a4f28419497f9722a3daafe3b4186f6b6457e090600090a35050565b60008054610100900460ff1615612442578160ff1660011480156123c85750303b155b61243a5760405162461bcd60e51b815260206004820152602e60248201527f496e697469616c697a61626c653a20636f6e747261637420697320616c72656160448201527f647920696e697469616c697a65640000000000000000000000000000000000006064820152608401610829565b506000919050565b60005460ff8084169116106124bf5760405162461bcd60e51b815260206004820152602e60248201527f496e697469616c697a61626c653a20636f6e747261637420697320616c72656160448201527f647920696e697469616c697a65640000000000000000000000000000000000006064820152608401610829565b506000805460ff191660ff92909216919091179055600190565b919050565b600054610100900460ff166125495760405162461bcd60e51b815260206004820152602b60248201527f496e697469616c697a61626c653a20636f6e7472616374206973206e6f74206960448201526a6e697469616c697a696e6760a81b6064820152608401610829565b6110c7600054610100900460ff166125b75760405162461bcd60e51b815260206004820152602b60248201527f496e697469616c697a61626c653a20636f6e7472616374206973206e6f74206960448201526a6e697469616c697a696e6760a81b6064820152608401610829565b6110c733612353565b803567ffffffffffffffff811681146124d957600080fd5b6000602082840312156125ea57600080fd5b8135610e4381612aa5565b6000806040838503121561260857600080fd5b823561261381612aa5565b946020939093013593505050565b600080600080600080600060e0888a03121561263c57600080fd5b873561264781612aa5565b96506020880135955060408801359450606088013561266581612aa5565b9350608088013561267581612aa5565b925060a0880135915061268a60c089016125c0565b905092959891949750929550565b600080604083850312156126ab57600080fd5b82356126b681612aa5565b91506126c4602084016125c0565b90509250929050565b6000602082840312156126df57600080fd5b5035919050565b6000602082840312156126f857600080fd5b5051919050565b6000806040838503121561271257600080fd5b82359150602083013561272481612aa5565b809150509250929050565b60008060006060848603121561274457600080fd5b83359250602084013561275681612aa5565b929592945050506040919091013590565b6000806040838503121561277a57600080fd5b8235915060208084013567ffffffffffffffff8082111561279a57600080fd5b818601915086601f8301126127ae57600080fd5b8135818111156127c0576127c0612a8f565b8060051b604051601f19603f830116810181811085821117156127e5576127e5612a8f565b604052828152858101935084860182860187018b101561280457600080fd5b600095505b83861015612827578035855260019590950194938601938601612809565b508096505050505050509250929050565b60006020828403121561284a57600080fd5b610e43826125c0565b60008060006060848603121561286857600080fd5b612871846125c0565b9250602084013561275681612aa5565b6000806040838503121561289457600080fd5b61289d836125c0565b9150602083013560ff8116811461272457600080fd5b6020808252825182820181905260009190848201906040850190845b8181101561293857612925838551805182526001600160a01b03602082015116602083015267ffffffffffffffff604082015116604083015260ff60608201511660608301526080810151151560808301525050565b9284019260a092909201916001016128cf565b50909695505050505050565b60a08101610b248284805182526001600160a01b03602082015116602083015267ffffffffffffffff604082015116604083015260ff60608201511660608301526080810151151560808301525050565b600082198211156129a8576129a8612a4d565b500190565b6000826129bc576129bc612a63565b500490565b60008160001904831182151516156129db576129db612a4d565b500290565b6000828210156129f2576129f2612a4d565b500390565b6000600019821415612a0b57612a0b612a4d565b5060010190565b600082612a2157612a21612a63565b500690565b600067ffffffffffffffff80841680612a4157612a41612a63565b92169190910692915050565b634e487b7160e01b600052601160045260246000fd5b634e487b7160e01b600052601260045260246000fd5b634e487b7160e01b600052603260045260246000fd5b634e487b7160e01b600052604160045260246000fd5b6001600160a01b0381168114611f5857600080fdfea26469706673582212203d8fbea21b3407bc923a81cf892154878e867cbbdc14c47e5f49165696fe8be564736f6c63430008070033",
  "devdoc": {
    "kind": "dev",
    "methods": {
      "owner()": {
        "details": "Returns the address of the current owner."
      },
      "renounceOwnership()": {
        "details": "Leaves the contract without owner. It will not be possible to call `onlyOwner` functions anymore. Can only be called by the current owner. NOTE: Renouncing ownership will leave the contract without an owner, thereby removing any functionality that is only available to the owner."
      },
      "transferOwnership(address)": {
        "details": "Transfers ownership of the contract to a new account (`newOwner`). Can only be called by the current owner."
      }
    },
    "title": "An betting game with exotic bet types",
    "version": 1
  },
  "userdoc": {
    "events": {
      "Payout(uint64,address,uint256,uint8,uint256)": {
        "notice": "emitted when a bet is cashed out."
      },
      "RollEnd(uint64,uint256,uint256)": {
        "notice": "emitted when a roll ends."
      },
      "RollStart(uint64,uint256)": {
        "notice": "emitted when a roll starts."
      },
      "Wagered(uint64,address,uint256,uint8,uint256)": {
        "notice": "emitted when a new bet is placed on a role."
      }
    },
    "kind": "user",
    "methods": {
      "bet(address,uint256)": {
        "notice": "mapping of address to list of bets."
      },
      "endRoll(uint256,uint256[])": {
        "notice": "End the roll and set the result."
      },
      "frequency()": {
        "notice": "How often rolls take place."
      },
      "nextRollId()": {
        "notice": "The time of the next roll to take place."
      },
      "odds(uint64,uint8)": {
        "notice": "Get the current odds for a prediction."
      },
      "payout(uint256)": {
        "notice": "Cash out a winning bet."
      },
      "placeBet(uint64,uint8)": {
        "notice": "Place a bet."
      },
      "revenueFee()": {
        "notice": "Fee paramaters."
      },
      "roll(uint64)": {
        "notice": "The state for each roll."
      },
      "rollResult(uint64)": {
        "notice": "Return the results for a roll."
      },
      "start()": {
        "notice": "The datetime of the first roll."
      },
      "startRoll(uint64)": {
        "notice": "Start the roll and request result from VRF."
      },
      "userBet(address,uint256)": {
        "notice": "returns a users bet with given id."
      },
      "userBetCount(address)": {
        "notice": "Return the amount of bets a user has made."
      }
    },
    "version": 1
  },
  "storageLayout": {
    "storage": [
      {
        "astId": 277,
        "contract": "contracts/Exotic.sol:Exotic",
        "label": "_initialized",
        "offset": 0,
        "slot": "0",
        "type": "t_uint8"
      },
      {
        "astId": 280,
        "contract": "contracts/Exotic.sol:Exotic",
        "label": "_initializing",
        "offset": 1,
        "slot": "0",
        "type": "t_bool"
      },
      {
        "astId": 696,
        "contract": "contracts/Exotic.sol:Exotic",
        "label": "__gap",
        "offset": 0,
        "slot": "1",
        "type": "t_array(t_uint256)50_storage"
      },
      {
        "astId": 157,
        "contract": "contracts/Exotic.sol:Exotic",
        "label": "_owner",
        "offset": 0,
        "slot": "51",
        "type": "t_address"
      },
      {
        "astId": 269,
        "contract": "contracts/Exotic.sol:Exotic",
        "label": "__gap",
        "offset": 0,
        "slot": "52",
        "type": "t_array(t_uint256)49_storage"
      },
      {
        "astId": 3434,
        "contract": "contracts/Exotic.sol:Exotic",
        "label": "randomProvider",
        "offset": 0,
        "slot": "101",
        "type": "t_contract(IRandomProvider)5895"
      },
      {
        "astId": 3437,
        "contract": "contracts/Exotic.sol:Exotic",
        "label": "frequency",
        "offset": 20,
        "slot": "101",
        "type": "t_uint64"
      },
      {
        "astId": 3440,
        "contract": "contracts/Exotic.sol:Exotic",
        "label": "start",
        "offset": 0,
        "slot": "102",
        "type": "t_uint256"
      },
      {
        "astId": 3443,
        "contract": "contracts/Exotic.sol:Exotic",
        "label": "revenueFee",
        "offset": 0,
        "slot": "103",
        "type": "t_uint256"
      },
      {
        "astId": 3445,
        "contract": "contracts/Exotic.sol:Exotic",
        "label": "polFee",
        "offset": 0,
        "slot": "104",
        "type": "t_uint256"
      },
      {
        "astId": 3447,
        "contract": "contracts/Exotic.sol:Exotic",
        "label": "revenueAddress",
        "offset": 0,
        "slot": "105",
        "type": "t_address"
      },
      {
        "astId": 3449,
        "contract": "contracts/Exotic.sol:Exotic",
        "label": "polAddress",
        "offset": 0,
        "slot": "106",
        "type": "t_address"
      },
      {
        "astId": 3451,
        "contract": "contracts/Exotic.sol:Exotic",
        "label": "maxBet",
        "offset": 0,
        "slot": "107",
        "type": "t_uint256"
      },
      {
        "astId": 3454,
        "contract": "contracts/Exotic.sol:Exotic",
        "label": "rewarder",
        "offset": 0,
        "slot": "108",
        "type": "t_contract(IRewarder)5915"
      },
      {
        "astId": 3480,
        "contract": "contracts/Exotic.sol:Exotic",
        "label": "roll",
        "offset": 0,
        "slot": "109",
        "type": "t_mapping(t_uint64,t_struct(Roll)3474_storage)"
      },
      {
        "astId": 3487,
        "contract": "contracts/Exotic.sol:Exotic",
        "label": "bet",
        "offset": 0,
        "slot": "110",
        "type": "t_mapping(t_address,t_array(t_struct(Bet)3465_storage)dyn_storage)"
      },
      {
        "astId": 3492,
        "contract": "contracts/Exotic.sol:Exotic",
        "label": "requestIdRoll",
        "offset": 0,
        "slot": "111",
        "type": "t_mapping(t_uint256,t_uint64)"
      },
      {
        "astId": 3499,
        "contract": "contracts/Exotic.sol:Exotic",
        "label": "betsPerRoll",
        "offset": 0,
        "slot": "112",
        "type": "t_mapping(t_uint256,t_mapping(t_address,t_array(t_uint256)dyn_storage))"
      }
    ],
    "types": {
      "t_address": {
        "encoding": "inplace",
        "label": "address",
        "numberOfBytes": "20"
      },
      "t_array(t_struct(Bet)3465_storage)dyn_storage": {
        "base": "t_struct(Bet)3465_storage",
        "encoding": "dynamic_array",
        "label": "struct Exotic.Bet[]",
        "numberOfBytes": "32"
      },
      "t_array(t_uint256)49_storage": {
        "base": "t_uint256",
        "encoding": "inplace",
        "label": "uint256[49]",
        "numberOfBytes": "1568"
      },
      "t_array(t_uint256)50_storage": {
        "base": "t_uint256",
        "encoding": "inplace",
        "label": "uint256[50]",
        "numberOfBytes": "1600"
      },
      "t_array(t_uint256)6_storage": {
        "base": "t_uint256",
        "encoding": "inplace",
        "label": "uint256[6]",
        "numberOfBytes": "192"
      },
      "t_array(t_uint256)dyn_storage": {
        "base": "t_uint256",
        "encoding": "dynamic_array",
        "label": "uint256[]",
        "numberOfBytes": "32"
      },
      "t_bool": {
        "encoding": "inplace",
        "label": "bool",
        "numberOfBytes": "1"
      },
      "t_contract(IRandomProvider)5895": {
        "encoding": "inplace",
        "label": "contract IRandomProvider",
        "numberOfBytes": "20"
      },
      "t_contract(IRewarder)5915": {
        "encoding": "inplace",
        "label": "contract IRewarder",
        "numberOfBytes": "20"
      },
      "t_mapping(t_address,t_array(t_struct(Bet)3465_storage)dyn_storage)": {
        "encoding": "mapping",
        "key": "t_address",
        "label": "mapping(address => struct Exotic.Bet[])",
        "numberOfBytes": "32",
        "value": "t_array(t_struct(Bet)3465_storage)dyn_storage"
      },
      "t_mapping(t_address,t_array(t_uint256)dyn_storage)": {
        "encoding": "mapping",
        "key": "t_address",
        "label": "mapping(address => uint256[])",
        "numberOfBytes": "32",
        "value": "t_array(t_uint256)dyn_storage"
      },
      "t_mapping(t_uint256,t_mapping(t_address,t_array(t_uint256)dyn_storage))": {
        "encoding": "mapping",
        "key": "t_uint256",
        "label": "mapping(uint256 => mapping(address => uint256[]))",
        "numberOfBytes": "32",
        "value": "t_mapping(t_address,t_array(t_uint256)dyn_storage)"
      },
      "t_mapping(t_uint256,t_uint64)": {
        "encoding": "mapping",
        "key": "t_uint256",
        "label": "mapping(uint256 => uint64)",
        "numberOfBytes": "32",
        "value": "t_uint64"
      },
      "t_mapping(t_uint64,t_struct(Roll)3474_storage)": {
        "encoding": "mapping",
        "key": "t_uint64",
        "label": "mapping(uint64 => struct Exotic.Roll)",
        "numberOfBytes": "32",
        "value": "t_struct(Roll)3474_storage"
      },
      "t_struct(Bet)3465_storage": {
        "encoding": "inplace",
        "label": "struct Exotic.Bet",
        "members": [
          {
            "astId": 3456,
            "contract": "contracts/Exotic.sol:Exotic",
            "label": "amount",
            "offset": 0,
            "slot": "0",
            "type": "t_uint256"
          },
          {
            "astId": 3458,
            "contract": "contracts/Exotic.sol:Exotic",
            "label": "account",
            "offset": 0,
            "slot": "1",
            "type": "t_address"
          },
          {
            "astId": 3460,
            "contract": "contracts/Exotic.sol:Exotic",
            "label": "rollId",
            "offset": 20,
            "slot": "1",
            "type": "t_uint64"
          },
          {
            "astId": 3462,
            "contract": "contracts/Exotic.sol:Exotic",
            "label": "prediction",
            "offset": 28,
            "slot": "1",
            "type": "t_uint8"
          },
          {
            "astId": 3464,
            "contract": "contracts/Exotic.sol:Exotic",
            "label": "paid",
            "offset": 29,
            "slot": "1",
            "type": "t_bool"
          }
        ],
        "numberOfBytes": "64"
      },
      "t_struct(Roll)3474_storage": {
        "encoding": "inplace",
        "label": "struct Exotic.Roll",
        "members": [
          {
            "astId": 3467,
            "contract": "contracts/Exotic.sol:Exotic",
            "label": "result",
            "offset": 0,
            "slot": "0",
            "type": "t_uint256"
          },
          {
            "astId": 3469,
            "contract": "contracts/Exotic.sol:Exotic",
            "label": "requestId",
            "offset": 0,
            "slot": "1",
            "type": "t_uint256"
          },
          {
            "astId": 3473,
            "contract": "contracts/Exotic.sol:Exotic",
            "label": "winWeights",
            "offset": 0,
            "slot": "2",
            "type": "t_array(t_uint256)6_storage"
          }
        ],
        "numberOfBytes": "256"
      },
      "t_uint256": {
        "encoding": "inplace",
        "label": "uint256",
        "numberOfBytes": "32"
      },
      "t_uint64": {
        "encoding": "inplace",
        "label": "uint64",
        "numberOfBytes": "8"
      },
      "t_uint8": {
        "encoding": "inplace",
        "label": "uint8",
        "numberOfBytes": "1"
      }
    }
  }
}