{
  "address": "0xfC77B686a8b4128E01f2e3ceee7678550B020D11",
  "abi": [
    {
      "anonymous": false,
      "inputs": [
        {
          "indexed": false,
          "internalType": "uint8",
          "name": "version",
          "type": "uint8"
        }
      ],
      "name": "Initialized",
      "type": "event"
    },
    {
      "anonymous": false,
      "inputs": [
        {
          "indexed": false,
          "internalType": "uint256",
          "name": "maxBet",
          "type": "uint256"
        }
      ],
      "name": "MaxBetUpdated",
      "type": "event"
    },
    {
      "anonymous": false,
      "inputs": [
        {
          "indexed": true,
          "internalType": "address",
          "name": "previousOwner",
          "type": "address"
        },
        {
          "indexed": true,
          "internalType": "address",
          "name": "newOwner",
          "type": "address"
        }
      ],
      "name": "OwnershipTransferred",
      "type": "event"
    },
    {
      "anonymous": false,
      "inputs": [
        {
          "indexed": true,
          "internalType": "uint256",
          "name": "raceId",
          "type": "uint256"
        },
        {
          "indexed": true,
          "internalType": "address",
          "name": "to",
          "type": "address"
        },
        {
          "indexed": false,
          "internalType": "uint256",
          "name": "amount",
          "type": "uint256"
        },
        {
          "indexed": false,
          "internalType": "uint256[]",
          "name": "prediction",
          "type": "uint256[]"
        },
        {
          "indexed": false,
          "internalType": "uint256",
          "name": "payout",
          "type": "uint256"
        }
      ],
      "name": "Payout",
      "type": "event"
    },
    {
      "anonymous": false,
      "inputs": [
        {
          "indexed": true,
          "internalType": "uint256",
          "name": "raceId",
          "type": "uint256"
        },
        {
          "indexed": false,
          "internalType": "uint256",
          "name": "totalValue",
          "type": "uint256"
        },
        {
          "indexed": false,
          "internalType": "uint256",
          "name": "result",
          "type": "uint256"
        }
      ],
      "name": "RaceEnd",
      "type": "event"
    },
    {
      "anonymous": false,
      "inputs": [
        {
          "indexed": true,
          "internalType": "uint256",
          "name": "raceId",
          "type": "uint256"
        },
        {
          "indexed": false,
          "internalType": "uint256",
          "name": "totalValue",
          "type": "uint256"
        }
      ],
      "name": "RaceStart",
      "type": "event"
    },
    {
      "anonymous": false,
      "inputs": [
        {
          "indexed": true,
          "internalType": "uint256",
          "name": "raceId",
          "type": "uint256"
        },
        {
          "indexed": true,
          "internalType": "address",
          "name": "from",
          "type": "address"
        },
        {
          "indexed": false,
          "internalType": "uint256",
          "name": "amount",
          "type": "uint256"
        },
        {
          "indexed": false,
          "internalType": "uint256[]",
          "name": "prediction",
          "type": "uint256[]"
        },
        {
          "indexed": false,
          "internalType": "uint256",
          "name": "poolTotal",
          "type": "uint256"
        }
      ],
      "name": "Wagered",
      "type": "event"
    },
    {
      "inputs": [
        {
          "internalType": "address",
          "name": "",
          "type": "address"
        },
        {
          "internalType": "uint256",
          "name": "",
          "type": "uint256"
        }
      ],
      "name": "bet",
      "outputs": [
        {
          "internalType": "uint256",
          "name": "raceId",
          "type": "uint256"
        },
        {
          "internalType": "uint256",
          "name": "amount",
          "type": "uint256"
        },
        {
          "internalType": "address",
          "name": "account",
          "type": "address"
        },
        {
          "internalType": "bool",
          "name": "paid",
          "type": "bool"
        }
      ],
      "stateMutability": "view",
      "type": "function"
    },
    {
      "inputs": [
        {
          "internalType": "uint256",
          "name": "requestId",
          "type": "uint256"
        },
        {
          "internalType": "uint256[]",
          "name": "randomWords",
          "type": "uint256[]"
        }
      ],
      "name": "endRace",
      "outputs": [],
      "stateMutability": "nonpayable",
      "type": "function"
    },
    {
      "inputs": [],
      "name": "fee",
      "outputs": [
        {
          "internalType": "uint256",
          "name": "",
          "type": "uint256"
        }
      ],
      "stateMutability": "view",
      "type": "function"
    },
    {
      "inputs": [],
      "name": "feeAddress",
      "outputs": [
        {
          "internalType": "address",
          "name": "",
          "type": "address"
        }
      ],
      "stateMutability": "view",
      "type": "function"
    },
    {
      "inputs": [],
      "name": "frequency",
      "outputs": [
        {
          "internalType": "uint256",
          "name": "",
          "type": "uint256"
        }
      ],
      "stateMutability": "view",
      "type": "function"
    },
    {
      "inputs": [
        {
          "internalType": "address",
          "name": "_randomProviderAddress",
          "type": "address"
        },
        {
          "internalType": "uint256",
          "name": "_fee",
          "type": "uint256"
        },
        {
          "internalType": "uint256",
          "name": "_jackpotContribution",
          "type": "uint256"
        },
        {
          "internalType": "address",
          "name": "_feeAddress",
          "type": "address"
        },
        {
          "internalType": "address",
          "name": "_jackpotAddress",
          "type": "address"
        },
        {
          "internalType": "uint256",
          "name": "_maxBet",
          "type": "uint256"
        }
      ],
      "name": "initialize",
      "outputs": [],
      "stateMutability": "nonpayable",
      "type": "function"
    },
    {
      "inputs": [],
      "name": "jackpotAddress",
      "outputs": [
        {
          "internalType": "address",
          "name": "",
          "type": "address"
        }
      ],
      "stateMutability": "view",
      "type": "function"
    },
    {
      "inputs": [],
      "name": "jackpotContribution",
      "outputs": [
        {
          "internalType": "uint256",
          "name": "",
          "type": "uint256"
        }
      ],
      "stateMutability": "view",
      "type": "function"
    },
    {
      "inputs": [],
      "name": "maxBet",
      "outputs": [
        {
          "internalType": "uint256",
          "name": "",
          "type": "uint256"
        }
      ],
      "stateMutability": "view",
      "type": "function"
    },
    {
      "inputs": [],
      "name": "nextRaceId",
      "outputs": [
        {
          "internalType": "uint256",
          "name": "",
          "type": "uint256"
        }
      ],
      "stateMutability": "view",
      "type": "function"
    },
    {
      "inputs": [
        {
          "internalType": "uint256",
          "name": "raceId",
          "type": "uint256"
        },
        {
          "internalType": "uint256[]",
          "name": "result",
          "type": "uint256[]"
        }
      ],
      "name": "odds",
      "outputs": [
        {
          "internalType": "uint256",
          "name": "",
          "type": "uint256"
        }
      ],
      "stateMutability": "view",
      "type": "function"
    },
    {
      "inputs": [],
      "name": "owner",
      "outputs": [
        {
          "internalType": "address",
          "name": "",
          "type": "address"
        }
      ],
      "stateMutability": "view",
      "type": "function"
    },
    {
      "inputs": [
        {
          "internalType": "uint256",
          "name": "betId",
          "type": "uint256"
        }
      ],
      "name": "payout",
      "outputs": [],
      "stateMutability": "nonpayable",
      "type": "function"
    },
    {
      "inputs": [
        {
          "internalType": "uint256",
          "name": "raceId",
          "type": "uint256"
        },
        {
          "internalType": "uint256[]",
          "name": "prediction",
          "type": "uint256[]"
        }
      ],
      "name": "placeBet",
      "outputs": [
        {
          "internalType": "uint256",
          "name": "betId",
          "type": "uint256"
        }
      ],
      "stateMutability": "payable",
      "type": "function"
    },
    {
      "inputs": [
        {
          "internalType": "uint256",
          "name": "",
          "type": "uint256"
        }
      ],
      "name": "race",
      "outputs": [
        {
          "internalType": "uint256",
          "name": "totalWagered",
          "type": "uint256"
        },
        {
          "internalType": "uint256",
          "name": "paid",
          "type": "uint256"
        },
        {
          "internalType": "uint256",
          "name": "result",
          "type": "uint256"
        },
        {
          "internalType": "uint256",
          "name": "requestId",
          "type": "uint256"
        }
      ],
      "stateMutability": "view",
      "type": "function"
    },
    {
      "inputs": [
        {
          "internalType": "uint256",
          "name": "raceId",
          "type": "uint256"
        }
      ],
      "name": "raceResult",
      "outputs": [
        {
          "internalType": "uint256[6]",
          "name": "",
          "type": "uint256[6]"
        }
      ],
      "stateMutability": "view",
      "type": "function"
    },
    {
      "inputs": [],
      "name": "randomProvider",
      "outputs": [
        {
          "internalType": "contract IRandomProvider",
          "name": "",
          "type": "address"
        }
      ],
      "stateMutability": "view",
      "type": "function"
    },
    {
      "inputs": [],
      "name": "renounceOwnership",
      "outputs": [],
      "stateMutability": "nonpayable",
      "type": "function"
    },
    {
      "inputs": [],
      "name": "start",
      "outputs": [
        {
          "internalType": "uint256",
          "name": "",
          "type": "uint256"
        }
      ],
      "stateMutability": "view",
      "type": "function"
    },
    {
      "inputs": [
        {
          "internalType": "uint256",
          "name": "raceId",
          "type": "uint256"
        }
      ],
      "name": "startRace",
      "outputs": [],
      "stateMutability": "nonpayable",
      "type": "function"
    },
    {
      "inputs": [
        {
          "internalType": "address",
          "name": "newOwner",
          "type": "address"
        }
      ],
      "name": "transferOwnership",
      "outputs": [],
      "stateMutability": "nonpayable",
      "type": "function"
    },
    {
      "inputs": [
        {
          "internalType": "uint256",
          "name": "_maxBet",
          "type": "uint256"
        }
      ],
      "name": "updateMaxBet",
      "outputs": [],
      "stateMutability": "nonpayable",
      "type": "function"
    },
    {
      "inputs": [
        {
          "internalType": "address",
          "name": "user",
          "type": "address"
        },
        {
          "internalType": "uint256",
          "name": "betId",
          "type": "uint256"
        }
      ],
      "name": "userBet",
      "outputs": [
        {
          "components": [
            {
              "internalType": "uint256",
              "name": "raceId",
              "type": "uint256"
            },
            {
              "internalType": "uint256",
              "name": "amount",
              "type": "uint256"
            },
            {
              "internalType": "address",
              "name": "account",
              "type": "address"
            },
            {
              "internalType": "uint256[]",
              "name": "place",
              "type": "uint256[]"
            },
            {
              "internalType": "bool",
              "name": "paid",
              "type": "bool"
            }
          ],
          "internalType": "struct Exotic.Bet",
          "name": "",
          "type": "tuple"
        }
      ],
      "stateMutability": "view",
      "type": "function"
    },
    {
      "inputs": [
        {
          "internalType": "address",
          "name": "user",
          "type": "address"
        }
      ],
      "name": "userBetCount",
      "outputs": [
        {
          "internalType": "uint256",
          "name": "",
          "type": "uint256"
        }
      ],
      "stateMutability": "view",
      "type": "function"
    }
  ],
  "transactionHash": "0x7d7007417601232f1d050e530fd2e62dacf5acb907ef04b2499fbeb26e02f16b",
  "args": [],
  "numDeployments": 1,
  "solcInputHash": "a6601bb6d959dc68cfa99d212d235e65",
  "bytecode": "0x608060405234801561001057600080fd5b506134f6806100206000396000f3fe60806040526004361061014b5760003560e01c8063b71455ee116100b6578063ddca3f431161006f578063ddca3f431461048a578063e1152343146104b5578063ead50da3146104de578063f2fde38b14610509578063f408a23a14610532578063f846cabc1461056f5761014b565b8063b71455ee1461034f578063b7dda85e1461038c578063be9a6555146103cc578063d149221b146103f7578063d8595d8614610434578063d9b8fd8f1461045f5761014b565b80634195ab8e116101085780634195ab8e146102515780636bc0b3ba1461028e578063715018a6146102b95780638da5cb5b146102d05780638f46500e146102fb578063a55cd51c146103265761014b565b8063122d2d961461015057806324d822bf146101795780632e5b2168146101a257806330d14655146101cd578063315aa38c146101fd5780634127535814610226575b600080fd5b34801561015c57600080fd5b506101776004803603810190610172919061225a565b6105af565b005b34801561018557600080fd5b506101a0600480360381019061019b91906122e7565b610728565b005b3480156101ae57600080fd5b506101b761092a565b6040516101c49190612b7a565b60405180910390f35b6101e760048036038101906101e29190612341565b610930565b6040516101f49190612b7a565b60405180910390f35b34801561020957600080fd5b50610224600480360381019061021f91906123a1565b610e80565b005b34801561023257600080fd5b5061023b611007565b60405161024891906128cc565b60405180910390f35b34801561025d57600080fd5b506102786004803603810190610273919061221a565b61102d565b6040516102859190612b58565b60405180910390f35b34801561029a57600080fd5b506102a3611184565b6040516102b091906128cc565b60405180910390f35b3480156102c557600080fd5b506102ce6111aa565b005b3480156102dc57600080fd5b506102e5611232565b6040516102f291906128cc565b60405180910390f35b34801561030757600080fd5b5061031061125c565b60405161031d9190612902565b60405180910390f35b34801561033257600080fd5b5061034d600480360381019061034891906122e7565b611282565b005b34801561035b57600080fd5b50610376600480360381019061037191906122e7565b611341565b60405161038391906128e7565b60405180910390f35b34801561039857600080fd5b506103b360048036038101906103ae91906122e7565b611526565b6040516103c39493929190612c81565b60405180910390f35b3480156103d857600080fd5b506103e1611556565b6040516103ee9190612b7a565b60405180910390f35b34801561040357600080fd5b5061041e600480360381019061041991906123a1565b61155c565b60405161042b9190612b7a565b60405180910390f35b34801561044057600080fd5b506104496116ef565b6040516104569190612b7a565b60405180910390f35b34801561046b57600080fd5b506104746116f5565b6040516104819190612b7a565b60405180910390f35b34801561049657600080fd5b5061049f611720565b6040516104ac9190612b7a565b60405180910390f35b3480156104c157600080fd5b506104dc60048036038101906104d791906122e7565b611726565b005b3480156104ea57600080fd5b506104f3611a43565b6040516105009190612b7a565b60405180910390f35b34801561051557600080fd5b50610530600480360381019061052b91906121ed565b611a48565b005b34801561053e57600080fd5b50610559600480360381019061055491906121ed565b611b40565b6040516105669190612b7a565b60405180910390f35b34801561057b57600080fd5b506105966004803603810190610591919061221a565b611b8c565b6040516105a69493929190612c3c565b60405180910390f35b60006105bb6001611c06565b905080156105df576001600060016101000a81548160ff0219169083151502179055505b4260678190555086606560006101000a81548173ffffffffffffffffffffffffffffffffffffffff021916908373ffffffffffffffffffffffffffffffffffffffff160217905550856068819055508460698190555083606a60006101000a81548173ffffffffffffffffffffffffffffffffffffffff021916908373ffffffffffffffffffffffffffffffffffffffff16021790555082606b60006101000a81548173ffffffffffffffffffffffffffffffffffffffff021916908373ffffffffffffffffffffffffffffffffffffffff16021790555081606c819055506106c6611cf6565b801561071f5760008060016101000a81548160ff0219169083151502179055507f7f26b83ff96e1f2b6a682f133852f6798a09c465da95921460cefb38474024986001604051610716919061291d565b60405180910390a15b50505050505050565b61073181611d4f565b60b48161073e9190612dcc565b421161077f576040517f08c379a000000000000000000000000000000000000000000000000000000000815260040161077690612a38565b60405180910390fd5b6000606d6000838152602001908152602001600020905060008160030154146107dd576040517f08c379a00000000000000000000000000000000000000000000000000000000081526004016107d490612a78565b60405180910390fd5b6000816002015414610824576040517f08c379a000000000000000000000000000000000000000000000000000000000815260040161081b90612ad8565b60405180910390fd5b6000606560009054906101000a900473ffffffffffffffffffffffffffffffffffffffff1673ffffffffffffffffffffffffffffffffffffffff1663e0c862896040518163ffffffff1660e01b8152600401602060405180830381600087803b15801561089057600080fd5b505af11580156108a4573d6000803e3d6000fd5b505050506040513d601f19601f820116820180604052508101906108c89190612314565b905080826003018190555082606f600083815260200190815260200160002081905550827f727aed3ef5e1b948e78407c8b942fb3193ebc5901b4bc951faa6568c90b7849560665460405161091d9190612b7a565b60405180910390a2505050565b606c5481565b600061093b84611d4f565b60018383905014610981576040517f08c379a0000000000000000000000000000000000000000000000000000000008152600401610978906129d8565b60405180910390fd5b6000612710606854346109949190612e53565b61099e9190612e22565b90506000612710606954346109b39190612e53565b6109bd9190612e22565b9050600081836109cd9190612dcc565b346109d89190612ead565b9050606c54811115610a1f576040517f08c379a0000000000000000000000000000000000000000000000000000000008152600401610a1690612958565b60405180910390fd5b610a27611fe7565b878160000181815250508181602001818152505033816040019073ffffffffffffffffffffffffffffffffffffffff16908173ffffffffffffffffffffffffffffffffffffffff1681525050606e60003373ffffffffffffffffffffffffffffffffffffffff1673ffffffffffffffffffffffffffffffffffffffff168152602001908152602001600020819080600181540180825580915050600190039060005260206000209060050201600090919091909150600082015181600001556020820151816001015560408201518160020160006101000a81548173ffffffffffffffffffffffffffffffffffffffff021916908373ffffffffffffffffffffffffffffffffffffffff1602179055506060820151816003019080519060200190610b5392919061202e565b5060808201518160040160006101000a81548160ff0219169083151502179055505050606e60003373ffffffffffffffffffffffffffffffffffffffff1673ffffffffffffffffffffffffffffffffffffffff1681526020019081526020016000206001606e60003373ffffffffffffffffffffffffffffffffffffffff1673ffffffffffffffffffffffffffffffffffffffff16815260200190815260200160002080549050610c049190612ead565b81548110610c1557610c146130ba565b5b906000526020600020906005020160030187876000818110610c3a57610c396130ba565b5b9050602002013590806001815401808255809150506001900390600052602060002001600090919091909150556000606d60008a81526020019081526020016000209050828160040189896000818110610c9757610c966130ba565b5b9050602002013560068110610caf57610cae6130ba565b5b016000828254610cbf9190612dcc565b9250508190555082816000016000828254610cda9190612dcc565b925050819055508260666000828254610cf39190612dcc565b925050819055503373ffffffffffffffffffffffffffffffffffffffff16897fed7146643be17948fcb4400f9980c37ef3404baf91823ef51782e2c6673266f6858b8b606654604051610d499493929190612b95565b60405180910390a3606a60009054906101000a900473ffffffffffffffffffffffffffffffffffffffff1673ffffffffffffffffffffffffffffffffffffffff166108fc869081150290604051600060405180830381858888f19350505050158015610db9573d6000803e3d6000fd5b50606b60009054906101000a900473ffffffffffffffffffffffffffffffffffffffff1673ffffffffffffffffffffffffffffffffffffffff166108fc859081150290604051600060405180830381858888f19350505050158015610e22573d6000803e3d6000fd5b506001606e60003373ffffffffffffffffffffffffffffffffffffffff1673ffffffffffffffffffffffffffffffffffffffff16815260200190815260200160002080549050610e729190612ead565b955050505050509392505050565b606560009054906101000a900473ffffffffffffffffffffffffffffffffffffffff1673ffffffffffffffffffffffffffffffffffffffff163373ffffffffffffffffffffffffffffffffffffffff1614610f10576040517f08c379a0000000000000000000000000000000000000000000000000000000008152600401610f0790612998565b60405180910390fd5b6000606f60008481526020019081526020016000205490506000606d600083815260200190815260200160002090506000816002015414610f86576040517f08c379a0000000000000000000000000000000000000000000000000000000008152600401610f7d90612938565b60405180910390fd5b82600081518110610f9a57610f996130ba565b5b60200260200101518160020181905550817f7554ff21c11af92d9ed24a3625daa96a85ebe3a0a3c44c44cb080cb400c42d9860665485600081518110610fe357610fe26130ba565b5b6020026020010151604051610ff9929190612c13565b60405180910390a250505050565b606a60009054906101000a900473ffffffffffffffffffffffffffffffffffffffff1681565b611035611fe7565b606e60008473ffffffffffffffffffffffffffffffffffffffff1673ffffffffffffffffffffffffffffffffffffffff1681526020019081526020016000208281548110611086576110856130ba565b5b90600052602060002090600502016040518060a001604052908160008201548152602001600182015481526020016002820160009054906101000a900473ffffffffffffffffffffffffffffffffffffffff1673ffffffffffffffffffffffffffffffffffffffff1673ffffffffffffffffffffffffffffffffffffffff1681526020016003820180548060200260200160405190810160405280929190818152602001828054801561115857602002820191906000526020600020905b815481526020019060010190808311611144575b505050505081526020016004820160009054906101000a900460ff161515151581525050905092915050565b606b60009054906101000a900473ffffffffffffffffffffffffffffffffffffffff1681565b6111b2611e95565b73ffffffffffffffffffffffffffffffffffffffff166111d0611232565b73ffffffffffffffffffffffffffffffffffffffff1614611226576040517f08c379a000000000000000000000000000000000000000000000000000000000815260040161121d90612a58565b60405180910390fd5b6112306000611e9d565b565b6000603360009054906101000a900473ffffffffffffffffffffffffffffffffffffffff16905090565b606560009054906101000a900473ffffffffffffffffffffffffffffffffffffffff1681565b61128a611e95565b73ffffffffffffffffffffffffffffffffffffffff166112a8611232565b73ffffffffffffffffffffffffffffffffffffffff16146112fe576040517f08c379a00000000000000000000000000000000000000000000000000000000081526004016112f590612a58565b60405180910390fd5b80606c819055507f2b47c83dfa951a422411b397c029d005c87d9fa8fe9f6d2bc2620c23e5e00312606c546040516113369190612b7a565b60405180910390a150565b61134961207b565b6000606d60008481526020019081526020016000206040518060a001604052908160008201548152602001600182015481526020016002820154815260200160038201548152602001600482016006806020026040519081016040528092919082600680156113cd576020028201915b8154815260200190600101908083116113b9575b5050505050815250509050600081604001511415611420576040517f08c379a000000000000000000000000000000000000000000000000000000000815260040161141790612b18565b60405180910390fd5b61142861207b565b600080600090505b600681101561147557836080015181600681106114505761144f6130ba565b5b6020020151826114609190612dcc565b9150808061146d90612fe2565b915050611430565b6000828560400151611487919061302b565b905060005b60068110156115185781866080015182600681106114ad576114ac6130ba565b5b602002015111156114db5780856000600681106114cd576114cc6130ba565b5b602002018181525050611505565b856080015181600681106114f2576114f16130ba565b5b6020020151826115029190612ead565b91505b808061151090612fe2565b91505061148c565b849650505050505050919050565b606d6020528060005260406000206000915090508060000154908060010154908060020154908060030154905084565b60675481565b600080606d60008581526020019081526020016000206040518060a001604052908160008201548152602001600182015481526020016002820154815260200160038201548152602001600482016006806020026040519081016040528092919082600680156115e1576020028201915b8154815260200190600101908083116115cd575b50505050508152505090506001835114611630576040517f08c379a0000000000000000000000000000000000000000000000000000000008152600401611627906129d8565b60405180910390fd5b600080600090505b600681101561167d5782608001518160068110611658576116576130ba565b5b6020020151826116689190612dcc565b9150808061167590612fe2565b915050611638565b6000821415611691578193505050506116e9565b816402540be4008460800151876000815181106116b1576116b06130ba565b5b6020026020010151600681106116ca576116c96130ba565b5b60200201516116d99190612e53565b6116e39190612e22565b93505050505b92915050565b60695481565b600060b442611704919061302b565b60b46117109190612ead565b4261171b9190612dcc565b905090565b60685481565b6000606e60003373ffffffffffffffffffffffffffffffffffffffff1673ffffffffffffffffffffffffffffffffffffffff1681526020019081526020016000208281548110611779576117786130ba565b5b906000526020600020906005020190506000606d60008360000154815260200190815260200160002090506000816002015414156117ec576040517f08c379a00000000000000000000000000000000000000000000000000000000081526004016117e390612a38565b60405180910390fd5b8160040160009054906101000a900460ff161561183e576040517f08c379a000000000000000000000000000000000000000000000000000000000815260040161183590612b38565b60405180910390fd5b600061184d8360000154611341565b905060005b83600301805490508110156118bb57818160068110611874576118736130ba565b5b602002015184600301828154811061188f5761188e6130ba565b5b9060005260206000200154146118a85750505050611a40565b80806118b390612fe2565b915050611852565b600061191d85600001548660030180548060200260200160405190810160405280929190818152602001828054801561191357602002820191906000526020600020905b8154815260200190600101908083116118ff575b505050505061155c565b90506000816402540be40087600101546119379190612e53565b6119419190612e22565b905060018660040160006101000a81548160ff021916908315150217905550808560010160008282546119749190612dcc565b92505081905550806066600082825461198d9190612ead565b925050819055503373ffffffffffffffffffffffffffffffffffffffff1686600001547fef0068ac9e6ad3b19d182459af297eb4d144e7721b87c619278bed0fcd0bd5dc886001015489600301856040516119ea93929190612bd5565b60405180910390a33373ffffffffffffffffffffffffffffffffffffffff166108fc829081150290604051600060405180830381858888f19350505050158015611a38573d6000803e3d6000fd5b505050505050505b50565b60b481565b611a50611e95565b73ffffffffffffffffffffffffffffffffffffffff16611a6e611232565b73ffffffffffffffffffffffffffffffffffffffff1614611ac4576040517f08c379a0000000000000000000000000000000000000000000000000000000008152600401611abb90612a58565b60405180910390fd5b600073ffffffffffffffffffffffffffffffffffffffff168173ffffffffffffffffffffffffffffffffffffffff161415611b34576040517f08c379a0000000000000000000000000000000000000000000000000000000008152600401611b2b90612978565b60405180910390fd5b611b3d81611e9d565b50565b6000606e60008373ffffffffffffffffffffffffffffffffffffffff1673ffffffffffffffffffffffffffffffffffffffff168152602001908152602001600020805490509050919050565b606e6020528160005260406000208181548110611ba857600080fd5b9060005260206000209060050201600091509150508060000154908060010154908060020160009054906101000a900473ffffffffffffffffffffffffffffffffffffffff16908060040160009054906101000a900460ff16905084565b60008060019054906101000a900460ff1615611c7d5760018260ff16148015611c355750611c3330611f63565b155b611c74576040517f08c379a0000000000000000000000000000000000000000000000000000000008152600401611c6b90612a18565b60405180910390fd5b60009050611cf1565b8160ff1660008054906101000a900460ff1660ff1610611cd2576040517f08c379a0000000000000000000000000000000000000000000000000000000008152600401611cc990612a18565b60405180910390fd5b816000806101000a81548160ff021916908360ff160217905550600190505b919050565b600060019054906101000a900460ff16611d45576040517f08c379a0000000000000000000000000000000000000000000000000000000008152600401611d3c90612af8565b60405180910390fd5b611d4d611f86565b565b600060b482611d5e919061302b565b14611d9e576040517f08c379a0000000000000000000000000000000000000000000000000000000008152600401611d9590612ab8565b60405180910390fd5b606754811015611de3576040517f08c379a0000000000000000000000000000000000000000000000000000000008152600401611dda906129b8565b60405180910390fd5b6000606d60008381526020019081526020016000206002015414611e3c576040517f08c379a0000000000000000000000000000000000000000000000000000000008152600401611e3390612a98565b60405180910390fd5b6000606f60008381526020019081526020016000205414611e92576040517f08c379a0000000000000000000000000000000000000000000000000000000008152600401611e89906129f8565b60405180910390fd5b50565b600033905090565b6000603360009054906101000a900473ffffffffffffffffffffffffffffffffffffffff16905081603360006101000a81548173ffffffffffffffffffffffffffffffffffffffff021916908373ffffffffffffffffffffffffffffffffffffffff1602179055508173ffffffffffffffffffffffffffffffffffffffff168173ffffffffffffffffffffffffffffffffffffffff167f8be0079c531659141344cd1fd0a4f28419497f9722a3daafe3b4186f6b6457e060405160405180910390a35050565b6000808273ffffffffffffffffffffffffffffffffffffffff163b119050919050565b600060019054906101000a900460ff16611fd5576040517f08c379a0000000000000000000000000000000000000000000000000000000008152600401611fcc90612af8565b60405180910390fd5b611fe5611fe0611e95565b611e9d565b565b6040518060a001604052806000815260200160008152602001600073ffffffffffffffffffffffffffffffffffffffff168152602001606081526020016000151581525090565b82805482825590600052602060002090810192821561206a579160200282015b8281111561206957825182559160200191906001019061204e565b5b509050612077919061209d565b5090565b6040518060c00160405280600690602082028036833780820191505090505090565b5b808211156120b657600081600090555060010161209e565b5090565b60006120cd6120c884612ceb565b612cc6565b905080838252602082019050828560208602820111156120f0576120ef613135565b5b60005b85811015612120578161210688826121c3565b8452602084019350602083019250506001810190506120f3565b5050509392505050565b60008135905061213981613492565b92915050565b60008083601f84011261215557612154613130565b5b8235905067ffffffffffffffff8111156121725761217161312b565b5b60208301915083602082028301111561218e5761218d613135565b5b9250929050565b600082601f8301126121aa576121a9613130565b5b81356121ba8482602086016120ba565b91505092915050565b6000813590506121d2816134a9565b92915050565b6000815190506121e7816134a9565b92915050565b60006020828403121561220357612202613144565b5b60006122118482850161212a565b91505092915050565b6000806040838503121561223157612230613144565b5b600061223f8582860161212a565b9250506020612250858286016121c3565b9150509250929050565b60008060008060008060c0878903121561227757612276613144565b5b600061228589828a0161212a565b965050602061229689828a016121c3565b95505060406122a789828a016121c3565b94505060606122b889828a0161212a565b93505060806122c989828a0161212a565b92505060a06122da89828a016121c3565b9150509295509295509295565b6000602082840312156122fd576122fc613144565b5b600061230b848285016121c3565b91505092915050565b60006020828403121561232a57612329613144565b5b6000612338848285016121d8565b91505092915050565b60008060006040848603121561235a57612359613144565b5b6000612368868287016121c3565b935050602084013567ffffffffffffffff8111156123895761238861313a565b5b6123958682870161213f565b92509250509250925092565b600080604083850312156123b8576123b7613144565b5b60006123c6858286016121c3565b925050602083013567ffffffffffffffff8111156123e7576123e661313a565b5b6123f385828601612195565b9150509250929050565b600061240983836128ae565b60208301905092915050565b61241e81612eeb565b82525050565b61242d81612eeb565b82525050565b61243c81612d46565b6124468184612d8e565b925061245182612d17565b8060005b8381101561248257815161246987826123fd565b965061247483612d67565b925050600181019050612455565b505050505050565b60006124968385612daa565b93507f07ffffffffffffffffffffffffffffffffffffffffffffffffffffffffffffff8311156124c9576124c861313f565b5b6020830292506124da838584612f88565b82840190509392505050565b60006124f182612d51565b6124fb8185612d99565b935061250683612d21565b8060005b8381101561253757815161251e88826123fd565b975061252983612d74565b92505060018101905061250a565b5085935050505092915050565b600061254f82612d5c565b6125598185612daa565b935061256483612d31565b8060005b8381101561259c5761257982613118565b61258388826123fd565b975061258e83612d81565b925050600181019050612568565b5085935050505092915050565b6125b281612efd565b82525050565b6125c181612efd565b82525050565b6125d081612f40565b82525050565b6125df81612f52565b82525050565b60006125f2601c83612dbb565b91506125fd82613167565b602082019050919050565b6000612615601683612dbb565b915061262082613190565b602082019050919050565b6000612638602683612dbb565b9150612643826131b9565b604082019050919050565b600061265b601a83612dbb565b915061266682613208565b602082019050919050565b600061267e601683612dbb565b915061268982613231565b602082019050919050565b60006126a1602083612dbb565b91506126ac8261325a565b602082019050919050565b60006126c4600d83612dbb565b91506126cf82613283565b602082019050919050565b60006126e7602e83612dbb565b91506126f2826132ac565b604082019050919050565b600061270a601183612dbb565b9150612715826132fb565b602082019050919050565b600061272d602083612dbb565b915061273882613324565b602082019050919050565b6000612750601883612dbb565b915061275b8261334d565b602082019050919050565b6000612773600d83612dbb565b915061277e82613376565b602082019050919050565b6000612796600f83612dbb565b91506127a18261339f565b602082019050919050565b60006127b9601d83612dbb565b91506127c4826133c8565b602082019050919050565b60006127dc602b83612dbb565b91506127e7826133f1565b604082019050919050565b60006127ff601483612dbb565b915061280a82613440565b602082019050919050565b6000612822601083612dbb565b915061282d82613469565b602082019050919050565b600060a08301600083015161285060008601826128ae565b50602083015161286360208601826128ae565b5060408301516128766040860182612415565b506060830151848203606086015261288e82826124e6565b91505060808301516128a360808601826125a9565b508091505092915050565b6128b781612f29565b82525050565b6128c681612f29565b82525050565b60006020820190506128e16000830184612424565b92915050565b600060c0820190506128fc6000830184612433565b92915050565b600060208201905061291760008301846125c7565b92915050565b600060208201905061293260008301846125d6565b92915050565b60006020820190508181036000830152612951816125e5565b9050919050565b6000602082019050818103600083015261297181612608565b9050919050565b600060208201905081810360008301526129918161262b565b9050919050565b600060208201905081810360008301526129b18161264e565b9050919050565b600060208201905081810360008301526129d181612671565b9050919050565b600060208201905081810360008301526129f181612694565b9050919050565b60006020820190508181036000830152612a11816126b7565b9050919050565b60006020820190508181036000830152612a31816126da565b9050919050565b60006020820190508181036000830152612a51816126fd565b9050919050565b60006020820190508181036000830152612a7181612720565b9050919050565b60006020820190508181036000830152612a9181612743565b9050919050565b60006020820190508181036000830152612ab181612766565b9050919050565b60006020820190508181036000830152612ad181612789565b9050919050565b60006020820190508181036000830152612af1816127ac565b9050919050565b60006020820190508181036000830152612b11816127cf565b9050919050565b60006020820190508181036000830152612b31816127f2565b9050919050565b60006020820190508181036000830152612b5181612815565b9050919050565b60006020820190508181036000830152612b728184612838565b905092915050565b6000602082019050612b8f60008301846128bd565b92915050565b6000606082019050612baa60008301876128bd565b8181036020830152612bbd81858761248a565b9050612bcc60408301846128bd565b95945050505050565b6000606082019050612bea60008301866128bd565b8181036020830152612bfc8185612544565b9050612c0b60408301846128bd565b949350505050565b6000604082019050612c2860008301856128bd565b612c3560208301846128bd565b9392505050565b6000608082019050612c5160008301876128bd565b612c5e60208301866128bd565b612c6b6040830185612424565b612c7860608301846125b8565b95945050505050565b6000608082019050612c9660008301876128bd565b612ca360208301866128bd565b612cb060408301856128bd565b612cbd60608301846128bd565b95945050505050565b6000612cd0612ce1565b9050612cdc8282612fb1565b919050565b6000604051905090565b600067ffffffffffffffff821115612d0657612d056130e9565b5b602082029050602081019050919050565b6000819050919050565b6000819050602082019050919050565b60008190508160005260206000209050919050565b600060069050919050565b600081519050919050565b600081549050919050565b6000602082019050919050565b6000602082019050919050565b6000600182019050919050565b600081905092915050565b600082825260208201905092915050565b600082825260208201905092915050565b600082825260208201905092915050565b6000612dd782612f29565b9150612de283612f29565b9250827fffffffffffffffffffffffffffffffffffffffffffffffffffffffffffffffff03821115612e1757612e1661305c565b5b828201905092915050565b6000612e2d82612f29565b9150612e3883612f29565b925082612e4857612e4761308b565b5b828204905092915050565b6000612e5e82612f29565b9150612e6983612f29565b9250817fffffffffffffffffffffffffffffffffffffffffffffffffffffffffffffffff0483118215151615612ea257612ea161305c565b5b828202905092915050565b6000612eb882612f29565b9150612ec383612f29565b925082821015612ed657612ed561305c565b5b828203905092915050565b6000819050919050565b6000612ef682612f09565b9050919050565b60008115159050919050565b600073ffffffffffffffffffffffffffffffffffffffff82169050919050565b6000819050919050565b600060ff82169050919050565b6000612f4b82612f64565b9050919050565b6000612f5d82612f33565b9050919050565b6000612f6f82612f76565b9050919050565b6000612f8182612f09565b9050919050565b82818337600083830152505050565b6000612faa612fa58361315a565b612ee1565b9050919050565b612fba82613149565b810181811067ffffffffffffffff82111715612fd957612fd86130e9565b5b80604052505050565b6000612fed82612f29565b91507fffffffffffffffffffffffffffffffffffffffffffffffffffffffffffffffff8214156130205761301f61305c565b5b600182019050919050565b600061303682612f29565b915061304183612f29565b9250826130515761305061308b565b5b828206905092915050565b7f4e487b7100000000000000000000000000000000000000000000000000000000600052601160045260246000fd5b7f4e487b7100000000000000000000000000000000000000000000000000000000600052601260045260246000fd5b7f4e487b7100000000000000000000000000000000000000000000000000000000600052603260045260246000fd5b7f4e487b7100000000000000000000000000000000000000000000000000000000600052604160045260246000fd5b60006131248254612f97565b9050919050565b600080fd5b600080fd5b600080fd5b600080fd5b600080fd5b600080fd5b6000601f19601f8301169050919050565b60008160001c9050919050565b7f52616e646f6d6e65737320616c72656164792066756c66696c6c656400000000600082015250565b7f4265742061626f7665206d6178426574206c696d697400000000000000000000600082015250565b7f4f776e61626c653a206e6577206f776e657220697320746865207a65726f206160008201527f6464726573730000000000000000000000000000000000000000000000000000602082015250565b7f4e6f7420416c6c6f7765642072616e646f6d50726f7669646572000000000000600082015250565b7f4c6976696e6720696e2074686520706173742062726f00000000000000000000600082015250565b7f4f6e6c792077696e206265742063757272656e746c7920737570706f72746564600082015250565b7f526163652066696e6973696e6700000000000000000000000000000000000000600082015250565b7f496e697469616c697a61626c653a20636f6e747261637420697320616c72656160008201527f647920696e697469616c697a6564000000000000000000000000000000000000602082015250565b7f52616365206e6f742066696e6973686564000000000000000000000000000000600082015250565b7f4f776e61626c653a2063616c6c6572206973206e6f7420746865206f776e6572600082015250565b7f526573756c7420616c7265616479207265717565737465640000000000000000600082015250565b7f526163652066696e697368656400000000000000000000000000000000000000600082015250565b7f496e76616c696420726163652049440000000000000000000000000000000000600082015250565b7f5261636520726573756c7420616c72656164792066756c66696c6c6564000000600082015250565b7f496e697469616c697a61626c653a20636f6e7472616374206973206e6f74206960008201527f6e697469616c697a696e67000000000000000000000000000000000000000000602082015250565b7f52616365206973206e6f742066696e6973686564000000000000000000000000600082015250565b7f42657420616c7265616479207061696400000000000000000000000000000000600082015250565b61349b81612eeb565b81146134a657600080fd5b50565b6134b281612f29565b81146134bd57600080fd5b5056fea2646970667358221220e8797550a47415a6ef414cbf238c839fb8ad0e0de204c047d97c75002f332ef164736f6c63430008070033",
  "devdoc": {
    "kind": "dev",
    "methods": {
      "owner()": {
        "details": "Returns the address of the current owner."
      },
      "renounceOwnership()": {
        "details": "Leaves the contract without owner. It will not be possible to call `onlyOwner` functions anymore. Can only be called by the current owner. NOTE: Renouncing ownership will leave the contract without an owner, thereby removing any functionality that is only available to the owner."
      },
      "transferOwnership(address)": {
        "details": "Transfers ownership of the contract to a new account (`newOwner`). Can only be called by the current owner."
      }
    },
    "title": "An betting game with exotic bet types",
    "version": 1
  },
  "userdoc": {
    "events": {
      "Payout(uint256,address,uint256,uint256[],uint256)": {
        "notice": "emitted when a bet is cashed out."
      },
      "RaceEnd(uint256,uint256,uint256)": {
        "notice": "emitted when a race ends."
      },
      "RaceStart(uint256,uint256)": {
        "notice": "emitted when a race starts."
      },
      "Wagered(uint256,address,uint256,uint256[],uint256)": {
        "notice": "emitted when a new bet is placed on a race."
      }
    },
    "kind": "user",
    "methods": {
      "bet(address,uint256)": {
        "notice": "mapping of address to list of bets."
      },
      "endRace(uint256,uint256[])": {
        "notice": "End the race and set the result."
      },
      "fee()": {
        "notice": "Fee paramaters."
      },
      "frequency()": {
        "notice": "How often races take place."
      },
      "nextRaceId()": {
        "notice": "The time of the next race to take place."
      },
      "odds(uint256,uint256[])": {
        "notice": "Get the current odds for a prediction."
      },
      "payout(uint256)": {
        "notice": "Cash out a winning bet."
      },
      "placeBet(uint256,uint256[])": {
        "notice": "Place a bet."
      },
      "race(uint256)": {
        "notice": "The state for each race."
      },
      "raceResult(uint256)": {
        "notice": "Return the results for a race."
      },
      "start()": {
        "notice": "The datetime of the first race."
      },
      "startRace(uint256)": {
        "notice": "Start the race and request result from VRF."
      },
      "userBet(address,uint256)": {
        "notice": "Returns a users bet with given id."
      },
      "userBetCount(address)": {
        "notice": "Return the amount of bets a user has made."
      }
    },
    "version": 1
  },
  "storageLayout": {
    "storage": [
      {
        "astId": 130,
        "contract": "contracts/Exotic.sol:Exotic",
        "label": "_initialized",
        "offset": 0,
        "slot": "0",
        "type": "t_uint8"
      },
      {
        "astId": 133,
        "contract": "contracts/Exotic.sol:Exotic",
        "label": "_initializing",
        "offset": 1,
        "slot": "0",
        "type": "t_bool"
      },
      {
        "astId": 549,
        "contract": "contracts/Exotic.sol:Exotic",
        "label": "__gap",
        "offset": 0,
        "slot": "1",
        "type": "t_array(t_uint256)50_storage"
      },
      {
        "astId": 10,
        "contract": "contracts/Exotic.sol:Exotic",
        "label": "_owner",
        "offset": 0,
        "slot": "51",
        "type": "t_address"
      },
      {
        "astId": 122,
        "contract": "contracts/Exotic.sol:Exotic",
        "label": "__gap",
        "offset": 0,
        "slot": "52",
        "type": "t_array(t_uint256)49_storage"
      },
      {
        "astId": 564,
        "contract": "contracts/Exotic.sol:Exotic",
        "label": "randomProvider",
        "offset": 0,
        "slot": "101",
        "type": "t_contract(IRandomProvider)1448"
      },
      {
        "astId": 566,
        "contract": "contracts/Exotic.sol:Exotic",
        "label": "balance",
        "offset": 0,
        "slot": "102",
        "type": "t_uint256"
      },
      {
        "astId": 573,
        "contract": "contracts/Exotic.sol:Exotic",
        "label": "start",
        "offset": 0,
        "slot": "103",
        "type": "t_uint256"
      },
      {
        "astId": 576,
        "contract": "contracts/Exotic.sol:Exotic",
        "label": "fee",
        "offset": 0,
        "slot": "104",
        "type": "t_uint256"
      },
      {
        "astId": 578,
        "contract": "contracts/Exotic.sol:Exotic",
        "label": "jackpotContribution",
        "offset": 0,
        "slot": "105",
        "type": "t_uint256"
      },
      {
        "astId": 580,
        "contract": "contracts/Exotic.sol:Exotic",
        "label": "feeAddress",
        "offset": 0,
        "slot": "106",
        "type": "t_address"
      },
      {
        "astId": 582,
        "contract": "contracts/Exotic.sol:Exotic",
        "label": "jackpotAddress",
        "offset": 0,
        "slot": "107",
        "type": "t_address"
      },
      {
        "astId": 584,
        "contract": "contracts/Exotic.sol:Exotic",
        "label": "maxBet",
        "offset": 0,
        "slot": "108",
        "type": "t_uint256"
      },
      {
        "astId": 615,
        "contract": "contracts/Exotic.sol:Exotic",
        "label": "race",
        "offset": 0,
        "slot": "109",
        "type": "t_mapping(t_uint256,t_struct(Race)609_storage)"
      },
      {
        "astId": 622,
        "contract": "contracts/Exotic.sol:Exotic",
        "label": "bet",
        "offset": 0,
        "slot": "110",
        "type": "t_mapping(t_address,t_array(t_struct(Bet)596_storage)dyn_storage)"
      },
      {
        "astId": 627,
        "contract": "contracts/Exotic.sol:Exotic",
        "label": "requestIdRace",
        "offset": 0,
        "slot": "111",
        "type": "t_mapping(t_uint256,t_uint256)"
      }
    ],
    "types": {
      "t_address": {
        "encoding": "inplace",
        "label": "address",
        "numberOfBytes": "20"
      },
      "t_array(t_struct(Bet)596_storage)dyn_storage": {
        "base": "t_struct(Bet)596_storage",
        "encoding": "dynamic_array",
        "label": "struct Exotic.Bet[]",
        "numberOfBytes": "32"
      },
      "t_array(t_uint256)49_storage": {
        "base": "t_uint256",
        "encoding": "inplace",
        "label": "uint256[49]",
        "numberOfBytes": "1568"
      },
      "t_array(t_uint256)50_storage": {
        "base": "t_uint256",
        "encoding": "inplace",
        "label": "uint256[50]",
        "numberOfBytes": "1600"
      },
      "t_array(t_uint256)6_storage": {
        "base": "t_uint256",
        "encoding": "inplace",
        "label": "uint256[6]",
        "numberOfBytes": "192"
      },
      "t_array(t_uint256)dyn_storage": {
        "base": "t_uint256",
        "encoding": "dynamic_array",
        "label": "uint256[]",
        "numberOfBytes": "32"
      },
      "t_bool": {
        "encoding": "inplace",
        "label": "bool",
        "numberOfBytes": "1"
      },
      "t_contract(IRandomProvider)1448": {
        "encoding": "inplace",
        "label": "contract IRandomProvider",
        "numberOfBytes": "20"
      },
      "t_mapping(t_address,t_array(t_struct(Bet)596_storage)dyn_storage)": {
        "encoding": "mapping",
        "key": "t_address",
        "label": "mapping(address => struct Exotic.Bet[])",
        "numberOfBytes": "32",
        "value": "t_array(t_struct(Bet)596_storage)dyn_storage"
      },
      "t_mapping(t_uint256,t_struct(Race)609_storage)": {
        "encoding": "mapping",
        "key": "t_uint256",
        "label": "mapping(uint256 => struct Exotic.Race)",
        "numberOfBytes": "32",
        "value": "t_struct(Race)609_storage"
      },
      "t_mapping(t_uint256,t_uint256)": {
        "encoding": "mapping",
        "key": "t_uint256",
        "label": "mapping(uint256 => uint256)",
        "numberOfBytes": "32",
        "value": "t_uint256"
      },
      "t_struct(Bet)596_storage": {
        "encoding": "inplace",
        "label": "struct Exotic.Bet",
        "members": [
          {
            "astId": 586,
            "contract": "contracts/Exotic.sol:Exotic",
            "label": "raceId",
            "offset": 0,
            "slot": "0",
            "type": "t_uint256"
          },
          {
            "astId": 588,
            "contract": "contracts/Exotic.sol:Exotic",
            "label": "amount",
            "offset": 0,
            "slot": "1",
            "type": "t_uint256"
          },
          {
            "astId": 590,
            "contract": "contracts/Exotic.sol:Exotic",
            "label": "account",
            "offset": 0,
            "slot": "2",
            "type": "t_address"
          },
          {
            "astId": 593,
            "contract": "contracts/Exotic.sol:Exotic",
            "label": "place",
            "offset": 0,
            "slot": "3",
            "type": "t_array(t_uint256)dyn_storage"
          },
          {
            "astId": 595,
            "contract": "contracts/Exotic.sol:Exotic",
            "label": "paid",
            "offset": 0,
            "slot": "4",
            "type": "t_bool"
          }
        ],
        "numberOfBytes": "160"
      },
      "t_struct(Race)609_storage": {
        "encoding": "inplace",
        "label": "struct Exotic.Race",
        "members": [
          {
            "astId": 598,
            "contract": "contracts/Exotic.sol:Exotic",
            "label": "totalWagered",
            "offset": 0,
            "slot": "0",
            "type": "t_uint256"
          },
          {
            "astId": 600,
            "contract": "contracts/Exotic.sol:Exotic",
            "label": "paid",
            "offset": 0,
            "slot": "1",
            "type": "t_uint256"
          },
          {
            "astId": 602,
            "contract": "contracts/Exotic.sol:Exotic",
            "label": "result",
            "offset": 0,
            "slot": "2",
            "type": "t_uint256"
          },
          {
            "astId": 604,
            "contract": "contracts/Exotic.sol:Exotic",
            "label": "requestId",
            "offset": 0,
            "slot": "3",
            "type": "t_uint256"
          },
          {
            "astId": 608,
            "contract": "contracts/Exotic.sol:Exotic",
            "label": "winWeights",
            "offset": 0,
            "slot": "4",
            "type": "t_array(t_uint256)6_storage"
          }
        ],
        "numberOfBytes": "320"
      },
      "t_uint256": {
        "encoding": "inplace",
        "label": "uint256",
        "numberOfBytes": "32"
      },
      "t_uint8": {
        "encoding": "inplace",
        "label": "uint8",
        "numberOfBytes": "1"
      }
    }
  }
}