{
  "address": "0x61ADf045bAa54f36Ef51d5dB7beBE861A6098F83",
  "abi": [
    {
      "anonymous": false,
      "inputs": [
        {
          "indexed": false,
          "internalType": "uint8",
          "name": "version",
          "type": "uint8"
        }
      ],
      "name": "Initialized",
      "type": "event"
    },
    {
      "anonymous": false,
      "inputs": [
        {
          "indexed": true,
          "internalType": "address",
          "name": "previousOwner",
          "type": "address"
        },
        {
          "indexed": true,
          "internalType": "address",
          "name": "newOwner",
          "type": "address"
        }
      ],
      "name": "OwnershipTransferred",
      "type": "event"
    },
    {
      "stateMutability": "payable",
      "type": "fallback"
    },
    {
      "inputs": [
        {
          "internalType": "address",
          "name": "gameAddress",
          "type": "address"
        },
        {
          "internalType": "bool",
          "name": "enabled",
          "type": "bool"
        }
      ],
      "name": "addGame",
      "outputs": [],
      "stateMutability": "nonpayable",
      "type": "function"
    },
    {
      "inputs": [
        {
          "internalType": "address",
          "name": "",
          "type": "address"
        }
      ],
      "name": "game",
      "outputs": [
        {
          "internalType": "address",
          "name": "gameAddress",
          "type": "address"
        },
        {
          "internalType": "bool",
          "name": "enabled",
          "type": "bool"
        }
      ],
      "stateMutability": "view",
      "type": "function"
    },
    {
      "inputs": [],
      "name": "initialize",
      "outputs": [],
      "stateMutability": "nonpayable",
      "type": "function"
    },
    {
      "inputs": [],
      "name": "owner",
      "outputs": [
        {
          "internalType": "address",
          "name": "",
          "type": "address"
        }
      ],
      "stateMutability": "view",
      "type": "function"
    },
    {
      "inputs": [],
      "name": "renounceOwnership",
      "outputs": [],
      "stateMutability": "nonpayable",
      "type": "function"
    },
    {
      "inputs": [
        {
          "internalType": "address",
          "name": "newOwner",
          "type": "address"
        }
      ],
      "name": "transferOwnership",
      "outputs": [],
      "stateMutability": "nonpayable",
      "type": "function"
    },
    {
      "inputs": [
        {
          "internalType": "address",
          "name": "gameAddress",
          "type": "address"
        },
        {
          "internalType": "bool",
          "name": "enabled",
          "type": "bool"
        }
      ],
      "name": "updateGame",
      "outputs": [],
      "stateMutability": "nonpayable",
      "type": "function"
    },
    {
      "stateMutability": "payable",
      "type": "receive"
    }
  ],
  "transactionHash": "0x88828be0c386bb525ca90d9c64fa9e66104b1289e914599d3aead17b554d9a0f",
  "args": [],
  "numDeployments": 1,
  "solcInputHash": "6fa4c5e9da472f11f4ab50d8885d483b",
  "bytecode": "0x608060405234801561001057600080fd5b5061088f806100206000396000f3fe60806040526004361061006e5760003560e01c80638da5cb5b1161004b5780638da5cb5b146100c1578063937c91f3146100ee578063e67d60081461014f578063f2fde38b1461016f57005b806348b5991c14610077578063715018a6146100975780638129fc1c146100ac57005b3661007557005b005b34801561008357600080fd5b5061007561009236600461081d565b61018f565b3480156100a357600080fd5b5061007561023e565b3480156100b857600080fd5b506100756102a4565b3480156100cd57600080fd5b506033546040516001600160a01b0390911681526020015b60405180910390f35b3480156100fa57600080fd5b506101306101093660046107fb565b6065602052600090815260409020546001600160a01b03811690600160a01b900460ff1682565b604080516001600160a01b0390931683529015156020830152016100e5565b34801561015b57600080fd5b5061007561016a36600461081d565b610319565b34801561017b57600080fd5b5061007561018a3660046107fb565b610484565b6033546001600160a01b031633146101ee5760405162461bcd60e51b815260206004820181905260248201527f4f776e61626c653a2063616c6c6572206973206e6f7420746865206f776e657260448201526064015b60405180910390fd5b6001600160a01b0390911660009081526065602052604090208054911515600160a01b027fffffffffffffffffffffff00ffffffffffffffffffffffffffffffffffffffff909216919091179055565b6033546001600160a01b031633146102985760405162461bcd60e51b815260206004820181905260248201527f4f776e61626c653a2063616c6c6572206973206e6f7420746865206f776e657260448201526064016101e5565b6102a2600061055f565b565b60006102b060016105c9565b905080156102c8576000805461ff0019166101001790555b6102d0610702565b8015610316576000805461ff0019169055604051600181527f7f26b83ff96e1f2b6a682f133852f6798a09c465da95921460cefb38474024989060200160405180910390a15b50565b6033546001600160a01b031633146103735760405162461bcd60e51b815260206004820181905260248201527f4f776e61626c653a2063616c6c6572206973206e6f7420746865206f776e657260448201526064016101e5565b6001600160a01b0382811660009081526065602052604090205416156103db5760405162461bcd60e51b815260206004820152601260248201527f47616d6520616c7265616479206164646564000000000000000000000000000060448201526064016101e5565b6001600160a01b0382166104315760405162461bcd60e51b815260206004820152600e60248201527f47616d652030206164647265737300000000000000000000000000000000000060448201526064016101e5565b6001600160a01b0390911660008181526065602052604090208054921515600160a01b027fffffffffffffffffffffff000000000000000000000000000000000000000000909316909117919091179055565b6033546001600160a01b031633146104de5760405162461bcd60e51b815260206004820181905260248201527f4f776e61626c653a2063616c6c6572206973206e6f7420746865206f776e657260448201526064016101e5565b6001600160a01b03811661055a5760405162461bcd60e51b815260206004820152602660248201527f4f776e61626c653a206e6577206f776e657220697320746865207a65726f206160448201527f646472657373000000000000000000000000000000000000000000000000000060648201526084016101e5565b610316815b603380546001600160a01b038381167fffffffffffffffffffffffff0000000000000000000000000000000000000000831681179093556040519116919082907f8be0079c531659141344cd1fd0a4f28419497f9722a3daafe3b4186f6b6457e090600090a35050565b60008054610100900460ff1615610666578160ff1660011480156105ec5750303b155b61065e5760405162461bcd60e51b815260206004820152602e60248201527f496e697469616c697a61626c653a20636f6e747261637420697320616c72656160448201527f647920696e697469616c697a656400000000000000000000000000000000000060648201526084016101e5565b506000919050565b60005460ff8084169116106106e35760405162461bcd60e51b815260206004820152602e60248201527f496e697469616c697a61626c653a20636f6e747261637420697320616c72656160448201527f647920696e697469616c697a656400000000000000000000000000000000000060648201526084016101e5565b506000805460ff191660ff92909216919091179055600190565b919050565b600054610100900460ff1661076d5760405162461bcd60e51b815260206004820152602b60248201527f496e697469616c697a61626c653a20636f6e7472616374206973206e6f74206960448201526a6e697469616c697a696e6760a81b60648201526084016101e5565b6102a2600054610100900460ff166107db5760405162461bcd60e51b815260206004820152602b60248201527f496e697469616c697a61626c653a20636f6e7472616374206973206e6f74206960448201526a6e697469616c697a696e6760a81b60648201526084016101e5565b6102a23361055f565b80356001600160a01b03811681146106fd57600080fd5b60006020828403121561080d57600080fd5b610816826107e4565b9392505050565b6000806040838503121561083057600080fd5b610839836107e4565b91506020830135801515811461084e57600080fd5b80915050925092905056fea2646970667358221220ff658027cb4d8b0f87926513a0ac2311b4edce25a08718c2b5ba90f28d285ae364736f6c63430008070033",
  "devdoc": {
    "kind": "dev",
    "methods": {
      "owner()": {
        "details": "Returns the address of the current owner."
      },
      "renounceOwnership()": {
        "details": "Leaves the contract without owner. It will not be possible to call `onlyOwner` functions anymore. Can only be called by the current owner. NOTE: Renouncing ownership will leave the contract without an owner, thereby removing any functionality that is only available to the owner."
      },
      "transferOwnership(address)": {
        "details": "Transfers ownership of the contract to a new account (`newOwner`). Can only be called by the current owner."
      }
    },
    "title": "the brain and POL of exotics",
    "version": 1
  },
  "userdoc": {
    "kind": "user",
    "methods": {},
    "version": 1
  },
  "storageLayout": {
    "storage": [
      {
        "astId": 277,
        "contract": "contracts/House.sol:House",
        "label": "_initialized",
        "offset": 0,
        "slot": "0",
        "type": "t_uint8"
      },
      {
        "astId": 280,
        "contract": "contracts/House.sol:House",
        "label": "_initializing",
        "offset": 1,
        "slot": "0",
        "type": "t_bool"
      },
      {
        "astId": 774,
        "contract": "contracts/House.sol:House",
        "label": "__gap",
        "offset": 0,
        "slot": "1",
        "type": "t_array(t_uint256)50_storage"
      },
      {
        "astId": 157,
        "contract": "contracts/House.sol:House",
        "label": "_owner",
        "offset": 0,
        "slot": "51",
        "type": "t_address"
      },
      {
        "astId": 269,
        "contract": "contracts/House.sol:House",
        "label": "__gap",
        "offset": 0,
        "slot": "52",
        "type": "t_array(t_uint256)49_storage"
      },
      {
        "astId": 4724,
        "contract": "contracts/House.sol:House",
        "label": "game",
        "offset": 0,
        "slot": "101",
        "type": "t_mapping(t_address,t_struct(Game)4719_storage)"
      }
    ],
    "types": {
      "t_address": {
        "encoding": "inplace",
        "label": "address",
        "numberOfBytes": "20"
      },
      "t_array(t_uint256)49_storage": {
        "base": "t_uint256",
        "encoding": "inplace",
        "label": "uint256[49]",
        "numberOfBytes": "1568"
      },
      "t_array(t_uint256)50_storage": {
        "base": "t_uint256",
        "encoding": "inplace",
        "label": "uint256[50]",
        "numberOfBytes": "1600"
      },
      "t_bool": {
        "encoding": "inplace",
        "label": "bool",
        "numberOfBytes": "1"
      },
      "t_mapping(t_address,t_struct(Game)4719_storage)": {
        "encoding": "mapping",
        "key": "t_address",
        "label": "mapping(address => struct House.Game)",
        "numberOfBytes": "32",
        "value": "t_struct(Game)4719_storage"
      },
      "t_struct(Game)4719_storage": {
        "encoding": "inplace",
        "label": "struct House.Game",
        "members": [
          {
            "astId": 4716,
            "contract": "contracts/House.sol:House",
            "label": "gameAddress",
            "offset": 0,
            "slot": "0",
            "type": "t_address"
          },
          {
            "astId": 4718,
            "contract": "contracts/House.sol:House",
            "label": "enabled",
            "offset": 20,
            "slot": "0",
            "type": "t_bool"
          }
        ],
        "numberOfBytes": "32"
      },
      "t_uint256": {
        "encoding": "inplace",
        "label": "uint256",
        "numberOfBytes": "32"
      },
      "t_uint8": {
        "encoding": "inplace",
        "label": "uint8",
        "numberOfBytes": "1"
      }
    }
  }
}