{
  "address": "0x2E0076f563881d7B065b88E7428CA2e56f343185",
  "abi": [
    {
      "anonymous": false,
      "inputs": [
        {
          "indexed": false,
          "internalType": "uint8",
          "name": "version",
          "type": "uint8"
        }
      ],
      "name": "Initialized",
      "type": "event"
    },
    {
      "anonymous": false,
      "inputs": [
        {
          "indexed": true,
          "internalType": "uint256",
          "name": "raceId",
          "type": "uint256"
        },
        {
          "indexed": true,
          "internalType": "address",
          "name": "to",
          "type": "address"
        },
        {
          "indexed": false,
          "internalType": "uint256",
          "name": "amount",
          "type": "uint256"
        },
        {
          "indexed": false,
          "internalType": "uint256[]",
          "name": "prediction",
          "type": "uint256[]"
        },
        {
          "indexed": false,
          "internalType": "uint256",
          "name": "payout",
          "type": "uint256"
        }
      ],
      "name": "Payout",
      "type": "event"
    },
    {
      "anonymous": false,
      "inputs": [
        {
          "indexed": true,
          "internalType": "uint256",
          "name": "raceId",
          "type": "uint256"
        },
        {
          "indexed": false,
          "internalType": "uint256",
          "name": "totalValue",
          "type": "uint256"
        },
        {
          "indexed": false,
          "internalType": "uint256",
          "name": "result",
          "type": "uint256"
        }
      ],
      "name": "RaceEnd",
      "type": "event"
    },
    {
      "anonymous": false,
      "inputs": [
        {
          "indexed": true,
          "internalType": "uint256",
          "name": "raceId",
          "type": "uint256"
        },
        {
          "indexed": false,
          "internalType": "uint256",
          "name": "totalValue",
          "type": "uint256"
        }
      ],
      "name": "RaceStart",
      "type": "event"
    },
    {
      "anonymous": false,
      "inputs": [
        {
          "indexed": true,
          "internalType": "uint256",
          "name": "raceId",
          "type": "uint256"
        },
        {
          "indexed": true,
          "internalType": "address",
          "name": "from",
          "type": "address"
        },
        {
          "indexed": false,
          "internalType": "uint256",
          "name": "amount",
          "type": "uint256"
        },
        {
          "indexed": false,
          "internalType": "uint256[]",
          "name": "prediction",
          "type": "uint256[]"
        },
        {
          "indexed": false,
          "internalType": "uint256",
          "name": "poolTotal",
          "type": "uint256"
        }
      ],
      "name": "Wagered",
      "type": "event"
    },
    {
      "inputs": [
        {
          "internalType": "address",
          "name": "",
          "type": "address"
        },
        {
          "internalType": "uint256",
          "name": "",
          "type": "uint256"
        }
      ],
      "name": "bet",
      "outputs": [
        {
          "internalType": "uint256",
          "name": "raceId",
          "type": "uint256"
        },
        {
          "internalType": "uint256",
          "name": "amount",
          "type": "uint256"
        },
        {
          "internalType": "address",
          "name": "account",
          "type": "address"
        },
        {
          "internalType": "bool",
          "name": "paid",
          "type": "bool"
        }
      ],
      "stateMutability": "view",
      "type": "function"
    },
    {
      "inputs": [
        {
          "internalType": "uint256",
          "name": "requestId",
          "type": "uint256"
        },
        {
          "internalType": "uint256[]",
          "name": "randomWords",
          "type": "uint256[]"
        }
      ],
      "name": "endRace",
      "outputs": [],
      "stateMutability": "nonpayable",
      "type": "function"
    },
    {
      "inputs": [],
      "name": "fee",
      "outputs": [
        {
          "internalType": "uint256",
          "name": "",
          "type": "uint256"
        }
      ],
      "stateMutability": "view",
      "type": "function"
    },
    {
      "inputs": [],
      "name": "feeAddress",
      "outputs": [
        {
          "internalType": "address",
          "name": "",
          "type": "address"
        }
      ],
      "stateMutability": "view",
      "type": "function"
    },
    {
      "inputs": [],
      "name": "frequency",
      "outputs": [
        {
          "internalType": "uint256",
          "name": "",
          "type": "uint256"
        }
      ],
      "stateMutability": "view",
      "type": "function"
    },
    {
      "inputs": [
        {
          "internalType": "address",
          "name": "_randomProviderAddress",
          "type": "address"
        },
        {
          "internalType": "uint256",
          "name": "_fee",
          "type": "uint256"
        },
        {
          "internalType": "uint256",
          "name": "_jackpotContribution",
          "type": "uint256"
        },
        {
          "internalType": "address",
          "name": "_feeAddress",
          "type": "address"
        },
        {
          "internalType": "address",
          "name": "_jackpotAddress",
          "type": "address"
        }
      ],
      "name": "initialize",
      "outputs": [],
      "stateMutability": "nonpayable",
      "type": "function"
    },
    {
      "inputs": [],
      "name": "jackpotAddress",
      "outputs": [
        {
          "internalType": "address",
          "name": "",
          "type": "address"
        }
      ],
      "stateMutability": "view",
      "type": "function"
    },
    {
      "inputs": [],
      "name": "jackpotContribution",
      "outputs": [
        {
          "internalType": "uint256",
          "name": "",
          "type": "uint256"
        }
      ],
      "stateMutability": "view",
      "type": "function"
    },
    {
      "inputs": [],
      "name": "nextRaceId",
      "outputs": [
        {
          "internalType": "uint256",
          "name": "",
          "type": "uint256"
        }
      ],
      "stateMutability": "view",
      "type": "function"
    },
    {
      "inputs": [
        {
          "internalType": "uint256",
          "name": "raceId",
          "type": "uint256"
        },
        {
          "internalType": "uint256[]",
          "name": "result",
          "type": "uint256[]"
        }
      ],
      "name": "odds",
      "outputs": [
        {
          "internalType": "uint256",
          "name": "",
          "type": "uint256"
        }
      ],
      "stateMutability": "view",
      "type": "function"
    },
    {
      "inputs": [
        {
          "internalType": "uint256",
          "name": "betId",
          "type": "uint256"
        }
      ],
      "name": "payout",
      "outputs": [],
      "stateMutability": "nonpayable",
      "type": "function"
    },
    {
      "inputs": [
        {
          "internalType": "uint256",
          "name": "raceId",
          "type": "uint256"
        },
        {
          "internalType": "uint256[]",
          "name": "prediction",
          "type": "uint256[]"
        }
      ],
      "name": "placeBet",
      "outputs": [
        {
          "internalType": "uint256",
          "name": "betId",
          "type": "uint256"
        }
      ],
      "stateMutability": "payable",
      "type": "function"
    },
    {
      "inputs": [
        {
          "internalType": "uint256",
          "name": "",
          "type": "uint256"
        }
      ],
      "name": "race",
      "outputs": [
        {
          "internalType": "uint256",
          "name": "totalWagered",
          "type": "uint256"
        },
        {
          "internalType": "uint256",
          "name": "paid",
          "type": "uint256"
        },
        {
          "internalType": "uint256",
          "name": "result",
          "type": "uint256"
        },
        {
          "internalType": "uint256",
          "name": "requestId",
          "type": "uint256"
        }
      ],
      "stateMutability": "view",
      "type": "function"
    },
    {
      "inputs": [
        {
          "internalType": "uint256",
          "name": "raceId",
          "type": "uint256"
        }
      ],
      "name": "raceResult",
      "outputs": [
        {
          "internalType": "uint256[6]",
          "name": "",
          "type": "uint256[6]"
        }
      ],
      "stateMutability": "view",
      "type": "function"
    },
    {
      "inputs": [],
      "name": "randomProvider",
      "outputs": [
        {
          "internalType": "contract IRandomProvider",
          "name": "",
          "type": "address"
        }
      ],
      "stateMutability": "view",
      "type": "function"
    },
    {
      "inputs": [],
      "name": "start",
      "outputs": [
        {
          "internalType": "uint256",
          "name": "",
          "type": "uint256"
        }
      ],
      "stateMutability": "view",
      "type": "function"
    },
    {
      "inputs": [
        {
          "internalType": "uint256",
          "name": "raceId",
          "type": "uint256"
        }
      ],
      "name": "startRace",
      "outputs": [],
      "stateMutability": "nonpayable",
      "type": "function"
    },
    {
      "inputs": [
        {
          "internalType": "address",
          "name": "user",
          "type": "address"
        },
        {
          "internalType": "uint256",
          "name": "betId",
          "type": "uint256"
        }
      ],
      "name": "userBet",
      "outputs": [
        {
          "components": [
            {
              "internalType": "uint256",
              "name": "raceId",
              "type": "uint256"
            },
            {
              "internalType": "uint256",
              "name": "amount",
              "type": "uint256"
            },
            {
              "internalType": "address",
              "name": "account",
              "type": "address"
            },
            {
              "internalType": "uint256[]",
              "name": "place",
              "type": "uint256[]"
            },
            {
              "internalType": "bool",
              "name": "paid",
              "type": "bool"
            }
          ],
          "internalType": "struct Exotic.Bet",
          "name": "",
          "type": "tuple"
        }
      ],
      "stateMutability": "view",
      "type": "function"
    },
    {
      "inputs": [
        {
          "internalType": "address",
          "name": "user",
          "type": "address"
        }
      ],
      "name": "userBetCount",
      "outputs": [
        {
          "internalType": "uint256",
          "name": "",
          "type": "uint256"
        }
      ],
      "stateMutability": "view",
      "type": "function"
    }
  ],
  "transactionHash": "0x1c04efb4aa7d218482e2cd21ca0c94a4e5f3d10e1adc559dd1e8777c6a4f9204",
  "args": [],
  "numDeployments": 1,
  "solcInputHash": "0d46543eaac9e417f19da21c06d52aa8",
  "bytecode": "0x608060405234801561001057600080fd5b50612ea4806100206000396000f3fe6080604052600436106101145760003560e01c8063b7dda85e116100a0578063ddca3f4311610064578063ddca3f43146103bd578063e1152343146103e8578063ead50da314610411578063f408a23a1461043c578063f846cabc1461047957610114565b8063b7dda85e146102bf578063be9a6555146102ff578063d149221b1461032a578063d8595d8614610367578063d9b8fd8f1461039257610114565b806341275358116100e757806341275358146101c45780634195ab8e146101ef5780636bc0b3ba1461022c5780638f46500e14610257578063b71455ee1461028257610114565b806303b54d521461011957806324d822bf1461014257806330d146551461016b578063315aa38c1461019b575b600080fd5b34801561012557600080fd5b50610140600480360381019061013b9190611e16565b6104b9565b005b34801561014e57600080fd5b5061016960048036038101906101649190611e91565b610622565b005b61018560048036038101906101809190611eeb565b610823565b6040516101929190612618565b60405180910390f35b3480156101a757600080fd5b506101c260048036038101906101bd9190611f4b565b610d45565b005b3480156101d057600080fd5b506101d9610ecc565b6040516101e691906123ea565b60405180910390f35b3480156101fb57600080fd5b5061021660048036038101906102119190611dd6565b610ef2565b60405161022391906125f6565b60405180910390f35b34801561023857600080fd5b50610241611049565b60405161024e91906123ea565b60405180910390f35b34801561026357600080fd5b5061026c61106f565b6040516102799190612420565b60405180910390f35b34801561028e57600080fd5b506102a960048036038101906102a49190611e91565b611095565b6040516102b69190612405565b60405180910390f35b3480156102cb57600080fd5b506102e660048036038101906102e19190611e91565b6112fa565b6040516102f6949392919061271f565b60405180910390f35b34801561030b57600080fd5b5061031461132a565b6040516103219190612618565b60405180910390f35b34801561033657600080fd5b50610351600480360381019061034c9190611f4b565b611330565b60405161035e9190612618565b60405180910390f35b34801561037357600080fd5b5061037c61152b565b6040516103899190612618565b60405180910390f35b34801561039e57600080fd5b506103a7611531565b6040516103b49190612618565b60405180910390f35b3480156103c957600080fd5b506103d261155c565b6040516103df9190612618565b60405180910390f35b3480156103f457600080fd5b5061040f600480360381019061040a9190611e91565b611562565b005b34801561041d57600080fd5b5061042661187f565b6040516104339190612618565b60405180910390f35b34801561044857600080fd5b50610463600480360381019061045e9190611da9565b611884565b6040516104709190612618565b60405180910390f35b34801561048557600080fd5b506104a0600480360381019061049b9190611dd6565b6118d0565b6040516104b094939291906126da565b60405180910390f35b60006104c5600161194a565b905080156104e9576001600060016101000a81548160ff0219169083151502179055505b4260028190555085600060026101000a81548173ffffffffffffffffffffffffffffffffffffffff021916908373ffffffffffffffffffffffffffffffffffffffff160217905550846003819055508360048190555082600560006101000a81548173ffffffffffffffffffffffffffffffffffffffff021916908373ffffffffffffffffffffffffffffffffffffffff16021790555081600660006101000a81548173ffffffffffffffffffffffffffffffffffffffff021916908373ffffffffffffffffffffffffffffffffffffffff160217905550801561061a5760008060016101000a81548160ff0219169083151502179055507f7f26b83ff96e1f2b6a682f133852f6798a09c465da95921460cefb38474024986001604051610611919061243b565b60405180910390a15b505050505050565b61062b81611a3a565b60b481610638919061286a565b4211610679576040517f08c379a000000000000000000000000000000000000000000000000000000000815260040161067090612516565b60405180910390fd5b600060076000838152602001908152602001600020905060008160030154146106d7576040517f08c379a00000000000000000000000000000000000000000000000000000000081526004016106ce90612536565b60405180910390fd5b600081600201541461071e576040517f08c379a000000000000000000000000000000000000000000000000000000000815260040161071590612596565b60405180910390fd5b60008060029054906101000a900473ffffffffffffffffffffffffffffffffffffffff1673ffffffffffffffffffffffffffffffffffffffff1663e0c862896040518163ffffffff1660e01b8152600401602060405180830381600087803b15801561078957600080fd5b505af115801561079d573d6000803e3d6000fd5b505050506040513d601f19601f820116820180604052508101906107c19190611ebe565b9050808260030181905550826009600083815260200190815260200160002081905550827f727aed3ef5e1b948e78407c8b942fb3193ebc5901b4bc951faa6568c90b784956001546040516108169190612618565b60405180910390a2505050565b600061082e84611a3a565b60018383905014610874576040517f08c379a000000000000000000000000000000000000000000000000000000000815260040161086b906124b6565b60405180910390fd5b60006127106003543461088791906128f1565b61089191906128c0565b90506000612710600454346108a691906128f1565b6108b091906128c0565b9050600081836108c0919061286a565b346108cb919061294b565b90506108d5611ba3565b878160000181815250508181602001818152505033816040019073ffffffffffffffffffffffffffffffffffffffff16908173ffffffffffffffffffffffffffffffffffffffff1681525050600860003373ffffffffffffffffffffffffffffffffffffffff1673ffffffffffffffffffffffffffffffffffffffff168152602001908152602001600020819080600181540180825580915050600190039060005260206000209060050201600090919091909150600082015181600001556020820151816001015560408201518160020160006101000a81548173ffffffffffffffffffffffffffffffffffffffff021916908373ffffffffffffffffffffffffffffffffffffffff1602179055506060820151816003019080519060200190610a01929190611bea565b5060808201518160040160006101000a81548160ff0219169083151502179055505050600860003373ffffffffffffffffffffffffffffffffffffffff1673ffffffffffffffffffffffffffffffffffffffff1681526020019081526020016000206001600860003373ffffffffffffffffffffffffffffffffffffffff1673ffffffffffffffffffffffffffffffffffffffff16815260200190815260200160002080549050610ab2919061294b565b81548110610ac357610ac2612b58565b5b906000526020600020906005020160030187876000818110610ae857610ae7612b58565b5b9050602002013590806001815401808255809150506001900390600052602060002001600090919091909150556000600760008a815260200190815260200160002090508281600401600060038110610b4457610b43612b58565b5b6006020189896000818110610b5c57610b5b612b58565b5b9050602002013560068110610b7457610b73612b58565b5b016000828254610b84919061286a565b9250508190555082816000016000828254610b9f919061286a565b925050819055508260016000828254610bb8919061286a565b925050819055503373ffffffffffffffffffffffffffffffffffffffff16897fed7146643be17948fcb4400f9980c37ef3404baf91823ef51782e2c6673266f6858b8b600154604051610c0e9493929190612633565b60405180910390a3600560009054906101000a900473ffffffffffffffffffffffffffffffffffffffff1673ffffffffffffffffffffffffffffffffffffffff166108fc869081150290604051600060405180830381858888f19350505050158015610c7e573d6000803e3d6000fd5b50600660009054906101000a900473ffffffffffffffffffffffffffffffffffffffff1673ffffffffffffffffffffffffffffffffffffffff166108fc859081150290604051600060405180830381858888f19350505050158015610ce7573d6000803e3d6000fd5b506001600860003373ffffffffffffffffffffffffffffffffffffffff1673ffffffffffffffffffffffffffffffffffffffff16815260200190815260200160002080549050610d37919061294b565b955050505050509392505050565b600060029054906101000a900473ffffffffffffffffffffffffffffffffffffffff1673ffffffffffffffffffffffffffffffffffffffff163373ffffffffffffffffffffffffffffffffffffffff1614610dd5576040517f08c379a0000000000000000000000000000000000000000000000000000000008152600401610dcc90612476565b60405180910390fd5b60006009600084815260200190815260200160002054905060006007600083815260200190815260200160002090506000816002015414610e4b576040517f08c379a0000000000000000000000000000000000000000000000000000000008152600401610e4290612456565b60405180910390fd5b82600081518110610e5f57610e5e612b58565b5b60200260200101518160020181905550817f7554ff21c11af92d9ed24a3625daa96a85ebe3a0a3c44c44cb080cb400c42d9860015485600081518110610ea857610ea7612b58565b5b6020026020010151604051610ebe9291906126b1565b60405180910390a250505050565b600560009054906101000a900473ffffffffffffffffffffffffffffffffffffffff1681565b610efa611ba3565b600860008473ffffffffffffffffffffffffffffffffffffffff1673ffffffffffffffffffffffffffffffffffffffff1681526020019081526020016000208281548110610f4b57610f4a612b58565b5b90600052602060002090600502016040518060a001604052908160008201548152602001600182015481526020016002820160009054906101000a900473ffffffffffffffffffffffffffffffffffffffff1673ffffffffffffffffffffffffffffffffffffffff1673ffffffffffffffffffffffffffffffffffffffff1681526020016003820180548060200260200160405190810160405280929190818152602001828054801561101d57602002820191906000526020600020905b815481526020019060010190808311611009575b505050505081526020016004820160009054906101000a900460ff161515151581525050905092915050565b600660009054906101000a900473ffffffffffffffffffffffffffffffffffffffff1681565b600060029054906101000a900473ffffffffffffffffffffffffffffffffffffffff1681565b61109d611c37565b6000600760008481526020019081526020016000206040518060a00160405290816000820154815260200160018201548152602001600282015481526020016003820154815260200160048201600380602002604051908101604052809291906000905b8282101561115a57838260060201600680602002604051908101604052809291908260068015611146576020028201915b815481526020019060010190808311611132575b505050505081526020019060010190611101565b505050508152505090506000816040015114156111ac576040517f08c379a00000000000000000000000000000000000000000000000000000000081526004016111a3906125b6565b60405180910390fd5b6111b4611c37565b600080600090505b60068110156112195783608001516000600381106111dd576111dc612b58565b5b602002015181600681106111f4576111f3612b58565b5b602002015182611204919061286a565b9150808061121190612a80565b9150506111bc565b600082856040015161122b9190612ac9565b905060005b60068110156112ec5781866080015160006003811061125257611251612b58565b5b6020020151826006811061126957611268612b58565b5b6020020151111561129757808560006006811061128957611288612b58565b5b6020020181815250506112d9565b85608001516000600381106112af576112ae612b58565b5b602002015181600681106112c6576112c5612b58565b5b6020020151826112d6919061294b565b91505b80806112e490612a80565b915050611230565b849650505050505050919050565b60076020528060005260406000206000915090508060000154908060010154908060020154908060030154905084565b60025481565b600080600760008581526020019081526020016000206040518060a00160405290816000820154815260200160018201548152602001600282015481526020016003820154815260200160048201600380602002604051908101604052809291906000905b828210156113ee578382600602016006806020026040519081016040528092919082600680156113da576020028201915b8154815260200190600101908083116113c6575b505050505081526020019060010190611395565b50505050815250509050600183511461143c576040517f08c379a0000000000000000000000000000000000000000000000000000000008152600401611433906124b6565b60405180910390fd5b600080600090505b60068110156114a157826080015160006003811061146557611464612b58565b5b6020020151816006811061147c5761147b612b58565b5b60200201518261148c919061286a565b9150808061149990612a80565b915050611444565b60008214156114b557819350505050611525565b816402540be40084608001516000600381106114d4576114d3612b58565b5b6020020151876000815181106114ed576114ec612b58565b5b60200260200101516006811061150657611505612b58565b5b602002015161151591906128f1565b61151f91906128c0565b93505050505b92915050565b60045481565b600060b4426115409190612ac9565b60b461154c919061294b565b42611557919061286a565b905090565b60035481565b6000600860003373ffffffffffffffffffffffffffffffffffffffff1673ffffffffffffffffffffffffffffffffffffffff16815260200190815260200160002082815481106115b5576115b4612b58565b5b90600052602060002090600502019050600060076000836000015481526020019081526020016000209050600081600201541415611628576040517f08c379a000000000000000000000000000000000000000000000000000000000815260040161161f90612516565b60405180910390fd5b8160040160009054906101000a900460ff161561167a576040517f08c379a0000000000000000000000000000000000000000000000000000000008152600401611671906125d6565b60405180910390fd5b60006116898360000154611095565b905060005b83600301805490508110156116f7578181600681106116b0576116af612b58565b5b60200201518460030182815481106116cb576116ca612b58565b5b9060005260206000200154146116e4575050505061187c565b80806116ef90612a80565b91505061168e565b600061175985600001548660030180548060200260200160405190810160405280929190818152602001828054801561174f57602002820191906000526020600020905b81548152602001906001019080831161173b575b5050505050611330565b90506000816402540be400876001015461177391906128f1565b61177d91906128c0565b905060018660040160006101000a81548160ff021916908315150217905550808560010160008282546117b0919061286a565b9250508190555080600160008282546117c9919061294b565b925050819055503373ffffffffffffffffffffffffffffffffffffffff1686600001547fef0068ac9e6ad3b19d182459af297eb4d144e7721b87c619278bed0fcd0bd5dc8860010154896003018560405161182693929190612673565b60405180910390a33373ffffffffffffffffffffffffffffffffffffffff166108fc829081150290604051600060405180830381858888f19350505050158015611874573d6000803e3d6000fd5b505050505050505b50565b60b481565b6000600860008373ffffffffffffffffffffffffffffffffffffffff1673ffffffffffffffffffffffffffffffffffffffff168152602001908152602001600020805490509050919050565b600860205281600052604060002081815481106118ec57600080fd5b9060005260206000209060050201600091509150508060000154908060010154908060020160009054906101000a900473ffffffffffffffffffffffffffffffffffffffff16908060040160009054906101000a900460ff16905084565b60008060019054906101000a900460ff16156119c15760018260ff16148015611979575061197730611b80565b155b6119b8576040517f08c379a00000000000000000000000000000000000000000000000000000000081526004016119af906124f6565b60405180910390fd5b60009050611a35565b8160ff1660008054906101000a900460ff1660ff1610611a16576040517f08c379a0000000000000000000000000000000000000000000000000000000008152600401611a0d906124f6565b60405180910390fd5b816000806101000a81548160ff021916908360ff160217905550600190505b919050565b600060b482611a499190612ac9565b14611a89576040517f08c379a0000000000000000000000000000000000000000000000000000000008152600401611a8090612576565b60405180910390fd5b600254811015611ace576040517f08c379a0000000000000000000000000000000000000000000000000000000008152600401611ac590612496565b60405180910390fd5b6000600760008381526020019081526020016000206002015414611b27576040517f08c379a0000000000000000000000000000000000000000000000000000000008152600401611b1e90612556565b60405180910390fd5b6000600960008381526020019081526020016000205414611b7d576040517f08c379a0000000000000000000000000000000000000000000000000000000008152600401611b74906124d6565b60405180910390fd5b50565b6000808273ffffffffffffffffffffffffffffffffffffffff163b119050919050565b6040518060a001604052806000815260200160008152602001600073ffffffffffffffffffffffffffffffffffffffff168152602001606081526020016000151581525090565b828054828255906000526020600020908101928215611c26579160200282015b82811115611c25578251825591602001919060010190611c0a565b5b509050611c339190611c59565b5090565b6040518060c00160405280600690602082028036833780820191505090505090565b5b80821115611c72576000816000905550600101611c5a565b5090565b6000611c89611c8484612789565b612764565b90508083825260208201905082856020860282011115611cac57611cab612bd3565b5b60005b85811015611cdc5781611cc28882611d7f565b845260208401935060208301925050600181019050611caf565b5050509392505050565b600081359050611cf581612e40565b92915050565b60008083601f840112611d1157611d10612bce565b5b8235905067ffffffffffffffff811115611d2e57611d2d612bc9565b5b602083019150836020820283011115611d4a57611d49612bd3565b5b9250929050565b600082601f830112611d6657611d65612bce565b5b8135611d76848260208601611c76565b91505092915050565b600081359050611d8e81612e57565b92915050565b600081519050611da381612e57565b92915050565b600060208284031215611dbf57611dbe612be2565b5b6000611dcd84828501611ce6565b91505092915050565b60008060408385031215611ded57611dec612be2565b5b6000611dfb85828601611ce6565b9250506020611e0c85828601611d7f565b9150509250929050565b600080600080600060a08688031215611e3257611e31612be2565b5b6000611e4088828901611ce6565b9550506020611e5188828901611d7f565b9450506040611e6288828901611d7f565b9350506060611e7388828901611ce6565b9250506080611e8488828901611ce6565b9150509295509295909350565b600060208284031215611ea757611ea6612be2565b5b6000611eb584828501611d7f565b91505092915050565b600060208284031215611ed457611ed3612be2565b5b6000611ee284828501611d94565b91505092915050565b600080600060408486031215611f0457611f03612be2565b5b6000611f1286828701611d7f565b935050602084013567ffffffffffffffff811115611f3357611f32612bd8565b5b611f3f86828701611cfb565b92509250509250925092565b60008060408385031215611f6257611f61612be2565b5b6000611f7085828601611d7f565b925050602083013567ffffffffffffffff811115611f9157611f90612bd8565b5b611f9d85828601611d51565b9150509250929050565b6000611fb383836123cc565b60208301905092915050565b611fc881612989565b82525050565b611fd781612989565b82525050565b611fe6816127e4565b611ff0818461282c565b9250611ffb826127b5565b8060005b8381101561202c5781516120138782611fa7565b965061201e83612805565b925050600181019050611fff565b505050505050565b60006120408385612848565b93507f07ffffffffffffffffffffffffffffffffffffffffffffffffffffffffffffff83111561207357612072612bdd565b5b602083029250612084838584612a26565b82840190509392505050565b600061209b826127ef565b6120a58185612837565b93506120b0836127bf565b8060005b838110156120e15781516120c88882611fa7565b97506120d383612812565b9250506001810190506120b4565b5085935050505092915050565b60006120f9826127fa565b6121038185612848565b935061210e836127cf565b8060005b838110156121465761212382612bb6565b61212d8882611fa7565b97506121388361281f565b925050600181019050612112565b5085935050505092915050565b61215c8161299b565b82525050565b61216b8161299b565b82525050565b61217a816129de565b82525050565b612189816129f0565b82525050565b600061219c601c83612859565b91506121a782612c05565b602082019050919050565b60006121bf601a83612859565b91506121ca82612c2e565b602082019050919050565b60006121e2601683612859565b91506121ed82612c57565b602082019050919050565b6000612205602083612859565b915061221082612c80565b602082019050919050565b6000612228600d83612859565b915061223382612ca9565b602082019050919050565b600061224b602e83612859565b915061225682612cd2565b604082019050919050565b600061226e601183612859565b915061227982612d21565b602082019050919050565b6000612291601883612859565b915061229c82612d4a565b602082019050919050565b60006122b4600d83612859565b91506122bf82612d73565b602082019050919050565b60006122d7600f83612859565b91506122e282612d9c565b602082019050919050565b60006122fa601d83612859565b915061230582612dc5565b602082019050919050565b600061231d601483612859565b915061232882612dee565b602082019050919050565b6000612340601083612859565b915061234b82612e17565b602082019050919050565b600060a08301600083015161236e60008601826123cc565b50602083015161238160208601826123cc565b5060408301516123946040860182611fbf565b50606083015184820360608601526123ac8282612090565b91505060808301516123c16080860182612153565b508091505092915050565b6123d5816129c7565b82525050565b6123e4816129c7565b82525050565b60006020820190506123ff6000830184611fce565b92915050565b600060c08201905061241a6000830184611fdd565b92915050565b60006020820190506124356000830184612171565b92915050565b60006020820190506124506000830184612180565b92915050565b6000602082019050818103600083015261246f8161218f565b9050919050565b6000602082019050818103600083015261248f816121b2565b9050919050565b600060208201905081810360008301526124af816121d5565b9050919050565b600060208201905081810360008301526124cf816121f8565b9050919050565b600060208201905081810360008301526124ef8161221b565b9050919050565b6000602082019050818103600083015261250f8161223e565b9050919050565b6000602082019050818103600083015261252f81612261565b9050919050565b6000602082019050818103600083015261254f81612284565b9050919050565b6000602082019050818103600083015261256f816122a7565b9050919050565b6000602082019050818103600083015261258f816122ca565b9050919050565b600060208201905081810360008301526125af816122ed565b9050919050565b600060208201905081810360008301526125cf81612310565b9050919050565b600060208201905081810360008301526125ef81612333565b9050919050565b600060208201905081810360008301526126108184612356565b905092915050565b600060208201905061262d60008301846123db565b92915050565b600060608201905061264860008301876123db565b818103602083015261265b818587612034565b905061266a60408301846123db565b95945050505050565b600060608201905061268860008301866123db565b818103602083015261269a81856120ee565b90506126a960408301846123db565b949350505050565b60006040820190506126c660008301856123db565b6126d360208301846123db565b9392505050565b60006080820190506126ef60008301876123db565b6126fc60208301866123db565b6127096040830185611fce565b6127166060830184612162565b95945050505050565b600060808201905061273460008301876123db565b61274160208301866123db565b61274e60408301856123db565b61275b60608301846123db565b95945050505050565b600061276e61277f565b905061277a8282612a4f565b919050565b6000604051905090565b600067ffffffffffffffff8211156127a4576127a3612b87565b5b602082029050602081019050919050565b6000819050919050565b6000819050602082019050919050565b60008190508160005260206000209050919050565b600060069050919050565b600081519050919050565b600081549050919050565b6000602082019050919050565b6000602082019050919050565b6000600182019050919050565b600081905092915050565b600082825260208201905092915050565b600082825260208201905092915050565b600082825260208201905092915050565b6000612875826129c7565b9150612880836129c7565b9250827fffffffffffffffffffffffffffffffffffffffffffffffffffffffffffffffff038211156128b5576128b4612afa565b5b828201905092915050565b60006128cb826129c7565b91506128d6836129c7565b9250826128e6576128e5612b29565b5b828204905092915050565b60006128fc826129c7565b9150612907836129c7565b9250817fffffffffffffffffffffffffffffffffffffffffffffffffffffffffffffffff04831182151516156129405761293f612afa565b5b828202905092915050565b6000612956826129c7565b9150612961836129c7565b92508282101561297457612973612afa565b5b828203905092915050565b6000819050919050565b6000612994826129a7565b9050919050565b60008115159050919050565b600073ffffffffffffffffffffffffffffffffffffffff82169050919050565b6000819050919050565b600060ff82169050919050565b60006129e982612a02565b9050919050565b60006129fb826129d1565b9050919050565b6000612a0d82612a14565b9050919050565b6000612a1f826129a7565b9050919050565b82818337600083830152505050565b6000612a48612a4383612bf8565b61297f565b9050919050565b612a5882612be7565b810181811067ffffffffffffffff82111715612a7757612a76612b87565b5b80604052505050565b6000612a8b826129c7565b91507fffffffffffffffffffffffffffffffffffffffffffffffffffffffffffffffff821415612abe57612abd612afa565b5b600182019050919050565b6000612ad4826129c7565b9150612adf836129c7565b925082612aef57612aee612b29565b5b828206905092915050565b7f4e487b7100000000000000000000000000000000000000000000000000000000600052601160045260246000fd5b7f4e487b7100000000000000000000000000000000000000000000000000000000600052601260045260246000fd5b7f4e487b7100000000000000000000000000000000000000000000000000000000600052603260045260246000fd5b7f4e487b7100000000000000000000000000000000000000000000000000000000600052604160045260246000fd5b6000612bc28254612a35565b9050919050565b600080fd5b600080fd5b600080fd5b600080fd5b600080fd5b600080fd5b6000601f19601f8301169050919050565b60008160001c9050919050565b7f52616e646f6d6e65737320616c72656164792066756c66696c6c656400000000600082015250565b7f4e6f7420416c6c6f7765642072616e646f6d50726f7669646572000000000000600082015250565b7f4c6976696e6720696e2074686520706173742062726f00000000000000000000600082015250565b7f4f6e6c792077696e206265742063757272656e746c7920737570706f72746564600082015250565b7f526163652066696e6973696e6700000000000000000000000000000000000000600082015250565b7f496e697469616c697a61626c653a20636f6e747261637420697320616c72656160008201527f647920696e697469616c697a6564000000000000000000000000000000000000602082015250565b7f52616365206e6f742066696e6973686564000000000000000000000000000000600082015250565b7f526573756c7420616c7265616479207265717565737465640000000000000000600082015250565b7f526163652066696e697368656400000000000000000000000000000000000000600082015250565b7f496e76616c696420726163652049440000000000000000000000000000000000600082015250565b7f5261636520726573756c7420616c72656164792066756c66696c6c6564000000600082015250565b7f52616365206973206e6f742066696e6973686564000000000000000000000000600082015250565b7f42657420616c7265616479207061696400000000000000000000000000000000600082015250565b612e4981612989565b8114612e5457600080fd5b50565b612e60816129c7565b8114612e6b57600080fd5b5056fea2646970667358221220927a3fad8b7acd049e8b2698ec97370b64e805deb68ef649a3dc799a3d43daef64736f6c63430008070033",
  "devdoc": {
    "kind": "dev",
    "methods": {},
    "title": "An betting game with exotic bet types",
    "version": 1
  },
  "userdoc": {
    "events": {
      "Payout(uint256,address,uint256,uint256[],uint256)": {
        "notice": "emitted when a bet is cashed out."
      },
      "RaceEnd(uint256,uint256,uint256)": {
        "notice": "emitted when a race ends."
      },
      "RaceStart(uint256,uint256)": {
        "notice": "emitted when a race starts."
      },
      "Wagered(uint256,address,uint256,uint256[],uint256)": {
        "notice": "emitted when a new bet is placed on a race."
      }
    },
    "kind": "user",
    "methods": {
      "bet(address,uint256)": {
        "notice": "mapping of address to list of bets."
      },
      "endRace(uint256,uint256[])": {
        "notice": "End the race and set the result."
      },
      "fee()": {
        "notice": "Fee paramaters."
      },
      "frequency()": {
        "notice": "How often races take place."
      },
      "nextRaceId()": {
        "notice": "The time of the next race to take place."
      },
      "odds(uint256,uint256[])": {
        "notice": "Get the current odds for a prediction."
      },
      "payout(uint256)": {
        "notice": "Cash out a winning bet."
      },
      "placeBet(uint256,uint256[])": {
        "notice": "Place a bet."
      },
      "race(uint256)": {
        "notice": "The state for each race."
      },
      "raceResult(uint256)": {
        "notice": "Return the results for a race."
      },
      "start()": {
        "notice": "The datetime of the first race."
      },
      "startRace(uint256)": {
        "notice": "Start the race and request result from VRF."
      },
      "userBet(address,uint256)": {
        "notice": "Returns a users bet with given id."
      },
      "userBetCount(address)": {
        "notice": "Return the amount of bets a user has made."
      }
    },
    "version": 1
  },
  "storageLayout": {
    "storage": [
      {
        "astId": 6,
        "contract": "contracts/Exotic.sol:Exotic",
        "label": "_initialized",
        "offset": 0,
        "slot": "0",
        "type": "t_uint8"
      },
      {
        "astId": 9,
        "contract": "contracts/Exotic.sol:Exotic",
        "label": "_initializing",
        "offset": 1,
        "slot": "0",
        "type": "t_bool"
      },
      {
        "astId": 395,
        "contract": "contracts/Exotic.sol:Exotic",
        "label": "randomProvider",
        "offset": 2,
        "slot": "0",
        "type": "t_contract(IRandomProvider)1255"
      },
      {
        "astId": 397,
        "contract": "contracts/Exotic.sol:Exotic",
        "label": "balance",
        "offset": 0,
        "slot": "1",
        "type": "t_uint256"
      },
      {
        "astId": 404,
        "contract": "contracts/Exotic.sol:Exotic",
        "label": "start",
        "offset": 0,
        "slot": "2",
        "type": "t_uint256"
      },
      {
        "astId": 407,
        "contract": "contracts/Exotic.sol:Exotic",
        "label": "fee",
        "offset": 0,
        "slot": "3",
        "type": "t_uint256"
      },
      {
        "astId": 409,
        "contract": "contracts/Exotic.sol:Exotic",
        "label": "jackpotContribution",
        "offset": 0,
        "slot": "4",
        "type": "t_uint256"
      },
      {
        "astId": 411,
        "contract": "contracts/Exotic.sol:Exotic",
        "label": "feeAddress",
        "offset": 0,
        "slot": "5",
        "type": "t_address"
      },
      {
        "astId": 413,
        "contract": "contracts/Exotic.sol:Exotic",
        "label": "jackpotAddress",
        "offset": 0,
        "slot": "6",
        "type": "t_address"
      },
      {
        "astId": 446,
        "contract": "contracts/Exotic.sol:Exotic",
        "label": "race",
        "offset": 0,
        "slot": "7",
        "type": "t_mapping(t_uint256,t_struct(Race)440_storage)"
      },
      {
        "astId": 453,
        "contract": "contracts/Exotic.sol:Exotic",
        "label": "bet",
        "offset": 0,
        "slot": "8",
        "type": "t_mapping(t_address,t_array(t_struct(Bet)425_storage)dyn_storage)"
      },
      {
        "astId": 458,
        "contract": "contracts/Exotic.sol:Exotic",
        "label": "requestIdRace",
        "offset": 0,
        "slot": "9",
        "type": "t_mapping(t_uint256,t_uint256)"
      }
    ],
    "types": {
      "t_address": {
        "encoding": "inplace",
        "label": "address",
        "numberOfBytes": "20"
      },
      "t_array(t_array(t_uint256)6_storage)3_storage": {
        "base": "t_array(t_uint256)6_storage",
        "encoding": "inplace",
        "label": "uint256[6][3]",
        "numberOfBytes": "576"
      },
      "t_array(t_struct(Bet)425_storage)dyn_storage": {
        "base": "t_struct(Bet)425_storage",
        "encoding": "dynamic_array",
        "label": "struct Exotic.Bet[]",
        "numberOfBytes": "32"
      },
      "t_array(t_uint256)6_storage": {
        "base": "t_uint256",
        "encoding": "inplace",
        "label": "uint256[6]",
        "numberOfBytes": "192"
      },
      "t_array(t_uint256)dyn_storage": {
        "base": "t_uint256",
        "encoding": "dynamic_array",
        "label": "uint256[]",
        "numberOfBytes": "32"
      },
      "t_bool": {
        "encoding": "inplace",
        "label": "bool",
        "numberOfBytes": "1"
      },
      "t_contract(IRandomProvider)1255": {
        "encoding": "inplace",
        "label": "contract IRandomProvider",
        "numberOfBytes": "20"
      },
      "t_mapping(t_address,t_array(t_struct(Bet)425_storage)dyn_storage)": {
        "encoding": "mapping",
        "key": "t_address",
        "label": "mapping(address => struct Exotic.Bet[])",
        "numberOfBytes": "32",
        "value": "t_array(t_struct(Bet)425_storage)dyn_storage"
      },
      "t_mapping(t_uint256,t_struct(Race)440_storage)": {
        "encoding": "mapping",
        "key": "t_uint256",
        "label": "mapping(uint256 => struct Exotic.Race)",
        "numberOfBytes": "32",
        "value": "t_struct(Race)440_storage"
      },
      "t_mapping(t_uint256,t_uint256)": {
        "encoding": "mapping",
        "key": "t_uint256",
        "label": "mapping(uint256 => uint256)",
        "numberOfBytes": "32",
        "value": "t_uint256"
      },
      "t_struct(Bet)425_storage": {
        "encoding": "inplace",
        "label": "struct Exotic.Bet",
        "members": [
          {
            "astId": 415,
            "contract": "contracts/Exotic.sol:Exotic",
            "label": "raceId",
            "offset": 0,
            "slot": "0",
            "type": "t_uint256"
          },
          {
            "astId": 417,
            "contract": "contracts/Exotic.sol:Exotic",
            "label": "amount",
            "offset": 0,
            "slot": "1",
            "type": "t_uint256"
          },
          {
            "astId": 419,
            "contract": "contracts/Exotic.sol:Exotic",
            "label": "account",
            "offset": 0,
            "slot": "2",
            "type": "t_address"
          },
          {
            "astId": 422,
            "contract": "contracts/Exotic.sol:Exotic",
            "label": "place",
            "offset": 0,
            "slot": "3",
            "type": "t_array(t_uint256)dyn_storage"
          },
          {
            "astId": 424,
            "contract": "contracts/Exotic.sol:Exotic",
            "label": "paid",
            "offset": 0,
            "slot": "4",
            "type": "t_bool"
          }
        ],
        "numberOfBytes": "160"
      },
      "t_struct(Race)440_storage": {
        "encoding": "inplace",
        "label": "struct Exotic.Race",
        "members": [
          {
            "astId": 427,
            "contract": "contracts/Exotic.sol:Exotic",
            "label": "totalWagered",
            "offset": 0,
            "slot": "0",
            "type": "t_uint256"
          },
          {
            "astId": 429,
            "contract": "contracts/Exotic.sol:Exotic",
            "label": "paid",
            "offset": 0,
            "slot": "1",
            "type": "t_uint256"
          },
          {
            "astId": 431,
            "contract": "contracts/Exotic.sol:Exotic",
            "label": "result",
            "offset": 0,
            "slot": "2",
            "type": "t_uint256"
          },
          {
            "astId": 433,
            "contract": "contracts/Exotic.sol:Exotic",
            "label": "requestId",
            "offset": 0,
            "slot": "3",
            "type": "t_uint256"
          },
          {
            "astId": 439,
            "contract": "contracts/Exotic.sol:Exotic",
            "label": "weights",
            "offset": 0,
            "slot": "4",
            "type": "t_array(t_array(t_uint256)6_storage)3_storage"
          }
        ],
        "numberOfBytes": "704"
      },
      "t_uint256": {
        "encoding": "inplace",
        "label": "uint256",
        "numberOfBytes": "32"
      },
      "t_uint8": {
        "encoding": "inplace",
        "label": "uint8",
        "numberOfBytes": "1"
      }
    }
  }
}