{
  "address": "0x11b0331c7ACb5000D011C386ae9005b9A487B41e",
  "abi": [
    {
      "anonymous": false,
      "inputs": [
        {
          "indexed": false,
          "internalType": "uint8",
          "name": "version",
          "type": "uint8"
        }
      ],
      "name": "Initialized",
      "type": "event"
    },
    {
      "anonymous": false,
      "inputs": [
        {
          "indexed": false,
          "internalType": "uint256",
          "name": "maxBet",
          "type": "uint256"
        }
      ],
      "name": "MaxBetUpdated",
      "type": "event"
    },
    {
      "anonymous": false,
      "inputs": [
        {
          "indexed": true,
          "internalType": "address",
          "name": "previousOwner",
          "type": "address"
        },
        {
          "indexed": true,
          "internalType": "address",
          "name": "newOwner",
          "type": "address"
        }
      ],
      "name": "OwnershipTransferred",
      "type": "event"
    },
    {
      "anonymous": false,
      "inputs": [
        {
          "indexed": true,
          "internalType": "address",
          "name": "feeAddress",
          "type": "address"
        }
      ],
      "name": "POLAddressUpdated",
      "type": "event"
    },
    {
      "anonymous": false,
      "inputs": [
        {
          "indexed": false,
          "internalType": "uint256",
          "name": "fee",
          "type": "uint256"
        }
      ],
      "name": "POLFeeUpdated",
      "type": "event"
    },
    {
      "anonymous": false,
      "inputs": [
        {
          "indexed": true,
          "internalType": "uint256",
          "name": "raceId",
          "type": "uint256"
        },
        {
          "indexed": true,
          "internalType": "address",
          "name": "to",
          "type": "address"
        },
        {
          "indexed": false,
          "internalType": "uint256",
          "name": "amount",
          "type": "uint256"
        },
        {
          "indexed": false,
          "internalType": "uint256[]",
          "name": "prediction",
          "type": "uint256[]"
        },
        {
          "indexed": false,
          "internalType": "uint256",
          "name": "payout",
          "type": "uint256"
        }
      ],
      "name": "Payout",
      "type": "event"
    },
    {
      "anonymous": false,
      "inputs": [
        {
          "indexed": true,
          "internalType": "uint256",
          "name": "raceId",
          "type": "uint256"
        },
        {
          "indexed": false,
          "internalType": "uint256",
          "name": "totalValue",
          "type": "uint256"
        },
        {
          "indexed": false,
          "internalType": "uint256",
          "name": "result",
          "type": "uint256"
        }
      ],
      "name": "RaceEnd",
      "type": "event"
    },
    {
      "anonymous": false,
      "inputs": [
        {
          "indexed": true,
          "internalType": "uint256",
          "name": "raceId",
          "type": "uint256"
        },
        {
          "indexed": false,
          "internalType": "uint256",
          "name": "totalValue",
          "type": "uint256"
        }
      ],
      "name": "RaceStart",
      "type": "event"
    },
    {
      "anonymous": false,
      "inputs": [
        {
          "indexed": true,
          "internalType": "address",
          "name": "feeAddress",
          "type": "address"
        }
      ],
      "name": "RevenueAddressUpdated",
      "type": "event"
    },
    {
      "anonymous": false,
      "inputs": [
        {
          "indexed": false,
          "internalType": "uint256",
          "name": "fee",
          "type": "uint256"
        }
      ],
      "name": "RevenueFeeUpdated",
      "type": "event"
    },
    {
      "anonymous": false,
      "inputs": [
        {
          "indexed": true,
          "internalType": "address",
          "name": "rewarder",
          "type": "address"
        }
      ],
      "name": "RewarderUpdated",
      "type": "event"
    },
    {
      "anonymous": false,
      "inputs": [
        {
          "indexed": true,
          "internalType": "uint256",
          "name": "raceId",
          "type": "uint256"
        },
        {
          "indexed": true,
          "internalType": "address",
          "name": "from",
          "type": "address"
        },
        {
          "indexed": false,
          "internalType": "uint256",
          "name": "amount",
          "type": "uint256"
        },
        {
          "indexed": false,
          "internalType": "uint256[]",
          "name": "prediction",
          "type": "uint256[]"
        },
        {
          "indexed": false,
          "internalType": "uint256",
          "name": "poolTotal",
          "type": "uint256"
        }
      ],
      "name": "Wagered",
      "type": "event"
    },
    {
      "inputs": [
        {
          "internalType": "address",
          "name": "",
          "type": "address"
        },
        {
          "internalType": "uint256",
          "name": "",
          "type": "uint256"
        }
      ],
      "name": "bet",
      "outputs": [
        {
          "internalType": "uint256",
          "name": "raceId",
          "type": "uint256"
        },
        {
          "internalType": "uint256",
          "name": "amount",
          "type": "uint256"
        },
        {
          "internalType": "address",
          "name": "account",
          "type": "address"
        },
        {
          "internalType": "bool",
          "name": "paid",
          "type": "bool"
        }
      ],
      "stateMutability": "view",
      "type": "function"
    },
    {
      "inputs": [
        {
          "internalType": "address",
          "name": "user",
          "type": "address"
        },
        {
          "internalType": "uint256",
          "name": "raceId",
          "type": "uint256"
        }
      ],
      "name": "betsOnRace",
      "outputs": [
        {
          "components": [
            {
              "internalType": "uint256",
              "name": "raceId",
              "type": "uint256"
            },
            {
              "internalType": "uint256",
              "name": "amount",
              "type": "uint256"
            },
            {
              "internalType": "address",
              "name": "account",
              "type": "address"
            },
            {
              "internalType": "uint256[]",
              "name": "place",
              "type": "uint256[]"
            },
            {
              "internalType": "bool",
              "name": "paid",
              "type": "bool"
            }
          ],
          "internalType": "struct Exotic.Bet[]",
          "name": "",
          "type": "tuple[]"
        }
      ],
      "stateMutability": "view",
      "type": "function"
    },
    {
      "inputs": [
        {
          "internalType": "uint256",
          "name": "",
          "type": "uint256"
        },
        {
          "internalType": "address",
          "name": "",
          "type": "address"
        },
        {
          "internalType": "uint256",
          "name": "",
          "type": "uint256"
        }
      ],
      "name": "betsPerRace",
      "outputs": [
        {
          "internalType": "uint256",
          "name": "",
          "type": "uint256"
        }
      ],
      "stateMutability": "view",
      "type": "function"
    },
    {
      "inputs": [
        {
          "internalType": "uint256",
          "name": "requestId",
          "type": "uint256"
        },
        {
          "internalType": "uint256[]",
          "name": "randomWords",
          "type": "uint256[]"
        }
      ],
      "name": "endRace",
      "outputs": [],
      "stateMutability": "nonpayable",
      "type": "function"
    },
    {
      "inputs": [],
      "name": "fee",
      "outputs": [
        {
          "internalType": "uint256",
          "name": "",
          "type": "uint256"
        }
      ],
      "stateMutability": "view",
      "type": "function"
    },
    {
      "inputs": [],
      "name": "feeAddress",
      "outputs": [
        {
          "internalType": "address",
          "name": "",
          "type": "address"
        }
      ],
      "stateMutability": "view",
      "type": "function"
    },
    {
      "inputs": [],
      "name": "frequency",
      "outputs": [
        {
          "internalType": "uint256",
          "name": "",
          "type": "uint256"
        }
      ],
      "stateMutability": "view",
      "type": "function"
    },
    {
      "inputs": [
        {
          "internalType": "address",
          "name": "_randomProviderAddress",
          "type": "address"
        },
        {
          "internalType": "uint256",
          "name": "_fee",
          "type": "uint256"
        },
        {
          "internalType": "uint256",
          "name": "_jackpotContribution",
          "type": "uint256"
        },
        {
          "internalType": "address",
          "name": "_feeAddress",
          "type": "address"
        },
        {
          "internalType": "address",
          "name": "_jackpotAddress",
          "type": "address"
        },
        {
          "internalType": "uint256",
          "name": "_maxBet",
          "type": "uint256"
        }
      ],
      "name": "initialize",
      "outputs": [],
      "stateMutability": "nonpayable",
      "type": "function"
    },
    {
      "inputs": [],
      "name": "jackpotAddress",
      "outputs": [
        {
          "internalType": "address",
          "name": "",
          "type": "address"
        }
      ],
      "stateMutability": "view",
      "type": "function"
    },
    {
      "inputs": [],
      "name": "jackpotContribution",
      "outputs": [
        {
          "internalType": "uint256",
          "name": "",
          "type": "uint256"
        }
      ],
      "stateMutability": "view",
      "type": "function"
    },
    {
      "inputs": [],
      "name": "maxBet",
      "outputs": [
        {
          "internalType": "uint256",
          "name": "",
          "type": "uint256"
        }
      ],
      "stateMutability": "view",
      "type": "function"
    },
    {
      "inputs": [],
      "name": "nextRaceId",
      "outputs": [
        {
          "internalType": "uint256",
          "name": "",
          "type": "uint256"
        }
      ],
      "stateMutability": "view",
      "type": "function"
    },
    {
      "inputs": [
        {
          "internalType": "uint256",
          "name": "raceId",
          "type": "uint256"
        },
        {
          "internalType": "uint256[]",
          "name": "result",
          "type": "uint256[]"
        }
      ],
      "name": "odds",
      "outputs": [
        {
          "internalType": "uint256",
          "name": "",
          "type": "uint256"
        }
      ],
      "stateMutability": "view",
      "type": "function"
    },
    {
      "inputs": [],
      "name": "owner",
      "outputs": [
        {
          "internalType": "address",
          "name": "",
          "type": "address"
        }
      ],
      "stateMutability": "view",
      "type": "function"
    },
    {
      "inputs": [
        {
          "internalType": "uint256",
          "name": "betId",
          "type": "uint256"
        }
      ],
      "name": "payout",
      "outputs": [],
      "stateMutability": "nonpayable",
      "type": "function"
    },
    {
      "inputs": [
        {
          "internalType": "uint256",
          "name": "raceId",
          "type": "uint256"
        },
        {
          "internalType": "uint256[]",
          "name": "prediction",
          "type": "uint256[]"
        }
      ],
      "name": "placeBet",
      "outputs": [
        {
          "internalType": "uint256",
          "name": "betId",
          "type": "uint256"
        }
      ],
      "stateMutability": "payable",
      "type": "function"
    },
    {
      "inputs": [
        {
          "internalType": "uint256",
          "name": "",
          "type": "uint256"
        }
      ],
      "name": "race",
      "outputs": [
        {
          "internalType": "uint256",
          "name": "totalWagered",
          "type": "uint256"
        },
        {
          "internalType": "uint256",
          "name": "paid",
          "type": "uint256"
        },
        {
          "internalType": "uint256",
          "name": "result",
          "type": "uint256"
        },
        {
          "internalType": "uint256",
          "name": "requestId",
          "type": "uint256"
        }
      ],
      "stateMutability": "view",
      "type": "function"
    },
    {
      "inputs": [
        {
          "internalType": "uint256",
          "name": "raceId",
          "type": "uint256"
        }
      ],
      "name": "raceResult",
      "outputs": [
        {
          "internalType": "uint256[6]",
          "name": "",
          "type": "uint256[6]"
        }
      ],
      "stateMutability": "view",
      "type": "function"
    },
    {
      "inputs": [],
      "name": "randomProvider",
      "outputs": [
        {
          "internalType": "contract IRandomProvider",
          "name": "",
          "type": "address"
        }
      ],
      "stateMutability": "view",
      "type": "function"
    },
    {
      "inputs": [],
      "name": "renounceOwnership",
      "outputs": [],
      "stateMutability": "nonpayable",
      "type": "function"
    },
    {
      "inputs": [],
      "name": "rewarder",
      "outputs": [
        {
          "internalType": "contract IRewarder",
          "name": "",
          "type": "address"
        }
      ],
      "stateMutability": "view",
      "type": "function"
    },
    {
      "inputs": [],
      "name": "start",
      "outputs": [
        {
          "internalType": "uint256",
          "name": "",
          "type": "uint256"
        }
      ],
      "stateMutability": "view",
      "type": "function"
    },
    {
      "inputs": [
        {
          "internalType": "uint256",
          "name": "raceId",
          "type": "uint256"
        }
      ],
      "name": "startRace",
      "outputs": [],
      "stateMutability": "nonpayable",
      "type": "function"
    },
    {
      "inputs": [
        {
          "internalType": "address",
          "name": "newOwner",
          "type": "address"
        }
      ],
      "name": "transferOwnership",
      "outputs": [],
      "stateMutability": "nonpayable",
      "type": "function"
    },
    {
      "inputs": [
        {
          "internalType": "uint256",
          "name": "_maxBet",
          "type": "uint256"
        }
      ],
      "name": "updateMaxBet",
      "outputs": [],
      "stateMutability": "nonpayable",
      "type": "function"
    },
    {
      "inputs": [
        {
          "internalType": "address",
          "name": "_feeAddress",
          "type": "address"
        }
      ],
      "name": "updatePOLAddress",
      "outputs": [],
      "stateMutability": "nonpayable",
      "type": "function"
    },
    {
      "inputs": [
        {
          "internalType": "uint256",
          "name": "_fee",
          "type": "uint256"
        }
      ],
      "name": "updatePOLFee",
      "outputs": [],
      "stateMutability": "nonpayable",
      "type": "function"
    },
    {
      "inputs": [
        {
          "internalType": "address",
          "name": "_feeAddress",
          "type": "address"
        }
      ],
      "name": "updateRevenueAddress",
      "outputs": [],
      "stateMutability": "nonpayable",
      "type": "function"
    },
    {
      "inputs": [
        {
          "internalType": "uint256",
          "name": "_fee",
          "type": "uint256"
        }
      ],
      "name": "updateRevenueFee",
      "outputs": [],
      "stateMutability": "nonpayable",
      "type": "function"
    },
    {
      "inputs": [
        {
          "internalType": "contract IRewarder",
          "name": "_rewarder",
          "type": "address"
        }
      ],
      "name": "updateRewarder",
      "outputs": [],
      "stateMutability": "nonpayable",
      "type": "function"
    },
    {
      "inputs": [
        {
          "internalType": "address",
          "name": "user",
          "type": "address"
        },
        {
          "internalType": "uint256",
          "name": "betId",
          "type": "uint256"
        }
      ],
      "name": "userBet",
      "outputs": [
        {
          "components": [
            {
              "internalType": "uint256",
              "name": "raceId",
              "type": "uint256"
            },
            {
              "internalType": "uint256",
              "name": "amount",
              "type": "uint256"
            },
            {
              "internalType": "address",
              "name": "account",
              "type": "address"
            },
            {
              "internalType": "uint256[]",
              "name": "place",
              "type": "uint256[]"
            },
            {
              "internalType": "bool",
              "name": "paid",
              "type": "bool"
            }
          ],
          "internalType": "struct Exotic.Bet",
          "name": "",
          "type": "tuple"
        }
      ],
      "stateMutability": "view",
      "type": "function"
    },
    {
      "inputs": [
        {
          "internalType": "address",
          "name": "user",
          "type": "address"
        }
      ],
      "name": "userBetCount",
      "outputs": [
        {
          "internalType": "uint256",
          "name": "",
          "type": "uint256"
        }
      ],
      "stateMutability": "view",
      "type": "function"
    }
  ],
  "transactionHash": "0xae82c533a049937d1e125b063c62be63edb0518decbe6182b88ebe50e769cd4e",
  "args": [],
  "numDeployments": 7,
  "solcInputHash": "5773087edcfc25e36d078a8fc73ff0df",
  "bytecode": "0x608060405234801561001057600080fd5b506144eb806100206000396000f3fe6080604052600436106101e35760003560e01c8063b71455ee11610102578063dcc3e06e11610095578063f2fde38b11610064578063f2fde38b146106ea578063f408a23a14610713578063f846cabc14610750578063fdd2885914610790576101e3565b8063dcc3e06e14610640578063ddca3f431461066b578063e115234314610696578063ead50da3146106bf576101e3565b8063d3c4771b116100d1578063d3c4771b14610584578063d613b60d146105c1578063d8595d86146105ea578063d9b8fd8f14610615576101e3565b8063b71455ee1461049f578063b7dda85e146104dc578063be9a65551461051c578063d149221b14610547576101e3565b80636bc0b3ba1161017a57806397d147141161014957806397d14714146103fb578063a55cd51c14610424578063a655f29e1461044d578063af3645c414610476576101e3565b80636bc0b3ba14610363578063715018a61461038e5780638da5cb5b146103a55780638f46500e146103d0576101e3565b806330d14655116101b657806330d14655146102a2578063315aa38c146102d257806341275358146102fb5780634195ab8e14610326576101e3565b8063122d2d96146101e857806324d822bf146102115780632c48e8cd1461023a5780632e5b216814610277575b600080fd5b3480156101f457600080fd5b5061020f600480360381019061020a9190612f7b565b6107b9565b005b34801561021d57600080fd5b5061023860048036038101906102339190613035565b610932565b005b34801561024657600080fd5b50610261600480360381019061025c919061308f565b610b34565b60405161026e9190613ad2565b60405180910390f35b34801561028357600080fd5b5061028c610b72565b6040516102999190613ad2565b60405180910390f35b6102bc60048036038101906102b791906130e2565b610b78565b6040516102c99190613ad2565b60405180910390f35b3480156102de57600080fd5b506102f960048036038101906102f49190613142565b611291565b005b34801561030757600080fd5b50610310611418565b60405161031d919061379e565b60405180910390f35b34801561033257600080fd5b5061034d60048036038101906103489190612f3b565b61143e565b60405161035a9190613ab0565b60405180910390f35b34801561036f57600080fd5b50610378611595565b604051610385919061379e565b60405180910390f35b34801561039a57600080fd5b506103a36115bb565b005b3480156103b157600080fd5b506103ba611643565b6040516103c7919061379e565b60405180910390f35b3480156103dc57600080fd5b506103e561166d565b6040516103f2919061381f565b60405180910390f35b34801561040757600080fd5b50610422600480360381019061041d9190613008565b611693565b005b34801561043057600080fd5b5061044b60048036038101906104469190613035565b611796565b005b34801561045957600080fd5b50610474600480360381019061046f9190613035565b611855565b005b34801561048257600080fd5b5061049d60048036038101906104989190612f0e565b611912565b005b3480156104ab57600080fd5b506104c660048036038101906104c19190613035565b611a85565b6040516104d39190613804565b60405180910390f35b3480156104e857600080fd5b5061050360048036038101906104fe9190613035565b611d31565b6040516105139493929190613bd9565b60405180910390f35b34801561052857600080fd5b50610531611d61565b60405161053e9190613ad2565b60405180910390f35b34801561055357600080fd5b5061056e60048036038101906105699190613142565b611d67565b60405161057b9190613ad2565b60405180910390f35b34801561059057600080fd5b506105ab60048036038101906105a69190612f3b565b611efa565b6040516105b891906137e2565b60405180910390f35b3480156105cd57600080fd5b506105e860048036038101906105e39190613035565b6121a5565b005b3480156105f657600080fd5b506105ff612262565b60405161060c9190613ad2565b60405180910390f35b34801561062157600080fd5b5061062a612268565b6040516106379190613ad2565b60405180910390f35b34801561064c57600080fd5b50610655612293565b604051610662919061383a565b60405180910390f35b34801561067757600080fd5b506106806122b9565b60405161068d9190613ad2565b60405180910390f35b3480156106a257600080fd5b506106bd60048036038101906106b89190613035565b6122bf565b005b3480156106cb57600080fd5b506106d46125dc565b6040516106e19190613ad2565b60405180910390f35b3480156106f657600080fd5b50610711600480360381019061070c9190612f0e565b6125e1565b005b34801561071f57600080fd5b5061073a60048036038101906107359190612f0e565b6126d9565b6040516107479190613ad2565b60405180910390f35b34801561075c57600080fd5b5061077760048036038101906107729190612f3b565b612725565b6040516107879493929190613b94565b60405180910390f35b34801561079c57600080fd5b506107b760048036038101906107b29190612f0e565b61279f565b005b60006107c56001612912565b905080156107e9576001600060016101000a81548160ff0219169083151502179055505b4260678190555086606560006101000a81548173ffffffffffffffffffffffffffffffffffffffff021916908373ffffffffffffffffffffffffffffffffffffffff160217905550856068819055508460698190555083606a60006101000a81548173ffffffffffffffffffffffffffffffffffffffff021916908373ffffffffffffffffffffffffffffffffffffffff16021790555082606b60006101000a81548173ffffffffffffffffffffffffffffffffffffffff021916908373ffffffffffffffffffffffffffffffffffffffff16021790555081606c819055506108d0612a02565b80156109295760008060016101000a81548160ff0219169083151502179055507f7f26b83ff96e1f2b6a682f133852f6798a09c465da95921460cefb384740249860016040516109209190613855565b60405180910390a15b50505050505050565b61093b81612a5b565b60b4816109489190613d5d565b4211610989576040517f08c379a000000000000000000000000000000000000000000000000000000000815260040161098090613990565b60405180910390fd5b6000606e6000838152602001908152602001600020905060008160030154146109e7576040517f08c379a00000000000000000000000000000000000000000000000000000000081526004016109de906139d0565b60405180910390fd5b6000816002015414610a2e576040517f08c379a0000000000000000000000000000000000000000000000000000000008152600401610a2590613a30565b60405180910390fd5b6000606560009054906101000a900473ffffffffffffffffffffffffffffffffffffffff1673ffffffffffffffffffffffffffffffffffffffff1663e0c862896040518163ffffffff1660e01b8152600401602060405180830381600087803b158015610a9a57600080fd5b505af1158015610aae573d6000803e3d6000fd5b505050506040513d601f19601f82011682018060405250810190610ad29190613062565b9050808260030181905550826070600083815260200190815260200160002081905550827f727aed3ef5e1b948e78407c8b942fb3193ebc5901b4bc951faa6568c90b78495606654604051610b279190613ad2565b60405180910390a2505050565b60716020528260005260406000206020528160005260406000208181548110610b5c57600080fd5b9060005260206000200160009250925050505481565b606c5481565b6000610b8384612a5b565b60018383905014610bc9576040517f08c379a0000000000000000000000000000000000000000000000000000000008152600401610bc090613930565b60405180910390fd5b600061271060685434610bdc9190613de4565b610be69190613db3565b9050600061271060695434610bfb9190613de4565b610c059190613db3565b905060008183610c159190613d5d565b34610c209190613e3e565b9050606c54811115610c67576040517f08c379a0000000000000000000000000000000000000000000000000000000008152600401610c5e90613890565b60405180910390fd5b610c6f612cf3565b878160000181815250508181602001818152505033816040019073ffffffffffffffffffffffffffffffffffffffff16908173ffffffffffffffffffffffffffffffffffffffff1681525050606f60003373ffffffffffffffffffffffffffffffffffffffff1673ffffffffffffffffffffffffffffffffffffffff168152602001908152602001600020819080600181540180825580915050600190039060005260206000209060050201600090919091909150600082015181600001556020820151816001015560408201518160020160006101000a81548173ffffffffffffffffffffffffffffffffffffffff021916908373ffffffffffffffffffffffffffffffffffffffff1602179055506060820151816003019080519060200190610d9b929190612d3a565b5060808201518160040160006101000a81548160ff0219169083151502179055505050606f60003373ffffffffffffffffffffffffffffffffffffffff1673ffffffffffffffffffffffffffffffffffffffff1681526020019081526020016000206001606f60003373ffffffffffffffffffffffffffffffffffffffff1673ffffffffffffffffffffffffffffffffffffffff16815260200190815260200160002080549050610e4c9190613e3e565b81548110610e5d57610e5c61406f565b5b906000526020600020906005020160030187876000818110610e8257610e8161406f565b5b9050602002013590806001815401808255809150506001900390600052602060002001600090919091909150556000606e60008a81526020019081526020016000209050828160040189896000818110610edf57610ede61406f565b5b9050602002013560068110610ef757610ef661406f565b5b016000828254610f079190613d5d565b9250508190555082816000016000828254610f229190613d5d565b925050819055508260666000828254610f3b9190613d5d565b925050819055503373ffffffffffffffffffffffffffffffffffffffff16897fed7146643be17948fcb4400f9980c37ef3404baf91823ef51782e2c6673266f6858b8b606654604051610f919493929190613aed565b60405180910390a34260b48a610fa79190613d5d565b1015610fb757610fb689610932565b5b600073ffffffffffffffffffffffffffffffffffffffff16606d60009054906101000a900473ffffffffffffffffffffffffffffffffffffffff1673ffffffffffffffffffffffffffffffffffffffff161461109d57606d60009054906101000a900473ffffffffffffffffffffffffffffffffffffffff1673ffffffffffffffffffffffffffffffffffffffff16639feb8f5033346040518363ffffffff1660e01b815260040161106a9291906137b9565b600060405180830381600087803b15801561108457600080fd5b505af1158015611098573d6000803e3d6000fd5b505050505b606a60009054906101000a900473ffffffffffffffffffffffffffffffffffffffff1673ffffffffffffffffffffffffffffffffffffffff166108fc869081150290604051600060405180830381858888f19350505050158015611105573d6000803e3d6000fd5b50606b60009054906101000a900473ffffffffffffffffffffffffffffffffffffffff1673ffffffffffffffffffffffffffffffffffffffff166108fc859081150290604051600060405180830381858888f1935050505015801561116e573d6000803e3d6000fd5b50607160008a815260200190815260200160002060003373ffffffffffffffffffffffffffffffffffffffff1673ffffffffffffffffffffffffffffffffffffffff1681526020019081526020016000206001606f60003373ffffffffffffffffffffffffffffffffffffffff1673ffffffffffffffffffffffffffffffffffffffff1681526020019081526020016000208054905061120e9190613e3e565b90806001815401808255809150506001900390600052602060002001600090919091909150556001606f60003373ffffffffffffffffffffffffffffffffffffffff1673ffffffffffffffffffffffffffffffffffffffff168152602001908152602001600020805490506112839190613e3e565b955050505050509392505050565b606560009054906101000a900473ffffffffffffffffffffffffffffffffffffffff1673ffffffffffffffffffffffffffffffffffffffff163373ffffffffffffffffffffffffffffffffffffffff1614611321576040517f08c379a0000000000000000000000000000000000000000000000000000000008152600401611318906138d0565b60405180910390fd5b6000607060008481526020019081526020016000205490506000606e600083815260200190815260200160002090506000816002015414611397576040517f08c379a000000000000000000000000000000000000000000000000000000000815260040161138e90613870565b60405180910390fd5b826000815181106113ab576113aa61406f565b5b60200260200101518160020181905550817f7554ff21c11af92d9ed24a3625daa96a85ebe3a0a3c44c44cb080cb400c42d98606654856000815181106113f4576113f361406f565b5b602002602001015160405161140a929190613b6b565b60405180910390a250505050565b606a60009054906101000a900473ffffffffffffffffffffffffffffffffffffffff1681565b611446612cf3565b606f60008473ffffffffffffffffffffffffffffffffffffffff1673ffffffffffffffffffffffffffffffffffffffff16815260200190815260200160002082815481106114975761149661406f565b5b90600052602060002090600502016040518060a001604052908160008201548152602001600182015481526020016002820160009054906101000a900473ffffffffffffffffffffffffffffffffffffffff1673ffffffffffffffffffffffffffffffffffffffff1673ffffffffffffffffffffffffffffffffffffffff1681526020016003820180548060200260200160405190810160405280929190818152602001828054801561156957602002820191906000526020600020905b815481526020019060010190808311611555575b505050505081526020016004820160009054906101000a900460ff161515151581525050905092915050565b606b60009054906101000a900473ffffffffffffffffffffffffffffffffffffffff1681565b6115c3612ba1565b73ffffffffffffffffffffffffffffffffffffffff166115e1611643565b73ffffffffffffffffffffffffffffffffffffffff1614611637576040517f08c379a000000000000000000000000000000000000000000000000000000000815260040161162e906139b0565b60405180910390fd5b6116416000612ba9565b565b6000603360009054906101000a900473ffffffffffffffffffffffffffffffffffffffff16905090565b606560009054906101000a900473ffffffffffffffffffffffffffffffffffffffff1681565b61169b612ba1565b73ffffffffffffffffffffffffffffffffffffffff166116b9611643565b73ffffffffffffffffffffffffffffffffffffffff161461170f576040517f08c379a0000000000000000000000000000000000000000000000000000000008152600401611706906139b0565b60405180910390fd5b80606d60006101000a81548173ffffffffffffffffffffffffffffffffffffffff021916908373ffffffffffffffffffffffffffffffffffffffff1602179055508073ffffffffffffffffffffffffffffffffffffffff167f47c9042c3be42a955f60f9b75006522826af1a3bed83e26646997d3bcccda77c60405160405180910390a250565b61179e612ba1565b73ffffffffffffffffffffffffffffffffffffffff166117bc611643565b73ffffffffffffffffffffffffffffffffffffffff1614611812576040517f08c379a0000000000000000000000000000000000000000000000000000000008152600401611809906139b0565b60405180910390fd5b80606c819055507f2b47c83dfa951a422411b397c029d005c87d9fa8fe9f6d2bc2620c23e5e00312606c5460405161184a9190613ad2565b60405180910390a150565b61185d612ba1565b73ffffffffffffffffffffffffffffffffffffffff1661187b611643565b73ffffffffffffffffffffffffffffffffffffffff16146118d1576040517f08c379a00000000000000000000000000000000000000000000000000000000081526004016118c8906139b0565b60405180910390fd5b806068819055507f14a368a696aca40efd280b31b2896f421c8a75eb772f8de1731eb220735395c6816040516119079190613ad2565b60405180910390a150565b61191a612ba1565b73ffffffffffffffffffffffffffffffffffffffff16611938611643565b73ffffffffffffffffffffffffffffffffffffffff161461198e576040517f08c379a0000000000000000000000000000000000000000000000000000000008152600401611985906139b0565b60405180910390fd5b600073ffffffffffffffffffffffffffffffffffffffff168173ffffffffffffffffffffffffffffffffffffffff1614156119fe576040517f08c379a00000000000000000000000000000000000000000000000000000000081526004016119f590613910565b60405180910390fd5b80606b60006101000a81548173ffffffffffffffffffffffffffffffffffffffff021916908373ffffffffffffffffffffffffffffffffffffffff1602179055508073ffffffffffffffffffffffffffffffffffffffff167f5dc8a57b462a8fae72fded55639269f100cfd12e046986a8ef490d56d5edcbf760405160405180910390a250565b611a8d612d87565b6000606e60008481526020019081526020016000206040518060a00160405290816000820154815260200160018201548152602001600282015481526020016003820154815260200160048201600680602002604051908101604052809291908260068015611b11576020028201915b815481526020019060010190808311611afd575b5050505050815250509050600081604001511415611b64576040517f08c379a0000000000000000000000000000000000000000000000000000000008152600401611b5b90613a70565b60405180910390fd5b60008082608001519050600091505b6006821015611bbc576001818360068110611b9157611b9061406f565b5b60200201818151611ba29190613d5d565b915081815250508180611bb490613f97565b925050611b73565b60008092505b6006831015611c075783608001518360068110611be257611be161406f565b5b602002015181611bf29190613d5d565b90508280611bff90613f97565b935050611bc2565b611c0f612d87565b600080600095505b6006861015611d22576000841415611c325760009050611c45565b838760400151611c429190613fe0565b90505b600091505b6006821015611d0f5780858360068110611c6757611c6661406f565b5b60200201511115611cd757848260068110611c8557611c8461406f565b5b602002015184611c959190613e3e565b93506000858360068110611cac57611cab61406f565b5b60200201818152505081838760068110611cc957611cc861406f565b5b602002018181525050611d0f565b848260068110611cea57611ce961406f565b5b602002015181611cfa9190613e3e565b90508180611d0790613f97565b925050611c4a565b8580611d1a90613f97565b965050611c17565b82975050505050505050919050565b606e6020528060005260406000206000915090508060000154908060010154908060020154908060030154905084565b60675481565b600080606e60008581526020019081526020016000206040518060a00160405290816000820154815260200160018201548152602001600282015481526020016003820154815260200160048201600680602002604051908101604052809291908260068015611dec576020028201915b815481526020019060010190808311611dd8575b50505050508152505090506001835114611e3b576040517f08c379a0000000000000000000000000000000000000000000000000000000008152600401611e3290613930565b60405180910390fd5b600080600090505b6006811015611e885782608001518160068110611e6357611e6261406f565b5b602002015182611e739190613d5d565b91508080611e8090613f97565b915050611e43565b6000821415611e9c57819350505050611ef4565b816402540be400846080015187600081518110611ebc57611ebb61406f565b5b602002602001015160068110611ed557611ed461406f565b5b6020020151611ee49190613de4565b611eee9190613db3565b93505050505b92915050565b606060006071600084815260200190815260200160002060008573ffffffffffffffffffffffffffffffffffffffff1673ffffffffffffffffffffffffffffffffffffffff168152602001908152602001600020805480602002602001604051908101604052809291908181526020018280548015611f9857602002820191906000526020600020905b815481526020019060010190808311611f84575b50505050509050600080825167ffffffffffffffff811115611fbd57611fbc61409e565b5b604051908082528060200260200182016040528015611ff657816020015b611fe3612cf3565b815260200190600190039081611fdb5790505b509050600091505b825182101561219957606f60008773ffffffffffffffffffffffffffffffffffffffff1673ffffffffffffffffffffffffffffffffffffffff1681526020019081526020016000208383815181106120595761205861406f565b5b6020026020010151815481106120725761207161406f565b5b90600052602060002090600502016040518060a001604052908160008201548152602001600182015481526020016002820160009054906101000a900473ffffffffffffffffffffffffffffffffffffffff1673ffffffffffffffffffffffffffffffffffffffff1673ffffffffffffffffffffffffffffffffffffffff1681526020016003820180548060200260200160405190810160405280929190818152602001828054801561214457602002820191906000526020600020905b815481526020019060010190808311612130575b505050505081526020016004820160009054906101000a900460ff16151515158152505081838151811061217b5761217a61406f565b5b6020026020010181905250818061219190613f97565b925050611ffe565b80935050505092915050565b6121ad612ba1565b73ffffffffffffffffffffffffffffffffffffffff166121cb611643565b73ffffffffffffffffffffffffffffffffffffffff1614612221576040517f08c379a0000000000000000000000000000000000000000000000000000000008152600401612218906139b0565b60405180910390fd5b806069819055507f9afc1b03107862b2aabd5adaf9bf3a6c054623803995901416d64d2ac86ed01d816040516122579190613ad2565b60405180910390a150565b60695481565b600060b4426122779190613fe0565b60b46122839190613e3e565b4261228e9190613d5d565b905090565b606d60009054906101000a900473ffffffffffffffffffffffffffffffffffffffff1681565b60685481565b6000606f60003373ffffffffffffffffffffffffffffffffffffffff1673ffffffffffffffffffffffffffffffffffffffff16815260200190815260200160002082815481106123125761231161406f565b5b906000526020600020906005020190506000606e6000836000015481526020019081526020016000209050600081600201541415612385576040517f08c379a000000000000000000000000000000000000000000000000000000000815260040161237c90613990565b60405180910390fd5b8160040160009054906101000a900460ff16156123d7576040517f08c379a00000000000000000000000000000000000000000000000000000000081526004016123ce90613a90565b60405180910390fd5b60006123e68360000154611a85565b905060005b83600301805490508110156124545781816006811061240d5761240c61406f565b5b60200201518460030182815481106124285761242761406f565b5b90600052602060002001541461244157505050506125d9565b808061244c90613f97565b9150506123eb565b60006124b68560000154866003018054806020026020016040519081016040528092919081815260200182805480156124ac57602002820191906000526020600020905b815481526020019060010190808311612498575b5050505050611d67565b90506000816402540be40087600101546124d09190613de4565b6124da9190613db3565b905060018660040160006101000a81548160ff0219169083151502179055508085600101600082825461250d9190613d5d565b9250508190555080606660008282546125269190613e3e565b925050819055503373ffffffffffffffffffffffffffffffffffffffff1686600001547fef0068ac9e6ad3b19d182459af297eb4d144e7721b87c619278bed0fcd0bd5dc8860010154896003018560405161258393929190613b2d565b60405180910390a33373ffffffffffffffffffffffffffffffffffffffff166108fc829081150290604051600060405180830381858888f193505050501580156125d1573d6000803e3d6000fd5b505050505050505b50565b60b481565b6125e9612ba1565b73ffffffffffffffffffffffffffffffffffffffff16612607611643565b73ffffffffffffffffffffffffffffffffffffffff161461265d576040517f08c379a0000000000000000000000000000000000000000000000000000000008152600401612654906139b0565b60405180910390fd5b600073ffffffffffffffffffffffffffffffffffffffff168173ffffffffffffffffffffffffffffffffffffffff1614156126cd576040517f08c379a00000000000000000000000000000000000000000000000000000000081526004016126c4906138b0565b60405180910390fd5b6126d681612ba9565b50565b6000606f60008373ffffffffffffffffffffffffffffffffffffffff1673ffffffffffffffffffffffffffffffffffffffff168152602001908152602001600020805490509050919050565b606f602052816000526040600020818154811061274157600080fd5b9060005260206000209060050201600091509150508060000154908060010154908060020160009054906101000a900473ffffffffffffffffffffffffffffffffffffffff16908060040160009054906101000a900460ff16905084565b6127a7612ba1565b73ffffffffffffffffffffffffffffffffffffffff166127c5611643565b73ffffffffffffffffffffffffffffffffffffffff161461281b576040517f08c379a0000000000000000000000000000000000000000000000000000000008152600401612812906139b0565b60405180910390fd5b600073ffffffffffffffffffffffffffffffffffffffff168173ffffffffffffffffffffffffffffffffffffffff16141561288b576040517f08c379a000000000000000000000000000000000000000000000000000000000815260040161288290613910565b60405180910390fd5b80606a60006101000a81548173ffffffffffffffffffffffffffffffffffffffff021916908373ffffffffffffffffffffffffffffffffffffffff1602179055508073ffffffffffffffffffffffffffffffffffffffff167f12c87c4c1bec313f335ef0060b241de51ec549e8c57a25aae98da2ad10837cde60405160405180910390a250565b60008060019054906101000a900460ff16156129895760018260ff16148015612941575061293f30612c6f565b155b612980576040517f08c379a000000000000000000000000000000000000000000000000000000000815260040161297790613970565b60405180910390fd5b600090506129fd565b8160ff1660008054906101000a900460ff1660ff16106129de576040517f08c379a00000000000000000000000000000000000000000000000000000000081526004016129d590613970565b60405180910390fd5b816000806101000a81548160ff021916908360ff160217905550600190505b919050565b600060019054906101000a900460ff16612a51576040517f08c379a0000000000000000000000000000000000000000000000000000000008152600401612a4890613a50565b60405180910390fd5b612a59612c92565b565b600060b482612a6a9190613fe0565b14612aaa576040517f08c379a0000000000000000000000000000000000000000000000000000000008152600401612aa190613a10565b60405180910390fd5b606754811015612aef576040517f08c379a0000000000000000000000000000000000000000000000000000000008152600401612ae6906138f0565b60405180910390fd5b6000606e60008381526020019081526020016000206002015414612b48576040517f08c379a0000000000000000000000000000000000000000000000000000000008152600401612b3f906139f0565b60405180910390fd5b6000607060008381526020019081526020016000205414612b9e576040517f08c379a0000000000000000000000000000000000000000000000000000000008152600401612b9590613950565b60405180910390fd5b50565b600033905090565b6000603360009054906101000a900473ffffffffffffffffffffffffffffffffffffffff16905081603360006101000a81548173ffffffffffffffffffffffffffffffffffffffff021916908373ffffffffffffffffffffffffffffffffffffffff1602179055508173ffffffffffffffffffffffffffffffffffffffff168173ffffffffffffffffffffffffffffffffffffffff167f8be0079c531659141344cd1fd0a4f28419497f9722a3daafe3b4186f6b6457e060405160405180910390a35050565b6000808273ffffffffffffffffffffffffffffffffffffffff163b119050919050565b600060019054906101000a900460ff16612ce1576040517f08c379a0000000000000000000000000000000000000000000000000000000008152600401612cd890613a50565b60405180910390fd5b612cf1612cec612ba1565b612ba9565b565b6040518060a001604052806000815260200160008152602001600073ffffffffffffffffffffffffffffffffffffffff168152602001606081526020016000151581525090565b828054828255906000526020600020908101928215612d76579160200282015b82811115612d75578251825591602001919060010190612d5a565b5b509050612d839190612da9565b5090565b6040518060c00160405280600690602082028036833780820191505090505090565b5b80821115612dc2576000816000905550600101612daa565b5090565b6000612dd9612dd484613c43565b613c1e565b90508083825260208201905082856020860282011115612dfc57612dfb6140ea565b5b60005b85811015612e2c5781612e128882612ee4565b845260208401935060208301925050600181019050612dff565b5050509392505050565b600081359050612e4581614470565b92915050565b60008083601f840112612e6157612e606140e5565b5b8235905067ffffffffffffffff811115612e7e57612e7d6140e0565b5b602083019150836020820283011115612e9a57612e996140ea565b5b9250929050565b600082601f830112612eb657612eb56140e5565b5b8135612ec6848260208601612dc6565b91505092915050565b600081359050612ede81614487565b92915050565b600081359050612ef38161449e565b92915050565b600081519050612f088161449e565b92915050565b600060208284031215612f2457612f236140f9565b5b6000612f3284828501612e36565b91505092915050565b60008060408385031215612f5257612f516140f9565b5b6000612f6085828601612e36565b9250506020612f7185828601612ee4565b9150509250929050565b60008060008060008060c08789031215612f9857612f976140f9565b5b6000612fa689828a01612e36565b9650506020612fb789828a01612ee4565b9550506040612fc889828a01612ee4565b9450506060612fd989828a01612e36565b9350506080612fea89828a01612e36565b92505060a0612ffb89828a01612ee4565b9150509295509295509295565b60006020828403121561301e5761301d6140f9565b5b600061302c84828501612ecf565b91505092915050565b60006020828403121561304b5761304a6140f9565b5b600061305984828501612ee4565b91505092915050565b600060208284031215613078576130776140f9565b5b600061308684828501612ef9565b91505092915050565b6000806000606084860312156130a8576130a76140f9565b5b60006130b686828701612ee4565b93505060206130c786828701612e36565b92505060406130d886828701612ee4565b9150509250925092565b6000806000604084860312156130fb576130fa6140f9565b5b600061310986828701612ee4565b935050602084013567ffffffffffffffff81111561312a576131296140ef565b5b61313686828701612e4b565b92509250509250925092565b60008060408385031215613159576131586140f9565b5b600061316785828601612ee4565b925050602083013567ffffffffffffffff811115613188576131876140ef565b5b61319485828601612ea1565b9150509250929050565b60006131aa8383613694565b905092915050565b60006131be8383613780565b60208301905092915050565b6131d381613e7c565b82525050565b6131e281613e7c565b82525050565b60006131f382613cae565b6131fd8185613d0e565b93508360208202850161320f85613c6f565b8060005b8581101561324b578484038952815161322c858261319e565b945061323783613cda565b925060208a01995050600181019050613213565b50829750879550505050505092915050565b61326681613cb9565b6132708184613d1f565b925061327b82613c7f565b8060005b838110156132ac57815161329387826131b2565b965061329e83613ce7565b92505060018101905061327f565b505050505050565b60006132c08385613d3b565b93507f07ffffffffffffffffffffffffffffffffffffffffffffffffffffffffffffff8311156132f3576132f26140f4565b5b602083029250613304838584613f3d565b82840190509392505050565b600061331b82613cc4565b6133258185613d2a565b935061333083613c89565b8060005b8381101561336157815161334888826131b2565b975061335383613cf4565b925050600181019050613334565b5085935050505092915050565b600061337982613ccf565b6133838185613d3b565b935061338e83613c99565b8060005b838110156133c6576133a3826140cd565b6133ad88826131b2565b97506133b883613d01565b925050600181019050613392565b5085935050505092915050565b6133dc81613e8e565b82525050565b6133eb81613e8e565b82525050565b6133fa81613ee3565b82525050565b61340981613ef5565b82525050565b61341881613f07565b82525050565b600061342b601c83613d4c565b91506134368261411c565b602082019050919050565b600061344e601683613d4c565b915061345982614145565b602082019050919050565b6000613471602683613d4c565b915061347c8261416e565b604082019050919050565b6000613494601a83613d4c565b915061349f826141bd565b602082019050919050565b60006134b7601683613d4c565b91506134c2826141e6565b602082019050919050565b60006134da601683613d4c565b91506134e58261420f565b602082019050919050565b60006134fd602083613d4c565b915061350882614238565b602082019050919050565b6000613520600d83613d4c565b915061352b82614261565b602082019050919050565b6000613543602e83613d4c565b915061354e8261428a565b604082019050919050565b6000613566601183613d4c565b9150613571826142d9565b602082019050919050565b6000613589602083613d4c565b915061359482614302565b602082019050919050565b60006135ac601883613d4c565b91506135b78261432b565b602082019050919050565b60006135cf600d83613d4c565b91506135da82614354565b602082019050919050565b60006135f2600f83613d4c565b91506135fd8261437d565b602082019050919050565b6000613615601d83613d4c565b9150613620826143a6565b602082019050919050565b6000613638602b83613d4c565b9150613643826143cf565b604082019050919050565b600061365b601483613d4c565b91506136668261441e565b602082019050919050565b600061367e601083613d4c565b915061368982614447565b602082019050919050565b600060a0830160008301516136ac6000860182613780565b5060208301516136bf6020860182613780565b5060408301516136d260408601826131ca565b50606083015184820360608601526136ea8282613310565b91505060808301516136ff60808601826133d3565b508091505092915050565b600060a0830160008301516137226000860182613780565b5060208301516137356020860182613780565b50604083015161374860408601826131ca565b50606083015184820360608601526137608282613310565b915050608083015161377560808601826133d3565b508091505092915050565b61378981613ecc565b82525050565b61379881613ecc565b82525050565b60006020820190506137b360008301846131d9565b92915050565b60006040820190506137ce60008301856131d9565b6137db602083018461378f565b9392505050565b600060208201905081810360008301526137fc81846131e8565b905092915050565b600060c082019050613819600083018461325d565b92915050565b600060208201905061383460008301846133f1565b92915050565b600060208201905061384f6000830184613400565b92915050565b600060208201905061386a600083018461340f565b92915050565b600060208201905081810360008301526138898161341e565b9050919050565b600060208201905081810360008301526138a981613441565b9050919050565b600060208201905081810360008301526138c981613464565b9050919050565b600060208201905081810360008301526138e981613487565b9050919050565b60006020820190508181036000830152613909816134aa565b9050919050565b60006020820190508181036000830152613929816134cd565b9050919050565b60006020820190508181036000830152613949816134f0565b9050919050565b6000602082019050818103600083015261396981613513565b9050919050565b6000602082019050818103600083015261398981613536565b9050919050565b600060208201905081810360008301526139a981613559565b9050919050565b600060208201905081810360008301526139c98161357c565b9050919050565b600060208201905081810360008301526139e98161359f565b9050919050565b60006020820190508181036000830152613a09816135c2565b9050919050565b60006020820190508181036000830152613a29816135e5565b9050919050565b60006020820190508181036000830152613a4981613608565b9050919050565b60006020820190508181036000830152613a698161362b565b9050919050565b60006020820190508181036000830152613a898161364e565b9050919050565b60006020820190508181036000830152613aa981613671565b9050919050565b60006020820190508181036000830152613aca818461370a565b905092915050565b6000602082019050613ae7600083018461378f565b92915050565b6000606082019050613b02600083018761378f565b8181036020830152613b158185876132b4565b9050613b24604083018461378f565b95945050505050565b6000606082019050613b42600083018661378f565b8181036020830152613b54818561336e565b9050613b63604083018461378f565b949350505050565b6000604082019050613b80600083018561378f565b613b8d602083018461378f565b9392505050565b6000608082019050613ba9600083018761378f565b613bb6602083018661378f565b613bc360408301856131d9565b613bd060608301846133e2565b95945050505050565b6000608082019050613bee600083018761378f565b613bfb602083018661378f565b613c08604083018561378f565b613c15606083018461378f565b95945050505050565b6000613c28613c39565b9050613c348282613f66565b919050565b6000604051905090565b600067ffffffffffffffff821115613c5e57613c5d61409e565b5b602082029050602081019050919050565b6000819050602082019050919050565b6000819050919050565b6000819050602082019050919050565b60008190508160005260206000209050919050565b600081519050919050565b600060069050919050565b600081519050919050565b600081549050919050565b6000602082019050919050565b6000602082019050919050565b6000602082019050919050565b6000600182019050919050565b600082825260208201905092915050565b600081905092915050565b600082825260208201905092915050565b600082825260208201905092915050565b600082825260208201905092915050565b6000613d6882613ecc565b9150613d7383613ecc565b9250827fffffffffffffffffffffffffffffffffffffffffffffffffffffffffffffffff03821115613da857613da7614011565b5b828201905092915050565b6000613dbe82613ecc565b9150613dc983613ecc565b925082613dd957613dd8614040565b5b828204905092915050565b6000613def82613ecc565b9150613dfa83613ecc565b9250817fffffffffffffffffffffffffffffffffffffffffffffffffffffffffffffffff0483118215151615613e3357613e32614011565b5b828202905092915050565b6000613e4982613ecc565b9150613e5483613ecc565b925082821015613e6757613e66614011565b5b828203905092915050565b6000819050919050565b6000613e8782613eac565b9050919050565b60008115159050919050565b6000613ea582613e7c565b9050919050565b600073ffffffffffffffffffffffffffffffffffffffff82169050919050565b6000819050919050565b600060ff82169050919050565b6000613eee82613f19565b9050919050565b6000613f0082613f19565b9050919050565b6000613f1282613ed6565b9050919050565b6000613f2482613f2b565b9050919050565b6000613f3682613eac565b9050919050565b82818337600083830152505050565b6000613f5f613f5a8361410f565b613e72565b9050919050565b613f6f826140fe565b810181811067ffffffffffffffff82111715613f8e57613f8d61409e565b5b80604052505050565b6000613fa282613ecc565b91507fffffffffffffffffffffffffffffffffffffffffffffffffffffffffffffffff821415613fd557613fd4614011565b5b600182019050919050565b6000613feb82613ecc565b9150613ff683613ecc565b92508261400657614005614040565b5b828206905092915050565b7f4e487b7100000000000000000000000000000000000000000000000000000000600052601160045260246000fd5b7f4e487b7100000000000000000000000000000000000000000000000000000000600052601260045260246000fd5b7f4e487b7100000000000000000000000000000000000000000000000000000000600052603260045260246000fd5b7f4e487b7100000000000000000000000000000000000000000000000000000000600052604160045260246000fd5b60006140d98254613f4c565b9050919050565b600080fd5b600080fd5b600080fd5b600080fd5b600080fd5b600080fd5b6000601f19601f8301169050919050565b60008160001c9050919050565b7f52616e646f6d6e65737320616c72656164792066756c66696c6c656400000000600082015250565b7f4265742061626f7665206d6178426574206c696d697400000000000000000000600082015250565b7f4f776e61626c653a206e6577206f776e657220697320746865207a65726f206160008201527f6464726573730000000000000000000000000000000000000000000000000000602082015250565b7f4e6f7420416c6c6f7765642072616e646f6d50726f7669646572000000000000600082015250565b7f4c6976696e6720696e2074686520706173742062726f00000000000000000000600082015250565b7f46656520616464726573732063616e2774206265203000000000000000000000600082015250565b7f4f6e6c792077696e206265742063757272656e746c7920737570706f72746564600082015250565b7f526163652066696e6973696e6700000000000000000000000000000000000000600082015250565b7f496e697469616c697a61626c653a20636f6e747261637420697320616c72656160008201527f647920696e697469616c697a6564000000000000000000000000000000000000602082015250565b7f52616365206e6f742066696e6973686564000000000000000000000000000000600082015250565b7f4f776e61626c653a2063616c6c6572206973206e6f7420746865206f776e6572600082015250565b7f526573756c7420616c7265616479207265717565737465640000000000000000600082015250565b7f526163652066696e697368656400000000000000000000000000000000000000600082015250565b7f496e76616c696420726163652049440000000000000000000000000000000000600082015250565b7f5261636520726573756c7420616c72656164792066756c66696c6c6564000000600082015250565b7f496e697469616c697a61626c653a20636f6e7472616374206973206e6f74206960008201527f6e697469616c697a696e67000000000000000000000000000000000000000000602082015250565b7f52616365206973206e6f742066696e6973686564000000000000000000000000600082015250565b7f42657420616c7265616479207061696400000000000000000000000000000000600082015250565b61447981613e7c565b811461448457600080fd5b50565b61449081613e9a565b811461449b57600080fd5b50565b6144a781613ecc565b81146144b257600080fd5b5056fea2646970667358221220a6bb8cb7b1c182b106f098d5164c675b547300b7f3e31722e26c7335b96cda5b64736f6c63430008070033",
  "devdoc": {
    "kind": "dev",
    "methods": {
      "owner()": {
        "details": "Returns the address of the current owner."
      },
      "renounceOwnership()": {
        "details": "Leaves the contract without owner. It will not be possible to call `onlyOwner` functions anymore. Can only be called by the current owner. NOTE: Renouncing ownership will leave the contract without an owner, thereby removing any functionality that is only available to the owner."
      },
      "transferOwnership(address)": {
        "details": "Transfers ownership of the contract to a new account (`newOwner`). Can only be called by the current owner."
      }
    },
    "title": "An betting game with exotic bet types",
    "version": 1
  },
  "userdoc": {
    "events": {
      "Payout(uint256,address,uint256,uint256[],uint256)": {
        "notice": "emitted when a bet is cashed out."
      },
      "RaceEnd(uint256,uint256,uint256)": {
        "notice": "emitted when a race ends."
      },
      "RaceStart(uint256,uint256)": {
        "notice": "emitted when a race starts."
      },
      "Wagered(uint256,address,uint256,uint256[],uint256)": {
        "notice": "emitted when a new bet is placed on a race."
      }
    },
    "kind": "user",
    "methods": {
      "bet(address,uint256)": {
        "notice": "mapping of address to list of bets."
      },
      "endRace(uint256,uint256[])": {
        "notice": "End the race and set the result."
      },
      "fee()": {
        "notice": "Fee paramaters."
      },
      "frequency()": {
        "notice": "How often races take place."
      },
      "nextRaceId()": {
        "notice": "The time of the next race to take place."
      },
      "odds(uint256,uint256[])": {
        "notice": "Get the current odds for a prediction."
      },
      "payout(uint256)": {
        "notice": "Cash out a winning bet."
      },
      "placeBet(uint256,uint256[])": {
        "notice": "Place a bet."
      },
      "race(uint256)": {
        "notice": "The state for each race."
      },
      "raceResult(uint256)": {
        "notice": "Return the results for a race."
      },
      "start()": {
        "notice": "The datetime of the first race."
      },
      "startRace(uint256)": {
        "notice": "Start the race and request result from VRF."
      },
      "userBet(address,uint256)": {
        "notice": "Returns a users bet with given id."
      },
      "userBetCount(address)": {
        "notice": "Return the amount of bets a user has made."
      }
    },
    "version": 1
  },
  "storageLayout": {
    "storage": [
      {
        "astId": 130,
        "contract": "contracts/Exotic.sol:Exotic",
        "label": "_initialized",
        "offset": 0,
        "slot": "0",
        "type": "t_uint8"
      },
      {
        "astId": 133,
        "contract": "contracts/Exotic.sol:Exotic",
        "label": "_initializing",
        "offset": 1,
        "slot": "0",
        "type": "t_bool"
      },
      {
        "astId": 549,
        "contract": "contracts/Exotic.sol:Exotic",
        "label": "__gap",
        "offset": 0,
        "slot": "1",
        "type": "t_array(t_uint256)50_storage"
      },
      {
        "astId": 10,
        "contract": "contracts/Exotic.sol:Exotic",
        "label": "_owner",
        "offset": 0,
        "slot": "51",
        "type": "t_address"
      },
      {
        "astId": 122,
        "contract": "contracts/Exotic.sol:Exotic",
        "label": "__gap",
        "offset": 0,
        "slot": "52",
        "type": "t_array(t_uint256)49_storage"
      },
      {
        "astId": 565,
        "contract": "contracts/Exotic.sol:Exotic",
        "label": "randomProvider",
        "offset": 0,
        "slot": "101",
        "type": "t_contract(IRandomProvider)1760"
      },
      {
        "astId": 567,
        "contract": "contracts/Exotic.sol:Exotic",
        "label": "balance",
        "offset": 0,
        "slot": "102",
        "type": "t_uint256"
      },
      {
        "astId": 574,
        "contract": "contracts/Exotic.sol:Exotic",
        "label": "start",
        "offset": 0,
        "slot": "103",
        "type": "t_uint256"
      },
      {
        "astId": 577,
        "contract": "contracts/Exotic.sol:Exotic",
        "label": "fee",
        "offset": 0,
        "slot": "104",
        "type": "t_uint256"
      },
      {
        "astId": 579,
        "contract": "contracts/Exotic.sol:Exotic",
        "label": "jackpotContribution",
        "offset": 0,
        "slot": "105",
        "type": "t_uint256"
      },
      {
        "astId": 581,
        "contract": "contracts/Exotic.sol:Exotic",
        "label": "feeAddress",
        "offset": 0,
        "slot": "106",
        "type": "t_address"
      },
      {
        "astId": 583,
        "contract": "contracts/Exotic.sol:Exotic",
        "label": "jackpotAddress",
        "offset": 0,
        "slot": "107",
        "type": "t_address"
      },
      {
        "astId": 585,
        "contract": "contracts/Exotic.sol:Exotic",
        "label": "maxBet",
        "offset": 0,
        "slot": "108",
        "type": "t_uint256"
      },
      {
        "astId": 588,
        "contract": "contracts/Exotic.sol:Exotic",
        "label": "rewarder",
        "offset": 0,
        "slot": "109",
        "type": "t_contract(IRewarder)1780"
      },
      {
        "astId": 619,
        "contract": "contracts/Exotic.sol:Exotic",
        "label": "race",
        "offset": 0,
        "slot": "110",
        "type": "t_mapping(t_uint256,t_struct(Race)613_storage)"
      },
      {
        "astId": 626,
        "contract": "contracts/Exotic.sol:Exotic",
        "label": "bet",
        "offset": 0,
        "slot": "111",
        "type": "t_mapping(t_address,t_array(t_struct(Bet)600_storage)dyn_storage)"
      },
      {
        "astId": 631,
        "contract": "contracts/Exotic.sol:Exotic",
        "label": "requestIdRace",
        "offset": 0,
        "slot": "112",
        "type": "t_mapping(t_uint256,t_uint256)"
      },
      {
        "astId": 638,
        "contract": "contracts/Exotic.sol:Exotic",
        "label": "betsPerRace",
        "offset": 0,
        "slot": "113",
        "type": "t_mapping(t_uint256,t_mapping(t_address,t_array(t_uint256)dyn_storage))"
      }
    ],
    "types": {
      "t_address": {
        "encoding": "inplace",
        "label": "address",
        "numberOfBytes": "20"
      },
      "t_array(t_struct(Bet)600_storage)dyn_storage": {
        "base": "t_struct(Bet)600_storage",
        "encoding": "dynamic_array",
        "label": "struct Exotic.Bet[]",
        "numberOfBytes": "32"
      },
      "t_array(t_uint256)49_storage": {
        "base": "t_uint256",
        "encoding": "inplace",
        "label": "uint256[49]",
        "numberOfBytes": "1568"
      },
      "t_array(t_uint256)50_storage": {
        "base": "t_uint256",
        "encoding": "inplace",
        "label": "uint256[50]",
        "numberOfBytes": "1600"
      },
      "t_array(t_uint256)6_storage": {
        "base": "t_uint256",
        "encoding": "inplace",
        "label": "uint256[6]",
        "numberOfBytes": "192"
      },
      "t_array(t_uint256)dyn_storage": {
        "base": "t_uint256",
        "encoding": "dynamic_array",
        "label": "uint256[]",
        "numberOfBytes": "32"
      },
      "t_bool": {
        "encoding": "inplace",
        "label": "bool",
        "numberOfBytes": "1"
      },
      "t_contract(IRandomProvider)1760": {
        "encoding": "inplace",
        "label": "contract IRandomProvider",
        "numberOfBytes": "20"
      },
      "t_contract(IRewarder)1780": {
        "encoding": "inplace",
        "label": "contract IRewarder",
        "numberOfBytes": "20"
      },
      "t_mapping(t_address,t_array(t_struct(Bet)600_storage)dyn_storage)": {
        "encoding": "mapping",
        "key": "t_address",
        "label": "mapping(address => struct Exotic.Bet[])",
        "numberOfBytes": "32",
        "value": "t_array(t_struct(Bet)600_storage)dyn_storage"
      },
      "t_mapping(t_address,t_array(t_uint256)dyn_storage)": {
        "encoding": "mapping",
        "key": "t_address",
        "label": "mapping(address => uint256[])",
        "numberOfBytes": "32",
        "value": "t_array(t_uint256)dyn_storage"
      },
      "t_mapping(t_uint256,t_mapping(t_address,t_array(t_uint256)dyn_storage))": {
        "encoding": "mapping",
        "key": "t_uint256",
        "label": "mapping(uint256 => mapping(address => uint256[]))",
        "numberOfBytes": "32",
        "value": "t_mapping(t_address,t_array(t_uint256)dyn_storage)"
      },
      "t_mapping(t_uint256,t_struct(Race)613_storage)": {
        "encoding": "mapping",
        "key": "t_uint256",
        "label": "mapping(uint256 => struct Exotic.Race)",
        "numberOfBytes": "32",
        "value": "t_struct(Race)613_storage"
      },
      "t_mapping(t_uint256,t_uint256)": {
        "encoding": "mapping",
        "key": "t_uint256",
        "label": "mapping(uint256 => uint256)",
        "numberOfBytes": "32",
        "value": "t_uint256"
      },
      "t_struct(Bet)600_storage": {
        "encoding": "inplace",
        "label": "struct Exotic.Bet",
        "members": [
          {
            "astId": 590,
            "contract": "contracts/Exotic.sol:Exotic",
            "label": "raceId",
            "offset": 0,
            "slot": "0",
            "type": "t_uint256"
          },
          {
            "astId": 592,
            "contract": "contracts/Exotic.sol:Exotic",
            "label": "amount",
            "offset": 0,
            "slot": "1",
            "type": "t_uint256"
          },
          {
            "astId": 594,
            "contract": "contracts/Exotic.sol:Exotic",
            "label": "account",
            "offset": 0,
            "slot": "2",
            "type": "t_address"
          },
          {
            "astId": 597,
            "contract": "contracts/Exotic.sol:Exotic",
            "label": "place",
            "offset": 0,
            "slot": "3",
            "type": "t_array(t_uint256)dyn_storage"
          },
          {
            "astId": 599,
            "contract": "contracts/Exotic.sol:Exotic",
            "label": "paid",
            "offset": 0,
            "slot": "4",
            "type": "t_bool"
          }
        ],
        "numberOfBytes": "160"
      },
      "t_struct(Race)613_storage": {
        "encoding": "inplace",
        "label": "struct Exotic.Race",
        "members": [
          {
            "astId": 602,
            "contract": "contracts/Exotic.sol:Exotic",
            "label": "totalWagered",
            "offset": 0,
            "slot": "0",
            "type": "t_uint256"
          },
          {
            "astId": 604,
            "contract": "contracts/Exotic.sol:Exotic",
            "label": "paid",
            "offset": 0,
            "slot": "1",
            "type": "t_uint256"
          },
          {
            "astId": 606,
            "contract": "contracts/Exotic.sol:Exotic",
            "label": "result",
            "offset": 0,
            "slot": "2",
            "type": "t_uint256"
          },
          {
            "astId": 608,
            "contract": "contracts/Exotic.sol:Exotic",
            "label": "requestId",
            "offset": 0,
            "slot": "3",
            "type": "t_uint256"
          },
          {
            "astId": 612,
            "contract": "contracts/Exotic.sol:Exotic",
            "label": "winWeights",
            "offset": 0,
            "slot": "4",
            "type": "t_array(t_uint256)6_storage"
          }
        ],
        "numberOfBytes": "320"
      },
      "t_uint256": {
        "encoding": "inplace",
        "label": "uint256",
        "numberOfBytes": "32"
      },
      "t_uint8": {
        "encoding": "inplace",
        "label": "uint8",
        "numberOfBytes": "1"
      }
    }
  }
}