{
  "address": "0x1f344F3d812A80dA7b5F1B56f3982C58A24eCf8b",
  "abi": [
    {
      "inputs": [
        {
          "internalType": "contract IExotic",
          "name": "_exotic",
          "type": "address"
        }
      ],
      "stateMutability": "nonpayable",
      "type": "constructor"
    },
    {
      "anonymous": false,
      "inputs": [
        {
          "indexed": true,
          "internalType": "address",
          "name": "previousOwner",
          "type": "address"
        },
        {
          "indexed": true,
          "internalType": "address",
          "name": "newOwner",
          "type": "address"
        }
      ],
      "name": "OwnershipTransferred",
      "type": "event"
    },
    {
      "inputs": [],
      "name": "exotic",
      "outputs": [
        {
          "internalType": "contract IExotic",
          "name": "",
          "type": "address"
        }
      ],
      "stateMutability": "view",
      "type": "function"
    },
    {
      "inputs": [],
      "name": "owner",
      "outputs": [
        {
          "internalType": "address",
          "name": "",
          "type": "address"
        }
      ],
      "stateMutability": "view",
      "type": "function"
    },
    {
      "inputs": [
        {
          "internalType": "uint256",
          "name": "raceId",
          "type": "uint256"
        }
      ],
      "name": "race",
      "outputs": [
        {
          "components": [
            {
              "internalType": "uint256",
              "name": "raceId",
              "type": "uint256"
            },
            {
              "internalType": "uint256",
              "name": "totalWagered",
              "type": "uint256"
            },
            {
              "internalType": "uint256",
              "name": "paid",
              "type": "uint256"
            },
            {
              "internalType": "uint256",
              "name": "result",
              "type": "uint256"
            },
            {
              "internalType": "uint256[6]",
              "name": "raceResult",
              "type": "uint256[6]"
            },
            {
              "internalType": "uint256",
              "name": "requestId",
              "type": "uint256"
            }
          ],
          "internalType": "struct RaceLens.FullRace",
          "name": "",
          "type": "tuple"
        }
      ],
      "stateMutability": "view",
      "type": "function"
    },
    {
      "inputs": [],
      "name": "renounceOwnership",
      "outputs": [],
      "stateMutability": "nonpayable",
      "type": "function"
    },
    {
      "inputs": [
        {
          "internalType": "contract IExotic",
          "name": "_exotic",
          "type": "address"
        }
      ],
      "name": "setExotic",
      "outputs": [],
      "stateMutability": "nonpayable",
      "type": "function"
    },
    {
      "inputs": [
        {
          "internalType": "address",
          "name": "newOwner",
          "type": "address"
        }
      ],
      "name": "transferOwnership",
      "outputs": [],
      "stateMutability": "nonpayable",
      "type": "function"
    },
    {
      "inputs": [
        {
          "internalType": "address",
          "name": "user",
          "type": "address"
        },
        {
          "internalType": "uint256",
          "name": "resultsPerPage",
          "type": "uint256"
        },
        {
          "internalType": "uint256",
          "name": "page",
          "type": "uint256"
        }
      ],
      "name": "userBets",
      "outputs": [
        {
          "components": [
            {
              "internalType": "uint256",
              "name": "raceId",
              "type": "uint256"
            },
            {
              "internalType": "uint256",
              "name": "amount",
              "type": "uint256"
            },
            {
              "internalType": "address",
              "name": "account",
              "type": "address"
            },
            {
              "internalType": "uint256[]",
              "name": "place",
              "type": "uint256[]"
            },
            {
              "internalType": "bool",
              "name": "paid",
              "type": "bool"
            },
            {
              "internalType": "uint256",
              "name": "betId",
              "type": "uint256"
            },
            {
              "internalType": "uint256[6]",
              "name": "raceResult",
              "type": "uint256[6]"
            },
            {
              "internalType": "bool",
              "name": "raceFinished",
              "type": "bool"
            }
          ],
          "internalType": "struct RaceLens.FullBet[]",
          "name": "",
          "type": "tuple[]"
        }
      ],
      "stateMutability": "view",
      "type": "function"
    }
  ],
  "transactionHash": "0x6ff1d984a828cd28d46a257f7633af6c212247bebfbc4b959aacae3b165ec14d",
  "args": [
    "0xDca688164EbCB1c50829560202c8B1Da3FdA2395"
  ],
  "numDeployments": 1,
  "solcInputHash": "a7cac4a2ab4a30394085d723e2a1321a",
  "bytecode": "0x60806040523480156200001157600080fd5b5060405162001add38038062001add833981810160405281019062000037919062000182565b620000576200004b6200009f60201b60201c565b620000a760201b60201c565b80600160006101000a81548173ffffffffffffffffffffffffffffffffffffffff021916908373ffffffffffffffffffffffffffffffffffffffff160217905550506200021b565b600033905090565b60008060009054906101000a900473ffffffffffffffffffffffffffffffffffffffff169050816000806101000a81548173ffffffffffffffffffffffffffffffffffffffff021916908373ffffffffffffffffffffffffffffffffffffffff1602179055508173ffffffffffffffffffffffffffffffffffffffff168173ffffffffffffffffffffffffffffffffffffffff167f8be0079c531659141344cd1fd0a4f28419497f9722a3daafe3b4186f6b6457e060405160405180910390a35050565b6000815190506200017c8162000201565b92915050565b6000602082840312156200019b576200019a620001fc565b5b6000620001ab848285016200016b565b91505092915050565b6000620001c182620001dc565b9050919050565b6000620001d582620001b4565b9050919050565b600073ffffffffffffffffffffffffffffffffffffffff82169050919050565b600080fd5b6200020c81620001c8565b81146200021857600080fd5b50565b6118b2806200022b6000396000f3fe608060405234801561001057600080fd5b506004361061007d5760003560e01c8063b7dda85e1161005b578063b7dda85e146100c6578063d195a054146100f6578063f2fde38b14610126578063f754fd96146101425761007d565b80634740945c14610082578063715018a61461009e5780638da5cb5b146100a8575b600080fd5b61009c60048036038101906100979190610e48565b610160565b005b6100a66101ac565b005b6100b06101c0565b6040516100bd919061128c565b60405180910390f35b6100e060048036038101906100db9190610eeb565b6101e9565b6040516100ed919061136d565b60405180910390f35b610110600480360381019061010b9190610dc8565b6104a1565b60405161011d91906112d0565b60405180910390f35b610140600480360381019061013b9190610d9b565b610816565b005b61014a61089a565b60405161015791906112f2565b60405180910390f35b6101686108c0565b80600160006101000a81548173ffffffffffffffffffffffffffffffffffffffff021916908373ffffffffffffffffffffffffffffffffffffffff16021790555050565b6101b46108c0565b6101be600061093e565b565b60008060009054906101000a900473ffffffffffffffffffffffffffffffffffffffff16905090565b6101f1610a0a565b6000600160009054906101000a900473ffffffffffffffffffffffffffffffffffffffff1673ffffffffffffffffffffffffffffffffffffffff1663ead50da36040518163ffffffff1660e01b815260040160206040518083038186803b15801561025b57600080fd5b505afa15801561026f573d6000803e3d6000fd5b505050506040513d601f19601f820116820180604052508101906102939190610f18565b8361029e9190611663565b146102de576040517f08c379a00000000000000000000000000000000000000000000000000000000081526004016102d59061134d565b60405180910390fd5b6000600160009054906101000a900473ffffffffffffffffffffffffffffffffffffffff1673ffffffffffffffffffffffffffffffffffffffff1663b7dda85e846040518263ffffffff1660e01b815260040161033b9190611389565b60806040518083038186803b15801561035357600080fd5b505afa158015610367573d6000803e3d6000fd5b505050506040513d601f19601f8201168201806040525081019061038b9190610ebe565b9050610395610a0a565b8381600001818152505081600001518160200181815250508160200151816040018181525050816040015181606001818152505081606001518160a0018181525050600082604001511461049757600160009054906101000a900473ffffffffffffffffffffffffffffffffffffffff1673ffffffffffffffffffffffffffffffffffffffff1663b71455ee856040518263ffffffff1660e01b815260040161043e9190611389565b60c06040518083038186803b15801561045657600080fd5b505afa15801561046a573d6000803e3d6000fd5b505050506040513d601f19601f8201168201806040525081019061048e9190610e1b565b81608001819052505b8092505050919050565b60606000600160009054906101000a900473ffffffffffffffffffffffffffffffffffffffff1673ffffffffffffffffffffffffffffffffffffffff1663f408a23a866040518263ffffffff1660e01b8152600401610500919061128c565b60206040518083038186803b15801561051857600080fd5b505afa15801561052c573d6000803e3d6000fd5b505050506040513d601f19601f820116820180604052508101906105509190610f18565b905060008085858761056291906114cb565b61056c9190611525565b8310156105805760009150600090506105dd565b848661058c91906114cb565b8310156105b4578585876105a091906114cb565b6105aa9190611525565b91508290506105dc565b8585876105c191906114cb565b6105cb9190611525565b915084866105d991906114cb565b90505b5b600082826105eb9190611525565b67ffffffffffffffff81111561060457610603611721565b5b60405190808252806020026020018201604052801561063d57816020015b61062a610a46565b8152602001906001900390816106225790505b50905060008390505b82811015610807576000600160009054906101000a900473ffffffffffffffffffffffffffffffffffffffff1673ffffffffffffffffffffffffffffffffffffffff16634195ab8e8b846040518363ffffffff1660e01b81526004016106ad9291906112a7565b60006040518083038186803b1580156106c557600080fd5b505afa1580156106d9573d6000803e3d6000fd5b505050506040513d6000823e3d601f19601f820116820180604052508101906107029190610e75565b905061070c610a46565b816000015181600001818152505081602001518160200181815250508160400151816040019073ffffffffffffffffffffffffffffffffffffffff16908173ffffffffffffffffffffffffffffffffffffffff1681525050816060015181606001819052508160800151816080019015159081151581525050828160a0018181525050600061079e83600001516101e9565b905080608001518260c0018190525060008160600151146107c05760016107c3565b60005b8260e0019015159081151581525050818585815181106107e6576107e56116f2565b5b602002602001018190525050505080806107ff9061161a565b915050610646565b81955050505050509392505050565b61081e6108c0565b600073ffffffffffffffffffffffffffffffffffffffff168173ffffffffffffffffffffffffffffffffffffffff16141561088e576040517f08c379a00000000000000000000000000000000000000000000000000000000081526004016108859061130d565b60405180910390fd5b6108978161093e565b50565b600160009054906101000a900473ffffffffffffffffffffffffffffffffffffffff1681565b6108c8610a02565b73ffffffffffffffffffffffffffffffffffffffff166108e66101c0565b73ffffffffffffffffffffffffffffffffffffffff161461093c576040517f08c379a00000000000000000000000000000000000000000000000000000000081526004016109339061132d565b60405180910390fd5b565b60008060009054906101000a900473ffffffffffffffffffffffffffffffffffffffff169050816000806101000a81548173ffffffffffffffffffffffffffffffffffffffff021916908373ffffffffffffffffffffffffffffffffffffffff1602179055508173ffffffffffffffffffffffffffffffffffffffff168173ffffffffffffffffffffffffffffffffffffffff167f8be0079c531659141344cd1fd0a4f28419497f9722a3daafe3b4186f6b6457e060405160405180910390a35050565b600033905090565b6040518060c0016040528060008152602001600081526020016000815260200160008152602001610a39610aab565b8152602001600081525090565b6040518061010001604052806000815260200160008152602001600073ffffffffffffffffffffffffffffffffffffffff1681526020016060815260200160001515815260200160008152602001610a9c610aab565b81526020016000151581525090565b6040518060c00160405280600690602082028036833780820191505090505090565b6000610ae0610adb846113c9565b6113a4565b90508082856020860282011115610afa57610af961175f565b5b60005b85811015610b2a5781610b108882610d86565b845260208401935060208301925050600181019050610afd565b5050509392505050565b6000610b47610b42846113ef565b6113a4565b90508083825260208201905082856020860282011115610b6a57610b6961175f565b5b60005b85811015610b9a5781610b808882610d86565b845260208401935060208301925050600181019050610b6d565b5050509392505050565b600081359050610bb381611820565b92915050565b600081519050610bc881611820565b92915050565b600082601f830112610be357610be2611750565b5b6006610bf0848285610acd565b91505092915050565b600082601f830112610c0e57610c0d611750565b5b8151610c1e848260208601610b34565b91505092915050565b600081519050610c3681611837565b92915050565b600081359050610c4b8161184e565b92915050565b600060a08284031215610c6757610c66611755565b5b610c7160a06113a4565b90506000610c8184828501610d86565b6000830152506020610c9584828501610d86565b6020830152506040610ca984828501610bb9565b604083015250606082015167ffffffffffffffff811115610ccd57610ccc61175a565b5b610cd984828501610bf9565b6060830152506080610ced84828501610c27565b60808301525092915050565b600060808284031215610d0f57610d0e611755565b5b610d1960806113a4565b90506000610d2984828501610d86565b6000830152506020610d3d84828501610d86565b6020830152506040610d5184828501610d86565b6040830152506060610d6584828501610d86565b60608301525092915050565b600081359050610d8081611865565b92915050565b600081519050610d9581611865565b92915050565b600060208284031215610db157610db0611769565b5b6000610dbf84828501610ba4565b91505092915050565b600080600060608486031215610de157610de0611769565b5b6000610def86828701610ba4565b9350506020610e0086828701610d71565b9250506040610e1186828701610d71565b9150509250925092565b600060c08284031215610e3157610e30611769565b5b6000610e3f84828501610bce565b91505092915050565b600060208284031215610e5e57610e5d611769565b5b6000610e6c84828501610c3c565b91505092915050565b600060208284031215610e8b57610e8a611769565b5b600082015167ffffffffffffffff811115610ea957610ea8611764565b5b610eb584828501610c51565b91505092915050565b600060808284031215610ed457610ed3611769565b5b6000610ee284828501610cf9565b91505092915050565b600060208284031215610f0157610f00611769565b5b6000610f0f84828501610d71565b91505092915050565b600060208284031215610f2e57610f2d611769565b5b6000610f3c84828501610d86565b91505092915050565b6000610f518383611140565b905092915050565b6000610f65838361126e565b60208301905092915050565b610f7a81611559565b82525050565b610f8981611559565b82525050565b6000610f9a82611445565b610fa4818561148d565b935083602082028501610fb68561141b565b8060005b85811015610ff25784840389528151610fd38582610f45565b9450610fde83611466565b925060208a01995050600181019050610fba565b50829750879550505050505092915050565b61100d81611450565b611017818461149e565b92506110228261142b565b8060005b8381101561105357815161103a8782610f59565b965061104583611473565b925050600181019050611026565b505050505050565b60006110668261145b565b61107081856114a9565b935061107b83611435565b8060005b838110156110ac5781516110938882610f59565b975061109e83611480565b92505060018101905061107f565b5085935050505092915050565b6110c28161156b565b82525050565b6110d1816115b3565b82525050565b60006110e46026836114ba565b91506110ef8261177f565b604082019050919050565b60006111076020836114ba565b9150611112826117ce565b602082019050919050565b600061112a600f836114ba565b9150611135826117f7565b602082019050919050565b60006101a083016000830151611159600086018261126e565b50602083015161116c602086018261126e565b50604083015161117f6040860182610f71565b5060608301518482036060860152611197828261105b565b91505060808301516111ac60808601826110b9565b5060a08301516111bf60a086018261126e565b5060c08301516111d260c0860182611004565b5060e08301516111e66101808601826110b9565b508091505092915050565b61016082016000820151611208600085018261126e565b50602082015161121b602085018261126e565b50604082015161122e604085018261126e565b506060820151611241606085018261126e565b5060808201516112546080850182611004565b5060a082015161126861014085018261126e565b50505050565b611277816115a9565b82525050565b611286816115a9565b82525050565b60006020820190506112a16000830184610f80565b92915050565b60006040820190506112bc6000830185610f80565b6112c9602083018461127d565b9392505050565b600060208201905081810360008301526112ea8184610f8f565b905092915050565b600060208201905061130760008301846110c8565b92915050565b60006020820190508181036000830152611326816110d7565b9050919050565b60006020820190508181036000830152611346816110fa565b9050919050565b600060208201905081810360008301526113668161111d565b9050919050565b60006101608201905061138360008301846111f1565b92915050565b600060208201905061139e600083018461127d565b92915050565b60006113ae6113bf565b90506113ba82826115e9565b919050565b6000604051905090565b600067ffffffffffffffff8211156113e4576113e3611721565b5b602082029050919050565b600067ffffffffffffffff82111561140a57611409611721565b5b602082029050602081019050919050565b6000819050602082019050919050565b6000819050919050565b6000819050602082019050919050565b600081519050919050565b600060069050919050565b600081519050919050565b6000602082019050919050565b6000602082019050919050565b6000602082019050919050565b600082825260208201905092915050565b600081905092915050565b600082825260208201905092915050565b600082825260208201905092915050565b60006114d6826115a9565b91506114e1836115a9565b9250817fffffffffffffffffffffffffffffffffffffffffffffffffffffffffffffffff048311821515161561151a57611519611694565b5b828202905092915050565b6000611530826115a9565b915061153b836115a9565b92508282101561154e5761154d611694565b5b828203905092915050565b600061156482611589565b9050919050565b60008115159050919050565b600061158282611559565b9050919050565b600073ffffffffffffffffffffffffffffffffffffffff82169050919050565b6000819050919050565b60006115be826115c5565b9050919050565b60006115d0826115d7565b9050919050565b60006115e282611589565b9050919050565b6115f28261176e565b810181811067ffffffffffffffff8211171561161157611610611721565b5b80604052505050565b6000611625826115a9565b91507fffffffffffffffffffffffffffffffffffffffffffffffffffffffffffffffff82141561165857611657611694565b5b600182019050919050565b600061166e826115a9565b9150611679836115a9565b925082611689576116886116c3565b5b828206905092915050565b7f4e487b7100000000000000000000000000000000000000000000000000000000600052601160045260246000fd5b7f4e487b7100000000000000000000000000000000000000000000000000000000600052601260045260246000fd5b7f4e487b7100000000000000000000000000000000000000000000000000000000600052603260045260246000fd5b7f4e487b7100000000000000000000000000000000000000000000000000000000600052604160045260246000fd5b600080fd5b600080fd5b600080fd5b600080fd5b600080fd5b600080fd5b6000601f19601f8301169050919050565b7f4f776e61626c653a206e6577206f776e657220697320746865207a65726f206160008201527f6464726573730000000000000000000000000000000000000000000000000000602082015250565b7f4f776e61626c653a2063616c6c6572206973206e6f7420746865206f776e6572600082015250565b7f496e76616c696420726163652049440000000000000000000000000000000000600082015250565b61182981611559565b811461183457600080fd5b50565b6118408161156b565b811461184b57600080fd5b50565b61185781611577565b811461186257600080fd5b50565b61186e816115a9565b811461187957600080fd5b5056fea26469706673582212209f542a8703f058aad0f470aaefbb4f8de125cd8a47183e72ae3b11a93d147f0a64736f6c63430008070033",
  "devdoc": {
    "kind": "dev",
    "methods": {
      "owner()": {
        "details": "Returns the address of the current owner."
      },
      "renounceOwnership()": {
        "details": "Leaves the contract without owner. It will not be possible to call `onlyOwner` functions anymore. Can only be called by the current owner. NOTE: Renouncing ownership will leave the contract without an owner, thereby removing any functionality that is only available to the owner."
      },
      "transferOwnership(address)": {
        "details": "Transfers ownership of the contract to a new account (`newOwner`). Can only be called by the current owner."
      }
    },
    "title": "Helper contract for fetching data from the race.",
    "version": 1
  },
  "userdoc": {
    "kind": "user",
    "methods": {},
    "version": 1
  },
  "storageLayout": {
    "storage": [
      {
        "astId": 7,
        "contract": "contracts/RaceLens.sol:RaceLens",
        "label": "_owner",
        "offset": 0,
        "slot": "0",
        "type": "t_address"
      },
      {
        "astId": 180,
        "contract": "contracts/RaceLens.sol:RaceLens",
        "label": "exotic",
        "offset": 0,
        "slot": "1",
        "type": "t_contract(IExotic)560"
      }
    ],
    "types": {
      "t_address": {
        "encoding": "inplace",
        "label": "address",
        "numberOfBytes": "20"
      },
      "t_contract(IExotic)560": {
        "encoding": "inplace",
        "label": "contract IExotic",
        "numberOfBytes": "20"
      }
    }
  }
}