{
  "address": "0x7fb1A6Db740Fa168360a2039a03C5B621f6f9529",
  "abi": [
    {
      "inputs": [
        {
          "internalType": "contract IExotic",
          "name": "_exotic",
          "type": "address"
        }
      ],
      "stateMutability": "nonpayable",
      "type": "constructor"
    },
    {
      "anonymous": false,
      "inputs": [
        {
          "indexed": true,
          "internalType": "address",
          "name": "previousOwner",
          "type": "address"
        },
        {
          "indexed": true,
          "internalType": "address",
          "name": "newOwner",
          "type": "address"
        }
      ],
      "name": "OwnershipTransferred",
      "type": "event"
    },
    {
      "inputs": [],
      "name": "exotic",
      "outputs": [
        {
          "internalType": "contract IExotic",
          "name": "",
          "type": "address"
        }
      ],
      "stateMutability": "view",
      "type": "function"
    },
    {
      "inputs": [],
      "name": "owner",
      "outputs": [
        {
          "internalType": "address",
          "name": "",
          "type": "address"
        }
      ],
      "stateMutability": "view",
      "type": "function"
    },
    {
      "inputs": [
        {
          "internalType": "uint256",
          "name": "raceId",
          "type": "uint256"
        }
      ],
      "name": "race",
      "outputs": [
        {
          "components": [
            {
              "internalType": "uint256",
              "name": "raceId",
              "type": "uint256"
            },
            {
              "internalType": "uint256",
              "name": "totalWagered",
              "type": "uint256"
            },
            {
              "internalType": "uint256",
              "name": "paid",
              "type": "uint256"
            },
            {
              "internalType": "uint256",
              "name": "result",
              "type": "uint256"
            },
            {
              "internalType": "uint256[6]",
              "name": "raceResult",
              "type": "uint256[6]"
            },
            {
              "internalType": "uint256",
              "name": "requestId",
              "type": "uint256"
            }
          ],
          "internalType": "struct RaceLens.FullRace",
          "name": "",
          "type": "tuple"
        }
      ],
      "stateMutability": "view",
      "type": "function"
    },
    {
      "inputs": [],
      "name": "renounceOwnership",
      "outputs": [],
      "stateMutability": "nonpayable",
      "type": "function"
    },
    {
      "inputs": [
        {
          "internalType": "contract IExotic",
          "name": "_exotic",
          "type": "address"
        }
      ],
      "name": "setExotic",
      "outputs": [],
      "stateMutability": "nonpayable",
      "type": "function"
    },
    {
      "inputs": [
        {
          "internalType": "address",
          "name": "newOwner",
          "type": "address"
        }
      ],
      "name": "transferOwnership",
      "outputs": [],
      "stateMutability": "nonpayable",
      "type": "function"
    },
    {
      "inputs": [
        {
          "internalType": "address",
          "name": "user",
          "type": "address"
        },
        {
          "internalType": "uint256",
          "name": "resultsPerPage",
          "type": "uint256"
        },
        {
          "internalType": "uint256",
          "name": "page",
          "type": "uint256"
        }
      ],
      "name": "userBets",
      "outputs": [
        {
          "components": [
            {
              "internalType": "uint256",
              "name": "raceId",
              "type": "uint256"
            },
            {
              "internalType": "uint256",
              "name": "amount",
              "type": "uint256"
            },
            {
              "internalType": "address",
              "name": "account",
              "type": "address"
            },
            {
              "internalType": "uint256[]",
              "name": "place",
              "type": "uint256[]"
            },
            {
              "internalType": "bool",
              "name": "paid",
              "type": "bool"
            },
            {
              "internalType": "uint256",
              "name": "betId",
              "type": "uint256"
            },
            {
              "internalType": "uint256[6]",
              "name": "raceResult",
              "type": "uint256[6]"
            },
            {
              "internalType": "bool",
              "name": "raceFinished",
              "type": "bool"
            }
          ],
          "internalType": "struct RaceLens.FullBet[]",
          "name": "",
          "type": "tuple[]"
        }
      ],
      "stateMutability": "view",
      "type": "function"
    }
  ],
  "transactionHash": "0xa4cb13a5247c3b0ac3e5940c54b61254a00d8921c6827730aae83573c8cd6423",
  "args": [
    "0xCA27Bf3f015B6A34Ba447984535A05aBf511DF2e"
  ],
  "numDeployments": 4,
  "solcInputHash": "fd7587227cbb31f620ba50fcb7a15346",
  "bytecode": "0x60806040523480156200001157600080fd5b5060405162001b2138038062001b21833981810160405281019062000037919062000182565b620000576200004b6200009f60201b60201c565b620000a760201b60201c565b80600160006101000a81548173ffffffffffffffffffffffffffffffffffffffff021916908373ffffffffffffffffffffffffffffffffffffffff160217905550506200021b565b600033905090565b60008060009054906101000a900473ffffffffffffffffffffffffffffffffffffffff169050816000806101000a81548173ffffffffffffffffffffffffffffffffffffffff021916908373ffffffffffffffffffffffffffffffffffffffff1602179055508173ffffffffffffffffffffffffffffffffffffffff168173ffffffffffffffffffffffffffffffffffffffff167f8be0079c531659141344cd1fd0a4f28419497f9722a3daafe3b4186f6b6457e060405160405180910390a35050565b6000815190506200017c8162000201565b92915050565b6000602082840312156200019b576200019a620001fc565b5b6000620001ab848285016200016b565b91505092915050565b6000620001c182620001dc565b9050919050565b6000620001d582620001b4565b9050919050565b600073ffffffffffffffffffffffffffffffffffffffff82169050919050565b600080fd5b6200020c81620001c8565b81146200021857600080fd5b50565b6118f6806200022b6000396000f3fe608060405234801561001057600080fd5b506004361061007d5760003560e01c8063b7dda85e1161005b578063b7dda85e146100c6578063d195a054146100f6578063f2fde38b14610126578063f754fd96146101425761007d565b80634740945c14610082578063715018a61461009e5780638da5cb5b146100a8575b600080fd5b61009c60048036038101906100979190610e55565b610160565b005b6100a66101ac565b005b6100b06101c0565b6040516100bd9190611299565b60405180910390f35b6100e060048036038101906100db9190610ef8565b6101e9565b6040516100ed919061137a565b60405180910390f35b610110600480360381019061010b9190610dd5565b6104a1565b60405161011d91906112dd565b60405180910390f35b610140600480360381019061013b9190610da8565b610823565b005b61014a6108a7565b60405161015791906112ff565b60405180910390f35b6101686108cd565b80600160006101000a81548173ffffffffffffffffffffffffffffffffffffffff021916908373ffffffffffffffffffffffffffffffffffffffff16021790555050565b6101b46108cd565b6101be600061094b565b565b60008060009054906101000a900473ffffffffffffffffffffffffffffffffffffffff16905090565b6101f1610a17565b6000600160009054906101000a900473ffffffffffffffffffffffffffffffffffffffff1673ffffffffffffffffffffffffffffffffffffffff1663ead50da36040518163ffffffff1660e01b815260040160206040518083038186803b15801561025b57600080fd5b505afa15801561026f573d6000803e3d6000fd5b505050506040513d601f19601f820116820180604052508101906102939190610f25565b8361029e91906116a7565b146102de576040517f08c379a00000000000000000000000000000000000000000000000000000000081526004016102d59061135a565b60405180910390fd5b6000600160009054906101000a900473ffffffffffffffffffffffffffffffffffffffff1673ffffffffffffffffffffffffffffffffffffffff1663b7dda85e846040518263ffffffff1660e01b815260040161033b9190611396565b60806040518083038186803b15801561035357600080fd5b505afa158015610367573d6000803e3d6000fd5b505050506040513d601f19601f8201168201806040525081019061038b9190610ecb565b9050610395610a17565b8381600001818152505081600001518160200181815250508160200151816040018181525050816040015181606001818152505081606001518160a0018181525050600082604001511461049757600160009054906101000a900473ffffffffffffffffffffffffffffffffffffffff1673ffffffffffffffffffffffffffffffffffffffff1663b71455ee856040518263ffffffff1660e01b815260040161043e9190611396565b60c06040518083038186803b15801561045657600080fd5b505afa15801561046a573d6000803e3d6000fd5b505050506040513d601f19601f8201168201806040525081019061048e9190610e28565b81608001819052505b8092505050919050565b60606000600160009054906101000a900473ffffffffffffffffffffffffffffffffffffffff1673ffffffffffffffffffffffffffffffffffffffff1663f408a23a866040518263ffffffff1660e01b81526004016105009190611299565b60206040518083038186803b15801561051857600080fd5b505afa15801561052c573d6000803e3d6000fd5b505050506040513d601f19601f820116820180604052508101906105509190610f25565b90506000808486610561919061152e565b9150858587610570919061152e565b61057a9190611588565b90508083101561058d5760009150600090505b828211156105c1578583106105b85782826105a89190611588565b816105b39190611588565b6105bb565b60005b90508291505b600081836105cf9190611588565b67ffffffffffffffff8111156105e8576105e7611765565b5b60405190808252806020026020018201604052801561062157816020015b61060e610a53565b8152602001906001900390816106065790505b5090506000808491505b83821115610813576000600160009054906101000a900473ffffffffffffffffffffffffffffffffffffffff1673ffffffffffffffffffffffffffffffffffffffff16634195ab8e8c6001866106819190611588565b6040518363ffffffff1660e01b815260040161069e9291906112b4565b60006040518083038186803b1580156106b657600080fd5b505afa1580156106ca573d6000803e3d6000fd5b505050506040513d6000823e3d601f19601f820116820180604052508101906106f39190610e82565b90506106fd610a53565b816000015181600001818152505081602001518160200181815250508160400151816040019073ffffffffffffffffffffffffffffffffffffffff16908173ffffffffffffffffffffffffffffffffffffffff16815250508160600151816060018190525081608001518160800190151590811515815250506001846107839190611588565b8160a0018181525050600061079b83600001516101e9565b905080608001518260c0018190525060008160600151146107bd5760016107c0565b60005b8260e0019015159081151581525050818685815181106107e3576107e2611736565b5b60200260200101819052506001846107fb91906114d8565b9350505050818061080b9061164c565b92505061062b565b8296505050505050509392505050565b61082b6108cd565b600073ffffffffffffffffffffffffffffffffffffffff168173ffffffffffffffffffffffffffffffffffffffff16141561089b576040517f08c379a00000000000000000000000000000000000000000000000000000000081526004016108929061131a565b60405180910390fd5b6108a48161094b565b50565b600160009054906101000a900473ffffffffffffffffffffffffffffffffffffffff1681565b6108d5610a0f565b73ffffffffffffffffffffffffffffffffffffffff166108f36101c0565b73ffffffffffffffffffffffffffffffffffffffff1614610949576040517f08c379a00000000000000000000000000000000000000000000000000000000081526004016109409061133a565b60405180910390fd5b565b60008060009054906101000a900473ffffffffffffffffffffffffffffffffffffffff169050816000806101000a81548173ffffffffffffffffffffffffffffffffffffffff021916908373ffffffffffffffffffffffffffffffffffffffff1602179055508173ffffffffffffffffffffffffffffffffffffffff168173ffffffffffffffffffffffffffffffffffffffff167f8be0079c531659141344cd1fd0a4f28419497f9722a3daafe3b4186f6b6457e060405160405180910390a35050565b600033905090565b6040518060c0016040528060008152602001600081526020016000815260200160008152602001610a46610ab8565b8152602001600081525090565b6040518061010001604052806000815260200160008152602001600073ffffffffffffffffffffffffffffffffffffffff1681526020016060815260200160001515815260200160008152602001610aa9610ab8565b81526020016000151581525090565b6040518060c00160405280600690602082028036833780820191505090505090565b6000610aed610ae8846113d6565b6113b1565b90508082856020860282011115610b0757610b066117a3565b5b60005b85811015610b375781610b1d8882610d93565b845260208401935060208301925050600181019050610b0a565b5050509392505050565b6000610b54610b4f846113fc565b6113b1565b90508083825260208201905082856020860282011115610b7757610b766117a3565b5b60005b85811015610ba75781610b8d8882610d93565b845260208401935060208301925050600181019050610b7a565b5050509392505050565b600081359050610bc081611864565b92915050565b600081519050610bd581611864565b92915050565b600082601f830112610bf057610bef611794565b5b6006610bfd848285610ada565b91505092915050565b600082601f830112610c1b57610c1a611794565b5b8151610c2b848260208601610b41565b91505092915050565b600081519050610c438161187b565b92915050565b600081359050610c5881611892565b92915050565b600060a08284031215610c7457610c73611799565b5b610c7e60a06113b1565b90506000610c8e84828501610d93565b6000830152506020610ca284828501610d93565b6020830152506040610cb684828501610bc6565b604083015250606082015167ffffffffffffffff811115610cda57610cd961179e565b5b610ce684828501610c06565b6060830152506080610cfa84828501610c34565b60808301525092915050565b600060808284031215610d1c57610d1b611799565b5b610d2660806113b1565b90506000610d3684828501610d93565b6000830152506020610d4a84828501610d93565b6020830152506040610d5e84828501610d93565b6040830152506060610d7284828501610d93565b60608301525092915050565b600081359050610d8d816118a9565b92915050565b600081519050610da2816118a9565b92915050565b600060208284031215610dbe57610dbd6117ad565b5b6000610dcc84828501610bb1565b91505092915050565b600080600060608486031215610dee57610ded6117ad565b5b6000610dfc86828701610bb1565b9350506020610e0d86828701610d7e565b9250506040610e1e86828701610d7e565b9150509250925092565b600060c08284031215610e3e57610e3d6117ad565b5b6000610e4c84828501610bdb565b91505092915050565b600060208284031215610e6b57610e6a6117ad565b5b6000610e7984828501610c49565b91505092915050565b600060208284031215610e9857610e976117ad565b5b600082015167ffffffffffffffff811115610eb657610eb56117a8565b5b610ec284828501610c5e565b91505092915050565b600060808284031215610ee157610ee06117ad565b5b6000610eef84828501610d06565b91505092915050565b600060208284031215610f0e57610f0d6117ad565b5b6000610f1c84828501610d7e565b91505092915050565b600060208284031215610f3b57610f3a6117ad565b5b6000610f4984828501610d93565b91505092915050565b6000610f5e838361114d565b905092915050565b6000610f72838361127b565b60208301905092915050565b610f87816115bc565b82525050565b610f96816115bc565b82525050565b6000610fa782611452565b610fb1818561149a565b935083602082028501610fc385611428565b8060005b85811015610fff5784840389528151610fe08582610f52565b9450610feb83611473565b925060208a01995050600181019050610fc7565b50829750879550505050505092915050565b61101a8161145d565b61102481846114ab565b925061102f82611438565b8060005b838110156110605781516110478782610f66565b965061105283611480565b925050600181019050611033565b505050505050565b600061107382611468565b61107d81856114b6565b935061108883611442565b8060005b838110156110b95781516110a08882610f66565b97506110ab8361148d565b92505060018101905061108c565b5085935050505092915050565b6110cf816115ce565b82525050565b6110de81611616565b82525050565b60006110f16026836114c7565b91506110fc826117c3565b604082019050919050565b60006111146020836114c7565b915061111f82611812565b602082019050919050565b6000611137600f836114c7565b91506111428261183b565b602082019050919050565b60006101a083016000830151611166600086018261127b565b506020830151611179602086018261127b565b50604083015161118c6040860182610f7e565b50606083015184820360608601526111a48282611068565b91505060808301516111b960808601826110c6565b5060a08301516111cc60a086018261127b565b5060c08301516111df60c0860182611011565b5060e08301516111f36101808601826110c6565b508091505092915050565b61016082016000820151611215600085018261127b565b506020820151611228602085018261127b565b50604082015161123b604085018261127b565b50606082015161124e606085018261127b565b5060808201516112616080850182611011565b5060a082015161127561014085018261127b565b50505050565b6112848161160c565b82525050565b6112938161160c565b82525050565b60006020820190506112ae6000830184610f8d565b92915050565b60006040820190506112c96000830185610f8d565b6112d6602083018461128a565b9392505050565b600060208201905081810360008301526112f78184610f9c565b905092915050565b600060208201905061131460008301846110d5565b92915050565b60006020820190508181036000830152611333816110e4565b9050919050565b6000602082019050818103600083015261135381611107565b9050919050565b600060208201905081810360008301526113738161112a565b9050919050565b60006101608201905061139060008301846111fe565b92915050565b60006020820190506113ab600083018461128a565b92915050565b60006113bb6113cc565b90506113c78282611676565b919050565b6000604051905090565b600067ffffffffffffffff8211156113f1576113f0611765565b5b602082029050919050565b600067ffffffffffffffff82111561141757611416611765565b5b602082029050602081019050919050565b6000819050602082019050919050565b6000819050919050565b6000819050602082019050919050565b600081519050919050565b600060069050919050565b600081519050919050565b6000602082019050919050565b6000602082019050919050565b6000602082019050919050565b600082825260208201905092915050565b600081905092915050565b600082825260208201905092915050565b600082825260208201905092915050565b60006114e38261160c565b91506114ee8361160c565b9250827fffffffffffffffffffffffffffffffffffffffffffffffffffffffffffffffff03821115611523576115226116d8565b5b828201905092915050565b60006115398261160c565b91506115448361160c565b9250817fffffffffffffffffffffffffffffffffffffffffffffffffffffffffffffffff048311821515161561157d5761157c6116d8565b5b828202905092915050565b60006115938261160c565b915061159e8361160c565b9250828210156115b1576115b06116d8565b5b828203905092915050565b60006115c7826115ec565b9050919050565b60008115159050919050565b60006115e5826115bc565b9050919050565b600073ffffffffffffffffffffffffffffffffffffffff82169050919050565b6000819050919050565b600061162182611628565b9050919050565b60006116338261163a565b9050919050565b6000611645826115ec565b9050919050565b60006116578261160c565b9150600082141561166b5761166a6116d8565b5b600182039050919050565b61167f826117b2565b810181811067ffffffffffffffff8211171561169e5761169d611765565b5b80604052505050565b60006116b28261160c565b91506116bd8361160c565b9250826116cd576116cc611707565b5b828206905092915050565b7f4e487b7100000000000000000000000000000000000000000000000000000000600052601160045260246000fd5b7f4e487b7100000000000000000000000000000000000000000000000000000000600052601260045260246000fd5b7f4e487b7100000000000000000000000000000000000000000000000000000000600052603260045260246000fd5b7f4e487b7100000000000000000000000000000000000000000000000000000000600052604160045260246000fd5b600080fd5b600080fd5b600080fd5b600080fd5b600080fd5b600080fd5b6000601f19601f8301169050919050565b7f4f776e61626c653a206e6577206f776e657220697320746865207a65726f206160008201527f6464726573730000000000000000000000000000000000000000000000000000602082015250565b7f4f776e61626c653a2063616c6c6572206973206e6f7420746865206f776e6572600082015250565b7f496e76616c696420726163652049440000000000000000000000000000000000600082015250565b61186d816115bc565b811461187857600080fd5b50565b611884816115ce565b811461188f57600080fd5b50565b61189b816115da565b81146118a657600080fd5b50565b6118b28161160c565b81146118bd57600080fd5b5056fea26469706673582212209e339c12ada2fc89ffe9fc3fee6ecea91b3399b17adabbfb269017ede67d5e6964736f6c63430008070033",
  "devdoc": {
    "kind": "dev",
    "methods": {
      "owner()": {
        "details": "Returns the address of the current owner."
      },
      "renounceOwnership()": {
        "details": "Leaves the contract without owner. It will not be possible to call `onlyOwner` functions anymore. Can only be called by the current owner. NOTE: Renouncing ownership will leave the contract without an owner, thereby removing any functionality that is only available to the owner."
      },
      "transferOwnership(address)": {
        "details": "Transfers ownership of the contract to a new account (`newOwner`). Can only be called by the current owner."
      }
    },
    "title": "Helper contract for fetching data from the race.",
    "version": 1
  },
  "userdoc": {
    "kind": "user",
    "methods": {},
    "version": 1
  },
  "storageLayout": {
    "storage": [
      {
        "astId": 7,
        "contract": "contracts/RaceLens.sol:RaceLens",
        "label": "_owner",
        "offset": 0,
        "slot": "0",
        "type": "t_address"
      },
      {
        "astId": 180,
        "contract": "contracts/RaceLens.sol:RaceLens",
        "label": "exotic",
        "offset": 0,
        "slot": "1",
        "type": "t_contract(IExotic)569"
      }
    ],
    "types": {
      "t_address": {
        "encoding": "inplace",
        "label": "address",
        "numberOfBytes": "20"
      },
      "t_contract(IExotic)569": {
        "encoding": "inplace",
        "label": "contract IExotic",
        "numberOfBytes": "20"
      }
    }
  }
}