{
  "address": "0x784b9a69782c2A7676FF3c4D5f070fDa25c5faeb",
  "abi": [
    {
      "inputs": [
        {
          "internalType": "uint64",
          "name": "subscriptionId",
          "type": "uint64"
        },
        {
          "internalType": "address",
          "name": "_vrfCoordinator",
          "type": "address"
        }
      ],
      "stateMutability": "nonpayable",
      "type": "constructor"
    },
    {
      "inputs": [
        {
          "internalType": "address",
          "name": "have",
          "type": "address"
        },
        {
          "internalType": "address",
          "name": "want",
          "type": "address"
        }
      ],
      "name": "OnlyCoordinatorCanFulfill",
      "type": "error"
    },
    {
      "anonymous": false,
      "inputs": [
        {
          "indexed": true,
          "internalType": "address",
          "name": "previousOwner",
          "type": "address"
        },
        {
          "indexed": true,
          "internalType": "address",
          "name": "newOwner",
          "type": "address"
        }
      ],
      "name": "OwnershipTransferred",
      "type": "event"
    },
    {
      "inputs": [],
      "name": "exotic",
      "outputs": [
        {
          "internalType": "contract IExotic",
          "name": "",
          "type": "address"
        }
      ],
      "stateMutability": "view",
      "type": "function"
    },
    {
      "inputs": [],
      "name": "owner",
      "outputs": [
        {
          "internalType": "address",
          "name": "",
          "type": "address"
        }
      ],
      "stateMutability": "view",
      "type": "function"
    },
    {
      "inputs": [
        {
          "internalType": "uint256",
          "name": "requestId",
          "type": "uint256"
        },
        {
          "internalType": "uint256[]",
          "name": "randomWords",
          "type": "uint256[]"
        }
      ],
      "name": "rawFulfillRandomWords",
      "outputs": [],
      "stateMutability": "nonpayable",
      "type": "function"
    },
    {
      "inputs": [],
      "name": "renounceOwnership",
      "outputs": [],
      "stateMutability": "nonpayable",
      "type": "function"
    },
    {
      "inputs": [],
      "name": "requestRandomWords",
      "outputs": [
        {
          "internalType": "uint256",
          "name": "",
          "type": "uint256"
        }
      ],
      "stateMutability": "nonpayable",
      "type": "function"
    },
    {
      "inputs": [
        {
          "internalType": "address",
          "name": "_exoticAddress",
          "type": "address"
        }
      ],
      "name": "setExoticAddress",
      "outputs": [],
      "stateMutability": "nonpayable",
      "type": "function"
    },
    {
      "inputs": [
        {
          "internalType": "address",
          "name": "newOwner",
          "type": "address"
        }
      ],
      "name": "transferOwnership",
      "outputs": [],
      "stateMutability": "nonpayable",
      "type": "function"
    }
  ],
  "transactionHash": "0x75ccf08dd7a38dbe5098739e8bb17fe598abeb2610445b9db21deebc79cd65ba",
  "args": [
    167,
    "0x2eD832Ba664535e5886b75D64C46EB9a228C2610"
  ],
  "numDeployments": 1,
  "solcInputHash": "641d438ec5a73892a4c03451db4b0d09",
  "bytecode": "0x60a06040527f354d2f95da55398f44b7cff77da56283d9c6c829a4bdf1bbcaf2ad6a4d081f6160001b60035562030d40600460006101000a81548163ffffffff021916908363ffffffff16021790555060036004806101000a81548161ffff021916908361ffff1602179055506001600460066101000a81548163ffffffff021916908363ffffffff1602179055503480156200009b57600080fd5b506040516200120a3803806200120a8339818101604052810190620000c1919062000286565b808073ffffffffffffffffffffffffffffffffffffffff1660808173ffffffffffffffffffffffffffffffffffffffff1660601b81525050506200011a6200010e6200018c60201b60201c565b6200019460201b60201c565b80600160006101000a81548173ffffffffffffffffffffffffffffffffffffffff021916908373ffffffffffffffffffffffffffffffffffffffff16021790555081600160146101000a81548167ffffffffffffffff021916908367ffffffffffffffff16021790555050506200034e565b600033905090565b60008060009054906101000a900473ffffffffffffffffffffffffffffffffffffffff169050816000806101000a81548173ffffffffffffffffffffffffffffffffffffffff021916908373ffffffffffffffffffffffffffffffffffffffff1602179055508173ffffffffffffffffffffffffffffffffffffffff168173ffffffffffffffffffffffffffffffffffffffff167f8be0079c531659141344cd1fd0a4f28419497f9722a3daafe3b4186f6b6457e060405160405180910390a35050565b60008151905062000269816200031a565b92915050565b600081519050620002808162000334565b92915050565b60008060408385031215620002a0576200029f62000315565b5b6000620002b0858286016200026f565b9250506020620002c38582860162000258565b9150509250929050565b6000620002da82620002e1565b9050919050565b600073ffffffffffffffffffffffffffffffffffffffff82169050919050565b600067ffffffffffffffff82169050919050565b600080fd5b6200032581620002cd565b81146200033157600080fd5b50565b6200033f8162000301565b81146200034b57600080fd5b50565b60805160601c610e96620003746000396000818161013c01526101900152610e966000f3fe608060405234801561001057600080fd5b506004361061007d5760003560e01c80638da5cb5b1161005b5780638da5cb5b146100c4578063e0c86289146100e2578063f2fde38b14610100578063f754fd961461011c5761007d565b80631fe543e314610082578063715018a61461009e578063877a17e7146100a8575b600080fd5b61009c60048036038101906100979190610847565b61013a565b005b6100a66101fa565b005b6100c260048036038101906100bd91906107ed565b61020e565b005b6100cc6102ca565b6040516100d99190610a1d565b60405180910390f35b6100ea6102f3565b6040516100f79190610b4f565b60405180910390f35b61011a600480360381019061011591906107ed565b610489565b005b61012461050d565b6040516101319190610ab4565b60405180910390f35b7f000000000000000000000000000000000000000000000000000000000000000073ffffffffffffffffffffffffffffffffffffffff163373ffffffffffffffffffffffffffffffffffffffff16146101ec57337f00000000000000000000000000000000000000000000000000000000000000006040517f1cf993f40000000000000000000000000000000000000000000000000000000081526004016101e3929190610a38565b60405180910390fd5b6101f68282610533565b5050565b6102026105c6565b61020c6000610644565b565b6102166105c6565b600073ffffffffffffffffffffffffffffffffffffffff168173ffffffffffffffffffffffffffffffffffffffff161415610286576040517f08c379a000000000000000000000000000000000000000000000000000000000815260040161027d90610b2f565b60405180910390fd5b806004600a6101000a81548173ffffffffffffffffffffffffffffffffffffffff021916908373ffffffffffffffffffffffffffffffffffffffff16021790555050565b60008060009054906101000a900473ffffffffffffffffffffffffffffffffffffffff16905090565b60006004600a9054906101000a900473ffffffffffffffffffffffffffffffffffffffff1673ffffffffffffffffffffffffffffffffffffffff163373ffffffffffffffffffffffffffffffffffffffff1614610385576040517f08c379a000000000000000000000000000000000000000000000000000000000815260040161037c90610aef565b60405180910390fd5b600160009054906101000a900473ffffffffffffffffffffffffffffffffffffffff1673ffffffffffffffffffffffffffffffffffffffff16635d3b1d30600354600160149054906101000a900467ffffffffffffffff1660048054906101000a900461ffff16600460009054906101000a900463ffffffff16600460069054906101000a900463ffffffff166040518663ffffffff1660e01b8152600401610432959493929190610a61565b602060405180830381600087803b15801561044c57600080fd5b505af1158015610460573d6000803e3d6000fd5b505050506040513d601f19601f82011682018060405250810190610484919061081a565b905090565b6104916105c6565b600073ffffffffffffffffffffffffffffffffffffffff168173ffffffffffffffffffffffffffffffffffffffff161415610501576040517f08c379a00000000000000000000000000000000000000000000000000000000081526004016104f890610acf565b60405180910390fd5b61050a81610644565b50565b6004600a9054906101000a900473ffffffffffffffffffffffffffffffffffffffff1681565b6004600a9054906101000a900473ffffffffffffffffffffffffffffffffffffffff1673ffffffffffffffffffffffffffffffffffffffff1663315aa38c83836040518363ffffffff1660e01b8152600401610590929190610b6a565b600060405180830381600087803b1580156105aa57600080fd5b505af11580156105be573d6000803e3d6000fd5b505050505050565b6105ce610708565b73ffffffffffffffffffffffffffffffffffffffff166105ec6102ca565b73ffffffffffffffffffffffffffffffffffffffff1614610642576040517f08c379a000000000000000000000000000000000000000000000000000000000815260040161063990610b0f565b60405180910390fd5b565b60008060009054906101000a900473ffffffffffffffffffffffffffffffffffffffff169050816000806101000a81548173ffffffffffffffffffffffffffffffffffffffff021916908373ffffffffffffffffffffffffffffffffffffffff1602179055508173ffffffffffffffffffffffffffffffffffffffff168173ffffffffffffffffffffffffffffffffffffffff167f8be0079c531659141344cd1fd0a4f28419497f9722a3daafe3b4186f6b6457e060405160405180910390a35050565b600033905090565b600061072361071e84610bbf565b610b9a565b9050808382526020820190508285602086028201111561074657610745610d48565b5b60005b85811015610776578161075c88826107c3565b845260208401935060208301925050600181019050610749565b5050509392505050565b60008135905061078f81610e32565b92915050565b600082601f8301126107aa576107a9610d43565b5b81356107ba848260208601610710565b91505092915050565b6000813590506107d281610e49565b92915050565b6000815190506107e781610e49565b92915050565b60006020828403121561080357610802610d52565b5b600061081184828501610780565b91505092915050565b6000602082840312156108305761082f610d52565b5b600061083e848285016107d8565b91505092915050565b6000806040838503121561085e5761085d610d52565b5b600061086c858286016107c3565b925050602083013567ffffffffffffffff81111561088d5761088c610d4d565b5b61089985828601610795565b9150509250929050565b60006108af83836109e1565b60208301905092915050565b6108c481610c35565b82525050565b60006108d582610bfb565b6108df8185610c13565b93506108ea83610beb565b8060005b8381101561091b57815161090288826108a3565b975061090d83610c06565b9250506001810190506108ee565b5085935050505092915050565b61093181610c47565b82525050565b61094081610cad565b82525050565b6000610953602683610c24565b915061095e82610d68565b604082019050919050565b6000610976601183610c24565b915061098182610db7565b602082019050919050565b6000610999602083610c24565b91506109a482610de0565b602082019050919050565b60006109bc601a83610c24565b91506109c782610e09565b602082019050919050565b6109db81610c51565b82525050565b6109ea81610c7f565b82525050565b6109f981610c7f565b82525050565b610a0881610c89565b82525050565b610a1781610c99565b82525050565b6000602082019050610a3260008301846108bb565b92915050565b6000604082019050610a4d60008301856108bb565b610a5a60208301846108bb565b9392505050565b600060a082019050610a766000830188610928565b610a836020830187610a0e565b610a9060408301866109d2565b610a9d60608301856109ff565b610aaa60808301846109ff565b9695505050505050565b6000602082019050610ac96000830184610937565b92915050565b60006020820190508181036000830152610ae881610946565b9050919050565b60006020820190508181036000830152610b0881610969565b9050919050565b60006020820190508181036000830152610b288161098c565b9050919050565b60006020820190508181036000830152610b48816109af565b9050919050565b6000602082019050610b6460008301846109f0565b92915050565b6000604082019050610b7f60008301856109f0565b8181036020830152610b9181846108ca565b90509392505050565b6000610ba4610bb5565b9050610bb08282610ce3565b919050565b6000604051905090565b600067ffffffffffffffff821115610bda57610bd9610d14565b5b602082029050602081019050919050565b6000819050602082019050919050565b600081519050919050565b6000602082019050919050565b600082825260208201905092915050565b600082825260208201905092915050565b6000610c4082610c5f565b9050919050565b6000819050919050565b600061ffff82169050919050565b600073ffffffffffffffffffffffffffffffffffffffff82169050919050565b6000819050919050565b600063ffffffff82169050919050565b600067ffffffffffffffff82169050919050565b6000610cb882610cbf565b9050919050565b6000610cca82610cd1565b9050919050565b6000610cdc82610c5f565b9050919050565b610cec82610d57565b810181811067ffffffffffffffff82111715610d0b57610d0a610d14565b5b80604052505050565b7f4e487b7100000000000000000000000000000000000000000000000000000000600052604160045260246000fd5b600080fd5b600080fd5b600080fd5b600080fd5b6000601f19601f8301169050919050565b7f4f776e61626c653a206e6577206f776e657220697320746865207a65726f206160008201527f6464726573730000000000000000000000000000000000000000000000000000602082015250565b7f43616c6c6572206e6f742045786f746963000000000000000000000000000000600082015250565b7f4f776e61626c653a2063616c6c6572206973206e6f7420746865206f776e6572600082015250565b7f416464726573732063616e277420626520302061646472657373000000000000600082015250565b610e3b81610c35565b8114610e4657600080fd5b50565b610e5281610c7f565b8114610e5d57600080fd5b5056fea264697066735822122092115f8694699b7f9b965ee6d63390200cc8417fcefcb585bbd711ca800d197164736f6c63430008070033",
  "devdoc": {
    "kind": "dev",
    "methods": {
      "owner()": {
        "details": "Returns the address of the current owner."
      },
      "renounceOwnership()": {
        "details": "Leaves the contract without owner. It will not be possible to call `onlyOwner` functions anymore. Can only be called by the current owner. NOTE: Renouncing ownership will leave the contract without an owner, thereby removing any functionality that is only available to the owner."
      },
      "transferOwnership(address)": {
        "details": "Transfers ownership of the contract to a new account (`newOwner`). Can only be called by the current owner."
      }
    },
    "title": "Random source for results of games.",
    "version": 1
  },
  "userdoc": {
    "kind": "user",
    "methods": {},
    "version": 1
  },
  "storageLayout": {
    "storage": [
      {
        "astId": 539,
        "contract": "contracts/RandomProvider.sol:RandomProvider",
        "label": "_owner",
        "offset": 0,
        "slot": "0",
        "type": "t_address"
      },
      {
        "astId": 1701,
        "contract": "contracts/RandomProvider.sol:RandomProvider",
        "label": "COORDINATOR",
        "offset": 0,
        "slot": "1",
        "type": "t_contract(VRFCoordinatorV2Interface)146"
      },
      {
        "astId": 1703,
        "contract": "contracts/RandomProvider.sol:RandomProvider",
        "label": "s_subscriptionId",
        "offset": 20,
        "slot": "1",
        "type": "t_uint64"
      },
      {
        "astId": 1705,
        "contract": "contracts/RandomProvider.sol:RandomProvider",
        "label": "vrfCoordinator",
        "offset": 0,
        "slot": "2",
        "type": "t_address"
      },
      {
        "astId": 1708,
        "contract": "contracts/RandomProvider.sol:RandomProvider",
        "label": "keyHash",
        "offset": 0,
        "slot": "3",
        "type": "t_bytes32"
      },
      {
        "astId": 1711,
        "contract": "contracts/RandomProvider.sol:RandomProvider",
        "label": "callbackGasLimit",
        "offset": 0,
        "slot": "4",
        "type": "t_uint32"
      },
      {
        "astId": 1714,
        "contract": "contracts/RandomProvider.sol:RandomProvider",
        "label": "requestConfirmations",
        "offset": 4,
        "slot": "4",
        "type": "t_uint16"
      },
      {
        "astId": 1717,
        "contract": "contracts/RandomProvider.sol:RandomProvider",
        "label": "numWords",
        "offset": 6,
        "slot": "4",
        "type": "t_uint32"
      },
      {
        "astId": 1720,
        "contract": "contracts/RandomProvider.sol:RandomProvider",
        "label": "exotic",
        "offset": 10,
        "slot": "4",
        "type": "t_contract(IExotic)1821"
      }
    ],
    "types": {
      "t_address": {
        "encoding": "inplace",
        "label": "address",
        "numberOfBytes": "20"
      },
      "t_bytes32": {
        "encoding": "inplace",
        "label": "bytes32",
        "numberOfBytes": "32"
      },
      "t_contract(IExotic)1821": {
        "encoding": "inplace",
        "label": "contract IExotic",
        "numberOfBytes": "20"
      },
      "t_contract(VRFCoordinatorV2Interface)146": {
        "encoding": "inplace",
        "label": "contract VRFCoordinatorV2Interface",
        "numberOfBytes": "20"
      },
      "t_uint16": {
        "encoding": "inplace",
        "label": "uint16",
        "numberOfBytes": "2"
      },
      "t_uint32": {
        "encoding": "inplace",
        "label": "uint32",
        "numberOfBytes": "4"
      },
      "t_uint64": {
        "encoding": "inplace",
        "label": "uint64",
        "numberOfBytes": "8"
      }
    }
  }
}