{
  "address": "0xaa303EE57db6433B3f9176C92a1443081aede886",
  "abi": [
    {
      "inputs": [
        {
          "internalType": "uint64",
          "name": "subscriptionId",
          "type": "uint64"
        },
        {
          "internalType": "address",
          "name": "_vrfCoordinator",
          "type": "address"
        }
      ],
      "stateMutability": "nonpayable",
      "type": "constructor"
    },
    {
      "inputs": [
        {
          "internalType": "address",
          "name": "have",
          "type": "address"
        },
        {
          "internalType": "address",
          "name": "want",
          "type": "address"
        }
      ],
      "name": "OnlyCoordinatorCanFulfill",
      "type": "error"
    },
    {
      "anonymous": false,
      "inputs": [
        {
          "indexed": true,
          "internalType": "address",
          "name": "previousOwner",
          "type": "address"
        },
        {
          "indexed": true,
          "internalType": "address",
          "name": "newOwner",
          "type": "address"
        }
      ],
      "name": "OwnershipTransferred",
      "type": "event"
    },
    {
      "inputs": [],
      "name": "exotic",
      "outputs": [
        {
          "internalType": "contract IExotic",
          "name": "",
          "type": "address"
        }
      ],
      "stateMutability": "view",
      "type": "function"
    },
    {
      "inputs": [],
      "name": "owner",
      "outputs": [
        {
          "internalType": "address",
          "name": "",
          "type": "address"
        }
      ],
      "stateMutability": "view",
      "type": "function"
    },
    {
      "inputs": [
        {
          "internalType": "uint256",
          "name": "requestId",
          "type": "uint256"
        },
        {
          "internalType": "uint256[]",
          "name": "randomWords",
          "type": "uint256[]"
        }
      ],
      "name": "rawFulfillRandomWords",
      "outputs": [],
      "stateMutability": "nonpayable",
      "type": "function"
    },
    {
      "inputs": [],
      "name": "renounceOwnership",
      "outputs": [],
      "stateMutability": "nonpayable",
      "type": "function"
    },
    {
      "inputs": [],
      "name": "requestRandomWords",
      "outputs": [
        {
          "internalType": "uint256",
          "name": "",
          "type": "uint256"
        }
      ],
      "stateMutability": "nonpayable",
      "type": "function"
    },
    {
      "inputs": [
        {
          "internalType": "address",
          "name": "_exoticAddress",
          "type": "address"
        }
      ],
      "name": "setExoticAddress",
      "outputs": [],
      "stateMutability": "nonpayable",
      "type": "function"
    },
    {
      "inputs": [
        {
          "internalType": "address",
          "name": "newOwner",
          "type": "address"
        }
      ],
      "name": "transferOwnership",
      "outputs": [],
      "stateMutability": "nonpayable",
      "type": "function"
    }
  ],
  "transactionHash": "0x02016cd53890c8a4fd92f42bcdaafdc19b41543e5f6a22bbf56953a97bbdffea",
  "args": [
    167,
    "0x2eD832Ba664535e5886b75D64C46EB9a228C2610"
  ],
  "numDeployments": 1,
  "solcInputHash": "6fa4c5e9da472f11f4ab50d8885d483b",
  "bytecode": "0x60a06040527f354d2f95da55398f44b7cff77da56283d9c6c829a4bdf1bbcaf2ad6a4d081f61600355600480546001600160501b0319166601000300030d4017905534801561004d57600080fd5b5060405161092138038061092183398101604081905261006c91610112565b606081901b6001600160601b031916608052610087336100c2565b600180546001600160401b03909316600160a01b026001600160e01b03199093166001600160a01b0390921691909117919091179055610164565b600080546001600160a01b038381166001600160a01b0319831681178455604051919092169283917f8be0079c531659141344cd1fd0a4f28419497f9722a3daafe3b4186f6b6457e09190a35050565b6000806040838503121561012557600080fd5b82516001600160401b038116811461013c57600080fd5b60208401519092506001600160a01b038116811461015957600080fd5b809150509250929050565b60805160601c61079861018960003960008181610131015261018c01526107986000f3fe608060405234801561001057600080fd5b506004361061007d5760003560e01c80638da5cb5b1161005b5780638da5cb5b146100b2578063e0c86289146100dc578063f2fde38b146100f2578063f754fd961461010557600080fd5b80631fe543e314610082578063715018a614610097578063877a17e71461009f575b600080fd5b610095610090366004610614565b610126565b005b6100956101cc565b6100956100ad3660046105cb565b6101e0565b6000546001600160a01b03165b6040516001600160a01b0390911681526020015b60405180910390f35b6100e4610286565b6040519081526020016100d3565b6100956101003660046105cb565b6103ec565b6004546100bf906a010000000000000000000090046001600160a01b031681565b336001600160a01b037f000000000000000000000000000000000000000000000000000000000000000016146101be576040517f1cf993f40000000000000000000000000000000000000000000000000000000081523360048201526001600160a01b037f00000000000000000000000000000000000000000000000000000000000000001660248201526044015b60405180910390fd5b6101c8828261047c565b5050565b6101d4610509565b6101de6000610563565b565b6101e8610509565b6001600160a01b03811661023e5760405162461bcd60e51b815260206004820152601a60248201527f416464726573732063616e27742062652030206164647265737300000000000060448201526064016101b5565b600480546001600160a01b039092166a0100000000000000000000027fffff0000000000000000000000000000000000000000ffffffffffffffffffff909216919091179055565b6004546000906a010000000000000000000090046001600160a01b031633146102f15760405162461bcd60e51b815260206004820152601160248201527f43616c6c6572206e6f742045786f74696300000000000000000000000000000060448201526064016101b5565b600154600354600480546040517f5d3b1d300000000000000000000000000000000000000000000000000000000081529182019290925274010000000000000000000000000000000000000000830467ffffffffffffffff166024820152640100000000820461ffff16604482015263ffffffff8083166064830152660100000000000090920490911660848201526001600160a01b0390911690635d3b1d309060a401602060405180830381600087803b1580156103af57600080fd5b505af11580156103c3573d6000803e3d6000fd5b505050506040513d601f19601f820116820180604052508101906103e791906105fb565b905090565b6103f4610509565b6001600160a01b0381166104705760405162461bcd60e51b815260206004820152602660248201527f4f776e61626c653a206e6577206f776e657220697320746865207a65726f206160448201527f646472657373000000000000000000000000000000000000000000000000000060648201526084016101b5565b61047981610563565b50565b600480546040517f165f11250000000000000000000000000000000000000000000000000000000081526a01000000000000000000009091046001600160a01b03169163165f1125916104d39186918691016106e5565b600060405180830381600087803b1580156104ed57600080fd5b505af1158015610501573d6000803e3d6000fd5b505050505050565b6000546001600160a01b031633146101de5760405162461bcd60e51b815260206004820181905260248201527f4f776e61626c653a2063616c6c6572206973206e6f7420746865206f776e657260448201526064016101b5565b600080546001600160a01b038381167fffffffffffffffffffffffff0000000000000000000000000000000000000000831681178455604051919092169283917f8be0079c531659141344cd1fd0a4f28419497f9722a3daafe3b4186f6b6457e09190a35050565b6000602082840312156105dd57600080fd5b81356001600160a01b03811681146105f457600080fd5b9392505050565b60006020828403121561060d57600080fd5b5051919050565b6000806040838503121561062757600080fd5b8235915060208084013567ffffffffffffffff8082111561064757600080fd5b818601915086601f83011261065b57600080fd5b81358181111561066d5761066d610733565b8060051b604051601f19603f8301168101818110858211171561069257610692610733565b604052828152858101935084860182860187018b10156106b157600080fd5b600095505b838610156106d45780358552600195909501949386019386016106b6565b508096505050505050509250929050565b6000604082018483526020604081850152818551808452606086019150828701935060005b818110156107265784518352938301939183019160010161070a565b5090979650505050505050565b7f4e487b7100000000000000000000000000000000000000000000000000000000600052604160045260246000fdfea264697066735822122012739872ac301bebb7ca64b653c1e27f5a4552e6262455ee73f9496c6103013b64736f6c63430008070033",
  "devdoc": {
    "kind": "dev",
    "methods": {
      "owner()": {
        "details": "Returns the address of the current owner."
      },
      "renounceOwnership()": {
        "details": "Leaves the contract without owner. It will not be possible to call `onlyOwner` functions anymore. Can only be called by the current owner. NOTE: Renouncing ownership will leave the contract without an owner, thereby removing any functionality that is only available to the owner."
      },
      "transferOwnership(address)": {
        "details": "Transfers ownership of the contract to a new account (`newOwner`). Can only be called by the current owner."
      }
    },
    "title": "Random source for results of games.",
    "version": 1
  },
  "userdoc": {
    "kind": "user",
    "methods": {},
    "version": 1
  },
  "storageLayout": {
    "storage": [
      {
        "astId": 783,
        "contract": "contracts/RandomProvider.sol:RandomProvider",
        "label": "_owner",
        "offset": 0,
        "slot": "0",
        "type": "t_address"
      },
      {
        "astId": 4915,
        "contract": "contracts/RandomProvider.sol:RandomProvider",
        "label": "COORDINATOR",
        "offset": 0,
        "slot": "1",
        "type": "t_contract(VRFCoordinatorV2Interface)146"
      },
      {
        "astId": 4917,
        "contract": "contracts/RandomProvider.sol:RandomProvider",
        "label": "s_subscriptionId",
        "offset": 20,
        "slot": "1",
        "type": "t_uint64"
      },
      {
        "astId": 4919,
        "contract": "contracts/RandomProvider.sol:RandomProvider",
        "label": "vrfCoordinator",
        "offset": 0,
        "slot": "2",
        "type": "t_address"
      },
      {
        "astId": 4922,
        "contract": "contracts/RandomProvider.sol:RandomProvider",
        "label": "keyHash",
        "offset": 0,
        "slot": "3",
        "type": "t_bytes32"
      },
      {
        "astId": 4925,
        "contract": "contracts/RandomProvider.sol:RandomProvider",
        "label": "callbackGasLimit",
        "offset": 0,
        "slot": "4",
        "type": "t_uint32"
      },
      {
        "astId": 4928,
        "contract": "contracts/RandomProvider.sol:RandomProvider",
        "label": "requestConfirmations",
        "offset": 4,
        "slot": "4",
        "type": "t_uint16"
      },
      {
        "astId": 4931,
        "contract": "contracts/RandomProvider.sol:RandomProvider",
        "label": "numWords",
        "offset": 6,
        "slot": "4",
        "type": "t_uint32"
      },
      {
        "astId": 4934,
        "contract": "contracts/RandomProvider.sol:RandomProvider",
        "label": "exotic",
        "offset": 10,
        "slot": "4",
        "type": "t_contract(IExotic)6351"
      }
    ],
    "types": {
      "t_address": {
        "encoding": "inplace",
        "label": "address",
        "numberOfBytes": "20"
      },
      "t_bytes32": {
        "encoding": "inplace",
        "label": "bytes32",
        "numberOfBytes": "32"
      },
      "t_contract(IExotic)6351": {
        "encoding": "inplace",
        "label": "contract IExotic",
        "numberOfBytes": "20"
      },
      "t_contract(VRFCoordinatorV2Interface)146": {
        "encoding": "inplace",
        "label": "contract VRFCoordinatorV2Interface",
        "numberOfBytes": "20"
      },
      "t_uint16": {
        "encoding": "inplace",
        "label": "uint16",
        "numberOfBytes": "2"
      },
      "t_uint32": {
        "encoding": "inplace",
        "label": "uint32",
        "numberOfBytes": "4"
      },
      "t_uint64": {
        "encoding": "inplace",
        "label": "uint64",
        "numberOfBytes": "8"
      }
    }
  }
}