{
  "address": "0x34A27e7311bFb13C8A3Dd81E21a7Cc118068Ba9A",
  "abi": [
    {
      "inputs": [
        {
          "internalType": "uint256",
          "name": "_rate",
          "type": "uint256"
        },
        {
          "internalType": "address",
          "name": "_game",
          "type": "address"
        }
      ],
      "stateMutability": "nonpayable",
      "type": "constructor"
    },
    {
      "anonymous": false,
      "inputs": [
        {
          "indexed": true,
          "internalType": "address",
          "name": "game",
          "type": "address"
        }
      ],
      "name": "GameUpdated",
      "type": "event"
    },
    {
      "anonymous": false,
      "inputs": [
        {
          "indexed": true,
          "internalType": "address",
          "name": "previousOwner",
          "type": "address"
        },
        {
          "indexed": true,
          "internalType": "address",
          "name": "newOwner",
          "type": "address"
        }
      ],
      "name": "OwnershipTransferred",
      "type": "event"
    },
    {
      "anonymous": false,
      "inputs": [
        {
          "indexed": false,
          "internalType": "uint256",
          "name": "rate",
          "type": "uint256"
        }
      ],
      "name": "RateUpdated",
      "type": "event"
    },
    {
      "anonymous": false,
      "inputs": [
        {
          "indexed": true,
          "internalType": "address",
          "name": "token",
          "type": "address"
        }
      ],
      "name": "RewardTokenSet",
      "type": "event"
    },
    {
      "inputs": [
        {
          "internalType": "address",
          "name": "user",
          "type": "address"
        },
        {
          "internalType": "uint256",
          "name": "betAmount",
          "type": "uint256"
        }
      ],
      "name": "addReward",
      "outputs": [],
      "stateMutability": "nonpayable",
      "type": "function"
    },
    {
      "inputs": [
        {
          "internalType": "address",
          "name": "user",
          "type": "address"
        },
        {
          "internalType": "uint256",
          "name": "betAmount",
          "type": "uint256"
        },
        {
          "internalType": "uint64",
          "name": "rollId",
          "type": "uint64"
        }
      ],
      "name": "addRewardAdjusted",
      "outputs": [],
      "stateMutability": "nonpayable",
      "type": "function"
    },
    {
      "inputs": [
        {
          "internalType": "address",
          "name": "",
          "type": "address"
        }
      ],
      "name": "available",
      "outputs": [
        {
          "internalType": "uint256",
          "name": "",
          "type": "uint256"
        }
      ],
      "stateMutability": "view",
      "type": "function"
    },
    {
      "inputs": [],
      "name": "claim",
      "outputs": [],
      "stateMutability": "nonpayable",
      "type": "function"
    },
    {
      "inputs": [
        {
          "internalType": "address",
          "name": "user",
          "type": "address"
        }
      ],
      "name": "claimable",
      "outputs": [
        {
          "internalType": "uint256",
          "name": "",
          "type": "uint256"
        }
      ],
      "stateMutability": "view",
      "type": "function"
    },
    {
      "inputs": [
        {
          "internalType": "address",
          "name": "",
          "type": "address"
        }
      ],
      "name": "claimed",
      "outputs": [
        {
          "internalType": "uint256",
          "name": "",
          "type": "uint256"
        }
      ],
      "stateMutability": "view",
      "type": "function"
    },
    {
      "inputs": [],
      "name": "game",
      "outputs": [
        {
          "internalType": "address",
          "name": "",
          "type": "address"
        }
      ],
      "stateMutability": "view",
      "type": "function"
    },
    {
      "inputs": [],
      "name": "owner",
      "outputs": [
        {
          "internalType": "address",
          "name": "",
          "type": "address"
        }
      ],
      "stateMutability": "view",
      "type": "function"
    },
    {
      "inputs": [],
      "name": "rate",
      "outputs": [
        {
          "internalType": "uint256",
          "name": "",
          "type": "uint256"
        }
      ],
      "stateMutability": "view",
      "type": "function"
    },
    {
      "inputs": [],
      "name": "renounceOwnership",
      "outputs": [],
      "stateMutability": "nonpayable",
      "type": "function"
    },
    {
      "inputs": [
        {
          "internalType": "uint256",
          "name": "betAmount",
          "type": "uint256"
        },
        {
          "internalType": "uint64",
          "name": "rollId",
          "type": "uint64"
        }
      ],
      "name": "rewardableAmount",
      "outputs": [
        {
          "internalType": "uint256",
          "name": "",
          "type": "uint256"
        }
      ],
      "stateMutability": "view",
      "type": "function"
    },
    {
      "inputs": [
        {
          "internalType": "contract IERC20",
          "name": "_token",
          "type": "address"
        }
      ],
      "name": "setToken",
      "outputs": [],
      "stateMutability": "nonpayable",
      "type": "function"
    },
    {
      "inputs": [],
      "name": "sweep",
      "outputs": [],
      "stateMutability": "nonpayable",
      "type": "function"
    },
    {
      "inputs": [
        {
          "internalType": "address",
          "name": "newOwner",
          "type": "address"
        }
      ],
      "name": "transferOwnership",
      "outputs": [],
      "stateMutability": "nonpayable",
      "type": "function"
    },
    {
      "inputs": [
        {
          "internalType": "address",
          "name": "_game",
          "type": "address"
        }
      ],
      "name": "updateGame",
      "outputs": [],
      "stateMutability": "nonpayable",
      "type": "function"
    },
    {
      "inputs": [
        {
          "internalType": "uint256",
          "name": "_newRate",
          "type": "uint256"
        }
      ],
      "name": "updateRate",
      "outputs": [],
      "stateMutability": "nonpayable",
      "type": "function"
    },
    {
      "inputs": [],
      "name": "xtc",
      "outputs": [
        {
          "internalType": "contract IERC20",
          "name": "",
          "type": "address"
        }
      ],
      "stateMutability": "view",
      "type": "function"
    }
  ],
  "transactionHash": "0x23fca6c3965e45e44f4b21e11559f27c5ce045a002fe346b6323afe3516ff80b",
  "args": [
    10000,
    "0x2D6B6438F3ef8e9daf28ebD16E54A7e91C0152BC"
  ],
  "numDeployments": 1,
  "solcInputHash": "5aecb5f4f8e044c2faafbd94f8fd9c72",
  "bytecode": "0x608060405234801561001057600080fd5b50604051610d70380380610d7083398101604081905261002f916100b2565b61003833610062565b600491909155600580546001600160a01b0319166001600160a01b039092169190911790556100ef565b600080546001600160a01b038381166001600160a01b0319831681178455604051919092169283917f8be0079c531659141344cd1fd0a4f28419497f9722a3daafe3b4186f6b6457e09190a35050565b600080604083850312156100c557600080fd5b825160208401519092506001600160a01b03811681146100e457600080fd5b809150509250929050565b610c72806100fe6000396000f3fe608060405234801561001057600080fd5b506004361061011b5760003560e01c806351f39e06116100b25780639feb8f5011610081578063c884ef8311610066578063c884ef8314610237578063eae4914414610257578063f2fde38b1461026a57600080fd5b80639feb8f5014610211578063c3fe3e281461022457600080fd5b806351f39e06146101d257806369ea1771146101e5578063715018a6146101f85780638da5cb5b1461020057600080fd5b806335faa416116100ee57806335faa41614610184578063402914f51461018c57806347f6f34a1461019f5780634e71d92d146101ca57600080fd5b80630b79736e1461012057806310098ad514610135578063144fa6d7146101685780632c4e722e1461017b575b600080fd5b61013361012e366004610a93565b61027d565b005b610155610143366004610a93565b60016020526000908152604090205481565b6040519081526020015b60405180910390f35b610133610176366004610a93565b6102dc565b61015560045481565b610133610396565b61015561019a366004610a93565b610520565b6003546101b2906001600160a01b031681565b6040516001600160a01b03909116815260200161015f565b610133610554565b6101336101e0366004610ae3565b61068e565b6101336101f3366004610b43565b6107a5565b6101336107e8565b6000546001600160a01b03166101b2565b61013361021f366004610ab7565b6107fa565b6005546101b2906001600160a01b031681565b610155610245366004610a93565b60026020526000908152604090205481565b610155610265366004610b75565b6108a0565b610133610278366004610a93565b610932565b6102856109bf565b6005805473ffffffffffffffffffffffffffffffffffffffff19166001600160a01b0383169081179091556040517f95faa39e28b11c7b6efeb8f394d6c96d0f08ad733b7ff855af52f44942310f5190600090a250565b6102e46109bf565b6001600160a01b03811661033f5760405162461bcd60e51b815260206004820152601f60248201527f52657761726420746f6b656e2063616e2774206265203020616464726573730060448201526064015b60405180910390fd5b6003805473ffffffffffffffffffffffffffffffffffffffff19166001600160a01b0383169081179091556040517f2d6b04df9b7d358407d1a014f1114b064add34c19d63d395db155a7e533e967a90600090a250565b61039e6109bf565b6003546040517f70a082310000000000000000000000000000000000000000000000000000000081523060048201526001600160a01b039091169063a9059cbb90339083906370a082319060240160206040518083038186803b15801561040457600080fd5b505afa158015610418573d6000803e3d6000fd5b505050506040513d601f19601f8201168201806040525081019061043c9190610b5c565b6040517fffffffff0000000000000000000000000000000000000000000000000000000060e085901b1681526001600160a01b0390921660048301526024820152604401602060405180830381600087803b15801561049a57600080fd5b505af11580156104ae573d6000803e3d6000fd5b505050506040513d601f19601f820116820180604052508101906104d29190610b21565b61051e5760405162461bcd60e51b815260206004820152600f60248201527f6661696c656420746f20737765657000000000000000000000000000000000006044820152606401610336565b565b6001600160a01b038116600090815260026020908152604080832054600190925282205461054e9190610bfa565b92915050565b3360009081526002602090815260408083205460019092528220546105799190610bfa565b3360009081526002602052604081208054929350839290919061059d908490610ba1565b90915550506003546040517fa9059cbb000000000000000000000000000000000000000000000000000000008152336004820152602481018390526001600160a01b039091169063a9059cbb90604401602060405180830381600087803b15801561060757600080fd5b505af115801561061b573d6000803e3d6000fd5b505050506040513d601f19601f8201168201806040525081019061063f9190610b21565b61068b5760405162461bcd60e51b815260206004820152600e60248201527f6661696c656420746f2073656e640000000000000000000000000000000000006044820152606401610336565b50565b6005546001600160a01b031633146106e85760405162461bcd60e51b815260206004820152600f60248201527f43616c6c6572206e6f742067616d6500000000000000000000000000000000006044820152606401610336565b6000428267ffffffffffffffff161015610705575060045461075b565b6000603c61071d4267ffffffffffffffff8616610bfa565b6107279190610bb9565b9050600a81111561073c576004549150610759565b600a8160045461074c9190610bdb565b6107569190610bb9565b91505b505b6127106107688285610bdb565b6107729190610bb9565b6001600160a01b0385166000908152600160205260408120805490919061079a908490610ba1565b909155505050505050565b6107ad6109bf565b60048190556040518181527fe65c987b2e4668e09ba867026921588005b2b2063607a1e7e7d91683c8f91b7b9060200160405180910390a150565b6107f06109bf565b61051e6000610a19565b6005546001600160a01b031633146108545760405162461bcd60e51b815260206004820152600f60248201527f43616c6c6572206e6f742067616d6500000000000000000000000000000000006044820152606401610336565b612710600454826108659190610bdb565b61086f9190610bb9565b6001600160a01b03831660009081526001602052604081208054909190610897908490610ba1565b90915550505050565b600080428367ffffffffffffffff1610156108be5750600454610913565b6000603c6108d64267ffffffffffffffff8716610bfa565b6108e09190610bb9565b9050600a81106108f4576004549150610911565b600a816004546109049190610bdb565b61090e9190610bb9565b91505b505b6127106109208286610bdb565b61092a9190610bb9565b949350505050565b61093a6109bf565b6001600160a01b0381166109b65760405162461bcd60e51b815260206004820152602660248201527f4f776e61626c653a206e6577206f776e657220697320746865207a65726f206160448201527f64647265737300000000000000000000000000000000000000000000000000006064820152608401610336565b61068b81610a19565b6000546001600160a01b0316331461051e5760405162461bcd60e51b815260206004820181905260248201527f4f776e61626c653a2063616c6c6572206973206e6f7420746865206f776e65726044820152606401610336565b600080546001600160a01b0383811673ffffffffffffffffffffffffffffffffffffffff19831681178455604051919092169283917f8be0079c531659141344cd1fd0a4f28419497f9722a3daafe3b4186f6b6457e09190a35050565b803567ffffffffffffffff81168114610a8e57600080fd5b919050565b600060208284031215610aa557600080fd5b8135610ab081610c27565b9392505050565b60008060408385031215610aca57600080fd5b8235610ad581610c27565b946020939093013593505050565b600080600060608486031215610af857600080fd5b8335610b0381610c27565b925060208401359150610b1860408501610a76565b90509250925092565b600060208284031215610b3357600080fd5b81518015158114610ab057600080fd5b600060208284031215610b5557600080fd5b5035919050565b600060208284031215610b6e57600080fd5b5051919050565b60008060408385031215610b8857600080fd5b82359150610b9860208401610a76565b90509250929050565b60008219821115610bb457610bb4610c11565b500190565b600082610bd657634e487b7160e01b600052601260045260246000fd5b500490565b6000816000190483118215151615610bf557610bf5610c11565b500290565b600082821015610c0c57610c0c610c11565b500390565b634e487b7160e01b600052601160045260246000fd5b6001600160a01b038116811461068b57600080fdfea2646970667358221220214d592986b26f9b39bceaf178b12a2e2377917b2243a2a6fefffca495ace66b64736f6c63430008070033",
  "devdoc": {
    "kind": "dev",
    "methods": {
      "owner()": {
        "details": "Returns the address of the current owner."
      },
      "renounceOwnership()": {
        "details": "Leaves the contract without owner. It will not be possible to call `onlyOwner` functions anymore. Can only be called by the current owner. NOTE: Renouncing ownership will leave the contract without an owner, thereby removing any functionality that is only available to the owner."
      },
      "transferOwnership(address)": {
        "details": "Transfers ownership of the contract to a new account (`newOwner`). Can only be called by the current owner."
      }
    },
    "version": 1
  },
  "userdoc": {
    "kind": "user",
    "methods": {
      "sweep()": {
        "notice": "Remove all incentive tokens from this contract."
      }
    },
    "version": 1
  },
  "storageLayout": {
    "storage": [
      {
        "astId": 705,
        "contract": "contracts/Reward.sol:Rewarder",
        "label": "_owner",
        "offset": 0,
        "slot": "0",
        "type": "t_address"
      },
      {
        "astId": 5148,
        "contract": "contracts/Reward.sol:Rewarder",
        "label": "available",
        "offset": 0,
        "slot": "1",
        "type": "t_mapping(t_address,t_uint256)"
      },
      {
        "astId": 5152,
        "contract": "contracts/Reward.sol:Rewarder",
        "label": "claimed",
        "offset": 0,
        "slot": "2",
        "type": "t_mapping(t_address,t_uint256)"
      },
      {
        "astId": 5155,
        "contract": "contracts/Reward.sol:Rewarder",
        "label": "xtc",
        "offset": 0,
        "slot": "3",
        "type": "t_contract(IERC20)1769"
      },
      {
        "astId": 5157,
        "contract": "contracts/Reward.sol:Rewarder",
        "label": "rate",
        "offset": 0,
        "slot": "4",
        "type": "t_uint256"
      },
      {
        "astId": 5159,
        "contract": "contracts/Reward.sol:Rewarder",
        "label": "game",
        "offset": 0,
        "slot": "5",
        "type": "t_address"
      }
    ],
    "types": {
      "t_address": {
        "encoding": "inplace",
        "label": "address",
        "numberOfBytes": "20"
      },
      "t_contract(IERC20)1769": {
        "encoding": "inplace",
        "label": "contract IERC20",
        "numberOfBytes": "20"
      },
      "t_mapping(t_address,t_uint256)": {
        "encoding": "mapping",
        "key": "t_address",
        "label": "mapping(address => uint256)",
        "numberOfBytes": "32",
        "value": "t_uint256"
      },
      "t_uint256": {
        "encoding": "inplace",
        "label": "uint256",
        "numberOfBytes": "32"
      }
    }
  }
}