{
  "address": "0xd0c6A1Aff8505f5BF2596AE9d0C317FAAc59a6F5",
  "abi": [
    {
      "inputs": [
        {
          "internalType": "uint256",
          "name": "_rate",
          "type": "uint256"
        },
        {
          "internalType": "address",
          "name": "_game",
          "type": "address"
        }
      ],
      "stateMutability": "nonpayable",
      "type": "constructor"
    },
    {
      "anonymous": false,
      "inputs": [
        {
          "indexed": true,
          "internalType": "address",
          "name": "game",
          "type": "address"
        }
      ],
      "name": "GameUpdated",
      "type": "event"
    },
    {
      "anonymous": false,
      "inputs": [
        {
          "indexed": true,
          "internalType": "address",
          "name": "previousOwner",
          "type": "address"
        },
        {
          "indexed": true,
          "internalType": "address",
          "name": "newOwner",
          "type": "address"
        }
      ],
      "name": "OwnershipTransferred",
      "type": "event"
    },
    {
      "anonymous": false,
      "inputs": [
        {
          "indexed": false,
          "internalType": "uint256",
          "name": "rate",
          "type": "uint256"
        }
      ],
      "name": "RateUpdated",
      "type": "event"
    },
    {
      "anonymous": false,
      "inputs": [
        {
          "indexed": true,
          "internalType": "address",
          "name": "token",
          "type": "address"
        }
      ],
      "name": "RewardTokenSet",
      "type": "event"
    },
    {
      "inputs": [
        {
          "internalType": "address",
          "name": "user",
          "type": "address"
        },
        {
          "internalType": "uint256",
          "name": "betAmount",
          "type": "uint256"
        }
      ],
      "name": "addReward",
      "outputs": [],
      "stateMutability": "nonpayable",
      "type": "function"
    },
    {
      "inputs": [
        {
          "internalType": "address",
          "name": "",
          "type": "address"
        }
      ],
      "name": "available",
      "outputs": [
        {
          "internalType": "uint256",
          "name": "",
          "type": "uint256"
        }
      ],
      "stateMutability": "view",
      "type": "function"
    },
    {
      "inputs": [],
      "name": "claim",
      "outputs": [],
      "stateMutability": "nonpayable",
      "type": "function"
    },
    {
      "inputs": [
        {
          "internalType": "address",
          "name": "user",
          "type": "address"
        }
      ],
      "name": "claimable",
      "outputs": [
        {
          "internalType": "uint256",
          "name": "",
          "type": "uint256"
        }
      ],
      "stateMutability": "view",
      "type": "function"
    },
    {
      "inputs": [
        {
          "internalType": "address",
          "name": "",
          "type": "address"
        }
      ],
      "name": "claimed",
      "outputs": [
        {
          "internalType": "uint256",
          "name": "",
          "type": "uint256"
        }
      ],
      "stateMutability": "view",
      "type": "function"
    },
    {
      "inputs": [],
      "name": "game",
      "outputs": [
        {
          "internalType": "address",
          "name": "",
          "type": "address"
        }
      ],
      "stateMutability": "view",
      "type": "function"
    },
    {
      "inputs": [],
      "name": "owner",
      "outputs": [
        {
          "internalType": "address",
          "name": "",
          "type": "address"
        }
      ],
      "stateMutability": "view",
      "type": "function"
    },
    {
      "inputs": [],
      "name": "rate",
      "outputs": [
        {
          "internalType": "uint256",
          "name": "",
          "type": "uint256"
        }
      ],
      "stateMutability": "view",
      "type": "function"
    },
    {
      "inputs": [],
      "name": "renounceOwnership",
      "outputs": [],
      "stateMutability": "nonpayable",
      "type": "function"
    },
    {
      "inputs": [
        {
          "internalType": "contract IERC20",
          "name": "_token",
          "type": "address"
        }
      ],
      "name": "setToken",
      "outputs": [],
      "stateMutability": "nonpayable",
      "type": "function"
    },
    {
      "inputs": [],
      "name": "sweep",
      "outputs": [],
      "stateMutability": "nonpayable",
      "type": "function"
    },
    {
      "inputs": [
        {
          "internalType": "address",
          "name": "newOwner",
          "type": "address"
        }
      ],
      "name": "transferOwnership",
      "outputs": [],
      "stateMutability": "nonpayable",
      "type": "function"
    },
    {
      "inputs": [
        {
          "internalType": "address",
          "name": "_game",
          "type": "address"
        }
      ],
      "name": "updateGame",
      "outputs": [],
      "stateMutability": "nonpayable",
      "type": "function"
    },
    {
      "inputs": [
        {
          "internalType": "uint256",
          "name": "_newRate",
          "type": "uint256"
        }
      ],
      "name": "updateRate",
      "outputs": [],
      "stateMutability": "nonpayable",
      "type": "function"
    },
    {
      "inputs": [],
      "name": "xtc",
      "outputs": [
        {
          "internalType": "contract IERC20",
          "name": "",
          "type": "address"
        }
      ],
      "stateMutability": "view",
      "type": "function"
    }
  ],
  "transactionHash": "0x11b7362407b7a2004b52f8ed5f971dc183b8c22d82d9b2d74247e1b9f82f6de2",
  "args": [
    10000,
    "0x1C03CDF9F591d4f4725a1564Cc4D9b8C73856Aa8"
  ],
  "numDeployments": 1,
  "solcInputHash": "dcf28716aadc2645d6721c58d4432e66",
  "bytecode": "0x608060405234801561001057600080fd5b50604051610af4380380610af483398101604081905261002f916100b2565b61003833610062565b600491909155600580546001600160a01b0319166001600160a01b039092169190911790556100ef565b600080546001600160a01b038381166001600160a01b0319831681178455604051919092169283917f8be0079c531659141344cd1fd0a4f28419497f9722a3daafe3b4186f6b6457e09190a35050565b600080604083850312156100c557600080fd5b825160208401519092506001600160a01b03811681146100e457600080fd5b809150509250929050565b6109f6806100fe6000396000f3fe608060405234801561001057600080fd5b50600436106100f55760003560e01c80634e71d92d116100975780639feb8f50116100665780639feb8f50146101d8578063c3fe3e28146101eb578063c884ef83146101fe578063f2fde38b1461021e57600080fd5b80634e71d92d146101a457806369ea1771146101ac578063715018a6146101bf5780638da5cb5b146101c757600080fd5b80632c4e722e116100d35780632c4e722e1461015557806335faa4161461015e578063402914f51461016657806347f6f34a1461017957600080fd5b80630b79736e146100fa57806310098ad51461010f578063144fa6d714610142575b600080fd5b61010d610108366004610881565b610231565b005b61012f61011d366004610881565b60016020526000908152604090205481565b6040519081526020015b60405180910390f35b61010d610150366004610881565b610290565b61012f60045481565b61010d61034a565b61012f610174366004610881565b6104d4565b60035461018c906001600160a01b031681565b6040516001600160a01b039091168152602001610139565b61010d610508565b61010d6101ba3660046108f3565b610642565b61010d610685565b6000546001600160a01b031661018c565b61010d6101e63660046108a5565b610697565b60055461018c906001600160a01b031681565b61012f61020c366004610881565b60026020526000908152604090205481565b61010d61022c366004610881565b61073d565b6102396107ca565b6005805473ffffffffffffffffffffffffffffffffffffffff19166001600160a01b0383169081179091556040517f95faa39e28b11c7b6efeb8f394d6c96d0f08ad733b7ff855af52f44942310f5190600090a250565b6102986107ca565b6001600160a01b0381166102f35760405162461bcd60e51b815260206004820152601f60248201527f52657761726420746f6b656e2063616e2774206265203020616464726573730060448201526064015b60405180910390fd5b6003805473ffffffffffffffffffffffffffffffffffffffff19166001600160a01b0383169081179091556040517f2d6b04df9b7d358407d1a014f1114b064add34c19d63d395db155a7e533e967a90600090a250565b6103526107ca565b6003546040517f70a082310000000000000000000000000000000000000000000000000000000081523060048201526001600160a01b039091169063a9059cbb90339083906370a082319060240160206040518083038186803b1580156103b857600080fd5b505afa1580156103cc573d6000803e3d6000fd5b505050506040513d601f19601f820116820180604052508101906103f0919061090c565b6040517fffffffff0000000000000000000000000000000000000000000000000000000060e085901b1681526001600160a01b0390921660048301526024820152604401602060405180830381600087803b15801561044e57600080fd5b505af1158015610462573d6000803e3d6000fd5b505050506040513d601f19601f8201168201806040525081019061048691906108d1565b6104d25760405162461bcd60e51b815260206004820152600f60248201527f6661696c656420746f207377656570000000000000000000000000000000000060448201526064016102ea565b565b6001600160a01b0381166000908152600260209081526040808320546001909252822054610502919061097e565b92915050565b33600090815260026020908152604080832054600190925282205461052d919061097e565b33600090815260026020526040812080549293508392909190610551908490610925565b90915550506003546040517fa9059cbb000000000000000000000000000000000000000000000000000000008152336004820152602481018390526001600160a01b039091169063a9059cbb90604401602060405180830381600087803b1580156105bb57600080fd5b505af11580156105cf573d6000803e3d6000fd5b505050506040513d601f19601f820116820180604052508101906105f391906108d1565b61063f5760405162461bcd60e51b815260206004820152600e60248201527f6661696c656420746f2073656e6400000000000000000000000000000000000060448201526064016102ea565b50565b61064a6107ca565b60048190556040518181527fe65c987b2e4668e09ba867026921588005b2b2063607a1e7e7d91683c8f91b7b9060200160405180910390a150565b61068d6107ca565b6104d26000610824565b6005546001600160a01b031633146106f15760405162461bcd60e51b815260206004820152600f60248201527f43616c6c6572206e6f742067616d65000000000000000000000000000000000060448201526064016102ea565b61271060045482610702919061095f565b61070c919061093d565b6001600160a01b03831660009081526001602052604081208054909190610734908490610925565b90915550505050565b6107456107ca565b6001600160a01b0381166107c15760405162461bcd60e51b815260206004820152602660248201527f4f776e61626c653a206e6577206f776e657220697320746865207a65726f206160448201527f646472657373000000000000000000000000000000000000000000000000000060648201526084016102ea565b61063f81610824565b6000546001600160a01b031633146104d25760405162461bcd60e51b815260206004820181905260248201527f4f776e61626c653a2063616c6c6572206973206e6f7420746865206f776e657260448201526064016102ea565b600080546001600160a01b0383811673ffffffffffffffffffffffffffffffffffffffff19831681178455604051919092169283917f8be0079c531659141344cd1fd0a4f28419497f9722a3daafe3b4186f6b6457e09190a35050565b60006020828403121561089357600080fd5b813561089e816109ab565b9392505050565b600080604083850312156108b857600080fd5b82356108c3816109ab565b946020939093013593505050565b6000602082840312156108e357600080fd5b8151801515811461089e57600080fd5b60006020828403121561090557600080fd5b5035919050565b60006020828403121561091e57600080fd5b5051919050565b6000821982111561093857610938610995565b500190565b60008261095a57634e487b7160e01b600052601260045260246000fd5b500490565b600081600019048311821515161561097957610979610995565b500290565b60008282101561099057610990610995565b500390565b634e487b7160e01b600052601160045260246000fd5b6001600160a01b038116811461063f57600080fdfea26469706673582212203257ec126e9367e94ce151a98ce6e7232669a36fbc48d634a3e13dbce3507e9b64736f6c63430008070033",
  "devdoc": {
    "kind": "dev",
    "methods": {
      "owner()": {
        "details": "Returns the address of the current owner."
      },
      "renounceOwnership()": {
        "details": "Leaves the contract without owner. It will not be possible to call `onlyOwner` functions anymore. Can only be called by the current owner. NOTE: Renouncing ownership will leave the contract without an owner, thereby removing any functionality that is only available to the owner."
      },
      "transferOwnership(address)": {
        "details": "Transfers ownership of the contract to a new account (`newOwner`). Can only be called by the current owner."
      }
    },
    "version": 1
  },
  "userdoc": {
    "kind": "user",
    "methods": {
      "sweep()": {
        "notice": "Remove all incentive tokens from this contract."
      }
    },
    "version": 1
  },
  "storageLayout": {
    "storage": [
      {
        "astId": 705,
        "contract": "contracts/Reward.sol:Rewarder",
        "label": "_owner",
        "offset": 0,
        "slot": "0",
        "type": "t_address"
      },
      {
        "astId": 4890,
        "contract": "contracts/Reward.sol:Rewarder",
        "label": "available",
        "offset": 0,
        "slot": "1",
        "type": "t_mapping(t_address,t_uint256)"
      },
      {
        "astId": 4894,
        "contract": "contracts/Reward.sol:Rewarder",
        "label": "claimed",
        "offset": 0,
        "slot": "2",
        "type": "t_mapping(t_address,t_uint256)"
      },
      {
        "astId": 4897,
        "contract": "contracts/Reward.sol:Rewarder",
        "label": "xtc",
        "offset": 0,
        "slot": "3",
        "type": "t_contract(IERC20)1769"
      },
      {
        "astId": 4899,
        "contract": "contracts/Reward.sol:Rewarder",
        "label": "rate",
        "offset": 0,
        "slot": "4",
        "type": "t_uint256"
      },
      {
        "astId": 4901,
        "contract": "contracts/Reward.sol:Rewarder",
        "label": "game",
        "offset": 0,
        "slot": "5",
        "type": "t_address"
      }
    ],
    "types": {
      "t_address": {
        "encoding": "inplace",
        "label": "address",
        "numberOfBytes": "20"
      },
      "t_contract(IERC20)1769": {
        "encoding": "inplace",
        "label": "contract IERC20",
        "numberOfBytes": "20"
      },
      "t_mapping(t_address,t_uint256)": {
        "encoding": "mapping",
        "key": "t_address",
        "label": "mapping(address => uint256)",
        "numberOfBytes": "32",
        "value": "t_uint256"
      },
      "t_uint256": {
        "encoding": "inplace",
        "label": "uint256",
        "numberOfBytes": "32"
      }
    }
  }
}