{
  "address": "0x63C2A957e517553B4d9e2985033A51AA7585cD4E",
  "abi": [
    {
      "inputs": [
        {
          "internalType": "contract IERC20",
          "name": "_xtc",
          "type": "address"
        },
        {
          "internalType": "uint256",
          "name": "_rate",
          "type": "uint256"
        },
        {
          "internalType": "address",
          "name": "_game",
          "type": "address"
        }
      ],
      "stateMutability": "nonpayable",
      "type": "constructor"
    },
    {
      "anonymous": false,
      "inputs": [
        {
          "indexed": true,
          "internalType": "address",
          "name": "game",
          "type": "address"
        }
      ],
      "name": "GameUpdated",
      "type": "event"
    },
    {
      "anonymous": false,
      "inputs": [
        {
          "indexed": true,
          "internalType": "address",
          "name": "previousOwner",
          "type": "address"
        },
        {
          "indexed": true,
          "internalType": "address",
          "name": "newOwner",
          "type": "address"
        }
      ],
      "name": "OwnershipTransferred",
      "type": "event"
    },
    {
      "anonymous": false,
      "inputs": [
        {
          "indexed": false,
          "internalType": "uint256",
          "name": "rate",
          "type": "uint256"
        }
      ],
      "name": "RateUpdated",
      "type": "event"
    },
    {
      "inputs": [
        {
          "internalType": "address",
          "name": "user",
          "type": "address"
        },
        {
          "internalType": "uint256",
          "name": "betAmount",
          "type": "uint256"
        }
      ],
      "name": "addReward",
      "outputs": [],
      "stateMutability": "nonpayable",
      "type": "function"
    },
    {
      "inputs": [
        {
          "internalType": "address",
          "name": "",
          "type": "address"
        }
      ],
      "name": "available",
      "outputs": [
        {
          "internalType": "uint256",
          "name": "",
          "type": "uint256"
        }
      ],
      "stateMutability": "view",
      "type": "function"
    },
    {
      "inputs": [],
      "name": "claim",
      "outputs": [],
      "stateMutability": "nonpayable",
      "type": "function"
    },
    {
      "inputs": [
        {
          "internalType": "address",
          "name": "user",
          "type": "address"
        }
      ],
      "name": "claimable",
      "outputs": [
        {
          "internalType": "uint256",
          "name": "",
          "type": "uint256"
        }
      ],
      "stateMutability": "view",
      "type": "function"
    },
    {
      "inputs": [
        {
          "internalType": "address",
          "name": "",
          "type": "address"
        }
      ],
      "name": "claimed",
      "outputs": [
        {
          "internalType": "uint256",
          "name": "",
          "type": "uint256"
        }
      ],
      "stateMutability": "view",
      "type": "function"
    },
    {
      "inputs": [],
      "name": "game",
      "outputs": [
        {
          "internalType": "address",
          "name": "",
          "type": "address"
        }
      ],
      "stateMutability": "view",
      "type": "function"
    },
    {
      "inputs": [],
      "name": "owner",
      "outputs": [
        {
          "internalType": "address",
          "name": "",
          "type": "address"
        }
      ],
      "stateMutability": "view",
      "type": "function"
    },
    {
      "inputs": [],
      "name": "rate",
      "outputs": [
        {
          "internalType": "uint256",
          "name": "",
          "type": "uint256"
        }
      ],
      "stateMutability": "view",
      "type": "function"
    },
    {
      "inputs": [],
      "name": "renounceOwnership",
      "outputs": [],
      "stateMutability": "nonpayable",
      "type": "function"
    },
    {
      "inputs": [],
      "name": "sweep",
      "outputs": [],
      "stateMutability": "nonpayable",
      "type": "function"
    },
    {
      "inputs": [
        {
          "internalType": "address",
          "name": "newOwner",
          "type": "address"
        }
      ],
      "name": "transferOwnership",
      "outputs": [],
      "stateMutability": "nonpayable",
      "type": "function"
    },
    {
      "inputs": [
        {
          "internalType": "address",
          "name": "_game",
          "type": "address"
        }
      ],
      "name": "updateGame",
      "outputs": [],
      "stateMutability": "nonpayable",
      "type": "function"
    },
    {
      "inputs": [
        {
          "internalType": "uint256",
          "name": "_newRate",
          "type": "uint256"
        }
      ],
      "name": "updateRate",
      "outputs": [],
      "stateMutability": "nonpayable",
      "type": "function"
    },
    {
      "inputs": [],
      "name": "xtc",
      "outputs": [
        {
          "internalType": "contract IERC20",
          "name": "",
          "type": "address"
        }
      ],
      "stateMutability": "view",
      "type": "function"
    }
  ],
  "transactionHash": "0xc1680152741fe8d41329564d39cece02f526bbee1a56af0f0c27fab34756dc64",
  "args": [
    "0xd8E0Dc20C693D33AA1371D5b80053AB84b7C14DD",
    10000,
    "0xCA27Bf3f015B6A34Ba447984535A05aBf511DF2e"
  ],
  "numDeployments": 1,
  "solcInputHash": "d1199fd329c313d479f6f1268ecb7076",
  "bytecode": "0x60806040523480156200001157600080fd5b50604051620014b6380380620014b68339818101604052810190620000379190620001fa565b620000576200004b620000e960201b60201c565b620000f160201b60201c565b82600360006101000a81548173ffffffffffffffffffffffffffffffffffffffff021916908373ffffffffffffffffffffffffffffffffffffffff1602179055508160048190555080600560006101000a81548173ffffffffffffffffffffffffffffffffffffffff021916908373ffffffffffffffffffffffffffffffffffffffff160217905550505050620002fb565b600033905090565b60008060009054906101000a900473ffffffffffffffffffffffffffffffffffffffff169050816000806101000a81548173ffffffffffffffffffffffffffffffffffffffff021916908373ffffffffffffffffffffffffffffffffffffffff1602179055508173ffffffffffffffffffffffffffffffffffffffff168173ffffffffffffffffffffffffffffffffffffffff167f8be0079c531659141344cd1fd0a4f28419497f9722a3daafe3b4186f6b6457e060405160405180910390a35050565b600081519050620001c681620002ad565b92915050565b600081519050620001dd81620002c7565b92915050565b600081519050620001f481620002e1565b92915050565b600080600060608486031215620002165762000215620002a8565b5b60006200022686828701620001cc565b93505060206200023986828701620001e3565b92505060406200024c86828701620001b5565b9150509250925092565b600062000263826200027e565b9050919050565b6000620002778262000256565b9050919050565b600073ffffffffffffffffffffffffffffffffffffffff82169050919050565b6000819050919050565b600080fd5b620002b88162000256565b8114620002c457600080fd5b50565b620002d2816200026a565b8114620002de57600080fd5b50565b620002ec816200029e565b8114620002f857600080fd5b50565b6111ab806200030b6000396000f3fe608060405234801561001057600080fd5b50600436106100ea5760003560e01c806369ea17711161008c5780639feb8f50116100665780639feb8f50146101ff578063c3fe3e281461021b578063c884ef8314610239578063f2fde38b14610269576100ea565b806369ea1771146101bb578063715018a6146101d75780638da5cb5b146101e1576100ea565b806335faa416116100c857806335faa41614610159578063402914f51461016357806347f6f34a146101935780634e71d92d146101b1576100ea565b80630b79736e146100ef57806310098ad51461010b5780632c4e722e1461013b575b600080fd5b61010960048036038101906101049190610b4c565b610285565b005b61012560048036038101906101209190610b4c565b610314565b6040516101329190610e1b565b60405180910390f35b61014361032c565b6040516101509190610e1b565b60405180910390f35b610161610332565b005b61017d60048036038101906101789190610b4c565b6104d4565b60405161018a9190610e1b565b60405180910390f35b61019b610567565b6040516101a89190610d60565b60405180910390f35b6101b961058d565b005b6101d560048036038101906101d09190610be6565b610762565b005b6101df6107ab565b005b6101e96107bf565b6040516101f69190610d1c565b60405180910390f35b61021960048036038101906102149190610b79565b6107e8565b005b6102236108ec565b6040516102309190610d1c565b60405180910390f35b610253600480360381019061024e9190610b4c565b610912565b6040516102609190610e1b565b60405180910390f35b610283600480360381019061027e9190610b4c565b61092a565b005b61028d6109ae565b80600560006101000a81548173ffffffffffffffffffffffffffffffffffffffff021916908373ffffffffffffffffffffffffffffffffffffffff1602179055508073ffffffffffffffffffffffffffffffffffffffff167f95faa39e28b11c7b6efeb8f394d6c96d0f08ad733b7ff855af52f44942310f5160405160405180910390a250565b60016020528060005260406000206000915090505481565b60045481565b61033a6109ae565b600360009054906101000a900473ffffffffffffffffffffffffffffffffffffffff1673ffffffffffffffffffffffffffffffffffffffff1663a9059cbb33600360009054906101000a900473ffffffffffffffffffffffffffffffffffffffff1673ffffffffffffffffffffffffffffffffffffffff166370a08231306040518263ffffffff1660e01b81526004016103d49190610d1c565b60206040518083038186803b1580156103ec57600080fd5b505afa158015610400573d6000803e3d6000fd5b505050506040513d601f19601f820116820180604052508101906104249190610c13565b6040518363ffffffff1660e01b8152600401610441929190610d37565b602060405180830381600087803b15801561045b57600080fd5b505af115801561046f573d6000803e3d6000fd5b505050506040513d601f19601f820116820180604052508101906104939190610bb9565b6104d2576040517f08c379a00000000000000000000000000000000000000000000000000000000081526004016104c990610dbb565b60405180910390fd5b565b6000600260008373ffffffffffffffffffffffffffffffffffffffff1673ffffffffffffffffffffffffffffffffffffffff16815260200190815260200160002054600160008473ffffffffffffffffffffffffffffffffffffffff1673ffffffffffffffffffffffffffffffffffffffff168152602001908152602001600020546105609190610f28565b9050919050565b600360009054906101000a900473ffffffffffffffffffffffffffffffffffffffff1681565b6000600260003373ffffffffffffffffffffffffffffffffffffffff1673ffffffffffffffffffffffffffffffffffffffff16815260200190815260200160002054600160003373ffffffffffffffffffffffffffffffffffffffff1673ffffffffffffffffffffffffffffffffffffffff168152602001908152602001600020546106199190610f28565b905080600260003373ffffffffffffffffffffffffffffffffffffffff1673ffffffffffffffffffffffffffffffffffffffff168152602001908152602001600020600082825461066a9190610e47565b92505081905550600360009054906101000a900473ffffffffffffffffffffffffffffffffffffffff1673ffffffffffffffffffffffffffffffffffffffff1663a9059cbb33836040518363ffffffff1660e01b81526004016106ce929190610d37565b602060405180830381600087803b1580156106e857600080fd5b505af11580156106fc573d6000803e3d6000fd5b505050506040513d601f19601f820116820180604052508101906107209190610bb9565b61075f576040517f08c379a000000000000000000000000000000000000000000000000000000000815260040161075690610dfb565b60405180910390fd5b50565b61076a6109ae565b806004819055507fe65c987b2e4668e09ba867026921588005b2b2063607a1e7e7d91683c8f91b7b816040516107a09190610e1b565b60405180910390a150565b6107b36109ae565b6107bd6000610a2c565b565b60008060009054906101000a900473ffffffffffffffffffffffffffffffffffffffff16905090565b600560009054906101000a900473ffffffffffffffffffffffffffffffffffffffff1673ffffffffffffffffffffffffffffffffffffffff163373ffffffffffffffffffffffffffffffffffffffff1614610878576040517f08c379a000000000000000000000000000000000000000000000000000000000815260040161086f90610d9b565b60405180910390fd5b612710600454826108899190610ece565b6108939190610e9d565b600160008473ffffffffffffffffffffffffffffffffffffffff1673ffffffffffffffffffffffffffffffffffffffff16815260200190815260200160002060008282546108e19190610e47565b925050819055505050565b600560009054906101000a900473ffffffffffffffffffffffffffffffffffffffff1681565b60026020528060005260406000206000915090505481565b6109326109ae565b600073ffffffffffffffffffffffffffffffffffffffff168173ffffffffffffffffffffffffffffffffffffffff1614156109a2576040517f08c379a000000000000000000000000000000000000000000000000000000000815260040161099990610d7b565b60405180910390fd5b6109ab81610a2c565b50565b6109b6610af0565b73ffffffffffffffffffffffffffffffffffffffff166109d46107bf565b73ffffffffffffffffffffffffffffffffffffffff1614610a2a576040517f08c379a0000000000000000000000000000000000000000000000000000000008152600401610a2190610ddb565b60405180910390fd5b565b60008060009054906101000a900473ffffffffffffffffffffffffffffffffffffffff169050816000806101000a81548173ffffffffffffffffffffffffffffffffffffffff021916908373ffffffffffffffffffffffffffffffffffffffff1602179055508173ffffffffffffffffffffffffffffffffffffffff168173ffffffffffffffffffffffffffffffffffffffff167f8be0079c531659141344cd1fd0a4f28419497f9722a3daafe3b4186f6b6457e060405160405180910390a35050565b600033905090565b600081359050610b0781611130565b92915050565b600081519050610b1c81611147565b92915050565b600081359050610b318161115e565b92915050565b600081519050610b468161115e565b92915050565b600060208284031215610b6257610b61611038565b5b6000610b7084828501610af8565b91505092915050565b60008060408385031215610b9057610b8f611038565b5b6000610b9e85828601610af8565b9250506020610baf85828601610b22565b9150509250929050565b600060208284031215610bcf57610bce611038565b5b6000610bdd84828501610b0d565b91505092915050565b600060208284031215610bfc57610bfb611038565b5b6000610c0a84828501610b22565b91505092915050565b600060208284031215610c2957610c28611038565b5b6000610c3784828501610b37565b91505092915050565b610c4981610f5c565b82525050565b610c5881610fa4565b82525050565b6000610c6b602683610e36565b9150610c768261103d565b604082019050919050565b6000610c8e600f83610e36565b9150610c998261108c565b602082019050919050565b6000610cb1600f83610e36565b9150610cbc826110b5565b602082019050919050565b6000610cd4602083610e36565b9150610cdf826110de565b602082019050919050565b6000610cf7600e83610e36565b9150610d0282611107565b602082019050919050565b610d1681610f9a565b82525050565b6000602082019050610d316000830184610c40565b92915050565b6000604082019050610d4c6000830185610c40565b610d596020830184610d0d565b9392505050565b6000602082019050610d756000830184610c4f565b92915050565b60006020820190508181036000830152610d9481610c5e565b9050919050565b60006020820190508181036000830152610db481610c81565b9050919050565b60006020820190508181036000830152610dd481610ca4565b9050919050565b60006020820190508181036000830152610df481610cc7565b9050919050565b60006020820190508181036000830152610e1481610cea565b9050919050565b6000602082019050610e306000830184610d0d565b92915050565b600082825260208201905092915050565b6000610e5282610f9a565b9150610e5d83610f9a565b9250827fffffffffffffffffffffffffffffffffffffffffffffffffffffffffffffffff03821115610e9257610e91610fda565b5b828201905092915050565b6000610ea882610f9a565b9150610eb383610f9a565b925082610ec357610ec2611009565b5b828204905092915050565b6000610ed982610f9a565b9150610ee483610f9a565b9250817fffffffffffffffffffffffffffffffffffffffffffffffffffffffffffffffff0483118215151615610f1d57610f1c610fda565b5b828202905092915050565b6000610f3382610f9a565b9150610f3e83610f9a565b925082821015610f5157610f50610fda565b5b828203905092915050565b6000610f6782610f7a565b9050919050565b60008115159050919050565b600073ffffffffffffffffffffffffffffffffffffffff82169050919050565b6000819050919050565b6000610faf82610fb6565b9050919050565b6000610fc182610fc8565b9050919050565b6000610fd382610f7a565b9050919050565b7f4e487b7100000000000000000000000000000000000000000000000000000000600052601160045260246000fd5b7f4e487b7100000000000000000000000000000000000000000000000000000000600052601260045260246000fd5b600080fd5b7f4f776e61626c653a206e6577206f776e657220697320746865207a65726f206160008201527f6464726573730000000000000000000000000000000000000000000000000000602082015250565b7f43616c6c6572206e6f742067616d650000000000000000000000000000000000600082015250565b7f6661696c656420746f2073776565700000000000000000000000000000000000600082015250565b7f4f776e61626c653a2063616c6c6572206973206e6f7420746865206f776e6572600082015250565b7f6661696c656420746f2073656e64000000000000000000000000000000000000600082015250565b61113981610f5c565b811461114457600080fd5b50565b61115081610f6e565b811461115b57600080fd5b50565b61116781610f9a565b811461117257600080fd5b5056fea2646970667358221220ae7c9608ceb277a581a9aaa21c27468bfa69bf884ba61f2a2a33a311150eb08a64736f6c63430008070033",
  "devdoc": {
    "kind": "dev",
    "methods": {
      "owner()": {
        "details": "Returns the address of the current owner."
      },
      "renounceOwnership()": {
        "details": "Leaves the contract without owner. It will not be possible to call `onlyOwner` functions anymore. Can only be called by the current owner. NOTE: Renouncing ownership will leave the contract without an owner, thereby removing any functionality that is only available to the owner."
      },
      "transferOwnership(address)": {
        "details": "Transfers ownership of the contract to a new account (`newOwner`). Can only be called by the current owner."
      }
    },
    "version": 1
  },
  "userdoc": {
    "kind": "user",
    "methods": {
      "sweep()": {
        "notice": "Remove all incentive tokens from this contract."
      }
    },
    "version": 1
  },
  "storageLayout": {
    "storage": [
      {
        "astId": 7,
        "contract": "contracts/Reward.sol:Rewarder",
        "label": "_owner",
        "offset": 0,
        "slot": "0",
        "type": "t_address"
      },
      {
        "astId": 223,
        "contract": "contracts/Reward.sol:Rewarder",
        "label": "available",
        "offset": 0,
        "slot": "1",
        "type": "t_mapping(t_address,t_uint256)"
      },
      {
        "astId": 227,
        "contract": "contracts/Reward.sol:Rewarder",
        "label": "claimed",
        "offset": 0,
        "slot": "2",
        "type": "t_mapping(t_address,t_uint256)"
      },
      {
        "astId": 230,
        "contract": "contracts/Reward.sol:Rewarder",
        "label": "xtc",
        "offset": 0,
        "slot": "3",
        "type": "t_contract(IERC20)190"
      },
      {
        "astId": 232,
        "contract": "contracts/Reward.sol:Rewarder",
        "label": "rate",
        "offset": 0,
        "slot": "4",
        "type": "t_uint256"
      },
      {
        "astId": 234,
        "contract": "contracts/Reward.sol:Rewarder",
        "label": "game",
        "offset": 0,
        "slot": "5",
        "type": "t_address"
      }
    ],
    "types": {
      "t_address": {
        "encoding": "inplace",
        "label": "address",
        "numberOfBytes": "20"
      },
      "t_contract(IERC20)190": {
        "encoding": "inplace",
        "label": "contract IERC20",
        "numberOfBytes": "20"
      },
      "t_mapping(t_address,t_uint256)": {
        "encoding": "mapping",
        "key": "t_address",
        "label": "mapping(address => uint256)",
        "numberOfBytes": "32",
        "value": "t_uint256"
      },
      "t_uint256": {
        "encoding": "inplace",
        "label": "uint256",
        "numberOfBytes": "32"
      }
    }
  }
}