{
  "address": "0x8EFA93A6827391BFcddB3Cc0B548561C065163Db",
  "abi": [
    {
      "inputs": [
        {
          "internalType": "contract IExotic",
          "name": "_exotic",
          "type": "address"
        }
      ],
      "stateMutability": "nonpayable",
      "type": "constructor"
    },
    {
      "anonymous": false,
      "inputs": [
        {
          "indexed": true,
          "internalType": "address",
          "name": "previousOwner",
          "type": "address"
        },
        {
          "indexed": true,
          "internalType": "address",
          "name": "newOwner",
          "type": "address"
        }
      ],
      "name": "OwnershipTransferred",
      "type": "event"
    },
    {
      "inputs": [
        {
          "internalType": "uint64",
          "name": "rollId",
          "type": "uint64"
        }
      ],
      "name": "decimalOdds",
      "outputs": [
        {
          "internalType": "uint256[6]",
          "name": "",
          "type": "uint256[6]"
        }
      ],
      "stateMutability": "view",
      "type": "function"
    },
    {
      "inputs": [
        {
          "internalType": "uint64",
          "name": "rollId",
          "type": "uint64"
        },
        {
          "internalType": "uint8",
          "name": "result",
          "type": "uint8"
        },
        {
          "internalType": "uint256",
          "name": "betAmount",
          "type": "uint256"
        }
      ],
      "name": "estimateOdds",
      "outputs": [
        {
          "internalType": "uint256",
          "name": "",
          "type": "uint256"
        }
      ],
      "stateMutability": "view",
      "type": "function"
    },
    {
      "inputs": [],
      "name": "exotic",
      "outputs": [
        {
          "internalType": "contract IExotic",
          "name": "",
          "type": "address"
        }
      ],
      "stateMutability": "view",
      "type": "function"
    },
    {
      "inputs": [],
      "name": "owner",
      "outputs": [
        {
          "internalType": "address",
          "name": "",
          "type": "address"
        }
      ],
      "stateMutability": "view",
      "type": "function"
    },
    {
      "inputs": [
        {
          "internalType": "uint64",
          "name": "rollId",
          "type": "uint64"
        }
      ],
      "name": "probabilitySummary",
      "outputs": [
        {
          "internalType": "uint256[6]",
          "name": "",
          "type": "uint256[6]"
        }
      ],
      "stateMutability": "view",
      "type": "function"
    },
    {
      "inputs": [],
      "name": "renounceOwnership",
      "outputs": [],
      "stateMutability": "nonpayable",
      "type": "function"
    },
    {
      "inputs": [
        {
          "internalType": "uint64",
          "name": "rollId",
          "type": "uint64"
        }
      ],
      "name": "roll",
      "outputs": [
        {
          "components": [
            {
              "internalType": "uint64",
              "name": "rollId",
              "type": "uint64"
            },
            {
              "internalType": "uint256",
              "name": "totalWagered",
              "type": "uint256"
            },
            {
              "internalType": "uint256",
              "name": "result",
              "type": "uint256"
            },
            {
              "internalType": "uint256",
              "name": "rollResult",
              "type": "uint256"
            },
            {
              "internalType": "uint256",
              "name": "requestId",
              "type": "uint256"
            }
          ],
          "internalType": "struct RollLens.FullRoll",
          "name": "",
          "type": "tuple"
        }
      ],
      "stateMutability": "view",
      "type": "function"
    },
    {
      "inputs": [
        {
          "internalType": "contract IExotic",
          "name": "_exotic",
          "type": "address"
        }
      ],
      "name": "setExotic",
      "outputs": [],
      "stateMutability": "nonpayable",
      "type": "function"
    },
    {
      "inputs": [
        {
          "internalType": "address",
          "name": "newOwner",
          "type": "address"
        }
      ],
      "name": "transferOwnership",
      "outputs": [],
      "stateMutability": "nonpayable",
      "type": "function"
    },
    {
      "inputs": [
        {
          "internalType": "address",
          "name": "user",
          "type": "address"
        },
        {
          "internalType": "uint256",
          "name": "resultsPerPage",
          "type": "uint256"
        },
        {
          "internalType": "uint256",
          "name": "page",
          "type": "uint256"
        }
      ],
      "name": "userBets",
      "outputs": [
        {
          "components": [
            {
              "internalType": "uint64",
              "name": "rollId",
              "type": "uint64"
            },
            {
              "internalType": "uint256",
              "name": "amount",
              "type": "uint256"
            },
            {
              "internalType": "address",
              "name": "account",
              "type": "address"
            },
            {
              "internalType": "uint8",
              "name": "prediction",
              "type": "uint8"
            },
            {
              "internalType": "uint256",
              "name": "payout",
              "type": "uint256"
            },
            {
              "internalType": "bool",
              "name": "paid",
              "type": "bool"
            },
            {
              "internalType": "uint256",
              "name": "betId",
              "type": "uint256"
            },
            {
              "internalType": "uint256",
              "name": "rollResult",
              "type": "uint256"
            },
            {
              "internalType": "bool",
              "name": "rollFinished",
              "type": "bool"
            }
          ],
          "internalType": "struct RollLens.FullBet[]",
          "name": "",
          "type": "tuple[]"
        }
      ],
      "stateMutability": "view",
      "type": "function"
    },
    {
      "inputs": [
        {
          "internalType": "uint64",
          "name": "rollId",
          "type": "uint64"
        },
        {
          "internalType": "address",
          "name": "user",
          "type": "address"
        },
        {
          "internalType": "uint256",
          "name": "resultsPerPage",
          "type": "uint256"
        },
        {
          "internalType": "uint256",
          "name": "page",
          "type": "uint256"
        }
      ],
      "name": "userRollBets",
      "outputs": [
        {
          "components": [
            {
              "internalType": "uint64",
              "name": "rollId",
              "type": "uint64"
            },
            {
              "internalType": "uint256",
              "name": "amount",
              "type": "uint256"
            },
            {
              "internalType": "address",
              "name": "account",
              "type": "address"
            },
            {
              "internalType": "uint8",
              "name": "prediction",
              "type": "uint8"
            },
            {
              "internalType": "uint256",
              "name": "payout",
              "type": "uint256"
            },
            {
              "internalType": "bool",
              "name": "paid",
              "type": "bool"
            },
            {
              "internalType": "uint256",
              "name": "betId",
              "type": "uint256"
            },
            {
              "internalType": "uint256",
              "name": "rollResult",
              "type": "uint256"
            },
            {
              "internalType": "bool",
              "name": "rollFinished",
              "type": "bool"
            }
          ],
          "internalType": "struct RollLens.FullBet[]",
          "name": "",
          "type": "tuple[]"
        }
      ],
      "stateMutability": "view",
      "type": "function"
    }
  ],
  "transactionHash": "0x515013371564f7b9175eb29f0a40c4efb9c83cc9e92d0cae92eb5647547f2957",
  "args": [
    "0x3923E64eC746aCcebC5F04091073bdCCE2b838b7"
  ],
  "numDeployments": 1,
  "solcInputHash": "0be19ab0a3508b11b80cbd2ddae0bce9",
  "bytecode": "0x608060405234801561001057600080fd5b5060405161193838038061193883398101604081905261002f916100ad565b6100383361005d565b600180546001600160a01b0319166001600160a01b03929092169190911790556100dd565b600080546001600160a01b038381166001600160a01b0319831681178455604051919092169283917f8be0079c531659141344cd1fd0a4f28419497f9722a3daafe3b4186f6b6457e09190a35050565b6000602082840312156100bf57600080fd5b81516001600160a01b03811681146100d657600080fd5b9392505050565b61184c806100ec6000396000f3fe608060405234801561001057600080fd5b50600436106100c95760003560e01c80638da5cb5b11610081578063f2fde38b1161005b578063f2fde38b146101ec578063f754fd96146101ff578063fa09b3411461021257600080fd5b80638da5cb5b14610186578063d195a054146101ab578063e40eeebb146101cb57600080fd5b8063715018a6116100b2578063715018a61461014b57806373c28dc614610153578063835f3eb41461017357600080fd5b80634740945c146100ce578063591378c4146100e3575b600080fd5b6100e16100dc36600461137c565b610225565b005b6100f66100f1366004611550565b61025c565b6040516101429190600060a08201905067ffffffffffffffff83511682526020830151602083015260408301516040830152606083015160608301526080830151608083015292915050565b60405180910390f35b6100e16105b3565b610166610161366004611550565b6105c7565b60405161014291906116a6565b610166610181366004611550565b6106e2565b6000546001600160a01b03165b6040516001600160a01b039091168152602001610142565b6101be6101b9366004611399565b6107bb565b60405161014291906115f4565b6101de6101d93660046115b3565b610c0f565b604051908152602001610142565b6100e16101fa36600461137c565b610d9f565b600154610193906001600160a01b031681565b6101be61022036600461156d565b610e2f565b61022d6112a7565b6001805473ffffffffffffffffffffffffffffffffffffffff19166001600160a01b0392909216919091179055565b6102986040518060a00160405280600067ffffffffffffffff168152602001600081526020016000815260200160008152602001600081525090565b600160009054906101000a90046001600160a01b03166001600160a01b031663ead50da36040518163ffffffff1660e01b815260040160206040518083038186803b1580156102e657600080fd5b505afa1580156102fa573d6000803e3d6000fd5b505050506040513d601f19601f8201168201806040525081019061031e9190611537565b6103329067ffffffffffffffff8416611770565b156103845760405162461bcd60e51b815260206004820152600f60248201527f496e76616c696420726f6c6c204944000000000000000000000000000000000060448201526064015b60405180910390fd5b6001546040517f591378c400000000000000000000000000000000000000000000000000000000815267ffffffffffffffff841660048201526000916001600160a01b03169063591378c490602401604080518083038186803b1580156103ea57600080fd5b505afa1580156103fe573d6000803e3d6000fd5b505050506040513d601f19601f8201168201806040525081019061042291906114e8565b90506104606040518060a00160405280600067ffffffffffffffff168152602001600081526020016000815260200160008152602001600081525090565b67ffffffffffffffff8416808252600154604051633969f80360e01b815260048101929092526001600160a01b031690633969f8039060240160206040518083038186803b1580156104b157600080fd5b505afa1580156104c5573d6000803e3d6000fd5b505050506040513d601f19601f820116820180604052508101906104e99190611537565b6020808301919091528251604083015282015160808201528151156105ac576001546040517fa1aa2b5b00000000000000000000000000000000000000000000000000000000815267ffffffffffffffff861660048201526001600160a01b039091169063a1aa2b5b9060240160206040518083038186803b15801561056e57600080fd5b505afa158015610582573d6000803e3d6000fd5b505050506040513d601f19601f820116820180604052508101906105a69190611537565b60608201525b9392505050565b6105bb6112a7565b6105c56000611301565b565b6105cf61135e565b6105d761135e565b60005b60068160ff1610156106db576001546040516332c4d4f160e11b815267ffffffffffffffff8616600482015260ff831660248201526000916001600160a01b031690636589a9e29060440160206040518083038186803b15801561063d57600080fd5b505afa158015610651573d6000803e3d6000fd5b505050506040513d601f19601f820116820180604052508101906106759190611537565b90508061069d576000838360ff1660068110610693576106936117b0565b60200201526106c8565b6106ad81655af3107a40006116ef565b838360ff16600681106106c2576106c26117b0565b60200201525b50806106d381611750565b9150506105da565b5092915050565b6106ea61135e565b6106f261135e565b60005b60068160ff1610156106db576001546040516332c4d4f160e11b815267ffffffffffffffff8616600482015260ff831660248201526001600160a01b0390911690636589a9e29060440160206040518083038186803b15801561075757600080fd5b505afa15801561076b573d6000803e3d6000fd5b505050506040513d601f19601f8201168201806040525081019061078f9190611537565b828260ff16600681106107a4576107a46117b0565b6020020152806107b381611750565b9150506106f5565b6001546040517ff408a23a0000000000000000000000000000000000000000000000000000000081526001600160a01b03858116600483015260609260009291169063f408a23a9060240160206040518083038186803b15801561081e57600080fd5b505afa158015610832573d6000803e3d6000fd5b505050506040513d601f19601f820116820180604052508101906108569190611537565b9050600080826108668688611703565b1115610877575060009050806108d1565b6108818587611703565b61088b9084611722565b9150858211156108a65761089f8683611722565b90506108aa565b5060005b828211156108d1578583106108c8576108c38684611722565b6108cb565b60005b90508291505b60006108dd8284611722565b67ffffffffffffffff8111156108f5576108f56117c6565b60405190808252806020026020018201604052801561096c57816020015b604080516101208101825260008082526020808301829052928201819052606082018190526080820181905260a0820181905260c0820181905260e0820181905261010082015282526000199092019101816109135790505b5090508260005b83821115610c0157600180546000916001600160a01b0390911690634195ab8e908d906109a09087611722565b6040517fffffffff0000000000000000000000000000000000000000000000000000000060e085901b1681526001600160a01b039092166004830152602482015260440160a06040518083038186803b1580156109fc57600080fd5b505afa158015610a10573d6000803e3d6000fd5b505050506040513d601f19601f82011682018060405250810190610a349190611454565b6040805161012081018252600080825260208083018281528385018381526060808601858152608080880187905260a0880187815260c0890188905260e0890188905261010089018890528a8a01805167ffffffffffffffff9081168b528c51909752968b01516001600160a01b03908116909552928a01805160ff908116909352908a015115159092526001549451915197516332c4d4f160e11b815291909316600482015295909116602486015294955091939092911690636589a9e29060440160206040518083038186803b158015610b0f57600080fd5b505afa158015610b23573d6000803e3d6000fd5b505050506040513d601f19601f82011682018060405250810190610b479190611537565b90508015610b725782518190610b62906402540be400611703565b610b6c91906116ef565b60808301525b610b7d600186611722565b60c08301526040830151600090610b939061025c565b606081015160e0850152604081015190915015610bb1576001610bb4565b60005b151561010084015286518390889087908110610bd257610bd26117b0565b6020908102919091010152610be86001866116d7565b9450505050508180610bf990611739565b925050610973565b509098975050505050505050565b600154604051633969f80360e01b815267ffffffffffffffff8516600482015260009182916001600160a01b0390911690633969f8039060240160206040518083038186803b158015610c6157600080fd5b505afa158015610c75573d6000803e3d6000fd5b505050506040513d601f19601f82011682018060405250810190610c999190611537565b6001546040517f72b51dfa00000000000000000000000000000000000000000000000000000000815267ffffffffffffffff881660048201529192506000916001600160a01b03909116906372b51dfa9060240160c06040518083038186803b158015610d0557600080fd5b505afa158015610d19573d6000803e3d6000fd5b505050506040513d601f19601f82011682018060405250810190610d3d91906113ce565b8560ff1660068110610d5157610d516117b0565b60200201519050610d6284836116d7565b610d6c85836116d7565b610d7b906402540be400611703565b610d8591906116ef565b610d9590655af3107a40006116ef565b9695505050505050565b610da76112a7565b6001600160a01b038116610e235760405162461bcd60e51b815260206004820152602660248201527f4f776e61626c653a206e6577206f776e657220697320746865207a65726f206160448201527f6464726573730000000000000000000000000000000000000000000000000000606482015260840161037b565b610e2c81611301565b50565b6001546040517f46b697fe00000000000000000000000000000000000000000000000000000000815267ffffffffffffffff861660048201526001600160a01b0385811660248301526060926000929116906346b697fe9060440160206040518083038186803b158015610ea257600080fd5b505afa158015610eb6573d6000803e3d6000fd5b505050506040513d601f19601f82011682018060405250810190610eda9190611537565b905060008082610eea8688611703565b1115610efb57506000905080610f55565b610f058587611703565b610f0f9084611722565b915085821115610f2a57610f238683611722565b9050610f2e565b5060005b82821115610f5557858310610f4c57610f478684611722565b610f4f565b60005b90508291505b6000610f618284611722565b67ffffffffffffffff811115610f7957610f796117c6565b604051908082528060200260200182016040528015610ff057816020015b604080516101208101825260008082526020808301829052928201819052606082018190526080820181905260a0820181905260c0820181905260e082018190526101008201528252600019909201910181610f975790505b5090508260005b8382111561129857600180546000916001600160a01b039091169063f5029254908e908e906110269088611722565b6040517fffffffff0000000000000000000000000000000000000000000000000000000060e086901b16815267ffffffffffffffff90931660048401526001600160a01b039091166024830152604482015260640160a06040518083038186803b15801561109357600080fd5b505afa1580156110a7573d6000803e3d6000fd5b505050506040513d601f19601f820116820180604052508101906110cb9190611454565b6040805161012081018252600080825260208083018281528385018381526060808601858152608080880187905260a0880187815260c0890188905260e0890188905261010089018890528a8a01805167ffffffffffffffff9081168b528c51909752968b01516001600160a01b03908116909552928a01805160ff908116909352908a015115159092526001549451915197516332c4d4f160e11b815291909316600482015295909116602486015294955091939092911690636589a9e29060440160206040518083038186803b1580156111a657600080fd5b505afa1580156111ba573d6000803e3d6000fd5b505050506040513d601f19601f820116820180604052508101906111de9190611537565b9050801561120957825181906111f9906402540be400611703565b61120391906116ef565b60808301525b611214600186611722565b60c0830152604083015160009061122a9061025c565b606081015160e085015260408101519091501561124857600161124b565b60005b151561010084015286518390889087908110611269576112696117b0565b602090810291909101015261127f6001866116d7565b945050505050818061129090611739565b925050610ff7565b50909998505050505050505050565b6000546001600160a01b031633146105c55760405162461bcd60e51b815260206004820181905260248201527f4f776e61626c653a2063616c6c6572206973206e6f7420746865206f776e6572604482015260640161037b565b600080546001600160a01b0383811673ffffffffffffffffffffffffffffffffffffffff19831681178455604051919092169283917f8be0079c531659141344cd1fd0a4f28419497f9722a3daafe3b4186f6b6457e09190a35050565b6040518060c001604052806006906020820280368337509192915050565b60006020828403121561138e57600080fd5b81356105ac816117dc565b6000806000606084860312156113ae57600080fd5b83356113b9816117dc565b95602085013595506040909401359392505050565b600060c082840312156113e057600080fd5b82601f8301126113ef57600080fd5b60405160c0810181811067ffffffffffffffff82111715611412576114126117c6565b604052808360c0810186101561142757600080fd5b60005b600681101561144957815183526020928301929091019060010161142a565b509195945050505050565b600060a0828403121561146657600080fd5b60405160a0810181811067ffffffffffffffff82111715611489576114896117c6565b60405282518152602083015161149e816117dc565b602082015260408301516114b1816117f1565b604082015260608301516114c481611807565b6060820152608083015180151581146114dc57600080fd5b60808201529392505050565b6000604082840312156114fa57600080fd5b6040516040810181811067ffffffffffffffff8211171561151d5761151d6117c6565b604052825181526020928301519281019290925250919050565b60006020828403121561154957600080fd5b5051919050565b60006020828403121561156257600080fd5b81356105ac816117f1565b6000806000806080858703121561158357600080fd5b843561158e816117f1565b9350602085013561159e816117dc565b93969395505050506040820135916060013590565b6000806000606084860312156115c857600080fd5b83356115d3816117f1565b925060208401356115e381611807565b929592945050506040919091013590565b602080825282518282018190526000919060409081850190868401855b82811015611699578151805167ffffffffffffffff1685528681015187860152858101516001600160a01b03168686015260608082015160ff16908601526080808201519086015260a08082015115159086015260c0808201519086015260e08082015190860152610100908101511515908501526101209093019290850190600101611611565b5091979650505050505050565b60c08101818360005b60068110156116ce5781518352602092830192909101906001016116af565b50505092915050565b600082198211156116ea576116ea611784565b500190565b6000826116fe576116fe61179a565b500490565b600081600019048311821515161561171d5761171d611784565b500290565b60008282101561173457611734611784565b500390565b60008161174857611748611784565b506000190190565b600060ff821660ff81141561176757611767611784565b60010192915050565b60008261177f5761177f61179a565b500690565b634e487b7160e01b600052601160045260246000fd5b634e487b7160e01b600052601260045260246000fd5b634e487b7160e01b600052603260045260246000fd5b634e487b7160e01b600052604160045260246000fd5b6001600160a01b0381168114610e2c57600080fd5b67ffffffffffffffff81168114610e2c57600080fd5b60ff81168114610e2c57600080fdfea26469706673582212204315967a4ff751b0675fd49d015764fc0aff4d02339f2855f0cbc4a3ff1da0cb64736f6c63430008070033",
  "devdoc": {
    "kind": "dev",
    "methods": {
      "owner()": {
        "details": "Returns the address of the current owner."
      },
      "renounceOwnership()": {
        "details": "Leaves the contract without owner. It will not be possible to call `onlyOwner` functions anymore. Can only be called by the current owner. NOTE: Renouncing ownership will leave the contract without an owner, thereby removing any functionality that is only available to the owner."
      },
      "transferOwnership(address)": {
        "details": "Transfers ownership of the contract to a new account (`newOwner`). Can only be called by the current owner."
      }
    },
    "title": "Helper contract for fetching data from the roll.",
    "version": 1
  },
  "userdoc": {
    "kind": "user",
    "methods": {},
    "version": 1
  },
  "storageLayout": {
    "storage": [
      {
        "astId": 705,
        "contract": "contracts/RollLens.sol:RollLens",
        "label": "_owner",
        "offset": 0,
        "slot": "0",
        "type": "t_address"
      },
      {
        "astId": 5506,
        "contract": "contracts/RollLens.sol:RollLens",
        "label": "exotic",
        "offset": 0,
        "slot": "1",
        "type": "t_contract(IExotic)6418"
      }
    ],
    "types": {
      "t_address": {
        "encoding": "inplace",
        "label": "address",
        "numberOfBytes": "20"
      },
      "t_contract(IExotic)6418": {
        "encoding": "inplace",
        "label": "contract IExotic",
        "numberOfBytes": "20"
      }
    }
  }
}