{
  "address": "0x98590C72adB72dB7059512f19AB333438dbc9ac5",
  "abi": [
    {
      "inputs": [
        {
          "internalType": "contract IExotic",
          "name": "_exotic",
          "type": "address"
        }
      ],
      "stateMutability": "nonpayable",
      "type": "constructor"
    },
    {
      "anonymous": false,
      "inputs": [
        {
          "indexed": true,
          "internalType": "address",
          "name": "previousOwner",
          "type": "address"
        },
        {
          "indexed": true,
          "internalType": "address",
          "name": "newOwner",
          "type": "address"
        }
      ],
      "name": "OwnershipTransferred",
      "type": "event"
    },
    {
      "inputs": [],
      "name": "exotic",
      "outputs": [
        {
          "internalType": "contract IExotic",
          "name": "",
          "type": "address"
        }
      ],
      "stateMutability": "view",
      "type": "function"
    },
    {
      "inputs": [],
      "name": "owner",
      "outputs": [
        {
          "internalType": "address",
          "name": "",
          "type": "address"
        }
      ],
      "stateMutability": "view",
      "type": "function"
    },
    {
      "inputs": [],
      "name": "renounceOwnership",
      "outputs": [],
      "stateMutability": "nonpayable",
      "type": "function"
    },
    {
      "inputs": [
        {
          "internalType": "uint64",
          "name": "rollId",
          "type": "uint64"
        }
      ],
      "name": "roll",
      "outputs": [
        {
          "components": [
            {
              "internalType": "uint64",
              "name": "rollId",
              "type": "uint64"
            },
            {
              "internalType": "uint256",
              "name": "totalWagered",
              "type": "uint256"
            },
            {
              "internalType": "uint256",
              "name": "result",
              "type": "uint256"
            },
            {
              "internalType": "uint256",
              "name": "rollResult",
              "type": "uint256"
            },
            {
              "internalType": "uint256",
              "name": "requestId",
              "type": "uint256"
            }
          ],
          "internalType": "struct RollLens.FullRoll",
          "name": "",
          "type": "tuple"
        }
      ],
      "stateMutability": "view",
      "type": "function"
    },
    {
      "inputs": [
        {
          "internalType": "contract IExotic",
          "name": "_exotic",
          "type": "address"
        }
      ],
      "name": "setExotic",
      "outputs": [],
      "stateMutability": "nonpayable",
      "type": "function"
    },
    {
      "inputs": [
        {
          "internalType": "address",
          "name": "newOwner",
          "type": "address"
        }
      ],
      "name": "transferOwnership",
      "outputs": [],
      "stateMutability": "nonpayable",
      "type": "function"
    },
    {
      "inputs": [
        {
          "internalType": "address",
          "name": "user",
          "type": "address"
        },
        {
          "internalType": "uint256",
          "name": "resultsPerPage",
          "type": "uint256"
        },
        {
          "internalType": "uint256",
          "name": "page",
          "type": "uint256"
        }
      ],
      "name": "userBets",
      "outputs": [
        {
          "components": [
            {
              "internalType": "uint64",
              "name": "rollId",
              "type": "uint64"
            },
            {
              "internalType": "uint256",
              "name": "amount",
              "type": "uint256"
            },
            {
              "internalType": "address",
              "name": "account",
              "type": "address"
            },
            {
              "internalType": "uint8",
              "name": "prediction",
              "type": "uint8"
            },
            {
              "internalType": "uint256",
              "name": "payout",
              "type": "uint256"
            },
            {
              "internalType": "bool",
              "name": "paid",
              "type": "bool"
            },
            {
              "internalType": "uint256",
              "name": "betId",
              "type": "uint256"
            },
            {
              "internalType": "uint256",
              "name": "rollResult",
              "type": "uint256"
            },
            {
              "internalType": "bool",
              "name": "rollFinished",
              "type": "bool"
            }
          ],
          "internalType": "struct RollLens.FullBet[]",
          "name": "",
          "type": "tuple[]"
        }
      ],
      "stateMutability": "view",
      "type": "function"
    },
    {
      "inputs": [
        {
          "internalType": "uint64",
          "name": "rollId",
          "type": "uint64"
        },
        {
          "internalType": "address",
          "name": "user",
          "type": "address"
        },
        {
          "internalType": "uint256",
          "name": "resultsPerPage",
          "type": "uint256"
        },
        {
          "internalType": "uint256",
          "name": "page",
          "type": "uint256"
        }
      ],
      "name": "userRollBets",
      "outputs": [
        {
          "components": [
            {
              "internalType": "uint64",
              "name": "rollId",
              "type": "uint64"
            },
            {
              "internalType": "uint256",
              "name": "amount",
              "type": "uint256"
            },
            {
              "internalType": "address",
              "name": "account",
              "type": "address"
            },
            {
              "internalType": "uint8",
              "name": "prediction",
              "type": "uint8"
            },
            {
              "internalType": "uint256",
              "name": "payout",
              "type": "uint256"
            },
            {
              "internalType": "bool",
              "name": "paid",
              "type": "bool"
            },
            {
              "internalType": "uint256",
              "name": "betId",
              "type": "uint256"
            },
            {
              "internalType": "uint256",
              "name": "rollResult",
              "type": "uint256"
            },
            {
              "internalType": "bool",
              "name": "rollFinished",
              "type": "bool"
            }
          ],
          "internalType": "struct RollLens.FullBet[]",
          "name": "",
          "type": "tuple[]"
        }
      ],
      "stateMutability": "view",
      "type": "function"
    }
  ],
  "transactionHash": "0x192b647e385d13768965ab45fa0d01262ae9a5059d74324623be4d0fd4ebe617",
  "args": [
    "0x1C03CDF9F591d4f4725a1564Cc4D9b8C73856Aa8"
  ],
  "numDeployments": 2,
  "solcInputHash": "2abc1f6bebea11c65331290350b23b53",
  "bytecode": "0x608060405234801561001057600080fd5b5060405161141538038061141583398101604081905261002f916100ad565b6100383361005d565b600180546001600160a01b0319166001600160a01b03929092169190911790556100dd565b600080546001600160a01b038381166001600160a01b0319831681178455604051919092169283917f8be0079c531659141344cd1fd0a4f28419497f9722a3daafe3b4186f6b6457e09190a35050565b6000602082840312156100bf57600080fd5b81516001600160a01b03811681146100d657600080fd5b9392505050565b611329806100ec6000396000f3fe608060405234801561001057600080fd5b50600436106100885760003560e01c8063d195a0541161005b578063d195a05414610137578063f2fde38b14610157578063f754fd961461016a578063fa09b3411461017d57600080fd5b80634740945c1461008d578063591378c4146100a2578063715018a61461010a5780638da5cb5b14610112575b600080fd5b6100a061009b366004610f5e565b610190565b005b6100b56100b03660046110ce565b6101c7565b6040516101019190600060a08201905067ffffffffffffffff83511682526020830151602083015260408301516040830152606083015160608301526080830151608083015292915050565b60405180910390f35b6100a0610537565b6000546001600160a01b03165b6040516001600160a01b039091168152602001610101565b61014a610145366004610f7b565b61054b565b6040516101019190611131565b6100a0610165366004610f5e565b61099f565b60015461011f906001600160a01b031681565b61014a61018b3660046110eb565b610a2f565b610198610ea7565b6001805473ffffffffffffffffffffffffffffffffffffffff19166001600160a01b0392909216919091179055565b6102036040518060a00160405280600067ffffffffffffffff168152602001600081526020016000815260200160008152602001600081525090565b600160009054906101000a90046001600160a01b03166001600160a01b031663ead50da36040518163ffffffff1660e01b815260040160206040518083038186803b15801561025157600080fd5b505afa158015610265573d6000803e3d6000fd5b505050506040513d601f19601f8201168201806040525081019061028991906110b5565b61029d9067ffffffffffffffff841661125c565b156102ef5760405162461bcd60e51b815260206004820152600f60248201527f496e76616c696420726f6c6c204944000000000000000000000000000000000060448201526064015b60405180910390fd5b6001546040517f591378c400000000000000000000000000000000000000000000000000000000815267ffffffffffffffff841660048201526000916001600160a01b03169063591378c490602401604080518083038186803b15801561035557600080fd5b505afa158015610369573d6000803e3d6000fd5b505050506040513d601f19601f8201168201806040525081019061038d9190611058565b90506103cb6040518060a00160405280600067ffffffffffffffff168152602001600081526020016000815260200160008152602001600081525090565b67ffffffffffffffff84168082526001546040517f3969f80300000000000000000000000000000000000000000000000000000000815260048101929092526001600160a01b031690633969f8039060240160206040518083038186803b15801561043557600080fd5b505afa158015610449573d6000803e3d6000fd5b505050506040513d601f19601f8201168201806040525081019061046d91906110b5565b602080830191909152825160408301528201516080820152815115610530576001546040517fa1aa2b5b00000000000000000000000000000000000000000000000000000000815267ffffffffffffffff861660048201526001600160a01b039091169063a1aa2b5b9060240160206040518083038186803b1580156104f257600080fd5b505afa158015610506573d6000803e3d6000fd5b505050506040513d601f19601f8201168201806040525081019061052a91906110b5565b60608201525b9392505050565b61053f610ea7565b6105496000610f01565b565b6001546040517ff408a23a0000000000000000000000000000000000000000000000000000000081526001600160a01b03858116600483015260609260009291169063f408a23a9060240160206040518083038186803b1580156105ae57600080fd5b505afa1580156105c2573d6000803e3d6000fd5b505050506040513d601f19601f820116820180604052508101906105e691906110b5565b9050600080826105f6868861120f565b111561060757506000905080610661565b610611858761120f565b61061b908461122e565b9150858211156106365761062f868361122e565b905061063a565b5060005b828211156106615785831061065857610653868461122e565b61065b565b60005b90508291505b600061066d828461122e565b67ffffffffffffffff811115610685576106856112b2565b6040519080825280602002602001820160405280156106fc57816020015b604080516101208101825260008082526020808301829052928201819052606082018190526080820181905260a0820181905260c0820181905260e0820181905261010082015282526000199092019101816106a35790505b5090508260005b8382111561099157600180546000916001600160a01b0390911690634195ab8e908d90610730908761122e565b6040517fffffffff0000000000000000000000000000000000000000000000000000000060e085901b1681526001600160a01b039092166004830152602482015260440160a06040518083038186803b15801561078c57600080fd5b505afa1580156107a0573d6000803e3d6000fd5b505050506040513d601f19601f820116820180604052508101906107c49190610fb0565b6040805161012081018252600080825260208083018281528385018381526060808601858152608080880187905260a0880187815260c0890188905260e0890188905261010089018890528a8a01805167ffffffffffffffff9081168b528c51909752968b01516001600160a01b03908116909552928a01805160ff908116909352908a015115159092526001549451915197516332c4d4f160e11b815291909316600482015295909116602486015294955091939092911690636589a9e29060440160206040518083038186803b15801561089f57600080fd5b505afa1580156108b3573d6000803e3d6000fd5b505050506040513d601f19601f820116820180604052508101906108d791906110b5565b9050801561090257825181906108f2906402540be40061120f565b6108fc91906111fb565b60808301525b61090d60018661122e565b60c08301526040830151600090610923906101c7565b606081015160e0850152604081015190915015610941576001610944565b60005b1515610100840152865183908890879081106109625761096261129c565b60209081029190910101526109786001866111e3565b945050505050818061098990611245565b925050610703565b509098975050505050505050565b6109a7610ea7565b6001600160a01b038116610a235760405162461bcd60e51b815260206004820152602660248201527f4f776e61626c653a206e6577206f776e657220697320746865207a65726f206160448201527f646472657373000000000000000000000000000000000000000000000000000060648201526084016102e6565b610a2c81610f01565b50565b6001546040517f46b697fe00000000000000000000000000000000000000000000000000000000815267ffffffffffffffff861660048201526001600160a01b0385811660248301526060926000929116906346b697fe9060440160206040518083038186803b158015610aa257600080fd5b505afa158015610ab6573d6000803e3d6000fd5b505050506040513d601f19601f82011682018060405250810190610ada91906110b5565b905060008082610aea868861120f565b1115610afb57506000905080610b55565b610b05858761120f565b610b0f908461122e565b915085821115610b2a57610b23868361122e565b9050610b2e565b5060005b82821115610b5557858310610b4c57610b47868461122e565b610b4f565b60005b90508291505b6000610b61828461122e565b67ffffffffffffffff811115610b7957610b796112b2565b604051908082528060200260200182016040528015610bf057816020015b604080516101208101825260008082526020808301829052928201819052606082018190526080820181905260a0820181905260c0820181905260e082018190526101008201528252600019909201910181610b975790505b5090508260005b83821115610e9857600180546000916001600160a01b039091169063f5029254908e908e90610c26908861122e565b6040517fffffffff0000000000000000000000000000000000000000000000000000000060e086901b16815267ffffffffffffffff90931660048401526001600160a01b039091166024830152604482015260640160a06040518083038186803b158015610c9357600080fd5b505afa158015610ca7573d6000803e3d6000fd5b505050506040513d601f19601f82011682018060405250810190610ccb9190610fb0565b6040805161012081018252600080825260208083018281528385018381526060808601858152608080880187905260a0880187815260c0890188905260e0890188905261010089018890528a8a01805167ffffffffffffffff9081168b528c51909752968b01516001600160a01b03908116909552928a01805160ff908116909352908a015115159092526001549451915197516332c4d4f160e11b815291909316600482015295909116602486015294955091939092911690636589a9e29060440160206040518083038186803b158015610da657600080fd5b505afa158015610dba573d6000803e3d6000fd5b505050506040513d601f19601f82011682018060405250810190610dde91906110b5565b90508015610e095782518190610df9906402540be40061120f565b610e0391906111fb565b60808301525b610e1460018661122e565b60c08301526040830151600090610e2a906101c7565b606081015160e0850152604081015190915015610e48576001610e4b565b60005b151561010084015286518390889087908110610e6957610e6961129c565b6020908102919091010152610e7f6001866111e3565b9450505050508180610e9090611245565b925050610bf7565b50909998505050505050505050565b6000546001600160a01b031633146105495760405162461bcd60e51b815260206004820181905260248201527f4f776e61626c653a2063616c6c6572206973206e6f7420746865206f776e657260448201526064016102e6565b600080546001600160a01b0383811673ffffffffffffffffffffffffffffffffffffffff19831681178455604051919092169283917f8be0079c531659141344cd1fd0a4f28419497f9722a3daafe3b4186f6b6457e09190a35050565b600060208284031215610f7057600080fd5b8135610530816112c8565b600080600060608486031215610f9057600080fd5b8335610f9b816112c8565b95602085013595506040909401359392505050565b600060a08284031215610fc257600080fd5b60405160a0810181811067ffffffffffffffff82111715610ff357634e487b7160e01b600052604160045260246000fd5b604052825181526020830151611008816112c8565b6020820152604083015161101b816112dd565b6040820152606083015160ff8116811461103457600080fd5b60608201526080830151801515811461104c57600080fd5b60808201529392505050565b60006040828403121561106a57600080fd5b6040516040810181811067ffffffffffffffff8211171561109b57634e487b7160e01b600052604160045260246000fd5b604052825181526020928301519281019290925250919050565b6000602082840312156110c757600080fd5b5051919050565b6000602082840312156110e057600080fd5b8135610530816112dd565b6000806000806080858703121561110157600080fd5b843561110c816112dd565b9350602085013561111c816112c8565b93969395505050506040820135916060013590565b602080825282518282018190526000919060409081850190868401855b828110156111d6578151805167ffffffffffffffff1685528681015187860152858101516001600160a01b03168686015260608082015160ff16908601526080808201519086015260a08082015115159086015260c0808201519086015260e0808201519086015261010090810151151590850152610120909301929085019060010161114e565b5091979650505050505050565b600082198211156111f6576111f6611270565b500190565b60008261120a5761120a611286565b500490565b600081600019048311821515161561122957611229611270565b500290565b60008282101561124057611240611270565b500390565b60008161125457611254611270565b506000190190565b60008261126b5761126b611286565b500690565b634e487b7160e01b600052601160045260246000fd5b634e487b7160e01b600052601260045260246000fd5b634e487b7160e01b600052603260045260246000fd5b634e487b7160e01b600052604160045260246000fd5b6001600160a01b0381168114610a2c57600080fd5b67ffffffffffffffff81168114610a2c57600080fdfea264697066735822122097d47cfade4873f8df7b51a69eb69f8f8e96ee3d7eaa88f906848cd25e3ce44364736f6c63430008070033",
  "devdoc": {
    "kind": "dev",
    "methods": {
      "owner()": {
        "details": "Returns the address of the current owner."
      },
      "renounceOwnership()": {
        "details": "Leaves the contract without owner. It will not be possible to call `onlyOwner` functions anymore. Can only be called by the current owner. NOTE: Renouncing ownership will leave the contract without an owner, thereby removing any functionality that is only available to the owner."
      },
      "transferOwnership(address)": {
        "details": "Transfers ownership of the contract to a new account (`newOwner`). Can only be called by the current owner."
      }
    },
    "title": "Helper contract for fetching data from the roll.",
    "version": 1
  },
  "userdoc": {
    "kind": "user",
    "methods": {},
    "version": 1
  },
  "storageLayout": {
    "storage": [
      {
        "astId": 705,
        "contract": "contracts/RollLens.sol:RollLens",
        "label": "_owner",
        "offset": 0,
        "slot": "0",
        "type": "t_address"
      },
      {
        "astId": 5134,
        "contract": "contracts/RollLens.sol:RollLens",
        "label": "exotic",
        "offset": 0,
        "slot": "1",
        "type": "t_contract(IExotic)5887"
      }
    ],
    "types": {
      "t_address": {
        "encoding": "inplace",
        "label": "address",
        "numberOfBytes": "20"
      },
      "t_contract(IExotic)5887": {
        "encoding": "inplace",
        "label": "contract IExotic",
        "numberOfBytes": "20"
      }
    }
  }
}