{
  "address": "0x62199661F0Dd23B77E312b8b77B30F4045138037",
  "abi": [
    {
      "inputs": [
        {
          "internalType": "contract IExotic",
          "name": "_exotic",
          "type": "address"
        }
      ],
      "stateMutability": "nonpayable",
      "type": "constructor"
    },
    {
      "anonymous": false,
      "inputs": [
        {
          "indexed": true,
          "internalType": "address",
          "name": "previousOwner",
          "type": "address"
        },
        {
          "indexed": true,
          "internalType": "address",
          "name": "newOwner",
          "type": "address"
        }
      ],
      "name": "OwnershipTransferred",
      "type": "event"
    },
    {
      "inputs": [
        {
          "internalType": "uint64",
          "name": "rollId",
          "type": "uint64"
        }
      ],
      "name": "decimalOdds",
      "outputs": [
        {
          "internalType": "uint256[6]",
          "name": "",
          "type": "uint256[6]"
        }
      ],
      "stateMutability": "view",
      "type": "function"
    },
    {
      "inputs": [],
      "name": "exotic",
      "outputs": [
        {
          "internalType": "contract IExotic",
          "name": "",
          "type": "address"
        }
      ],
      "stateMutability": "view",
      "type": "function"
    },
    {
      "inputs": [],
      "name": "owner",
      "outputs": [
        {
          "internalType": "address",
          "name": "",
          "type": "address"
        }
      ],
      "stateMutability": "view",
      "type": "function"
    },
    {
      "inputs": [
        {
          "internalType": "uint64",
          "name": "rollId",
          "type": "uint64"
        }
      ],
      "name": "probabilitySummary",
      "outputs": [
        {
          "internalType": "uint256[6]",
          "name": "",
          "type": "uint256[6]"
        }
      ],
      "stateMutability": "view",
      "type": "function"
    },
    {
      "inputs": [],
      "name": "renounceOwnership",
      "outputs": [],
      "stateMutability": "nonpayable",
      "type": "function"
    },
    {
      "inputs": [
        {
          "internalType": "uint64",
          "name": "rollId",
          "type": "uint64"
        }
      ],
      "name": "roll",
      "outputs": [
        {
          "components": [
            {
              "internalType": "uint64",
              "name": "rollId",
              "type": "uint64"
            },
            {
              "internalType": "uint256",
              "name": "totalWagered",
              "type": "uint256"
            },
            {
              "internalType": "uint256",
              "name": "result",
              "type": "uint256"
            },
            {
              "internalType": "uint256",
              "name": "rollResult",
              "type": "uint256"
            },
            {
              "internalType": "uint256",
              "name": "requestId",
              "type": "uint256"
            }
          ],
          "internalType": "struct RollLens.FullRoll",
          "name": "",
          "type": "tuple"
        }
      ],
      "stateMutability": "view",
      "type": "function"
    },
    {
      "inputs": [
        {
          "internalType": "contract IExotic",
          "name": "_exotic",
          "type": "address"
        }
      ],
      "name": "setExotic",
      "outputs": [],
      "stateMutability": "nonpayable",
      "type": "function"
    },
    {
      "inputs": [
        {
          "internalType": "address",
          "name": "newOwner",
          "type": "address"
        }
      ],
      "name": "transferOwnership",
      "outputs": [],
      "stateMutability": "nonpayable",
      "type": "function"
    },
    {
      "inputs": [
        {
          "internalType": "address",
          "name": "user",
          "type": "address"
        },
        {
          "internalType": "uint256",
          "name": "resultsPerPage",
          "type": "uint256"
        },
        {
          "internalType": "uint256",
          "name": "page",
          "type": "uint256"
        }
      ],
      "name": "userBets",
      "outputs": [
        {
          "components": [
            {
              "internalType": "uint64",
              "name": "rollId",
              "type": "uint64"
            },
            {
              "internalType": "uint256",
              "name": "amount",
              "type": "uint256"
            },
            {
              "internalType": "address",
              "name": "account",
              "type": "address"
            },
            {
              "internalType": "uint8",
              "name": "prediction",
              "type": "uint8"
            },
            {
              "internalType": "uint256",
              "name": "payout",
              "type": "uint256"
            },
            {
              "internalType": "bool",
              "name": "paid",
              "type": "bool"
            },
            {
              "internalType": "uint256",
              "name": "betId",
              "type": "uint256"
            },
            {
              "internalType": "uint256",
              "name": "rollResult",
              "type": "uint256"
            },
            {
              "internalType": "bool",
              "name": "rollFinished",
              "type": "bool"
            }
          ],
          "internalType": "struct RollLens.FullBet[]",
          "name": "",
          "type": "tuple[]"
        }
      ],
      "stateMutability": "view",
      "type": "function"
    },
    {
      "inputs": [
        {
          "internalType": "uint64",
          "name": "rollId",
          "type": "uint64"
        },
        {
          "internalType": "address",
          "name": "user",
          "type": "address"
        },
        {
          "internalType": "uint256",
          "name": "resultsPerPage",
          "type": "uint256"
        },
        {
          "internalType": "uint256",
          "name": "page",
          "type": "uint256"
        }
      ],
      "name": "userRollBets",
      "outputs": [
        {
          "components": [
            {
              "internalType": "uint64",
              "name": "rollId",
              "type": "uint64"
            },
            {
              "internalType": "uint256",
              "name": "amount",
              "type": "uint256"
            },
            {
              "internalType": "address",
              "name": "account",
              "type": "address"
            },
            {
              "internalType": "uint8",
              "name": "prediction",
              "type": "uint8"
            },
            {
              "internalType": "uint256",
              "name": "payout",
              "type": "uint256"
            },
            {
              "internalType": "bool",
              "name": "paid",
              "type": "bool"
            },
            {
              "internalType": "uint256",
              "name": "betId",
              "type": "uint256"
            },
            {
              "internalType": "uint256",
              "name": "rollResult",
              "type": "uint256"
            },
            {
              "internalType": "bool",
              "name": "rollFinished",
              "type": "bool"
            }
          ],
          "internalType": "struct RollLens.FullBet[]",
          "name": "",
          "type": "tuple[]"
        }
      ],
      "stateMutability": "view",
      "type": "function"
    }
  ],
  "transactionHash": "0xcecfa9d46bd86a7e5a084440244067d6c93e5676e2a6f8a04d6a4bacc0217072",
  "args": [
    "0x1C03CDF9F591d4f4725a1564Cc4D9b8C73856Aa8"
  ],
  "numDeployments": 3,
  "solcInputHash": "4f09c335cefaf8f5a6bb24ed274783af",
  "bytecode": "0x608060405234801561001057600080fd5b506040516116e13803806116e183398101604081905261002f916100ad565b6100383361005d565b600180546001600160a01b0319166001600160a01b03929092169190911790556100dd565b600080546001600160a01b038381166001600160a01b0319831681178455604051919092169283917f8be0079c531659141344cd1fd0a4f28419497f9722a3daafe3b4186f6b6457e09190a35050565b6000602082840312156100bf57600080fd5b81516001600160a01b03811681146100d657600080fd5b9392505050565b6115f5806100ec6000396000f3fe608060405234801561001057600080fd5b50600436106100be5760003560e01c80638da5cb5b11610076578063f2fde38b1161005b578063f2fde38b146101c0578063f754fd96146101d3578063fa09b341146101e657600080fd5b80638da5cb5b1461017b578063d195a054146101a057600080fd5b8063715018a6116100a7578063715018a61461014057806373c28dc614610148578063835f3eb41461016857600080fd5b80634740945c146100c3578063591378c4146100d8575b600080fd5b6100d66100d13660046111d9565b6101f9565b005b6100eb6100e6366004611349565b610230565b6040516101379190600060a08201905067ffffffffffffffff83511682526020830151602083015260408301516040830152606083015160608301526080830151608083015292915050565b60405180910390f35b6100d66105a0565b61015b610156366004611349565b6105b4565b604051610137919061145e565b61015b610176366004611349565b6106cf565b6000546001600160a01b03165b6040516001600160a01b039091168152602001610137565b6101b36101ae3660046111f6565b6107a8565b60405161013791906113ac565b6100d66101ce3660046111d9565b610bfc565b600154610188906001600160a01b031681565b6101b36101f4366004611366565b610c8c565b610201611104565b6001805473ffffffffffffffffffffffffffffffffffffffff19166001600160a01b0392909216919091179055565b61026c6040518060a00160405280600067ffffffffffffffff168152602001600081526020016000815260200160008152602001600081525090565b600160009054906101000a90046001600160a01b03166001600160a01b031663ead50da36040518163ffffffff1660e01b815260040160206040518083038186803b1580156102ba57600080fd5b505afa1580156102ce573d6000803e3d6000fd5b505050506040513d601f19601f820116820180604052508101906102f29190611330565b6103069067ffffffffffffffff8416611528565b156103585760405162461bcd60e51b815260206004820152600f60248201527f496e76616c696420726f6c6c204944000000000000000000000000000000000060448201526064015b60405180910390fd5b6001546040517f591378c400000000000000000000000000000000000000000000000000000000815267ffffffffffffffff841660048201526000916001600160a01b03169063591378c490602401604080518083038186803b1580156103be57600080fd5b505afa1580156103d2573d6000803e3d6000fd5b505050506040513d601f19601f820116820180604052508101906103f691906112d3565b90506104346040518060a00160405280600067ffffffffffffffff168152602001600081526020016000815260200160008152602001600081525090565b67ffffffffffffffff84168082526001546040517f3969f80300000000000000000000000000000000000000000000000000000000815260048101929092526001600160a01b031690633969f8039060240160206040518083038186803b15801561049e57600080fd5b505afa1580156104b2573d6000803e3d6000fd5b505050506040513d601f19601f820116820180604052508101906104d69190611330565b602080830191909152825160408301528201516080820152815115610599576001546040517fa1aa2b5b00000000000000000000000000000000000000000000000000000000815267ffffffffffffffff861660048201526001600160a01b039091169063a1aa2b5b9060240160206040518083038186803b15801561055b57600080fd5b505afa15801561056f573d6000803e3d6000fd5b505050506040513d601f19601f820116820180604052508101906105939190611330565b60608201525b9392505050565b6105a8611104565b6105b2600061115e565b565b6105bc6111bb565b6105c46111bb565b60005b60068160ff1610156106c8576001546040516332c4d4f160e11b815267ffffffffffffffff8616600482015260ff831660248201526000916001600160a01b031690636589a9e29060440160206040518083038186803b15801561062a57600080fd5b505afa15801561063e573d6000803e3d6000fd5b505050506040513d601f19601f820116820180604052508101906106629190611330565b90508061068a576000838360ff166006811061068057610680611568565b60200201526106b5565b61069a81655af3107a40006114a7565b838360ff16600681106106af576106af611568565b60200201525b50806106c081611508565b9150506105c7565b5092915050565b6106d76111bb565b6106df6111bb565b60005b60068160ff1610156106c8576001546040516332c4d4f160e11b815267ffffffffffffffff8616600482015260ff831660248201526001600160a01b0390911690636589a9e29060440160206040518083038186803b15801561074457600080fd5b505afa158015610758573d6000803e3d6000fd5b505050506040513d601f19601f8201168201806040525081019061077c9190611330565b828260ff166006811061079157610791611568565b6020020152806107a081611508565b9150506106e2565b6001546040517ff408a23a0000000000000000000000000000000000000000000000000000000081526001600160a01b03858116600483015260609260009291169063f408a23a9060240160206040518083038186803b15801561080b57600080fd5b505afa15801561081f573d6000803e3d6000fd5b505050506040513d601f19601f820116820180604052508101906108439190611330565b90506000808261085386886114bb565b1115610864575060009050806108be565b61086e85876114bb565b61087890846114da565b9150858211156108935761088c86836114da565b9050610897565b5060005b828211156108be578583106108b5576108b086846114da565b6108b8565b60005b90508291505b60006108ca82846114da565b67ffffffffffffffff8111156108e2576108e261157e565b60405190808252806020026020018201604052801561095957816020015b604080516101208101825260008082526020808301829052928201819052606082018190526080820181905260a0820181905260c0820181905260e0820181905261010082015282526000199092019101816109005790505b5090508260005b83821115610bee57600180546000916001600160a01b0390911690634195ab8e908d9061098d90876114da565b6040517fffffffff0000000000000000000000000000000000000000000000000000000060e085901b1681526001600160a01b039092166004830152602482015260440160a06040518083038186803b1580156109e957600080fd5b505afa1580156109fd573d6000803e3d6000fd5b505050506040513d601f19601f82011682018060405250810190610a21919061122b565b6040805161012081018252600080825260208083018281528385018381526060808601858152608080880187905260a0880187815260c0890188905260e0890188905261010089018890528a8a01805167ffffffffffffffff9081168b528c51909752968b01516001600160a01b03908116909552928a01805160ff908116909352908a015115159092526001549451915197516332c4d4f160e11b815291909316600482015295909116602486015294955091939092911690636589a9e29060440160206040518083038186803b158015610afc57600080fd5b505afa158015610b10573d6000803e3d6000fd5b505050506040513d601f19601f82011682018060405250810190610b349190611330565b90508015610b5f5782518190610b4f906402540be4006114bb565b610b5991906114a7565b60808301525b610b6a6001866114da565b60c08301526040830151600090610b8090610230565b606081015160e0850152604081015190915015610b9e576001610ba1565b60005b151561010084015286518390889087908110610bbf57610bbf611568565b6020908102919091010152610bd560018661148f565b9450505050508180610be6906114f1565b925050610960565b509098975050505050505050565b610c04611104565b6001600160a01b038116610c805760405162461bcd60e51b815260206004820152602660248201527f4f776e61626c653a206e6577206f776e657220697320746865207a65726f206160448201527f6464726573730000000000000000000000000000000000000000000000000000606482015260840161034f565b610c898161115e565b50565b6001546040517f46b697fe00000000000000000000000000000000000000000000000000000000815267ffffffffffffffff861660048201526001600160a01b0385811660248301526060926000929116906346b697fe9060440160206040518083038186803b158015610cff57600080fd5b505afa158015610d13573d6000803e3d6000fd5b505050506040513d601f19601f82011682018060405250810190610d379190611330565b905060008082610d4786886114bb565b1115610d5857506000905080610db2565b610d6285876114bb565b610d6c90846114da565b915085821115610d8757610d8086836114da565b9050610d8b565b5060005b82821115610db257858310610da957610da486846114da565b610dac565b60005b90508291505b6000610dbe82846114da565b67ffffffffffffffff811115610dd657610dd661157e565b604051908082528060200260200182016040528015610e4d57816020015b604080516101208101825260008082526020808301829052928201819052606082018190526080820181905260a0820181905260c0820181905260e082018190526101008201528252600019909201910181610df45790505b5090508260005b838211156110f557600180546000916001600160a01b039091169063f5029254908e908e90610e8390886114da565b6040517fffffffff0000000000000000000000000000000000000000000000000000000060e086901b16815267ffffffffffffffff90931660048401526001600160a01b039091166024830152604482015260640160a06040518083038186803b158015610ef057600080fd5b505afa158015610f04573d6000803e3d6000fd5b505050506040513d601f19601f82011682018060405250810190610f28919061122b565b6040805161012081018252600080825260208083018281528385018381526060808601858152608080880187905260a0880187815260c0890188905260e0890188905261010089018890528a8a01805167ffffffffffffffff9081168b528c51909752968b01516001600160a01b03908116909552928a01805160ff908116909352908a015115159092526001549451915197516332c4d4f160e11b815291909316600482015295909116602486015294955091939092911690636589a9e29060440160206040518083038186803b15801561100357600080fd5b505afa158015611017573d6000803e3d6000fd5b505050506040513d601f19601f8201168201806040525081019061103b9190611330565b905080156110665782518190611056906402540be4006114bb565b61106091906114a7565b60808301525b6110716001866114da565b60c0830152604083015160009061108790610230565b606081015160e08501526040810151909150156110a55760016110a8565b60005b1515610100840152865183908890879081106110c6576110c6611568565b60209081029190910101526110dc60018661148f565b94505050505081806110ed906114f1565b925050610e54565b50909998505050505050505050565b6000546001600160a01b031633146105b25760405162461bcd60e51b815260206004820181905260248201527f4f776e61626c653a2063616c6c6572206973206e6f7420746865206f776e6572604482015260640161034f565b600080546001600160a01b0383811673ffffffffffffffffffffffffffffffffffffffff19831681178455604051919092169283917f8be0079c531659141344cd1fd0a4f28419497f9722a3daafe3b4186f6b6457e09190a35050565b6040518060c001604052806006906020820280368337509192915050565b6000602082840312156111eb57600080fd5b813561059981611594565b60008060006060848603121561120b57600080fd5b833561121681611594565b95602085013595506040909401359392505050565b600060a0828403121561123d57600080fd5b60405160a0810181811067ffffffffffffffff8211171561126e57634e487b7160e01b600052604160045260246000fd5b60405282518152602083015161128381611594565b60208201526040830151611296816115a9565b6040820152606083015160ff811681146112af57600080fd5b6060820152608083015180151581146112c757600080fd5b60808201529392505050565b6000604082840312156112e557600080fd5b6040516040810181811067ffffffffffffffff8211171561131657634e487b7160e01b600052604160045260246000fd5b604052825181526020928301519281019290925250919050565b60006020828403121561134257600080fd5b5051919050565b60006020828403121561135b57600080fd5b8135610599816115a9565b6000806000806080858703121561137c57600080fd5b8435611387816115a9565b9350602085013561139781611594565b93969395505050506040820135916060013590565b602080825282518282018190526000919060409081850190868401855b82811015611451578151805167ffffffffffffffff1685528681015187860152858101516001600160a01b03168686015260608082015160ff16908601526080808201519086015260a08082015115159086015260c0808201519086015260e080820151908601526101009081015115159085015261012090930192908501906001016113c9565b5091979650505050505050565b60c08101818360005b6006811015611486578151835260209283019290910190600101611467565b50505092915050565b600082198211156114a2576114a261153c565b500190565b6000826114b6576114b6611552565b500490565b60008160001904831182151516156114d5576114d561153c565b500290565b6000828210156114ec576114ec61153c565b500390565b6000816115005761150061153c565b506000190190565b600060ff821660ff81141561151f5761151f61153c565b60010192915050565b60008261153757611537611552565b500690565b634e487b7160e01b600052601160045260246000fd5b634e487b7160e01b600052601260045260246000fd5b634e487b7160e01b600052603260045260246000fd5b634e487b7160e01b600052604160045260246000fd5b6001600160a01b0381168114610c8957600080fd5b67ffffffffffffffff81168114610c8957600080fdfea2646970667358221220d2575141163160b8f595c4ece6d3240ac5824b0e4d7995c8aa704858185fa9a064736f6c63430008070033",
  "devdoc": {
    "kind": "dev",
    "methods": {
      "owner()": {
        "details": "Returns the address of the current owner."
      },
      "renounceOwnership()": {
        "details": "Leaves the contract without owner. It will not be possible to call `onlyOwner` functions anymore. Can only be called by the current owner. NOTE: Renouncing ownership will leave the contract without an owner, thereby removing any functionality that is only available to the owner."
      },
      "transferOwnership(address)": {
        "details": "Transfers ownership of the contract to a new account (`newOwner`). Can only be called by the current owner."
      }
    },
    "title": "Helper contract for fetching data from the roll.",
    "version": 1
  },
  "userdoc": {
    "kind": "user",
    "methods": {},
    "version": 1
  },
  "storageLayout": {
    "storage": [
      {
        "astId": 705,
        "contract": "contracts/RollLens.sol:RollLens",
        "label": "_owner",
        "offset": 0,
        "slot": "0",
        "type": "t_address"
      },
      {
        "astId": 5361,
        "contract": "contracts/RollLens.sol:RollLens",
        "label": "exotic",
        "offset": 0,
        "slot": "1",
        "type": "t_contract(IExotic)6220"
      }
    ],
    "types": {
      "t_address": {
        "encoding": "inplace",
        "label": "address",
        "numberOfBytes": "20"
      },
      "t_contract(IExotic)6220": {
        "encoding": "inplace",
        "label": "contract IExotic",
        "numberOfBytes": "20"
      }
    }
  }
}