{
  "address": "0xA2AeB3DcC07395107292ef87E77832b860D97561",
  "abi": [
    {
      "anonymous": false,
      "inputs": [
        {
          "indexed": false,
          "internalType": "uint8",
          "name": "version",
          "type": "uint8"
        }
      ],
      "name": "Initialized",
      "type": "event"
    },
    {
      "anonymous": false,
      "inputs": [
        {
          "indexed": true,
          "internalType": "address",
          "name": "previousOwner",
          "type": "address"
        },
        {
          "indexed": true,
          "internalType": "address",
          "name": "newOwner",
          "type": "address"
        }
      ],
      "name": "OwnershipTransferred",
      "type": "event"
    },
    {
      "inputs": [
        {
          "internalType": "uint64",
          "name": "rollId",
          "type": "uint64"
        }
      ],
      "name": "decimalOdds",
      "outputs": [
        {
          "internalType": "uint256[6]",
          "name": "",
          "type": "uint256[6]"
        }
      ],
      "stateMutability": "view",
      "type": "function"
    },
    {
      "inputs": [
        {
          "internalType": "uint64",
          "name": "rollId",
          "type": "uint64"
        },
        {
          "internalType": "uint8",
          "name": "result",
          "type": "uint8"
        },
        {
          "internalType": "uint256",
          "name": "betAmount",
          "type": "uint256"
        }
      ],
      "name": "estimateOdds",
      "outputs": [
        {
          "internalType": "uint256",
          "name": "",
          "type": "uint256"
        }
      ],
      "stateMutability": "view",
      "type": "function"
    },
    {
      "inputs": [],
      "name": "exotic",
      "outputs": [
        {
          "internalType": "contract IExotic",
          "name": "",
          "type": "address"
        }
      ],
      "stateMutability": "view",
      "type": "function"
    },
    {
      "inputs": [
        {
          "internalType": "contract IExotic",
          "name": "_exotic",
          "type": "address"
        }
      ],
      "name": "initialize",
      "outputs": [],
      "stateMutability": "nonpayable",
      "type": "function"
    },
    {
      "inputs": [],
      "name": "owner",
      "outputs": [
        {
          "internalType": "address",
          "name": "",
          "type": "address"
        }
      ],
      "stateMutability": "view",
      "type": "function"
    },
    {
      "inputs": [
        {
          "internalType": "uint64",
          "name": "rollId",
          "type": "uint64"
        }
      ],
      "name": "probabilitySummary",
      "outputs": [
        {
          "internalType": "uint256[6]",
          "name": "",
          "type": "uint256[6]"
        }
      ],
      "stateMutability": "view",
      "type": "function"
    },
    {
      "inputs": [],
      "name": "renounceOwnership",
      "outputs": [],
      "stateMutability": "nonpayable",
      "type": "function"
    },
    {
      "inputs": [
        {
          "internalType": "uint64",
          "name": "rollId",
          "type": "uint64"
        }
      ],
      "name": "roll",
      "outputs": [
        {
          "components": [
            {
              "internalType": "uint64",
              "name": "rollId",
              "type": "uint64"
            },
            {
              "internalType": "uint256",
              "name": "totalWagered",
              "type": "uint256"
            },
            {
              "internalType": "uint256",
              "name": "result",
              "type": "uint256"
            },
            {
              "internalType": "uint256",
              "name": "rollResult",
              "type": "uint256"
            },
            {
              "internalType": "uint256",
              "name": "requestId",
              "type": "uint256"
            }
          ],
          "internalType": "struct RollLens.FullRoll",
          "name": "",
          "type": "tuple"
        }
      ],
      "stateMutability": "view",
      "type": "function"
    },
    {
      "inputs": [
        {
          "internalType": "contract IExotic",
          "name": "_exotic",
          "type": "address"
        }
      ],
      "name": "setExotic",
      "outputs": [],
      "stateMutability": "nonpayable",
      "type": "function"
    },
    {
      "inputs": [
        {
          "internalType": "address",
          "name": "newOwner",
          "type": "address"
        }
      ],
      "name": "transferOwnership",
      "outputs": [],
      "stateMutability": "nonpayable",
      "type": "function"
    },
    {
      "inputs": [
        {
          "internalType": "address",
          "name": "user",
          "type": "address"
        },
        {
          "internalType": "uint256",
          "name": "resultsPerPage",
          "type": "uint256"
        },
        {
          "internalType": "uint256",
          "name": "page",
          "type": "uint256"
        }
      ],
      "name": "userBets",
      "outputs": [
        {
          "components": [
            {
              "internalType": "uint64",
              "name": "rollId",
              "type": "uint64"
            },
            {
              "internalType": "uint256",
              "name": "amount",
              "type": "uint256"
            },
            {
              "internalType": "address",
              "name": "account",
              "type": "address"
            },
            {
              "internalType": "uint8",
              "name": "prediction",
              "type": "uint8"
            },
            {
              "internalType": "uint256",
              "name": "payout",
              "type": "uint256"
            },
            {
              "internalType": "bool",
              "name": "paid",
              "type": "bool"
            },
            {
              "internalType": "uint256",
              "name": "betId",
              "type": "uint256"
            },
            {
              "internalType": "uint256",
              "name": "rollResult",
              "type": "uint256"
            },
            {
              "internalType": "bool",
              "name": "rollFinished",
              "type": "bool"
            }
          ],
          "internalType": "struct RollLens.FullBet[]",
          "name": "",
          "type": "tuple[]"
        }
      ],
      "stateMutability": "view",
      "type": "function"
    },
    {
      "inputs": [
        {
          "internalType": "uint64",
          "name": "rollId",
          "type": "uint64"
        },
        {
          "internalType": "address",
          "name": "user",
          "type": "address"
        },
        {
          "internalType": "uint256",
          "name": "resultsPerPage",
          "type": "uint256"
        },
        {
          "internalType": "uint256",
          "name": "page",
          "type": "uint256"
        }
      ],
      "name": "userRollBets",
      "outputs": [
        {
          "components": [
            {
              "internalType": "uint64",
              "name": "rollId",
              "type": "uint64"
            },
            {
              "internalType": "uint256",
              "name": "amount",
              "type": "uint256"
            },
            {
              "internalType": "address",
              "name": "account",
              "type": "address"
            },
            {
              "internalType": "uint8",
              "name": "prediction",
              "type": "uint8"
            },
            {
              "internalType": "uint256",
              "name": "payout",
              "type": "uint256"
            },
            {
              "internalType": "bool",
              "name": "paid",
              "type": "bool"
            },
            {
              "internalType": "uint256",
              "name": "betId",
              "type": "uint256"
            },
            {
              "internalType": "uint256",
              "name": "rollResult",
              "type": "uint256"
            },
            {
              "internalType": "bool",
              "name": "rollFinished",
              "type": "bool"
            }
          ],
          "internalType": "struct RollLens.FullBet[]",
          "name": "",
          "type": "tuple[]"
        }
      ],
      "stateMutability": "view",
      "type": "function"
    }
  ],
  "transactionHash": "0xc2a74ea0fd5bed1052bbd86f075aa59afcf17031f2f2a31b0288b4ea280afb15",
  "args": [],
  "numDeployments": 1,
  "solcInputHash": "6fa4c5e9da472f11f4ab50d8885d483b",
  "bytecode": "0x608060405234801561001057600080fd5b50611d00806100206000396000f3fe608060405234801561001057600080fd5b50600436106100d45760003560e01c8063c4d66de811610081578063f2fde38b1161005b578063f2fde38b1461020a578063f754fd961461021d578063fa09b3411461023057600080fd5b8063c4d66de8146101b6578063d195a054146101c9578063e40eeebb146101e957600080fd5b806373c28dc6116100b257806373c28dc61461015e578063835f3eb41461017e5780638da5cb5b1461019157600080fd5b80634740945c146100d9578063591378c4146100ee578063715018a614610156575b600080fd5b6100ec6100e7366004611830565b610243565b005b6101016100fc366004611a04565b6102d1565b60405161014d9190600060a08201905067ffffffffffffffff83511682526020830151602083015260408301516040830152606083015160608301526080830151608083015292915050565b60405180910390f35b6100ec610623565b61017161016c366004611a04565b610689565b60405161014d9190611b5a565b61017161018c366004611a04565b6107a4565b6033546001600160a01b03165b6040516001600160a01b03909116815260200161014d565b6100ec6101c4366004611830565b61087d565b6101dc6101d736600461184d565b61091b565b60405161014d9190611aa8565b6101fc6101f7366004611a67565b610d6a565b60405190815260200161014d565b6100ec610218366004611830565b610efa565b60655461019e906001600160a01b031681565b6101dc61023e366004611a21565b610fdc565b6033546001600160a01b031633146102a25760405162461bcd60e51b815260206004820181905260248201527f4f776e61626c653a2063616c6c6572206973206e6f7420746865206f776e657260448201526064015b60405180910390fd5b6065805473ffffffffffffffffffffffffffffffffffffffff19166001600160a01b0392909216919091179055565b61030d6040518060a00160405280600067ffffffffffffffff168152602001600081526020016000815260200160008152602001600081525090565b606560009054906101000a90046001600160a01b03166001600160a01b031663ead50da36040518163ffffffff1660e01b815260040160206040518083038186803b15801561035b57600080fd5b505afa15801561036f573d6000803e3d6000fd5b505050506040513d601f19601f8201168201806040525081019061039391906119eb565b6103a79067ffffffffffffffff8416611c24565b156103f45760405162461bcd60e51b815260206004820152600f60248201527f496e76616c696420726f6c6c20494400000000000000000000000000000000006044820152606401610299565b6065546040517f591378c400000000000000000000000000000000000000000000000000000000815267ffffffffffffffff841660048201526000916001600160a01b03169063591378c490602401604080518083038186803b15801561045a57600080fd5b505afa15801561046e573d6000803e3d6000fd5b505050506040513d601f19601f82011682018060405250810190610492919061199c565b90506104d06040518060a00160405280600067ffffffffffffffff168152602001600081526020016000815260200160008152602001600081525090565b67ffffffffffffffff8416808252606554604051633969f80360e01b815260048101929092526001600160a01b031690633969f8039060240160206040518083038186803b15801561052157600080fd5b505afa158015610535573d6000803e3d6000fd5b505050506040513d601f19601f8201168201806040525081019061055991906119eb565b60208083019190915282516040830152820151608082015281511561061c576065546040517fa1aa2b5b00000000000000000000000000000000000000000000000000000000815267ffffffffffffffff861660048201526001600160a01b039091169063a1aa2b5b9060240160206040518083038186803b1580156105de57600080fd5b505afa1580156105f2573d6000803e3d6000fd5b505050506040513d601f19601f8201168201806040525081019061061691906119eb565b60608201525b9392505050565b6033546001600160a01b0316331461067d5760405162461bcd60e51b815260206004820181905260248201527f4f776e61626c653a2063616c6c6572206973206e6f7420746865206f776e65726044820152606401610299565b610687600061159d565b565b610691611812565b610699611812565b60005b60068160ff16101561079d576065546040516332c4d4f160e11b815267ffffffffffffffff8616600482015260ff831660248201526000916001600160a01b031690636589a9e29060440160206040518083038186803b1580156106ff57600080fd5b505afa158015610713573d6000803e3d6000fd5b505050506040513d601f19601f8201168201806040525081019061073791906119eb565b90508061075f576000838360ff166006811061075557610755611c64565b602002015261078a565b61076f81655af3107a4000611ba3565b838360ff166006811061078457610784611c64565b60200201525b508061079581611c04565b91505061069c565b5092915050565b6107ac611812565b6107b4611812565b60005b60068160ff16101561079d576065546040516332c4d4f160e11b815267ffffffffffffffff8616600482015260ff831660248201526001600160a01b0390911690636589a9e29060440160206040518083038186803b15801561081957600080fd5b505afa15801561082d573d6000803e3d6000fd5b505050506040513d601f19601f8201168201806040525081019061085191906119eb565b828260ff166006811061086657610866611c64565b60200201528061087581611c04565b9150506107b7565b600061088960016115fc565b905080156108a1576000805461ff0019166101001790555b6065805473ffffffffffffffffffffffffffffffffffffffff19166001600160a01b0384161790556108d1611730565b8015610917576000805461ff0019169055604051600181527f7f26b83ff96e1f2b6a682f133852f6798a09c465da95921460cefb38474024989060200160405180910390a15b5050565b6065546040517ff408a23a0000000000000000000000000000000000000000000000000000000081526001600160a01b03858116600483015260609260009291169063f408a23a9060240160206040518083038186803b15801561097e57600080fd5b505afa158015610992573d6000803e3d6000fd5b505050506040513d601f19601f820116820180604052508101906109b691906119eb565b9050600080826109c68688611bb7565b11156109d757506000905080610a31565b6109e18587611bb7565b6109eb9084611bd6565b915085821115610a06576109ff8683611bd6565b9050610a0a565b5060005b82821115610a3157858310610a2857610a238684611bd6565b610a2b565b60005b90508291505b6000610a3d8284611bd6565b67ffffffffffffffff811115610a5557610a55611c7a565b604051908082528060200260200182016040528015610acc57816020015b604080516101208101825260008082526020808301829052928201819052606082018190526080820181905260a0820181905260c0820181905260e082018190526101008201528252600019909201910181610a735790505b5090508260005b83821115610d5c576065546000906001600160a01b0316634195ab8e8c610afb600187611bd6565b6040517fffffffff0000000000000000000000000000000000000000000000000000000060e085901b1681526001600160a01b039092166004830152602482015260440160a06040518083038186803b158015610b5757600080fd5b505afa158015610b6b573d6000803e3d6000fd5b505050506040513d601f19601f82011682018060405250810190610b8f9190611908565b6040805161012081018252600080825260208083018281528385018381526060808601858152608080880187905260a0880187815260c0890188905260e0890188905261010089018890528a8a01805167ffffffffffffffff9081168b528c51909752968b01516001600160a01b03908116909552928a01805160ff908116909352908a015115159092526065549451915197516332c4d4f160e11b815291909316600482015295909116602486015294955091939092911690636589a9e29060440160206040518083038186803b158015610c6a57600080fd5b505afa158015610c7e573d6000803e3d6000fd5b505050506040513d601f19601f82011682018060405250810190610ca291906119eb565b90508015610ccd5782518190610cbd906402540be400611bb7565b610cc79190611ba3565b60808301525b610cd8600186611bd6565b60c08301526040830151600090610cee906102d1565b606081015160e0850152604081015190915015610d0c576001610d0f565b60005b151561010084015286518390889087908110610d2d57610d2d611c64565b6020908102919091010152610d43600186611b8b565b9450505050508180610d5490611bed565b925050610ad3565b509098975050505050505050565b606554604051633969f80360e01b815267ffffffffffffffff8516600482015260009182916001600160a01b0390911690633969f8039060240160206040518083038186803b158015610dbc57600080fd5b505afa158015610dd0573d6000803e3d6000fd5b505050506040513d601f19601f82011682018060405250810190610df491906119eb565b6065546040517f72b51dfa00000000000000000000000000000000000000000000000000000000815267ffffffffffffffff881660048201529192506000916001600160a01b03909116906372b51dfa9060240160c06040518083038186803b158015610e6057600080fd5b505afa158015610e74573d6000803e3d6000fd5b505050506040513d601f19601f82011682018060405250810190610e989190611882565b8560ff1660068110610eac57610eac611c64565b60200201519050610ebd8483611b8b565b610ec78583611b8b565b610ed6906402540be400611bb7565b610ee09190611ba3565b610ef090655af3107a4000611ba3565b9695505050505050565b6033546001600160a01b03163314610f545760405162461bcd60e51b815260206004820181905260248201527f4f776e61626c653a2063616c6c6572206973206e6f7420746865206f776e65726044820152606401610299565b6001600160a01b038116610fd05760405162461bcd60e51b815260206004820152602660248201527f4f776e61626c653a206e6577206f776e657220697320746865207a65726f206160448201527f64647265737300000000000000000000000000000000000000000000000000006064820152608401610299565b610fd98161159d565b50565b6065546040517f46b697fe00000000000000000000000000000000000000000000000000000000815267ffffffffffffffff861660048201526001600160a01b0385811660248301526060926000929116906346b697fe9060440160206040518083038186803b15801561104f57600080fd5b505afa158015611063573d6000803e3d6000fd5b505050506040513d601f19601f8201168201806040525081019061108791906119eb565b9050600080826110978688611bb7565b11156110a857506000905080611102565b6110b28587611bb7565b6110bc9084611bd6565b9150858211156110d7576110d08683611bd6565b90506110db565b5060005b82821115611102578583106110f9576110f48684611bd6565b6110fc565b60005b90508291505b600061110e8284611bd6565b67ffffffffffffffff81111561112657611126611c7a565b60405190808252806020026020018201604052801561119d57816020015b604080516101208101825260008082526020808301829052928201819052606082018190526080820181905260a0820181905260c0820181905260e0820181905261010082015282526000199092019101816111445790505b5090508260005b8382111561158e576065546000906001600160a01b031663f50292548d8d6111cd600188611bd6565b6040517fffffffff0000000000000000000000000000000000000000000000000000000060e086901b16815267ffffffffffffffff90931660048401526001600160a01b039091166024830152604482015260640160a06040518083038186803b15801561123a57600080fd5b505afa15801561124e573d6000803e3d6000fd5b505050506040513d601f19601f820116820180604052508101906112729190611908565b6040805161012081018252600080825260208083018281528385018381526060808601858152608080880187905260a0880187815260c0890188905260e08901889052610100890197909752898901805167ffffffffffffffff9081168a528b51909652958a01516001600160a01b03908116909452918901805160ff9081169092529189015115159095526065549351905196516332c4d4f160e11b815292166004830152949092166024830152939450909290911690636589a9e29060440160206040518083038186803b15801561134b57600080fd5b505afa15801561135f573d6000803e3d6000fd5b505050506040513d601f19601f8201168201806040525081019061138391906119eb565b61138e576000611443565b606554604083810151606085015191516332c4d4f160e11b815267ffffffffffffffff909116600482015260ff90911660248201526001600160a01b0390911690636589a9e29060440160206040518083038186803b1580156113f057600080fd5b505afa158015611404573d6000803e3d6000fd5b505050506040513d601f19601f8201168201806040525081019061142891906119eb565b8251611439906402540be400611bb7565b6114439190611ba3565b60808201526065546001600160a01b0316636390e63b8d8f611466600189611bd6565b6040517fffffffff0000000000000000000000000000000000000000000000000000000060e086901b1681526001600160a01b03909316600484015267ffffffffffffffff9091166024830152604482015260640160206040518083038186803b1580156114d357600080fd5b505afa1580156114e7573d6000803e3d6000fd5b505050506040513d601f19601f8201168201806040525081019061150b91906119eb565b60c08201526040820151600090611521906102d1565b606081015160e084015260408101519091501561153f576001611542565b60005b15156101008301528551829087908690811061156057611560611c64565b6020908102919091010152611576600185611b8b565b9350505050818061158690611bed565b9250506111a4565b50909998505050505050505050565b603380546001600160a01b0383811673ffffffffffffffffffffffffffffffffffffffff19831681179093556040519116919082907f8be0079c531659141344cd1fd0a4f28419497f9722a3daafe3b4186f6b6457e090600090a35050565b60008054610100900460ff1615611699578160ff16600114801561161f5750303b155b6116915760405162461bcd60e51b815260206004820152602e60248201527f496e697469616c697a61626c653a20636f6e747261637420697320616c72656160448201527f647920696e697469616c697a65640000000000000000000000000000000000006064820152608401610299565b506000919050565b60005460ff8084169116106117165760405162461bcd60e51b815260206004820152602e60248201527f496e697469616c697a61626c653a20636f6e747261637420697320616c72656160448201527f647920696e697469616c697a65640000000000000000000000000000000000006064820152608401610299565b506000805460ff191660ff92909216919091179055600190565b600054610100900460ff1661179b5760405162461bcd60e51b815260206004820152602b60248201527f496e697469616c697a61626c653a20636f6e7472616374206973206e6f74206960448201526a6e697469616c697a696e6760a81b6064820152608401610299565b610687600054610100900460ff166118095760405162461bcd60e51b815260206004820152602b60248201527f496e697469616c697a61626c653a20636f6e7472616374206973206e6f74206960448201526a6e697469616c697a696e6760a81b6064820152608401610299565b6106873361159d565b6040518060c001604052806006906020820280368337509192915050565b60006020828403121561184257600080fd5b813561061c81611c90565b60008060006060848603121561186257600080fd5b833561186d81611c90565b95602085013595506040909401359392505050565b600060c0828403121561189457600080fd5b82601f8301126118a357600080fd5b60405160c0810181811067ffffffffffffffff821117156118c6576118c6611c7a565b604052808360c081018610156118db57600080fd5b60005b60068110156118fd5781518352602092830192909101906001016118de565b509195945050505050565b600060a0828403121561191a57600080fd5b60405160a0810181811067ffffffffffffffff8211171561193d5761193d611c7a565b60405282518152602083015161195281611c90565b6020820152604083015161196581611ca5565b6040820152606083015161197881611cbb565b60608201526080830151801515811461199057600080fd5b60808201529392505050565b6000604082840312156119ae57600080fd5b6040516040810181811067ffffffffffffffff821117156119d1576119d1611c7a565b604052825181526020928301519281019290925250919050565b6000602082840312156119fd57600080fd5b5051919050565b600060208284031215611a1657600080fd5b813561061c81611ca5565b60008060008060808587031215611a3757600080fd5b8435611a4281611ca5565b93506020850135611a5281611c90565b93969395505050506040820135916060013590565b600080600060608486031215611a7c57600080fd5b8335611a8781611ca5565b92506020840135611a9781611cbb565b929592945050506040919091013590565b602080825282518282018190526000919060409081850190868401855b82811015611b4d578151805167ffffffffffffffff1685528681015187860152858101516001600160a01b03168686015260608082015160ff16908601526080808201519086015260a08082015115159086015260c0808201519086015260e08082015190860152610100908101511515908501526101209093019290850190600101611ac5565b5091979650505050505050565b60c08101818360005b6006811015611b82578151835260209283019290910190600101611b63565b50505092915050565b60008219821115611b9e57611b9e611c38565b500190565b600082611bb257611bb2611c4e565b500490565b6000816000190483118215151615611bd157611bd1611c38565b500290565b600082821015611be857611be8611c38565b500390565b600081611bfc57611bfc611c38565b506000190190565b600060ff821660ff811415611c1b57611c1b611c38565b60010192915050565b600082611c3357611c33611c4e565b500690565b634e487b7160e01b600052601160045260246000fd5b634e487b7160e01b600052601260045260246000fd5b634e487b7160e01b600052603260045260246000fd5b634e487b7160e01b600052604160045260246000fd5b6001600160a01b0381168114610fd957600080fd5b67ffffffffffffffff81168114610fd957600080fd5b60ff81168114610fd957600080fdfea264697066735822122002a61cde8e0358d9b3cea30b873ddf52c35f0e4d2620c60d58db1d34a6cf09bf64736f6c63430008070033",
  "devdoc": {
    "kind": "dev",
    "methods": {
      "owner()": {
        "details": "Returns the address of the current owner."
      },
      "renounceOwnership()": {
        "details": "Leaves the contract without owner. It will not be possible to call `onlyOwner` functions anymore. Can only be called by the current owner. NOTE: Renouncing ownership will leave the contract without an owner, thereby removing any functionality that is only available to the owner."
      },
      "transferOwnership(address)": {
        "details": "Transfers ownership of the contract to a new account (`newOwner`). Can only be called by the current owner."
      }
    },
    "title": "Helper contract for fetching data from the roll.",
    "version": 1
  },
  "userdoc": {
    "kind": "user",
    "methods": {},
    "version": 1
  },
  "storageLayout": {
    "storage": [
      {
        "astId": 277,
        "contract": "contracts/RollLens.sol:RollLens",
        "label": "_initialized",
        "offset": 0,
        "slot": "0",
        "type": "t_uint8"
      },
      {
        "astId": 280,
        "contract": "contracts/RollLens.sol:RollLens",
        "label": "_initializing",
        "offset": 1,
        "slot": "0",
        "type": "t_bool"
      },
      {
        "astId": 774,
        "contract": "contracts/RollLens.sol:RollLens",
        "label": "__gap",
        "offset": 0,
        "slot": "1",
        "type": "t_array(t_uint256)50_storage"
      },
      {
        "astId": 157,
        "contract": "contracts/RollLens.sol:RollLens",
        "label": "_owner",
        "offset": 0,
        "slot": "51",
        "type": "t_address"
      },
      {
        "astId": 269,
        "contract": "contracts/RollLens.sol:RollLens",
        "label": "__gap",
        "offset": 0,
        "slot": "52",
        "type": "t_array(t_uint256)49_storage"
      },
      {
        "astId": 5416,
        "contract": "contracts/RollLens.sol:RollLens",
        "label": "exotic",
        "offset": 0,
        "slot": "101",
        "type": "t_contract(IExotic)6351"
      }
    ],
    "types": {
      "t_address": {
        "encoding": "inplace",
        "label": "address",
        "numberOfBytes": "20"
      },
      "t_array(t_uint256)49_storage": {
        "base": "t_uint256",
        "encoding": "inplace",
        "label": "uint256[49]",
        "numberOfBytes": "1568"
      },
      "t_array(t_uint256)50_storage": {
        "base": "t_uint256",
        "encoding": "inplace",
        "label": "uint256[50]",
        "numberOfBytes": "1600"
      },
      "t_bool": {
        "encoding": "inplace",
        "label": "bool",
        "numberOfBytes": "1"
      },
      "t_contract(IExotic)6351": {
        "encoding": "inplace",
        "label": "contract IExotic",
        "numberOfBytes": "20"
      },
      "t_uint256": {
        "encoding": "inplace",
        "label": "uint256",
        "numberOfBytes": "32"
      },
      "t_uint8": {
        "encoding": "inplace",
        "label": "uint8",
        "numberOfBytes": "1"
      }
    }
  }
}