{
  "address": "0x06326801BEAd2082789FA5b34D5f625eAcC59780",
  "abi": [
    {
      "inputs": [
        {
          "internalType": "contract IExotic",
          "name": "_exotic",
          "type": "address"
        }
      ],
      "stateMutability": "nonpayable",
      "type": "constructor"
    },
    {
      "anonymous": false,
      "inputs": [
        {
          "indexed": true,
          "internalType": "address",
          "name": "previousOwner",
          "type": "address"
        },
        {
          "indexed": true,
          "internalType": "address",
          "name": "newOwner",
          "type": "address"
        }
      ],
      "name": "OwnershipTransferred",
      "type": "event"
    },
    {
      "inputs": [
        {
          "internalType": "uint64",
          "name": "rollId",
          "type": "uint64"
        }
      ],
      "name": "decimalOdds",
      "outputs": [
        {
          "internalType": "uint256[6]",
          "name": "",
          "type": "uint256[6]"
        }
      ],
      "stateMutability": "view",
      "type": "function"
    },
    {
      "inputs": [
        {
          "internalType": "uint64",
          "name": "rollId",
          "type": "uint64"
        },
        {
          "internalType": "uint8",
          "name": "result",
          "type": "uint8"
        },
        {
          "internalType": "uint256",
          "name": "betAmount",
          "type": "uint256"
        }
      ],
      "name": "estimateOdds",
      "outputs": [
        {
          "internalType": "uint256",
          "name": "",
          "type": "uint256"
        }
      ],
      "stateMutability": "view",
      "type": "function"
    },
    {
      "inputs": [],
      "name": "exotic",
      "outputs": [
        {
          "internalType": "contract IExotic",
          "name": "",
          "type": "address"
        }
      ],
      "stateMutability": "view",
      "type": "function"
    },
    {
      "inputs": [],
      "name": "owner",
      "outputs": [
        {
          "internalType": "address",
          "name": "",
          "type": "address"
        }
      ],
      "stateMutability": "view",
      "type": "function"
    },
    {
      "inputs": [
        {
          "internalType": "uint64",
          "name": "rollId",
          "type": "uint64"
        }
      ],
      "name": "probabilitySummary",
      "outputs": [
        {
          "internalType": "uint256[6]",
          "name": "",
          "type": "uint256[6]"
        }
      ],
      "stateMutability": "view",
      "type": "function"
    },
    {
      "inputs": [],
      "name": "renounceOwnership",
      "outputs": [],
      "stateMutability": "nonpayable",
      "type": "function"
    },
    {
      "inputs": [
        {
          "internalType": "uint64",
          "name": "rollId",
          "type": "uint64"
        }
      ],
      "name": "roll",
      "outputs": [
        {
          "components": [
            {
              "internalType": "uint64",
              "name": "rollId",
              "type": "uint64"
            },
            {
              "internalType": "uint256",
              "name": "totalWagered",
              "type": "uint256"
            },
            {
              "internalType": "uint256",
              "name": "result",
              "type": "uint256"
            },
            {
              "internalType": "uint256",
              "name": "rollResult",
              "type": "uint256"
            },
            {
              "internalType": "uint256",
              "name": "requestId",
              "type": "uint256"
            }
          ],
          "internalType": "struct RollLens.FullRoll",
          "name": "",
          "type": "tuple"
        }
      ],
      "stateMutability": "view",
      "type": "function"
    },
    {
      "inputs": [
        {
          "internalType": "contract IExotic",
          "name": "_exotic",
          "type": "address"
        }
      ],
      "name": "setExotic",
      "outputs": [],
      "stateMutability": "nonpayable",
      "type": "function"
    },
    {
      "inputs": [
        {
          "internalType": "address",
          "name": "newOwner",
          "type": "address"
        }
      ],
      "name": "transferOwnership",
      "outputs": [],
      "stateMutability": "nonpayable",
      "type": "function"
    },
    {
      "inputs": [
        {
          "internalType": "address",
          "name": "user",
          "type": "address"
        },
        {
          "internalType": "uint256",
          "name": "resultsPerPage",
          "type": "uint256"
        },
        {
          "internalType": "uint256",
          "name": "page",
          "type": "uint256"
        }
      ],
      "name": "userBets",
      "outputs": [
        {
          "components": [
            {
              "internalType": "uint64",
              "name": "rollId",
              "type": "uint64"
            },
            {
              "internalType": "uint256",
              "name": "amount",
              "type": "uint256"
            },
            {
              "internalType": "address",
              "name": "account",
              "type": "address"
            },
            {
              "internalType": "uint8",
              "name": "prediction",
              "type": "uint8"
            },
            {
              "internalType": "uint256",
              "name": "payout",
              "type": "uint256"
            },
            {
              "internalType": "bool",
              "name": "paid",
              "type": "bool"
            },
            {
              "internalType": "uint256",
              "name": "betId",
              "type": "uint256"
            },
            {
              "internalType": "uint256",
              "name": "rollResult",
              "type": "uint256"
            },
            {
              "internalType": "bool",
              "name": "rollFinished",
              "type": "bool"
            }
          ],
          "internalType": "struct RollLens.FullBet[]",
          "name": "",
          "type": "tuple[]"
        }
      ],
      "stateMutability": "view",
      "type": "function"
    },
    {
      "inputs": [
        {
          "internalType": "uint64",
          "name": "rollId",
          "type": "uint64"
        },
        {
          "internalType": "address",
          "name": "user",
          "type": "address"
        },
        {
          "internalType": "uint256",
          "name": "resultsPerPage",
          "type": "uint256"
        },
        {
          "internalType": "uint256",
          "name": "page",
          "type": "uint256"
        }
      ],
      "name": "userRollBets",
      "outputs": [
        {
          "components": [
            {
              "internalType": "uint64",
              "name": "rollId",
              "type": "uint64"
            },
            {
              "internalType": "uint256",
              "name": "amount",
              "type": "uint256"
            },
            {
              "internalType": "address",
              "name": "account",
              "type": "address"
            },
            {
              "internalType": "uint8",
              "name": "prediction",
              "type": "uint8"
            },
            {
              "internalType": "uint256",
              "name": "payout",
              "type": "uint256"
            },
            {
              "internalType": "bool",
              "name": "paid",
              "type": "bool"
            },
            {
              "internalType": "uint256",
              "name": "betId",
              "type": "uint256"
            },
            {
              "internalType": "uint256",
              "name": "rollResult",
              "type": "uint256"
            },
            {
              "internalType": "bool",
              "name": "rollFinished",
              "type": "bool"
            }
          ],
          "internalType": "struct RollLens.FullBet[]",
          "name": "",
          "type": "tuple[]"
        }
      ],
      "stateMutability": "view",
      "type": "function"
    }
  ],
  "transactionHash": "0x2f21548f30d768ac78187b5eb28b79212bfd011cb2abcce9bb0b00d3207353ce",
  "args": [
    "0x2D6B6438F3ef8e9daf28ebD16E54A7e91C0152BC"
  ],
  "numDeployments": 2,
  "solcInputHash": "9bfd36e0ea2e7e1ed651f5bf7b0d80fa",
  "bytecode": "0x608060405234801561001057600080fd5b50604051611aa0380380611aa083398101604081905261002f916100ad565b6100383361005d565b600180546001600160a01b0319166001600160a01b03929092169190911790556100dd565b600080546001600160a01b038381166001600160a01b0319831681178455604051919092169283917f8be0079c531659141344cd1fd0a4f28419497f9722a3daafe3b4186f6b6457e09190a35050565b6000602082840312156100bf57600080fd5b81516001600160a01b03811681146100d657600080fd5b9392505050565b6119b4806100ec6000396000f3fe608060405234801561001057600080fd5b50600436106100c95760003560e01c80638da5cb5b11610081578063f2fde38b1161005b578063f2fde38b146101ec578063f754fd96146101ff578063fa09b3411461021257600080fd5b80638da5cb5b14610186578063d195a054146101ab578063e40eeebb146101cb57600080fd5b8063715018a6116100b2578063715018a61461014b57806373c28dc614610153578063835f3eb41461017357600080fd5b80634740945c146100ce578063591378c4146100e3575b600080fd5b6100e16100dc3660046114e4565b610225565b005b6100f66100f13660046116b8565b61025c565b6040516101429190600060a08201905067ffffffffffffffff83511682526020830151602083015260408301516040830152606083015160608301526080830151608083015292915050565b60405180910390f35b6100e16105b3565b6101666101613660046116b8565b6105c7565b604051610142919061180e565b6101666101813660046116b8565b6106e2565b6000546001600160a01b03165b6040516001600160a01b039091168152602001610142565b6101be6101b9366004611501565b6107bb565b604051610142919061175c565b6101de6101d936600461171b565b610c0f565b604051908152602001610142565b6100e16101fa3660046114e4565b610d9f565b600154610193906001600160a01b031681565b6101be6102203660046116d5565b610e2f565b61022d61140f565b6001805473ffffffffffffffffffffffffffffffffffffffff19166001600160a01b0392909216919091179055565b6102986040518060a00160405280600067ffffffffffffffff168152602001600081526020016000815260200160008152602001600081525090565b600160009054906101000a90046001600160a01b03166001600160a01b031663ead50da36040518163ffffffff1660e01b815260040160206040518083038186803b1580156102e657600080fd5b505afa1580156102fa573d6000803e3d6000fd5b505050506040513d601f19601f8201168201806040525081019061031e919061169f565b6103329067ffffffffffffffff84166118d8565b156103845760405162461bcd60e51b815260206004820152600f60248201527f496e76616c696420726f6c6c204944000000000000000000000000000000000060448201526064015b60405180910390fd5b6001546040517f591378c400000000000000000000000000000000000000000000000000000000815267ffffffffffffffff841660048201526000916001600160a01b03169063591378c490602401604080518083038186803b1580156103ea57600080fd5b505afa1580156103fe573d6000803e3d6000fd5b505050506040513d601f19601f820116820180604052508101906104229190611650565b90506104606040518060a00160405280600067ffffffffffffffff168152602001600081526020016000815260200160008152602001600081525090565b67ffffffffffffffff8416808252600154604051633969f80360e01b815260048101929092526001600160a01b031690633969f8039060240160206040518083038186803b1580156104b157600080fd5b505afa1580156104c5573d6000803e3d6000fd5b505050506040513d601f19601f820116820180604052508101906104e9919061169f565b6020808301919091528251604083015282015160808201528151156105ac576001546040517fa1aa2b5b00000000000000000000000000000000000000000000000000000000815267ffffffffffffffff861660048201526001600160a01b039091169063a1aa2b5b9060240160206040518083038186803b15801561056e57600080fd5b505afa158015610582573d6000803e3d6000fd5b505050506040513d601f19601f820116820180604052508101906105a6919061169f565b60608201525b9392505050565b6105bb61140f565b6105c56000611469565b565b6105cf6114c6565b6105d76114c6565b60005b60068160ff1610156106db576001546040516332c4d4f160e11b815267ffffffffffffffff8616600482015260ff831660248201526000916001600160a01b031690636589a9e29060440160206040518083038186803b15801561063d57600080fd5b505afa158015610651573d6000803e3d6000fd5b505050506040513d601f19601f82011682018060405250810190610675919061169f565b90508061069d576000838360ff166006811061069357610693611918565b60200201526106c8565b6106ad81655af3107a4000611857565b838360ff16600681106106c2576106c2611918565b60200201525b50806106d3816118b8565b9150506105da565b5092915050565b6106ea6114c6565b6106f26114c6565b60005b60068160ff1610156106db576001546040516332c4d4f160e11b815267ffffffffffffffff8616600482015260ff831660248201526001600160a01b0390911690636589a9e29060440160206040518083038186803b15801561075757600080fd5b505afa15801561076b573d6000803e3d6000fd5b505050506040513d601f19601f8201168201806040525081019061078f919061169f565b828260ff16600681106107a4576107a4611918565b6020020152806107b3816118b8565b9150506106f5565b6001546040517ff408a23a0000000000000000000000000000000000000000000000000000000081526001600160a01b03858116600483015260609260009291169063f408a23a9060240160206040518083038186803b15801561081e57600080fd5b505afa158015610832573d6000803e3d6000fd5b505050506040513d601f19601f82011682018060405250810190610856919061169f565b905060008082610866868861186b565b1115610877575060009050806108d1565b610881858761186b565b61088b908461188a565b9150858211156108a65761089f868361188a565b90506108aa565b5060005b828211156108d1578583106108c8576108c3868461188a565b6108cb565b60005b90508291505b60006108dd828461188a565b67ffffffffffffffff8111156108f5576108f561192e565b60405190808252806020026020018201604052801561096c57816020015b604080516101208101825260008082526020808301829052928201819052606082018190526080820181905260a0820181905260c0820181905260e0820181905261010082015282526000199092019101816109135790505b5090508260005b83821115610c0157600180546000916001600160a01b0390911690634195ab8e908d906109a0908761188a565b6040517fffffffff0000000000000000000000000000000000000000000000000000000060e085901b1681526001600160a01b039092166004830152602482015260440160a06040518083038186803b1580156109fc57600080fd5b505afa158015610a10573d6000803e3d6000fd5b505050506040513d601f19601f82011682018060405250810190610a3491906115bc565b6040805161012081018252600080825260208083018281528385018381526060808601858152608080880187905260a0880187815260c0890188905260e0890188905261010089018890528a8a01805167ffffffffffffffff9081168b528c51909752968b01516001600160a01b03908116909552928a01805160ff908116909352908a015115159092526001549451915197516332c4d4f160e11b815291909316600482015295909116602486015294955091939092911690636589a9e29060440160206040518083038186803b158015610b0f57600080fd5b505afa158015610b23573d6000803e3d6000fd5b505050506040513d601f19601f82011682018060405250810190610b47919061169f565b90508015610b725782518190610b62906402540be40061186b565b610b6c9190611857565b60808301525b610b7d60018661188a565b60c08301526040830151600090610b939061025c565b606081015160e0850152604081015190915015610bb1576001610bb4565b60005b151561010084015286518390889087908110610bd257610bd2611918565b6020908102919091010152610be860018661183f565b9450505050508180610bf9906118a1565b925050610973565b509098975050505050505050565b600154604051633969f80360e01b815267ffffffffffffffff8516600482015260009182916001600160a01b0390911690633969f8039060240160206040518083038186803b158015610c6157600080fd5b505afa158015610c75573d6000803e3d6000fd5b505050506040513d601f19601f82011682018060405250810190610c99919061169f565b6001546040517f72b51dfa00000000000000000000000000000000000000000000000000000000815267ffffffffffffffff881660048201529192506000916001600160a01b03909116906372b51dfa9060240160c06040518083038186803b158015610d0557600080fd5b505afa158015610d19573d6000803e3d6000fd5b505050506040513d601f19601f82011682018060405250810190610d3d9190611536565b8560ff1660068110610d5157610d51611918565b60200201519050610d62848361183f565b610d6c858361183f565b610d7b906402540be40061186b565b610d859190611857565b610d9590655af3107a4000611857565b9695505050505050565b610da761140f565b6001600160a01b038116610e235760405162461bcd60e51b815260206004820152602660248201527f4f776e61626c653a206e6577206f776e657220697320746865207a65726f206160448201527f6464726573730000000000000000000000000000000000000000000000000000606482015260840161037b565b610e2c81611469565b50565b6001546040517f46b697fe00000000000000000000000000000000000000000000000000000000815267ffffffffffffffff861660048201526001600160a01b0385811660248301526060926000929116906346b697fe9060440160206040518083038186803b158015610ea257600080fd5b505afa158015610eb6573d6000803e3d6000fd5b505050506040513d601f19601f82011682018060405250810190610eda919061169f565b905060008082610eea868861186b565b1115610efb57506000905080610f55565b610f05858761186b565b610f0f908461188a565b915085821115610f2a57610f23868361188a565b9050610f2e565b5060005b82821115610f5557858310610f4c57610f47868461188a565b610f4f565b60005b90508291505b6000610f61828461188a565b67ffffffffffffffff811115610f7957610f7961192e565b604051908082528060200260200182016040528015610ff057816020015b604080516101208101825260008082526020808301829052928201819052606082018190526080820181905260a0820181905260c0820181905260e082018190526101008201528252600019909201910181610f975790505b5090508260005b8382111561140057600180546000916001600160a01b039091169063f5029254908e908e90611026908861188a565b6040517fffffffff0000000000000000000000000000000000000000000000000000000060e086901b16815267ffffffffffffffff90931660048401526001600160a01b039091166024830152604482015260640160a06040518083038186803b15801561109357600080fd5b505afa1580156110a7573d6000803e3d6000fd5b505050506040513d601f19601f820116820180604052508101906110cb91906115bc565b6040805161012081018252600080825260208083018281528385018381526060808601858152608080880187905260a0880187815260c0890188905260e08901889052610100890197909752898901805167ffffffffffffffff9081168a528b51909652958a01516001600160a01b03908116909452918901805160ff9081169092529189015115159095526001549351905196516332c4d4f160e11b815292166004830152949092166024830152939450909290911690636589a9e29060440160206040518083038186803b1580156111a457600080fd5b505afa1580156111b8573d6000803e3d6000fd5b505050506040513d601f19601f820116820180604052508101906111dc919061169f565b6111e757600061129c565b600154604083810151606085015191516332c4d4f160e11b815267ffffffffffffffff909116600482015260ff90911660248201526001600160a01b0390911690636589a9e29060440160206040518083038186803b15801561124957600080fd5b505afa15801561125d573d6000803e3d6000fd5b505050506040513d601f19601f82011682018060405250810190611281919061169f565b8251611292906402540be40061186b565b61129c9190611857565b816080018181525050600160009054906101000a90046001600160a01b03166001600160a01b0316636390e63b8d8f6001886112d8919061188a565b6040517fffffffff0000000000000000000000000000000000000000000000000000000060e086901b1681526001600160a01b03909316600484015267ffffffffffffffff9091166024830152604482015260640160206040518083038186803b15801561134557600080fd5b505afa158015611359573d6000803e3d6000fd5b505050506040513d601f19601f8201168201806040525081019061137d919061169f565b60c082015260408201516000906113939061025c565b606081015160e08401526040810151909150156113b15760016113b4565b60005b1515610100830152855182908790869081106113d2576113d2611918565b60209081029190910101526113e860018561183f565b935050505081806113f8906118a1565b925050610ff7565b50909998505050505050505050565b6000546001600160a01b031633146105c55760405162461bcd60e51b815260206004820181905260248201527f4f776e61626c653a2063616c6c6572206973206e6f7420746865206f776e6572604482015260640161037b565b600080546001600160a01b0383811673ffffffffffffffffffffffffffffffffffffffff19831681178455604051919092169283917f8be0079c531659141344cd1fd0a4f28419497f9722a3daafe3b4186f6b6457e09190a35050565b6040518060c001604052806006906020820280368337509192915050565b6000602082840312156114f657600080fd5b81356105ac81611944565b60008060006060848603121561151657600080fd5b833561152181611944565b95602085013595506040909401359392505050565b600060c0828403121561154857600080fd5b82601f83011261155757600080fd5b60405160c0810181811067ffffffffffffffff8211171561157a5761157a61192e565b604052808360c0810186101561158f57600080fd5b60005b60068110156115b1578151835260209283019290910190600101611592565b509195945050505050565b600060a082840312156115ce57600080fd5b60405160a0810181811067ffffffffffffffff821117156115f1576115f161192e565b60405282518152602083015161160681611944565b6020820152604083015161161981611959565b6040820152606083015161162c8161196f565b60608201526080830151801515811461164457600080fd5b60808201529392505050565b60006040828403121561166257600080fd5b6040516040810181811067ffffffffffffffff821117156116855761168561192e565b604052825181526020928301519281019290925250919050565b6000602082840312156116b157600080fd5b5051919050565b6000602082840312156116ca57600080fd5b81356105ac81611959565b600080600080608085870312156116eb57600080fd5b84356116f681611959565b9350602085013561170681611944565b93969395505050506040820135916060013590565b60008060006060848603121561173057600080fd5b833561173b81611959565b9250602084013561174b8161196f565b929592945050506040919091013590565b602080825282518282018190526000919060409081850190868401855b82811015611801578151805167ffffffffffffffff1685528681015187860152858101516001600160a01b03168686015260608082015160ff16908601526080808201519086015260a08082015115159086015260c0808201519086015260e08082015190860152610100908101511515908501526101209093019290850190600101611779565b5091979650505050505050565b60c08101818360005b6006811015611836578151835260209283019290910190600101611817565b50505092915050565b60008219821115611852576118526118ec565b500190565b60008261186657611866611902565b500490565b6000816000190483118215151615611885576118856118ec565b500290565b60008282101561189c5761189c6118ec565b500390565b6000816118b0576118b06118ec565b506000190190565b600060ff821660ff8114156118cf576118cf6118ec565b60010192915050565b6000826118e7576118e7611902565b500690565b634e487b7160e01b600052601160045260246000fd5b634e487b7160e01b600052601260045260246000fd5b634e487b7160e01b600052603260045260246000fd5b634e487b7160e01b600052604160045260246000fd5b6001600160a01b0381168114610e2c57600080fd5b67ffffffffffffffff81168114610e2c57600080fd5b60ff81168114610e2c57600080fdfea2646970667358221220f263da1b958049022d68b0f11bf8ed9d0f98322e94c20c09ae7fa8fcec00dc5164736f6c63430008070033",
  "devdoc": {
    "kind": "dev",
    "methods": {
      "owner()": {
        "details": "Returns the address of the current owner."
      },
      "renounceOwnership()": {
        "details": "Leaves the contract without owner. It will not be possible to call `onlyOwner` functions anymore. Can only be called by the current owner. NOTE: Renouncing ownership will leave the contract without an owner, thereby removing any functionality that is only available to the owner."
      },
      "transferOwnership(address)": {
        "details": "Transfers ownership of the contract to a new account (`newOwner`). Can only be called by the current owner."
      }
    },
    "title": "Helper contract for fetching data from the roll.",
    "version": 1
  },
  "userdoc": {
    "kind": "user",
    "methods": {},
    "version": 1
  },
  "storageLayout": {
    "storage": [
      {
        "astId": 705,
        "contract": "contracts/RollLens.sol:RollLens",
        "label": "_owner",
        "offset": 0,
        "slot": "0",
        "type": "t_address"
      },
      {
        "astId": 5526,
        "contract": "contracts/RollLens.sol:RollLens",
        "label": "exotic",
        "offset": 0,
        "slot": "1",
        "type": "t_contract(IExotic)6456"
      }
    ],
    "types": {
      "t_address": {
        "encoding": "inplace",
        "label": "address",
        "numberOfBytes": "20"
      },
      "t_contract(IExotic)6456": {
        "encoding": "inplace",
        "label": "contract IExotic",
        "numberOfBytes": "20"
      }
    }
  }
}