{
  "address": "0xA33D91c23e3746410A09BC8B4668196d2db378E1",
  "abi": [
    {
      "inputs": [
        {
          "internalType": "address",
          "name": "beneficiaryAddress",
          "type": "address"
        },
        {
          "internalType": "uint64",
          "name": "startTimestamp",
          "type": "uint64"
        },
        {
          "internalType": "uint64",
          "name": "durationSeconds",
          "type": "uint64"
        }
      ],
      "stateMutability": "nonpayable",
      "type": "constructor"
    },
    {
      "anonymous": false,
      "inputs": [
        {
          "indexed": true,
          "internalType": "address",
          "name": "token",
          "type": "address"
        },
        {
          "indexed": false,
          "internalType": "uint256",
          "name": "amount",
          "type": "uint256"
        }
      ],
      "name": "ERC20Released",
      "type": "event"
    },
    {
      "anonymous": false,
      "inputs": [
        {
          "indexed": false,
          "internalType": "uint256",
          "name": "amount",
          "type": "uint256"
        }
      ],
      "name": "EtherReleased",
      "type": "event"
    },
    {
      "inputs": [],
      "name": "beneficiary",
      "outputs": [
        {
          "internalType": "address",
          "name": "",
          "type": "address"
        }
      ],
      "stateMutability": "view",
      "type": "function"
    },
    {
      "inputs": [],
      "name": "duration",
      "outputs": [
        {
          "internalType": "uint256",
          "name": "",
          "type": "uint256"
        }
      ],
      "stateMutability": "view",
      "type": "function"
    },
    {
      "inputs": [
        {
          "internalType": "address",
          "name": "token",
          "type": "address"
        }
      ],
      "name": "release",
      "outputs": [],
      "stateMutability": "nonpayable",
      "type": "function"
    },
    {
      "inputs": [],
      "name": "release",
      "outputs": [],
      "stateMutability": "nonpayable",
      "type": "function"
    },
    {
      "inputs": [],
      "name": "released",
      "outputs": [
        {
          "internalType": "uint256",
          "name": "",
          "type": "uint256"
        }
      ],
      "stateMutability": "view",
      "type": "function"
    },
    {
      "inputs": [
        {
          "internalType": "address",
          "name": "token",
          "type": "address"
        }
      ],
      "name": "released",
      "outputs": [
        {
          "internalType": "uint256",
          "name": "",
          "type": "uint256"
        }
      ],
      "stateMutability": "view",
      "type": "function"
    },
    {
      "inputs": [],
      "name": "start",
      "outputs": [
        {
          "internalType": "uint256",
          "name": "",
          "type": "uint256"
        }
      ],
      "stateMutability": "view",
      "type": "function"
    },
    {
      "inputs": [
        {
          "internalType": "uint64",
          "name": "timestamp",
          "type": "uint64"
        }
      ],
      "name": "vestedAmount",
      "outputs": [
        {
          "internalType": "uint256",
          "name": "",
          "type": "uint256"
        }
      ],
      "stateMutability": "view",
      "type": "function"
    },
    {
      "inputs": [
        {
          "internalType": "address",
          "name": "token",
          "type": "address"
        },
        {
          "internalType": "uint64",
          "name": "timestamp",
          "type": "uint64"
        }
      ],
      "name": "vestedAmount",
      "outputs": [
        {
          "internalType": "uint256",
          "name": "",
          "type": "uint256"
        }
      ],
      "stateMutability": "view",
      "type": "function"
    },
    {
      "stateMutability": "payable",
      "type": "receive"
    }
  ],
  "transactionHash": "0xdd3af88a8b7fc6b251f214e4c6ec0af3fbba225f1a864e2507a0e6464656a765",
  "args": [
    "0xC357F6cB15d26D2a6e988C055d3E24E8EFEdB044",
    1657411200,
    31536000
  ],
  "numDeployments": 1,
  "solcInputHash": "dcf28716aadc2645d6721c58d4432e66",
  "bytecode": "0x60e060405234801561001057600080fd5b50604051610d88380380610d8883398101604081905261002f916100ec565b6001600160a01b03831661009c5760405162461bcd60e51b815260206004820152602a60248201527f56657374696e6757616c6c65743a2062656e6566696369617279206973207a65604482015269726f206164647265737360b01b606482015260840160405180910390fd5b60609290921b6001600160601b03191660805260c090811b6001600160c01b031990811660a05291811b909116905261013d565b80516001600160401b03811681146100e757600080fd5b919050565b60008060006060848603121561010157600080fd5b83516001600160a01b038116811461011857600080fd5b9250610126602085016100d0565b9150610134604085016100d0565b90509250925092565b60805160601c60a05160c01c60c05160c01c610be36101a56000396000818160e8015281816104ca015261052d01526000818161020b0152818161047a015281816104ee015261055801526000818161015201528181610300015261044e0152610be36000f3fe60806040526004361061009a5760003560e01c8063810ec23b11610069578063961325211161004e57806396132521146101b15780639852595c146101c6578063be9a6555146101fc57600080fd5b8063810ec23b1461017c57806386d1a69f1461019c57600080fd5b80630a17b06b146100a65780630fb5a6b4146100d9578063191655871461011657806338af3eed1461013857600080fd5b366100a157005b600080fd5b3480156100b257600080fd5b506100c66100c1366004610a8d565b610239565b6040519081526020015b60405180910390f35b3480156100e557600080fd5b507f000000000000000000000000000000000000000000000000000000000000000067ffffffffffffffff166100c6565b34801561012257600080fd5b50610136610131366004610a04565b61025d565b005b34801561014457600080fd5b506040516001600160a01b037f00000000000000000000000000000000000000000000000000000000000000001681526020016100d0565b34801561018857600080fd5b506100c6610197366004610a1f565b610329565b3480156101a857600080fd5b506101366103e7565b3480156101bd57600080fd5b506000546100c6565b3480156101d257600080fd5b506100c66101e1366004610a04565b6001600160a01b031660009081526001602052604090205490565b34801561020857600080fd5b507f000000000000000000000000000000000000000000000000000000000000000067ffffffffffffffff166100c6565b600061025761024760005490565b6102519047610af7565b83610476565b92915050565b6001600160a01b0381166000908152600160205260408120546102808342610329565b61028a9190610b50565b6001600160a01b0383166000908152600160205260408120805492935083929091906102b7908490610af7565b90915550506040518181526001600160a01b038316907fc0e523490dd523c33b1878c9eb14ff46991e3f5b2cd33710918618f2a39cba1b9060200160405180910390a2610325827f0000000000000000000000000000000000000000000000000000000000000000836105b0565b5050565b6001600160a01b0382166000908152600160205260408120546103e0906040517f70a082310000000000000000000000000000000000000000000000000000000081523060048201526001600160a01b038616906370a082319060240160206040518083038186803b15801561039e57600080fd5b505afa1580156103b2573d6000803e3d6000fd5b505050506040513d601f19601f820116820180604052508101906103d69190610a74565b6102519190610af7565b9392505050565b600080546103f442610239565b6103fe9190610b50565b9050806000808282546104119190610af7565b90915550506040518181527fda9d4e5f101b8b9b1c5b76d0c5a9f7923571acfc02376aa076b75a8c080c956b9060200160405180910390a16104737f000000000000000000000000000000000000000000000000000000000000000082610635565b50565b60007f000000000000000000000000000000000000000000000000000000000000000067ffffffffffffffff168267ffffffffffffffff1610156104bc57506000610257565b61051367ffffffffffffffff7f00000000000000000000000000000000000000000000000000000000000000008116907f000000000000000000000000000000000000000000000000000000000000000016610af7565b8267ffffffffffffffff16111561052b575081610257565b7f000000000000000000000000000000000000000000000000000000000000000067ffffffffffffffff167f000000000000000000000000000000000000000000000000000000000000000067ffffffffffffffff166105959067ffffffffffffffff8516610b50565b61059f9085610b31565b6105a99190610b0f565b9050610257565b604080516001600160a01b038416602482015260448082018490528251808303909101815260649091019091526020810180517bffffffffffffffffffffffffffffffffffffffffffffffffffffffff167fa9059cbb00000000000000000000000000000000000000000000000000000000179052610630908490610753565b505050565b8047101561068a5760405162461bcd60e51b815260206004820152601d60248201527f416464726573733a20696e73756666696369656e742062616c616e636500000060448201526064015b60405180910390fd5b6000826001600160a01b03168260405160006040518083038185875af1925050503d80600081146106d7576040519150601f19603f3d011682016040523d82523d6000602084013e6106dc565b606091505b50509050806106305760405162461bcd60e51b815260206004820152603a60248201527f416464726573733a20756e61626c6520746f2073656e642076616c75652c207260448201527f6563697069656e74206d617920686176652072657665727465640000000000006064820152608401610681565b60006107a8826040518060400160405280602081526020017f5361666545524332303a206c6f772d6c6576656c2063616c6c206661696c6564815250856001600160a01b03166108389092919063ffffffff16565b80519091501561063057808060200190518101906107c69190610a52565b6106305760405162461bcd60e51b815260206004820152602a60248201527f5361666545524332303a204552433230206f7065726174696f6e20646964206e60448201527f6f742073756363656564000000000000000000000000000000000000000000006064820152608401610681565b6060610847848460008561084f565b949350505050565b6060824710156108c75760405162461bcd60e51b815260206004820152602660248201527f416464726573733a20696e73756666696369656e742062616c616e636520666f60448201527f722063616c6c00000000000000000000000000000000000000000000000000006064820152608401610681565b6001600160a01b0385163b61091e5760405162461bcd60e51b815260206004820152601d60248201527f416464726573733a2063616c6c20746f206e6f6e2d636f6e74726163740000006044820152606401610681565b600080866001600160a01b0316858760405161093a9190610aa8565b60006040518083038185875af1925050503d8060008114610977576040519150601f19603f3d011682016040523d82523d6000602084013e61097c565b606091505b509150915061098c828286610997565b979650505050505050565b606083156109a65750816103e0565b8251156109b65782518084602001fd5b8160405162461bcd60e51b81526004016106819190610ac4565b80356001600160a01b03811681146109e757600080fd5b919050565b803567ffffffffffffffff811681146109e757600080fd5b600060208284031215610a1657600080fd5b6103e0826109d0565b60008060408385031215610a3257600080fd5b610a3b836109d0565b9150610a49602084016109ec565b90509250929050565b600060208284031215610a6457600080fd5b815180151581146103e057600080fd5b600060208284031215610a8657600080fd5b5051919050565b600060208284031215610a9f57600080fd5b6103e0826109ec565b60008251610aba818460208701610b67565b9190910192915050565b6020815260008251806020840152610ae3816040850160208701610b67565b601f01601f19169190910160400192915050565b60008219821115610b0a57610b0a610b97565b500190565b600082610b2c57634e487b7160e01b600052601260045260246000fd5b500490565b6000816000190483118215151615610b4b57610b4b610b97565b500290565b600082821015610b6257610b62610b97565b500390565b60005b83811015610b82578181015183820152602001610b6a565b83811115610b91576000848401525b50505050565b634e487b7160e01b600052601160045260246000fdfea26469706673582212204159ad06e4d38f2a93a15eb628a264b94449574febb9f91cc2a265d2a90dc4d064736f6c63430008070033",
  "devdoc": {
    "details": "This contract handles the vesting of Eth and ERC20 tokens for a given beneficiary. Custody of multiple tokens can be given to this contract, which will release the token to the beneficiary following a given vesting schedule. The vesting schedule is customizable through the {vestedAmount} function. Any token transferred to this contract will follow the vesting schedule as if they were locked from the beginning. Consequently, if the vesting has already started, any amount of tokens sent to this contract will (at least partly) be immediately releasable.",
    "kind": "dev",
    "methods": {
      "beneficiary()": {
        "details": "Getter for the beneficiary address."
      },
      "constructor": {
        "details": "Set the beneficiary, start timestamp and vesting duration of the vesting wallet."
      },
      "duration()": {
        "details": "Getter for the vesting duration."
      },
      "release()": {
        "details": "Release the native token (ether) that have already vested. Emits a {EtherReleased} event."
      },
      "release(address)": {
        "details": "Release the tokens that have already vested. Emits a {ERC20Released} event."
      },
      "released()": {
        "details": "Amount of eth already released"
      },
      "released(address)": {
        "details": "Amount of token already released"
      },
      "start()": {
        "details": "Getter for the start timestamp."
      },
      "vestedAmount(address,uint64)": {
        "details": "Calculates the amount of tokens that has already vested. Default implementation is a linear vesting curve."
      },
      "vestedAmount(uint64)": {
        "details": "Calculates the amount of ether that has already vested. Default implementation is a linear vesting curve."
      }
    },
    "title": "VestingWallet",
    "version": 1
  },
  "userdoc": {
    "kind": "user",
    "methods": {},
    "version": 1
  },
  "storageLayout": {
    "storage": [
      {
        "astId": 831,
        "contract": "@openzeppelin/contracts/finance/VestingWallet.sol:VestingWallet",
        "label": "_released",
        "offset": 0,
        "slot": "0",
        "type": "t_uint256"
      },
      {
        "astId": 835,
        "contract": "@openzeppelin/contracts/finance/VestingWallet.sol:VestingWallet",
        "label": "_erc20Released",
        "offset": 0,
        "slot": "1",
        "type": "t_mapping(t_address,t_uint256)"
      }
    ],
    "types": {
      "t_address": {
        "encoding": "inplace",
        "label": "address",
        "numberOfBytes": "20"
      },
      "t_mapping(t_address,t_uint256)": {
        "encoding": "mapping",
        "key": "t_address",
        "label": "mapping(address => uint256)",
        "numberOfBytes": "32",
        "value": "t_uint256"
      },
      "t_uint256": {
        "encoding": "inplace",
        "label": "uint256",
        "numberOfBytes": "32"
      }
    }
  }
}